{
  "_format": "hh-sol-artifact-1",
  "contractName": "TrustEventLog",
  "sourceName": "contracts/TrustEventLog.sol",
  "abi": [
    {
      "inputs": [],
      "stateMutability": "nonpayable",
      "type": "constructor"
    },
    {
      "anonymous": false,
      "inputs": [
        {
          "indexed": false,
          "internalType": "address",
          "name": "previousAdmin",
          "type": "address"
        },
        {
          "indexed": false,
          "internalType": "address",
          "name": "newAdmin",
          "type": "address"
        }
      ],
      "name": "AdminChanged",
      "type": "event"
    },
    {
      "anonymous": false,
      "inputs": [
        {
          "indexed": true,
          "internalType": "address",
          "name": "beacon",
          "type": "address"
        }
      ],
      "name": "BeaconUpgraded",
      "type": "event"
    },
    {
      "anonymous": false,
      "inputs": [
        {
          "indexed": false,
          "internalType": "uint8",
          "name": "version",
          "type": "uint8"
        }
      ],
      "name": "Initialized",
      "type": "event"
    },
    {
      "anonymous": false,
      "inputs": [
        {
          "indexed": true,
          "internalType": "address",
          "name": "previousOwner",
          "type": "address"
        },
        {
          "indexed": true,
          "internalType": "address",
          "name": "newOwner",
          "type": "address"
        }
      ],
      "name": "OwnershipTransferred",
      "type": "event"
    },
    {
      "anonymous": false,
      "inputs": [
        {
          "indexed": true,
          "internalType": "address",
          "name": "implementation",
          "type": "address"
        }
      ],
      "name": "Upgraded",
      "type": "event"
    },
    {
      "anonymous": false,
      "inputs": [
        {
          "indexed": false,
          "internalType": "address",
          "name": "dispatcher",
          "type": "address"
        },
        {
          "indexed": false,
          "internalType": "bytes32",
          "name": "eventHash",
          "type": "bytes32"
        }
      ],
      "name": "trustEventLogged",
      "type": "event"
    },
    {
      "anonymous": false,
      "inputs": [
        {
          "indexed": false,
          "internalType": "address",
          "name": "dispatcher",
          "type": "address"
        },
        {
          "indexed": false,
          "internalType": "uint256",
          "name": "trustId",
          "type": "uint256"
        },
        {
          "indexed": false,
          "internalType": "bytes32",
          "name": "eventHash",
          "type": "bytes32"
        },
        {
          "indexed": false,
          "internalType": "bytes32",
          "name": "eventDescription",
          "type": "bytes32"
        }
      ],
      "name": "trustEventRegistered",
      "type": "event"
    },
    {
      "inputs": [
        {
          "internalType": "bytes32",
          "name": "",
          "type": "bytes32"
        }
      ],
      "name": "eventDescriptions",
      "outputs": [
        {
          "internalType": "bytes32",
          "name": "",
          "type": "bytes32"
        }
      ],
      "stateMutability": "view",
      "type": "function"
    },
    {
      "inputs": [
        {
          "internalType": "bytes32",
          "name": "",
          "type": "bytes32"
        }
      ],
      "name": "eventDispatchers",
      "outputs": [
        {
          "internalType": "address",
          "name": "",
          "type": "address"
        }
      ],
      "stateMutability": "view",
      "type": "function"
    },
    {
      "inputs": [
        {
          "internalType": "bytes32",
          "name": "",
          "type": "bytes32"
        }
      ],
      "name": "firedEvents",
      "outputs": [
        {
          "internalType": "bool",
          "name": "",
          "type": "bool"
        }
      ],
      "stateMutability": "view",
      "type": "function"
    },
    {
      "inputs": [
        {
          "internalType": "uint256",
          "name": "trustId",
          "type": "uint256"
        },
        {
          "internalType": "address",
          "name": "dispatcher",
          "type": "address"
        }
      ],
      "name": "getRegisteredTrustEvents",
      "outputs": [
        {
          "internalType": "bytes32[]",
          "name": "",
          "type": "bytes32[]"
        }
      ],
      "stateMutability": "view",
      "type": "function"
    },
    {
      "inputs": [],
      "name": "initialize",
      "outputs": [],
      "stateMutability": "nonpayable",
      "type": "function"
    },
    {
      "inputs": [
        {
          "internalType": "bytes32",
          "name": "eventHash",
          "type": "bytes32"
        }
      ],
      "name": "logTrustEvent",
      "outputs": [],
      "stateMutability": "nonpayable",
      "type": "function"
    },
    {
      "inputs": [],
      "name": "owner",
      "outputs": [
        {
          "internalType": "address",
          "name": "",
          "type": "address"
        }
      ],
      "stateMutability": "view",
      "type": "function"
    },
    {
      "inputs": [],
      "name": "proxiableUUID",
      "outputs": [
        {
          "internalType": "bytes32",
          "name": "",
          "type": "bytes32"
        }
      ],
      "stateMutability": "view",
      "type": "function"
    },
    {
      "inputs": [
        {
          "internalType": "uint256",
          "name": "trustId",
          "type": "uint256"
        },
        {
          "internalType": "bytes32",
          "name": "eventHash",
          "type": "bytes32"
        },
        {
          "internalType": "bytes32",
          "name": "description",
          "type": "bytes32"
        }
      ],
      "name": "registerTrustEvent",
      "outputs": [],
      "stateMutability": "nonpayable",
      "type": "function"
    },
    {
      "inputs": [],
      "name": "renounceOwnership",
      "outputs": [],
      "stateMutability": "nonpayable",
      "type": "function"
    },
    {
      "inputs": [
        {
          "internalType": "address",
          "name": "newOwner",
          "type": "address"
        }
      ],
      "name": "transferOwnership",
      "outputs": [],
      "stateMutability": "nonpayable",
      "type": "function"
    },
    {
      "inputs": [
        {
          "internalType": "address",
          "name": "newImplementation",
          "type": "address"
        }
      ],
      "name": "upgradeTo",
      "outputs": [],
      "stateMutability": "nonpayable",
      "type": "function"
    },
    {
      "inputs": [
        {
          "internalType": "address",
          "name": "newImplementation",
          "type": "address"
        },
        {
          "internalType": "bytes",
          "name": "data",
          "type": "bytes"
        }
      ],
      "name": "upgradeToAndCall",
      "outputs": [],
      "stateMutability": "payable",
      "type": "function"
    }
  ],
  "bytecode": "0x60a06040523060805234801561001457600080fd5b5061001d610022565b6100e2565b600054610100900460ff161561008e5760405162461bcd60e51b815260206004820152602760248201527f496e697469616c697a61626c653a20636f6e747261637420697320696e697469604482015266616c697a696e6760c81b606482015260840160405180910390fd5b60005460ff90811610156100e0576000805460ff191660ff9081179091556040519081527f7f26b83ff96e1f2b6a682f133852f6798a09c465da95921460cefb38474024989060200160405180910390a15b565b608051611433610119600039600081816102ca015281816103540152818161044a015281816104cf01526105b901526114336000f3fe6080604052600436106100d25760003560e01c80638129fc1c1161007f5780638fd8149d116100595780638fd8149d1461021d578063b5aac3641461024a578063e423f9001461026a578063f2fde38b146102a057600080fd5b80638129fc1c146101b65780638942e585146101cb5780638da5cb5b146101eb57600080fd5b80634f1ef286116100b05780634f1ef2861461017957806352d1902d1461018c578063715018a6146101a157600080fd5b80633659cfe6146100d75780634c80ebd6146100f95780634ded59111461013e575b600080fd5b3480156100e357600080fd5b506100f76100f236600461118c565b6102c0565b005b34801561010557600080fd5b506101296101143660046111a7565b60cd6020526000908152604090205460ff1681565b60405190151581526020015b60405180910390f35b34801561014a57600080fd5b5061016b6101593660046111a7565b60ca6020526000908152604090205481565b604051908152602001610135565b6100f76101873660046111d6565b610440565b34801561019857600080fd5b5061016b6105ac565b3480156101ad57600080fd5b506100f7610671565b3480156101c257600080fd5b506100f7610685565b3480156101d757600080fd5b506100f76101e6366004611298565b6107ad565b3480156101f757600080fd5b506033546001600160a01b03165b6040516001600160a01b039091168152602001610135565b34801561022957600080fd5b5061023d6102383660046112c4565b6108f7565b60405161013591906112f0565b34801561025657600080fd5b506100f76102653660046111a7565b610995565b34801561027657600080fd5b506102056102853660046111a7565b60c9602052600090815260409020546001600160a01b031681565b3480156102ac57600080fd5b506100f76102bb36600461118c565b610aaa565b6001600160a01b037f00000000000000000000000000000000000000000000000000000000000000001630036103525760405162461bcd60e51b815260206004820152602c60248201527f46756e6374696f6e206d7573742062652063616c6c6564207468726f7567682060448201526b19195b1959d85d1958d85b1b60a21b60648201526084015b60405180910390fd5b7f00000000000000000000000000000000000000000000000000000000000000006001600160a01b03166103ad7f360894a13ba1a3210667c828492db98dca3e2076cc3735a920a3ca505d382bbc546001600160a01b031690565b6001600160a01b0316146104185760405162461bcd60e51b815260206004820152602c60248201527f46756e6374696f6e206d7573742062652063616c6c6564207468726f7567682060448201526b6163746976652070726f787960a01b6064820152608401610349565b61042181610b37565b6040805160008082526020820190925261043d91839190610b3f565b50565b6001600160a01b037f00000000000000000000000000000000000000000000000000000000000000001630036104cd5760405162461bcd60e51b815260206004820152602c60248201527f46756e6374696f6e206d7573742062652063616c6c6564207468726f7567682060448201526b19195b1959d85d1958d85b1b60a21b6064820152608401610349565b7f00000000000000000000000000000000000000000000000000000000000000006001600160a01b03166105287f360894a13ba1a3210667c828492db98dca3e2076cc3735a920a3ca505d382bbc546001600160a01b031690565b6001600160a01b0316146105935760405162461bcd60e51b815260206004820152602c60248201527f46756e6374696f6e206d7573742062652063616c6c6564207468726f7567682060448201526b6163746976652070726f787960a01b6064820152608401610349565b61059c82610b37565b6105a882826001610b3f565b5050565b6000306001600160a01b037f0000000000000000000000000000000000000000000000000000000000000000161461064c5760405162461bcd60e51b815260206004820152603860248201527f555550535570677261646561626c653a206d757374206e6f742062652063616c60448201527f6c6564207468726f7567682064656c656761746563616c6c00000000000000006064820152608401610349565b507f360894a13ba1a3210667c828492db98dca3e2076cc3735a920a3ca505d382bbc90565b610679610ce4565b6106836000610d3e565b565b600054610100900460ff16158080156106a55750600054600160ff909116105b806106bf5750303b1580156106bf575060005460ff166001145b6107315760405162461bcd60e51b815260206004820152602e60248201527f496e697469616c697a61626c653a20636f6e747261637420697320616c72656160448201527f647920696e697469616c697a65640000000000000000000000000000000000006064820152608401610349565b6000805460ff191660011790558015610754576000805461ff0019166101001790555b61075c610d9d565b610764610e10565b801561043d576000805461ff0019169055604051600181527f7f26b83ff96e1f2b6a682f133852f6798a09c465da95921460cefb3847402498906020015b60405180910390a150565b600082815260c960205260409020546001600160a01b0316156108125760405162461bcd60e51b815260206004820152601660248201527f4455504c49434154455f524547495354524154494f4e000000000000000000006044820152606401610349565b600082815260cd602052604090205460ff161561083157610831611334565b600082815260c960209081526040808320805473ffffffffffffffffffffffffffffffffffffffff19163390811790915560ca835281842085905586845260cb83528184208054600181810183559186528486200187905587855260cc845282852082865284528285208054918201815585529383902090930185905580519283529082018590528101839052606081018290527fbaff4b344f8408743d4705172cdbc7bd34bd12c0129d979468688500e40040ba9060800160405180910390a1505050565b60606001600160a01b0382161561092f57600083815260cc602090815260408083206001600160a01b0386168452909152902061093e565b600083815260cb602052604090205b80548060200260200160405190810160405280929190818152602001828054801561098857602002820191906000526020600020905b815481526020019060010190808311610974575b5050505050905092915050565b600081815260c960205260409020546001600160a01b031633146109fb5760405162461bcd60e51b815260206004820152601060248201527f494e56414c49445f4449535041544348000000000000000000000000000000006044820152606401610349565b600081815260cd602052604090205460ff1615610a5a5760405162461bcd60e51b815260206004820152600f60248201527f4455504c49434154455f4556454e5400000000000000000000000000000000006044820152606401610349565b600081815260cd6020908152604091829020805460ff1916600117905581513381529081018390527ff4ae467b442ee74c8b8a48afbab450ed55d390df103f9bf7632dd32c25c09f6191016107a2565b610ab2610ce4565b6001600160a01b038116610b2e5760405162461bcd60e51b815260206004820152602660248201527f4f776e61626c653a206e6577206f776e657220697320746865207a65726f206160448201527f64647265737300000000000000000000000000000000000000000000000000006064820152608401610349565b61043d81610d3e565b61043d610ce4565b7f4910fdfa16fed3260ed0e7147f7cc6da11a60208b5b9406d12a635614ffd91435460ff1615610b7757610b7283610e7b565b505050565b826001600160a01b03166352d1902d6040518163ffffffff1660e01b8152600401602060405180830381865afa925050508015610bd1575060408051601f3d908101601f19168201909252610bce9181019061134a565b60015b610c435760405162461bcd60e51b815260206004820152602e60248201527f45524331393637557067726164653a206e657720696d706c656d656e7461746960448201527f6f6e206973206e6f7420555550530000000000000000000000000000000000006064820152608401610349565b7f360894a13ba1a3210667c828492db98dca3e2076cc3735a920a3ca505d382bbc8114610cd85760405162461bcd60e51b815260206004820152602960248201527f45524331393637557067726164653a20756e737570706f727465642070726f7860448201527f6961626c655555494400000000000000000000000000000000000000000000006064820152608401610349565b50610b72838383610f46565b6033546001600160a01b031633146106835760405162461bcd60e51b815260206004820181905260248201527f4f776e61626c653a2063616c6c6572206973206e6f7420746865206f776e65726044820152606401610349565b603380546001600160a01b0383811673ffffffffffffffffffffffffffffffffffffffff19831681179093556040519116919082907f8be0079c531659141344cd1fd0a4f28419497f9722a3daafe3b4186f6b6457e090600090a35050565b600054610100900460ff16610e085760405162461bcd60e51b815260206004820152602b60248201527f496e697469616c697a61626c653a20636f6e7472616374206973206e6f74206960448201526a6e697469616c697a696e6760a81b6064820152608401610349565b610683610f71565b600054610100900460ff166106835760405162461bcd60e51b815260206004820152602b60248201527f496e697469616c697a61626c653a20636f6e7472616374206973206e6f74206960448201526a6e697469616c697a696e6760a81b6064820152608401610349565b6001600160a01b0381163b610ef85760405162461bcd60e51b815260206004820152602d60248201527f455243313936373a206e657720696d706c656d656e746174696f6e206973206e60448201527f6f74206120636f6e7472616374000000000000000000000000000000000000006064820152608401610349565b7f360894a13ba1a3210667c828492db98dca3e2076cc3735a920a3ca505d382bbc805473ffffffffffffffffffffffffffffffffffffffff19166001600160a01b0392909216919091179055565b610f4f83610fe5565b600082511180610f5c5750805b15610b7257610f6b8383611025565b50505050565b600054610100900460ff16610fdc5760405162461bcd60e51b815260206004820152602b60248201527f496e697469616c697a61626c653a20636f6e7472616374206973206e6f74206960448201526a6e697469616c697a696e6760a81b6064820152608401610349565b61068333610d3e565b610fee81610e7b565b6040516001600160a01b038216907fbc7cd75a20ee27fd9adebab32041f755214dbc6bffa90cc0225b39da2e5c2d3b90600090a250565b60606001600160a01b0383163b6110a45760405162461bcd60e51b815260206004820152602660248201527f416464726573733a2064656c65676174652063616c6c20746f206e6f6e2d636f60448201527f6e747261637400000000000000000000000000000000000000000000000000006064820152608401610349565b600080846001600160a01b0316846040516110bf9190611387565b600060405180830381855af49150503d80600081146110fa576040519150601f19603f3d011682016040523d82523d6000602084013e6110ff565b606091505b509150915061112782826040518060600160405280602781526020016113d760279139611130565b95945050505050565b6060831561113f575081611169565b82511561114f5782518084602001fd5b8160405162461bcd60e51b815260040161034991906113a3565b9392505050565b80356001600160a01b038116811461118757600080fd5b919050565b60006020828403121561119e57600080fd5b61116982611170565b6000602082840312156111b957600080fd5b5035919050565b634e487b7160e01b600052604160045260246000fd5b600080604083850312156111e957600080fd5b6111f283611170565b9150602083013567ffffffffffffffff8082111561120f57600080fd5b818501915085601f83011261122357600080fd5b813581811115611235576112356111c0565b604051601f8201601f19908116603f0116810190838211818310171561125d5761125d6111c0565b8160405282815288602084870101111561127657600080fd5b8260208601602083013760006020848301015280955050505050509250929050565b6000806000606084860312156112ad57600080fd5b505081359360208301359350604090920135919050565b600080604083850312156112d757600080fd5b823591506112e760208401611170565b90509250929050565b6020808252825182820181905260009190848201906040850190845b818110156113285783518352928401929184019160010161130c565b50909695505050505050565b634e487b7160e01b600052600160045260246000fd5b60006020828403121561135c57600080fd5b5051919050565b60005b8381101561137e578181015183820152602001611366565b50506000910152565b60008251611399818460208701611363565b9190910192915050565b60208152600082518060208401526113c2816040850160208701611363565b601f01601f1916919091016040019291505056fe416464726573733a206c6f772d6c6576656c2064656c65676174652063616c6c206661696c6564a26469706673582212209872c2574a14503dd69bd6596f0d2a7d811a3c828fec488b91e04103775dfb1864736f6c63430008100033",
  "linkReferences": {},
  "deployedLinkReferences": {}
}