{
  "_format": "hh-sol-artifact-1",
  "contractName": "TrustEventLog",
  "sourceName": "contracts/TrustEventLog.sol",
  "abi": [
    {
      "inputs": [],
      "stateMutability": "nonpayable",
      "type": "constructor"
    },
    {
      "anonymous": false,
      "inputs": [
        {
          "indexed": false,
          "internalType": "address",
          "name": "previousAdmin",
          "type": "address"
        },
        {
          "indexed": false,
          "internalType": "address",
          "name": "newAdmin",
          "type": "address"
        }
      ],
      "name": "AdminChanged",
      "type": "event"
    },
    {
      "anonymous": false,
      "inputs": [
        {
          "indexed": true,
          "internalType": "address",
          "name": "beacon",
          "type": "address"
        }
      ],
      "name": "BeaconUpgraded",
      "type": "event"
    },
    {
      "anonymous": false,
      "inputs": [
        {
          "indexed": false,
          "internalType": "uint8",
          "name": "version",
          "type": "uint8"
        }
      ],
      "name": "Initialized",
      "type": "event"
    },
    {
      "anonymous": false,
      "inputs": [
        {
          "indexed": true,
          "internalType": "address",
          "name": "previousOwner",
          "type": "address"
        },
        {
          "indexed": true,
          "internalType": "address",
          "name": "newOwner",
          "type": "address"
        }
      ],
      "name": "OwnershipTransferred",
      "type": "event"
    },
    {
      "anonymous": false,
      "inputs": [
        {
          "indexed": true,
          "internalType": "address",
          "name": "implementation",
          "type": "address"
        }
      ],
      "name": "Upgraded",
      "type": "event"
    },
    {
      "anonymous": false,
      "inputs": [
        {
          "indexed": false,
          "internalType": "address",
          "name": "dispatcher",
          "type": "address"
        },
        {
          "indexed": false,
          "internalType": "bytes32",
          "name": "eventHash",
          "type": "bytes32"
        }
      ],
      "name": "trustEventLogged",
      "type": "event"
    },
    {
      "anonymous": false,
      "inputs": [
        {
          "indexed": false,
          "internalType": "address",
          "name": "dispatcher",
          "type": "address"
        },
        {
          "indexed": false,
          "internalType": "uint256",
          "name": "trustId",
          "type": "uint256"
        },
        {
          "indexed": false,
          "internalType": "bytes32",
          "name": "eventHash",
          "type": "bytes32"
        },
        {
          "indexed": false,
          "internalType": "bytes32",
          "name": "eventDescription",
          "type": "bytes32"
        }
      ],
      "name": "trustEventRegistered",
      "type": "event"
    },
    {
      "inputs": [
        {
          "internalType": "bytes32",
          "name": "",
          "type": "bytes32"
        }
      ],
      "name": "eventDescriptions",
      "outputs": [
        {
          "internalType": "bytes32",
          "name": "",
          "type": "bytes32"
        }
      ],
      "stateMutability": "view",
      "type": "function"
    },
    {
      "inputs": [
        {
          "internalType": "bytes32",
          "name": "",
          "type": "bytes32"
        }
      ],
      "name": "eventDispatchers",
      "outputs": [
        {
          "internalType": "address",
          "name": "",
          "type": "address"
        }
      ],
      "stateMutability": "view",
      "type": "function"
    },
    {
      "inputs": [
        {
          "internalType": "bytes32",
          "name": "",
          "type": "bytes32"
        }
      ],
      "name": "firedEvents",
      "outputs": [
        {
          "internalType": "bool",
          "name": "",
          "type": "bool"
        }
      ],
      "stateMutability": "view",
      "type": "function"
    },
    {
      "inputs": [
        {
          "internalType": "uint256",
          "name": "trustId",
          "type": "uint256"
        },
        {
          "internalType": "address",
          "name": "dispatcher",
          "type": "address"
        }
      ],
      "name": "getRegisteredTrustEvents",
      "outputs": [
        {
          "internalType": "bytes32[]",
          "name": "",
          "type": "bytes32[]"
        }
      ],
      "stateMutability": "view",
      "type": "function"
    },
    {
      "inputs": [],
      "name": "initialize",
      "outputs": [],
      "stateMutability": "nonpayable",
      "type": "function"
    },
    {
      "inputs": [
        {
          "internalType": "bytes32",
          "name": "eventHash",
          "type": "bytes32"
        }
      ],
      "name": "logTrustEvent",
      "outputs": [],
      "stateMutability": "nonpayable",
      "type": "function"
    },
    {
      "inputs": [],
      "name": "owner",
      "outputs": [
        {
          "internalType": "address",
          "name": "",
          "type": "address"
        }
      ],
      "stateMutability": "view",
      "type": "function"
    },
    {
      "inputs": [],
      "name": "proxiableUUID",
      "outputs": [
        {
          "internalType": "bytes32",
          "name": "",
          "type": "bytes32"
        }
      ],
      "stateMutability": "view",
      "type": "function"
    },
    {
      "inputs": [
        {
          "internalType": "uint256",
          "name": "trustId",
          "type": "uint256"
        },
        {
          "internalType": "bytes32",
          "name": "eventHash",
          "type": "bytes32"
        },
        {
          "internalType": "bytes32",
          "name": "description",
          "type": "bytes32"
        }
      ],
      "name": "registerTrustEvent",
      "outputs": [],
      "stateMutability": "nonpayable",
      "type": "function"
    },
    {
      "inputs": [],
      "name": "renounceOwnership",
      "outputs": [],
      "stateMutability": "nonpayable",
      "type": "function"
    },
    {
      "inputs": [
        {
          "internalType": "address",
          "name": "newOwner",
          "type": "address"
        }
      ],
      "name": "transferOwnership",
      "outputs": [],
      "stateMutability": "nonpayable",
      "type": "function"
    },
    {
      "inputs": [
        {
          "internalType": "address",
          "name": "newImplementation",
          "type": "address"
        }
      ],
      "name": "upgradeTo",
      "outputs": [],
      "stateMutability": "nonpayable",
      "type": "function"
    },
    {
      "inputs": [
        {
          "internalType": "address",
          "name": "newImplementation",
          "type": "address"
        },
        {
          "internalType": "bytes",
          "name": "data",
          "type": "bytes"
        }
      ],
      "name": "upgradeToAndCall",
      "outputs": [],
      "stateMutability": "payable",
      "type": "function"
    }
  ],
  "bytecode": "0x60a06040523073ffffffffffffffffffffffffffffffffffffffff1660809073ffffffffffffffffffffffffffffffffffffffff168152503480156200004457600080fd5b50620000797f54d75ea83f5ad2b6acf9e1a28f8219bd6972951cbb8f215fc6537b0ba968c2a460001b620000f760201b60201c565b620000ad7f01e308264890a08d54874670a889438e34bd310999ceb1df25ea1de371e746a660001b620000f760201b60201c565b620000e17fa4c55e01e28476d4a922e7d91c0d1584178194edf0730cd375de55edc221e8d860001b620000f760201b60201c565b620000f1620000fa60201b60201c565b620002a5565b50565b600060019054906101000a900460ff16156200014d576040517f08c379a0000000000000000000000000000000000000000000000000000000008152600401620001449062000248565b60405180910390fd5b60ff801660008054906101000a900460ff1660ff161015620001bf5760ff6000806101000a81548160ff021916908360ff1602179055507f7f26b83ff96e1f2b6a682f133852f6798a09c465da95921460cefb384740249860ff604051620001b6919062000288565b60405180910390a15b565b600082825260208201905092915050565b7f496e697469616c697a61626c653a20636f6e747261637420697320696e69746960008201527f616c697a696e6700000000000000000000000000000000000000000000000000602082015250565b600062000230602783620001c1565b91506200023d82620001d2565b604082019050919050565b60006020820190508181036000830152620002638162000221565b9050919050565b600060ff82169050919050565b62000282816200026a565b82525050565b60006020820190506200029f600083018462000277565b92915050565b608051612a02620002dd600039600081816103010152818161038f015281816104c10152818161054f01526105ff0152612a026000f3fe6080604052600436106100c25760003560e01c80638129fc1c1161007f5780638fd8149d116100595780638fd8149d14610233578063b5aac36414610270578063e423f90014610299578063f2fde38b146102d6576100c2565b80638129fc1c146101c85780638942e585146101df5780638da5cb5b14610208576100c2565b80633659cfe6146100c75780634c80ebd6146100f05780634ded59111461012d5780634f1ef2861461016a57806352d1902d14610186578063715018a6146101b1575b600080fd5b3480156100d357600080fd5b506100ee60048036038101906100e99190611b82565b6102ff565b005b3480156100fc57600080fd5b5061011760048036038101906101129190611be5565b610487565b6040516101249190611c2d565b60405180910390f35b34801561013957600080fd5b50610154600480360381019061014f9190611be5565b6104a7565b6040516101619190611c57565b60405180910390f35b610184600480360381019061017f9190611db8565b6104bf565b005b34801561019257600080fd5b5061019b6105fb565b6040516101a89190611c57565b60405180910390f35b3480156101bd57600080fd5b506101c66106b4565b005b3480156101d457600080fd5b506101dd6106c8565b005b3480156101eb57600080fd5b5061020660048036038101906102019190611e4a565b6108ea565b005b34801561021457600080fd5b5061021d610e04565b60405161022a9190611eac565b60405180910390f35b34801561023f57600080fd5b5061025a60048036038101906102559190611ec7565b610e2e565b6040516102679190611fc5565b60405180910390f35b34801561027c57600080fd5b5061029760048036038101906102929190611be5565b610fa8565b005b3480156102a557600080fd5b506102c060048036038101906102bb9190611be5565b61134e565b6040516102cd9190611eac565b60405180910390f35b3480156102e257600080fd5b506102fd60048036038101906102f89190611b82565b611381565b005b7f000000000000000000000000000000000000000000000000000000000000000073ffffffffffffffffffffffffffffffffffffffff163073ffffffffffffffffffffffffffffffffffffffff160361038d576040517f08c379a00000000000000000000000000000000000000000000000000000000081526004016103849061206a565b60405180910390fd5b7f000000000000000000000000000000000000000000000000000000000000000073ffffffffffffffffffffffffffffffffffffffff166103cc611404565b73ffffffffffffffffffffffffffffffffffffffff1614610422576040517f08c379a0000000000000000000000000000000000000000000000000000000008152600401610419906120fc565b60405180910390fd5b61042b8161145b565b61048481600067ffffffffffffffff81111561044a57610449611c8d565b5b6040519080825280601f01601f19166020018201604052801561047c5781602001600182028036833780820191505090505b506000611492565b50565b60cd6020528060005260406000206000915054906101000a900460ff1681565b60ca6020528060005260406000206000915090505481565b7f000000000000000000000000000000000000000000000000000000000000000073ffffffffffffffffffffffffffffffffffffffff163073ffffffffffffffffffffffffffffffffffffffff160361054d576040517f08c379a00000000000000000000000000000000000000000000000000000000081526004016105449061206a565b60405180910390fd5b7f000000000000000000000000000000000000000000000000000000000000000073ffffffffffffffffffffffffffffffffffffffff1661058c611404565b73ffffffffffffffffffffffffffffffffffffffff16146105e2576040517f08c379a00000000000000000000000000000000000000000000000000000000081526004016105d9906120fc565b60405180910390fd5b6105eb8261145b565b6105f782826001611492565b5050565b60007f000000000000000000000000000000000000000000000000000000000000000073ffffffffffffffffffffffffffffffffffffffff163073ffffffffffffffffffffffffffffffffffffffff161461068b576040517f08c379a00000000000000000000000000000000000000000000000000000000081526004016106829061218e565b60405180910390fd5b7f360894a13ba1a3210667c828492db98dca3e2076cc3735a920a3ca505d382bbc60001b905090565b6106bc611600565b6106c6600061167e565b565b60008060019054906101000a900460ff161590508080156106f95750600160008054906101000a900460ff1660ff16105b80610726575061070830611744565b1580156107255750600160008054906101000a900460ff1660ff16145b5b610765576040517f08c379a000000000000000000000000000000000000000000000000000000000815260040161075c90612220565b60405180910390fd5b60016000806101000a81548160ff021916908360ff16021790555080156107a2576001600060016101000a81548160ff0219169083151502179055505b6107ce7fd7e033ba7992138d2ae21d42a303fe81e3346a464777b080fcf23950dc83e10260001b611767565b6107fa7fad779c1b52327c242022e93ee28a0a65dfd92968239e0e9b3334fe67e007bfc960001b611767565b6108267fc005886594dee6ca7d1046ef45e631152c58c4a81b0491a7a9528edc9082fd6060001b611767565b61082e61176a565b61085a7fdef93be039d4b194e94eba30f21c65939f257eb535ade3b2687aa9e318eb257260001b611767565b6108867f91931f07fc3105ffe1a4a6bab050bf4a8bf00fb98221747e5d9476058499054260001b611767565b61088e6117c3565b80156108e75760008060016101000a81548160ff0219169083151502179055507f7f26b83ff96e1f2b6a682f133852f6798a09c465da95921460cefb384740249860016040516108de9190612292565b60405180910390a15b50565b6109167f07309a603b116d6fb48c08c7b218b86bace69dd33f4ba039bd3536b9f04d266960001b611767565b6109427f84de7e2be6e449a87e0bb774e369a726d23db583aeb8a6321d3eeea721a596d860001b611767565b61096e7f0947b5f58c0b3398566858589be78265c2127001ed9c4e68db3a2b29beb4d89260001b611767565b61099a7f8769bb9bf4da98e333cf9ebd07e22803eff4d4bdf015a7a683c88a2d242fcfcc60001b611767565b60c9600083815260200190815260200160002060009054906101000a900473ffffffffffffffffffffffffffffffffffffffff1673ffffffffffffffffffffffffffffffffffffffff16600073ffffffffffffffffffffffffffffffffffffffff1614610a3c576040517f08c379a0000000000000000000000000000000000000000000000000000000008152600401610a33906122f9565b60405180910390fd5b610a687f7b4933b0155962cba04627390f7836244de7d3123e4f8a704d47927793c23dca60001b611767565b610a947f6a677e50823bf85e522ee78f3aa02764e905cab12a5dfb6475dd39c2535a427e60001b611767565b610ac07fdc12e2cf9606e000641eaa9711f7864e2a1ab73149dec476de4fe19e9c21927260001b611767565b60cd600083815260200190815260200160002060009054906101000a900460ff1615610aef57610aee612319565b5b610b1b7f8c2332ec1cacd161ed389df1804e22244f15264fbcffb440e1cec2e68b73b0a160001b611767565b610b477f2e53ac996114532fc775ef14b707d8adf27b24f3c8868e2a890f281933404b2f60001b611767565b3360c9600084815260200190815260200160002060006101000a81548173ffffffffffffffffffffffffffffffffffffffff021916908373ffffffffffffffffffffffffffffffffffffffff160217905550610bc57f43e7cb0ec56a652d998deca4c7dcc0e8fa23f50c089be8498b2e14d3ffefb73560001b611767565b610bf17f661d5a317d27c886c74894da60a3c2f8a7b381739e2685ad3f07a333ab99ff4e60001b611767565b8060ca600084815260200190815260200160002081905550610c357f1881a79af191125361d5f58dde508688a3a2a7340fca7faef3bdc00b170cc76060001b611767565b610c617ff0aed22216c6c48b1fa8ff3448b7b92f22791951e4d7b61a260f3afa472cf33460001b611767565b60cb6000848152602001908152602001600020829080600181540180825580915050600190039060005260206000200160009091909190915055610cc77fd47cd4726b0b902d65acc043dc70c897c223f4ba120b96c91800328898dbcf4160001b611767565b610cf37f3e3cd1f159c80088c13eb73409a895489d0b71603fd742e7c7d4ccd7b314cd3a60001b611767565b60cc600084815260200190815260200160002060003373ffffffffffffffffffffffffffffffffffffffff1673ffffffffffffffffffffffffffffffffffffffff168152602001908152602001600020829080600181540180825580915050600190039060005260206000200160009091909190915055610d967f80df4dc49d391c8b26d5124ae7f07e5e11fcfbce815e6fddaf368f6d8a84a9fc60001b611767565b610dc27f6c4897ce91dc75129285a261ac8230bafc1913d1caddb8487a435650c74fad6760001b611767565b7fbaff4b344f8408743d4705172cdbc7bd34bd12c0129d979468688500e40040ba33848484604051610df79493929190612357565b60405180910390a1505050565b6000603360009054906101000a900473ffffffffffffffffffffffffffffffffffffffff16905090565b6060610e5c7f4257a97c25174ce2c90fe7f5195d2f930bdd02e482d6a394266010542178831d60001b611767565b610e887fcadfac2d82bbd2073f89919a493893355c5cf4ffea343b2b39bef8a3e6d0220560001b611767565b610eb47f2a03166c3797366513198465fbe604cf09b541860a67958f1d4db765fec2bd8e60001b611767565b600073ffffffffffffffffffffffffffffffffffffffff168273ffffffffffffffffffffffffffffffffffffffff1614610f3d5760cc600084815260200190815260200160002060008373ffffffffffffffffffffffffffffffffffffffff1673ffffffffffffffffffffffffffffffffffffffff168152602001908152602001600020610f51565b60cb60008481526020019081526020016000205b805480602002602001604051908101604052809291908181526020018280548015610f9b57602002820191906000526020600020905b815481526020019060010190808311610f87575b5050505050905092915050565b610fd47f9d47fdf3b0089e854cee3d03e6934b5acbb3daed72b46b687212e616d2bfe5d760001b611767565b6110007fc17fe6147430c7dcaf4d94de3aedef03a0317e8b35789d19545edb55bf97b6d360001b611767565b61102c7fdbfa8dbe225ce7ae6a76678551660d98cbbc8cf6596462fb833c4ad5fa05686860001b611767565b6110587f6b65c071045843e0cc68590ee6f2cb0c1db77b0f6b9e06c92c5da88e066355bd60001b611767565b60c9600082815260200190815260200160002060009054906101000a900473ffffffffffffffffffffffffffffffffffffffff1673ffffffffffffffffffffffffffffffffffffffff163373ffffffffffffffffffffffffffffffffffffffff16146110f9576040517f08c379a00000000000000000000000000000000000000000000000000000000081526004016110f0906123e8565b60405180910390fd5b6111257f4ab295232e0199a4924e62933d0558b0613f6fa0c765435ad67c44547457053f60001b611767565b6111517f5886b3a57e6eeab51e52adc137f56bd9773e949439f770d8c4987bdfd0eff93560001b611767565b61117d7ff47276964349a82a23906432b6250d9baa483ebe45cfcacf4e204cd0804f236760001b611767565b6111a97f6a460c7c256c1d813129d85125e599b77e25d4238c1450a8c1ee7736d7b7338860001b611767565b60cd600082815260200190815260200160002060009054906101000a900460ff161561120a576040517f08c379a000000000000000000000000000000000000000000000000000000000815260040161120190612454565b60405180910390fd5b6112367f33a10fc70a95a541f430f8d9f2296029974ed8d55b65935e81116e37f0623af060001b611767565b6112627fa3aaed05381a225116e1a870bf150d15d6e79c2c66ee83c1d9a08ecc2bb9214d60001b611767565b61128e7fff7e3f9d5cd55e4e192e4f750ac185308edb18723d99436e993eccd59e0c0c0360001b611767565b600160cd600083815260200190815260200160002060006101000a81548160ff0219169083151502179055506112e67f801a32389f38e5cafe88d3a7d97a0d4adb799bbc8d1566798aad6a6e46e2f94d60001b611767565b6113127f59352a803adf543136adbaad36683c20c8df451a60efb98580e4e709cc668b8060001b611767565b7ff4ae467b442ee74c8b8a48afbab450ed55d390df103f9bf7632dd32c25c09f613382604051611343929190612474565b60405180910390a150565b60c96020528060005260406000206000915054906101000a900473ffffffffffffffffffffffffffffffffffffffff1681565b611389611600565b600073ffffffffffffffffffffffffffffffffffffffff168173ffffffffffffffffffffffffffffffffffffffff16036113f8576040517f08c379a00000000000000000000000000000000000000000000000000000000081526004016113ef9061250f565b60405180910390fd5b6114018161167e565b50565b60006114327f360894a13ba1a3210667c828492db98dca3e2076cc3735a920a3ca505d382bbc60001b611814565b60000160009054906101000a900473ffffffffffffffffffffffffffffffffffffffff16905090565b611463611600565b61148f7fac30876cfc3ec9106cf2c3f16d0a623a21a29f589f665207761be607b882a10b60001b611767565b50565b6114be7f4910fdfa16fed3260ed0e7147f7cc6da11a60208b5b9406d12a635614ffd914360001b61181e565b60000160009054906101000a900460ff16156114e2576114dd83611828565b6115fb565b8273ffffffffffffffffffffffffffffffffffffffff166352d1902d6040518163ffffffff1660e01b8152600401602060405180830381865afa92505050801561154a57506040513d601f19601f820116820180604052508101906115479190612544565b60015b611589576040517f08c379a0000000000000000000000000000000000000000000000000000000008152600401611580906125e3565b60405180910390fd5b7f360894a13ba1a3210667c828492db98dca3e2076cc3735a920a3ca505d382bbc60001b81146115ee576040517f08c379a00000000000000000000000000000000000000000000000000000000081526004016115e590612675565b60405180910390fd5b506115fa8383836118e1565b5b505050565b61160861190d565b73ffffffffffffffffffffffffffffffffffffffff16611626610e04565b73ffffffffffffffffffffffffffffffffffffffff161461167c576040517f08c379a0000000000000000000000000000000000000000000000000000000008152600401611673906126e1565b60405180910390fd5b565b6000603360009054906101000a900473ffffffffffffffffffffffffffffffffffffffff16905081603360006101000a81548173ffffffffffffffffffffffffffffffffffffffff021916908373ffffffffffffffffffffffffffffffffffffffff1602179055508173ffffffffffffffffffffffffffffffffffffffff168173ffffffffffffffffffffffffffffffffffffffff167f8be0079c531659141344cd1fd0a4f28419497f9722a3daafe3b4186f6b6457e060405160405180910390a35050565b6000808273ffffffffffffffffffffffffffffffffffffffff163b119050919050565b50565b600060019054906101000a900460ff166117b9576040517f08c379a00000000000000000000000000000000000000000000000000000000081526004016117b090612773565b60405180910390fd5b6117c1611915565b565b600060019054906101000a900460ff16611812576040517f08c379a000000000000000000000000000000000000000000000000000000000815260040161180990612773565b60405180910390fd5b565b6000819050919050565b6000819050919050565b61183181611744565b611870576040517f08c379a000000000000000000000000000000000000000000000000000000000815260040161186790612805565b60405180910390fd5b8061189d7f360894a13ba1a3210667c828492db98dca3e2076cc3735a920a3ca505d382bbc60001b611814565b60000160006101000a81548173ffffffffffffffffffffffffffffffffffffffff021916908373ffffffffffffffffffffffffffffffffffffffff16021790555050565b6118ea83611976565b6000825111806118f75750805b156119085761190683836119c5565b505b505050565b600033905090565b600060019054906101000a900460ff16611964576040517f08c379a000000000000000000000000000000000000000000000000000000000815260040161195b90612773565b60405180910390fd5b61197461196f61190d565b61167e565b565b61197f81611828565b8073ffffffffffffffffffffffffffffffffffffffff167fbc7cd75a20ee27fd9adebab32041f755214dbc6bffa90cc0225b39da2e5c2d3b60405160405180910390a250565b60606119d083611744565b611a0f576040517f08c379a0000000000000000000000000000000000000000000000000000000008152600401611a0690612897565b60405180910390fd5b6000808473ffffffffffffffffffffffffffffffffffffffff1684604051611a379190612928565b600060405180830381855af49150503d8060008114611a72576040519150601f19603f3d011682016040523d82523d6000602084013e611a77565b606091505b5091509150611a9f82826040518060600160405280602781526020016129a660279139611aa9565b9250505092915050565b60608315611ab957829050611b09565b600083511115611acc5782518084602001fd5b816040517f08c379a0000000000000000000000000000000000000000000000000000000008152600401611b009190612983565b60405180910390fd5b9392505050565b6000604051905090565b600080fd5b600080fd5b600073ffffffffffffffffffffffffffffffffffffffff82169050919050565b6000611b4f82611b24565b9050919050565b611b5f81611b44565b8114611b6a57600080fd5b50565b600081359050611b7c81611b56565b92915050565b600060208284031215611b9857611b97611b1a565b5b6000611ba684828501611b6d565b91505092915050565b6000819050919050565b611bc281611baf565b8114611bcd57600080fd5b50565b600081359050611bdf81611bb9565b92915050565b600060208284031215611bfb57611bfa611b1a565b5b6000611c0984828501611bd0565b91505092915050565b60008115159050919050565b611c2781611c12565b82525050565b6000602082019050611c426000830184611c1e565b92915050565b611c5181611baf565b82525050565b6000602082019050611c6c6000830184611c48565b92915050565b600080fd5b600080fd5b6000601f19601f8301169050919050565b7f4e487b7100000000000000000000000000000000000000000000000000000000600052604160045260246000fd5b611cc582611c7c565b810181811067ffffffffffffffff82111715611ce457611ce3611c8d565b5b80604052505050565b6000611cf7611b10565b9050611d038282611cbc565b919050565b600067ffffffffffffffff821115611d2357611d22611c8d565b5b611d2c82611c7c565b9050602081019050919050565b82818337600083830152505050565b6000611d5b611d5684611d08565b611ced565b905082815260208101848484011115611d7757611d76611c77565b5b611d82848285611d39565b509392505050565b600082601f830112611d9f57611d9e611c72565b5b8135611daf848260208601611d48565b91505092915050565b60008060408385031215611dcf57611dce611b1a565b5b6000611ddd85828601611b6d565b925050602083013567ffffffffffffffff811115611dfe57611dfd611b1f565b5b611e0a85828601611d8a565b9150509250929050565b6000819050919050565b611e2781611e14565b8114611e3257600080fd5b50565b600081359050611e4481611e1e565b92915050565b600080600060608486031215611e6357611e62611b1a565b5b6000611e7186828701611e35565b9350506020611e8286828701611bd0565b9250506040611e9386828701611bd0565b9150509250925092565b611ea681611b44565b82525050565b6000602082019050611ec16000830184611e9d565b92915050565b60008060408385031215611ede57611edd611b1a565b5b6000611eec85828601611e35565b9250506020611efd85828601611b6d565b9150509250929050565b600081519050919050565b600082825260208201905092915050565b6000819050602082019050919050565b611f3c81611baf565b82525050565b6000611f4e8383611f33565b60208301905092915050565b6000602082019050919050565b6000611f7282611f07565b611f7c8185611f12565b9350611f8783611f23565b8060005b83811015611fb8578151611f9f8882611f42565b9750611faa83611f5a565b925050600181019050611f8b565b5085935050505092915050565b60006020820190508181036000830152611fdf8184611f67565b905092915050565b600082825260208201905092915050565b7f46756e6374696f6e206d7573742062652063616c6c6564207468726f7567682060008201527f64656c656761746563616c6c0000000000000000000000000000000000000000602082015250565b6000612054602c83611fe7565b915061205f82611ff8565b604082019050919050565b6000602082019050818103600083015261208381612047565b9050919050565b7f46756e6374696f6e206d7573742062652063616c6c6564207468726f7567682060008201527f6163746976652070726f78790000000000000000000000000000000000000000602082015250565b60006120e6602c83611fe7565b91506120f18261208a565b604082019050919050565b60006020820190508181036000830152612115816120d9565b9050919050565b7f555550535570677261646561626c653a206d757374206e6f742062652063616c60008201527f6c6564207468726f7567682064656c656761746563616c6c0000000000000000602082015250565b6000612178603883611fe7565b91506121838261211c565b604082019050919050565b600060208201905081810360008301526121a78161216b565b9050919050565b7f496e697469616c697a61626c653a20636f6e747261637420697320616c72656160008201527f647920696e697469616c697a6564000000000000000000000000000000000000602082015250565b600061220a602e83611fe7565b9150612215826121ae565b604082019050919050565b60006020820190508181036000830152612239816121fd565b9050919050565b6000819050919050565b600060ff82169050919050565b6000819050919050565b600061227c61227761227284612240565b612257565b61224a565b9050919050565b61228c81612261565b82525050565b60006020820190506122a76000830184612283565b92915050565b7f4455504c49434154455f524547495354524154494f4e00000000000000000000600082015250565b60006122e3601683611fe7565b91506122ee826122ad565b602082019050919050565b60006020820190508181036000830152612312816122d6565b9050919050565b7f4e487b7100000000000000000000000000000000000000000000000000000000600052600160045260246000fd5b61235181611e14565b82525050565b600060808201905061236c6000830187611e9d565b6123796020830186612348565b6123866040830185611c48565b6123936060830184611c48565b95945050505050565b7f494e56414c49445f444953504154434800000000000000000000000000000000600082015250565b60006123d2601083611fe7565b91506123dd8261239c565b602082019050919050565b60006020820190508181036000830152612401816123c5565b9050919050565b7f4455504c49434154455f4556454e540000000000000000000000000000000000600082015250565b600061243e600f83611fe7565b915061244982612408565b602082019050919050565b6000602082019050818103600083015261246d81612431565b9050919050565b60006040820190506124896000830185611e9d565b6124966020830184611c48565b9392505050565b7f4f776e61626c653a206e6577206f776e657220697320746865207a65726f206160008201527f6464726573730000000000000000000000000000000000000000000000000000602082015250565b60006124f9602683611fe7565b91506125048261249d565b604082019050919050565b60006020820190508181036000830152612528816124ec565b9050919050565b60008151905061253e81611bb9565b92915050565b60006020828403121561255a57612559611b1a565b5b60006125688482850161252f565b91505092915050565b7f45524331393637557067726164653a206e657720696d706c656d656e7461746960008201527f6f6e206973206e6f742055555053000000000000000000000000000000000000602082015250565b60006125cd602e83611fe7565b91506125d882612571565b604082019050919050565b600060208201905081810360008301526125fc816125c0565b9050919050565b7f45524331393637557067726164653a20756e737570706f727465642070726f7860008201527f6961626c65555549440000000000000000000000000000000000000000000000602082015250565b600061265f602983611fe7565b915061266a82612603565b604082019050919050565b6000602082019050818103600083015261268e81612652565b9050919050565b7f4f776e61626c653a2063616c6c6572206973206e6f7420746865206f776e6572600082015250565b60006126cb602083611fe7565b91506126d682612695565b602082019050919050565b600060208201905081810360008301526126fa816126be565b9050919050565b7f496e697469616c697a61626c653a20636f6e7472616374206973206e6f74206960008201527f6e697469616c697a696e67000000000000000000000000000000000000000000602082015250565b600061275d602b83611fe7565b915061276882612701565b604082019050919050565b6000602082019050818103600083015261278c81612750565b9050919050565b7f455243313936373a206e657720696d706c656d656e746174696f6e206973206e60008201527f6f74206120636f6e747261637400000000000000000000000000000000000000602082015250565b60006127ef602d83611fe7565b91506127fa82612793565b604082019050919050565b6000602082019050818103600083015261281e816127e2565b9050919050565b7f416464726573733a2064656c65676174652063616c6c20746f206e6f6e2d636f60008201527f6e74726163740000000000000000000000000000000000000000000000000000602082015250565b6000612881602683611fe7565b915061288c82612825565b604082019050919050565b600060208201905081810360008301526128b081612874565b9050919050565b600081519050919050565b600081905092915050565b60005b838110156128eb5780820151818401526020810190506128d0565b60008484015250505050565b6000612902826128b7565b61290c81856128c2565b935061291c8185602086016128cd565b80840191505092915050565b600061293482846128f7565b915081905092915050565b600081519050919050565b60006129558261293f565b61295f8185611fe7565b935061296f8185602086016128cd565b61297881611c7c565b840191505092915050565b6000602082019050818103600083015261299d818461294a565b90509291505056fe416464726573733a206c6f772d6c6576656c2064656c65676174652063616c6c206661696c6564a2646970667358221220da397ac227f075a8326acf20dddbd7ca9c5f3c731e52f18ca35042303498093064736f6c63430008100033",
  "linkReferences": {},
  "deployedLinkReferences": {}
}