{
  "_format": "hh-sol-artifact-1",
  "contractName": "TrustEventLog",
  "sourceName": "contracts/TrustEventLog.sol",
  "abi": [
    {
      "inputs": [],
      "stateMutability": "nonpayable",
      "type": "constructor"
    },
    {
      "anonymous": false,
      "inputs": [
        {
          "indexed": false,
          "internalType": "address",
          "name": "previousAdmin",
          "type": "address"
        },
        {
          "indexed": false,
          "internalType": "address",
          "name": "newAdmin",
          "type": "address"
        }
      ],
      "name": "AdminChanged",
      "type": "event"
    },
    {
      "anonymous": false,
      "inputs": [
        {
          "indexed": true,
          "internalType": "address",
          "name": "beacon",
          "type": "address"
        }
      ],
      "name": "BeaconUpgraded",
      "type": "event"
    },
    {
      "anonymous": false,
      "inputs": [
        {
          "indexed": false,
          "internalType": "uint8",
          "name": "version",
          "type": "uint8"
        }
      ],
      "name": "Initialized",
      "type": "event"
    },
    {
      "anonymous": false,
      "inputs": [
        {
          "indexed": true,
          "internalType": "address",
          "name": "previousOwner",
          "type": "address"
        },
        {
          "indexed": true,
          "internalType": "address",
          "name": "newOwner",
          "type": "address"
        }
      ],
      "name": "OwnershipTransferred",
      "type": "event"
    },
    {
      "anonymous": false,
      "inputs": [
        {
          "indexed": true,
          "internalType": "address",
          "name": "implementation",
          "type": "address"
        }
      ],
      "name": "Upgraded",
      "type": "event"
    },
    {
      "anonymous": false,
      "inputs": [
        {
          "indexed": false,
          "internalType": "address",
          "name": "dispatcher",
          "type": "address"
        },
        {
          "indexed": false,
          "internalType": "bytes32",
          "name": "eventHash",
          "type": "bytes32"
        }
      ],
      "name": "trustEventLogged",
      "type": "event"
    },
    {
      "anonymous": false,
      "inputs": [
        {
          "indexed": false,
          "internalType": "address",
          "name": "dispatcher",
          "type": "address"
        },
        {
          "indexed": false,
          "internalType": "uint256",
          "name": "trustId",
          "type": "uint256"
        },
        {
          "indexed": false,
          "internalType": "bytes32",
          "name": "eventHash",
          "type": "bytes32"
        },
        {
          "indexed": false,
          "internalType": "bytes32",
          "name": "eventDescription",
          "type": "bytes32"
        }
      ],
      "name": "trustEventRegistered",
      "type": "event"
    },
    {
      "inputs": [
        {
          "internalType": "bytes32",
          "name": "",
          "type": "bytes32"
        }
      ],
      "name": "eventDescriptions",
      "outputs": [
        {
          "internalType": "bytes32",
          "name": "",
          "type": "bytes32"
        }
      ],
      "stateMutability": "view",
      "type": "function"
    },
    {
      "inputs": [
        {
          "internalType": "bytes32",
          "name": "",
          "type": "bytes32"
        }
      ],
      "name": "eventDispatchers",
      "outputs": [
        {
          "internalType": "address",
          "name": "",
          "type": "address"
        }
      ],
      "stateMutability": "view",
      "type": "function"
    },
    {
      "inputs": [
        {
          "internalType": "bytes32",
          "name": "",
          "type": "bytes32"
        }
      ],
      "name": "firedEvents",
      "outputs": [
        {
          "internalType": "bool",
          "name": "",
          "type": "bool"
        }
      ],
      "stateMutability": "view",
      "type": "function"
    },
    {
      "inputs": [
        {
          "internalType": "uint256",
          "name": "trustId",
          "type": "uint256"
        },
        {
          "internalType": "address",
          "name": "dispatcher",
          "type": "address"
        }
      ],
      "name": "getRegisteredTrustEvents",
      "outputs": [
        {
          "internalType": "bytes32[]",
          "name": "",
          "type": "bytes32[]"
        }
      ],
      "stateMutability": "view",
      "type": "function"
    },
    {
      "inputs": [
        {
          "internalType": "address",
          "name": "_Notary",
          "type": "address"
        }
      ],
      "name": "initialize",
      "outputs": [],
      "stateMutability": "nonpayable",
      "type": "function"
    },
    {
      "inputs": [
        {
          "internalType": "bytes32",
          "name": "eventHash",
          "type": "bytes32"
        }
      ],
      "name": "logTrustEvent",
      "outputs": [],
      "stateMutability": "nonpayable",
      "type": "function"
    },
    {
      "inputs": [],
      "name": "notary",
      "outputs": [
        {
          "internalType": "address",
          "name": "",
          "type": "address"
        }
      ],
      "stateMutability": "view",
      "type": "function"
    },
    {
      "inputs": [],
      "name": "owner",
      "outputs": [
        {
          "internalType": "address",
          "name": "",
          "type": "address"
        }
      ],
      "stateMutability": "view",
      "type": "function"
    },
    {
      "inputs": [],
      "name": "proxiableUUID",
      "outputs": [
        {
          "internalType": "bytes32",
          "name": "",
          "type": "bytes32"
        }
      ],
      "stateMutability": "view",
      "type": "function"
    },
    {
      "inputs": [
        {
          "internalType": "uint256",
          "name": "trustId",
          "type": "uint256"
        },
        {
          "internalType": "bytes32",
          "name": "eventHash",
          "type": "bytes32"
        },
        {
          "internalType": "bytes32",
          "name": "description",
          "type": "bytes32"
        }
      ],
      "name": "registerTrustEvent",
      "outputs": [
        {
          "internalType": "bytes32",
          "name": "",
          "type": "bytes32"
        }
      ],
      "stateMutability": "nonpayable",
      "type": "function"
    },
    {
      "inputs": [],
      "name": "renounceOwnership",
      "outputs": [],
      "stateMutability": "nonpayable",
      "type": "function"
    },
    {
      "inputs": [
        {
          "internalType": "address",
          "name": "newOwner",
          "type": "address"
        }
      ],
      "name": "transferOwnership",
      "outputs": [],
      "stateMutability": "nonpayable",
      "type": "function"
    },
    {
      "inputs": [
        {
          "internalType": "address",
          "name": "newImplementation",
          "type": "address"
        }
      ],
      "name": "upgradeTo",
      "outputs": [],
      "stateMutability": "nonpayable",
      "type": "function"
    },
    {
      "inputs": [
        {
          "internalType": "address",
          "name": "newImplementation",
          "type": "address"
        },
        {
          "internalType": "bytes",
          "name": "data",
          "type": "bytes"
        }
      ],
      "name": "upgradeToAndCall",
      "outputs": [],
      "stateMutability": "payable",
      "type": "function"
    }
  ],
  "bytecode": "0x60a06040523073ffffffffffffffffffffffffffffffffffffffff1660809073ffffffffffffffffffffffffffffffffffffffff168152503480156200004457600080fd5b506200006167dfec274dda57974860c01b620000af60201b60201c565b6200007d67e6a4b381808b93c060c01b620000af60201b60201c565b620000996767fdcd083fdeef2760c01b620000af60201b60201c565b620000a9620000b260201b60201c565b6200025d565b50565b600060019054906101000a900460ff161562000105576040517f08c379a0000000000000000000000000000000000000000000000000000000008152600401620000fc9062000200565b60405180910390fd5b60ff801660008054906101000a900460ff1660ff161015620001775760ff6000806101000a81548160ff021916908360ff1602179055507f7f26b83ff96e1f2b6a682f133852f6798a09c465da95921460cefb384740249860ff6040516200016e919062000240565b60405180910390a15b565b600082825260208201905092915050565b7f496e697469616c697a61626c653a20636f6e747261637420697320696e69746960008201527f616c697a696e6700000000000000000000000000000000000000000000000000602082015250565b6000620001e860278362000179565b9150620001f5826200018a565b604082019050919050565b600060208201905081810360008301526200021b81620001d9565b9050919050565b600060ff82169050919050565b6200023a8162000222565b82525050565b60006020820190506200025760008301846200022f565b92915050565b6080516128df620002956000396000818161036d015281816103fb0152818161052d015281816105bb015261066b01526128df6000f3fe6080604052600436106100dd5760003560e01c80638da5cb5b1161007f578063b5aac36411610059578063b5aac364146102b3578063c4d66de8146102dc578063e423f90014610305578063f2fde38b14610342576100dd565b80638da5cb5b146102205780638fd8149d1461024b5780639d54c79d14610288576100dd565b80634f1ef286116100bb5780634f1ef2861461018557806352d1902d146101a1578063715018a6146101cc5780638942e585146101e3576100dd565b80633659cfe6146100e25780634c80ebd61461010b5780634ded591114610148575b600080fd5b3480156100ee57600080fd5b5061010960048036038101906101049190611a5f565b61036b565b005b34801561011757600080fd5b50610132600480360381019061012d9190611ac2565b6104f3565b60405161013f9190611b0a565b60405180910390f35b34801561015457600080fd5b5061016f600480360381019061016a9190611ac2565b610513565b60405161017c9190611b34565b60405180910390f35b61019f600480360381019061019a9190611c95565b61052b565b005b3480156101ad57600080fd5b506101b6610667565b6040516101c39190611b34565b60405180910390f35b3480156101d857600080fd5b506101e1610720565b005b3480156101ef57600080fd5b5061020a60048036038101906102059190611d27565b610734565b6040516102179190611b34565b60405180910390f35b34801561022c57600080fd5b50610235610bce565b6040516102429190611d89565b60405180910390f35b34801561025757600080fd5b50610272600480360381019061026d9190611da4565b610bf8565b60405161027f9190611ea2565b60405180910390f35b34801561029457600080fd5b5061029d610d61565b6040516102aa9190611d89565b60405180910390f35b3480156102bf57600080fd5b506102da60048036038101906102d59190611ac2565b610d87565b005b3480156102e857600080fd5b5061030360048036038101906102fe9190611a5f565b610fe1565b005b34801561031157600080fd5b5061032c60048036038101906103279190611ac2565b611209565b6040516103399190611d89565b60405180910390f35b34801561034e57600080fd5b5061036960048036038101906103649190611a5f565b61123c565b005b7f000000000000000000000000000000000000000000000000000000000000000073ffffffffffffffffffffffffffffffffffffffff163073ffffffffffffffffffffffffffffffffffffffff16036103f9576040517f08c379a00000000000000000000000000000000000000000000000000000000081526004016103f090611f47565b60405180910390fd5b7f000000000000000000000000000000000000000000000000000000000000000073ffffffffffffffffffffffffffffffffffffffff166104386112bf565b73ffffffffffffffffffffffffffffffffffffffff161461048e576040517f08c379a000000000000000000000000000000000000000000000000000000000815260040161048590611fd9565b60405180910390fd5b61049781611316565b6104f081600067ffffffffffffffff8111156104b6576104b5611b6a565b5b6040519080825280601f01601f1916602001820160405280156104e85781602001600182028036833780820191505090505b50600061135d565b50565b60ce6020528060005260406000206000915054906101000a900460ff1681565b60cb6020528060005260406000206000915090505481565b7f000000000000000000000000000000000000000000000000000000000000000073ffffffffffffffffffffffffffffffffffffffff163073ffffffffffffffffffffffffffffffffffffffff16036105b9576040517f08c379a00000000000000000000000000000000000000000000000000000000081526004016105b090611f47565b60405180910390fd5b7f000000000000000000000000000000000000000000000000000000000000000073ffffffffffffffffffffffffffffffffffffffff166105f86112bf565b73ffffffffffffffffffffffffffffffffffffffff161461064e576040517f08c379a000000000000000000000000000000000000000000000000000000000815260040161064590611fd9565b60405180910390fd5b61065782611316565b6106638282600161135d565b5050565b60007f000000000000000000000000000000000000000000000000000000000000000073ffffffffffffffffffffffffffffffffffffffff163073ffffffffffffffffffffffffffffffffffffffff16146106f7576040517f08c379a00000000000000000000000000000000000000000000000000000000081526004016106ee9061206b565b60405180910390fd5b7f360894a13ba1a3210667c828492db98dca3e2076cc3735a920a3ca505d382bbc60001b905090565b6107286114cb565b6107326000611549565b565b600061074a67991474d27853af8b60c01b61160f565b61075e67a8f5883b4e35619860c01b61160f565b61077267e54d8b4908af102060c01b61160f565b6000338460405160200161078792919061208b565b6040516020818303038152906040528051906020012090506107b3674726a3dfb7e80f0a60c01b61160f565b6107c767749ef3ef30e67dc760c01b61160f565b60c960009054906101000a900473ffffffffffffffffffffffffffffffffffffffff1673ffffffffffffffffffffffffffffffffffffffff1663bc231f2d338784876040518563ffffffff1660e01b815260040161082894939291906120c3565b600060405180830381600087803b15801561084257600080fd5b505af1158015610856573d6000803e3d6000fd5b5050505061086e67791e6f7ec3e7e5ab60c01b61160f565b610882672582ea1bbea0a13660c01b61160f565b6108966729cb890843f1738460c01b61160f565b60ca600082815260200190815260200160002060009054906101000a900473ffffffffffffffffffffffffffffffffffffffff1673ffffffffffffffffffffffffffffffffffffffff16600073ffffffffffffffffffffffffffffffffffffffff1614610938576040517f08c379a000000000000000000000000000000000000000000000000000000000815260040161092f90612154565b60405180910390fd5b61094c676bdd64016da2bcee60c01b61160f565b61096067b750b2ac534a5b2960c01b61160f565b61097467f666f1742361e08260c01b61160f565b60ce600082815260200190815260200160002060009054906101000a900460ff16156109a3576109a2612174565b5b6109b76760b76028ec63681960c01b61160f565b3360ca600083815260200190815260200160002060006101000a81548173ffffffffffffffffffffffffffffffffffffffff021916908373ffffffffffffffffffffffffffffffffffffffff160217905550610a1d670d5f50bd1f6d53de60c01b61160f565b8260cb600083815260200190815260200160002081905550610a4967b46f38825c9997d160c01b61160f565b610a5d67a25dc520f5a7971960c01b61160f565b60cc6000868152602001908152602001600020819080600181540180825580915050600190039060005260206000200160009091909190915055610aab6736c18267a8558c2a60c01b61160f565b610abf67c5755effdad037c160c01b61160f565b60cd600086815260200190815260200160002060003373ffffffffffffffffffffffffffffffffffffffff1673ffffffffffffffffffffffffffffffffffffffff168152602001908152602001600020819080600181540180825580915050600190039060005260206000200160009091909190915055610b4a67cce8806d31fbd38f60c01b61160f565b610b5e6751f9f726585f688860c01b61160f565b7fbaff4b344f8408743d4705172cdbc7bd34bd12c0129d979468688500e40040ba33868386604051610b9394939291906120c3565b60405180910390a1610baf6761536b0fb10cee9160c01b61160f565b610bc367fc6b707b6dec40fb60c01b61160f565b809150509392505050565b6000603360009054906101000a900473ffffffffffffffffffffffffffffffffffffffff16905090565b6060610c0e6785c662edde6919bb60c01b61160f565b610c226762825c0b87297e5360c01b61160f565b610c3667d95806e4f75ec2fa60c01b61160f565b600073ffffffffffffffffffffffffffffffffffffffff168273ffffffffffffffffffffffffffffffffffffffff16148015610c825750610c8167bee4768f784874fe60c01b611612565b5b80610c9d5750610c9c67b76c12a973bd6ea460c01b61161d565b5b610cf65760cd600084815260200190815260200160002060008373ffffffffffffffffffffffffffffffffffffffff1673ffffffffffffffffffffffffffffffffffffffff168152602001908152602001600020610d0a565b60cc60008481526020019081526020016000205b805480602002602001604051908101604052809291908181526020018280548015610d5457602002820191906000526020600020905b815481526020019060010190808311610d40575b5050505050905092915050565b60c960009054906101000a900473ffffffffffffffffffffffffffffffffffffffff1681565b610d9b6721d6ed986609792a60c01b61160f565b610daf674e08509f607baf3760c01b61160f565b610dc36721c6875faaadd78360c01b61160f565b610dd7677c01bd302756bc5560c01b61160f565b60ca600082815260200190815260200160002060009054906101000a900473ffffffffffffffffffffffffffffffffffffffff1673ffffffffffffffffffffffffffffffffffffffff163373ffffffffffffffffffffffffffffffffffffffff1614610e78576040517f08c379a0000000000000000000000000000000000000000000000000000000008152600401610e6f906121ef565b60405180910390fd5b610e8c6747ccdfd2220e679060c01b61160f565b610ea067c0f4d42f4bbb8b5960c01b61160f565b610eb4675ee8891eaa751d3360c01b61160f565b610ec8677e1d8524b45131fc60c01b61160f565b60ce600082815260200190815260200160002060009054906101000a900460ff1615610f29576040517f08c379a0000000000000000000000000000000000000000000000000000000008152600401610f209061225b565b60405180910390fd5b610f3d6718e0e8354dddd34360c01b61160f565b610f5167275ddaee41a8df7d60c01b61160f565b600160ce600083815260200190815260200160002060006101000a81548160ff021916908315150217905550610f916759b35516887e340e60c01b61160f565b610fa567806327061b2a904360c01b61160f565b7ff4ae467b442ee74c8b8a48afbab450ed55d390df103f9bf7632dd32c25c09f613382604051610fd692919061208b565b60405180910390a150565b610ff5672136fbf5203c271760c01b61160f565b60008060019054906101000a900460ff161590508080156110265750600160008054906101000a900460ff1660ff16105b80611053575061103530611624565b1580156110525750600160008054906101000a900460ff1660ff16145b5b611092576040517f08c379a0000000000000000000000000000000000000000000000000000000008152600401611089906122ed565b60405180910390fd5b60016000806101000a81548160ff021916908360ff16021790555080156110cf576001600060016101000a81548160ff0219169083151502179055505b6110e36711b457e35f01e2ad60c01b61160f565b6110f767182f3da27121a7f260c01b61160f565b61110b6727fc2e299bd1399060c01b61160f565b61111f673045cb29a559af5360c01b61160f565b611127611647565b61113b675dd4efe603e09c8160c01b61160f565b61114f677ed6ee6b23fe01ca60c01b61160f565b6111576116a0565b61116b6715cb4eeea9c5916c60c01b61160f565b8160c960006101000a81548173ffffffffffffffffffffffffffffffffffffffff021916908373ffffffffffffffffffffffffffffffffffffffff16021790555080156112055760008060016101000a81548160ff0219169083151502179055507f7f26b83ff96e1f2b6a682f133852f6798a09c465da95921460cefb384740249860016040516111fc919061235f565b60405180910390a15b5050565b60ca6020528060005260406000206000915054906101000a900473ffffffffffffffffffffffffffffffffffffffff1681565b6112446114cb565b600073ffffffffffffffffffffffffffffffffffffffff168173ffffffffffffffffffffffffffffffffffffffff16036112b3576040517f08c379a00000000000000000000000000000000000000000000000000000000081526004016112aa906123ec565b60405180910390fd5b6112bc81611549565b50565b60006112ed7f360894a13ba1a3210667c828492db98dca3e2076cc3735a920a3ca505d382bbc60001b6116f1565b60000160009054906101000a900473ffffffffffffffffffffffffffffffffffffffff16905090565b61132a67f00a14261e0bac3a60c01b61160f565b6113326114cb565b611346670ab2e4f2604001dd60c01b61160f565b61135a674361f8a884f304c060c01b61160f565b50565b6113897f4910fdfa16fed3260ed0e7147f7cc6da11a60208b5b9406d12a635614ffd914360001b6116fb565b60000160009054906101000a900460ff16156113ad576113a883611705565b6114c6565b8273ffffffffffffffffffffffffffffffffffffffff166352d1902d6040518163ffffffff1660e01b8152600401602060405180830381865afa92505050801561141557506040513d601f19601f820116820180604052508101906114129190612421565b60015b611454576040517f08c379a000000000000000000000000000000000000000000000000000000000815260040161144b906124c0565b60405180910390fd5b7f360894a13ba1a3210667c828492db98dca3e2076cc3735a920a3ca505d382bbc60001b81146114b9576040517f08c379a00000000000000000000000000000000000000000000000000000000081526004016114b090612552565b60405180910390fd5b506114c58383836117be565b5b505050565b6114d36117ea565b73ffffffffffffffffffffffffffffffffffffffff166114f1610bce565b73ffffffffffffffffffffffffffffffffffffffff1614611547576040517f08c379a000000000000000000000000000000000000000000000000000000000815260040161153e906125be565b60405180910390fd5b565b6000603360009054906101000a900473ffffffffffffffffffffffffffffffffffffffff16905081603360006101000a81548173ffffffffffffffffffffffffffffffffffffffff021916908373ffffffffffffffffffffffffffffffffffffffff1602179055508173ffffffffffffffffffffffffffffffffffffffff168173ffffffffffffffffffffffffffffffffffffffff167f8be0079c531659141344cd1fd0a4f28419497f9722a3daafe3b4186f6b6457e060405160405180910390a35050565b50565b600060019050919050565b6000919050565b6000808273ffffffffffffffffffffffffffffffffffffffff163b119050919050565b600060019054906101000a900460ff16611696576040517f08c379a000000000000000000000000000000000000000000000000000000000815260040161168d90612650565b60405180910390fd5b61169e6117f2565b565b600060019054906101000a900460ff166116ef576040517f08c379a00000000000000000000000000000000000000000000000000000000081526004016116e690612650565b60405180910390fd5b565b6000819050919050565b6000819050919050565b61170e81611624565b61174d576040517f08c379a0000000000000000000000000000000000000000000000000000000008152600401611744906126e2565b60405180910390fd5b8061177a7f360894a13ba1a3210667c828492db98dca3e2076cc3735a920a3ca505d382bbc60001b6116f1565b60000160006101000a81548173ffffffffffffffffffffffffffffffffffffffff021916908373ffffffffffffffffffffffffffffffffffffffff16021790555050565b6117c783611853565b6000825111806117d45750805b156117e5576117e383836118a2565b505b505050565b600033905090565b600060019054906101000a900460ff16611841576040517f08c379a000000000000000000000000000000000000000000000000000000000815260040161183890612650565b60405180910390fd5b61185161184c6117ea565b611549565b565b61185c81611705565b8073ffffffffffffffffffffffffffffffffffffffff167fbc7cd75a20ee27fd9adebab32041f755214dbc6bffa90cc0225b39da2e5c2d3b60405160405180910390a250565b60606118ad83611624565b6118ec576040517f08c379a00000000000000000000000000000000000000000000000000000000081526004016118e390612774565b60405180910390fd5b6000808473ffffffffffffffffffffffffffffffffffffffff16846040516119149190612805565b600060405180830381855af49150503d806000811461194f576040519150601f19603f3d011682016040523d82523d6000602084013e611954565b606091505b509150915061197c828260405180606001604052806027815260200161288360279139611986565b9250505092915050565b60608315611996578290506119e6565b6000835111156119a95782518084602001fd5b816040517f08c379a00000000000000000000000000000000000000000000000000000000081526004016119dd9190612860565b60405180910390fd5b9392505050565b6000604051905090565b600080fd5b600080fd5b600073ffffffffffffffffffffffffffffffffffffffff82169050919050565b6000611a2c82611a01565b9050919050565b611a3c81611a21565b8114611a4757600080fd5b50565b600081359050611a5981611a33565b92915050565b600060208284031215611a7557611a746119f7565b5b6000611a8384828501611a4a565b91505092915050565b6000819050919050565b611a9f81611a8c565b8114611aaa57600080fd5b50565b600081359050611abc81611a96565b92915050565b600060208284031215611ad857611ad76119f7565b5b6000611ae684828501611aad565b91505092915050565b60008115159050919050565b611b0481611aef565b82525050565b6000602082019050611b1f6000830184611afb565b92915050565b611b2e81611a8c565b82525050565b6000602082019050611b496000830184611b25565b92915050565b600080fd5b600080fd5b6000601f19601f8301169050919050565b7f4e487b7100000000000000000000000000000000000000000000000000000000600052604160045260246000fd5b611ba282611b59565b810181811067ffffffffffffffff82111715611bc157611bc0611b6a565b5b80604052505050565b6000611bd46119ed565b9050611be08282611b99565b919050565b600067ffffffffffffffff821115611c0057611bff611b6a565b5b611c0982611b59565b9050602081019050919050565b82818337600083830152505050565b6000611c38611c3384611be5565b611bca565b905082815260208101848484011115611c5457611c53611b54565b5b611c5f848285611c16565b509392505050565b600082601f830112611c7c57611c7b611b4f565b5b8135611c8c848260208601611c25565b91505092915050565b60008060408385031215611cac57611cab6119f7565b5b6000611cba85828601611a4a565b925050602083013567ffffffffffffffff811115611cdb57611cda6119fc565b5b611ce785828601611c67565b9150509250929050565b6000819050919050565b611d0481611cf1565b8114611d0f57600080fd5b50565b600081359050611d2181611cfb565b92915050565b600080600060608486031215611d4057611d3f6119f7565b5b6000611d4e86828701611d12565b9350506020611d5f86828701611aad565b9250506040611d7086828701611aad565b9150509250925092565b611d8381611a21565b82525050565b6000602082019050611d9e6000830184611d7a565b92915050565b60008060408385031215611dbb57611dba6119f7565b5b6000611dc985828601611d12565b9250506020611dda85828601611a4a565b9150509250929050565b600081519050919050565b600082825260208201905092915050565b6000819050602082019050919050565b611e1981611a8c565b82525050565b6000611e2b8383611e10565b60208301905092915050565b6000602082019050919050565b6000611e4f82611de4565b611e598185611def565b9350611e6483611e00565b8060005b83811015611e95578151611e7c8882611e1f565b9750611e8783611e37565b925050600181019050611e68565b5085935050505092915050565b60006020820190508181036000830152611ebc8184611e44565b905092915050565b600082825260208201905092915050565b7f46756e6374696f6e206d7573742062652063616c6c6564207468726f7567682060008201527f64656c656761746563616c6c0000000000000000000000000000000000000000602082015250565b6000611f31602c83611ec4565b9150611f3c82611ed5565b604082019050919050565b60006020820190508181036000830152611f6081611f24565b9050919050565b7f46756e6374696f6e206d7573742062652063616c6c6564207468726f7567682060008201527f6163746976652070726f78790000000000000000000000000000000000000000602082015250565b6000611fc3602c83611ec4565b9150611fce82611f67565b604082019050919050565b60006020820190508181036000830152611ff281611fb6565b9050919050565b7f555550535570677261646561626c653a206d757374206e6f742062652063616c60008201527f6c6564207468726f7567682064656c656761746563616c6c0000000000000000602082015250565b6000612055603883611ec4565b915061206082611ff9565b604082019050919050565b6000602082019050818103600083015261208481612048565b9050919050565b60006040820190506120a06000830185611d7a565b6120ad6020830184611b25565b9392505050565b6120bd81611cf1565b82525050565b60006080820190506120d86000830187611d7a565b6120e560208301866120b4565b6120f26040830185611b25565b6120ff6060830184611b25565b95945050505050565b7f4455504c49434154455f524547495354524154494f4e00000000000000000000600082015250565b600061213e601683611ec4565b915061214982612108565b602082019050919050565b6000602082019050818103600083015261216d81612131565b9050919050565b7f4e487b7100000000000000000000000000000000000000000000000000000000600052600160045260246000fd5b7f494e56414c49445f444953504154434800000000000000000000000000000000600082015250565b60006121d9601083611ec4565b91506121e4826121a3565b602082019050919050565b60006020820190508181036000830152612208816121cc565b9050919050565b7f4455504c49434154455f4556454e540000000000000000000000000000000000600082015250565b6000612245600f83611ec4565b91506122508261220f565b602082019050919050565b6000602082019050818103600083015261227481612238565b9050919050565b7f496e697469616c697a61626c653a20636f6e747261637420697320616c72656160008201527f647920696e697469616c697a6564000000000000000000000000000000000000602082015250565b60006122d7602e83611ec4565b91506122e28261227b565b604082019050919050565b60006020820190508181036000830152612306816122ca565b9050919050565b6000819050919050565b600060ff82169050919050565b6000819050919050565b600061234961234461233f8461230d565b612324565b612317565b9050919050565b6123598161232e565b82525050565b60006020820190506123746000830184612350565b92915050565b7f4f776e61626c653a206e6577206f776e657220697320746865207a65726f206160008201527f6464726573730000000000000000000000000000000000000000000000000000602082015250565b60006123d6602683611ec4565b91506123e18261237a565b604082019050919050565b60006020820190508181036000830152612405816123c9565b9050919050565b60008151905061241b81611a96565b92915050565b600060208284031215612437576124366119f7565b5b60006124458482850161240c565b91505092915050565b7f45524331393637557067726164653a206e657720696d706c656d656e7461746960008201527f6f6e206973206e6f742055555053000000000000000000000000000000000000602082015250565b60006124aa602e83611ec4565b91506124b58261244e565b604082019050919050565b600060208201905081810360008301526124d98161249d565b9050919050565b7f45524331393637557067726164653a20756e737570706f727465642070726f7860008201527f6961626c65555549440000000000000000000000000000000000000000000000602082015250565b600061253c602983611ec4565b9150612547826124e0565b604082019050919050565b6000602082019050818103600083015261256b8161252f565b9050919050565b7f4f776e61626c653a2063616c6c6572206973206e6f7420746865206f776e6572600082015250565b60006125a8602083611ec4565b91506125b382612572565b602082019050919050565b600060208201905081810360008301526125d78161259b565b9050919050565b7f496e697469616c697a61626c653a20636f6e7472616374206973206e6f74206960008201527f6e697469616c697a696e67000000000000000000000000000000000000000000602082015250565b600061263a602b83611ec4565b9150612645826125de565b604082019050919050565b600060208201905081810360008301526126698161262d565b9050919050565b7f455243313936373a206e657720696d706c656d656e746174696f6e206973206e60008201527f6f74206120636f6e747261637400000000000000000000000000000000000000602082015250565b60006126cc602d83611ec4565b91506126d782612670565b604082019050919050565b600060208201905081810360008301526126fb816126bf565b9050919050565b7f416464726573733a2064656c65676174652063616c6c20746f206e6f6e2d636f60008201527f6e74726163740000000000000000000000000000000000000000000000000000602082015250565b600061275e602683611ec4565b915061276982612702565b604082019050919050565b6000602082019050818103600083015261278d81612751565b9050919050565b600081519050919050565b600081905092915050565b60005b838110156127c85780820151818401526020810190506127ad565b60008484015250505050565b60006127df82612794565b6127e9818561279f565b93506127f98185602086016127aa565b80840191505092915050565b600061281182846127d4565b915081905092915050565b600081519050919050565b60006128328261281c565b61283c8185611ec4565b935061284c8185602086016127aa565b61285581611b59565b840191505092915050565b6000602082019050818103600083015261287a8184612827565b90509291505056fe416464726573733a206c6f772d6c6576656c2064656c65676174652063616c6c206661696c6564a2646970667358221220b7ec51ccccc4e78a5fbf2ca09aee90d6c9f33acc76b9e17130925f3b9184a18964736f6c63430008100033",
  "linkReferences": {},
  "deployedLinkReferences": {}
}