{
  "_format": "hh-sol-artifact-1",
  "contractName": "TrustEventLog",
  "sourceName": "contracts/TrustEventLog.sol",
  "abi": [
    {
      "inputs": [],
      "stateMutability": "nonpayable",
      "type": "constructor"
    },
    {
      "anonymous": false,
      "inputs": [
        {
          "indexed": false,
          "internalType": "address",
          "name": "previousAdmin",
          "type": "address"
        },
        {
          "indexed": false,
          "internalType": "address",
          "name": "newAdmin",
          "type": "address"
        }
      ],
      "name": "AdminChanged",
      "type": "event"
    },
    {
      "anonymous": false,
      "inputs": [
        {
          "indexed": true,
          "internalType": "address",
          "name": "beacon",
          "type": "address"
        }
      ],
      "name": "BeaconUpgraded",
      "type": "event"
    },
    {
      "anonymous": false,
      "inputs": [
        {
          "indexed": false,
          "internalType": "uint8",
          "name": "version",
          "type": "uint8"
        }
      ],
      "name": "Initialized",
      "type": "event"
    },
    {
      "anonymous": false,
      "inputs": [
        {
          "indexed": true,
          "internalType": "address",
          "name": "previousOwner",
          "type": "address"
        },
        {
          "indexed": true,
          "internalType": "address",
          "name": "newOwner",
          "type": "address"
        }
      ],
      "name": "OwnershipTransferred",
      "type": "event"
    },
    {
      "anonymous": false,
      "inputs": [
        {
          "indexed": true,
          "internalType": "address",
          "name": "implementation",
          "type": "address"
        }
      ],
      "name": "Upgraded",
      "type": "event"
    },
    {
      "anonymous": false,
      "inputs": [
        {
          "indexed": false,
          "internalType": "address",
          "name": "dispatcher",
          "type": "address"
        },
        {
          "indexed": false,
          "internalType": "bytes32",
          "name": "eventHash",
          "type": "bytes32"
        }
      ],
      "name": "trustEventLogged",
      "type": "event"
    },
    {
      "anonymous": false,
      "inputs": [
        {
          "indexed": false,
          "internalType": "address",
          "name": "dispatcher",
          "type": "address"
        },
        {
          "indexed": false,
          "internalType": "uint256",
          "name": "trustId",
          "type": "uint256"
        },
        {
          "indexed": false,
          "internalType": "bytes32",
          "name": "eventHash",
          "type": "bytes32"
        },
        {
          "indexed": false,
          "internalType": "bytes32",
          "name": "eventDescription",
          "type": "bytes32"
        }
      ],
      "name": "trustEventRegistered",
      "type": "event"
    },
    {
      "inputs": [
        {
          "internalType": "bytes32",
          "name": "",
          "type": "bytes32"
        }
      ],
      "name": "eventDescriptions",
      "outputs": [
        {
          "internalType": "bytes32",
          "name": "",
          "type": "bytes32"
        }
      ],
      "stateMutability": "view",
      "type": "function"
    },
    {
      "inputs": [
        {
          "internalType": "bytes32",
          "name": "",
          "type": "bytes32"
        }
      ],
      "name": "eventDispatchers",
      "outputs": [
        {
          "internalType": "address",
          "name": "",
          "type": "address"
        }
      ],
      "stateMutability": "view",
      "type": "function"
    },
    {
      "inputs": [
        {
          "internalType": "bytes32",
          "name": "",
          "type": "bytes32"
        }
      ],
      "name": "firedEvents",
      "outputs": [
        {
          "internalType": "bool",
          "name": "",
          "type": "bool"
        }
      ],
      "stateMutability": "view",
      "type": "function"
    },
    {
      "inputs": [
        {
          "internalType": "uint256",
          "name": "trustId",
          "type": "uint256"
        },
        {
          "internalType": "address",
          "name": "dispatcher",
          "type": "address"
        }
      ],
      "name": "getRegisteredTrustEvents",
      "outputs": [
        {
          "internalType": "bytes32[]",
          "name": "",
          "type": "bytes32[]"
        }
      ],
      "stateMutability": "view",
      "type": "function"
    },
    {
      "inputs": [
        {
          "internalType": "address",
          "name": "_Notary",
          "type": "address"
        }
      ],
      "name": "initialize",
      "outputs": [],
      "stateMutability": "nonpayable",
      "type": "function"
    },
    {
      "inputs": [
        {
          "internalType": "bytes32",
          "name": "eventHash",
          "type": "bytes32"
        }
      ],
      "name": "logTrustEvent",
      "outputs": [],
      "stateMutability": "nonpayable",
      "type": "function"
    },
    {
      "inputs": [],
      "name": "notary",
      "outputs": [
        {
          "internalType": "address",
          "name": "",
          "type": "address"
        }
      ],
      "stateMutability": "view",
      "type": "function"
    },
    {
      "inputs": [],
      "name": "owner",
      "outputs": [
        {
          "internalType": "address",
          "name": "",
          "type": "address"
        }
      ],
      "stateMutability": "view",
      "type": "function"
    },
    {
      "inputs": [],
      "name": "proxiableUUID",
      "outputs": [
        {
          "internalType": "bytes32",
          "name": "",
          "type": "bytes32"
        }
      ],
      "stateMutability": "view",
      "type": "function"
    },
    {
      "inputs": [
        {
          "internalType": "uint256",
          "name": "trustId",
          "type": "uint256"
        },
        {
          "internalType": "bytes32",
          "name": "eventHash",
          "type": "bytes32"
        },
        {
          "internalType": "bytes32",
          "name": "description",
          "type": "bytes32"
        }
      ],
      "name": "registerTrustEvent",
      "outputs": [
        {
          "internalType": "bytes32",
          "name": "",
          "type": "bytes32"
        }
      ],
      "stateMutability": "nonpayable",
      "type": "function"
    },
    {
      "inputs": [],
      "name": "renounceOwnership",
      "outputs": [],
      "stateMutability": "nonpayable",
      "type": "function"
    },
    {
      "inputs": [
        {
          "internalType": "address",
          "name": "newOwner",
          "type": "address"
        }
      ],
      "name": "transferOwnership",
      "outputs": [],
      "stateMutability": "nonpayable",
      "type": "function"
    },
    {
      "inputs": [
        {
          "internalType": "address",
          "name": "newImplementation",
          "type": "address"
        }
      ],
      "name": "upgradeTo",
      "outputs": [],
      "stateMutability": "nonpayable",
      "type": "function"
    },
    {
      "inputs": [
        {
          "internalType": "address",
          "name": "newImplementation",
          "type": "address"
        },
        {
          "internalType": "bytes",
          "name": "data",
          "type": "bytes"
        }
      ],
      "name": "upgradeToAndCall",
      "outputs": [],
      "stateMutability": "payable",
      "type": "function"
    }
  ],
  "bytecode": "0x60a06040523060805234801561001457600080fd5b5061001d610022565b6100e2565b600054610100900460ff161561008e5760405162461bcd60e51b815260206004820152602760248201527f496e697469616c697a61626c653a20636f6e747261637420697320696e697469604482015266616c697a696e6760c81b606482015260840160405180910390fd5b60005460ff90811610156100e0576000805460ff191660ff9081179091556040519081527f7f26b83ff96e1f2b6a682f133852f6798a09c465da95921460cefb38474024989060200160405180910390a15b565b608051611550610119600039600081816103000152818161038a015281816104800152818161050501526105ef01526115506000f3fe6080604052600436106100dd5760003560e01c80638da5cb5b1161007f578063b5aac36411610059578063b5aac36414610260578063c4d66de814610280578063e423f900146102a0578063f2fde38b146102d657600080fd5b80638da5cb5b146101e15780638fd8149d146102135780639d54c79d1461024057600080fd5b80634f1ef286116100bb5780634f1ef2861461018457806352d1902d14610197578063715018a6146101ac5780638942e585146101c157600080fd5b80633659cfe6146100e25780634c80ebd6146101045780634ded591114610149575b600080fd5b3480156100ee57600080fd5b506101026100fd3660046112a9565b6102f6565b005b34801561011057600080fd5b5061013461011f3660046112c4565b60ce6020526000908152604090205460ff1681565b60405190151581526020015b60405180910390f35b34801561015557600080fd5b506101766101643660046112c4565b60cb6020526000908152604090205481565b604051908152602001610140565b6101026101923660046112f3565b610476565b3480156101a357600080fd5b506101766105e2565b3480156101b857600080fd5b506101026106a7565b3480156101cd57600080fd5b506101766101dc3660046113b5565b6106bb565b3480156101ed57600080fd5b506033546001600160a01b03165b6040516001600160a01b039091168152602001610140565b34801561021f57600080fd5b5061023361022e3660046113e1565b6108c5565b604051610140919061140d565b34801561024c57600080fd5b5060c9546101fb906001600160a01b031681565b34801561026c57600080fd5b5061010261027b3660046112c4565b610963565b34801561028c57600080fd5b5061010261029b3660046112a9565b610a7e565b3480156102ac57600080fd5b506101fb6102bb3660046112c4565b60ca602052600090815260409020546001600160a01b031681565b3480156102e257600080fd5b506101026102f13660046112a9565b610bce565b6001600160a01b037f00000000000000000000000000000000000000000000000000000000000000001630036103885760405162461bcd60e51b815260206004820152602c60248201527f46756e6374696f6e206d7573742062652063616c6c6564207468726f7567682060448201526b19195b1959d85d1958d85b1b60a21b60648201526084015b60405180910390fd5b7f00000000000000000000000000000000000000000000000000000000000000006001600160a01b03166103e37f360894a13ba1a3210667c828492db98dca3e2076cc3735a920a3ca505d382bbc546001600160a01b031690565b6001600160a01b03161461044e5760405162461bcd60e51b815260206004820152602c60248201527f46756e6374696f6e206d7573742062652063616c6c6564207468726f7567682060448201526b6163746976652070726f787960a01b606482015260840161037f565b61045781610c5b565b6040805160008082526020820190925261047391839190610c63565b50565b6001600160a01b037f00000000000000000000000000000000000000000000000000000000000000001630036105035760405162461bcd60e51b815260206004820152602c60248201527f46756e6374696f6e206d7573742062652063616c6c6564207468726f7567682060448201526b19195b1959d85d1958d85b1b60a21b606482015260840161037f565b7f00000000000000000000000000000000000000000000000000000000000000006001600160a01b031661055e7f360894a13ba1a3210667c828492db98dca3e2076cc3735a920a3ca505d382bbc546001600160a01b031690565b6001600160a01b0316146105c95760405162461bcd60e51b815260206004820152602c60248201527f46756e6374696f6e206d7573742062652063616c6c6564207468726f7567682060448201526b6163746976652070726f787960a01b606482015260840161037f565b6105d282610c5b565b6105de82826001610c63565b5050565b6000306001600160a01b037f000000000000000000000000000000000000000000000000000000000000000016146106825760405162461bcd60e51b815260206004820152603860248201527f555550535570677261646561626c653a206d757374206e6f742062652063616c60448201527f6c6564207468726f7567682064656c656761746563616c6c0000000000000000606482015260840161037f565b507f360894a13ba1a3210667c828492db98dca3e2076cc3735a920a3ca505d382bbc90565b6106af610e08565b6106b96000610e62565b565b60408051336020820152908101839052600090819060600160408051808303601f1901815290829052805160209091012060c9547fbc231f2d0000000000000000000000000000000000000000000000000000000083523360048401526024830188905260448301829052606483018690529092506001600160a01b03169063bc231f2d90608401600060405180830381600087803b15801561075d57600080fd5b505af1158015610771573d6000803e3d6000fd5b505050600082815260ca60205260409020546001600160a01b03161590506107db5760405162461bcd60e51b815260206004820152601660248201527f4455504c49434154455f524547495354524154494f4e00000000000000000000604482015260640161037f565b600081815260ce602052604090205460ff16156107fa576107fa611451565b600081815260ca60209081526040808320805473ffffffffffffffffffffffffffffffffffffffff19163390811790915560cb835281842087905588845260cc83528184208054600181810183559186528486200186905589855260cd845282852082865284528285208054918201815585529383902090930184905580519283529082018790528101829052606081018490527fbaff4b344f8408743d4705172cdbc7bd34bd12c0129d979468688500e40040ba9060800160405180910390a190505b9392505050565b60606001600160a01b038216156108fd57600083815260cd602090815260408083206001600160a01b0386168452909152902061090c565b600083815260cc602052604090205b80548060200260200160405190810160405280929190818152602001828054801561095657602002820191906000526020600020905b815481526020019060010190808311610942575b5050505050905092915050565b600081815260ca60205260409020546001600160a01b031633146109c95760405162461bcd60e51b815260206004820152601060248201527f494e56414c49445f444953504154434800000000000000000000000000000000604482015260640161037f565b600081815260ce602052604090205460ff1615610a285760405162461bcd60e51b815260206004820152600f60248201527f4455504c49434154455f4556454e540000000000000000000000000000000000604482015260640161037f565b600081815260ce6020908152604091829020805460ff1916600117905581513381529081018390527ff4ae467b442ee74c8b8a48afbab450ed55d390df103f9bf7632dd32c25c09f61910160405180910390a150565b600054610100900460ff1615808015610a9e5750600054600160ff909116105b80610ab85750303b158015610ab8575060005460ff166001145b610b2a5760405162461bcd60e51b815260206004820152602e60248201527f496e697469616c697a61626c653a20636f6e747261637420697320616c72656160448201527f647920696e697469616c697a6564000000000000000000000000000000000000606482015260840161037f565b6000805460ff191660011790558015610b4d576000805461ff0019166101001790555b610b55610ec1565b610b5d610f34565b60c9805473ffffffffffffffffffffffffffffffffffffffff19166001600160a01b03841617905580156105de576000805461ff0019169055604051600181527f7f26b83ff96e1f2b6a682f133852f6798a09c465da95921460cefb38474024989060200160405180910390a15050565b610bd6610e08565b6001600160a01b038116610c525760405162461bcd60e51b815260206004820152602660248201527f4f776e61626c653a206e6577206f776e657220697320746865207a65726f206160448201527f6464726573730000000000000000000000000000000000000000000000000000606482015260840161037f565b61047381610e62565b610473610e08565b7f4910fdfa16fed3260ed0e7147f7cc6da11a60208b5b9406d12a635614ffd91435460ff1615610c9b57610c9683610f9f565b505050565b826001600160a01b03166352d1902d6040518163ffffffff1660e01b8152600401602060405180830381865afa925050508015610cf5575060408051601f3d908101601f19168201909252610cf291810190611467565b60015b610d675760405162461bcd60e51b815260206004820152602e60248201527f45524331393637557067726164653a206e657720696d706c656d656e7461746960448201527f6f6e206973206e6f742055555053000000000000000000000000000000000000606482015260840161037f565b7f360894a13ba1a3210667c828492db98dca3e2076cc3735a920a3ca505d382bbc8114610dfc5760405162461bcd60e51b815260206004820152602960248201527f45524331393637557067726164653a20756e737570706f727465642070726f7860448201527f6961626c65555549440000000000000000000000000000000000000000000000606482015260840161037f565b50610c9683838361106a565b6033546001600160a01b031633146106b95760405162461bcd60e51b815260206004820181905260248201527f4f776e61626c653a2063616c6c6572206973206e6f7420746865206f776e6572604482015260640161037f565b603380546001600160a01b0383811673ffffffffffffffffffffffffffffffffffffffff19831681179093556040519116919082907f8be0079c531659141344cd1fd0a4f28419497f9722a3daafe3b4186f6b6457e090600090a35050565b600054610100900460ff16610f2c5760405162461bcd60e51b815260206004820152602b60248201527f496e697469616c697a61626c653a20636f6e7472616374206973206e6f74206960448201526a6e697469616c697a696e6760a81b606482015260840161037f565b6106b9611095565b600054610100900460ff166106b95760405162461bcd60e51b815260206004820152602b60248201527f496e697469616c697a61626c653a20636f6e7472616374206973206e6f74206960448201526a6e697469616c697a696e6760a81b606482015260840161037f565b6001600160a01b0381163b61101c5760405162461bcd60e51b815260206004820152602d60248201527f455243313936373a206e657720696d706c656d656e746174696f6e206973206e60448201527f6f74206120636f6e747261637400000000000000000000000000000000000000606482015260840161037f565b7f360894a13ba1a3210667c828492db98dca3e2076cc3735a920a3ca505d382bbc805473ffffffffffffffffffffffffffffffffffffffff19166001600160a01b0392909216919091179055565b61107383611109565b6000825111806110805750805b15610c965761108f8383611149565b50505050565b600054610100900460ff166111005760405162461bcd60e51b815260206004820152602b60248201527f496e697469616c697a61626c653a20636f6e7472616374206973206e6f74206960448201526a6e697469616c697a696e6760a81b606482015260840161037f565b6106b933610e62565b61111281610f9f565b6040516001600160a01b038216907fbc7cd75a20ee27fd9adebab32041f755214dbc6bffa90cc0225b39da2e5c2d3b90600090a250565b60606001600160a01b0383163b6111c85760405162461bcd60e51b815260206004820152602660248201527f416464726573733a2064656c65676174652063616c6c20746f206e6f6e2d636f60448201527f6e74726163740000000000000000000000000000000000000000000000000000606482015260840161037f565b600080846001600160a01b0316846040516111e391906114a4565b600060405180830381855af49150503d806000811461121e576040519150601f19603f3d011682016040523d82523d6000602084013e611223565b606091505b509150915061124b82826040518060600160405280602781526020016114f460279139611254565b95945050505050565b606083156112635750816108be565b8251156112735782518084602001fd5b8160405162461bcd60e51b815260040161037f91906114c0565b80356001600160a01b03811681146112a457600080fd5b919050565b6000602082840312156112bb57600080fd5b6108be8261128d565b6000602082840312156112d657600080fd5b5035919050565b634e487b7160e01b600052604160045260246000fd5b6000806040838503121561130657600080fd5b61130f8361128d565b9150602083013567ffffffffffffffff8082111561132c57600080fd5b818501915085601f83011261134057600080fd5b813581811115611352576113526112dd565b604051601f8201601f19908116603f0116810190838211818310171561137a5761137a6112dd565b8160405282815288602084870101111561139357600080fd5b8260208601602083013760006020848301015280955050505050509250929050565b6000806000606084860312156113ca57600080fd5b505081359360208301359350604090920135919050565b600080604083850312156113f457600080fd5b823591506114046020840161128d565b90509250929050565b6020808252825182820181905260009190848201906040850190845b8181101561144557835183529284019291840191600101611429565b50909695505050505050565b634e487b7160e01b600052600160045260246000fd5b60006020828403121561147957600080fd5b5051919050565b60005b8381101561149b578181015183820152602001611483565b50506000910152565b600082516114b6818460208701611480565b9190910192915050565b60208152600082518060208401526114df816040850160208701611480565b601f01601f1916919091016040019291505056fe416464726573733a206c6f772d6c6576656c2064656c65676174652063616c6c206661696c6564a26469706673582212204d006790ddf5d7420698de833851d6040ce69f9f99f2d0d4ae003b0fd054a00f64736f6c63430008100033",
  "linkReferences": {},
  "deployedLinkReferences": {}
}