{
  "_format": "hh-sol-artifact-1",
  "contractName": "Allowance",
  "sourceName": "contracts/scribes/Allowance.sol",
  "abi": [
    {
      "inputs": [],
      "stateMutability": "nonpayable",
      "type": "constructor"
    },
    {
      "anonymous": false,
      "inputs": [
        {
          "indexed": false,
          "internalType": "address",
          "name": "previousAdmin",
          "type": "address"
        },
        {
          "indexed": false,
          "internalType": "address",
          "name": "newAdmin",
          "type": "address"
        }
      ],
      "name": "AdminChanged",
      "type": "event"
    },
    {
      "anonymous": false,
      "inputs": [
        {
          "indexed": true,
          "internalType": "address",
          "name": "beacon",
          "type": "address"
        }
      ],
      "name": "BeaconUpgraded",
      "type": "event"
    },
    {
      "anonymous": false,
      "inputs": [
        {
          "indexed": false,
          "internalType": "uint8",
          "name": "version",
          "type": "uint8"
        }
      ],
      "name": "Initialized",
      "type": "event"
    },
    {
      "anonymous": false,
      "inputs": [
        {
          "indexed": true,
          "internalType": "address",
          "name": "previousOwner",
          "type": "address"
        },
        {
          "indexed": true,
          "internalType": "address",
          "name": "newOwner",
          "type": "address"
        }
      ],
      "name": "OwnershipTransferred",
      "type": "event"
    },
    {
      "anonymous": false,
      "inputs": [
        {
          "indexed": true,
          "internalType": "address",
          "name": "implementation",
          "type": "address"
        }
      ],
      "name": "Upgraded",
      "type": "event"
    },
    {
      "anonymous": false,
      "inputs": [
        {
          "indexed": false,
          "internalType": "address",
          "name": "operator",
          "type": "address"
        },
        {
          "indexed": false,
          "internalType": "bytes32",
          "name": "allowanceId",
          "type": "bytes32"
        },
        {
          "indexed": false,
          "internalType": "uint256",
          "name": "redeemedTranches",
          "type": "uint256"
        },
        {
          "indexed": false,
          "internalType": "uint256",
          "name": "nextVestTime",
          "type": "uint256"
        }
      ],
      "name": "allowanceAwarded",
      "type": "event"
    },
    {
      "anonymous": false,
      "inputs": [
        {
          "indexed": false,
          "internalType": "address",
          "name": "operator",
          "type": "address"
        },
        {
          "indexed": false,
          "internalType": "bytes32",
          "name": "allowanceId",
          "type": "bytes32"
        },
        {
          "indexed": false,
          "internalType": "bytes32[]",
          "name": "events",
          "type": "bytes32[]"
        },
        {
          "indexed": false,
          "internalType": "uint256",
          "name": "rootKeyId",
          "type": "uint256"
        },
        {
          "indexed": false,
          "internalType": "uint256",
          "name": "recipientKeyId",
          "type": "uint256"
        },
        {
          "indexed": false,
          "internalType": "uint256",
          "name": "tranches",
          "type": "uint256"
        },
        {
          "indexed": false,
          "internalType": "uint256",
          "name": "interval",
          "type": "uint256"
        },
        {
          "indexed": false,
          "internalType": "uint256",
          "name": "vestTime",
          "type": "uint256"
        },
        {
          "components": [
            {
              "internalType": "uint256",
              "name": "sourceKey",
              "type": "uint256"
            },
            {
              "internalType": "bytes32",
              "name": "arn",
              "type": "bytes32"
            },
            {
              "internalType": "address",
              "name": "provider",
              "type": "address"
            },
            {
              "internalType": "uint256",
              "name": "amount",
              "type": "uint256"
            }
          ],
          "indexed": false,
          "internalType": "struct IAllowance.Entitlement[]",
          "name": "assets",
          "type": "tuple[]"
        }
      ],
      "name": "allowanceCreated",
      "type": "event"
    },
    {
      "anonymous": false,
      "inputs": [
        {
          "indexed": false,
          "internalType": "address",
          "name": "operator",
          "type": "address"
        },
        {
          "indexed": false,
          "internalType": "bytes32",
          "name": "allowanceId",
          "type": "bytes32"
        }
      ],
      "name": "allowanceRemoved",
      "type": "event"
    },
    {
      "anonymous": false,
      "inputs": [
        {
          "indexed": false,
          "internalType": "address",
          "name": "operator",
          "type": "address"
        },
        {
          "indexed": false,
          "internalType": "bytes32",
          "name": "allowanceId",
          "type": "bytes32"
        },
        {
          "indexed": false,
          "internalType": "uint256",
          "name": "trancheCount",
          "type": "uint256"
        }
      ],
      "name": "allowanceTrancheCountChanged",
      "type": "event"
    },
    {
      "inputs": [
        {
          "internalType": "uint256",
          "name": "rootKeyId",
          "type": "uint256"
        },
        {
          "internalType": "bytes32",
          "name": "name",
          "type": "bytes32"
        },
        {
          "internalType": "uint256",
          "name": "recipientKeyId",
          "type": "uint256"
        },
        {
          "internalType": "uint256",
          "name": "trancheCount",
          "type": "uint256"
        },
        {
          "internalType": "uint256",
          "name": "vestInterval",
          "type": "uint256"
        },
        {
          "internalType": "uint256",
          "name": "firstVestTime",
          "type": "uint256"
        },
        {
          "components": [
            {
              "internalType": "uint256",
              "name": "sourceKey",
              "type": "uint256"
            },
            {
              "internalType": "bytes32",
              "name": "arn",
              "type": "bytes32"
            },
            {
              "internalType": "address",
              "name": "provider",
              "type": "address"
            },
            {
              "internalType": "uint256",
              "name": "amount",
              "type": "uint256"
            }
          ],
          "internalType": "struct IAllowance.Entitlement[]",
          "name": "entitlements",
          "type": "tuple[]"
        },
        {
          "internalType": "bytes32[]",
          "name": "events",
          "type": "bytes32[]"
        }
      ],
      "name": "createAllowance",
      "outputs": [
        {
          "internalType": "bytes32",
          "name": "",
          "type": "bytes32"
        }
      ],
      "stateMutability": "nonpayable",
      "type": "function"
    },
    {
      "inputs": [
        {
          "internalType": "bytes32",
          "name": "allowanceId",
          "type": "bytes32"
        }
      ],
      "name": "getAllowance",
      "outputs": [
        {
          "components": [
            {
              "internalType": "bool",
              "name": "enabled",
              "type": "bool"
            },
            {
              "internalType": "uint256",
              "name": "rootKeyId",
              "type": "uint256"
            },
            {
              "internalType": "bytes32",
              "name": "allowanceName",
              "type": "bytes32"
            },
            {
              "internalType": "uint256",
              "name": "recipientKeyId",
              "type": "uint256"
            },
            {
              "internalType": "uint256",
              "name": "remainingTrancheCount",
              "type": "uint256"
            },
            {
              "internalType": "uint256",
              "name": "vestingInterval",
              "type": "uint256"
            },
            {
              "internalType": "uint256",
              "name": "nextVestTime",
              "type": "uint256"
            },
            {
              "internalType": "bytes32[]",
              "name": "requiredEvents",
              "type": "bytes32[]"
            },
            {
              "components": [
                {
                  "internalType": "uint256",
                  "name": "sourceKey",
                  "type": "uint256"
                },
                {
                  "internalType": "bytes32",
                  "name": "arn",
                  "type": "bytes32"
                },
                {
                  "internalType": "address",
                  "name": "provider",
                  "type": "address"
                },
                {
                  "internalType": "uint256",
                  "name": "amount",
                  "type": "uint256"
                }
              ],
              "internalType": "struct IAllowance.Entitlement[]",
              "name": "entitlements",
              "type": "tuple[]"
            }
          ],
          "internalType": "struct IAllowance.Allowance",
          "name": "",
          "type": "tuple"
        },
        {
          "internalType": "bytes32[]",
          "name": "",
          "type": "bytes32[]"
        },
        {
          "components": [
            {
              "internalType": "uint256",
              "name": "sourceKey",
              "type": "uint256"
            },
            {
              "internalType": "bytes32",
              "name": "arn",
              "type": "bytes32"
            },
            {
              "internalType": "address",
              "name": "provider",
              "type": "address"
            },
            {
              "internalType": "uint256",
              "name": "amount",
              "type": "uint256"
            }
          ],
          "internalType": "struct IAllowance.Entitlement[]",
          "name": "",
          "type": "tuple[]"
        }
      ],
      "stateMutability": "view",
      "type": "function"
    },
    {
      "inputs": [
        {
          "internalType": "uint256[]",
          "name": "keys",
          "type": "uint256[]"
        }
      ],
      "name": "getKeyAllowances",
      "outputs": [
        {
          "components": [
            {
              "internalType": "bytes32[]",
              "name": "allowanceIds",
              "type": "bytes32[]"
            }
          ],
          "internalType": "struct IAllowance.KeyAllowanceSet[]",
          "name": "",
          "type": "tuple[]"
        }
      ],
      "stateMutability": "view",
      "type": "function"
    },
    {
      "inputs": [
        {
          "internalType": "bytes32",
          "name": "allowanceId",
          "type": "bytes32"
        }
      ],
      "name": "getRedeemableTrancheCount",
      "outputs": [
        {
          "internalType": "uint256",
          "name": "",
          "type": "uint256"
        }
      ],
      "stateMutability": "view",
      "type": "function"
    },
    {
      "inputs": [
        {
          "internalType": "address",
          "name": "_Locksmith",
          "type": "address"
        },
        {
          "internalType": "address",
          "name": "_Ledger",
          "type": "address"
        },
        {
          "internalType": "address",
          "name": "_TrustEventLog",
          "type": "address"
        }
      ],
      "name": "initialize",
      "outputs": [],
      "stateMutability": "nonpayable",
      "type": "function"
    },
    {
      "inputs": [],
      "name": "ledger",
      "outputs": [
        {
          "internalType": "contract ILedger",
          "name": "",
          "type": "address"
        }
      ],
      "stateMutability": "view",
      "type": "function"
    },
    {
      "inputs": [],
      "name": "locksmith",
      "outputs": [
        {
          "internalType": "contract ILocksmith",
          "name": "",
          "type": "address"
        }
      ],
      "stateMutability": "view",
      "type": "function"
    },
    {
      "inputs": [],
      "name": "owner",
      "outputs": [
        {
          "internalType": "address",
          "name": "",
          "type": "address"
        }
      ],
      "stateMutability": "view",
      "type": "function"
    },
    {
      "inputs": [],
      "name": "proxiableUUID",
      "outputs": [
        {
          "internalType": "bytes32",
          "name": "",
          "type": "bytes32"
        }
      ],
      "stateMutability": "view",
      "type": "function"
    },
    {
      "inputs": [
        {
          "internalType": "bytes32",
          "name": "allowanceId",
          "type": "bytes32"
        }
      ],
      "name": "redeemAllowance",
      "outputs": [],
      "stateMutability": "nonpayable",
      "type": "function"
    },
    {
      "inputs": [
        {
          "internalType": "bytes32",
          "name": "allowanceId",
          "type": "bytes32"
        }
      ],
      "name": "removeAllowance",
      "outputs": [],
      "stateMutability": "nonpayable",
      "type": "function"
    },
    {
      "inputs": [],
      "name": "renounceOwnership",
      "outputs": [],
      "stateMutability": "nonpayable",
      "type": "function"
    },
    {
      "inputs": [
        {
          "internalType": "bytes32",
          "name": "allowanceId",
          "type": "bytes32"
        },
        {
          "internalType": "uint256",
          "name": "tranches",
          "type": "uint256"
        }
      ],
      "name": "setTrancheCount",
      "outputs": [],
      "stateMutability": "nonpayable",
      "type": "function"
    },
    {
      "inputs": [
        {
          "internalType": "address",
          "name": "newOwner",
          "type": "address"
        }
      ],
      "name": "transferOwnership",
      "outputs": [],
      "stateMutability": "nonpayable",
      "type": "function"
    },
    {
      "inputs": [],
      "name": "trustEventLog",
      "outputs": [
        {
          "internalType": "contract ITrustEventLog",
          "name": "",
          "type": "address"
        }
      ],
      "stateMutability": "view",
      "type": "function"
    },
    {
      "inputs": [
        {
          "internalType": "address",
          "name": "newImplementation",
          "type": "address"
        }
      ],
      "name": "upgradeTo",
      "outputs": [],
      "stateMutability": "nonpayable",
      "type": "function"
    },
    {
      "inputs": [
        {
          "internalType": "address",
          "name": "newImplementation",
          "type": "address"
        },
        {
          "internalType": "bytes",
          "name": "data",
          "type": "bytes"
        }
      ],
      "name": "upgradeToAndCall",
      "outputs": [],
      "stateMutability": "payable",
      "type": "function"
    }
  ],
  "bytecode": "0x60a0604052306080523480156200001557600080fd5b506200002062000026565b620000e8565b600054610100900460ff1615620000935760405162461bcd60e51b815260206004820152602760248201527f496e697469616c697a61626c653a20636f6e747261637420697320696e697469604482015266616c697a696e6760c81b606482015260840160405180910390fd5b60005460ff9081161015620000e6576000805460ff191660ff9081179091556040519081527f7f26b83ff96e1f2b6a682f133852f6798a09c465da95921460cefb38474024989060200160405180910390a15b565b6080516133556200012060003960008181610ad801528181610b1801528181610bb701528181610bf70152610c8a01526133556000f3fe6080604052600436106100fe5760003560e01c8063715018a611610095578063a2e2449311610064578063a2e244931461028b578063b2df89d8146102ba578063c0c53b8b146102e7578063e20937ce14610307578063f2fde38b1461032757600080fd5b8063715018a61461021857806388c1377c1461022d5780638da5cb5b1461024d5780639040bc261461026b57600080fd5b80634f1ef286116100d15780634f1ef286146101b057806352d1902d146101c357806356397c35146101d85780635a2fefef146101f857600080fd5b806306f161961461010357806313fb817e1461013657806316631c431461016e5780633659cfe614610190575b600080fd5b34801561010f57600080fd5b5061012361011e36600461288e565b610347565b6040519081526020015b60405180910390f35b34801561014257600080fd5b5060c954610156906001600160a01b031681565b6040516001600160a01b03909116815260200161012d565b34801561017a57600080fd5b5061018e6101893660046129fe565b6109eb565b005b34801561019c57600080fd5b5061018e6101ab366004612a17565b610ace565b61018e6101be366004612a34565b610bad565b3480156101cf57600080fd5b50610123610c7d565b3480156101e457600080fd5b5060cb54610156906001600160a01b031681565b34801561020457600080fd5b5060ca54610156906001600160a01b031681565b34801561022457600080fd5b5061018e610d30565b34801561023957600080fd5b5061018e6102483660046129fe565b610d44565b34801561025957600080fd5b506033546001600160a01b0316610156565b34801561027757600080fd5b506101236102863660046129fe565b61133b565b34801561029757600080fd5b506102ab6102a63660046129fe565b611607565b60405161012d93929190612b70565b3480156102c657600080fd5b506102da6102d5366004612c37565b6117cb565b60405161012d9190612c79565b3480156102f357600080fd5b5061018e610302366004612ce3565b6118a3565b34801561031357600080fd5b5061018e610322366004612d2e565b6119fc565b34801561033357600080fd5b5061018e610342366004612a17565b611a57565b60c9546040516344766d2960e11b8152600481018b90526000918291829182916001600160a01b03909116906388ecda5290602401600060405180830381865afa158015610399573d6000803e3d6000fd5b505050506040513d6000823e601f3d908101601f191682016040526103c19190810190612dcb565b50935093505050806104095760405162461bcd60e51b815260206004820152600c60248201526b12d15657d393d517d493d3d560a21b60448201526064015b60405180910390fd5b60c9546040516344766d2960e11b8152600481018d905260009182916001600160a01b03909116906388ecda5290602401600060405180830381865afa158015610457573d6000803e3d6000fd5b505050506040513d6000823e601f3d908101601f1916820160405261047f9190810190612dcb565b5050925050915081801561049257508381145b6104d65760405162461bcd60e51b8152602060048201526015602482015274494e56414c49445f524543495049454e545f4b455960581b6044820152606401610400565b505060c9546040805163b83ac19f60e01b815290519394506000936001600160a01b03909216925063b83ac19f9160048083019260209291908290030181865afa158015610528573d6000803e3d6000fd5b505050506040513d601f19601f8201168201806040525081019061054c9190612e3d565b604051630f5d2cd560e11b8152336004820152602481018e9052600060448201526001600160a01b039190911690631eba59aa90606401602060405180830381865afa1580156105a0573d6000803e3d6000fd5b505050506040513d601f19601f820116820180604052508101906105c49190612e5a565b116105e15760405162461bcd60e51b815260040161040090612e73565b600088116106205760405162461bcd60e51b815260206004820152600c60248201526b5a45524f5f5452414e43484560a01b6044820152606401610400565b600087116106605760405162461bcd60e51b815260206004820152600d60248201526c16915493d7d253951154959053609a1b6044820152606401610400565b60008551116106a55760405162461bcd60e51b81526020600482015260116024820152705a45524f5f454e5449544c454d454e545360781b6044820152606401610400565b60003360003660ce60008154809291906106be90612eaf565b919050556040516020016106d59493929190612ec8565b60408051601f19818403018152918152815160209283012060008d815260cc90935291209091506107069082611acd565b1561071357610713612f12565b600081815260cd60205260409020600181018d9055600281018c9055600381018b9055600481018a905560058101899055600681018890556107596007820187876126ca565b5060005b875181101561095557600088828151811061077a5761077a612f28565b602002602001015160600151116107d35760405162461bcd60e51b815260206004820152601760248201527f5a45524f5f454e5449544c454d454e545f414d4f554e540000000000000000006044820152606401610400565b60c954885160009182916001600160a01b03909116906388ecda52908c908690811061080157610801612f28565b6020026020010151600001516040518263ffffffff1660e01b815260040161082b91815260200190565b600060405180830381865afa158015610848573d6000803e3d6000fd5b505050506040513d6000823e601f3d908101601f191682016040526108709190810190612dcb565b5050925050915081801561088357508581145b6108c45760405162461bcd60e51b8152602060048201526012602482015271494e56414c49445f534f555243455f4b455960701b6044820152606401610400565b836008018a84815181106108da576108da612f28565b6020908102919091018101518254600180820185556000948552938390208251600490920201908155918101519282019290925560408201516002820180546001600160a01b0319166001600160a01b039092169190911790556060909101516003909101555081905061094d81612eaf565b91505061075d565b50805460ff1916851517815560008b815260cc602052604090206109799083611ae5565b507f03dca27a21ecb4d4a5ee70ef0fd0576c3db918fba854e47581d7703424ee42e933838360070184600101548560030154866004015487600501548860060154896008016040516109d399989796959493929190612f9c565b60405180910390a1509b9a5050505050505050505050565b60006109f682611af1565b6003810154600090815260cc60205260409020909150610a169083611c50565b50610a25600882016000612715565b610a33600782016000612736565b600082815260cd60205260408120805460ff1916815560018101829055600281018290556003810182905560048101829055600581018290556006810182905590610a816007830182612736565b610a8f600883016000612715565b505060408051338152602081018490527fae95df047e49d0d6dbc67e4216d2780696a001e6188f711410440a2600f33204910160405180910390a15050565b6001600160a01b037f0000000000000000000000000000000000000000000000000000000000000000163003610b165760405162461bcd60e51b815260040161040090613035565b7f00000000000000000000000000000000000000000000000000000000000000006001600160a01b0316610b5f6000805160206132d9833981519152546001600160a01b031690565b6001600160a01b031614610b855760405162461bcd60e51b815260040161040090613081565b610b8e81611c5c565b60408051600080825260208201909252610baa91839190611c64565b50565b6001600160a01b037f0000000000000000000000000000000000000000000000000000000000000000163003610bf55760405162461bcd60e51b815260040161040090613035565b7f00000000000000000000000000000000000000000000000000000000000000006001600160a01b0316610c3e6000805160206132d9833981519152546001600160a01b031690565b6001600160a01b031614610c645760405162461bcd60e51b815260040161040090613081565b610c6d82611c5c565b610c7982826001611c64565b5050565b6000306001600160a01b037f00000000000000000000000000000000000000000000000000000000000000001614610d1d5760405162461bcd60e51b815260206004820152603860248201527f555550535570677261646561626c653a206d757374206e6f742062652063616c60448201527f6c6564207468726f7567682064656c656761746563616c6c00000000000000006064820152608401610400565b506000805160206132d983398151915290565b610d38611dd4565b610d426000611e2e565b565b600081815260cd602052604090206008810154610d9a5760405162461bcd60e51b81526020600482015260146024820152731253959053125117d0531313d5d05390d157d25160621b6044820152606401610400565b60c9546040805163b83ac19f60e01b815290516000926001600160a01b03169163b83ac19f9160048083019260209291908290030181865afa158015610de4573d6000803e3d6000fd5b505050506040513d601f19601f82011682018060405250810190610e089190612e3d565b6003830154604051630f5d2cd560e11b81523360048201526024810191909152600060448201526001600160a01b039190911690631eba59aa90606401602060405180830381865afa158015610e62573d6000803e3d6000fd5b505050506040513d601f19601f82011682018060405250810190610e869190612e5a565b11610ea35760405162461bcd60e51b815260040161040090612e73565b8060060154421015610ee35760405162461bcd60e51b8152602060048201526009602482015268544f4f5f4541524c5960b81b6044820152606401610400565b6000816004015411610f2d5760405162461bcd60e51b815260206004820152601360248201527210531313d5d05390d157d15612105554d51151606a1b6044820152606401610400565b610f3681611e80565b6040805161012081018252825460ff161515815260018301546020808301919091526002840154828401526003840154606083015260048401546080830152600584015460a0830152600684015460c08301526007840180548451818402810184019095528085526000946110769493879360e08601939091830182828015610fde57602002820191906000526020600020905b815481526020019060010190808311610fca575b5050505050815260200160088201805480602002602001604051908101604052809291908181526020016000905b828210156110695760008481526020908190206040805160808101825260048602909201805483526001808201548486015260028201546001600160a01b031692840192909252600301546060830152908352909201910161100c565b5050505081525050611f8e565b9050600081116110c85760405162461bcd60e51b815260206004820152601960248201527f554e4146464f524441424c455f444953545249425554494f4e000000000000006044820152606401610400565b808260040160008282546110dc91906130cd565b909155505060058201546110f090826130e0565b82600601600082825461110391906130ff565b909155505060408051600180825281830190925260009160208083019080368337505060408051600180825281830190925292935060009291506020808301908036833701905050905083600301548260008151811061116557611165612f28565b60200260200101818152505060005b60088501548110156112e7578385600801828154811061119657611196612f28565b9060005260206000209060040201600301546111b291906130e0565b826000815181106111c5576111c5612f28565b602090810291909101015260cb546008860180546001600160a01b039092169163e009d93c9190849081106111fc576111fc612f28565b906000526020600020906004020160020160009054906101000a90046001600160a01b031687600801848154811061123657611236612f28565b90600052602060002090600402016001015488600801858154811061125d5761125d612f28565b90600052602060002090600402016000015487876040518663ffffffff1660e01b8152600401611291959493929190613112565b6020604051808303816000875af11580156112b0573d6000803e3d6000fd5b505050506040513d601f19601f820116820180604052508101906112d49190612e5a565b50806112df81612eaf565b915050611174565b50600684015460408051338152602081018890528082018690526060810192909252517ff5f599c3864ed5aac71abc652673a0bacebd99e6dbb2481facca5b77b0e21ceb9181900360800190a15050505050565b600081815260cd6020526040812060088101546001111561135f5750600092915050565b6040805161012081018252825460ff161515815260018301546020808301919091526002840154828401526003840154606083015260048401546080830152600584015460a0830152600684015460c083015260078401805484518184028101840190955280855261149c94869360e086019391929083018282801561140457602002820191906000526020600020905b8154815260200190600101908083116113f0575b5050505050815260200160088201805480602002602001604051908101604052809291908181526020016000905b8282101561148f5760008481526020908190206040805160808101825260048602909201805483526001808201548486015260028201546001600160a01b0316928401929092526003015460608301529083529092019101611432565b5050505081525050612175565b6114a95750600092915050565b80600601544210156114be5750600092915050565b80600401546000036114d35750600092915050565b6040805161012081018252825460ff161515815260018301546020808301919091526002840154828401526003840154606083015260048401546080830152600584015460a0830152600684015460c083015260078401805484518184028101840190955280855261160094869360e0860193919290830182828015610fde5760200282019190600052602060002090815481526020019060010190808311610fca57505050505081526020016008820180548060200260200160405190810160405280929190818152602001600090828210156110695760008481526020908190206040805160808101825260048602909201805483526001808201548486015260028201546001600160a01b031692840192909252600301546060830152908352909201910161100c565b9392505050565b61165b60405180610120016040528060001515815260200160008152602001600080191681526020016000815260200160008152602001600081526020016000815260200160608152602001606081525090565b600082815260cd60209081526040808320815161012081018352815460ff1615158152600182015481850152600282015481840152600382015460608281019190915260048301546080830152600583015460a0830152600683015460c083015260078301805485518188028101880190965280865291968796909593949360e086019390929183018282801561171157602002820191906000526020600020905b8154815260200190600101908083116116fd575b5050505050815260200160088201805480602002602001604051908101604052809291908181526020016000905b8282101561179c5760008481526020908190206040805160808101825260048602909201805483526001808201548486015260028201546001600160a01b031692840192909252600301546060830152908352909201910161173f565b505050508152505090506117af81612175565b1515815260e08101516101008201519196909550909350915050565b606060008267ffffffffffffffff8111156117e8576117e8612799565b60405190808252806020026020018201604052801561182857816020015b6040805160208101909152606081528152602001906001900390816118065790505b50905060005b838110156118995761186960cc600087878581811061184f5761184f612f28565b905060200201358152602001908152602001600020612257565b82828151811061187b5761187b612f28565b6020908102919091010151528061189181612eaf565b91505061182e565b5090505b92915050565b600054610100900460ff16158080156118c35750600054600160ff909116105b806118dd5750303b1580156118dd575060005460ff166001145b6119405760405162461bcd60e51b815260206004820152602e60248201527f496e697469616c697a61626c653a20636f6e747261637420697320616c72656160448201526d191e481a5b9a5d1a585b1a5e995960921b6064820152608401610400565b6000805460ff191660011790558015611963576000805461ff0019166101001790555b61196b612262565b611973612291565b60c980546001600160a01b038087166001600160a01b03199283161790925560cb805486841690831617905560ca80549285169290911691909117905580156119f6576000805461ff0019169055604051600181527f7f26b83ff96e1f2b6a682f133852f6798a09c465da95921460cefb38474024989060200160405180910390a15b50505050565b6000611a0783611af1565b6004810183905560408051338152602081018690529081018490529091507ffa9cc48c6dbf6ba0bda2c78ce7f2d62f6843e98659fa36865e07f005a5e288aa9060600160405180910390a1505050565b611a5f611dd4565b6001600160a01b038116611ac45760405162461bcd60e51b815260206004820152602660248201527f4f776e61626c653a206e6577206f776e657220697320746865207a65726f206160448201526564647265737360d01b6064820152608401610400565b610baa81611e2e565b60008181526001830160205260408120541515611600565b600061160083836122b8565b600081815260cd602052604081206008810154611b475760405162461bcd60e51b81526020600482015260146024820152731253959053125117d0531313d5d05390d157d25160621b6044820152606401610400565b60c9546040805163b83ac19f60e01b815290516000926001600160a01b03169163b83ac19f9160048083019260209291908290030181865afa158015611b91573d6000803e3d6000fd5b505050506040513d601f19601f82011682018060405250810190611bb59190612e3d565b6001830154604051630f5d2cd560e11b81523360048201526024810191909152600060448201526001600160a01b039190911690631eba59aa90606401602060405180830381865afa158015611c0f573d6000803e3d6000fd5b505050506040513d601f19601f82011682018060405250810190611c339190612e5a565b1161189d5760405162461bcd60e51b815260040161040090612e73565b60006116008383612307565b610baa611dd4565b7f4910fdfa16fed3260ed0e7147f7cc6da11a60208b5b9406d12a635614ffd91435460ff1615611c9c57611c97836123fa565b505050565b826001600160a01b03166352d1902d6040518163ffffffff1660e01b8152600401602060405180830381865afa925050508015611cf6575060408051601f3d908101601f19168201909252611cf391810190612e5a565b60015b611d595760405162461bcd60e51b815260206004820152602e60248201527f45524331393637557067726164653a206e657720696d706c656d656e7461746960448201526d6f6e206973206e6f74205555505360901b6064820152608401610400565b6000805160206132d98339815191528114611dc85760405162461bcd60e51b815260206004820152602960248201527f45524331393637557067726164653a20756e737570706f727465642070726f786044820152681a58589b195555525160ba1b6064820152608401610400565b50611c97838383612496565b6033546001600160a01b03163314610d425760405162461bcd60e51b815260206004820181905260248201527f4f776e61626c653a2063616c6c6572206973206e6f7420746865206f776e65726044820152606401610400565b603380546001600160a01b038381166001600160a01b0319831681179093556040519116919082907f8be0079c531659141344cd1fd0a4f28419497f9722a3daafe3b4186f6b6457e090600090a35050565b805460ff1615611e8d5750565b60005b6007820154811015611f805760ca546007830180546001600160a01b0390921691634c80ebd6919084908110611ec857611ec8612f28565b90600052602060002001546040518263ffffffff1660e01b8152600401611ef191815260200190565b602060405180830381865afa158015611f0e573d6000803e3d6000fd5b505050506040513d601f19601f82011682018060405250810190611f32919061315d565b611f6e5760405162461bcd60e51b815260206004820152600d60248201526c135254d4d25391d7d155915395609a1b6044820152606401610400565b80611f7881612eaf565b915050611e90565b50805460ff19166001179055565b600080611fc88360a001518460c0015142611fa991906130cd565b611fb39190613178565b611fbe9060016130ff565b84608001516124bb565b905060005b8361010001515181101561216e5760408051600180825281830190925260009160208083019080368337019050509050846101000151828151811061201457612014612f28565b6020026020010151602001518160008151811061203357612033612f28565b602090810291909101015260cb5461010086015180516000926001600160a01b03169163f8853b1d91600291908790811061207057612070612f28565b602002602001015160000151896101000151878151811061209357612093612f28565b602002602001015160400151866040518563ffffffff1660e01b81526004016120bf949392919061319a565b600060405180830381865afa1580156120dc573d6000803e3d6000fd5b505050506040513d6000823e601f3d908101601f1916820160405261210491908101906131c7565b905061215784876101000151858151811061212157612121612f28565b6020026020010151606001518360008151811061214057612140612f28565b60200260200101516121529190613178565b6124bb565b93505050808061216690612eaf565b915050611fcd565b5092915050565b80516000901561218757506001919050565b60005b8260e001515181101561224a5760ca5460e084015180516001600160a01b0390921691634c80ebd69190849081106121c4576121c4612f28565b60200260200101516040518263ffffffff1660e01b81526004016121ea91815260200190565b602060405180830381865afa158015612207573d6000803e3d6000fd5b505050506040513d601f19601f8201168201806040525081019061222b919061315d565b6122385750600092915050565b8061224281612eaf565b91505061218a565b5050610100015151151590565b606061189d826124d1565b600054610100900460ff166122895760405162461bcd60e51b815260040161040090613204565b610d4261252d565b600054610100900460ff16610d425760405162461bcd60e51b815260040161040090613204565b60008181526001830160205260408120546122ff5750815460018181018455600084815260208082209093018490558454848252828601909352604090209190915561189d565b50600061189d565b600081815260018301602052604081205480156123f057600061232b6001836130cd565b855490915060009061233f906001906130cd565b90508181146123a457600086600001828154811061235f5761235f612f28565b906000526020600020015490508087600001848154811061238257612382612f28565b6000918252602080832090910192909255918252600188019052604090208390555b85548690806123b5576123b561324f565b60019003818190600052602060002001600090559055856001016000868152602001908152602001600020600090556001935050505061189d565b600091505061189d565b6001600160a01b0381163b6124675760405162461bcd60e51b815260206004820152602d60248201527f455243313936373a206e657720696d706c656d656e746174696f6e206973206e60448201526c1bdd08184818dbdb9d1c9858dd609a1b6064820152608401610400565b6000805160206132d983398151915280546001600160a01b0319166001600160a01b0392909216919091179055565b61249f8361255d565b6000825111806124ac5750805b15611c97576119f6838361259d565b6000818310156124cb5782611600565b50919050565b60608160000180548060200260200160405190810160405280929190818152602001828054801561252157602002820191906000526020600020905b81548152602001906001019080831161250d575b50505050509050919050565b600054610100900460ff166125545760405162461bcd60e51b815260040161040090613204565b610d4233611e2e565b612566816123fa565b6040516001600160a01b038216907fbc7cd75a20ee27fd9adebab32041f755214dbc6bffa90cc0225b39da2e5c2d3b90600090a250565b60606001600160a01b0383163b6126055760405162461bcd60e51b815260206004820152602660248201527f416464726573733a2064656c65676174652063616c6c20746f206e6f6e2d636f6044820152651b9d1c9858dd60d21b6064820152608401610400565b600080846001600160a01b0316846040516126209190613289565b600060405180830381855af49150503d806000811461265b576040519150601f19603f3d011682016040523d82523d6000602084013e612660565b606091505b509150915061268882826040518060600160405280602781526020016132f960279139612691565b95945050505050565b606083156126a0575081611600565b8251156126b05782518084602001fd5b8160405162461bcd60e51b815260040161040091906132a5565b828054828255906000526020600020908101928215612705579160200282015b828111156127055782358255916020019190600101906126ea565b50612711929150612750565b5090565b5080546000825560040290600052602060002090810190610baa9190612765565b5080546000825590600052602060002090810190610baa91905b5b808211156127115760008155600101612751565b5b80821115612711576000808255600182018190556002820180546001600160a01b03191690556003820155600401612766565b634e487b7160e01b600052604160045260246000fd5b6040516080810167ffffffffffffffff811182821017156127d2576127d2612799565b60405290565b604051601f8201601f1916810167ffffffffffffffff8111828210171561280157612801612799565b604052919050565b600067ffffffffffffffff82111561282357612823612799565b5060051b60200190565b6001600160a01b0381168114610baa57600080fd5b60008083601f84011261285457600080fd5b50813567ffffffffffffffff81111561286c57600080fd5b6020830191508360208260051b850101111561288757600080fd5b9250929050565b60008060008060008060008060006101008a8c0312156128ad57600080fd5b8935985060208a0135975060408a0135965060608a0135955060808a0135945060a08a0135935067ffffffffffffffff60c08b013511156128ed57600080fd5b8a601f60c08c01358c01011261290257600080fd5b61291a61291560c08c01358c0135612809565b6127d8565b60c08b01358b0180358083526020808401939260079290921b909101018d101561294357600080fd5b602060c08d01358d01015b60c08d01358d01803560071b016020018110156129bc576080818f03121561297557600080fd5b61297d6127af565b8135815260208201356020820152612998604083013561282d565b6040828101359082015260608083013590820152835260209092019160800161294e565b5093505067ffffffffffffffff60e08b013511156129d957600080fd5b6129e98b60e08c01358c01612842565b81935080925050509295985092959850929598565b600060208284031215612a1057600080fd5b5035919050565b600060208284031215612a2957600080fd5b81356116008161282d565b60008060408385031215612a4757600080fd5b8235612a528161282d565b915060208381013567ffffffffffffffff80821115612a7057600080fd5b818601915086601f830112612a8457600080fd5b813581811115612a9657612a96612799565b612aa8601f8201601f191685016127d8565b91508082528784828501011115612abe57600080fd5b80848401858401376000848284010152508093505050509250929050565b600081518084526020808501945080840160005b83811015612b0c57815187529582019590820190600101612af0565b509495945050505050565b600081518084526020808501945080840160005b83811015612b0c5781518051885283810151848901526040808201516001600160a01b0316908901526060908101519088015260809096019590820190600101612b2b565b60608152612b8360608201855115159052565b60208401516080820152604084015160a0820152606084015160c0820152608084015160e0820152600060a0850151610100818185015260c08701519150610120828186015260e088015192508061014086015250612be6610180850183612adc565b90870151848203605f1901610160860152909150612c048282612b17565b9150508281036020840152612c198186612adc565b90508281036040840152612c2d8185612b17565b9695505050505050565b60008060208385031215612c4a57600080fd5b823567ffffffffffffffff811115612c6157600080fd5b612c6d85828601612842565b90969095509350505050565b6000602080830181845280855180835260408601915060408160051b870101925083870160005b82811015612cd657878503603f19018452815151868652612cc387870182612adc565b9550509285019290850190600101612ca0565b5092979650505050505050565b600080600060608486031215612cf857600080fd5b8335612d038161282d565b92506020840135612d138161282d565b91506040840135612d238161282d565b809150509250925092565b60008060408385031215612d4157600080fd5b50508035926020909101359150565b80518015158114612d6057600080fd5b919050565b600082601f830112612d7657600080fd5b81516020612d8661291583612809565b82815260059290921b84018101918181019086841115612da557600080fd5b8286015b84811015612dc05780518352918301918301612da9565b509695505050505050565b600080600080600060a08688031215612de357600080fd5b612dec86612d50565b94506020860151935060408601519250612e0860608701612d50565b9150608086015167ffffffffffffffff811115612e2457600080fd5b612e3088828901612d65565b9150509295509295909350565b600060208284031215612e4f57600080fd5b81516116008161282d565b600060208284031215612e6c57600080fd5b5051919050565b6020808252600c908201526b12d15657d393d517d211531160a21b604082015260600190565b634e487b7160e01b600052601160045260246000fd5b600060018201612ec157612ec1612e99565b5060010190565b6001600160a01b038516815260606020820181905281018390528284608083013760006080848301015260006080601f19601f860116830101905082604083015295945050505050565b634e487b7160e01b600052600160045260246000fd5b634e487b7160e01b600052603260045260246000fd5b6000815480845260208085019450836000528060002060005b83811015612b0c57815487526001808301548489015260028301546001600160a01b031660408901526003830154606089015260809097019660049092019101612f57565b6001600160a01b038a16815260208082018a905261012060408301819052895490830181905260008a81528281209092610140850192845b81811015612ff057835485529382019360019384019301612fd4565b505050508860608401528760808401528660a08401528560c08401528460e08401528281036101008401526130258185612f3e565b9c9b505050505050505050505050565b6020808252602c908201527f46756e6374696f6e206d7573742062652063616c6c6564207468726f7567682060408201526b19195b1959d85d1958d85b1b60a21b606082015260800190565b6020808252602c908201527f46756e6374696f6e206d7573742062652063616c6c6564207468726f7567682060408201526b6163746976652070726f787960a01b606082015260800190565b8181038181111561189d5761189d612e99565b60008160001904831182151516156130fa576130fa612e99565b500290565b8082018082111561189d5761189d612e99565b60018060a01b038616815284602082015283604082015260a06060820152600061313f60a0830185612adc565b82810360808401526131518185612adc565b98975050505050505050565b60006020828403121561316f57600080fd5b61160082612d50565b60008261319557634e487b7160e01b600052601260045260246000fd5b500490565b84815283602082015260018060a01b0383166040820152608060608201526000612c2d6080830184612adc565b6000602082840312156131d957600080fd5b815167ffffffffffffffff8111156131f057600080fd5b6131fc84828501612d65565b949350505050565b6020808252602b908201527f496e697469616c697a61626c653a20636f6e7472616374206973206e6f74206960408201526a6e697469616c697a696e6760a81b606082015260800190565b634e487b7160e01b600052603160045260246000fd5b60005b83811015613280578181015183820152602001613268565b50506000910152565b6000825161329b818460208701613265565b9190910192915050565b60208152600082518060208401526132c4816040850160208701613265565b601f01601f1916919091016040019291505056fe360894a13ba1a3210667c828492db98dca3e2076cc3735a920a3ca505d382bbc416464726573733a206c6f772d6c6576656c2064656c65676174652063616c6c206661696c6564a264697066735822122023335abe94cc8487bbb0803b611ffbd570d10d23a45d84296b4c74ca9cdcf20f64736f6c63430008100033",
  "linkReferences": {},
  "deployedLinkReferences": {}
}