{
  "_format": "hh-sol-artifact-1",
  "contractName": "Allowance",
  "sourceName": "contracts/scribes/Allowance.sol",
  "abi": [
    {
      "inputs": [],
      "stateMutability": "nonpayable",
      "type": "constructor"
    },
    {
      "anonymous": false,
      "inputs": [
        {
          "indexed": false,
          "internalType": "address",
          "name": "previousAdmin",
          "type": "address"
        },
        {
          "indexed": false,
          "internalType": "address",
          "name": "newAdmin",
          "type": "address"
        }
      ],
      "name": "AdminChanged",
      "type": "event"
    },
    {
      "anonymous": false,
      "inputs": [
        {
          "indexed": true,
          "internalType": "address",
          "name": "beacon",
          "type": "address"
        }
      ],
      "name": "BeaconUpgraded",
      "type": "event"
    },
    {
      "anonymous": false,
      "inputs": [
        {
          "indexed": false,
          "internalType": "uint8",
          "name": "version",
          "type": "uint8"
        }
      ],
      "name": "Initialized",
      "type": "event"
    },
    {
      "anonymous": false,
      "inputs": [
        {
          "indexed": true,
          "internalType": "address",
          "name": "previousOwner",
          "type": "address"
        },
        {
          "indexed": true,
          "internalType": "address",
          "name": "newOwner",
          "type": "address"
        }
      ],
      "name": "OwnershipTransferred",
      "type": "event"
    },
    {
      "anonymous": false,
      "inputs": [
        {
          "indexed": true,
          "internalType": "address",
          "name": "implementation",
          "type": "address"
        }
      ],
      "name": "Upgraded",
      "type": "event"
    },
    {
      "anonymous": false,
      "inputs": [
        {
          "indexed": false,
          "internalType": "address",
          "name": "operator",
          "type": "address"
        },
        {
          "indexed": false,
          "internalType": "bytes32",
          "name": "allowanceId",
          "type": "bytes32"
        },
        {
          "indexed": false,
          "internalType": "uint256",
          "name": "redeemedTranches",
          "type": "uint256"
        },
        {
          "indexed": false,
          "internalType": "uint256",
          "name": "nextVestTime",
          "type": "uint256"
        }
      ],
      "name": "allowanceAwarded",
      "type": "event"
    },
    {
      "anonymous": false,
      "inputs": [
        {
          "indexed": false,
          "internalType": "address",
          "name": "operator",
          "type": "address"
        },
        {
          "indexed": false,
          "internalType": "bytes32",
          "name": "allowanceId",
          "type": "bytes32"
        },
        {
          "indexed": false,
          "internalType": "bytes32[]",
          "name": "events",
          "type": "bytes32[]"
        },
        {
          "indexed": false,
          "internalType": "uint256",
          "name": "rootKeyId",
          "type": "uint256"
        },
        {
          "indexed": false,
          "internalType": "uint256",
          "name": "recipientKeyId",
          "type": "uint256"
        },
        {
          "indexed": false,
          "internalType": "uint256",
          "name": "tranches",
          "type": "uint256"
        },
        {
          "indexed": false,
          "internalType": "uint256",
          "name": "interval",
          "type": "uint256"
        },
        {
          "indexed": false,
          "internalType": "uint256",
          "name": "vestTime",
          "type": "uint256"
        },
        {
          "components": [
            {
              "internalType": "uint256",
              "name": "sourceKey",
              "type": "uint256"
            },
            {
              "internalType": "bytes32",
              "name": "arn",
              "type": "bytes32"
            },
            {
              "internalType": "address",
              "name": "provider",
              "type": "address"
            },
            {
              "internalType": "uint256",
              "name": "amount",
              "type": "uint256"
            }
          ],
          "indexed": false,
          "internalType": "struct IAllowance.Entitlement[]",
          "name": "assets",
          "type": "tuple[]"
        }
      ],
      "name": "allowanceCreated",
      "type": "event"
    },
    {
      "anonymous": false,
      "inputs": [
        {
          "indexed": false,
          "internalType": "address",
          "name": "operator",
          "type": "address"
        },
        {
          "indexed": false,
          "internalType": "bytes32",
          "name": "allowanceId",
          "type": "bytes32"
        }
      ],
      "name": "allowanceRemoved",
      "type": "event"
    },
    {
      "anonymous": false,
      "inputs": [
        {
          "indexed": false,
          "internalType": "address",
          "name": "operator",
          "type": "address"
        },
        {
          "indexed": false,
          "internalType": "bytes32",
          "name": "allowanceId",
          "type": "bytes32"
        },
        {
          "indexed": false,
          "internalType": "uint256",
          "name": "trancheCount",
          "type": "uint256"
        }
      ],
      "name": "allowanceTrancheCountChanged",
      "type": "event"
    },
    {
      "inputs": [
        {
          "internalType": "uint256",
          "name": "rootKeyId",
          "type": "uint256"
        },
        {
          "internalType": "uint256",
          "name": "recipientKeyId",
          "type": "uint256"
        },
        {
          "internalType": "uint256",
          "name": "trancheCount",
          "type": "uint256"
        },
        {
          "internalType": "uint256",
          "name": "vestInterval",
          "type": "uint256"
        },
        {
          "internalType": "uint256",
          "name": "firstVestTime",
          "type": "uint256"
        },
        {
          "components": [
            {
              "internalType": "uint256",
              "name": "sourceKey",
              "type": "uint256"
            },
            {
              "internalType": "bytes32",
              "name": "arn",
              "type": "bytes32"
            },
            {
              "internalType": "address",
              "name": "provider",
              "type": "address"
            },
            {
              "internalType": "uint256",
              "name": "amount",
              "type": "uint256"
            }
          ],
          "internalType": "struct IAllowance.Entitlement[]",
          "name": "entitlements",
          "type": "tuple[]"
        },
        {
          "internalType": "bytes32[]",
          "name": "events",
          "type": "bytes32[]"
        }
      ],
      "name": "createAllowance",
      "outputs": [
        {
          "internalType": "bytes32",
          "name": "",
          "type": "bytes32"
        }
      ],
      "stateMutability": "nonpayable",
      "type": "function"
    },
    {
      "inputs": [
        {
          "internalType": "bytes32",
          "name": "allowanceId",
          "type": "bytes32"
        }
      ],
      "name": "getAllowance",
      "outputs": [
        {
          "components": [
            {
              "internalType": "bool",
              "name": "enabled",
              "type": "bool"
            },
            {
              "internalType": "uint256",
              "name": "rootKeyId",
              "type": "uint256"
            },
            {
              "internalType": "uint256",
              "name": "recipientKeyId",
              "type": "uint256"
            },
            {
              "internalType": "uint256",
              "name": "remainingTrancheCount",
              "type": "uint256"
            },
            {
              "internalType": "uint256",
              "name": "vestingInterval",
              "type": "uint256"
            },
            {
              "internalType": "uint256",
              "name": "nextVestTime",
              "type": "uint256"
            },
            {
              "internalType": "bytes32[]",
              "name": "requiredEvents",
              "type": "bytes32[]"
            },
            {
              "components": [
                {
                  "internalType": "uint256",
                  "name": "sourceKey",
                  "type": "uint256"
                },
                {
                  "internalType": "bytes32",
                  "name": "arn",
                  "type": "bytes32"
                },
                {
                  "internalType": "address",
                  "name": "provider",
                  "type": "address"
                },
                {
                  "internalType": "uint256",
                  "name": "amount",
                  "type": "uint256"
                }
              ],
              "internalType": "struct IAllowance.Entitlement[]",
              "name": "entitlements",
              "type": "tuple[]"
            }
          ],
          "internalType": "struct IAllowance.Allowance",
          "name": "",
          "type": "tuple"
        },
        {
          "internalType": "bytes32[]",
          "name": "",
          "type": "bytes32[]"
        },
        {
          "components": [
            {
              "internalType": "uint256",
              "name": "sourceKey",
              "type": "uint256"
            },
            {
              "internalType": "bytes32",
              "name": "arn",
              "type": "bytes32"
            },
            {
              "internalType": "address",
              "name": "provider",
              "type": "address"
            },
            {
              "internalType": "uint256",
              "name": "amount",
              "type": "uint256"
            }
          ],
          "internalType": "struct IAllowance.Entitlement[]",
          "name": "",
          "type": "tuple[]"
        }
      ],
      "stateMutability": "view",
      "type": "function"
    },
    {
      "inputs": [
        {
          "internalType": "uint256[]",
          "name": "keys",
          "type": "uint256[]"
        }
      ],
      "name": "getKeyAllowances",
      "outputs": [
        {
          "components": [
            {
              "internalType": "bytes32[]",
              "name": "allowanceIds",
              "type": "bytes32[]"
            }
          ],
          "internalType": "struct IAllowance.KeyAllowanceSet[]",
          "name": "",
          "type": "tuple[]"
        }
      ],
      "stateMutability": "view",
      "type": "function"
    },
    {
      "inputs": [
        {
          "internalType": "address",
          "name": "_Locksmith",
          "type": "address"
        },
        {
          "internalType": "address",
          "name": "_Ledger",
          "type": "address"
        },
        {
          "internalType": "address",
          "name": "_TrustEventLog",
          "type": "address"
        }
      ],
      "name": "initialize",
      "outputs": [],
      "stateMutability": "nonpayable",
      "type": "function"
    },
    {
      "inputs": [],
      "name": "ledger",
      "outputs": [
        {
          "internalType": "contract ILedger",
          "name": "",
          "type": "address"
        }
      ],
      "stateMutability": "view",
      "type": "function"
    },
    {
      "inputs": [],
      "name": "locksmith",
      "outputs": [
        {
          "internalType": "contract ILocksmith",
          "name": "",
          "type": "address"
        }
      ],
      "stateMutability": "view",
      "type": "function"
    },
    {
      "inputs": [],
      "name": "owner",
      "outputs": [
        {
          "internalType": "address",
          "name": "",
          "type": "address"
        }
      ],
      "stateMutability": "view",
      "type": "function"
    },
    {
      "inputs": [],
      "name": "proxiableUUID",
      "outputs": [
        {
          "internalType": "bytes32",
          "name": "",
          "type": "bytes32"
        }
      ],
      "stateMutability": "view",
      "type": "function"
    },
    {
      "inputs": [
        {
          "internalType": "bytes32",
          "name": "allowanceId",
          "type": "bytes32"
        }
      ],
      "name": "redeemAllowance",
      "outputs": [],
      "stateMutability": "nonpayable",
      "type": "function"
    },
    {
      "inputs": [
        {
          "internalType": "bytes32",
          "name": "allowanceId",
          "type": "bytes32"
        }
      ],
      "name": "removeAllowance",
      "outputs": [],
      "stateMutability": "nonpayable",
      "type": "function"
    },
    {
      "inputs": [],
      "name": "renounceOwnership",
      "outputs": [],
      "stateMutability": "nonpayable",
      "type": "function"
    },
    {
      "inputs": [
        {
          "internalType": "bytes32",
          "name": "allowanceId",
          "type": "bytes32"
        },
        {
          "internalType": "uint256",
          "name": "tranches",
          "type": "uint256"
        }
      ],
      "name": "setTrancheCount",
      "outputs": [],
      "stateMutability": "nonpayable",
      "type": "function"
    },
    {
      "inputs": [
        {
          "internalType": "address",
          "name": "newOwner",
          "type": "address"
        }
      ],
      "name": "transferOwnership",
      "outputs": [],
      "stateMutability": "nonpayable",
      "type": "function"
    },
    {
      "inputs": [],
      "name": "trustEventLog",
      "outputs": [
        {
          "internalType": "contract ITrustEventLog",
          "name": "",
          "type": "address"
        }
      ],
      "stateMutability": "view",
      "type": "function"
    },
    {
      "inputs": [
        {
          "internalType": "address",
          "name": "newImplementation",
          "type": "address"
        }
      ],
      "name": "upgradeTo",
      "outputs": [],
      "stateMutability": "nonpayable",
      "type": "function"
    },
    {
      "inputs": [
        {
          "internalType": "address",
          "name": "newImplementation",
          "type": "address"
        },
        {
          "internalType": "bytes",
          "name": "data",
          "type": "bytes"
        }
      ],
      "name": "upgradeToAndCall",
      "outputs": [],
      "stateMutability": "payable",
      "type": "function"
    }
  ],
  "bytecode": "0x60a0604052306080523480156200001557600080fd5b506200002062000026565b620000e8565b600054610100900460ff1615620000935760405162461bcd60e51b815260206004820152602760248201527f496e697469616c697a61626c653a20636f6e747261637420697320696e697469604482015266616c697a696e6760c81b606482015260840160405180910390fd5b60005460ff9081161015620000e6576000805460ff191660ff9081179091556040519081527f7f26b83ff96e1f2b6a682f133852f6798a09c465da95921460cefb38474024989060200160405180910390a15b565b608051612e4962000120600039600081816104020152818161044b015281816104ea0152818161052a01526105bd0152612e496000f3fe6080604052600436106100f35760003560e01c806388c1377c1161008a578063c0c53b8b11610059578063c0c53b8b1461029c578063c165e2fe146102bc578063e20937ce146102dc578063f2fde38b146102fc57600080fd5b806388c1377c146102025780638da5cb5b14610222578063a2e2449314610240578063b2df89d81461026f57600080fd5b806352d1902d116100c657806352d1902d1461018a57806356397c35146101ad5780635a2fefef146101cd578063715018a6146101ed57600080fd5b806313fb817e146100f857806316631c43146101355780633659cfe6146101575780634f1ef28614610177575b600080fd5b34801561010457600080fd5b5060c954610118906001600160a01b031681565b6040516001600160a01b0390911681526020015b60405180910390f35b34801561014157600080fd5b50610155610150366004612330565b61031c565b005b34801561016357600080fd5b5061015561017236600461235e565b6103f8565b6101556101853660046123eb565b6104e0565b34801561019657600080fd5b5061019f6105b0565b60405190815260200161012c565b3480156101b957600080fd5b5060cb54610118906001600160a01b031681565b3480156101d957600080fd5b5060ca54610118906001600160a01b031681565b3480156101f957600080fd5b50610155610663565b34801561020e57600080fd5b5061015561021d366004612330565b610677565b34801561022e57600080fd5b506033546001600160a01b0316610118565b34801561024c57600080fd5b5061026061025b366004612330565b610d2f565b60405161012c93929190612527565b34801561027b57600080fd5b5061028f61028a366004612625565b610fa1565b60405161012c9190612667565b3480156102a857600080fd5b506101556102b73660046126d1565b611079565b3480156102c857600080fd5b5061019f6102d7366004612740565b6111d2565b3480156102e857600080fd5b506101556102f7366004612888565b611851565b34801561030857600080fd5b5061015561031736600461235e565b6118ac565b600061032782611922565b6002810154600090815260cc602052604090209091506103479083611a81565b5061035660078201600061225d565b61036460068201600061227e565b600082815260cd60205260408120805460ff191681556001810182905560028101829055600381018290556004810182905560058101829055906103ab600683018261227e565b6103b960078301600061225d565b505060408051338152602081018490527fae95df047e49d0d6dbc67e4216d2780696a001e6188f711410440a2600f33204910160405180910390a15050565b6001600160a01b037f00000000000000000000000000000000000000000000000000000000000000001630036104495760405162461bcd60e51b8152600401610440906128aa565b60405180910390fd5b7f00000000000000000000000000000000000000000000000000000000000000006001600160a01b0316610492600080516020612dcd833981519152546001600160a01b031690565b6001600160a01b0316146104b85760405162461bcd60e51b8152600401610440906128f6565b6104c181611a94565b604080516000808252602082019092526104dd91839190611a9c565b50565b6001600160a01b037f00000000000000000000000000000000000000000000000000000000000000001630036105285760405162461bcd60e51b8152600401610440906128aa565b7f00000000000000000000000000000000000000000000000000000000000000006001600160a01b0316610571600080516020612dcd833981519152546001600160a01b031690565b6001600160a01b0316146105975760405162461bcd60e51b8152600401610440906128f6565b6105a082611a94565b6105ac82826001611a9c565b5050565b6000306001600160a01b037f000000000000000000000000000000000000000000000000000000000000000016146106505760405162461bcd60e51b815260206004820152603860248201527f555550535570677261646561626c653a206d757374206e6f742062652063616c60448201527f6c6564207468726f7567682064656c656761746563616c6c00000000000000006064820152608401610440565b50600080516020612dcd83398151915290565b61066b611c0c565b6106756000611c66565b565b600081815260cd6020526040902060078101546106cd5760405162461bcd60e51b81526020600482015260146024820152731253959053125117d0531313d5d05390d157d25160621b6044820152606401610440565b60c9546040805163b83ac19f60e01b815290516000926001600160a01b03169163b83ac19f9160048083019260209291908290030181865afa158015610717573d6000803e3d6000fd5b505050506040513d601f19601f8201168201806040525081019061073b9190612942565b6002830154604051630f5d2cd560e11b81523360048201526024810191909152600060448201526001600160a01b039190911690631eba59aa90606401602060405180830381865afa158015610795573d6000803e3d6000fd5b505050506040513d601f19601f820116820180604052508101906107b9919061295f565b116107d65760405162461bcd60e51b815260040161044090612978565b80600501544210156108165760405162461bcd60e51b8152602060048201526009602482015268544f4f5f4541524c5960b81b6044820152606401610440565b60008160030154116108605760405162461bcd60e51b815260206004820152601360248201527210531313d5d05390d157d15612105554d51151606a1b6044820152606401610440565b61086981611cb8565b60006108a2826004015483600501544261088391906129b4565b61088d91906129c7565b6108989060016129e9565b8360030154611dc6565b90508060005b6007840154811015610a6a57604080516001808252818301909252600091602080830190803683370190505090508460070182815481106108eb576108eb6129fc565b90600052602060002090600402016001015481600081518110610910576109106129fc565b602090810291909101015260cb546007860180546000926001600160a01b03169163f8853b1d91600291908790811061094b5761094b6129fc565b906000526020600020906004020160000154896007018781548110610972576109726129fc565b906000526020600020906004020160020160009054906101000a90046001600160a01b0316866040518563ffffffff1660e01b81526004016109b79493929190612a12565b600060405180830381865afa1580156109d4573d6000803e3d6000fd5b505050506040513d6000823e601f3d908101601f191682016040526109fc9190810190612aa5565b9050610a5384876007018581548110610a1757610a176129fc565b90600052602060002090600402016003015483600081518110610a3c57610a3c6129fc565b6020026020010151610a4e91906129c7565b611dc6565b935050508080610a6290612ae2565b9150506108a8565b5060008111610abb5760405162461bcd60e51b815260206004820152601960248201527f554e4146464f524441424c455f444953545249425554494f4e000000000000006044820152606401610440565b80836003016000828254610acf91906129b4565b90915550506004830154610ae39082612afb565b836005016000828254610af691906129e9565b9091555050604080516001808252818301909252600091602080830190803683375050604080516001808252818301909252929350600092915060208083019080368337019050509050846002015482600081518110610b5857610b586129fc565b60200260200101818152505060005b6007860154811015610cda5783866007018281548110610b8957610b896129fc565b906000526020600020906004020160030154610ba59190612afb565b82600081518110610bb857610bb86129fc565b602090810291909101015260cb546007870180546001600160a01b039092169163e009d93c919084908110610bef57610bef6129fc565b906000526020600020906004020160020160009054906101000a90046001600160a01b0316886007018481548110610c2957610c296129fc565b906000526020600020906004020160010154896007018581548110610c5057610c506129fc565b90600052602060002090600402016000015487876040518663ffffffff1660e01b8152600401610c84959493929190612b1a565b6020604051808303816000875af1158015610ca3573d6000803e3d6000fd5b505050506040513d601f19601f82011682018060405250810190610cc7919061295f565b5080610cd281612ae2565b915050610b67565b50600585015460408051338152602081018990528082018690526060810192909252517ff5f599c3864ed5aac71abc652673a0bacebd99e6dbb2481facca5b77b0e21ceb9181900360800190a1505050505050565b610d79604051806101000160405280600015158152602001600081526020016000815260200160008152602001600081526020016000815260200160608152602001606081525090565b600082815260cd6020908152604091829020825161010081018452815460ff1615158152600182015481840152600282015481850152600382015460608281019190915260048301546080830152600583015460a08301526006830180548651818702810187019097528087529195869585949293600786019392869260c08501928791830182828015610e2c57602002820191906000526020600020905b815481526020019060010190808311610e18575b5050505050815260200160078201805480602002602001604051908101604052809291908181526020016000905b82821015610eb75760008481526020908190206040805160808101825260048602909201805483526001808201548486015260028201546001600160a01b0316928401929092526003015460608301529083529092019101610e5a565b50505091525050825460408051602080840282018101909252828152929550849190830182828015610f0857602002820191906000526020600020905b815481526020019060010190808311610ef4575b5050505050915080805480602002602001604051908101604052809291908181526020016000905b82821015610f8d5760008481526020908190206040805160808101825260048602909201805483526001808201548486015260028201546001600160a01b0316928401929092526003015460608301529083529092019101610f30565b505050509050935093509350509193909250565b606060008267ffffffffffffffff811115610fbe57610fbe61237b565b604051908082528060200260200182016040528015610ffe57816020015b604080516020810190915260608152815260200190600190039081610fdc5790505b50905060005b8381101561106f5761103f60cc6000878785818110611025576110256129fc565b905060200201358152602001908152602001600020611ddc565b828281518110611051576110516129fc565b6020908102919091010151528061106781612ae2565b915050611004565b5090505b92915050565b600054610100900460ff16158080156110995750600054600160ff909116105b806110b35750303b1580156110b3575060005460ff166001145b6111165760405162461bcd60e51b815260206004820152602e60248201527f496e697469616c697a61626c653a20636f6e747261637420697320616c72656160448201526d191e481a5b9a5d1a585b1a5e995960921b6064820152608401610440565b6000805460ff191660011790558015611139576000805461ff0019166101001790555b611141611de7565b611149611e16565b60c980546001600160a01b038087166001600160a01b03199283161790925560cb805486841690831617905560ca80549285169290911691909117905580156111cc576000805461ff0019169055604051600181527f7f26b83ff96e1f2b6a682f133852f6798a09c465da95921460cefb38474024989060200160405180910390a15b50505050565b60c9546040516344766d2960e11b8152600481018a90526000918291829182916001600160a01b03909116906388ecda5290602401600060405180830381865afa158015611224573d6000803e3d6000fd5b505050506040513d6000823e601f3d908101601f1916820160405261124c9190810190612b7a565b509350935050508061128f5760405162461bcd60e51b815260206004820152600c60248201526b12d15657d393d517d493d3d560a21b6044820152606401610440565b60c9546040516344766d2960e11b8152600481018d905260009182916001600160a01b03909116906388ecda5290602401600060405180830381865afa1580156112dd573d6000803e3d6000fd5b505050506040513d6000823e601f3d908101601f191682016040526113059190810190612b7a565b5050925050915081801561131857508381145b61135c5760405162461bcd60e51b8152602060048201526015602482015274494e56414c49445f524543495049454e545f4b455960581b6044820152606401610440565b505060c9546040805163b83ac19f60e01b815290519394506000936001600160a01b03909216925063b83ac19f9160048083019260209291908290030181865afa1580156113ae573d6000803e3d6000fd5b505050506040513d601f19601f820116820180604052508101906113d29190612942565b604051630f5d2cd560e11b8152336004820152602481018d9052600060448201526001600160a01b039190911690631eba59aa90606401602060405180830381865afa158015611426573d6000803e3d6000fd5b505050506040513d601f19601f8201168201806040525081019061144a919061295f565b116114675760405162461bcd60e51b815260040161044090612978565b600088116114a65760405162461bcd60e51b815260206004820152600c60248201526b5a45524f5f5452414e43484560a01b6044820152606401610440565b600087116114e65760405162461bcd60e51b815260206004820152600d60248201526c16915493d7d253951154959053609a1b6044820152606401610440565b600085511161152b5760405162461bcd60e51b81526020600482015260116024820152705a45524f5f454e5449544c454d454e545360781b6044820152606401610440565b60003360003660ce600081548092919061154490612ae2565b9190505560405160200161155b9493929190612bec565b60408051601f19818403018152918152815160209283012060008d815260cc909352912090915061158c9082611e3d565b1561159957611599612c36565b600081815260cd60205260409020600181018c9055600281018b9055600381018a905560048101899055600581018890556115d860068201878761229c565b5060005b87518110156117d45760008882815181106115f9576115f96129fc565b602002602001015160600151116116525760405162461bcd60e51b815260206004820152601760248201527f5a45524f5f454e5449544c454d454e545f414d4f554e540000000000000000006044820152606401610440565b60c954885160009182916001600160a01b03909116906388ecda52908c9086908110611680576116806129fc565b6020026020010151600001516040518263ffffffff1660e01b81526004016116aa91815260200190565b600060405180830381865afa1580156116c7573d6000803e3d6000fd5b505050506040513d6000823e601f3d908101601f191682016040526116ef9190810190612b7a565b5050925050915081801561170257508581145b6117435760405162461bcd60e51b8152602060048201526012602482015271494e56414c49445f534f555243455f4b455960701b6044820152606401610440565b836007018a8481518110611759576117596129fc565b6020908102919091018101518254600180820185556000948552938390208251600490920201908155918101519282019290925560408201516002820180546001600160a01b0319166001600160a01b03909216919091179055606090910151600390910155508190506117cc81612ae2565b9150506115dc565b50805460ff1916851517815560008b815260cc602052604090206117f89083611e55565b50507f03dca27a21ecb4d4a5ee70ef0fd0576c3db918fba854e47581d7703424ee42e9338287878f8f8f8f8f8f60405161183b9a99989796959493929190612c4c565b60405180910390a19a9950505050505050505050565b600061185c83611922565b6003810183905560408051338152602081018690529081018490529091507ffa9cc48c6dbf6ba0bda2c78ce7f2d62f6843e98659fa36865e07f005a5e288aa9060600160405180910390a1505050565b6118b4611c0c565b6001600160a01b0381166119195760405162461bcd60e51b815260206004820152602660248201527f4f776e61626c653a206e6577206f776e657220697320746865207a65726f206160448201526564647265737360d01b6064820152608401610440565b6104dd81611c66565b600081815260cd6020526040812060078101546119785760405162461bcd60e51b81526020600482015260146024820152731253959053125117d0531313d5d05390d157d25160621b6044820152606401610440565b60c9546040805163b83ac19f60e01b815290516000926001600160a01b03169163b83ac19f9160048083019260209291908290030181865afa1580156119c2573d6000803e3d6000fd5b505050506040513d601f19601f820116820180604052508101906119e69190612942565b6001830154604051630f5d2cd560e11b81523360048201526024810191909152600060448201526001600160a01b039190911690631eba59aa90606401602060405180830381865afa158015611a40573d6000803e3d6000fd5b505050506040513d601f19601f82011682018060405250810190611a64919061295f565b116110735760405162461bcd60e51b815260040161044090612978565b6000611a8d8383611e61565b9392505050565b6104dd611c0c565b7f4910fdfa16fed3260ed0e7147f7cc6da11a60208b5b9406d12a635614ffd91435460ff1615611ad457611acf83611f54565b505050565b826001600160a01b03166352d1902d6040518163ffffffff1660e01b8152600401602060405180830381865afa925050508015611b2e575060408051601f3d908101601f19168201909252611b2b9181019061295f565b60015b611b915760405162461bcd60e51b815260206004820152602e60248201527f45524331393637557067726164653a206e657720696d706c656d656e7461746960448201526d6f6e206973206e6f74205555505360901b6064820152608401610440565b600080516020612dcd8339815191528114611c005760405162461bcd60e51b815260206004820152602960248201527f45524331393637557067726164653a20756e737570706f727465642070726f786044820152681a58589b195555525160ba1b6064820152608401610440565b50611acf838383611ff0565b6033546001600160a01b031633146106755760405162461bcd60e51b815260206004820181905260248201527f4f776e61626c653a2063616c6c6572206973206e6f7420746865206f776e65726044820152606401610440565b603380546001600160a01b038381166001600160a01b0319831681179093556040519116919082907f8be0079c531659141344cd1fd0a4f28419497f9722a3daafe3b4186f6b6457e090600090a35050565b805460ff1615611cc55750565b60005b6006820154811015611db85760ca546006830180546001600160a01b0390921691634c80ebd6919084908110611d0057611d006129fc565b90600052602060002001546040518263ffffffff1660e01b8152600401611d2991815260200190565b602060405180830381865afa158015611d46573d6000803e3d6000fd5b505050506040513d601f19601f82011682018060405250810190611d6a9190612cdd565b611da65760405162461bcd60e51b815260206004820152600d60248201526c135254d4d25391d7d155915395609a1b6044820152606401610440565b80611db081612ae2565b915050611cc8565b50805460ff19166001179055565b600081831015611dd65782611a8d565b50919050565b606061107382612015565b600054610100900460ff16611e0e5760405162461bcd60e51b815260040161044090612cf8565b610675612071565b600054610100900460ff166106755760405162461bcd60e51b815260040161044090612cf8565b60008181526001830160205260408120541515611a8d565b6000611a8d83836120a1565b60008181526001830160205260408120548015611f4a576000611e856001836129b4565b8554909150600090611e99906001906129b4565b9050818114611efe576000866000018281548110611eb957611eb96129fc565b9060005260206000200154905080876000018481548110611edc57611edc6129fc565b6000918252602080832090910192909255918252600188019052604090208390555b8554869080611f0f57611f0f612d43565b600190038181906000526020600020016000905590558560010160008681526020019081526020016000206000905560019350505050611073565b6000915050611073565b6001600160a01b0381163b611fc15760405162461bcd60e51b815260206004820152602d60248201527f455243313936373a206e657720696d706c656d656e746174696f6e206973206e60448201526c1bdd08184818dbdb9d1c9858dd609a1b6064820152608401610440565b600080516020612dcd83398151915280546001600160a01b0319166001600160a01b0392909216919091179055565b611ff9836120f0565b6000825111806120065750805b15611acf576111cc8383612130565b60608160000180548060200260200160405190810160405280929190818152602001828054801561206557602002820191906000526020600020905b815481526020019060010190808311612051575b50505050509050919050565b600054610100900460ff166120985760405162461bcd60e51b815260040161044090612cf8565b61067533611c66565b60008181526001830160205260408120546120e857508154600181810184556000848152602080822090930184905584548482528286019093526040902091909155611073565b506000611073565b6120f981611f54565b6040516001600160a01b038216907fbc7cd75a20ee27fd9adebab32041f755214dbc6bffa90cc0225b39da2e5c2d3b90600090a250565b60606001600160a01b0383163b6121985760405162461bcd60e51b815260206004820152602660248201527f416464726573733a2064656c65676174652063616c6c20746f206e6f6e2d636f6044820152651b9d1c9858dd60d21b6064820152608401610440565b600080846001600160a01b0316846040516121b39190612d7d565b600060405180830381855af49150503d80600081146121ee576040519150601f19603f3d011682016040523d82523d6000602084013e6121f3565b606091505b509150915061221b8282604051806060016040528060278152602001612ded60279139612224565b95945050505050565b60608315612233575081611a8d565b8251156122435782518084602001fd5b8160405162461bcd60e51b81526004016104409190612d99565b50805460008255600402906000526020600020908101906104dd91906122e7565b50805460008255906000526020600020908101906104dd919061231b565b8280548282559060005260206000209081019282156122d7579160200282015b828111156122d75782358255916020019190600101906122bc565b506122e392915061231b565b5090565b5b808211156122e3576000808255600182018190556002820180546001600160a01b031916905560038201556004016122e8565b5b808211156122e3576000815560010161231c565b60006020828403121561234257600080fd5b5035919050565b6001600160a01b03811681146104dd57600080fd5b60006020828403121561237057600080fd5b8135611a8d81612349565b634e487b7160e01b600052604160045260246000fd5b6040516080810167ffffffffffffffff811182821017156123b4576123b461237b565b60405290565b604051601f8201601f1916810167ffffffffffffffff811182821017156123e3576123e361237b565b604052919050565b600080604083850312156123fe57600080fd5b823561240981612349565b915060208381013567ffffffffffffffff8082111561242757600080fd5b818601915086601f83011261243b57600080fd5b81358181111561244d5761244d61237b565b61245f601f8201601f191685016123ba565b9150808252878482850101111561247557600080fd5b80848401858401376000848284010152508093505050509250929050565b600081518084526020808501945080840160005b838110156124c3578151875295820195908201906001016124a7565b509495945050505050565b600081518084526020808501945080840160005b838110156124c35781518051885283810151848901526040808201516001600160a01b03169089015260609081015190880152608090960195908201906001016124e2565b6060815283511515606082015260208401516080820152604084015160a0820152606084015160c0820152608084015160e0820152600060a0850151610100818185015260c087015191508061012085015250612588610160840182612493565b905060e0860151605f19848303016101408501526125a682826124ce565b91505082810360208401526125bb8186612493565b905082810360408401526125cf81856124ce565b9695505050505050565b60008083601f8401126125eb57600080fd5b50813567ffffffffffffffff81111561260357600080fd5b6020830191508360208260051b850101111561261e57600080fd5b9250929050565b6000806020838503121561263857600080fd5b823567ffffffffffffffff81111561264f57600080fd5b61265b858286016125d9565b90969095509350505050565b6000602080830181845280855180835260408601915060408160051b870101925083870160005b828110156126c457878503603f190184528151518686526126b187870182612493565b955050928501929085019060010161268e565b5092979650505050505050565b6000806000606084860312156126e657600080fd5b83356126f181612349565b9250602084013561270181612349565b9150604084013561271181612349565b809150509250925092565b600067ffffffffffffffff8211156127365761273661237b565b5060051b60200190565b60008060008060008060008060e0898b03121561275c57600080fd5b883597506020890135965060408901359550606089013594506080890135935067ffffffffffffffff60a08a0135111561279557600080fd5b60a089013589018a601f8201126127ab57600080fd5b6127bd6127b8823561271c565b6123ba565b81358082526020808301929160071b8401018d8111156127dc57600080fd5b6020840193505b80841015612847576080848f0312156127fb57600080fd5b612803612391565b843581526020850135602082015261281e6040860135612349565b6040850135604082015260608501356060820152808452506020830192506080840193506127e3565b509450505067ffffffffffffffff60c08a0135111561286557600080fd5b6128758a60c08b01358b016125d9565b989b979a50959850939692959194935050565b6000806040838503121561289b57600080fd5b50508035926020909101359150565b6020808252602c908201527f46756e6374696f6e206d7573742062652063616c6c6564207468726f7567682060408201526b19195b1959d85d1958d85b1b60a21b606082015260800190565b6020808252602c908201527f46756e6374696f6e206d7573742062652063616c6c6564207468726f7567682060408201526b6163746976652070726f787960a01b606082015260800190565b60006020828403121561295457600080fd5b8151611a8d81612349565b60006020828403121561297157600080fd5b5051919050565b6020808252600c908201526b12d15657d393d517d211531160a21b604082015260600190565b634e487b7160e01b600052601160045260246000fd5b818103818111156110735761107361299e565b6000826129e457634e487b7160e01b600052601260045260246000fd5b500490565b808201808211156110735761107361299e565b634e487b7160e01b600052603260045260246000fd5b84815283602082015260018060a01b03831660408201526080606082015260006125cf6080830184612493565b600082601f830112612a5057600080fd5b81516020612a606127b88361271c565b82815260059290921b84018101918181019086841115612a7f57600080fd5b8286015b84811015612a9a5780518352918301918301612a83565b509695505050505050565b600060208284031215612ab757600080fd5b815167ffffffffffffffff811115612ace57600080fd5b612ada84828501612a3f565b949350505050565b600060018201612af457612af461299e565b5060010190565b6000816000190483118215151615612b1557612b1561299e565b500290565b60018060a01b038616815284602082015283604082015260a060608201526000612b4760a0830185612493565b8281036080840152612b598185612493565b98975050505050505050565b80518015158114612b7557600080fd5b919050565b600080600080600060a08688031215612b9257600080fd5b612b9b86612b65565b94506020860151935060408601519250612bb760608701612b65565b9150608086015167ffffffffffffffff811115612bd357600080fd5b612bdf88828901612a3f565b9150509295509295909350565b6001600160a01b038516815260606020820181905281018390528284608083013760006080848301015260006080601f19601f860116830101905082604083015295945050505050565b634e487b7160e01b600052600160045260246000fd5b6001600160a01b038b168152602081018a905261012060408201819052810188905260006101406001600160fb1b038a1115612c8757600080fd5b8960051b808c8386013780840190508960608501528860808501528760a08501528660c08501528560e08501528184820301610100850152612ccb828201866124ce565b9e9d5050505050505050505050505050565b600060208284031215612cef57600080fd5b611a8d82612b65565b6020808252602b908201527f496e697469616c697a61626c653a20636f6e7472616374206973206e6f74206960408201526a6e697469616c697a696e6760a81b606082015260800190565b634e487b7160e01b600052603160045260246000fd5b60005b83811015612d74578181015183820152602001612d5c565b50506000910152565b60008251612d8f818460208701612d59565b9190910192915050565b6020815260008251806020840152612db8816040850160208701612d59565b601f01601f1916919091016040019291505056fe360894a13ba1a3210667c828492db98dca3e2076cc3735a920a3ca505d382bbc416464726573733a206c6f772d6c6576656c2064656c65676174652063616c6c206661696c6564a2646970667358221220ec4d2d7153a027d1dc9eaff65a09e3000a803480dd1771f9ae4be4918c976ce464736f6c63430008100033",
  "linkReferences": {},
  "deployedLinkReferences": {}
}