{
  "_format": "hh-sol-artifact-1",
  "contractName": "Locksmith",
  "sourceName": "contracts/Locksmith.sol",
  "abi": [
    {
      "inputs": [],
      "stateMutability": "nonpayable",
      "type": "constructor"
    },
    {
      "anonymous": false,
      "inputs": [
        {
          "indexed": false,
          "internalType": "address",
          "name": "previousAdmin",
          "type": "address"
        },
        {
          "indexed": false,
          "internalType": "address",
          "name": "newAdmin",
          "type": "address"
        }
      ],
      "name": "AdminChanged",
      "type": "event"
    },
    {
      "anonymous": false,
      "inputs": [
        {
          "indexed": true,
          "internalType": "address",
          "name": "beacon",
          "type": "address"
        }
      ],
      "name": "BeaconUpgraded",
      "type": "event"
    },
    {
      "anonymous": false,
      "inputs": [
        {
          "indexed": false,
          "internalType": "uint8",
          "name": "version",
          "type": "uint8"
        }
      ],
      "name": "Initialized",
      "type": "event"
    },
    {
      "anonymous": false,
      "inputs": [
        {
          "indexed": true,
          "internalType": "address",
          "name": "previousOwner",
          "type": "address"
        },
        {
          "indexed": true,
          "internalType": "address",
          "name": "newOwner",
          "type": "address"
        }
      ],
      "name": "OwnershipTransferred",
      "type": "event"
    },
    {
      "anonymous": false,
      "inputs": [
        {
          "indexed": true,
          "internalType": "address",
          "name": "implementation",
          "type": "address"
        }
      ],
      "name": "Upgraded",
      "type": "event"
    },
    {
      "anonymous": false,
      "inputs": [
        {
          "indexed": false,
          "internalType": "address",
          "name": "rootHolder",
          "type": "address"
        },
        {
          "indexed": false,
          "internalType": "uint256",
          "name": "trustId",
          "type": "uint256"
        },
        {
          "indexed": false,
          "internalType": "uint256",
          "name": "keyId",
          "type": "uint256"
        },
        {
          "indexed": false,
          "internalType": "address",
          "name": "target",
          "type": "address"
        },
        {
          "indexed": false,
          "internalType": "uint256",
          "name": "amount",
          "type": "uint256"
        }
      ],
      "name": "keyBurned",
      "type": "event"
    },
    {
      "anonymous": false,
      "inputs": [
        {
          "indexed": false,
          "internalType": "address",
          "name": "creator",
          "type": "address"
        },
        {
          "indexed": false,
          "internalType": "uint256",
          "name": "trustId",
          "type": "uint256"
        },
        {
          "indexed": false,
          "internalType": "uint256",
          "name": "keyId",
          "type": "uint256"
        },
        {
          "indexed": false,
          "internalType": "bytes32",
          "name": "keyName",
          "type": "bytes32"
        },
        {
          "indexed": false,
          "internalType": "address",
          "name": "receiver",
          "type": "address"
        }
      ],
      "name": "keyMinted",
      "type": "event"
    },
    {
      "anonymous": false,
      "inputs": [
        {
          "indexed": false,
          "internalType": "address",
          "name": "creator",
          "type": "address"
        },
        {
          "indexed": false,
          "internalType": "uint256",
          "name": "trustId",
          "type": "uint256"
        },
        {
          "indexed": false,
          "internalType": "bytes32",
          "name": "trustName",
          "type": "bytes32"
        },
        {
          "indexed": false,
          "internalType": "address",
          "name": "recipient",
          "type": "address"
        }
      ],
      "name": "trustCreated",
      "type": "event"
    },
    {
      "inputs": [
        {
          "internalType": "uint256",
          "name": "rootKeyId",
          "type": "uint256"
        },
        {
          "internalType": "uint256",
          "name": "keyId",
          "type": "uint256"
        },
        {
          "internalType": "address",
          "name": "holder",
          "type": "address"
        },
        {
          "internalType": "uint256",
          "name": "amount",
          "type": "uint256"
        }
      ],
      "name": "burnKey",
      "outputs": [],
      "stateMutability": "nonpayable",
      "type": "function"
    },
    {
      "inputs": [
        {
          "internalType": "uint256",
          "name": "rootKeyId",
          "type": "uint256"
        },
        {
          "internalType": "uint256",
          "name": "keyId",
          "type": "uint256"
        },
        {
          "internalType": "address",
          "name": "receiver",
          "type": "address"
        },
        {
          "internalType": "bool",
          "name": "bind",
          "type": "bool"
        }
      ],
      "name": "copyKey",
      "outputs": [],
      "stateMutability": "nonpayable",
      "type": "function"
    },
    {
      "inputs": [
        {
          "internalType": "uint256",
          "name": "rootKeyId",
          "type": "uint256"
        },
        {
          "internalType": "bytes32",
          "name": "keyName",
          "type": "bytes32"
        },
        {
          "internalType": "address",
          "name": "receiver",
          "type": "address"
        },
        {
          "internalType": "bool",
          "name": "bind",
          "type": "bool"
        }
      ],
      "name": "createKey",
      "outputs": [
        {
          "internalType": "uint256",
          "name": "",
          "type": "uint256"
        }
      ],
      "stateMutability": "nonpayable",
      "type": "function"
    },
    {
      "inputs": [
        {
          "internalType": "bytes32",
          "name": "trustName",
          "type": "bytes32"
        },
        {
          "internalType": "address",
          "name": "recipient",
          "type": "address"
        }
      ],
      "name": "createTrustAndRootKey",
      "outputs": [
        {
          "internalType": "uint256",
          "name": "",
          "type": "uint256"
        },
        {
          "internalType": "uint256",
          "name": "",
          "type": "uint256"
        }
      ],
      "stateMutability": "nonpayable",
      "type": "function"
    },
    {
      "inputs": [],
      "name": "getKeyVault",
      "outputs": [
        {
          "internalType": "address",
          "name": "",
          "type": "address"
        }
      ],
      "stateMutability": "view",
      "type": "function"
    },
    {
      "inputs": [
        {
          "internalType": "uint256",
          "name": "trustId",
          "type": "uint256"
        }
      ],
      "name": "getKeys",
      "outputs": [
        {
          "internalType": "uint256[]",
          "name": "",
          "type": "uint256[]"
        }
      ],
      "stateMutability": "view",
      "type": "function"
    },
    {
      "inputs": [
        {
          "internalType": "address",
          "name": "_KeyVault",
          "type": "address"
        }
      ],
      "name": "initialize",
      "outputs": [],
      "stateMutability": "nonpayable",
      "type": "function"
    },
    {
      "inputs": [
        {
          "internalType": "uint256",
          "name": "keyId",
          "type": "uint256"
        }
      ],
      "name": "inspectKey",
      "outputs": [
        {
          "internalType": "bool",
          "name": "",
          "type": "bool"
        },
        {
          "internalType": "bytes32",
          "name": "",
          "type": "bytes32"
        },
        {
          "internalType": "uint256",
          "name": "",
          "type": "uint256"
        },
        {
          "internalType": "bool",
          "name": "",
          "type": "bool"
        },
        {
          "internalType": "uint256[]",
          "name": "",
          "type": "uint256[]"
        }
      ],
      "stateMutability": "view",
      "type": "function"
    },
    {
      "inputs": [
        {
          "internalType": "uint256",
          "name": "keyId",
          "type": "uint256"
        }
      ],
      "name": "isRootKey",
      "outputs": [
        {
          "internalType": "bool",
          "name": "",
          "type": "bool"
        }
      ],
      "stateMutability": "view",
      "type": "function"
    },
    {
      "inputs": [],
      "name": "keyVault",
      "outputs": [
        {
          "internalType": "address",
          "name": "",
          "type": "address"
        }
      ],
      "stateMutability": "view",
      "type": "function"
    },
    {
      "inputs": [],
      "name": "owner",
      "outputs": [
        {
          "internalType": "address",
          "name": "",
          "type": "address"
        }
      ],
      "stateMutability": "view",
      "type": "function"
    },
    {
      "inputs": [],
      "name": "proxiableUUID",
      "outputs": [
        {
          "internalType": "bytes32",
          "name": "",
          "type": "bytes32"
        }
      ],
      "stateMutability": "view",
      "type": "function"
    },
    {
      "inputs": [],
      "name": "renounceOwnership",
      "outputs": [],
      "stateMutability": "nonpayable",
      "type": "function"
    },
    {
      "inputs": [
        {
          "internalType": "uint256",
          "name": "rootKeyId",
          "type": "uint256"
        },
        {
          "internalType": "address",
          "name": "keyHolder",
          "type": "address"
        },
        {
          "internalType": "uint256",
          "name": "keyId",
          "type": "uint256"
        },
        {
          "internalType": "uint256",
          "name": "amount",
          "type": "uint256"
        }
      ],
      "name": "soulbindKey",
      "outputs": [],
      "stateMutability": "nonpayable",
      "type": "function"
    },
    {
      "inputs": [
        {
          "internalType": "address",
          "name": "newOwner",
          "type": "address"
        }
      ],
      "name": "transferOwnership",
      "outputs": [],
      "stateMutability": "nonpayable",
      "type": "function"
    },
    {
      "inputs": [
        {
          "internalType": "uint256",
          "name": "",
          "type": "uint256"
        }
      ],
      "name": "trustRegistry",
      "outputs": [
        {
          "internalType": "uint256",
          "name": "id",
          "type": "uint256"
        },
        {
          "internalType": "bytes32",
          "name": "name",
          "type": "bytes32"
        },
        {
          "internalType": "uint256",
          "name": "rootKeyId",
          "type": "uint256"
        },
        {
          "internalType": "uint256",
          "name": "trustKeyCount",
          "type": "uint256"
        }
      ],
      "stateMutability": "view",
      "type": "function"
    },
    {
      "inputs": [
        {
          "internalType": "address",
          "name": "newImplementation",
          "type": "address"
        }
      ],
      "name": "upgradeTo",
      "outputs": [],
      "stateMutability": "nonpayable",
      "type": "function"
    },
    {
      "inputs": [
        {
          "internalType": "address",
          "name": "newImplementation",
          "type": "address"
        },
        {
          "internalType": "bytes",
          "name": "data",
          "type": "bytes"
        }
      ],
      "name": "upgradeToAndCall",
      "outputs": [],
      "stateMutability": "payable",
      "type": "function"
    },
    {
      "inputs": [
        {
          "internalType": "uint256",
          "name": "trustId",
          "type": "uint256"
        },
        {
          "internalType": "uint256[]",
          "name": "keys",
          "type": "uint256[]"
        },
        {
          "internalType": "bool",
          "name": "allowRoot",
          "type": "bool"
        }
      ],
      "name": "validateKeyRing",
      "outputs": [
        {
          "internalType": "bool",
          "name": "",
          "type": "bool"
        }
      ],
      "stateMutability": "view",
      "type": "function"
    }
  ],
  "bytecode": "0x60a06040523073ffffffffffffffffffffffffffffffffffffffff1660809073ffffffffffffffffffffffffffffffffffffffff168152503480156200004457600080fd5b50620000616797bac04a4bba224360c01b620000af60201b60201c565b6200007d675df77ead17c7c9ba60c01b620000af60201b60201c565b6200009967fd20df4466814d1260c01b620000af60201b60201c565b620000a9620000b260201b60201c565b6200025d565b50565b600060019054906101000a900460ff161562000105576040517f08c379a0000000000000000000000000000000000000000000000000000000008152600401620000fc9062000200565b60405180910390fd5b60ff801660008054906101000a900460ff1660ff161015620001775760ff6000806101000a81548160ff021916908360ff1602179055507f7f26b83ff96e1f2b6a682f133852f6798a09c465da95921460cefb384740249860ff6040516200016e919062000240565b60405180910390a15b565b600082825260208201905092915050565b7f496e697469616c697a61626c653a20636f6e747261637420697320696e69746960008201527f616c697a696e6700000000000000000000000000000000000000000000000000602082015250565b6000620001e860278362000179565b9150620001f5826200018a565b604082019050919050565b600060208201905081810360008301526200021b81620001d9565b9050919050565b600060ff82169050919050565b6200023a8162000222565b82525050565b60006020820190506200025760008301846200022f565b92915050565b60805161407f620002956000396000818161087f0152818161090d01528181610bef01528181610c7d0152610d2d015261407f6000f3fe6080604052600436106101445760003560e01c8063886b43f5116100c0578063b83ac19f11610074578063cf1f7f2511610059578063cf1f7f251461042d578063d2bd0fad1461046b578063f2fde38b146104a857610144565b8063b83ac19f146103d9578063c4d66de81461040457610144565b80638d357fa3116100a55780638d357fa3146103465780638da5cb5b14610383578063a1ca6687146103ae57610144565b8063886b43f5146102c557806388ecda521461030557610144565b80634f1ef2861161011757806353a81ee1116100fc57806353a81ee1146102485780636d7012fa14610285578063715018a6146102ae57610144565b80634f1ef2861461020157806352d1902d1461021d57610144565b80631151166814610149578063218fa8e6146101725780633659cfe61461019b5780634be8b11c146101c4575b600080fd5b34801561015557600080fd5b50610170600480360381019061016b9190612aa0565b6104d1565b005b34801561017e57600080fd5b5061019960048036038101906101949190612b3f565b61073f565b005b3480156101a757600080fd5b506101c260048036038101906101bd9190612ba6565b61087d565b005b3480156101d057600080fd5b506101eb60048036038101906101e69190612c09565b610a05565b6040516101f89190612c7f565b60405180910390f35b61021b60048036038101906102169190612de0565b610bed565b005b34801561022957600080fd5b50610232610d29565b60405161023f9190612e4b565b60405180910390f35b34801561025457600080fd5b5061026f600480360381019061026a9190612ec6565b610de2565b60405161027c9190612f49565b60405180910390f35b34801561029157600080fd5b506102ac60048036038101906102a79190612f64565b6111fa565b005b3480156102ba57600080fd5b506102c36113bd565b005b3480156102d157600080fd5b506102ec60048036038101906102e79190612fcb565b6113d1565b6040516102fc9493929190612ff8565b60405180910390f35b34801561031157600080fd5b5061032c60048036038101906103279190612fcb565b611401565b60405161033d9594939291906130fb565b60405180910390f35b34801561035257600080fd5b5061036d60048036038101906103689190612fcb565b611530565b60405161037a9190613155565b60405180910390f35b34801561038f57600080fd5b5061039861162c565b6040516103a59190613186565b60405180910390f35b3480156103ba57600080fd5b506103c3611656565b6040516103d09190613186565b60405180910390f35b3480156103e557600080fd5b506103ee61167c565b6040516103fb9190613186565b60405180910390f35b34801561041057600080fd5b5061042b60048036038101906104269190612ba6565b6116e2565b005b34801561043957600080fd5b50610454600480360381019061044f91906131a1565b61190a565b6040516104629291906131e1565b60405180910390f35b34801561047757600080fd5b50610492600480360381019061048d9190612fcb565b611bd4565b60405161049f9190612f49565b60405180910390f35b3480156104b457600080fd5b506104cf60048036038101906104ca9190612ba6565b611c98565b005b6104e56709cbdca25e9ef29c60c01b611d1b565b6104f967fc8608d5efb95cbb60c01b611d1b565b61050d675c5432ef3a1aeb8060c01b611d1b565b600060ca600061051c87611d1e565b8152602001908152602001600020905061054067293549aeb309d96f60c01b611d1b565b610554671f9032edbfcc701b60c01b611d1b565b61056867471dd199a495373860c01b611d1b565b600081600601600086815260200190815260200160002054116105c0576040517f08c379a00000000000000000000000000000000000000000000000000000000081526004016105b790613267565b60405180910390fd5b6105d4670a7678a3f63cfffe60c01b611d1b565b6105e8678b8d05090e701cfc60c01b611d1b565b6105fc6767eaf4759d3ed58160c01b611d1b565b60c960009054906101000a900473ffffffffffffffffffffffffffffffffffffffff1673ffffffffffffffffffffffffffffffffffffffff1663f5298aca8486856040518463ffffffff1660e01b815260040161065b93929190613287565b600060405180830381600087803b15801561067557600080fd5b505af1158015610689573d6000803e3d6000fd5b505050506106a1670e0d93cb7c850a5d60c01b611d1b565b8181600701600086815260200190815260200160002060008282546106c691906132ed565b925050819055506106e167c890ed57e8ebeabf60c01b611d1b565b6106f567bc701d2a84fcd7f560c01b611d1b565b7f707b83adf4af3b12b746160986598d56e5b5d926ad0a6ce43d49c35bb77b5856338260000154868686604051610730959493929190613321565b60405180910390a15050505050565b61075367ec15250f1419b43060c01b611d1b565b61076767f15d1327f219d16a60c01b611d1b565b61077b678c7e92bfabcc6c5960c01b611d1b565b600060ca600061078a87611d1e565b815260200190815260200160002090506107ae67e2625a2529657f8f60c01b611d1b565b6107c267533377852fbbfb6360c01b611d1b565b6107d66772c077585ae6464960c01b611d1b565b6000816006016000868152602001908152602001600020541161082e576040517f08c379a000000000000000000000000000000000000000000000000000000000815260040161082590613267565b60405180910390fd5b61084267b987cdbdc314b3d660c01b611d1b565b61085667516386f559a5fde260c01b611d1b565b61086a67f321cbb684ba27ca60c01b611d1b565b61087681858585611f80565b5050505050565b7f000000000000000000000000000000000000000000000000000000000000000073ffffffffffffffffffffffffffffffffffffffff163073ffffffffffffffffffffffffffffffffffffffff160361090b576040517f08c379a0000000000000000000000000000000000000000000000000000000008152600401610902906133e6565b60405180910390fd5b7f000000000000000000000000000000000000000000000000000000000000000073ffffffffffffffffffffffffffffffffffffffff1661094a6122d4565b73ffffffffffffffffffffffffffffffffffffffff16146109a0576040517f08c379a000000000000000000000000000000000000000000000000000000000815260040161099790613478565b60405180910390fd5b6109a98161232b565b610a0281600067ffffffffffffffff8111156109c8576109c7612cb5565b5b6040519080825280601f01601f1916602001820160405280156109fa5781602001600182028036833780820191505090505b506000612372565b50565b6000610a1b67da25be49104d4a0460c01b611d1b565b610a2f6749a7b216c2ecb86c60c01b611d1b565b610a436755b5cd51302ef35c60c01b611d1b565b600060cd6000815480929190610a5890613498565b919050559050610a72678b631be49485ded860c01b611d1b565b610a8667b669c43d62fe491960c01b611d1b565b600060ca6000610a9589611d1e565b81526020019081526020016000209050610ab9673130f822983385c760c01b611d1b565b806003016000815480929190610ace90613498565b9190505550610ae7670419aa54af0b8da960c01b611d1b565b610afb6763f5f86a3986d3bb60c01b611d1b565b80600401829080600181540180825580915050600190039060005260206000200160009091909190915055610b3a67bb9a5cac3389edc860c01b611d1b565b8581600501600084815260200190815260200160002081905550610b686719b1eefe95b95bd760c01b611d1b565b806000015460cc600084815260200190815260200160002081905550610b98679959a5d78debd79160c01b611d1b565b610bac674448abf71ae7dc7d60c01b611d1b565b610bb881838787611f80565b610bcc6724650bd25462423560c01b611d1b565b610be0678f9d9897f3bc960e60c01b611d1b565b8192505050949350505050565b7f000000000000000000000000000000000000000000000000000000000000000073ffffffffffffffffffffffffffffffffffffffff163073ffffffffffffffffffffffffffffffffffffffff1603610c7b576040517f08c379a0000000000000000000000000000000000000000000000000000000008152600401610c72906133e6565b60405180910390fd5b7f000000000000000000000000000000000000000000000000000000000000000073ffffffffffffffffffffffffffffffffffffffff16610cba6122d4565b73ffffffffffffffffffffffffffffffffffffffff1614610d10576040517f08c379a0000000000000000000000000000000000000000000000000000000008152600401610d0790613478565b60405180910390fd5b610d198261232b565b610d2582826001612372565b5050565b60007f000000000000000000000000000000000000000000000000000000000000000073ffffffffffffffffffffffffffffffffffffffff163073ffffffffffffffffffffffffffffffffffffffff1614610db9576040517f08c379a0000000000000000000000000000000000000000000000000000000008152600401610db090613552565b60405180910390fd5b7f360894a13ba1a3210667c828492db98dca3e2076cc3735a920a3ca505d382bbc60001b905090565b6000610df8676047e233e7fad2e260c01b611d1b565b610e0c67a2aeb51dd8c8725560c01b611d1b565b610e20675c0e4f0a797a828160c01b611d1b565b610e346706d7356c9136720260c01b611d1b565b60cb548510610e78576040517f08c379a0000000000000000000000000000000000000000000000000000000008152600401610e6f906135be565b60405180910390fd5b610e8c67c2cd2adcd9d0d37e60c01b611d1b565b610ea0674ed38b220b5405d460c01b611d1b565b610eb467a90497b33547a8f460c01b611d1b565b600060ca60008781526020019081526020016000209050610edf67b3e447ff5cbdb7c860c01b611d1b565b610ef36769bf793ff5bd216a60c01b611d1b565b6000816006016000836002015481526020019081526020016000205411610f1d57610f1c6135de565b5b610f31677150428374aa203d60c01b611d1b565b610f4567872775af78db059460c01b611d1b565b60005b858590508110156111c457610f6767620f314b6bc8f96e60c01b611d1b565b610f7b67d21f3a47ba66f27360c01b611d1b565b610f8f67f13a8d3beecf76ab60c01b611d1b565b60cd54868683818110610fa557610fa461360d565b5b9050602002013510610fec576040517f08c379a0000000000000000000000000000000000000000000000000000000008152600401610fe390613688565b60405180910390fd5b611000672002e6b8528af85560c01b611d1b565b611014677c1b417bab2939ef60c01b611d1b565b6110286798159fb746263a8c60c01b611d1b565b61103c6717bd7c6d03eafee660c01b611d1b565b8380156110595750611058678a67f164d803232a60c01b6124e0565b5b8061109d575081600201548686838181106110775761107661360d565b5b905060200201351415801561109c575061109b67429ffb838b8c797b60c01b6124e0565b5b5b6110dc576040517f08c379a00000000000000000000000000000000000000000000000000000000081526004016110d3906136f4565b60405180910390fd5b6110f0678699074ee18c315560c01b611d1b565b61110467df4bf14fbdd74bd360c01b611d1b565b61111867d4e3b891bcc9a49c60c01b611d1b565b61112c6793b639299c89c8ef60c01b611d1b565b60008260060160008888858181106111475761114661360d565b5b905060200201358152602001908152602001600020541161119d576040517f08c379a000000000000000000000000000000000000000000000000000000000815260040161119490613760565b60405180910390fd5b6111b1674cac40be89ada4d960c01b611d1b565b80806111bc90613498565b915050610f48565b506111d967848cb6d998c2d87960c01b611d1b565b6111ed679303f01dc8a878a760c01b611d1b565b6001915050949350505050565b61120e6772187c1b04d697f960c01b611d1b565b61122267b0448ff2353454d560c01b611d1b565b61123667ad1f33339810681760c01b611d1b565b600060ca600061124587611d1e565b81526020019081526020016000209050611269677a792f85f2b34def60c01b611d1b565b61127d67425820cedaad166760c01b611d1b565b6112916721331dd7daaed17760c01b611d1b565b600081600601600085815260200190815260200160002054116112e9576040517f08c379a00000000000000000000000000000000000000000000000000000000081526004016112e090613267565b60405180910390fd5b6112fd6784e08b00704cd3e860c01b611d1b565b61131167810954900f4785c060c01b611d1b565b611325674afd0023a259efc660c01b611d1b565b60c960009054906101000a900473ffffffffffffffffffffffffffffffffffffffff1673ffffffffffffffffffffffffffffffffffffffff16633faf3d6b8585856040518463ffffffff1660e01b815260040161138493929190613287565b600060405180830381600087803b15801561139e57600080fd5b505af11580156113b2573d6000803e3d6000fd5b505050505050505050565b6113c56124eb565b6113cf6000612569565b565b60ca6020528060005260406000206000915090508060000154908060010154908060020154908060030154905084565b600080600080606061141d673f2e106d03ecb4bf60c01b611d1b565b61143167c60e9ce3d72ad51360c01b611d1b565b611445678e6d427a0a86497d60c01b611d1b565b60cd54861060ca600060cc60008a815260200190815260200160002054815260200190815260200160002060050160008881526020019081526020016000205460cc6000898152602001908152602001600020546114a289611bd4565b60ca600060cc60008d81526020019081526020016000205481526020019081526020016000206004018080548060200260200160405190810160405280929190818152602001828054801561151657602002820191906000526020600020905b815481526020019060010190808311611502575b505050505090509450945094509450945091939590929450565b6060611546671dc54db79e0350ba60c01b611d1b565b61155a6760db5cab40c9ba4360c01b611d1b565b61156e6792b85fa1a1d6313660c01b611d1b565b600060ca60008481526020019081526020016000206004018054905003611598576115976135de565b5b6115ac67496201ad12b2103760c01b611d1b565b6115c067ba96f3f6045852e460c01b611d1b565b60ca600083815260200190815260200160002060040180548060200260200160405190810160405280929190818152602001828054801561162057602002820191906000526020600020905b81548152602001906001019080831161160c575b50505050509050919050565b6000603360009054906101000a900473ffffffffffffffffffffffffffffffffffffffff16905090565b60c960009054906101000a900473ffffffffffffffffffffffffffffffffffffffff1681565b600061169267618523c616942dd160c01b611d1b565b6116a667a127497bc75dc9ac60c01b611d1b565b6116ba678178819c90c5134160c01b611d1b565b60c960009054906101000a900473ffffffffffffffffffffffffffffffffffffffff16905090565b6116f667732f47eb88d9307060c01b611d1b565b60008060019054906101000a900460ff161590508080156117275750600160008054906101000a900460ff1660ff16105b8061175457506117363061262f565b1580156117535750600160008054906101000a900460ff1660ff16145b5b611793576040517f08c379a000000000000000000000000000000000000000000000000000000000815260040161178a906137f2565b60405180910390fd5b60016000806101000a81548160ff021916908360ff16021790555080156117d0576001600060016101000a81548160ff0219169083151502179055505b6117e4676a5f851c77f98d4560c01b611d1b565b6117f8679bdbbb27fafe5b6760c01b611d1b565b61180c676f75b1b2d724973d60c01b611d1b565b611820676022f365343ca57b60c01b611d1b565b611828612652565b61183c67c1d2512e4a26a7d660c01b611d1b565b611850675b5329f0cc0ce76960c01b611d1b565b6118586126ab565b61186c67ca80e85f58f3cb7160c01b611d1b565b8160c960006101000a81548173ffffffffffffffffffffffffffffffffffffffff021916908373ffffffffffffffffffffffffffffffffffffffff16021790555080156119065760008060016101000a81548160ff0219169083151502179055507f7f26b83ff96e1f2b6a682f133852f6798a09c465da95921460cefb384740249860016040516118fd9190613864565b60405180910390a15b5050565b60008061192167c0f7d332d84c1ed560c01b611d1b565b6119356781dc5a7b0177775060c01b611d1b565b6119496720e0873a939ff14860c01b611d1b565b600060ca600060cb5481526020019081526020016000209050611976678fb252a7d1ecb57060c01b611d1b565b60cb600081548092919061198990613498565b9190505581600001819055506119a9673e63a5e4954a09b160c01b611d1b565b60cd60008154809291906119bc90613498565b9190505581600201819055506119dc6756fdc31c661af36960c01b611d1b565b8060030160008154809291906119f190613498565b9190505550611a0a675517ec94abe5c0f860c01b611d1b565b848160010181905550611a2767aa281b1b8035240860c01b611d1b565b611a3b67e75509f191844c3760c01b611d1b565b8060040181600201549080600181540180825580915050600190039060005260206000200160009091909190915055611a7e67727e450ebed5a3e360c01b611d1b565b7f726f6f74000000000000000000000000000000000000000000000000000000008160050160008360020154815260200190815260200160002081905550611ad06774902e60fb0b328f60c01b611d1b565b806000015460cc60008360020154815260200190815260200160002081905550611b0467f25279fc33023b6260c01b611d1b565b611b1867b12ea3f4901d75b860c01b611d1b565b611b29818260020154866000611f80565b611b3d677f8b85b7b9f4518c60c01b611d1b565b611b5167e8f348758e16731360c01b611d1b565b7fd91e2f64746507b28147d9ed981a07fe6bf4e5935e328300ac680bb58aa1bbff338260000154836001015487604051611b8e949392919061387f565b60405180910390a1611baa67e7f9e80243b6fb6b60c01b611d1b565b611bbe6708288cf7b213b1d460c01b611d1b565b8060000154816002015492509250509250929050565b6000611bea67b9dc8ee58d4af75f60c01b611d1b565b611bfe67848af4bc0a50650460c01b611d1b565b611c12670f30aae7270e142a60c01b611d1b565b60cd5482108015611c4b575060ca600060cc60008581526020019081526020016000205481526020019081526020016000206002015482145b8015611c915750600060ca600060cc6000868152602001908152602001600020548152602001908152602001600020600601600084815260200190815260200160002054115b9050919050565b611ca06124eb565b600073ffffffffffffffffffffffffffffffffffffffff168173ffffffffffffffffffffffffffffffffffffffff1603611d0f576040517f08c379a0000000000000000000000000000000000000000000000000000000008152600401611d0690613936565b60405180910390fd5b611d1881612569565b50565b50565b6000611d346714ba269d5138281d60c01b611d1b565b611d48674f7623c76eda5b2a60c01b611d1b565b611d5c67e1da7ffd4eafaf8060c01b611d1b565b611d70670d3e51b54623449260c01b611d1b565b600060c960009054906101000a900473ffffffffffffffffffffffffffffffffffffffff1673ffffffffffffffffffffffffffffffffffffffff16631eba59aa338560006040518463ffffffff1660e01b8152600401611dd293929190613956565b602060405180830381865afa158015611def573d6000803e3d6000fd5b505050506040513d601f19601f82011682018060405250810190611e1391906139a2565b11611e53576040517f08c379a0000000000000000000000000000000000000000000000000000000008152600401611e4a90613a1b565b60405180910390fd5b611e67675714de846c52156460c01b611d1b565b611e7b6747d13a0e116f4c1960c01b611d1b565b611e8f67956ea718753c620760c01b611d1b565b600060cc6000848152602001908152602001600020549050611ebb677d061d64841a826760c01b611d1b565b611ecf67b0a93302b1dedb1260c01b611d1b565b611ee36785637048472761f260c01b611d1b565b60ca6000828152602001908152602001600020600201548314611f3b576040517f08c379a0000000000000000000000000000000000000000000000000000000008152600401611f3290613a87565b60405180910390fd5b611f4f670a9ac75e1b40f21d60c01b611d1b565b611f6367bf2ce29c89b9678c60c01b611d1b565b611f776716f3129916c9802860c01b611d1b565b80915050919050565b611f9467e7b6f40829bc4b2b60c01b611d1b565b611fa867864fdf546c1efffd60c01b611d1b565b8360060160008481526020019081526020016000206000815480929190611fce90613498565b9190505550611fe767a234f4a7d343e74e60c01b611d1b565b611ffb676ffb6639d0e4770460c01b611d1b565b801561217f5761201567439d4857a050b8db60c01b611d1b565b612029676ded36634cd9cd2f60c01b611d1b565b61203d673c82e5bdb9e4bb4b60c01b611d1b565b60c960009054906101000a900473ffffffffffffffffffffffffffffffffffffffff1673ffffffffffffffffffffffffffffffffffffffff16633faf3d6b8385600160c960009054906101000a900473ffffffffffffffffffffffffffffffffffffffff1673ffffffffffffffffffffffffffffffffffffffff16631eba59aa888a60016040518463ffffffff1660e01b81526004016120df93929190613956565b602060405180830381865afa1580156120fc573d6000803e3d6000fd5b505050506040513d601f19601f8201168201806040525081019061212091906139a2565b61212a91906132ed565b6040518463ffffffff1660e01b815260040161214893929190613287565b600060405180830381600087803b15801561216257600080fd5b505af1158015612176573d6000803e3d6000fd5b50505050612194565b6121936703c93fdccece054b60c01b611d1b565b5b6121a8679991f0b2bbd3dfd260c01b611d1b565b6121bc670e29d1db14b61e5a60c01b611d1b565b60c960009054906101000a900473ffffffffffffffffffffffffffffffffffffffff1673ffffffffffffffffffffffffffffffffffffffff1663731133e9838560016040518463ffffffff1660e01b815260040161221c93929190613b0f565b600060405180830381600087803b15801561223657600080fd5b505af115801561224a573d6000803e3d6000fd5b50505050612262678a32a5abb0e7c0ec60c01b611d1b565b61227667895cda76791a3cd660c01b611d1b565b7fe50957d1d876dc7be82af5865a9afa4320e3a26b1e1375bf412962745de3562a3385600001548587600501600088815260200190815260200160002054866040516122c6959493929190613b59565b60405180910390a150505050565b60006123027f360894a13ba1a3210667c828492db98dca3e2076cc3735a920a3ca505d382bbc60001b6126fc565b60000160009054906101000a900473ffffffffffffffffffffffffffffffffffffffff16905090565b61233f67428b877afc905fbe60c01b611d1b565b6123476124eb565b61235b674c1e9d3e15ff2eda60c01b611d1b565b61236f671de2cc1af628a1a460c01b611d1b565b50565b61239e7f4910fdfa16fed3260ed0e7147f7cc6da11a60208b5b9406d12a635614ffd914360001b612706565b60000160009054906101000a900460ff16156123c2576123bd83612710565b6124db565b8273ffffffffffffffffffffffffffffffffffffffff166352d1902d6040518163ffffffff1660e01b8152600401602060405180830381865afa92505050801561242a57506040513d601f19601f820116820180604052508101906124279190613bc1565b60015b612469576040517f08c379a000000000000000000000000000000000000000000000000000000000815260040161246090613c60565b60405180910390fd5b7f360894a13ba1a3210667c828492db98dca3e2076cc3735a920a3ca505d382bbc60001b81146124ce576040517f08c379a00000000000000000000000000000000000000000000000000000000081526004016124c590613cf2565b60405180910390fd5b506124da8383836127c9565b5b505050565b600060019050919050565b6124f36127f5565b73ffffffffffffffffffffffffffffffffffffffff1661251161162c565b73ffffffffffffffffffffffffffffffffffffffff1614612567576040517f08c379a000000000000000000000000000000000000000000000000000000000815260040161255e90613d5e565b60405180910390fd5b565b6000603360009054906101000a900473ffffffffffffffffffffffffffffffffffffffff16905081603360006101000a81548173ffffffffffffffffffffffffffffffffffffffff021916908373ffffffffffffffffffffffffffffffffffffffff1602179055508173ffffffffffffffffffffffffffffffffffffffff168173ffffffffffffffffffffffffffffffffffffffff167f8be0079c531659141344cd1fd0a4f28419497f9722a3daafe3b4186f6b6457e060405160405180910390a35050565b6000808273ffffffffffffffffffffffffffffffffffffffff163b119050919050565b600060019054906101000a900460ff166126a1576040517f08c379a000000000000000000000000000000000000000000000000000000000815260040161269890613df0565b60405180910390fd5b6126a96127fd565b565b600060019054906101000a900460ff166126fa576040517f08c379a00000000000000000000000000000000000000000000000000000000081526004016126f190613df0565b60405180910390fd5b565b6000819050919050565b6000819050919050565b6127198161262f565b612758576040517f08c379a000000000000000000000000000000000000000000000000000000000815260040161274f90613e82565b60405180910390fd5b806127857f360894a13ba1a3210667c828492db98dca3e2076cc3735a920a3ca505d382bbc60001b6126fc565b60000160006101000a81548173ffffffffffffffffffffffffffffffffffffffff021916908373ffffffffffffffffffffffffffffffffffffffff16021790555050565b6127d28361285e565b6000825111806127df5750805b156127f0576127ee83836128ad565b505b505050565b600033905090565b600060019054906101000a900460ff1661284c576040517f08c379a000000000000000000000000000000000000000000000000000000000815260040161284390613df0565b60405180910390fd5b61285c6128576127f5565b612569565b565b61286781612710565b8073ffffffffffffffffffffffffffffffffffffffff167fbc7cd75a20ee27fd9adebab32041f755214dbc6bffa90cc0225b39da2e5c2d3b60405160405180910390a250565b60606128b88361262f565b6128f7576040517f08c379a00000000000000000000000000000000000000000000000000000000081526004016128ee90613f14565b60405180910390fd5b6000808473ffffffffffffffffffffffffffffffffffffffff168460405161291f9190613fa5565b600060405180830381855af49150503d806000811461295a576040519150601f19603f3d011682016040523d82523d6000602084013e61295f565b606091505b5091509150612987828260405180606001604052806027815260200161402360279139612991565b9250505092915050565b606083156129a1578290506129f1565b6000835111156129b45782518084602001fd5b816040517f08c379a00000000000000000000000000000000000000000000000000000000081526004016129e89190614000565b60405180910390fd5b9392505050565b6000604051905090565b600080fd5b600080fd5b6000819050919050565b612a1f81612a0c565b8114612a2a57600080fd5b50565b600081359050612a3c81612a16565b92915050565b600073ffffffffffffffffffffffffffffffffffffffff82169050919050565b6000612a6d82612a42565b9050919050565b612a7d81612a62565b8114612a8857600080fd5b50565b600081359050612a9a81612a74565b92915050565b60008060008060808587031215612aba57612ab9612a02565b5b6000612ac887828801612a2d565b9450506020612ad987828801612a2d565b9350506040612aea87828801612a8b565b9250506060612afb87828801612a2d565b91505092959194509250565b60008115159050919050565b612b1c81612b07565b8114612b2757600080fd5b50565b600081359050612b3981612b13565b92915050565b60008060008060808587031215612b5957612b58612a02565b5b6000612b6787828801612a2d565b9450506020612b7887828801612a2d565b9350506040612b8987828801612a8b565b9250506060612b9a87828801612b2a565b91505092959194509250565b600060208284031215612bbc57612bbb612a02565b5b6000612bca84828501612a8b565b91505092915050565b6000819050919050565b612be681612bd3565b8114612bf157600080fd5b50565b600081359050612c0381612bdd565b92915050565b60008060008060808587031215612c2357612c22612a02565b5b6000612c3187828801612a2d565b9450506020612c4287828801612bf4565b9350506040612c5387828801612a8b565b9250506060612c6487828801612b2a565b91505092959194509250565b612c7981612a0c565b82525050565b6000602082019050612c946000830184612c70565b92915050565b600080fd5b600080fd5b6000601f19601f8301169050919050565b7f4e487b7100000000000000000000000000000000000000000000000000000000600052604160045260246000fd5b612ced82612ca4565b810181811067ffffffffffffffff82111715612d0c57612d0b612cb5565b5b80604052505050565b6000612d1f6129f8565b9050612d2b8282612ce4565b919050565b600067ffffffffffffffff821115612d4b57612d4a612cb5565b5b612d5482612ca4565b9050602081019050919050565b82818337600083830152505050565b6000612d83612d7e84612d30565b612d15565b905082815260208101848484011115612d9f57612d9e612c9f565b5b612daa848285612d61565b509392505050565b600082601f830112612dc757612dc6612c9a565b5b8135612dd7848260208601612d70565b91505092915050565b60008060408385031215612df757612df6612a02565b5b6000612e0585828601612a8b565b925050602083013567ffffffffffffffff811115612e2657612e25612a07565b5b612e3285828601612db2565b9150509250929050565b612e4581612bd3565b82525050565b6000602082019050612e606000830184612e3c565b92915050565b600080fd5b600080fd5b60008083601f840112612e8657612e85612c9a565b5b8235905067ffffffffffffffff811115612ea357612ea2612e66565b5b602083019150836020820283011115612ebf57612ebe612e6b565b5b9250929050565b60008060008060608587031215612ee057612edf612a02565b5b6000612eee87828801612a2d565b945050602085013567ffffffffffffffff811115612f0f57612f0e612a07565b5b612f1b87828801612e70565b93509350506040612f2e87828801612b2a565b91505092959194509250565b612f4381612b07565b82525050565b6000602082019050612f5e6000830184612f3a565b92915050565b60008060008060808587031215612f7e57612f7d612a02565b5b6000612f8c87828801612a2d565b9450506020612f9d87828801612a8b565b9350506040612fae87828801612a2d565b9250506060612fbf87828801612a2d565b91505092959194509250565b600060208284031215612fe157612fe0612a02565b5b6000612fef84828501612a2d565b91505092915050565b600060808201905061300d6000830187612c70565b61301a6020830186612e3c565b6130276040830185612c70565b6130346060830184612c70565b95945050505050565b600081519050919050565b600082825260208201905092915050565b6000819050602082019050919050565b61307281612a0c565b82525050565b60006130848383613069565b60208301905092915050565b6000602082019050919050565b60006130a88261303d565b6130b28185613048565b93506130bd83613059565b8060005b838110156130ee5781516130d58882613078565b97506130e083613090565b9250506001810190506130c1565b5085935050505092915050565b600060a0820190506131106000830188612f3a565b61311d6020830187612e3c565b61312a6040830186612c70565b6131376060830185612f3a565b8181036080830152613149818461309d565b90509695505050505050565b6000602082019050818103600083015261316f818461309d565b905092915050565b61318081612a62565b82525050565b600060208201905061319b6000830184613177565b92915050565b600080604083850312156131b8576131b7612a02565b5b60006131c685828601612bf4565b92505060206131d785828601612a8b565b9150509250929050565b60006040820190506131f66000830185612c70565b6132036020830184612c70565b9392505050565b600082825260208201905092915050565b7f54525553545f4b45595f4e4f545f464f554e4400000000000000000000000000600082015250565b600061325160138361320a565b915061325c8261321b565b602082019050919050565b6000602082019050818103600083015261328081613244565b9050919050565b600060608201905061329c6000830186613177565b6132a96020830185612c70565b6132b66040830184612c70565b949350505050565b7f4e487b7100000000000000000000000000000000000000000000000000000000600052601160045260246000fd5b60006132f882612a0c565b915061330383612a0c565b925082820190508082111561331b5761331a6132be565b5b92915050565b600060a0820190506133366000830188613177565b6133436020830187612c70565b6133506040830186612c70565b61335d6060830185613177565b61336a6080830184612c70565b9695505050505050565b7f46756e6374696f6e206d7573742062652063616c6c6564207468726f7567682060008201527f64656c656761746563616c6c0000000000000000000000000000000000000000602082015250565b60006133d0602c8361320a565b91506133db82613374565b604082019050919050565b600060208201905081810360008301526133ff816133c3565b9050919050565b7f46756e6374696f6e206d7573742062652063616c6c6564207468726f7567682060008201527f6163746976652070726f78790000000000000000000000000000000000000000602082015250565b6000613462602c8361320a565b915061346d82613406565b604082019050919050565b6000602082019050818103600083015261349181613455565b9050919050565b60006134a382612a0c565b91507fffffffffffffffffffffffffffffffffffffffffffffffffffffffffffffffff82036134d5576134d46132be565b5b600182019050919050565b7f555550535570677261646561626c653a206d757374206e6f742062652063616c60008201527f6c6564207468726f7567682064656c656761746563616c6c0000000000000000602082015250565b600061353c60388361320a565b9150613547826134e0565b604082019050919050565b6000602082019050818103600083015261356b8161352f565b9050919050565b7f494e56414c49445f545255535400000000000000000000000000000000000000600082015250565b60006135a8600d8361320a565b91506135b382613572565b602082019050919050565b600060208201905081810360008301526135d78161359b565b9050919050565b7f4e487b7100000000000000000000000000000000000000000000000000000000600052600160045260246000fd5b7f4e487b7100000000000000000000000000000000000000000000000000000000600052603260045260246000fd5b7f494e56414c49445f4b45595f4f4e5f52494e4700000000000000000000000000600082015250565b600061367260138361320a565b915061367d8261363c565b602082019050919050565b600060208201905081810360008301526136a181613665565b9050919050565b7f524f4f545f4f4e5f52494e470000000000000000000000000000000000000000600082015250565b60006136de600c8361320a565b91506136e9826136a8565b602082019050919050565b6000602082019050818103600083015261370d816136d1565b9050919050565b7f4e4f4e5f54525553545f4b455900000000000000000000000000000000000000600082015250565b600061374a600d8361320a565b915061375582613714565b602082019050919050565b600060208201905081810360008301526137798161373d565b9050919050565b7f496e697469616c697a61626c653a20636f6e747261637420697320616c72656160008201527f647920696e697469616c697a6564000000000000000000000000000000000000602082015250565b60006137dc602e8361320a565b91506137e782613780565b604082019050919050565b6000602082019050818103600083015261380b816137cf565b9050919050565b6000819050919050565b600060ff82169050919050565b6000819050919050565b600061384e61384961384484613812565b613829565b61381c565b9050919050565b61385e81613833565b82525050565b60006020820190506138796000830184613855565b92915050565b60006080820190506138946000830187613177565b6138a16020830186612c70565b6138ae6040830185612e3c565b6138bb6060830184613177565b95945050505050565b7f4f776e61626c653a206e6577206f776e657220697320746865207a65726f206160008201527f6464726573730000000000000000000000000000000000000000000000000000602082015250565b600061392060268361320a565b915061392b826138c4565b604082019050919050565b6000602082019050818103600083015261394f81613913565b9050919050565b600060608201905061396b6000830186613177565b6139786020830185612c70565b6139856040830184612f3a565b949350505050565b60008151905061399c81612a16565b92915050565b6000602082840312156139b8576139b7612a02565b5b60006139c68482850161398d565b91505092915050565b7f4b45595f4e4f545f48454c440000000000000000000000000000000000000000600082015250565b6000613a05600c8361320a565b9150613a10826139cf565b602082019050919050565b60006020820190508181036000830152613a34816139f8565b9050919050565b7f4b45595f4e4f545f524f4f540000000000000000000000000000000000000000600082015250565b6000613a71600c8361320a565b9150613a7c82613a3b565b602082019050919050565b60006020820190508181036000830152613aa081613a64565b9050919050565b6000613ac2613abd613ab884613812565b613829565b612a0c565b9050919050565b613ad281613aa7565b82525050565b600082825260208201905092915050565b50565b6000613af9600083613ad8565b9150613b0482613ae9565b600082019050919050565b6000608082019050613b246000830186613177565b613b316020830185612c70565b613b3e6040830184613ac9565b8181036060830152613b4f81613aec565b9050949350505050565b600060a082019050613b6e6000830188613177565b613b7b6020830187612c70565b613b886040830186612c70565b613b956060830185612e3c565b613ba26080830184613177565b9695505050505050565b600081519050613bbb81612bdd565b92915050565b600060208284031215613bd757613bd6612a02565b5b6000613be584828501613bac565b91505092915050565b7f45524331393637557067726164653a206e657720696d706c656d656e7461746960008201527f6f6e206973206e6f742055555053000000000000000000000000000000000000602082015250565b6000613c4a602e8361320a565b9150613c5582613bee565b604082019050919050565b60006020820190508181036000830152613c7981613c3d565b9050919050565b7f45524331393637557067726164653a20756e737570706f727465642070726f7860008201527f6961626c65555549440000000000000000000000000000000000000000000000602082015250565b6000613cdc60298361320a565b9150613ce782613c80565b604082019050919050565b60006020820190508181036000830152613d0b81613ccf565b9050919050565b7f4f776e61626c653a2063616c6c6572206973206e6f7420746865206f776e6572600082015250565b6000613d4860208361320a565b9150613d5382613d12565b602082019050919050565b60006020820190508181036000830152613d7781613d3b565b9050919050565b7f496e697469616c697a61626c653a20636f6e7472616374206973206e6f74206960008201527f6e697469616c697a696e67000000000000000000000000000000000000000000602082015250565b6000613dda602b8361320a565b9150613de582613d7e565b604082019050919050565b60006020820190508181036000830152613e0981613dcd565b9050919050565b7f455243313936373a206e657720696d706c656d656e746174696f6e206973206e60008201527f6f74206120636f6e747261637400000000000000000000000000000000000000602082015250565b6000613e6c602d8361320a565b9150613e7782613e10565b604082019050919050565b60006020820190508181036000830152613e9b81613e5f565b9050919050565b7f416464726573733a2064656c65676174652063616c6c20746f206e6f6e2d636f60008201527f6e74726163740000000000000000000000000000000000000000000000000000602082015250565b6000613efe60268361320a565b9150613f0982613ea2565b604082019050919050565b60006020820190508181036000830152613f2d81613ef1565b9050919050565b600081519050919050565b600081905092915050565b60005b83811015613f68578082015181840152602081019050613f4d565b60008484015250505050565b6000613f7f82613f34565b613f898185613f3f565b9350613f99818560208601613f4a565b80840191505092915050565b6000613fb18284613f74565b915081905092915050565b600081519050919050565b6000613fd282613fbc565b613fdc818561320a565b9350613fec818560208601613f4a565b613ff581612ca4565b840191505092915050565b6000602082019050818103600083015261401a8184613fc7565b90509291505056fe416464726573733a206c6f772d6c6576656c2064656c65676174652063616c6c206661696c6564a26469706673582212208c6cd68aa4eccc360ca79d98dd36f47c123e89644bcd2b2d79e3f83b366aa14964736f6c63430008100033",
  "linkReferences": {},
  "deployedLinkReferences": {}
}