{
  "_format": "hh-sol-artifact-1",
  "contractName": "Locksmith",
  "sourceName": "contracts/Locksmith.sol",
  "abi": [
    {
      "inputs": [],
      "stateMutability": "nonpayable",
      "type": "constructor"
    },
    {
      "anonymous": false,
      "inputs": [
        {
          "indexed": false,
          "internalType": "address",
          "name": "previousAdmin",
          "type": "address"
        },
        {
          "indexed": false,
          "internalType": "address",
          "name": "newAdmin",
          "type": "address"
        }
      ],
      "name": "AdminChanged",
      "type": "event"
    },
    {
      "anonymous": false,
      "inputs": [
        {
          "indexed": true,
          "internalType": "address",
          "name": "beacon",
          "type": "address"
        }
      ],
      "name": "BeaconUpgraded",
      "type": "event"
    },
    {
      "anonymous": false,
      "inputs": [
        {
          "indexed": false,
          "internalType": "uint8",
          "name": "version",
          "type": "uint8"
        }
      ],
      "name": "Initialized",
      "type": "event"
    },
    {
      "anonymous": false,
      "inputs": [
        {
          "indexed": true,
          "internalType": "address",
          "name": "previousOwner",
          "type": "address"
        },
        {
          "indexed": true,
          "internalType": "address",
          "name": "newOwner",
          "type": "address"
        }
      ],
      "name": "OwnershipTransferred",
      "type": "event"
    },
    {
      "anonymous": false,
      "inputs": [
        {
          "indexed": true,
          "internalType": "address",
          "name": "implementation",
          "type": "address"
        }
      ],
      "name": "Upgraded",
      "type": "event"
    },
    {
      "anonymous": false,
      "inputs": [
        {
          "indexed": false,
          "internalType": "address",
          "name": "rootHolder",
          "type": "address"
        },
        {
          "indexed": false,
          "internalType": "uint256",
          "name": "trustId",
          "type": "uint256"
        },
        {
          "indexed": false,
          "internalType": "uint256",
          "name": "keyId",
          "type": "uint256"
        },
        {
          "indexed": false,
          "internalType": "address",
          "name": "target",
          "type": "address"
        },
        {
          "indexed": false,
          "internalType": "uint256",
          "name": "amount",
          "type": "uint256"
        }
      ],
      "name": "keyBurned",
      "type": "event"
    },
    {
      "anonymous": false,
      "inputs": [
        {
          "indexed": false,
          "internalType": "address",
          "name": "creator",
          "type": "address"
        },
        {
          "indexed": false,
          "internalType": "uint256",
          "name": "trustId",
          "type": "uint256"
        },
        {
          "indexed": false,
          "internalType": "uint256",
          "name": "keyId",
          "type": "uint256"
        },
        {
          "indexed": false,
          "internalType": "bytes32",
          "name": "keyName",
          "type": "bytes32"
        },
        {
          "indexed": false,
          "internalType": "address",
          "name": "receiver",
          "type": "address"
        }
      ],
      "name": "keyMinted",
      "type": "event"
    },
    {
      "anonymous": false,
      "inputs": [
        {
          "indexed": false,
          "internalType": "address",
          "name": "creator",
          "type": "address"
        },
        {
          "indexed": false,
          "internalType": "uint256",
          "name": "trustId",
          "type": "uint256"
        },
        {
          "indexed": false,
          "internalType": "bytes32",
          "name": "trustName",
          "type": "bytes32"
        },
        {
          "indexed": false,
          "internalType": "address",
          "name": "recipient",
          "type": "address"
        }
      ],
      "name": "trustCreated",
      "type": "event"
    },
    {
      "inputs": [
        {
          "internalType": "uint256",
          "name": "rootKeyId",
          "type": "uint256"
        },
        {
          "internalType": "uint256",
          "name": "keyId",
          "type": "uint256"
        },
        {
          "internalType": "address",
          "name": "holder",
          "type": "address"
        },
        {
          "internalType": "uint256",
          "name": "amount",
          "type": "uint256"
        }
      ],
      "name": "burnKey",
      "outputs": [],
      "stateMutability": "nonpayable",
      "type": "function"
    },
    {
      "inputs": [
        {
          "internalType": "uint256",
          "name": "rootKeyId",
          "type": "uint256"
        },
        {
          "internalType": "uint256",
          "name": "keyId",
          "type": "uint256"
        },
        {
          "internalType": "address",
          "name": "receiver",
          "type": "address"
        },
        {
          "internalType": "bool",
          "name": "bind",
          "type": "bool"
        }
      ],
      "name": "copyKey",
      "outputs": [],
      "stateMutability": "nonpayable",
      "type": "function"
    },
    {
      "inputs": [
        {
          "internalType": "uint256",
          "name": "rootKeyId",
          "type": "uint256"
        },
        {
          "internalType": "bytes32",
          "name": "keyName",
          "type": "bytes32"
        },
        {
          "internalType": "address",
          "name": "receiver",
          "type": "address"
        },
        {
          "internalType": "bool",
          "name": "bind",
          "type": "bool"
        }
      ],
      "name": "createKey",
      "outputs": [
        {
          "internalType": "uint256",
          "name": "",
          "type": "uint256"
        }
      ],
      "stateMutability": "nonpayable",
      "type": "function"
    },
    {
      "inputs": [
        {
          "internalType": "bytes32",
          "name": "trustName",
          "type": "bytes32"
        },
        {
          "internalType": "address",
          "name": "recipient",
          "type": "address"
        }
      ],
      "name": "createTrustAndRootKey",
      "outputs": [
        {
          "internalType": "uint256",
          "name": "",
          "type": "uint256"
        },
        {
          "internalType": "uint256",
          "name": "",
          "type": "uint256"
        }
      ],
      "stateMutability": "nonpayable",
      "type": "function"
    },
    {
      "inputs": [],
      "name": "getKeyVault",
      "outputs": [
        {
          "internalType": "address",
          "name": "",
          "type": "address"
        }
      ],
      "stateMutability": "view",
      "type": "function"
    },
    {
      "inputs": [
        {
          "internalType": "uint256",
          "name": "trustId",
          "type": "uint256"
        }
      ],
      "name": "getKeys",
      "outputs": [
        {
          "internalType": "uint256[]",
          "name": "",
          "type": "uint256[]"
        }
      ],
      "stateMutability": "view",
      "type": "function"
    },
    {
      "inputs": [
        {
          "internalType": "address",
          "name": "_KeyVault",
          "type": "address"
        }
      ],
      "name": "initialize",
      "outputs": [],
      "stateMutability": "nonpayable",
      "type": "function"
    },
    {
      "inputs": [
        {
          "internalType": "uint256",
          "name": "keyId",
          "type": "uint256"
        }
      ],
      "name": "inspectKey",
      "outputs": [
        {
          "internalType": "bool",
          "name": "",
          "type": "bool"
        },
        {
          "internalType": "bytes32",
          "name": "",
          "type": "bytes32"
        },
        {
          "internalType": "uint256",
          "name": "",
          "type": "uint256"
        },
        {
          "internalType": "bool",
          "name": "",
          "type": "bool"
        },
        {
          "internalType": "uint256[]",
          "name": "",
          "type": "uint256[]"
        }
      ],
      "stateMutability": "view",
      "type": "function"
    },
    {
      "inputs": [
        {
          "internalType": "uint256",
          "name": "keyId",
          "type": "uint256"
        }
      ],
      "name": "isRootKey",
      "outputs": [
        {
          "internalType": "bool",
          "name": "",
          "type": "bool"
        }
      ],
      "stateMutability": "view",
      "type": "function"
    },
    {
      "inputs": [],
      "name": "keyVault",
      "outputs": [
        {
          "internalType": "address",
          "name": "",
          "type": "address"
        }
      ],
      "stateMutability": "view",
      "type": "function"
    },
    {
      "inputs": [],
      "name": "owner",
      "outputs": [
        {
          "internalType": "address",
          "name": "",
          "type": "address"
        }
      ],
      "stateMutability": "view",
      "type": "function"
    },
    {
      "inputs": [],
      "name": "proxiableUUID",
      "outputs": [
        {
          "internalType": "bytes32",
          "name": "",
          "type": "bytes32"
        }
      ],
      "stateMutability": "view",
      "type": "function"
    },
    {
      "inputs": [],
      "name": "renounceOwnership",
      "outputs": [],
      "stateMutability": "nonpayable",
      "type": "function"
    },
    {
      "inputs": [
        {
          "internalType": "uint256",
          "name": "rootKeyId",
          "type": "uint256"
        },
        {
          "internalType": "address",
          "name": "keyHolder",
          "type": "address"
        },
        {
          "internalType": "uint256",
          "name": "keyId",
          "type": "uint256"
        },
        {
          "internalType": "uint256",
          "name": "amount",
          "type": "uint256"
        }
      ],
      "name": "soulbindKey",
      "outputs": [],
      "stateMutability": "nonpayable",
      "type": "function"
    },
    {
      "inputs": [
        {
          "internalType": "address",
          "name": "newOwner",
          "type": "address"
        }
      ],
      "name": "transferOwnership",
      "outputs": [],
      "stateMutability": "nonpayable",
      "type": "function"
    },
    {
      "inputs": [
        {
          "internalType": "uint256",
          "name": "",
          "type": "uint256"
        }
      ],
      "name": "trustRegistry",
      "outputs": [
        {
          "internalType": "uint256",
          "name": "id",
          "type": "uint256"
        },
        {
          "internalType": "bytes32",
          "name": "name",
          "type": "bytes32"
        },
        {
          "internalType": "uint256",
          "name": "rootKeyId",
          "type": "uint256"
        },
        {
          "internalType": "uint256",
          "name": "trustKeyCount",
          "type": "uint256"
        }
      ],
      "stateMutability": "view",
      "type": "function"
    },
    {
      "inputs": [
        {
          "internalType": "address",
          "name": "newImplementation",
          "type": "address"
        }
      ],
      "name": "upgradeTo",
      "outputs": [],
      "stateMutability": "nonpayable",
      "type": "function"
    },
    {
      "inputs": [
        {
          "internalType": "address",
          "name": "newImplementation",
          "type": "address"
        },
        {
          "internalType": "bytes",
          "name": "data",
          "type": "bytes"
        }
      ],
      "name": "upgradeToAndCall",
      "outputs": [],
      "stateMutability": "payable",
      "type": "function"
    },
    {
      "inputs": [
        {
          "internalType": "uint256",
          "name": "trustId",
          "type": "uint256"
        },
        {
          "internalType": "uint256[]",
          "name": "keys",
          "type": "uint256[]"
        },
        {
          "internalType": "bool",
          "name": "allowRoot",
          "type": "bool"
        }
      ],
      "name": "validateKeyRing",
      "outputs": [
        {
          "internalType": "bool",
          "name": "",
          "type": "bool"
        }
      ],
      "stateMutability": "view",
      "type": "function"
    }
  ],
  "bytecode": "0x60a06040523060805234801561001457600080fd5b5061001d610022565b6100e2565b600054610100900460ff161561008e5760405162461bcd60e51b815260206004820152602760248201527f496e697469616c697a61626c653a20636f6e747261637420697320696e697469604482015266616c697a696e6760c81b606482015260840160405180910390fd5b60005460ff90811610156100e0576000805460ff191660ff9081179091556040519081527f7f26b83ff96e1f2b6a682f133852f6798a09c465da95921460cefb38474024989060200160405180910390a15b565b6080516120d76200011a60003960008181610667015281816106ec015281816108830152818161090801526109f201526120d76000f3fe6080604052600436106101445760003560e01c8063886b43f5116100c0578063b83ac19f11610074578063cf1f7f2511610059578063cf1f7f25146103bb578063d2bd0fad146103f0578063f2fde38b1461041057600080fd5b8063b83ac19f1461037d578063c4d66de81461039b57600080fd5b80638d357fa3116100a55780638d357fa3146102fe5780638da5cb5b1461032b578063a1ca66871461035d57600080fd5b8063886b43f51461026b57806388ecda52146102cd57600080fd5b80634f1ef2861161011757806353a81ee1116100fc57806353a81ee1146102065780636d7012fa14610236578063715018a61461025657600080fd5b80634f1ef286146101de57806352d1902d146101f157600080fd5b80631151166814610149578063218fa8e61461016b5780633659cfe61461018b5780634be8b11c146101ab575b600080fd5b34801561015557600080fd5b50610169610164366004611c6d565b610430565b005b34801561017757600080fd5b50610169610186366004611cba565b6105c6565b34801561019757600080fd5b506101696101a6366004611d00565b61065d565b3480156101b757600080fd5b506101cb6101c6366004611cba565b6107d8565b6040519081526020015b60405180910390f35b6101696101ec366004611d31565b610879565b3480156101fd57600080fd5b506101cb6109e5565b34801561021257600080fd5b50610226610221366004611df3565b610aaa565b60405190151581526020016101d5565b34801561024257600080fd5b50610169610251366004611e78565b610cb0565b34801561026257600080fd5b50610169610dc1565b34801561027757600080fd5b506102ad610286366004611eb3565b60ca6020526000908152604090208054600182015460028301546003909301549192909184565b6040805194855260208501939093529183015260608201526080016101d5565b3480156102d957600080fd5b506102ed6102e8366004611eb3565b610dd5565b6040516101d5959493929190611f07565b34801561030a57600080fd5b5061031e610319366004611eb3565b610e9c565b6040516101d59190611f41565b34801561033757600080fd5b506033546001600160a01b03165b6040516001600160a01b0390911681526020016101d5565b34801561036957600080fd5b5060c954610345906001600160a01b031681565b34801561038957600080fd5b5060c9546001600160a01b0316610345565b3480156103a757600080fd5b506101696103b6366004611d00565b610f21565b3480156103c757600080fd5b506103db6103d6366004611f54565b611071565b604080519283526020830191909152016101d5565b3480156103fc57600080fd5b5061022661040b366004611eb3565b6111aa565b34801561041c57600080fd5b5061016961042b366004611d00565b611211565b600060ca600061043f8761129e565b81526020019081526020016000209050600081600601600086815260200190815260200160002054116104b95760405162461bcd60e51b815260206004820152601360248201527f54525553545f4b45595f4e4f545f464f554e440000000000000000000000000060448201526064015b60405180910390fd5b60c9546040517ff5298aca0000000000000000000000000000000000000000000000000000000081526001600160a01b03858116600483015260248201879052604482018590529091169063f5298aca90606401600060405180830381600087803b15801561052757600080fd5b505af115801561053b573d6000803e3d6000fd5b505050600085815260078301602052604081208054859350909190610561908490611f96565b9091555050805460408051338152602081019290925281018590526001600160a01b0384166060820152608081018390527f707b83adf4af3b12b746160986598d56e5b5d926ad0a6ce43d49c35bb77b58569060a00160405180910390a15050505050565b600060ca60006105d58761129e565b815260200190815260200160002090506000816006016000868152602001908152602001600020541161064a5760405162461bcd60e51b815260206004820152601360248201527f54525553545f4b45595f4e4f545f464f554e440000000000000000000000000060448201526064016104b0565b610656818585856113d9565b5050505050565b6001600160a01b037f00000000000000000000000000000000000000000000000000000000000000001630036106ea5760405162461bcd60e51b815260206004820152602c60248201527f46756e6374696f6e206d7573742062652063616c6c6564207468726f7567682060448201526b19195b1959d85d1958d85b1b60a21b60648201526084016104b0565b7f00000000000000000000000000000000000000000000000000000000000000006001600160a01b03166107457f360894a13ba1a3210667c828492db98dca3e2076cc3735a920a3ca505d382bbc546001600160a01b031690565b6001600160a01b0316146107b05760405162461bcd60e51b815260206004820152602c60248201527f46756e6374696f6e206d7573742062652063616c6c6564207468726f7567682060448201526b6163746976652070726f787960a01b60648201526084016104b0565b6107b981611618565b604080516000808252602082019092526107d591839190611620565b50565b60cd8054600091829190826107ec83611fa9565b919050559050600060ca60006108018961129e565b8152602001908152602001600020905080600301600081548092919061082690611fa9565b9091555050600481018054600181018255600091825260208083209091018490558382526005830181526040808320899055835460cc9092529091205561086f818387876113d9565b5095945050505050565b6001600160a01b037f00000000000000000000000000000000000000000000000000000000000000001630036109065760405162461bcd60e51b815260206004820152602c60248201527f46756e6374696f6e206d7573742062652063616c6c6564207468726f7567682060448201526b19195b1959d85d1958d85b1b60a21b60648201526084016104b0565b7f00000000000000000000000000000000000000000000000000000000000000006001600160a01b03166109617f360894a13ba1a3210667c828492db98dca3e2076cc3735a920a3ca505d382bbc546001600160a01b031690565b6001600160a01b0316146109cc5760405162461bcd60e51b815260206004820152602c60248201527f46756e6374696f6e206d7573742062652063616c6c6564207468726f7567682060448201526b6163746976652070726f787960a01b60648201526084016104b0565b6109d582611618565b6109e182826001611620565b5050565b6000306001600160a01b037f00000000000000000000000000000000000000000000000000000000000000001614610a855760405162461bcd60e51b815260206004820152603860248201527f555550535570677261646561626c653a206d757374206e6f742062652063616c60448201527f6c6564207468726f7567682064656c656761746563616c6c000000000000000060648201526084016104b0565b507f360894a13ba1a3210667c828492db98dca3e2076cc3735a920a3ca505d382bbc90565b600060cb548510610afd5760405162461bcd60e51b815260206004820152600d60248201527f494e56414c49445f54525553540000000000000000000000000000000000000060448201526064016104b0565b600085815260ca60209081526040808320600281015484526006810190925290912054610b2c57610b2c611fc2565b60005b84811015610ca35760cd54868683818110610b4c57610b4c611fd8565b9050602002013510610ba05760405162461bcd60e51b815260206004820152601360248201527f494e56414c49445f4b45595f4f4e5f52494e470000000000000000000000000060448201526064016104b0565b8380610bc857508160020154868683818110610bbe57610bbe611fd8565b9050602002013514155b610c145760405162461bcd60e51b815260206004820152600c60248201527f524f4f545f4f4e5f52494e47000000000000000000000000000000000000000060448201526064016104b0565b6000826006016000888885818110610c2e57610c2e611fd8565b9050602002013581526020019081526020016000205411610c915760405162461bcd60e51b815260206004820152600d60248201527f4e4f4e5f54525553545f4b45590000000000000000000000000000000000000060448201526064016104b0565b80610c9b81611fa9565b915050610b2f565b5060019695505050505050565b600060ca6000610cbf8761129e565b8152602001908152602001600020905060008160060160008581526020019081526020016000205411610d345760405162461bcd60e51b815260206004820152601360248201527f54525553545f4b45595f4e4f545f464f554e440000000000000000000000000060448201526064016104b0565b60c9546040517f3faf3d6b0000000000000000000000000000000000000000000000000000000081526001600160a01b038681166004830152602482018690526044820185905290911690633faf3d6b90606401600060405180830381600087803b158015610da257600080fd5b505af1158015610db6573d6000803e3d6000fd5b505050505050505050565b610dc96117c5565b610dd3600061181f565b565b60cd54600082815260cc602081815260408084205480855260ca83528185208786526005018352908420549290915291928392839283926060929088109190610e1d896111aa565b60008a815260cc6020908152604080832054835260ca8252918290206004018054835181840281018401909452808452909291839190830182828015610e8257602002820191906000526020600020905b815481526020019060010190808311610e6e575b505050505090509450945094509450945091939590929450565b600081815260ca602052604081206004015460609103610ebe57610ebe611fc2565b600082815260ca602090815260409182902060040180548351818402810184019094528084529091830182828015610f1557602002820191906000526020600020905b815481526020019060010190808311610f01575b50505050509050919050565b600054610100900460ff1615808015610f415750600054600160ff909116105b80610f5b5750303b158015610f5b575060005460ff166001145b610fcd5760405162461bcd60e51b815260206004820152602e60248201527f496e697469616c697a61626c653a20636f6e747261637420697320616c72656160448201527f647920696e697469616c697a656400000000000000000000000000000000000060648201526084016104b0565b6000805460ff191660011790558015610ff0576000805461ff0019166101001790555b610ff861187e565b6110006118f1565b60c9805473ffffffffffffffffffffffffffffffffffffffff19166001600160a01b03841617905580156109e1576000805461ff0019169055604051600181527f7f26b83ff96e1f2b6a682f133852f6798a09c465da95921460cefb38474024989060200160405180910390a15050565b60cb8054600081815260ca6020526040812090928392908361109283611fa9565b90915550815560cd80549060006110a883611fa9565b9091555060028201556003810180549060006110c383611fa9565b9091555050600180820186905560028201805460048401805493840181556000908152602080822090940182905590815260058401835260408082207f726f6f7400000000000000000000000000000000000000000000000000000000905584548354835260cc909452812092909255546111429183919087906113d9565b805460018201546040805133815260208101939093528201526001600160a01b03851660608201527fd91e2f64746507b28147d9ed981a07fe6bf4e5935e328300ac680bb58aa1bbff9060800160405180910390a18054600290910154909590945092505050565b600060cd54821080156111da5750600082815260cc6020908152604080832054835260ca90915290206002015482145b801561120b5750600082815260cc6020908152604080832054835260ca825280832085845260060190915290205415155b92915050565b6112196117c5565b6001600160a01b0381166112955760405162461bcd60e51b815260206004820152602660248201527f4f776e61626c653a206e6577206f776e657220697320746865207a65726f206160448201527f646472657373000000000000000000000000000000000000000000000000000060648201526084016104b0565b6107d58161181f565b60c954604051630f5d2cd560e11b8152336004820152602481018390526000604482018190529182916001600160a01b0390911690631eba59aa90606401602060405180830381865afa1580156112f9573d6000803e3d6000fd5b505050506040513d601f19601f8201168201806040525081019061131d9190611fee565b1161136a5760405162461bcd60e51b815260206004820152600c60248201527f4b45595f4e4f545f48454c44000000000000000000000000000000000000000060448201526064016104b0565b600082815260cc602090815260408083205480845260ca90925290912060020154831461120b5760405162461bcd60e51b815260206004820152600c60248201527f4b45595f4e4f545f524f4f54000000000000000000000000000000000000000060448201526064016104b0565b600083815260068501602052604081208054916113f583611fa9565b919050555080156115125760c954604051630f5d2cd560e11b81526001600160a01b038481166004830152602482018690526001604483015290911690633faf3d6b90849086908490631eba59aa90606401602060405180830381865afa158015611464573d6000803e3d6000fd5b505050506040513d601f19601f820116820180604052508101906114889190611fee565b611493906001611f96565b6040517fffffffff0000000000000000000000000000000000000000000000000000000060e086901b1681526001600160a01b03909316600484015260248301919091526044820152606401600060405180830381600087803b1580156114f957600080fd5b505af115801561150d573d6000803e3d6000fd5b505050505b60c9546040517f731133e90000000000000000000000000000000000000000000000000000000081526001600160a01b038481166004830152602482018690526001604483015260806064830152600060848301529091169063731133e99060a401600060405180830381600087803b15801561158e57600080fd5b505af11580156115a2573d6000803e3d6000fd5b5050855460008681526005880160209081526040918290205482513381529182019390935280820188905260608101929092526001600160a01b0386166080830152517fe50957d1d876dc7be82af5865a9afa4320e3a26b1e1375bf412962745de3562a93509081900360a0019150a150505050565b6107d56117c5565b7f4910fdfa16fed3260ed0e7147f7cc6da11a60208b5b9406d12a635614ffd91435460ff1615611658576116538361195c565b505050565b826001600160a01b03166352d1902d6040518163ffffffff1660e01b8152600401602060405180830381865afa9250505080156116b2575060408051601f3d908101601f191682019092526116af91810190611fee565b60015b6117245760405162461bcd60e51b815260206004820152602e60248201527f45524331393637557067726164653a206e657720696d706c656d656e7461746960448201527f6f6e206973206e6f74205555505300000000000000000000000000000000000060648201526084016104b0565b7f360894a13ba1a3210667c828492db98dca3e2076cc3735a920a3ca505d382bbc81146117b95760405162461bcd60e51b815260206004820152602960248201527f45524331393637557067726164653a20756e737570706f727465642070726f7860448201527f6961626c6555554944000000000000000000000000000000000000000000000060648201526084016104b0565b50611653838383611a27565b6033546001600160a01b03163314610dd35760405162461bcd60e51b815260206004820181905260248201527f4f776e61626c653a2063616c6c6572206973206e6f7420746865206f776e657260448201526064016104b0565b603380546001600160a01b0383811673ffffffffffffffffffffffffffffffffffffffff19831681179093556040519116919082907f8be0079c531659141344cd1fd0a4f28419497f9722a3daafe3b4186f6b6457e090600090a35050565b600054610100900460ff166118e95760405162461bcd60e51b815260206004820152602b60248201527f496e697469616c697a61626c653a20636f6e7472616374206973206e6f74206960448201526a6e697469616c697a696e6760a81b60648201526084016104b0565b610dd3611a52565b600054610100900460ff16610dd35760405162461bcd60e51b815260206004820152602b60248201527f496e697469616c697a61626c653a20636f6e7472616374206973206e6f74206960448201526a6e697469616c697a696e6760a81b60648201526084016104b0565b6001600160a01b0381163b6119d95760405162461bcd60e51b815260206004820152602d60248201527f455243313936373a206e657720696d706c656d656e746174696f6e206973206e60448201527f6f74206120636f6e74726163740000000000000000000000000000000000000060648201526084016104b0565b7f360894a13ba1a3210667c828492db98dca3e2076cc3735a920a3ca505d382bbc805473ffffffffffffffffffffffffffffffffffffffff19166001600160a01b0392909216919091179055565b611a3083611ac6565b600082511180611a3d5750805b1561165357611a4c8383611b06565b50505050565b600054610100900460ff16611abd5760405162461bcd60e51b815260206004820152602b60248201527f496e697469616c697a61626c653a20636f6e7472616374206973206e6f74206960448201526a6e697469616c697a696e6760a81b60648201526084016104b0565b610dd33361181f565b611acf8161195c565b6040516001600160a01b038216907fbc7cd75a20ee27fd9adebab32041f755214dbc6bffa90cc0225b39da2e5c2d3b90600090a250565b60606001600160a01b0383163b611b855760405162461bcd60e51b815260206004820152602660248201527f416464726573733a2064656c65676174652063616c6c20746f206e6f6e2d636f60448201527f6e7472616374000000000000000000000000000000000000000000000000000060648201526084016104b0565b600080846001600160a01b031684604051611ba0919061202b565b600060405180830381855af49150503d8060008114611bdb576040519150601f19603f3d011682016040523d82523d6000602084013e611be0565b606091505b5091509150611c08828260405180606001604052806027815260200161207b60279139611c11565b95945050505050565b60608315611c20575081611c4a565b825115611c305782518084602001fd5b8160405162461bcd60e51b81526004016104b09190612047565b9392505050565b80356001600160a01b0381168114611c6857600080fd5b919050565b60008060008060808587031215611c8357600080fd5b8435935060208501359250611c9a60408601611c51565b9396929550929360600135925050565b80358015158114611c6857600080fd5b60008060008060808587031215611cd057600080fd5b8435935060208501359250611ce760408601611c51565b9150611cf560608601611caa565b905092959194509250565b600060208284031215611d1257600080fd5b611c4a82611c51565b634e487b7160e01b600052604160045260246000fd5b60008060408385031215611d4457600080fd5b611d4d83611c51565b9150602083013567ffffffffffffffff80821115611d6a57600080fd5b818501915085601f830112611d7e57600080fd5b813581811115611d9057611d90611d1b565b604051601f8201601f19908116603f01168101908382118183101715611db857611db8611d1b565b81604052828152886020848701011115611dd157600080fd5b8260208601602083013760006020848301015280955050505050509250929050565b60008060008060608587031215611e0957600080fd5b84359350602085013567ffffffffffffffff80821115611e2857600080fd5b818701915087601f830112611e3c57600080fd5b813581811115611e4b57600080fd5b8860208260051b8501011115611e6057600080fd5b602083019550809450505050611cf560408601611caa565b60008060008060808587031215611e8e57600080fd5b84359350611e9e60208601611c51565b93969395505050506040820135916060013590565b600060208284031215611ec557600080fd5b5035919050565b600081518084526020808501945080840160005b83811015611efc57815187529582019590820190600101611ee0565b509495945050505050565b8515158152846020820152836040820152821515606082015260a060808201526000611f3660a0830184611ecc565b979650505050505050565b602081526000611c4a6020830184611ecc565b60008060408385031215611f6757600080fd5b82359150611f7760208401611c51565b90509250929050565b634e487b7160e01b600052601160045260246000fd5b8082018082111561120b5761120b611f80565b600060018201611fbb57611fbb611f80565b5060010190565b634e487b7160e01b600052600160045260246000fd5b634e487b7160e01b600052603260045260246000fd5b60006020828403121561200057600080fd5b5051919050565b60005b8381101561202257818101518382015260200161200a565b50506000910152565b6000825161203d818460208701612007565b9190910192915050565b6020815260008251806020840152612066816040850160208701612007565b601f01601f1916919091016040019291505056fe416464726573733a206c6f772d6c6576656c2064656c65676174652063616c6c206661696c6564a2646970667358221220148abf6c33444488ecf432edc6085101e3232659bef0a170e4de79c91b1dc83164736f6c63430008100033",
  "linkReferences": {},
  "deployedLinkReferences": {}
}