{
  "_format": "hh-sol-artifact-1",
  "contractName": "Locksmith",
  "sourceName": "contracts/Locksmith.sol",
  "abi": [
    {
      "inputs": [],
      "stateMutability": "nonpayable",
      "type": "constructor"
    },
    {
      "anonymous": false,
      "inputs": [
        {
          "indexed": false,
          "internalType": "address",
          "name": "previousAdmin",
          "type": "address"
        },
        {
          "indexed": false,
          "internalType": "address",
          "name": "newAdmin",
          "type": "address"
        }
      ],
      "name": "AdminChanged",
      "type": "event"
    },
    {
      "anonymous": false,
      "inputs": [
        {
          "indexed": true,
          "internalType": "address",
          "name": "beacon",
          "type": "address"
        }
      ],
      "name": "BeaconUpgraded",
      "type": "event"
    },
    {
      "anonymous": false,
      "inputs": [
        {
          "indexed": false,
          "internalType": "uint8",
          "name": "version",
          "type": "uint8"
        }
      ],
      "name": "Initialized",
      "type": "event"
    },
    {
      "anonymous": false,
      "inputs": [
        {
          "indexed": true,
          "internalType": "address",
          "name": "previousOwner",
          "type": "address"
        },
        {
          "indexed": true,
          "internalType": "address",
          "name": "newOwner",
          "type": "address"
        }
      ],
      "name": "OwnershipTransferred",
      "type": "event"
    },
    {
      "anonymous": false,
      "inputs": [
        {
          "indexed": true,
          "internalType": "address",
          "name": "implementation",
          "type": "address"
        }
      ],
      "name": "Upgraded",
      "type": "event"
    },
    {
      "anonymous": false,
      "inputs": [
        {
          "indexed": false,
          "internalType": "address",
          "name": "rootHolder",
          "type": "address"
        },
        {
          "indexed": false,
          "internalType": "uint256",
          "name": "trustId",
          "type": "uint256"
        },
        {
          "indexed": false,
          "internalType": "uint256",
          "name": "keyId",
          "type": "uint256"
        },
        {
          "indexed": false,
          "internalType": "address",
          "name": "target",
          "type": "address"
        },
        {
          "indexed": false,
          "internalType": "uint256",
          "name": "amount",
          "type": "uint256"
        }
      ],
      "name": "keyBurned",
      "type": "event"
    },
    {
      "anonymous": false,
      "inputs": [
        {
          "indexed": false,
          "internalType": "address",
          "name": "creator",
          "type": "address"
        },
        {
          "indexed": false,
          "internalType": "uint256",
          "name": "trustId",
          "type": "uint256"
        },
        {
          "indexed": false,
          "internalType": "uint256",
          "name": "keyId",
          "type": "uint256"
        },
        {
          "indexed": false,
          "internalType": "bytes32",
          "name": "keyName",
          "type": "bytes32"
        },
        {
          "indexed": false,
          "internalType": "address",
          "name": "receiver",
          "type": "address"
        }
      ],
      "name": "keyMinted",
      "type": "event"
    },
    {
      "anonymous": false,
      "inputs": [
        {
          "indexed": false,
          "internalType": "address",
          "name": "creator",
          "type": "address"
        },
        {
          "indexed": false,
          "internalType": "uint256",
          "name": "trustId",
          "type": "uint256"
        },
        {
          "indexed": false,
          "internalType": "bytes32",
          "name": "trustName",
          "type": "bytes32"
        },
        {
          "indexed": false,
          "internalType": "address",
          "name": "recipient",
          "type": "address"
        }
      ],
      "name": "trustCreated",
      "type": "event"
    },
    {
      "inputs": [
        {
          "internalType": "uint256",
          "name": "rootKeyId",
          "type": "uint256"
        },
        {
          "internalType": "uint256",
          "name": "keyId",
          "type": "uint256"
        },
        {
          "internalType": "address",
          "name": "holder",
          "type": "address"
        },
        {
          "internalType": "uint256",
          "name": "amount",
          "type": "uint256"
        }
      ],
      "name": "burnKey",
      "outputs": [],
      "stateMutability": "nonpayable",
      "type": "function"
    },
    {
      "inputs": [
        {
          "internalType": "uint256",
          "name": "rootKeyId",
          "type": "uint256"
        },
        {
          "internalType": "uint256",
          "name": "keyId",
          "type": "uint256"
        },
        {
          "internalType": "address",
          "name": "receiver",
          "type": "address"
        },
        {
          "internalType": "bool",
          "name": "bind",
          "type": "bool"
        }
      ],
      "name": "copyKey",
      "outputs": [],
      "stateMutability": "nonpayable",
      "type": "function"
    },
    {
      "inputs": [
        {
          "internalType": "uint256",
          "name": "rootKeyId",
          "type": "uint256"
        },
        {
          "internalType": "bytes32",
          "name": "keyName",
          "type": "bytes32"
        },
        {
          "internalType": "address",
          "name": "receiver",
          "type": "address"
        },
        {
          "internalType": "bool",
          "name": "bind",
          "type": "bool"
        }
      ],
      "name": "createKey",
      "outputs": [
        {
          "internalType": "uint256",
          "name": "",
          "type": "uint256"
        }
      ],
      "stateMutability": "nonpayable",
      "type": "function"
    },
    {
      "inputs": [
        {
          "internalType": "bytes32",
          "name": "trustName",
          "type": "bytes32"
        },
        {
          "internalType": "address",
          "name": "recipient",
          "type": "address"
        }
      ],
      "name": "createTrustAndRootKey",
      "outputs": [
        {
          "internalType": "uint256",
          "name": "",
          "type": "uint256"
        },
        {
          "internalType": "uint256",
          "name": "",
          "type": "uint256"
        }
      ],
      "stateMutability": "nonpayable",
      "type": "function"
    },
    {
      "inputs": [],
      "name": "getKeyVault",
      "outputs": [
        {
          "internalType": "address",
          "name": "",
          "type": "address"
        }
      ],
      "stateMutability": "view",
      "type": "function"
    },
    {
      "inputs": [
        {
          "internalType": "uint256",
          "name": "trustId",
          "type": "uint256"
        }
      ],
      "name": "getKeys",
      "outputs": [
        {
          "internalType": "uint256[]",
          "name": "",
          "type": "uint256[]"
        }
      ],
      "stateMutability": "view",
      "type": "function"
    },
    {
      "inputs": [
        {
          "internalType": "uint256",
          "name": "trustId",
          "type": "uint256"
        }
      ],
      "name": "getTrustInfo",
      "outputs": [
        {
          "internalType": "uint256",
          "name": "",
          "type": "uint256"
        },
        {
          "internalType": "bytes32",
          "name": "",
          "type": "bytes32"
        },
        {
          "internalType": "uint256",
          "name": "",
          "type": "uint256"
        },
        {
          "internalType": "uint256",
          "name": "",
          "type": "uint256"
        }
      ],
      "stateMutability": "view",
      "type": "function"
    },
    {
      "inputs": [
        {
          "internalType": "address",
          "name": "_KeyVault",
          "type": "address"
        }
      ],
      "name": "initialize",
      "outputs": [],
      "stateMutability": "nonpayable",
      "type": "function"
    },
    {
      "inputs": [
        {
          "internalType": "uint256",
          "name": "keyId",
          "type": "uint256"
        }
      ],
      "name": "inspectKey",
      "outputs": [
        {
          "internalType": "bool",
          "name": "",
          "type": "bool"
        },
        {
          "internalType": "bytes32",
          "name": "",
          "type": "bytes32"
        },
        {
          "internalType": "uint256",
          "name": "",
          "type": "uint256"
        },
        {
          "internalType": "bool",
          "name": "",
          "type": "bool"
        },
        {
          "internalType": "uint256[]",
          "name": "",
          "type": "uint256[]"
        }
      ],
      "stateMutability": "view",
      "type": "function"
    },
    {
      "inputs": [
        {
          "internalType": "uint256",
          "name": "keyId",
          "type": "uint256"
        }
      ],
      "name": "isRootKey",
      "outputs": [
        {
          "internalType": "bool",
          "name": "",
          "type": "bool"
        }
      ],
      "stateMutability": "view",
      "type": "function"
    },
    {
      "inputs": [],
      "name": "keyVault",
      "outputs": [
        {
          "internalType": "address",
          "name": "",
          "type": "address"
        }
      ],
      "stateMutability": "view",
      "type": "function"
    },
    {
      "inputs": [],
      "name": "owner",
      "outputs": [
        {
          "internalType": "address",
          "name": "",
          "type": "address"
        }
      ],
      "stateMutability": "view",
      "type": "function"
    },
    {
      "inputs": [],
      "name": "proxiableUUID",
      "outputs": [
        {
          "internalType": "bytes32",
          "name": "",
          "type": "bytes32"
        }
      ],
      "stateMutability": "view",
      "type": "function"
    },
    {
      "inputs": [],
      "name": "renounceOwnership",
      "outputs": [],
      "stateMutability": "nonpayable",
      "type": "function"
    },
    {
      "inputs": [
        {
          "internalType": "uint256",
          "name": "rootKeyId",
          "type": "uint256"
        },
        {
          "internalType": "address",
          "name": "keyHolder",
          "type": "address"
        },
        {
          "internalType": "uint256",
          "name": "keyId",
          "type": "uint256"
        },
        {
          "internalType": "uint256",
          "name": "amount",
          "type": "uint256"
        }
      ],
      "name": "soulbindKey",
      "outputs": [],
      "stateMutability": "nonpayable",
      "type": "function"
    },
    {
      "inputs": [
        {
          "internalType": "address",
          "name": "newOwner",
          "type": "address"
        }
      ],
      "name": "transferOwnership",
      "outputs": [],
      "stateMutability": "nonpayable",
      "type": "function"
    },
    {
      "inputs": [
        {
          "internalType": "address",
          "name": "newImplementation",
          "type": "address"
        }
      ],
      "name": "upgradeTo",
      "outputs": [],
      "stateMutability": "nonpayable",
      "type": "function"
    },
    {
      "inputs": [
        {
          "internalType": "address",
          "name": "newImplementation",
          "type": "address"
        },
        {
          "internalType": "bytes",
          "name": "data",
          "type": "bytes"
        }
      ],
      "name": "upgradeToAndCall",
      "outputs": [],
      "stateMutability": "payable",
      "type": "function"
    },
    {
      "inputs": [
        {
          "internalType": "uint256",
          "name": "trustId",
          "type": "uint256"
        },
        {
          "internalType": "uint256[]",
          "name": "keys",
          "type": "uint256[]"
        },
        {
          "internalType": "bool",
          "name": "allowRoot",
          "type": "bool"
        }
      ],
      "name": "validateKeyRing",
      "outputs": [
        {
          "internalType": "bool",
          "name": "",
          "type": "bool"
        }
      ],
      "stateMutability": "view",
      "type": "function"
    }
  ],
  "bytecode": "0x60a06040523060805234801561001457600080fd5b5061001d610022565b6100e2565b600054610100900460ff161561008e5760405162461bcd60e51b815260206004820152602760248201527f496e697469616c697a61626c653a20636f6e747261637420697320696e697469604482015266616c697a696e6760c81b606482015260840160405180910390fd5b60005460ff90811610156100e0576000805460ff191660ff9081179091556040519081527f7f26b83ff96e1f2b6a682f133852f6798a09c465da95921460cefb38474024989060200160405180910390a15b565b608051611d7f61011960003960008181610566015281816105a6015281816106c50152818161070501526107980152611d7f6000f3fe6080604052600436106101145760003560e01c806388ecda52116100a0578063c4d66de811610064578063c4d66de814610309578063cf1f7f2514610329578063d2bd0fad1461035e578063e991f2111461037e578063f2fde38b146103be57600080fd5b806388ecda521461023b5780638d357fa31461026c5780638da5cb5b14610299578063a1ca6687146102cb578063b83ac19f146102eb57600080fd5b80634f1ef286116100e75780634f1ef286146101ae57806352d1902d146101c157806353a81ee1146101d65780636d7012fa14610206578063715018a61461022657600080fd5b80631151166814610119578063218fa8e61461013b5780633659cfe61461015b5780634be8b11c1461017b575b600080fd5b34801561012557600080fd5b506101396101343660046117e5565b6103de565b005b34801561014757600080fd5b50610139610156366004611832565b6104ff565b34801561016757600080fd5b50610139610176366004611878565b61055c565b34801561018757600080fd5b5061019b610196366004611832565b61063b565b6040519081526020015b60405180910390f35b6101396101bc3660046118a9565b6106bb565b3480156101cd57600080fd5b5061019b61078b565b3480156101e257600080fd5b506101f66101f136600461196b565b61083e565b60405190151581526020016101a5565b34801561021257600080fd5b506101396102213660046119f0565b610a04565b34801561023257600080fd5b50610139610ac2565b34801561024757600080fd5b5061025b610256366004611a2b565b610ad6565b6040516101a5959493929190611a7f565b34801561027857600080fd5b5061028c610287366004611a2b565b610b57565b6040516101a59190611ab9565b3480156102a557600080fd5b506033546001600160a01b03165b6040516001600160a01b0390911681526020016101a5565b3480156102d757600080fd5b5060c9546102b3906001600160a01b031681565b3480156102f757600080fd5b5060c9546001600160a01b03166102b3565b34801561031557600080fd5b50610139610324366004611878565b610ba3565b34801561033557600080fd5b50610349610344366004611acc565b610cd7565b604080519283526020830191909152016101a5565b34801561036a57600080fd5b506101f6610379366004611a2b565b610dd8565b34801561038a57600080fd5b5061039e610399366004611a2b565b610e37565b6040805194855260208501939093529183015260608201526080016101a5565b3480156103ca57600080fd5b506101396103d9366004611878565b610e78565b600060ca60006103ed87610eee565b81526020810191909152604001600020905061040c6003820185611007565b6104315760405162461bcd60e51b815260040161042890611af8565b60405180910390fd5b60c954604051637a94c56560e11b81526001600160a01b03858116600483015260248201879052604482018590529091169063f5298aca90606401600060405180830381600087803b15801561048657600080fd5b505af115801561049a573d6000803e3d6000fd5b5050825460408051338152602081019290925281018790526001600160a01b0386166060820152608081018590527f707b83adf4af3b12b746160986598d56e5b5d926ad0a6ce43d49c35bb77b5856925060a001905060405180910390a15050505050565b600060ca600061050e87610eee565b81526020810191909152604001600020905061052d6003820185611007565b6105495760405162461bcd60e51b815260040161042890611af8565b61055581858585611022565b5050505050565b6001600160a01b037f00000000000000000000000000000000000000000000000000000000000000001630036105a45760405162461bcd60e51b815260040161042890611b25565b7f00000000000000000000000000000000000000000000000000000000000000006001600160a01b03166105ed600080516020611d03833981519152546001600160a01b031690565b6001600160a01b0316146106135760405162461bcd60e51b815260040161042890611b71565b61061c8161121d565b6040805160008082526020820190925261063891839190611225565b50565b60008060ca600061064b88610eee565b81526020019081526020016000209050600060cd600081548092919061067090611bd3565b9091555090506106836003830182611395565b5060008181526005830160209081526040808320899055845460cc909252909120556106b182828787611022565b9695505050505050565b6001600160a01b037f00000000000000000000000000000000000000000000000000000000000000001630036107035760405162461bcd60e51b815260040161042890611b25565b7f00000000000000000000000000000000000000000000000000000000000000006001600160a01b031661074c600080516020611d03833981519152546001600160a01b031690565b6001600160a01b0316146107725760405162461bcd60e51b815260040161042890611b71565b61077b8261121d565b61078782826001611225565b5050565b6000306001600160a01b037f0000000000000000000000000000000000000000000000000000000000000000161461082b5760405162461bcd60e51b815260206004820152603860248201527f555550535570677261646561626c653a206d757374206e6f742062652063616c60448201527f6c6564207468726f7567682064656c656761746563616c6c00000000000000006064820152608401610428565b50600080516020611d0383398151915290565b600060cb5485106108815760405162461bcd60e51b815260206004820152600d60248201526c1253959053125117d5149554d5609a1b6044820152606401610428565b600085815260ca6020526040902060028101546108a2906003830190611007565b6108ae576108ae611bec565b60005b848110156109f75760cd548686838181106108ce576108ce611c02565b90506020020135106109185760405162461bcd60e51b8152602060048201526013602482015272494e56414c49445f4b45595f4f4e5f52494e4760681b6044820152606401610428565b83806109405750816002015486868381811061093657610936611c02565b9050602002013514155b61097b5760405162461bcd60e51b815260206004820152600c60248201526b524f4f545f4f4e5f52494e4760a01b6044820152606401610428565b6109a986868381811061099057610990611c02565b905060200201358360030161100790919063ffffffff16565b6109e55760405162461bcd60e51b815260206004820152600d60248201526c4e4f4e5f54525553545f4b455960981b6044820152606401610428565b806109ef81611bd3565b9150506108b1565b5060019695505050505050565b600060ca6000610a1387610eee565b815260208101919091526040016000209050610a326003820184611007565b610a4e5760405162461bcd60e51b815260040161042890611af8565b60c954604051633faf3d6b60e01b81526001600160a01b038681166004830152602482018690526044820185905290911690633faf3d6b90606401600060405180830381600087803b158015610aa357600080fd5b505af1158015610ab7573d6000803e3d6000fd5b505050505050505050565b610aca6113a1565b610ad460006113fb565b565b60cd54600082815260cc602081815260408084205480855260ca83528185208786526005018352908420549290915291928392839283926060929088109190610b1e89610dd8565b60008a815260cc6020908152604080832054835260ca9091529020610b459060030161144d565b939a9299509097509550909350915050565b600081815260ca60205260409020606090610b749060030161145a565b600003610b8357610b83611bec565b600082815260ca60205260409020610b9d9060030161144d565b92915050565b600054610100900460ff1615808015610bc35750600054600160ff909116105b80610bdd5750303b158015610bdd575060005460ff166001145b610c405760405162461bcd60e51b815260206004820152602e60248201527f496e697469616c697a61626c653a20636f6e747261637420697320616c72656160448201526d191e481a5b9a5d1a585b1a5e995960921b6064820152608401610428565b6000805460ff191660011790558015610c63576000805461ff0019166101001790555b610c6b611464565b610c73611493565b60c980546001600160a01b0319166001600160a01b0384161790558015610787576000805461ff0019169055604051600181527f7f26b83ff96e1f2b6a682f133852f6798a09c465da95921460cefb38474024989060200160405180910390a15050565b60cb8054600081815260ca60205260408120909283929083610cf883611bd3565b90915550815560cd8054906000610d0e83611bd3565b909155506002820181905560018201869055610d2e906003830190611395565b5060028101805460009081526005830160209081526040808320631c9bdbdd60e21b905584548454845260cc9092528220559054610d70918391908790611022565b805460018201546040805133815260208101939093528201526001600160a01b03851660608201527fd91e2f64746507b28147d9ed981a07fe6bf4e5935e328300ac680bb58aa1bbff9060800160405180910390a18054600290910154909590945092505050565b600060cd5482108015610e085750600082815260cc6020908152604080832054835260ca90915290206002015482145b8015610b9d5750600082815260cc6020908152604080832054835260ca9091529020610b9d9060030183611007565b600081815260ca602052604081208054600182015460028301548493849384939192909190610e686003850161145a565b9450945094509450509193509193565b610e806113a1565b6001600160a01b038116610ee55760405162461bcd60e51b815260206004820152602660248201527f4f776e61626c653a206e6577206f776e657220697320746865207a65726f206160448201526564647265737360d01b6064820152608401610428565b610638816113fb565b60c954604051630f5d2cd560e11b8152336004820152602481018390526000604482018190529182916001600160a01b0390911690631eba59aa90606401602060405180830381865afa158015610f49573d6000803e3d6000fd5b505050506040513d601f19601f82011682018060405250810190610f6d9190611c18565b11610fa95760405162461bcd60e51b815260206004820152600c60248201526b12d15657d393d517d211531160a21b6044820152606401610428565b600082815260cc602090815260408083205480845260ca909252909120600201548314610b9d5760405162461bcd60e51b815260206004820152600c60248201526b12d15657d393d517d493d3d560a21b6044820152606401610428565b600081815260018301602052604081205415155b9392505050565b61102f6003850184611395565b5080156111305760c954604051630f5d2cd560e11b81526001600160a01b038481166004830152602482018690526001604483015290911690633faf3d6b90849086908490631eba59aa90606401602060405180830381865afa15801561109a573d6000803e3d6000fd5b505050506040513d601f19601f820116820180604052508101906110be9190611c18565b6110c9906001611c31565b6040516001600160e01b031960e086901b1681526001600160a01b03909316600484015260248301919091526044820152606401600060405180830381600087803b15801561111757600080fd5b505af115801561112b573d6000803e3d6000fd5b505050505b60c95460405163731133e960e01b81526001600160a01b038481166004830152602482018690526001604483015260806064830152600060848301529091169063731133e99060a401600060405180830381600087803b15801561119357600080fd5b505af11580156111a7573d6000803e3d6000fd5b5050855460008681526005880160209081526040918290205482513381529182019390935280820188905260608101929092526001600160a01b0386166080830152517fe50957d1d876dc7be82af5865a9afa4320e3a26b1e1375bf412962745de3562a93509081900360a0019150a150505050565b6106386113a1565b7f4910fdfa16fed3260ed0e7147f7cc6da11a60208b5b9406d12a635614ffd91435460ff161561125d57611258836114ba565b505050565b826001600160a01b03166352d1902d6040518163ffffffff1660e01b8152600401602060405180830381865afa9250505080156112b7575060408051601f3d908101601f191682019092526112b491810190611c18565b60015b61131a5760405162461bcd60e51b815260206004820152602e60248201527f45524331393637557067726164653a206e657720696d706c656d656e7461746960448201526d6f6e206973206e6f74205555505360901b6064820152608401610428565b600080516020611d0383398151915281146113895760405162461bcd60e51b815260206004820152602960248201527f45524331393637557067726164653a20756e737570706f727465642070726f786044820152681a58589b195555525160ba1b6064820152608401610428565b50611258838383611556565b600061101b8383611581565b6033546001600160a01b03163314610ad45760405162461bcd60e51b815260206004820181905260248201527f4f776e61626c653a2063616c6c6572206973206e6f7420746865206f776e65726044820152606401610428565b603380546001600160a01b038381166001600160a01b0319831681179093556040519116919082907f8be0079c531659141344cd1fd0a4f28419497f9722a3daafe3b4186f6b6457e090600090a35050565b6060600061101b836115d0565b6000610b9d825490565b600054610100900460ff1661148b5760405162461bcd60e51b815260040161042890611c44565b610ad461162c565b600054610100900460ff16610ad45760405162461bcd60e51b815260040161042890611c44565b6001600160a01b0381163b6115275760405162461bcd60e51b815260206004820152602d60248201527f455243313936373a206e657720696d706c656d656e746174696f6e206973206e60448201526c1bdd08184818dbdb9d1c9858dd609a1b6064820152608401610428565b600080516020611d0383398151915280546001600160a01b0319166001600160a01b0392909216919091179055565b61155f8361165c565b60008251118061156c5750805b156112585761157b838361169c565b50505050565b60008181526001830160205260408120546115c857508154600181810184556000848152602080822090930184905584548482528286019093526040902091909155610b9d565b506000610b9d565b60608160000180548060200260200160405190810160405280929190818152602001828054801561162057602002820191906000526020600020905b81548152602001906001019080831161160c575b50505050509050919050565b600054610100900460ff166116535760405162461bcd60e51b815260040161042890611c44565b610ad4336113fb565b611665816114ba565b6040516001600160a01b038216907fbc7cd75a20ee27fd9adebab32041f755214dbc6bffa90cc0225b39da2e5c2d3b90600090a250565b60606001600160a01b0383163b6117045760405162461bcd60e51b815260206004820152602660248201527f416464726573733a2064656c65676174652063616c6c20746f206e6f6e2d636f6044820152651b9d1c9858dd60d21b6064820152608401610428565b600080846001600160a01b03168460405161171f9190611cb3565b600060405180830381855af49150503d806000811461175a576040519150601f19603f3d011682016040523d82523d6000602084013e61175f565b606091505b50915091506117878282604051806060016040528060278152602001611d2360279139611790565b95945050505050565b6060831561179f57508161101b565b8251156117af5782518084602001fd5b8160405162461bcd60e51b81526004016104289190611ccf565b80356001600160a01b03811681146117e057600080fd5b919050565b600080600080608085870312156117fb57600080fd5b8435935060208501359250611812604086016117c9565b9396929550929360600135925050565b803580151581146117e057600080fd5b6000806000806080858703121561184857600080fd5b843593506020850135925061185f604086016117c9565b915061186d60608601611822565b905092959194509250565b60006020828403121561188a57600080fd5b61101b826117c9565b634e487b7160e01b600052604160045260246000fd5b600080604083850312156118bc57600080fd5b6118c5836117c9565b9150602083013567ffffffffffffffff808211156118e257600080fd5b818501915085601f8301126118f657600080fd5b81358181111561190857611908611893565b604051601f8201601f19908116603f0116810190838211818310171561193057611930611893565b8160405282815288602084870101111561194957600080fd5b8260208601602083013760006020848301015280955050505050509250929050565b6000806000806060858703121561198157600080fd5b84359350602085013567ffffffffffffffff808211156119a057600080fd5b818701915087601f8301126119b457600080fd5b8135818111156119c357600080fd5b8860208260051b85010111156119d857600080fd5b60208301955080945050505061186d60408601611822565b60008060008060808587031215611a0657600080fd5b84359350611a16602086016117c9565b93969395505050506040820135916060013590565b600060208284031215611a3d57600080fd5b5035919050565b600081518084526020808501945080840160005b83811015611a7457815187529582019590820190600101611a58565b509495945050505050565b8515158152846020820152836040820152821515606082015260a060808201526000611aae60a0830184611a44565b979650505050505050565b60208152600061101b6020830184611a44565b60008060408385031215611adf57600080fd5b82359150611aef602084016117c9565b90509250929050565b60208082526013908201527215149554d517d2d15657d393d517d193d55391606a1b604082015260600190565b6020808252602c908201527f46756e6374696f6e206d7573742062652063616c6c6564207468726f7567682060408201526b19195b1959d85d1958d85b1b60a21b606082015260800190565b6020808252602c908201527f46756e6374696f6e206d7573742062652063616c6c6564207468726f7567682060408201526b6163746976652070726f787960a01b606082015260800190565b634e487b7160e01b600052601160045260246000fd5b600060018201611be557611be5611bbd565b5060010190565b634e487b7160e01b600052600160045260246000fd5b634e487b7160e01b600052603260045260246000fd5b600060208284031215611c2a57600080fd5b5051919050565b80820180821115610b9d57610b9d611bbd565b6020808252602b908201527f496e697469616c697a61626c653a20636f6e7472616374206973206e6f74206960408201526a6e697469616c697a696e6760a81b606082015260800190565b60005b83811015611caa578181015183820152602001611c92565b50506000910152565b60008251611cc5818460208701611c8f565b9190910192915050565b6020815260008251806020840152611cee816040850160208701611c8f565b601f01601f1916919091016040019291505056fe360894a13ba1a3210667c828492db98dca3e2076cc3735a920a3ca505d382bbc416464726573733a206c6f772d6c6576656c2064656c65676174652063616c6c206661696c6564a2646970667358221220c4530d31add8100d7059fae4e2edcafc79e1e429583624c8d2c7b3fdabbd51b664736f6c63430008100033",
  "linkReferences": {},
  "deployedLinkReferences": {}
}