{
  "_format": "hh-sol-artifact-1",
  "contractName": "Locksmith",
  "sourceName": "contracts/Locksmith.sol",
  "abi": [
    {
      "inputs": [],
      "stateMutability": "nonpayable",
      "type": "constructor"
    },
    {
      "anonymous": false,
      "inputs": [
        {
          "indexed": false,
          "internalType": "address",
          "name": "previousAdmin",
          "type": "address"
        },
        {
          "indexed": false,
          "internalType": "address",
          "name": "newAdmin",
          "type": "address"
        }
      ],
      "name": "AdminChanged",
      "type": "event"
    },
    {
      "anonymous": false,
      "inputs": [
        {
          "indexed": true,
          "internalType": "address",
          "name": "beacon",
          "type": "address"
        }
      ],
      "name": "BeaconUpgraded",
      "type": "event"
    },
    {
      "anonymous": false,
      "inputs": [
        {
          "indexed": false,
          "internalType": "uint8",
          "name": "version",
          "type": "uint8"
        }
      ],
      "name": "Initialized",
      "type": "event"
    },
    {
      "anonymous": false,
      "inputs": [
        {
          "indexed": true,
          "internalType": "address",
          "name": "previousOwner",
          "type": "address"
        },
        {
          "indexed": true,
          "internalType": "address",
          "name": "newOwner",
          "type": "address"
        }
      ],
      "name": "OwnershipTransferred",
      "type": "event"
    },
    {
      "anonymous": false,
      "inputs": [
        {
          "indexed": true,
          "internalType": "address",
          "name": "implementation",
          "type": "address"
        }
      ],
      "name": "Upgraded",
      "type": "event"
    },
    {
      "anonymous": false,
      "inputs": [
        {
          "indexed": false,
          "internalType": "address",
          "name": "rootHolder",
          "type": "address"
        },
        {
          "indexed": false,
          "internalType": "uint256",
          "name": "trustId",
          "type": "uint256"
        },
        {
          "indexed": false,
          "internalType": "uint256",
          "name": "keyId",
          "type": "uint256"
        },
        {
          "indexed": false,
          "internalType": "address",
          "name": "target",
          "type": "address"
        },
        {
          "indexed": false,
          "internalType": "uint256",
          "name": "amount",
          "type": "uint256"
        }
      ],
      "name": "keyBurned",
      "type": "event"
    },
    {
      "anonymous": false,
      "inputs": [
        {
          "indexed": false,
          "internalType": "address",
          "name": "creator",
          "type": "address"
        },
        {
          "indexed": false,
          "internalType": "uint256",
          "name": "trustId",
          "type": "uint256"
        },
        {
          "indexed": false,
          "internalType": "uint256",
          "name": "keyId",
          "type": "uint256"
        },
        {
          "indexed": false,
          "internalType": "bytes32",
          "name": "keyName",
          "type": "bytes32"
        },
        {
          "indexed": false,
          "internalType": "address",
          "name": "receiver",
          "type": "address"
        }
      ],
      "name": "keyMinted",
      "type": "event"
    },
    {
      "anonymous": false,
      "inputs": [
        {
          "indexed": false,
          "internalType": "address",
          "name": "creator",
          "type": "address"
        },
        {
          "indexed": false,
          "internalType": "uint256",
          "name": "trustId",
          "type": "uint256"
        },
        {
          "indexed": false,
          "internalType": "bytes32",
          "name": "trustName",
          "type": "bytes32"
        }
      ],
      "name": "trustCreated",
      "type": "event"
    },
    {
      "inputs": [
        {
          "internalType": "uint256",
          "name": "rootKeyId",
          "type": "uint256"
        },
        {
          "internalType": "uint256",
          "name": "keyId",
          "type": "uint256"
        },
        {
          "internalType": "address",
          "name": "holder",
          "type": "address"
        },
        {
          "internalType": "uint256",
          "name": "amount",
          "type": "uint256"
        }
      ],
      "name": "burnKey",
      "outputs": [],
      "stateMutability": "nonpayable",
      "type": "function"
    },
    {
      "inputs": [
        {
          "internalType": "uint256",
          "name": "rootKeyId",
          "type": "uint256"
        },
        {
          "internalType": "uint256",
          "name": "keyId",
          "type": "uint256"
        },
        {
          "internalType": "address",
          "name": "receiver",
          "type": "address"
        },
        {
          "internalType": "bool",
          "name": "bind",
          "type": "bool"
        }
      ],
      "name": "copyKey",
      "outputs": [],
      "stateMutability": "nonpayable",
      "type": "function"
    },
    {
      "inputs": [
        {
          "internalType": "uint256",
          "name": "rootKeyId",
          "type": "uint256"
        },
        {
          "internalType": "bytes32",
          "name": "keyName",
          "type": "bytes32"
        },
        {
          "internalType": "address",
          "name": "receiver",
          "type": "address"
        },
        {
          "internalType": "bool",
          "name": "bind",
          "type": "bool"
        }
      ],
      "name": "createKey",
      "outputs": [],
      "stateMutability": "nonpayable",
      "type": "function"
    },
    {
      "inputs": [
        {
          "internalType": "bytes32",
          "name": "trustName",
          "type": "bytes32"
        }
      ],
      "name": "createTrustAndRootKey",
      "outputs": [],
      "stateMutability": "nonpayable",
      "type": "function"
    },
    {
      "inputs": [
        {
          "internalType": "uint256",
          "name": "trustId",
          "type": "uint256"
        }
      ],
      "name": "getKeys",
      "outputs": [
        {
          "internalType": "uint256[]",
          "name": "",
          "type": "uint256[]"
        }
      ],
      "stateMutability": "view",
      "type": "function"
    },
    {
      "inputs": [
        {
          "internalType": "address",
          "name": "_KeyVault",
          "type": "address"
        }
      ],
      "name": "initialize",
      "outputs": [],
      "stateMutability": "nonpayable",
      "type": "function"
    },
    {
      "inputs": [
        {
          "internalType": "uint256",
          "name": "keyId",
          "type": "uint256"
        }
      ],
      "name": "inspectKey",
      "outputs": [
        {
          "internalType": "bool",
          "name": "",
          "type": "bool"
        },
        {
          "internalType": "bytes32",
          "name": "",
          "type": "bytes32"
        },
        {
          "internalType": "uint256",
          "name": "",
          "type": "uint256"
        },
        {
          "internalType": "bool",
          "name": "",
          "type": "bool"
        },
        {
          "internalType": "uint256[]",
          "name": "",
          "type": "uint256[]"
        }
      ],
      "stateMutability": "view",
      "type": "function"
    },
    {
      "inputs": [
        {
          "internalType": "uint256",
          "name": "keyId",
          "type": "uint256"
        }
      ],
      "name": "isRootKey",
      "outputs": [
        {
          "internalType": "bool",
          "name": "",
          "type": "bool"
        }
      ],
      "stateMutability": "view",
      "type": "function"
    },
    {
      "inputs": [],
      "name": "keyCount",
      "outputs": [
        {
          "internalType": "uint256",
          "name": "",
          "type": "uint256"
        }
      ],
      "stateMutability": "view",
      "type": "function"
    },
    {
      "inputs": [
        {
          "internalType": "uint256",
          "name": "",
          "type": "uint256"
        }
      ],
      "name": "keyTrustAssociations",
      "outputs": [
        {
          "internalType": "uint256",
          "name": "",
          "type": "uint256"
        }
      ],
      "stateMutability": "view",
      "type": "function"
    },
    {
      "inputs": [],
      "name": "keyVault",
      "outputs": [
        {
          "internalType": "contract KeyVault",
          "name": "",
          "type": "address"
        }
      ],
      "stateMutability": "view",
      "type": "function"
    },
    {
      "inputs": [],
      "name": "owner",
      "outputs": [
        {
          "internalType": "address",
          "name": "",
          "type": "address"
        }
      ],
      "stateMutability": "view",
      "type": "function"
    },
    {
      "inputs": [],
      "name": "proxiableUUID",
      "outputs": [
        {
          "internalType": "bytes32",
          "name": "",
          "type": "bytes32"
        }
      ],
      "stateMutability": "view",
      "type": "function"
    },
    {
      "inputs": [],
      "name": "renounceOwnership",
      "outputs": [],
      "stateMutability": "nonpayable",
      "type": "function"
    },
    {
      "inputs": [
        {
          "internalType": "uint256",
          "name": "rootKeyId",
          "type": "uint256"
        },
        {
          "internalType": "address",
          "name": "keyHolder",
          "type": "address"
        },
        {
          "internalType": "uint256",
          "name": "keyId",
          "type": "uint256"
        },
        {
          "internalType": "uint256",
          "name": "amount",
          "type": "uint256"
        }
      ],
      "name": "soulbindKey",
      "outputs": [],
      "stateMutability": "nonpayable",
      "type": "function"
    },
    {
      "inputs": [
        {
          "internalType": "address",
          "name": "newOwner",
          "type": "address"
        }
      ],
      "name": "transferOwnership",
      "outputs": [],
      "stateMutability": "nonpayable",
      "type": "function"
    },
    {
      "inputs": [
        {
          "internalType": "uint256",
          "name": "",
          "type": "uint256"
        }
      ],
      "name": "trustRegistry",
      "outputs": [
        {
          "internalType": "uint256",
          "name": "id",
          "type": "uint256"
        },
        {
          "internalType": "bytes32",
          "name": "name",
          "type": "bytes32"
        },
        {
          "internalType": "uint256",
          "name": "rootKeyId",
          "type": "uint256"
        },
        {
          "internalType": "uint256",
          "name": "trustKeyCount",
          "type": "uint256"
        }
      ],
      "stateMutability": "view",
      "type": "function"
    },
    {
      "inputs": [
        {
          "internalType": "address",
          "name": "newImplementation",
          "type": "address"
        }
      ],
      "name": "upgradeTo",
      "outputs": [],
      "stateMutability": "nonpayable",
      "type": "function"
    },
    {
      "inputs": [
        {
          "internalType": "address",
          "name": "newImplementation",
          "type": "address"
        },
        {
          "internalType": "bytes",
          "name": "data",
          "type": "bytes"
        }
      ],
      "name": "upgradeToAndCall",
      "outputs": [],
      "stateMutability": "payable",
      "type": "function"
    },
    {
      "inputs": [
        {
          "internalType": "uint256",
          "name": "trustId",
          "type": "uint256"
        },
        {
          "internalType": "uint256[]",
          "name": "keys",
          "type": "uint256[]"
        },
        {
          "internalType": "bool",
          "name": "allowRoot",
          "type": "bool"
        }
      ],
      "name": "validateKeyRing",
      "outputs": [
        {
          "internalType": "bool",
          "name": "",
          "type": "bool"
        }
      ],
      "stateMutability": "view",
      "type": "function"
    }
  ],
  "bytecode": "0x60a06040523073ffffffffffffffffffffffffffffffffffffffff1660809073ffffffffffffffffffffffffffffffffffffffff168152503480156200004457600080fd5b50620000556200005b60201b60201c565b62000206565b600060019054906101000a900460ff1615620000ae576040517f08c379a0000000000000000000000000000000000000000000000000000000008152600401620000a590620001a9565b60405180910390fd5b60ff801660008054906101000a900460ff1660ff161015620001205760ff6000806101000a81548160ff021916908360ff1602179055507f7f26b83ff96e1f2b6a682f133852f6798a09c465da95921460cefb384740249860ff604051620001179190620001e9565b60405180910390a15b565b600082825260208201905092915050565b7f496e697469616c697a61626c653a20636f6e747261637420697320696e69746960008201527f616c697a696e6700000000000000000000000000000000000000000000000000602082015250565b60006200019160278362000122565b91506200019e8262000133565b604082019050919050565b60006020820190508181036000830152620001c48162000182565b9050919050565b600060ff82169050919050565b620001e381620001cb565b82525050565b6000602082019050620002006000830184620001d8565b92915050565b6080516135696200023e600039600081816106ca015281816107580152818161091b015281816109a90152610a5901526135696000f3fe60806040526004361061011f5760003560e01c806388ecda52116100a0578063c4d66de811610064578063c4d66de8146103dd578063d1301b9814610406578063d2bd0fad1461042f578063f2fde38b1461046c578063fac750e0146104955761011f565b806388ecda52146102cc5780638d357fa31461030d5780638da5cb5b1461034a578063a1ca668714610375578063a9150ea8146103a05761011f565b806352d1902d116100e757806352d1902d146101e457806353a81ee11461020f5780636d7012fa1461024c578063715018a614610275578063886b43f51461028c5761011f565b80631151166814610124578063218fa8e61461014d5780633659cfe6146101765780634be8b11c1461019f5780634f1ef286146101c8575b600080fd5b34801561013057600080fd5b5061014b60048036038101906101469190611f72565b6104c0565b005b34801561015957600080fd5b50610174600480360381019061016f9190612011565b61063e565b005b34801561018257600080fd5b5061019d60048036038101906101989190612078565b6106c8565b005b3480156101ab57600080fd5b506101c660048036038101906101c191906120db565b610850565b005b6101e260048036038101906101dd9190612288565b610919565b005b3480156101f057600080fd5b506101f9610a55565b60405161020691906122f3565b60405180910390f35b34801561021b57600080fd5b506102366004803603810190610231919061236e565b610b0e565b60405161024391906123f1565b60405180910390f35b34801561025857600080fd5b50610273600480360381019061026e919061240c565b610cfa565b005b34801561028157600080fd5b5061028a610e09565b005b34801561029857600080fd5b506102b360048036038101906102ae9190612473565b610e1d565b6040516102c394939291906124af565b60405180910390f35b3480156102d857600080fd5b506102f360048036038101906102ee9190612473565b610e4d565b6040516103049594939291906125b2565b60405180910390f35b34801561031957600080fd5b50610334600480360381019061032f9190612473565b610f40565b604051610341919061260c565b60405180910390f35b34801561035657600080fd5b5061035f610fd8565b60405161036c919061263d565b60405180910390f35b34801561038157600080fd5b5061038a611002565b60405161039791906126b7565b60405180910390f35b3480156103ac57600080fd5b506103c760048036038101906103c29190612473565b611028565b6040516103d491906126d2565b60405180910390f35b3480156103e957600080fd5b5061040460048036038101906103ff9190612078565b611040565b005b34801561041257600080fd5b5061042d600480360381019061042891906126ed565b6111c8565b005b34801561043b57600080fd5b5061045660048036038101906104519190612473565b611327565b60405161046391906123f1565b60405180910390f35b34801561047857600080fd5b50610493600480360381019061048e9190612078565b6113af565b005b3480156104a157600080fd5b506104aa611432565b6040516104b791906126d2565b60405180910390f35b600060ca60006104cf87611438565b8152602001908152602001600020905060008160060160008681526020019081526020016000205411610537576040517f08c379a000000000000000000000000000000000000000000000000000000000815260040161052e90612777565b60405180910390fd5b60c960009054906101000a900473ffffffffffffffffffffffffffffffffffffffff1673ffffffffffffffffffffffffffffffffffffffff1663f5298aca8486856040518463ffffffff1660e01b815260040161059693929190612797565b600060405180830381600087803b1580156105b057600080fd5b505af11580156105c4573d6000803e3d6000fd5b505050508181600701600086815260200190815260200160002060008282546105ed91906127fd565b925050819055507f707b83adf4af3b12b746160986598d56e5b5d926ad0a6ce43d49c35bb77b585633826000015486868660405161062f959493929190612831565b60405180910390a15050505050565b600060ca600061064d87611438565b81526020019081526020016000209050600081600601600086815260200190815260200160002054116106b5576040517f08c379a00000000000000000000000000000000000000000000000000000000081526004016106ac90612777565b60405180910390fd5b6106c181858585611591565b5050505050565b7f000000000000000000000000000000000000000000000000000000000000000073ffffffffffffffffffffffffffffffffffffffff163073ffffffffffffffffffffffffffffffffffffffff1603610756576040517f08c379a000000000000000000000000000000000000000000000000000000000815260040161074d906128f6565b60405180910390fd5b7f000000000000000000000000000000000000000000000000000000000000000073ffffffffffffffffffffffffffffffffffffffff166107956117ed565b73ffffffffffffffffffffffffffffffffffffffff16146107eb576040517f08c379a00000000000000000000000000000000000000000000000000000000081526004016107e290612988565b60405180910390fd5b6107f481611844565b61084d81600067ffffffffffffffff8111156108135761081261215d565b5b6040519080825280601f01601f1916602001820160405280156108455781602001600182028036833780820191505090505b50600061184f565b50565b600060cd6000815480929190610865906129a8565b919050559050600060ca600061087a88611438565b8152602001908152602001600020905080600301600081548092919061089f906129a8565b9190505550806004018290806001815401808255809150506001900390600052602060002001600090919091909150558481600501600084815260200190815260200160002081905550806000015460cc60008481526020019081526020016000208190555061091181838686611591565b505050505050565b7f000000000000000000000000000000000000000000000000000000000000000073ffffffffffffffffffffffffffffffffffffffff163073ffffffffffffffffffffffffffffffffffffffff16036109a7576040517f08c379a000000000000000000000000000000000000000000000000000000000815260040161099e906128f6565b60405180910390fd5b7f000000000000000000000000000000000000000000000000000000000000000073ffffffffffffffffffffffffffffffffffffffff166109e66117ed565b73ffffffffffffffffffffffffffffffffffffffff1614610a3c576040517f08c379a0000000000000000000000000000000000000000000000000000000008152600401610a3390612988565b60405180910390fd5b610a4582611844565b610a518282600161184f565b5050565b60007f000000000000000000000000000000000000000000000000000000000000000073ffffffffffffffffffffffffffffffffffffffff163073ffffffffffffffffffffffffffffffffffffffff1614610ae5576040517f08c379a0000000000000000000000000000000000000000000000000000000008152600401610adc90612a62565b60405180910390fd5b7f360894a13ba1a3210667c828492db98dca3e2076cc3735a920a3ca505d382bbc60001b905090565b600060cb548510610b54576040517f08c379a0000000000000000000000000000000000000000000000000000000008152600401610b4b90612ace565b60405180910390fd5b600060ca600087815260200190815260200160002090506000816006016000836002015481526020019081526020016000205411610b9557610b94612aee565b5b60005b85859050811015610cec5760cd54868683818110610bb957610bb8612b1d565b5b9050602002013510610c00576040517f08c379a0000000000000000000000000000000000000000000000000000000008152600401610bf790612b98565b60405180910390fd5b8380610c2957508160020154868683818110610c1f57610c1e612b1d565b5b9050602002013514155b610c68576040517f08c379a0000000000000000000000000000000000000000000000000000000008152600401610c5f90612c04565b60405180910390fd5b6000826006016000888885818110610c8357610c82612b1d565b5b9050602002013581526020019081526020016000205411610cd9576040517f08c379a0000000000000000000000000000000000000000000000000000000008152600401610cd090612c70565b60405180910390fd5b8080610ce4906129a8565b915050610b98565b506001915050949350505050565b600060ca6000610d0987611438565b8152602001908152602001600020905060008160060160008581526020019081526020016000205411610d71576040517f08c379a0000000000000000000000000000000000000000000000000000000008152600401610d6890612777565b60405180910390fd5b60c960009054906101000a900473ffffffffffffffffffffffffffffffffffffffff1673ffffffffffffffffffffffffffffffffffffffff16633faf3d6b8585856040518463ffffffff1660e01b8152600401610dd093929190612797565b600060405180830381600087803b158015610dea57600080fd5b505af1158015610dfe573d6000803e3d6000fd5b505050505050505050565b610e116119bd565b610e1b6000611a3b565b565b60ca6020528060005260406000206000915090508060000154908060010154908060020154908060030154905084565b600080600080606060cd54861060ca600060cc60008a815260200190815260200160002054815260200190815260200160002060050160008881526020019081526020016000205460cc600089815260200190815260200160002054610eb289611327565b60ca600060cc60008d815260200190815260200160002054815260200190815260200160002060040180805480602002602001604051908101604052809291908181526020018280548015610f2657602002820191906000526020600020905b815481526020019060010190808311610f12575b505050505090509450945094509450945091939590929450565b6060600060ca60008481526020019081526020016000206004018054905003610f6c57610f6b612aee565b5b60ca6000838152602001908152602001600020600401805480602002602001604051908101604052809291908181526020018280548015610fcc57602002820191906000526020600020905b815481526020019060010190808311610fb8575b50505050509050919050565b6000603360009054906101000a900473ffffffffffffffffffffffffffffffffffffffff16905090565b60c960009054906101000a900473ffffffffffffffffffffffffffffffffffffffff1681565b60cc6020528060005260406000206000915090505481565b60008060019054906101000a900460ff161590508080156110715750600160008054906101000a900460ff1660ff16105b8061109e575061108030611b01565b15801561109d5750600160008054906101000a900460ff1660ff16145b5b6110dd576040517f08c379a00000000000000000000000000000000000000000000000000000000081526004016110d490612d02565b60405180910390fd5b60016000806101000a81548160ff021916908360ff160217905550801561111a576001600060016101000a81548160ff0219169083151502179055505b611122611b24565b61112a611b7d565b8160c960006101000a81548173ffffffffffffffffffffffffffffffffffffffff021916908373ffffffffffffffffffffffffffffffffffffffff16021790555080156111c45760008060016101000a81548160ff0219169083151502179055507f7f26b83ff96e1f2b6a682f133852f6798a09c465da95921460cefb384740249860016040516111bb9190612d6a565b60405180910390a15b5050565b600060ca600060cb548152602001908152602001600020905060cb60008154809291906111f4906129a8565b91905055816000018190555060cd6000815480929190611213906129a8565b919050558160020181905550806003016000815480929190611234906129a8565b919050555081816001018190555080600401816002015490806001815401808255809150506001900390600052602060002001600090919091909150557f726f6f74000000000000000000000000000000000000000000000000000000008160050160008360020154815260200190815260200160002081905550806000015460cc600083600201548152602001908152602001600020819055506112e0818260020154336000611591565b7f0dba6b4c0e73f7e049a3b9ee5487b75e18a37e11d8d4f0a5e0a8c8a708192c2b338260000154836001015460405161131b93929190612d85565b60405180910390a15050565b600060cd5482108015611362575060ca600060cc60008581526020019081526020016000205481526020019081526020016000206002015482145b80156113a85750600060ca600060cc6000868152602001908152602001600020548152602001908152602001600020600601600084815260200190815260200160002054115b9050919050565b6113b76119bd565b600073ffffffffffffffffffffffffffffffffffffffff168173ffffffffffffffffffffffffffffffffffffffff1603611426576040517f08c379a000000000000000000000000000000000000000000000000000000000815260040161141d90612e2e565b60405180910390fd5b61142f81611a3b565b50565b60cd5481565b60008060c960009054906101000a900473ffffffffffffffffffffffffffffffffffffffff1673ffffffffffffffffffffffffffffffffffffffff1662fdd58e33856040518363ffffffff1660e01b8152600401611497929190612e4e565b602060405180830381865afa1580156114b4573d6000803e3d6000fd5b505050506040513d601f19601f820116820180604052508101906114d89190612e8c565b11611518576040517f08c379a000000000000000000000000000000000000000000000000000000000815260040161150f90612f05565b60405180910390fd5b600060cc600084815260200190815260200160002054905060ca6000828152602001908152602001600020600201548314611588576040517f08c379a000000000000000000000000000000000000000000000000000000000815260040161157f90612f71565b60405180910390fd5b80915050919050565b83600601600084815260200190815260200160002060008154809291906115b7906129a8565b919050555080156116fd5760c960009054906101000a900473ffffffffffffffffffffffffffffffffffffffff1673ffffffffffffffffffffffffffffffffffffffff16633faf3d6b8385600160c960009054906101000a900473ffffffffffffffffffffffffffffffffffffffff1673ffffffffffffffffffffffffffffffffffffffff1663808c5b3b888a6040518363ffffffff1660e01b8152600401611661929190612e4e565b602060405180830381865afa15801561167e573d6000803e3d6000fd5b505050506040513d601f19601f820116820180604052508101906116a29190612e8c565b6116ac91906127fd565b6040518463ffffffff1660e01b81526004016116ca93929190612797565b600060405180830381600087803b1580156116e457600080fd5b505af11580156116f8573d6000803e3d6000fd5b505050505b60c960009054906101000a900473ffffffffffffffffffffffffffffffffffffffff1673ffffffffffffffffffffffffffffffffffffffff1663731133e9838560016040518463ffffffff1660e01b815260040161175d93929190612ff9565b600060405180830381600087803b15801561177757600080fd5b505af115801561178b573d6000803e3d6000fd5b505050507fe50957d1d876dc7be82af5865a9afa4320e3a26b1e1375bf412962745de3562a3385600001548587600501600088815260200190815260200160002054866040516117df959493929190613043565b60405180910390a150505050565b600061181b7f360894a13ba1a3210667c828492db98dca3e2076cc3735a920a3ca505d382bbc60001b611bce565b60000160009054906101000a900473ffffffffffffffffffffffffffffffffffffffff16905090565b61184c6119bd565b50565b61187b7f4910fdfa16fed3260ed0e7147f7cc6da11a60208b5b9406d12a635614ffd914360001b611bd8565b60000160009054906101000a900460ff161561189f5761189a83611be2565b6119b8565b8273ffffffffffffffffffffffffffffffffffffffff166352d1902d6040518163ffffffff1660e01b8152600401602060405180830381865afa92505050801561190757506040513d601f19601f8201168201806040525081019061190491906130ab565b60015b611946576040517f08c379a000000000000000000000000000000000000000000000000000000000815260040161193d9061314a565b60405180910390fd5b7f360894a13ba1a3210667c828492db98dca3e2076cc3735a920a3ca505d382bbc60001b81146119ab576040517f08c379a00000000000000000000000000000000000000000000000000000000081526004016119a2906131dc565b60405180910390fd5b506119b7838383611c9b565b5b505050565b6119c5611cc7565b73ffffffffffffffffffffffffffffffffffffffff166119e3610fd8565b73ffffffffffffffffffffffffffffffffffffffff1614611a39576040517f08c379a0000000000000000000000000000000000000000000000000000000008152600401611a3090613248565b60405180910390fd5b565b6000603360009054906101000a900473ffffffffffffffffffffffffffffffffffffffff16905081603360006101000a81548173ffffffffffffffffffffffffffffffffffffffff021916908373ffffffffffffffffffffffffffffffffffffffff1602179055508173ffffffffffffffffffffffffffffffffffffffff168173ffffffffffffffffffffffffffffffffffffffff167f8be0079c531659141344cd1fd0a4f28419497f9722a3daafe3b4186f6b6457e060405160405180910390a35050565b6000808273ffffffffffffffffffffffffffffffffffffffff163b119050919050565b600060019054906101000a900460ff16611b73576040517f08c379a0000000000000000000000000000000000000000000000000000000008152600401611b6a906132da565b60405180910390fd5b611b7b611ccf565b565b600060019054906101000a900460ff16611bcc576040517f08c379a0000000000000000000000000000000000000000000000000000000008152600401611bc3906132da565b60405180910390fd5b565b6000819050919050565b6000819050919050565b611beb81611b01565b611c2a576040517f08c379a0000000000000000000000000000000000000000000000000000000008152600401611c219061336c565b60405180910390fd5b80611c577f360894a13ba1a3210667c828492db98dca3e2076cc3735a920a3ca505d382bbc60001b611bce565b60000160006101000a81548173ffffffffffffffffffffffffffffffffffffffff021916908373ffffffffffffffffffffffffffffffffffffffff16021790555050565b611ca483611d30565b600082511180611cb15750805b15611cc257611cc08383611d7f565b505b505050565b600033905090565b600060019054906101000a900460ff16611d1e576040517f08c379a0000000000000000000000000000000000000000000000000000000008152600401611d15906132da565b60405180910390fd5b611d2e611d29611cc7565b611a3b565b565b611d3981611be2565b8073ffffffffffffffffffffffffffffffffffffffff167fbc7cd75a20ee27fd9adebab32041f755214dbc6bffa90cc0225b39da2e5c2d3b60405160405180910390a250565b6060611d8a83611b01565b611dc9576040517f08c379a0000000000000000000000000000000000000000000000000000000008152600401611dc0906133fe565b60405180910390fd5b6000808473ffffffffffffffffffffffffffffffffffffffff1684604051611df1919061348f565b600060405180830381855af49150503d8060008114611e2c576040519150601f19603f3d011682016040523d82523d6000602084013e611e31565b606091505b5091509150611e59828260405180606001604052806027815260200161350d60279139611e63565b9250505092915050565b60608315611e7357829050611ec3565b600083511115611e865782518084602001fd5b816040517f08c379a0000000000000000000000000000000000000000000000000000000008152600401611eba91906134ea565b60405180910390fd5b9392505050565b6000604051905090565b600080fd5b600080fd5b6000819050919050565b611ef181611ede565b8114611efc57600080fd5b50565b600081359050611f0e81611ee8565b92915050565b600073ffffffffffffffffffffffffffffffffffffffff82169050919050565b6000611f3f82611f14565b9050919050565b611f4f81611f34565b8114611f5a57600080fd5b50565b600081359050611f6c81611f46565b92915050565b60008060008060808587031215611f8c57611f8b611ed4565b5b6000611f9a87828801611eff565b9450506020611fab87828801611eff565b9350506040611fbc87828801611f5d565b9250506060611fcd87828801611eff565b91505092959194509250565b60008115159050919050565b611fee81611fd9565b8114611ff957600080fd5b50565b60008135905061200b81611fe5565b92915050565b6000806000806080858703121561202b5761202a611ed4565b5b600061203987828801611eff565b945050602061204a87828801611eff565b935050604061205b87828801611f5d565b925050606061206c87828801611ffc565b91505092959194509250565b60006020828403121561208e5761208d611ed4565b5b600061209c84828501611f5d565b91505092915050565b6000819050919050565b6120b8816120a5565b81146120c357600080fd5b50565b6000813590506120d5816120af565b92915050565b600080600080608085870312156120f5576120f4611ed4565b5b600061210387828801611eff565b9450506020612114878288016120c6565b935050604061212587828801611f5d565b925050606061213687828801611ffc565b91505092959194509250565b600080fd5b600080fd5b6000601f19601f8301169050919050565b7f4e487b7100000000000000000000000000000000000000000000000000000000600052604160045260246000fd5b6121958261214c565b810181811067ffffffffffffffff821117156121b4576121b361215d565b5b80604052505050565b60006121c7611eca565b90506121d3828261218c565b919050565b600067ffffffffffffffff8211156121f3576121f261215d565b5b6121fc8261214c565b9050602081019050919050565b82818337600083830152505050565b600061222b612226846121d8565b6121bd565b90508281526020810184848401111561224757612246612147565b5b612252848285612209565b509392505050565b600082601f83011261226f5761226e612142565b5b813561227f848260208601612218565b91505092915050565b6000806040838503121561229f5761229e611ed4565b5b60006122ad85828601611f5d565b925050602083013567ffffffffffffffff8111156122ce576122cd611ed9565b5b6122da8582860161225a565b9150509250929050565b6122ed816120a5565b82525050565b600060208201905061230860008301846122e4565b92915050565b600080fd5b600080fd5b60008083601f84011261232e5761232d612142565b5b8235905067ffffffffffffffff81111561234b5761234a61230e565b5b60208301915083602082028301111561236757612366612313565b5b9250929050565b6000806000806060858703121561238857612387611ed4565b5b600061239687828801611eff565b945050602085013567ffffffffffffffff8111156123b7576123b6611ed9565b5b6123c387828801612318565b935093505060406123d687828801611ffc565b91505092959194509250565b6123eb81611fd9565b82525050565b600060208201905061240660008301846123e2565b92915050565b6000806000806080858703121561242657612425611ed4565b5b600061243487828801611eff565b945050602061244587828801611f5d565b935050604061245687828801611eff565b925050606061246787828801611eff565b91505092959194509250565b60006020828403121561248957612488611ed4565b5b600061249784828501611eff565b91505092915050565b6124a981611ede565b82525050565b60006080820190506124c460008301876124a0565b6124d160208301866122e4565b6124de60408301856124a0565b6124eb60608301846124a0565b95945050505050565b600081519050919050565b600082825260208201905092915050565b6000819050602082019050919050565b61252981611ede565b82525050565b600061253b8383612520565b60208301905092915050565b6000602082019050919050565b600061255f826124f4565b61256981856124ff565b935061257483612510565b8060005b838110156125a557815161258c888261252f565b975061259783612547565b925050600181019050612578565b5085935050505092915050565b600060a0820190506125c760008301886123e2565b6125d460208301876122e4565b6125e160408301866124a0565b6125ee60608301856123e2565b81810360808301526126008184612554565b90509695505050505050565b600060208201905081810360008301526126268184612554565b905092915050565b61263781611f34565b82525050565b6000602082019050612652600083018461262e565b92915050565b6000819050919050565b600061267d61267861267384611f14565b612658565b611f14565b9050919050565b600061268f82612662565b9050919050565b60006126a182612684565b9050919050565b6126b181612696565b82525050565b60006020820190506126cc60008301846126a8565b92915050565b60006020820190506126e760008301846124a0565b92915050565b60006020828403121561270357612702611ed4565b5b6000612711848285016120c6565b91505092915050565b600082825260208201905092915050565b7f54525553545f4b45595f4e4f545f464f554e4400000000000000000000000000600082015250565b600061276160138361271a565b915061276c8261272b565b602082019050919050565b6000602082019050818103600083015261279081612754565b9050919050565b60006060820190506127ac600083018661262e565b6127b960208301856124a0565b6127c660408301846124a0565b949350505050565b7f4e487b7100000000000000000000000000000000000000000000000000000000600052601160045260246000fd5b600061280882611ede565b915061281383611ede565b925082820190508082111561282b5761282a6127ce565b5b92915050565b600060a082019050612846600083018861262e565b61285360208301876124a0565b61286060408301866124a0565b61286d606083018561262e565b61287a60808301846124a0565b9695505050505050565b7f46756e6374696f6e206d7573742062652063616c6c6564207468726f7567682060008201527f64656c656761746563616c6c0000000000000000000000000000000000000000602082015250565b60006128e0602c8361271a565b91506128eb82612884565b604082019050919050565b6000602082019050818103600083015261290f816128d3565b9050919050565b7f46756e6374696f6e206d7573742062652063616c6c6564207468726f7567682060008201527f6163746976652070726f78790000000000000000000000000000000000000000602082015250565b6000612972602c8361271a565b915061297d82612916565b604082019050919050565b600060208201905081810360008301526129a181612965565b9050919050565b60006129b382611ede565b91507fffffffffffffffffffffffffffffffffffffffffffffffffffffffffffffffff82036129e5576129e46127ce565b5b600182019050919050565b7f555550535570677261646561626c653a206d757374206e6f742062652063616c60008201527f6c6564207468726f7567682064656c656761746563616c6c0000000000000000602082015250565b6000612a4c60388361271a565b9150612a57826129f0565b604082019050919050565b60006020820190508181036000830152612a7b81612a3f565b9050919050565b7f494e56414c49445f545255535400000000000000000000000000000000000000600082015250565b6000612ab8600d8361271a565b9150612ac382612a82565b602082019050919050565b60006020820190508181036000830152612ae781612aab565b9050919050565b7f4e487b7100000000000000000000000000000000000000000000000000000000600052600160045260246000fd5b7f4e487b7100000000000000000000000000000000000000000000000000000000600052603260045260246000fd5b7f494e56414c49445f4b45595f4f4e5f52494e4700000000000000000000000000600082015250565b6000612b8260138361271a565b9150612b8d82612b4c565b602082019050919050565b60006020820190508181036000830152612bb181612b75565b9050919050565b7f524f4f545f4f4e5f52494e470000000000000000000000000000000000000000600082015250565b6000612bee600c8361271a565b9150612bf982612bb8565b602082019050919050565b60006020820190508181036000830152612c1d81612be1565b9050919050565b7f4e4f4e5f54525553545f4b455900000000000000000000000000000000000000600082015250565b6000612c5a600d8361271a565b9150612c6582612c24565b602082019050919050565b60006020820190508181036000830152612c8981612c4d565b9050919050565b7f496e697469616c697a61626c653a20636f6e747261637420697320616c72656160008201527f647920696e697469616c697a6564000000000000000000000000000000000000602082015250565b6000612cec602e8361271a565b9150612cf782612c90565b604082019050919050565b60006020820190508181036000830152612d1b81612cdf565b9050919050565b6000819050919050565b600060ff82169050919050565b6000612d54612d4f612d4a84612d22565b612658565b612d2c565b9050919050565b612d6481612d39565b82525050565b6000602082019050612d7f6000830184612d5b565b92915050565b6000606082019050612d9a600083018661262e565b612da760208301856124a0565b612db460408301846122e4565b949350505050565b7f4f776e61626c653a206e6577206f776e657220697320746865207a65726f206160008201527f6464726573730000000000000000000000000000000000000000000000000000602082015250565b6000612e1860268361271a565b9150612e2382612dbc565b604082019050919050565b60006020820190508181036000830152612e4781612e0b565b9050919050565b6000604082019050612e63600083018561262e565b612e7060208301846124a0565b9392505050565b600081519050612e8681611ee8565b92915050565b600060208284031215612ea257612ea1611ed4565b5b6000612eb084828501612e77565b91505092915050565b7f4b45595f4e4f545f48454c440000000000000000000000000000000000000000600082015250565b6000612eef600c8361271a565b9150612efa82612eb9565b602082019050919050565b60006020820190508181036000830152612f1e81612ee2565b9050919050565b7f4b45595f4e4f545f524f4f540000000000000000000000000000000000000000600082015250565b6000612f5b600c8361271a565b9150612f6682612f25565b602082019050919050565b60006020820190508181036000830152612f8a81612f4e565b9050919050565b6000612fac612fa7612fa284612d22565b612658565b611ede565b9050919050565b612fbc81612f91565b82525050565b600082825260208201905092915050565b50565b6000612fe3600083612fc2565b9150612fee82612fd3565b600082019050919050565b600060808201905061300e600083018661262e565b61301b60208301856124a0565b6130286040830184612fb3565b818103606083015261303981612fd6565b9050949350505050565b600060a082019050613058600083018861262e565b61306560208301876124a0565b61307260408301866124a0565b61307f60608301856122e4565b61308c608083018461262e565b9695505050505050565b6000815190506130a5816120af565b92915050565b6000602082840312156130c1576130c0611ed4565b5b60006130cf84828501613096565b91505092915050565b7f45524331393637557067726164653a206e657720696d706c656d656e7461746960008201527f6f6e206973206e6f742055555053000000000000000000000000000000000000602082015250565b6000613134602e8361271a565b915061313f826130d8565b604082019050919050565b6000602082019050818103600083015261316381613127565b9050919050565b7f45524331393637557067726164653a20756e737570706f727465642070726f7860008201527f6961626c65555549440000000000000000000000000000000000000000000000602082015250565b60006131c660298361271a565b91506131d18261316a565b604082019050919050565b600060208201905081810360008301526131f5816131b9565b9050919050565b7f4f776e61626c653a2063616c6c6572206973206e6f7420746865206f776e6572600082015250565b600061323260208361271a565b915061323d826131fc565b602082019050919050565b6000602082019050818103600083015261326181613225565b9050919050565b7f496e697469616c697a61626c653a20636f6e7472616374206973206e6f74206960008201527f6e697469616c697a696e67000000000000000000000000000000000000000000602082015250565b60006132c4602b8361271a565b91506132cf82613268565b604082019050919050565b600060208201905081810360008301526132f3816132b7565b9050919050565b7f455243313936373a206e657720696d706c656d656e746174696f6e206973206e60008201527f6f74206120636f6e747261637400000000000000000000000000000000000000602082015250565b6000613356602d8361271a565b9150613361826132fa565b604082019050919050565b6000602082019050818103600083015261338581613349565b9050919050565b7f416464726573733a2064656c65676174652063616c6c20746f206e6f6e2d636f60008201527f6e74726163740000000000000000000000000000000000000000000000000000602082015250565b60006133e860268361271a565b91506133f38261338c565b604082019050919050565b60006020820190508181036000830152613417816133db565b9050919050565b600081519050919050565b600081905092915050565b60005b83811015613452578082015181840152602081019050613437565b60008484015250505050565b60006134698261341e565b6134738185613429565b9350613483818560208601613434565b80840191505092915050565b600061349b828461345e565b915081905092915050565b600081519050919050565b60006134bc826134a6565b6134c6818561271a565b93506134d6818560208601613434565b6134df8161214c565b840191505092915050565b6000602082019050818103600083015261350481846134b1565b90509291505056fe416464726573733a206c6f772d6c6576656c2064656c65676174652063616c6c206661696c6564a26469706673582212201e044cf5ce5afd48fb9bcc03f506a57e2a9e1862778a93f9cbc20be9639ea56664736f6c63430008100033",
  "linkReferences": {},
  "deployedLinkReferences": {}
}