{
  "_format": "hh-sol-artifact-1",
  "contractName": "Locksmith",
  "sourceName": "contracts/Locksmith.sol",
  "abi": [
    {
      "inputs": [],
      "stateMutability": "nonpayable",
      "type": "constructor"
    },
    {
      "anonymous": false,
      "inputs": [
        {
          "indexed": false,
          "internalType": "address",
          "name": "previousAdmin",
          "type": "address"
        },
        {
          "indexed": false,
          "internalType": "address",
          "name": "newAdmin",
          "type": "address"
        }
      ],
      "name": "AdminChanged",
      "type": "event"
    },
    {
      "anonymous": false,
      "inputs": [
        {
          "indexed": true,
          "internalType": "address",
          "name": "beacon",
          "type": "address"
        }
      ],
      "name": "BeaconUpgraded",
      "type": "event"
    },
    {
      "anonymous": false,
      "inputs": [
        {
          "indexed": false,
          "internalType": "uint8",
          "name": "version",
          "type": "uint8"
        }
      ],
      "name": "Initialized",
      "type": "event"
    },
    {
      "anonymous": false,
      "inputs": [
        {
          "indexed": true,
          "internalType": "address",
          "name": "previousOwner",
          "type": "address"
        },
        {
          "indexed": true,
          "internalType": "address",
          "name": "newOwner",
          "type": "address"
        }
      ],
      "name": "OwnershipTransferred",
      "type": "event"
    },
    {
      "anonymous": false,
      "inputs": [
        {
          "indexed": true,
          "internalType": "address",
          "name": "implementation",
          "type": "address"
        }
      ],
      "name": "Upgraded",
      "type": "event"
    },
    {
      "anonymous": false,
      "inputs": [
        {
          "indexed": false,
          "internalType": "address",
          "name": "rootHolder",
          "type": "address"
        },
        {
          "indexed": false,
          "internalType": "uint256",
          "name": "trustId",
          "type": "uint256"
        },
        {
          "indexed": false,
          "internalType": "uint256",
          "name": "keyId",
          "type": "uint256"
        },
        {
          "indexed": false,
          "internalType": "address",
          "name": "target",
          "type": "address"
        },
        {
          "indexed": false,
          "internalType": "uint256",
          "name": "amount",
          "type": "uint256"
        }
      ],
      "name": "keyBurned",
      "type": "event"
    },
    {
      "anonymous": false,
      "inputs": [
        {
          "indexed": false,
          "internalType": "address",
          "name": "creator",
          "type": "address"
        },
        {
          "indexed": false,
          "internalType": "uint256",
          "name": "trustId",
          "type": "uint256"
        },
        {
          "indexed": false,
          "internalType": "uint256",
          "name": "keyId",
          "type": "uint256"
        },
        {
          "indexed": false,
          "internalType": "bytes32",
          "name": "keyName",
          "type": "bytes32"
        },
        {
          "indexed": false,
          "internalType": "address",
          "name": "receiver",
          "type": "address"
        }
      ],
      "name": "keyMinted",
      "type": "event"
    },
    {
      "anonymous": false,
      "inputs": [
        {
          "indexed": false,
          "internalType": "address",
          "name": "creator",
          "type": "address"
        },
        {
          "indexed": false,
          "internalType": "uint256",
          "name": "trustId",
          "type": "uint256"
        },
        {
          "indexed": false,
          "internalType": "bytes32",
          "name": "trustName",
          "type": "bytes32"
        },
        {
          "indexed": false,
          "internalType": "address",
          "name": "recipient",
          "type": "address"
        }
      ],
      "name": "trustCreated",
      "type": "event"
    },
    {
      "inputs": [
        {
          "internalType": "uint256",
          "name": "rootKeyId",
          "type": "uint256"
        },
        {
          "internalType": "uint256",
          "name": "keyId",
          "type": "uint256"
        },
        {
          "internalType": "address",
          "name": "holder",
          "type": "address"
        },
        {
          "internalType": "uint256",
          "name": "amount",
          "type": "uint256"
        }
      ],
      "name": "burnKey",
      "outputs": [],
      "stateMutability": "nonpayable",
      "type": "function"
    },
    {
      "inputs": [
        {
          "internalType": "uint256",
          "name": "rootKeyId",
          "type": "uint256"
        },
        {
          "internalType": "uint256",
          "name": "keyId",
          "type": "uint256"
        },
        {
          "internalType": "address",
          "name": "receiver",
          "type": "address"
        },
        {
          "internalType": "bool",
          "name": "bind",
          "type": "bool"
        }
      ],
      "name": "copyKey",
      "outputs": [],
      "stateMutability": "nonpayable",
      "type": "function"
    },
    {
      "inputs": [
        {
          "internalType": "uint256",
          "name": "rootKeyId",
          "type": "uint256"
        },
        {
          "internalType": "bytes32",
          "name": "keyName",
          "type": "bytes32"
        },
        {
          "internalType": "address",
          "name": "receiver",
          "type": "address"
        },
        {
          "internalType": "bool",
          "name": "bind",
          "type": "bool"
        }
      ],
      "name": "createKey",
      "outputs": [],
      "stateMutability": "nonpayable",
      "type": "function"
    },
    {
      "inputs": [
        {
          "internalType": "bytes32",
          "name": "trustName",
          "type": "bytes32"
        },
        {
          "internalType": "address",
          "name": "recipient",
          "type": "address"
        }
      ],
      "name": "createTrustAndRootKey",
      "outputs": [],
      "stateMutability": "nonpayable",
      "type": "function"
    },
    {
      "inputs": [
        {
          "internalType": "uint256",
          "name": "trustId",
          "type": "uint256"
        }
      ],
      "name": "getKeys",
      "outputs": [
        {
          "internalType": "uint256[]",
          "name": "",
          "type": "uint256[]"
        }
      ],
      "stateMutability": "view",
      "type": "function"
    },
    {
      "inputs": [
        {
          "internalType": "address",
          "name": "_KeyVault",
          "type": "address"
        }
      ],
      "name": "initialize",
      "outputs": [],
      "stateMutability": "nonpayable",
      "type": "function"
    },
    {
      "inputs": [
        {
          "internalType": "uint256",
          "name": "keyId",
          "type": "uint256"
        }
      ],
      "name": "inspectKey",
      "outputs": [
        {
          "internalType": "bool",
          "name": "",
          "type": "bool"
        },
        {
          "internalType": "bytes32",
          "name": "",
          "type": "bytes32"
        },
        {
          "internalType": "uint256",
          "name": "",
          "type": "uint256"
        },
        {
          "internalType": "bool",
          "name": "",
          "type": "bool"
        },
        {
          "internalType": "uint256[]",
          "name": "",
          "type": "uint256[]"
        }
      ],
      "stateMutability": "view",
      "type": "function"
    },
    {
      "inputs": [
        {
          "internalType": "uint256",
          "name": "keyId",
          "type": "uint256"
        }
      ],
      "name": "isRootKey",
      "outputs": [
        {
          "internalType": "bool",
          "name": "",
          "type": "bool"
        }
      ],
      "stateMutability": "view",
      "type": "function"
    },
    {
      "inputs": [],
      "name": "keyCount",
      "outputs": [
        {
          "internalType": "uint256",
          "name": "",
          "type": "uint256"
        }
      ],
      "stateMutability": "view",
      "type": "function"
    },
    {
      "inputs": [
        {
          "internalType": "uint256",
          "name": "",
          "type": "uint256"
        }
      ],
      "name": "keyTrustAssociations",
      "outputs": [
        {
          "internalType": "uint256",
          "name": "",
          "type": "uint256"
        }
      ],
      "stateMutability": "view",
      "type": "function"
    },
    {
      "inputs": [],
      "name": "keyVault",
      "outputs": [
        {
          "internalType": "contract KeyVault",
          "name": "",
          "type": "address"
        }
      ],
      "stateMutability": "view",
      "type": "function"
    },
    {
      "inputs": [],
      "name": "owner",
      "outputs": [
        {
          "internalType": "address",
          "name": "",
          "type": "address"
        }
      ],
      "stateMutability": "view",
      "type": "function"
    },
    {
      "inputs": [],
      "name": "proxiableUUID",
      "outputs": [
        {
          "internalType": "bytes32",
          "name": "",
          "type": "bytes32"
        }
      ],
      "stateMutability": "view",
      "type": "function"
    },
    {
      "inputs": [],
      "name": "renounceOwnership",
      "outputs": [],
      "stateMutability": "nonpayable",
      "type": "function"
    },
    {
      "inputs": [
        {
          "internalType": "uint256",
          "name": "rootKeyId",
          "type": "uint256"
        },
        {
          "internalType": "address",
          "name": "keyHolder",
          "type": "address"
        },
        {
          "internalType": "uint256",
          "name": "keyId",
          "type": "uint256"
        },
        {
          "internalType": "uint256",
          "name": "amount",
          "type": "uint256"
        }
      ],
      "name": "soulbindKey",
      "outputs": [],
      "stateMutability": "nonpayable",
      "type": "function"
    },
    {
      "inputs": [
        {
          "internalType": "address",
          "name": "newOwner",
          "type": "address"
        }
      ],
      "name": "transferOwnership",
      "outputs": [],
      "stateMutability": "nonpayable",
      "type": "function"
    },
    {
      "inputs": [
        {
          "internalType": "uint256",
          "name": "",
          "type": "uint256"
        }
      ],
      "name": "trustRegistry",
      "outputs": [
        {
          "internalType": "uint256",
          "name": "id",
          "type": "uint256"
        },
        {
          "internalType": "bytes32",
          "name": "name",
          "type": "bytes32"
        },
        {
          "internalType": "uint256",
          "name": "rootKeyId",
          "type": "uint256"
        },
        {
          "internalType": "uint256",
          "name": "trustKeyCount",
          "type": "uint256"
        }
      ],
      "stateMutability": "view",
      "type": "function"
    },
    {
      "inputs": [
        {
          "internalType": "address",
          "name": "newImplementation",
          "type": "address"
        }
      ],
      "name": "upgradeTo",
      "outputs": [],
      "stateMutability": "nonpayable",
      "type": "function"
    },
    {
      "inputs": [
        {
          "internalType": "address",
          "name": "newImplementation",
          "type": "address"
        },
        {
          "internalType": "bytes",
          "name": "data",
          "type": "bytes"
        }
      ],
      "name": "upgradeToAndCall",
      "outputs": [],
      "stateMutability": "payable",
      "type": "function"
    },
    {
      "inputs": [
        {
          "internalType": "uint256",
          "name": "trustId",
          "type": "uint256"
        },
        {
          "internalType": "uint256[]",
          "name": "keys",
          "type": "uint256[]"
        },
        {
          "internalType": "bool",
          "name": "allowRoot",
          "type": "bool"
        }
      ],
      "name": "validateKeyRing",
      "outputs": [
        {
          "internalType": "bool",
          "name": "",
          "type": "bool"
        }
      ],
      "stateMutability": "view",
      "type": "function"
    }
  ],
  "bytecode": "0x60a06040523073ffffffffffffffffffffffffffffffffffffffff1660809073ffffffffffffffffffffffffffffffffffffffff168152503480156200004457600080fd5b50620000797f2092683a9a294494762347e9873b5f7b731bb005dd81148f8d4504a251967ca460001b620000f760201b60201c565b620000ad7fd4c790d523ddb466637dab5f1c49d0ae94fde8950a6d750eab9b765eedfaff0860001b620000f760201b60201c565b620000e17fb8ea1a23cf05defa848b3cda794a4554ab7072554a237689cf66d8eb9b8e369060001b620000f760201b60201c565b620000f1620000fa60201b60201c565b620002a5565b50565b600060019054906101000a900460ff16156200014d576040517f08c379a0000000000000000000000000000000000000000000000000000000008152600401620001449062000248565b60405180910390fd5b60ff801660008054906101000a900460ff1660ff161015620001bf5760ff6000806101000a81548160ff021916908360ff1602179055507f7f26b83ff96e1f2b6a682f133852f6798a09c465da95921460cefb384740249860ff604051620001b6919062000288565b60405180910390a15b565b600082825260208201905092915050565b7f496e697469616c697a61626c653a20636f6e747261637420697320696e69746960008201527f616c697a696e6700000000000000000000000000000000000000000000000000602082015250565b600062000230602783620001c1565b91506200023d82620001d2565b604082019050919050565b60006020820190508181036000830152620002638162000221565b9050919050565b600060ff82169050919050565b62000282816200026a565b82525050565b60006020820190506200029f600083018462000277565b92915050565b608051614c9e620002dd60003960008181610a9201528181610b2001528181610f4b01528181610fd901526110890152614c9e6000f3fe60806040526004361061011f5760003560e01c806388ecda52116100a0578063c4d66de811610064578063c4d66de8146103dd578063cf1f7f2514610406578063d2bd0fad1461042f578063f2fde38b1461046c578063fac750e0146104955761011f565b806388ecda52146102cc5780638d357fa31461030d5780638da5cb5b1461034a578063a1ca668714610375578063a9150ea8146103a05761011f565b806352d1902d116100e757806352d1902d146101e457806353a81ee11461020f5780636d7012fa1461024c578063715018a614610275578063886b43f51461028c5761011f565b80631151166814610124578063218fa8e61461014d5780633659cfe6146101765780634be8b11c1461019f5780634f1ef286146101c8575b600080fd5b34801561013057600080fd5b5061014b60048036038101906101469190613686565b6104c0565b005b34801561015957600080fd5b50610174600480360381019061016f9190613725565b61087a565b005b34801561018257600080fd5b5061019d6004803603810190610198919061378c565b610a90565b005b3480156101ab57600080fd5b506101c660048036038101906101c191906137ef565b610c18565b005b6101e260048036038101906101dd919061399c565b610f49565b005b3480156101f057600080fd5b506101f9611085565b6040516102069190613a07565b60405180910390f35b34801561021b57600080fd5b5061023660048036038101906102319190613a82565b61113e565b6040516102439190613b05565b60405180910390f35b34801561025857600080fd5b50610273600480360381019061026e9190613b20565b611776565b005b34801561028157600080fd5b5061028a611a11565b005b34801561029857600080fd5b506102b360048036038101906102ae9190613b87565b611a25565b6040516102c39493929190613bc3565b60405180910390f35b3480156102d857600080fd5b506102f360048036038101906102ee9190613b87565b611a55565b604051610304959493929190613cc6565b60405180910390f35b34801561031957600080fd5b50610334600480360381019061032f9190613b87565b611bcc565b6040516103419190613d20565b60405180910390f35b34801561035657600080fd5b5061035f611d40565b60405161036c9190613d51565b60405180910390f35b34801561038157600080fd5b5061038a611d6a565b6040516103979190613dcb565b60405180910390f35b3480156103ac57600080fd5b506103c760048036038101906103c29190613b87565b611d90565b6040516103d49190613de6565b60405180910390f35b3480156103e957600080fd5b5061040460048036038101906103ff919061378c565b611da8565b005b34801561041257600080fd5b5061042d60048036038101906104289190613e01565b612064565b005b34801561043b57600080fd5b5061045660048036038101906104519190613b87565b612536565b6040516104639190613b05565b60405180910390f35b34801561047857600080fd5b50610493600480360381019061048e919061378c565b612642565b005b3480156104a157600080fd5b506104aa6126c5565b6040516104b79190613de6565b60405180910390f35b6104ec7f9a8a785f954684b440341f2ed801b29ae935fbd2ca57a73fa65b67585b7d4e5760001b6126cb565b6105187f498269f368439e0f049c82eaf6f112a4a110d8ce6b2ecb7bb330c0c2150b91de60001b6126cb565b6105447fba0fa05e64599a7784b7e773cc9bc8ff326fe73e88b9629a90452e4ffd318d8860001b6126cb565b600060ca6000610553876126ce565b8152602001908152602001600020905061058f7f3616a8d200bf7701c673306b6d9f008e36381bd1eec8f6dd5b02063c11ab65c460001b6126cb565b6105bb7fdf4f36e6022adfc694b777727b32b16a4ebdf4fea16134da9bc47e046702f5c260001b6126cb565b6105e77f1704c810752c90858898c5de18daad2318de934408f8602e1462c978e486141760001b6126cb565b6000816006016000868152602001908152602001600020541161063f576040517f08c379a000000000000000000000000000000000000000000000000000000000815260040161063690613e9e565b60405180910390fd5b61066b7f7724ec6a7d5fc6bf96a10b0cbd4eb6f7277bea80a9633a9c953b3234008cd21b60001b6126cb565b6106977f1a0825b4ad4b51dd429518385cadeba0d7ebdabb1a5b8fa9a2877df37ece9c2860001b6126cb565b6106c37fd91d930454e0bee11037b979063a22772eeddca3d1d98381cf4e08657645722360001b6126cb565b60c960009054906101000a900473ffffffffffffffffffffffffffffffffffffffff1673ffffffffffffffffffffffffffffffffffffffff1663f5298aca8486856040518463ffffffff1660e01b815260040161072293929190613ebe565b600060405180830381600087803b15801561073c57600080fd5b505af1158015610750573d6000803e3d6000fd5b505050506107807f7f1a067a4bb060e94fbefe2034a530d321b6442f69da4d94db5727ab704e844960001b6126cb565b6107ac7f9fee8fd4ee9bd0742cc8df060daa887faf1b66f8e3379828db82ae92a7c46d8260001b6126cb565b8181600701600086815260200190815260200160002060008282546107d19190613f24565b925050819055506108047fd5d9dd9b0478a67bcf254d1fd7ea702c75d197e70a3f3c93ee0ab5346ba04eda60001b6126cb565b6108307fdbcce34a55383f353cdcced45b40766f432747fcf700e87b4bd627f978b5719260001b6126cb565b7f707b83adf4af3b12b746160986598d56e5b5d926ad0a6ce43d49c35bb77b585633826000015486868660405161086b959493929190613f58565b60405180910390a15050505050565b6108a67f8cf93f584cc876015d1d7d2b16d77b548722b9d0eb29d61c900a67feae17c15260001b6126cb565b6108d27f8f1b598c55dbed5e41dd2759c6c56c3a8c807bb9d4b7fab00938cbbe264446c260001b6126cb565b6108fe7fe5442216a21ff58ae4d81081ce95900e36fd6cda8b423834a1bb63e547c7475760001b6126cb565b600060ca600061090d876126ce565b815260200190815260200160002090506109497f674c87b25adbf968d674620c12ee5643cb37d78681292663a2abbecfcd85877460001b6126cb565b6109757f7c36555b28d334f5c25058c336db9e077da603e013909fbfba524bc61cafc5f060001b6126cb565b6109a17fc6d8d4f37deb9a9d50085f300198f59f7f9af61b331a0d0b7cd93e6e74f75f2460001b6126cb565b600081600601600086815260200190815260200160002054116109f9576040517f08c379a00000000000000000000000000000000000000000000000000000000081526004016109f090613e9e565b60405180910390fd5b610a257fe2b0d57076eba7c409b2f45cce491d901d291249de1ff9a9b9294ae1fdbce56b60001b6126cb565b610a517f39be3063b8693f7c7a325308b950d4f7bfe291c586985fb4d058e92b8ca6dc2760001b6126cb565b610a7d7fe1a1891bb1cfb8d2bc1513286c8b6c4e394f9c362d306507e16d7d9c50f4393e60001b6126cb565b610a8981858585612a64565b5050505050565b7f000000000000000000000000000000000000000000000000000000000000000073ffffffffffffffffffffffffffffffffffffffff163073ffffffffffffffffffffffffffffffffffffffff1603610b1e576040517f08c379a0000000000000000000000000000000000000000000000000000000008152600401610b159061401d565b60405180910390fd5b7f000000000000000000000000000000000000000000000000000000000000000073ffffffffffffffffffffffffffffffffffffffff16610b5d612ed5565b73ffffffffffffffffffffffffffffffffffffffff1614610bb3576040517f08c379a0000000000000000000000000000000000000000000000000000000008152600401610baa906140af565b60405180910390fd5b610bbc81612f2c565b610c1581600067ffffffffffffffff811115610bdb57610bda613871565b5b6040519080825280601f01601f191660200182016040528015610c0d5781602001600182028036833780820191505090505b506000612f63565b50565b610c447f31aae57a2edfe58ce0de182f40425e8ea15150c0fef08f5b8734f33597f550ea60001b6126cb565b610c707f7190a115dc572a9c24391d274c58116a939c1756bafbff7c228678e43c73eefd60001b6126cb565b610c9c7f614614a002d2cac554ed1413463b0cba39600f5cb908cb517e0feee6b665c6b960001b6126cb565b600060cd6000815480929190610cb1906140cf565b919050559050610ce37fcc5a2e85bfc05cb0a0ff8845db91cd6215fc47e422fd9854508feb4537b2403360001b6126cb565b610d0f7fdd1ec9b532a96bb672837779c03e2dbaffcb086dd97664132182c550927c2e1760001b6126cb565b600060ca6000610d1e886126ce565b81526020019081526020016000209050610d5a7f76ff908388e33a54fb48ff9c751350ad5001d2523a981a8c973aae8a260cfb0260001b6126cb565b806003016000815480929190610d6f906140cf565b9190505550610da07ff8e300ded829ad245e4f281351a66a78e8e8911c9368978fa8e2268d520af53d60001b6126cb565b610dcc7f2980f6b20eac7ebc12131170fe1e1f2dddd244ed23d4598798585139a1d9739660001b6126cb565b80600401829080600181540180825580915050600190039060005260206000200160009091909190915055610e237f533eca330b04615bf81c7c0461cfa4c7c3893ce7045b04574d4b37201240bdfb60001b6126cb565b610e4f7fec5dc2fc355701115bd4c24eb5c8242d6afecaba00d9b41b86893a697201a3f860001b6126cb565b8481600501600084815260200190815260200160002081905550610e957f77e06b862b32f71f1226871822b18da808f68ae3c78e252863ab26c991e044b260001b6126cb565b610ec17f5e109de0512324d3771c5d3c3e5d6e4640139145e015da9329ebf7830226cc0060001b6126cb565b806000015460cc600084815260200190815260200160002081905550610f097f7e6567d1b55b00fa3c129422a4f8e30d7fc2da95dfc3258ef816bb120294834d60001b6126cb565b610f357f88abc6bdc63a10b827b61eec70971137bea4d1599fa7998191fde65c62ed840e60001b6126cb565b610f4181838686612a64565b505050505050565b7f000000000000000000000000000000000000000000000000000000000000000073ffffffffffffffffffffffffffffffffffffffff163073ffffffffffffffffffffffffffffffffffffffff1603610fd7576040517f08c379a0000000000000000000000000000000000000000000000000000000008152600401610fce9061401d565b60405180910390fd5b7f000000000000000000000000000000000000000000000000000000000000000073ffffffffffffffffffffffffffffffffffffffff16611016612ed5565b73ffffffffffffffffffffffffffffffffffffffff161461106c576040517f08c379a0000000000000000000000000000000000000000000000000000000008152600401611063906140af565b60405180910390fd5b61107582612f2c565b61108182826001612f63565b5050565b60007f000000000000000000000000000000000000000000000000000000000000000073ffffffffffffffffffffffffffffffffffffffff163073ffffffffffffffffffffffffffffffffffffffff1614611115576040517f08c379a000000000000000000000000000000000000000000000000000000000815260040161110c90614189565b60405180910390fd5b7f360894a13ba1a3210667c828492db98dca3e2076cc3735a920a3ca505d382bbc60001b905090565b600061116c7f66885c8af4fbf81021e93e6ff950ded1aa69f6447a66555ec993901f6406dca260001b6126cb565b6111987fb1c74996f6d0a0681c0c0ec7a59095482c7f58bad45c213baecad3d9bc9fa3c060001b6126cb565b6111c47fec0af91b5210a1aed20e857c3466e9b8149c78337d4ba967effdf66648b41b7e60001b6126cb565b6111f07f63d8f764192d9fcb991322b7eaddd6dda5b52e42fd4b1044ff6a584e9e26240b60001b6126cb565b60cb548510611234576040517f08c379a000000000000000000000000000000000000000000000000000000000815260040161122b906141f5565b60405180910390fd5b6112607fd051adf7ea1b56382fef3eb8911be8f469e2ba0aefe65717281eb32b7fa6634a60001b6126cb565b61128c7f168a64b74acd47dc04efff8ba5cfb9064f62cbce2ce8483ac3f4f2ac9613f0ac60001b6126cb565b6112b87f953a57e844b122594af21baf13d19cbbc20d5f3c2cfca6c84684be7e578e551f60001b6126cb565b600060ca600087815260200190815260200160002090506112fb7f7973fcf4d76be9949d8749d1e8ebe5e2a52c99fe4a8e546a7240f70cf3474a5760001b6126cb565b6113277f9453f8cfd25c20c1906d76a700924a5d8c8f0fb951a573d14ad1c77848fd942560001b6126cb565b600081600601600083600201548152602001908152602001600020541161135157611350614215565b5b61137d7fba546cefef3cfe902757c2f8a220c300c487d3eb1afea9785d63dba032e197a560001b6126cb565b6113a97f6462c84203fbc87ce4058bdbe3ee7d462fd00c00abd8f4dfa49cb21614e5264a60001b6126cb565b60005b85859050811015611710576113e37fe922c2561fcaa47823de43626e18270e38b5a6dff76e825222967f6f83aa98e160001b6126cb565b61140f7fd9057f9a3ea0105a1c0d1f898de1ba4a82cc3f58873e6f58e25aab05124b24a060001b6126cb565b61143b7f122df7a9cac1740987a7f7e15384384be4816710196f6dc82c7b5ce9fd7dbb7060001b6126cb565b60cd5486868381811061145157611450614244565b5b9050602002013510611498576040517f08c379a000000000000000000000000000000000000000000000000000000000815260040161148f906142bf565b60405180910390fd5b6114c47f1bbb89d4301ba68ae502fccde72d2e71917781e9f07da0306831a10668b4995960001b6126cb565b6114f07fa42f0f7c79c12fe0b3dcdfa5484a708afb0d8c4a1f6a0ac376448138a160e20960001b6126cb565b61151c7ff51f5a8db6ab7127f96eaaca4785d398d2db38b8c5d5688f3535e39f68fa9d3860001b6126cb565b6115487fe5b160320908caed9b2d71379769a6b1133f72f39209e86e1b521f6ff7a5fc9060001b6126cb565b83806115715750816002015486868381811061156757611566614244565b5b9050602002013514155b6115b0576040517f08c379a00000000000000000000000000000000000000000000000000000000081526004016115a79061432b565b60405180910390fd5b6115dc7f2343155aec9369deeea6c14265e03d8dedf2806f6a8d8e45d3cbb45ec8b9be4660001b6126cb565b6116087f8a588b0f34b994a5f65014cb53d6e00c93156c3b24bf4bedd087ae8c535df88760001b6126cb565b6116347f79d045d219a0accf4b3af166e0ce22d553d5bda49b1a1702566f39fd41be60ac60001b6126cb565b6116607fc83e2852b6522245ba8cda6c26bf799b8270888581219ab98ad2fade22b9880960001b6126cb565b600082600601600088888581811061167b5761167a614244565b5b90506020020135815260200190815260200160002054116116d1576040517f08c379a00000000000000000000000000000000000000000000000000000000081526004016116c890614397565b60405180910390fd5b6116fd7ff01af3e588b4327e3bfb941cb5ff362c684bbaded9a1b8f324a181d4060fdaa560001b6126cb565b8080611708906140cf565b9150506113ac565b5061173d7f40a30bd7c6871a1bc1b996f9d3ace92bd0164a403dc9b5c0f8ab75a24a50db8460001b6126cb565b6117697f5bbfc29d313b5aa7ee176ef382b65ccef65b35d1dd82aa60596321189f2bba7660001b6126cb565b6001915050949350505050565b6117a27f8eb0a69f7d8a882ba2c2d7c5a4a10a23bec628566962cce8107d983180f8ae7960001b6126cb565b6117ce7f42cf2b66948b24e070b01fa46e6c127838233601e0ad5e31a2eea2d459cf68d160001b6126cb565b6117fa7f75c5c07ab57b2b427d84874360e8211a000a7f38de798640dbdf23c199ef32ab60001b6126cb565b600060ca6000611809876126ce565b815260200190815260200160002090506118457f423fbae2cfea6a003cd938773d6a86e9f4f83ab2aa12ec9c3cb2e226a239797460001b6126cb565b6118717f0a6c6fc1bd51ec983a9caa6310a15005cc989fcc869e43cdd1167e4c01108cdf60001b6126cb565b61189d7fe3f5b3c816b928187edf37857c4771e88eaeb59d72d4c37ebe8a8523f2dca84060001b6126cb565b600081600601600085815260200190815260200160002054116118f5576040517f08c379a00000000000000000000000000000000000000000000000000000000081526004016118ec90613e9e565b60405180910390fd5b6119217f7f49ce6b44912f5b6883a5b6ba4f9734235c253ee934b4479a30c21c90904ac060001b6126cb565b61194d7f6824ad1534f67144fea93df9edd460fbaeeccbc623a8a4114bd6f3c1b84f5bee60001b6126cb565b6119797fce39bdfca8bafea2c67e147f869e6dc686f67cb5a97e5aa98a9b1026dea154f660001b6126cb565b60c960009054906101000a900473ffffffffffffffffffffffffffffffffffffffff1673ffffffffffffffffffffffffffffffffffffffff16633faf3d6b8585856040518463ffffffff1660e01b81526004016119d893929190613ebe565b600060405180830381600087803b1580156119f257600080fd5b505af1158015611a06573d6000803e3d6000fd5b505050505050505050565b611a196130d1565b611a23600061314f565b565b60ca6020528060005260406000206000915090508060000154908060010154908060020154908060030154905084565b6000806000806060611a897ff441f636d6f3f39eb7e204c245e8a66fae3a83c09cb13cbd67c6ea3ef4d811ae60001b6126cb565b611ab57fb1bec2fc0368d8510ccf23a35f697e0df0d87fe06fad7e68b7f7be9d29560ea360001b6126cb565b611ae17f0e88d04ee854012bc3077bc0a7f4a0dbe5b86bb2f18cbdbbce0979c5aac6755a60001b6126cb565b60cd54861060ca600060cc60008a815260200190815260200160002054815260200190815260200160002060050160008881526020019081526020016000205460cc600089815260200190815260200160002054611b3e89612536565b60ca600060cc60008d815260200190815260200160002054815260200190815260200160002060040180805480602002602001604051908101604052809291908181526020018280548015611bb257602002820191906000526020600020905b815481526020019060010190808311611b9e575b505050505090509450945094509450945091939590929450565b6060611bfa7f7b1cc02d2d0c463bcf5b5a06f0671dd27ced62ead5fba869d25cbb225de532cf60001b6126cb565b611c267f3073b407869db296fce3d1f5a9f289da47466de3602511b656460bed6e8572c060001b6126cb565b611c527f7bc062165f8a77835b0728560b575c84995d6daa86b5062741cfa6297b8aea8a60001b6126cb565b600060ca60008481526020019081526020016000206004018054905003611c7c57611c7b614215565b5b611ca87f89484d5ec1ca55f1a86850d718d7e5cfcdc10bc375b4228bcf7c7a568892eb8660001b6126cb565b611cd47fe9ac1b2798972218d8b889ecf01cb61698368d5f9e0f0b5333e15c3fe3f0dc4c60001b6126cb565b60ca6000838152602001908152602001600020600401805480602002602001604051908101604052809291908181526020018280548015611d3457602002820191906000526020600020905b815481526020019060010190808311611d20575b50505050509050919050565b6000603360009054906101000a900473ffffffffffffffffffffffffffffffffffffffff16905090565b60c960009054906101000a900473ffffffffffffffffffffffffffffffffffffffff1681565b60cc6020528060005260406000206000915090505481565b60008060019054906101000a900460ff16159050808015611dd95750600160008054906101000a900460ff1660ff16105b80611e065750611de830613215565b158015611e055750600160008054906101000a900460ff1660ff16145b5b611e45576040517f08c379a0000000000000000000000000000000000000000000000000000000008152600401611e3c90614429565b60405180910390fd5b60016000806101000a81548160ff021916908360ff1602179055508015611e82576001600060016101000a81548160ff0219169083151502179055505b611eae7f80608ef353261c68a024e9d42196b32db14c9fb70d98c25d2549abb47260846d60001b6126cb565b611eda7f13dd80ec16a015bdad680b05205a20a57a41afda6c3f0582f37c3f8e86bf568460001b6126cb565b611f067fa6ac7a5541c87b78e3a12caad82fe2cfb312587c5133d739436b353597276c9160001b6126cb565b611f0e613238565b611f3a7fcf6bd1465e295cb1c6d81adc593e975a2ef915f360e9475363bd844a1dd70dc860001b6126cb565b611f667f0a2b5bf18a0ba0688f7053e5a6919c34f9a0483236651561b70450640f0a8a5160001b6126cb565b611f6e613291565b611f9a7f2e23d434f82e3d55cfc3c7c7db989f6e04b1d7c65c2f2954222ec41b37bad59260001b6126cb565b611fc67f1ef33057ee85165dc7fd13721e95c0016db7ebeb19a9ad0e0fc2d6436b94e98c60001b6126cb565b8160c960006101000a81548173ffffffffffffffffffffffffffffffffffffffff021916908373ffffffffffffffffffffffffffffffffffffffff16021790555080156120605760008060016101000a81548160ff0219169083151502179055507f7f26b83ff96e1f2b6a682f133852f6798a09c465da95921460cefb384740249860016040516120579190614491565b60405180910390a15b5050565b6120907f306e2c0f139800cee6ec5b8bb70e905e3d9c761128273c3888b7f3e5f0a5964060001b6126cb565b6120bc7fabb66d99f480f2b0cff83b25df2a15ffe8e81557a572868c738acc55c7af58c460001b6126cb565b6120e87fbb2d4a8c4f920fbf21face62d612f6cb762827e580ce678a198f5178251ba89d60001b6126cb565b600060ca600060cb548152602001908152602001600020905061212d7f43e1f17a53aaf6fb21a7c6db3a4a16928805eb3a263bbfcaa46ab78d0c31415c60001b6126cb565b6121597f9486d331dde7736a9d3fa72c8db15ba106f5d3ab61bb4e939e406862ad96d08e60001b6126cb565b60cb600081548092919061216c906140cf565b9190505581600001819055506121a47fbab29ec4dd5397ef252b470ab5705daa9ee69e12a608c435a675b50e95f4a1c660001b6126cb565b6121d07f80a2ed5f24b5fed729407454dbaebaa5a7a32a97974aa402d0eec5cda15cbb2460001b6126cb565b60cd60008154809291906121e3906140cf565b91905055816002018190555061221b7f4e5cc71a73a05a3e7f774743f4e9abe92860415db74c9c3e4e70b5e769e59e1060001b6126cb565b806003016000815480929190612230906140cf565b91905055506122617f417b40003b8bae91653aea17742e8e71757c2af26bbc73566fa5a54cdc94211560001b6126cb565b61228d7f2a05bb51e5aa08cb7a813f5654728125e708593172016201403c31635ef7c8e060001b6126cb565b8281600101819055506122c27fd98a935b8cba91d5f56e549efbb7be80e6c03d43ec447ed6d49663c423fbaded60001b6126cb565b6122ee7f490624368bdf08e6c482e619226f823a521036e06b768da157ee10987ccd07ee60001b6126cb565b80600401816002015490806001815401808255809150506001900390600052602060002001600090919091909150556123497f617ae5602d59f96522dcb8493e3e98de454468c84480a48a266052f5af9fea3860001b6126cb565b6123757f90ba6a15288258656f007955f9356ded83e62a939f16c494fb089e38401a94d060001b6126cb565b7f726f6f740000000000000000000000000000000000000000000000000000000081600501600083600201548152602001908152602001600020819055506123df7f2de0f98aa781e95969676774c2a3471f00a4459451ad309c566ef1092e36930360001b6126cb565b61240b7fd4885cd6b28e1e155b00277792a932b0b57d86fadea8a7065a8c99783955fbf960001b6126cb565b806000015460cc600083600201548152602001908152602001600020819055506124577fb44c654ad96df9303ae14a5653913388c421d8cd1c69603fcdc6b260834a238460001b6126cb565b6124837fbdaa78b604d82238197a8b038aeedc2951d4d915458a02679d47840080952e9b60001b6126cb565b612494818260020154846000612a64565b6124c07f8389aadbc9e06824ae065268adbc2e1300d3b77665feb3e8cb2a62fe9a8cb10c60001b6126cb565b6124ec7f3175dac212ec895cced1e80891a324be2ea228be860f277cd951dc763327407760001b6126cb565b7fd91e2f64746507b28147d9ed981a07fe6bf4e5935e328300ac680bb58aa1bbff33826000015483600101548560405161252994939291906144ac565b60405180910390a1505050565b60006125647fe5f6aece12e6175e794a8d554c47c743470cae38694f28b8365a6835fb77c88760001b6126cb565b6125907fb47fabb551997dd350c99732364d2e35e6dfedcaa1b14d0177e6450b5bbe4d8660001b6126cb565b6125bc7f411c3a7fce8e53d996b75bb7dfc53b7741f86d407603d7f30a54b9032cd2c43260001b6126cb565b60cd54821080156125f5575060ca600060cc60008581526020019081526020016000205481526020019081526020016000206002015482145b801561263b5750600060ca600060cc6000868152602001908152602001600020548152602001908152602001600020600601600084815260200190815260200160002054115b9050919050565b61264a6130d1565b600073ffffffffffffffffffffffffffffffffffffffff168173ffffffffffffffffffffffffffffffffffffffff16036126b9576040517f08c379a00000000000000000000000000000000000000000000000000000000081526004016126b090614563565b60405180910390fd5b6126c28161314f565b50565b60cd5481565b50565b60006126fc7f9fd35fb0ab4d1d03de539fa4010758047c09beceec56036c7bd266e75ef6bb5260001b6126cb565b6127287f996a07dda43f325a43abfdabdd4478684bbb25a9fa923de5b7472b4d119e20a360001b6126cb565b6127547fb1f1f7f018607a59a371202d0a2472eef1cbcd87313fa307186d467a891c4ed060001b6126cb565b6127807f627e81f1e52c880ade6f36b85629831ef1c13a793c94dbebba05a6b1af94f75560001b6126cb565b600060c960009054906101000a900473ffffffffffffffffffffffffffffffffffffffff1673ffffffffffffffffffffffffffffffffffffffff1662fdd58e33856040518363ffffffff1660e01b81526004016127de929190614583565b602060405180830381865afa1580156127fb573d6000803e3d6000fd5b505050506040513d601f19601f8201168201806040525081019061281f91906145c1565b1161285f576040517f08c379a00000000000000000000000000000000000000000000000000000000081526004016128569061463a565b60405180910390fd5b61288b7f88c683dba312b620845823930e11feb15037c87eb1f6ecd8548daf509bc41b3560001b6126cb565b6128b77f96f16902f5b3623b9d85ef267c3b69529cbf10c6d0e3e84dee894a937052f09360001b6126cb565b6128e37f3e0311e9387bcf41ecdb8578a5f548743bbf5405a238dd7fe99ad2b8ac2a171160001b6126cb565b600060cc60008481526020019081526020016000205490506129277fa9b7e65bd7f659cd31de9c982f17dbbf12478784595e17bc9a16722461cbeac660001b6126cb565b6129537fe4a825f471206f60fe564e5b3970d5ab3b8f6bcea38da916ceed40189b36208260001b6126cb565b61297f7f81b14265eaccd49171485fe7e46e68376386aa3c68417c7092782d6113da762e60001b6126cb565b60ca60008281526020019081526020016000206002015483146129d7576040517f08c379a00000000000000000000000000000000000000000000000000000000081526004016129ce906146a6565b60405180910390fd5b612a037f9e52d1ac42fec1a32ebd8ee5f298bf96f788d5f3aba44d436808aa20e4bfe91360001b6126cb565b612a2f7f8b213bfd6a4c50afe2e6484af54017d800623e2582fea1d7283f3f5cbc809d3a60001b6126cb565b612a5b7fc5c8721cb55a1299944cae6049b9b6d78155914dfe61846d95adc935b81c02aa60001b6126cb565b80915050919050565b612a907fc9249fc8de732dbd398bdf42858e54d309a27c2967b2fe9e107c665ecaa0009760001b6126cb565b612abc7f8619c2ddf2f0cf175c9b169da65acf1ba007b99040604dddd2b81d05df4d7f9460001b6126cb565b8360060160008481526020019081526020016000206000815480929190612ae2906140cf565b9190505550612b137f7847da81f49e4ea97eebea217a98930b3657b677e5b6f087eccb4353eb250bbf60001b6126cb565b612b3f7faf6407cca3479a0255b29c7542bcf3c7f41ec65d09a1c617f7eea2355017880c60001b6126cb565b8015612d0857612b717fcf4542b096765e0c2f0d78d5470b9892be4f246ecee6e8d07944d3de609a6bda60001b6126cb565b612b9d7faf2947bcf1acff7eabccc1f9cd5a706f91856aac99019996783ac446ba41a8ad60001b6126cb565b612bc97f1be51953bc10f5b084ca90080d38d8aacde0e7675f6330af74e674c7f2f2e68160001b6126cb565b60c960009054906101000a900473ffffffffffffffffffffffffffffffffffffffff1673ffffffffffffffffffffffffffffffffffffffff16633faf3d6b8385600160c960009054906101000a900473ffffffffffffffffffffffffffffffffffffffff1673ffffffffffffffffffffffffffffffffffffffff1663808c5b3b888a6040518363ffffffff1660e01b8152600401612c68929190614583565b602060405180830381865afa158015612c85573d6000803e3d6000fd5b505050506040513d601f19601f82011682018060405250810190612ca991906145c1565b612cb39190613f24565b6040518463ffffffff1660e01b8152600401612cd193929190613ebe565b600060405180830381600087803b158015612ceb57600080fd5b505af1158015612cff573d6000803e3d6000fd5b50505050612d35565b612d347fe4124fca3477f13e5a65e66ab1f66c7c2280b2e8f6046a121e395723f014d44d60001b6126cb565b5b612d617fd1dc818bf101b32d80a4a6a4f331568c79f30acd9b4e2efdabb955034a9b170060001b6126cb565b612d8d7fe1261241a31226ea3e7b34eeff5e36d714d143fdd71568a2c5bcf318be398a4660001b6126cb565b60c960009054906101000a900473ffffffffffffffffffffffffffffffffffffffff1673ffffffffffffffffffffffffffffffffffffffff1663731133e9838560016040518463ffffffff1660e01b8152600401612ded9392919061472e565b600060405180830381600087803b158015612e0757600080fd5b505af1158015612e1b573d6000803e3d6000fd5b50505050612e4b7feb07ae5bd74bcecda85e8ad23ed42c42646e07a5e55569a05ef196c26dd2af4e60001b6126cb565b612e777ffc3291e73c8aa452193309dedea428cf6661d6c3e8a0a4a10c1f46cf44e7af0060001b6126cb565b7fe50957d1d876dc7be82af5865a9afa4320e3a26b1e1375bf412962745de3562a338560000154858760050160008881526020019081526020016000205486604051612ec7959493929190614778565b60405180910390a150505050565b6000612f037f360894a13ba1a3210667c828492db98dca3e2076cc3735a920a3ca505d382bbc60001b6132e2565b60000160009054906101000a900473ffffffffffffffffffffffffffffffffffffffff16905090565b612f346130d1565b612f607feaffb2d101d4248fdefc750ba2c62a38578e0acc5d75625d4cb65e7edc80936160001b6126cb565b50565b612f8f7f4910fdfa16fed3260ed0e7147f7cc6da11a60208b5b9406d12a635614ffd914360001b6132ec565b60000160009054906101000a900460ff1615612fb357612fae836132f6565b6130cc565b8273ffffffffffffffffffffffffffffffffffffffff166352d1902d6040518163ffffffff1660e01b8152600401602060405180830381865afa92505050801561301b57506040513d601f19601f8201168201806040525081019061301891906147e0565b60015b61305a576040517f08c379a00000000000000000000000000000000000000000000000000000000081526004016130519061487f565b60405180910390fd5b7f360894a13ba1a3210667c828492db98dca3e2076cc3735a920a3ca505d382bbc60001b81146130bf576040517f08c379a00000000000000000000000000000000000000000000000000000000081526004016130b690614911565b60405180910390fd5b506130cb8383836133af565b5b505050565b6130d96133db565b73ffffffffffffffffffffffffffffffffffffffff166130f7611d40565b73ffffffffffffffffffffffffffffffffffffffff161461314d576040517f08c379a00000000000000000000000000000000000000000000000000000000081526004016131449061497d565b60405180910390fd5b565b6000603360009054906101000a900473ffffffffffffffffffffffffffffffffffffffff16905081603360006101000a81548173ffffffffffffffffffffffffffffffffffffffff021916908373ffffffffffffffffffffffffffffffffffffffff1602179055508173ffffffffffffffffffffffffffffffffffffffff168173ffffffffffffffffffffffffffffffffffffffff167f8be0079c531659141344cd1fd0a4f28419497f9722a3daafe3b4186f6b6457e060405160405180910390a35050565b6000808273ffffffffffffffffffffffffffffffffffffffff163b119050919050565b600060019054906101000a900460ff16613287576040517f08c379a000000000000000000000000000000000000000000000000000000000815260040161327e90614a0f565b60405180910390fd5b61328f6133e3565b565b600060019054906101000a900460ff166132e0576040517f08c379a00000000000000000000000000000000000000000000000000000000081526004016132d790614a0f565b60405180910390fd5b565b6000819050919050565b6000819050919050565b6132ff81613215565b61333e576040517f08c379a000000000000000000000000000000000000000000000000000000000815260040161333590614aa1565b60405180910390fd5b8061336b7f360894a13ba1a3210667c828492db98dca3e2076cc3735a920a3ca505d382bbc60001b6132e2565b60000160006101000a81548173ffffffffffffffffffffffffffffffffffffffff021916908373ffffffffffffffffffffffffffffffffffffffff16021790555050565b6133b883613444565b6000825111806133c55750805b156133d6576133d48383613493565b505b505050565b600033905090565b600060019054906101000a900460ff16613432576040517f08c379a000000000000000000000000000000000000000000000000000000000815260040161342990614a0f565b60405180910390fd5b61344261343d6133db565b61314f565b565b61344d816132f6565b8073ffffffffffffffffffffffffffffffffffffffff167fbc7cd75a20ee27fd9adebab32041f755214dbc6bffa90cc0225b39da2e5c2d3b60405160405180910390a250565b606061349e83613215565b6134dd576040517f08c379a00000000000000000000000000000000000000000000000000000000081526004016134d490614b33565b60405180910390fd5b6000808473ffffffffffffffffffffffffffffffffffffffff16846040516135059190614bc4565b600060405180830381855af49150503d8060008114613540576040519150601f19603f3d011682016040523d82523d6000602084013e613545565b606091505b509150915061356d8282604051806060016040528060278152602001614c4260279139613577565b9250505092915050565b60608315613587578290506135d7565b60008351111561359a5782518084602001fd5b816040517f08c379a00000000000000000000000000000000000000000000000000000000081526004016135ce9190614c1f565b60405180910390fd5b9392505050565b6000604051905090565b600080fd5b600080fd5b6000819050919050565b613605816135f2565b811461361057600080fd5b50565b600081359050613622816135fc565b92915050565b600073ffffffffffffffffffffffffffffffffffffffff82169050919050565b600061365382613628565b9050919050565b61366381613648565b811461366e57600080fd5b50565b6000813590506136808161365a565b92915050565b600080600080608085870312156136a05761369f6135e8565b5b60006136ae87828801613613565b94505060206136bf87828801613613565b93505060406136d087828801613671565b92505060606136e187828801613613565b91505092959194509250565b60008115159050919050565b613702816136ed565b811461370d57600080fd5b50565b60008135905061371f816136f9565b92915050565b6000806000806080858703121561373f5761373e6135e8565b5b600061374d87828801613613565b945050602061375e87828801613613565b935050604061376f87828801613671565b925050606061378087828801613710565b91505092959194509250565b6000602082840312156137a2576137a16135e8565b5b60006137b084828501613671565b91505092915050565b6000819050919050565b6137cc816137b9565b81146137d757600080fd5b50565b6000813590506137e9816137c3565b92915050565b60008060008060808587031215613809576138086135e8565b5b600061381787828801613613565b9450506020613828878288016137da565b935050604061383987828801613671565b925050606061384a87828801613710565b91505092959194509250565b600080fd5b600080fd5b6000601f19601f8301169050919050565b7f4e487b7100000000000000000000000000000000000000000000000000000000600052604160045260246000fd5b6138a982613860565b810181811067ffffffffffffffff821117156138c8576138c7613871565b5b80604052505050565b60006138db6135de565b90506138e782826138a0565b919050565b600067ffffffffffffffff82111561390757613906613871565b5b61391082613860565b9050602081019050919050565b82818337600083830152505050565b600061393f61393a846138ec565b6138d1565b90508281526020810184848401111561395b5761395a61385b565b5b61396684828561391d565b509392505050565b600082601f83011261398357613982613856565b5b813561399384826020860161392c565b91505092915050565b600080604083850312156139b3576139b26135e8565b5b60006139c185828601613671565b925050602083013567ffffffffffffffff8111156139e2576139e16135ed565b5b6139ee8582860161396e565b9150509250929050565b613a01816137b9565b82525050565b6000602082019050613a1c60008301846139f8565b92915050565b600080fd5b600080fd5b60008083601f840112613a4257613a41613856565b5b8235905067ffffffffffffffff811115613a5f57613a5e613a22565b5b602083019150836020820283011115613a7b57613a7a613a27565b5b9250929050565b60008060008060608587031215613a9c57613a9b6135e8565b5b6000613aaa87828801613613565b945050602085013567ffffffffffffffff811115613acb57613aca6135ed565b5b613ad787828801613a2c565b93509350506040613aea87828801613710565b91505092959194509250565b613aff816136ed565b82525050565b6000602082019050613b1a6000830184613af6565b92915050565b60008060008060808587031215613b3a57613b396135e8565b5b6000613b4887828801613613565b9450506020613b5987828801613671565b9350506040613b6a87828801613613565b9250506060613b7b87828801613613565b91505092959194509250565b600060208284031215613b9d57613b9c6135e8565b5b6000613bab84828501613613565b91505092915050565b613bbd816135f2565b82525050565b6000608082019050613bd86000830187613bb4565b613be560208301866139f8565b613bf26040830185613bb4565b613bff6060830184613bb4565b95945050505050565b600081519050919050565b600082825260208201905092915050565b6000819050602082019050919050565b613c3d816135f2565b82525050565b6000613c4f8383613c34565b60208301905092915050565b6000602082019050919050565b6000613c7382613c08565b613c7d8185613c13565b9350613c8883613c24565b8060005b83811015613cb9578151613ca08882613c43565b9750613cab83613c5b565b925050600181019050613c8c565b5085935050505092915050565b600060a082019050613cdb6000830188613af6565b613ce860208301876139f8565b613cf56040830186613bb4565b613d026060830185613af6565b8181036080830152613d148184613c68565b90509695505050505050565b60006020820190508181036000830152613d3a8184613c68565b905092915050565b613d4b81613648565b82525050565b6000602082019050613d666000830184613d42565b92915050565b6000819050919050565b6000613d91613d8c613d8784613628565b613d6c565b613628565b9050919050565b6000613da382613d76565b9050919050565b6000613db582613d98565b9050919050565b613dc581613daa565b82525050565b6000602082019050613de06000830184613dbc565b92915050565b6000602082019050613dfb6000830184613bb4565b92915050565b60008060408385031215613e1857613e176135e8565b5b6000613e26858286016137da565b9250506020613e3785828601613671565b9150509250929050565b600082825260208201905092915050565b7f54525553545f4b45595f4e4f545f464f554e4400000000000000000000000000600082015250565b6000613e88601383613e41565b9150613e9382613e52565b602082019050919050565b60006020820190508181036000830152613eb781613e7b565b9050919050565b6000606082019050613ed36000830186613d42565b613ee06020830185613bb4565b613eed6040830184613bb4565b949350505050565b7f4e487b7100000000000000000000000000000000000000000000000000000000600052601160045260246000fd5b6000613f2f826135f2565b9150613f3a836135f2565b9250828201905080821115613f5257613f51613ef5565b5b92915050565b600060a082019050613f6d6000830188613d42565b613f7a6020830187613bb4565b613f876040830186613bb4565b613f946060830185613d42565b613fa16080830184613bb4565b9695505050505050565b7f46756e6374696f6e206d7573742062652063616c6c6564207468726f7567682060008201527f64656c656761746563616c6c0000000000000000000000000000000000000000602082015250565b6000614007602c83613e41565b915061401282613fab565b604082019050919050565b6000602082019050818103600083015261403681613ffa565b9050919050565b7f46756e6374696f6e206d7573742062652063616c6c6564207468726f7567682060008201527f6163746976652070726f78790000000000000000000000000000000000000000602082015250565b6000614099602c83613e41565b91506140a48261403d565b604082019050919050565b600060208201905081810360008301526140c88161408c565b9050919050565b60006140da826135f2565b91507fffffffffffffffffffffffffffffffffffffffffffffffffffffffffffffffff820361410c5761410b613ef5565b5b600182019050919050565b7f555550535570677261646561626c653a206d757374206e6f742062652063616c60008201527f6c6564207468726f7567682064656c656761746563616c6c0000000000000000602082015250565b6000614173603883613e41565b915061417e82614117565b604082019050919050565b600060208201905081810360008301526141a281614166565b9050919050565b7f494e56414c49445f545255535400000000000000000000000000000000000000600082015250565b60006141df600d83613e41565b91506141ea826141a9565b602082019050919050565b6000602082019050818103600083015261420e816141d2565b9050919050565b7f4e487b7100000000000000000000000000000000000000000000000000000000600052600160045260246000fd5b7f4e487b7100000000000000000000000000000000000000000000000000000000600052603260045260246000fd5b7f494e56414c49445f4b45595f4f4e5f52494e4700000000000000000000000000600082015250565b60006142a9601383613e41565b91506142b482614273565b602082019050919050565b600060208201905081810360008301526142d88161429c565b9050919050565b7f524f4f545f4f4e5f52494e470000000000000000000000000000000000000000600082015250565b6000614315600c83613e41565b9150614320826142df565b602082019050919050565b6000602082019050818103600083015261434481614308565b9050919050565b7f4e4f4e5f54525553545f4b455900000000000000000000000000000000000000600082015250565b6000614381600d83613e41565b915061438c8261434b565b602082019050919050565b600060208201905081810360008301526143b081614374565b9050919050565b7f496e697469616c697a61626c653a20636f6e747261637420697320616c72656160008201527f647920696e697469616c697a6564000000000000000000000000000000000000602082015250565b6000614413602e83613e41565b915061441e826143b7565b604082019050919050565b6000602082019050818103600083015261444281614406565b9050919050565b6000819050919050565b600060ff82169050919050565b600061447b61447661447184614449565b613d6c565b614453565b9050919050565b61448b81614460565b82525050565b60006020820190506144a66000830184614482565b92915050565b60006080820190506144c16000830187613d42565b6144ce6020830186613bb4565b6144db60408301856139f8565b6144e86060830184613d42565b95945050505050565b7f4f776e61626c653a206e6577206f776e657220697320746865207a65726f206160008201527f6464726573730000000000000000000000000000000000000000000000000000602082015250565b600061454d602683613e41565b9150614558826144f1565b604082019050919050565b6000602082019050818103600083015261457c81614540565b9050919050565b60006040820190506145986000830185613d42565b6145a56020830184613bb4565b9392505050565b6000815190506145bb816135fc565b92915050565b6000602082840312156145d7576145d66135e8565b5b60006145e5848285016145ac565b91505092915050565b7f4b45595f4e4f545f48454c440000000000000000000000000000000000000000600082015250565b6000614624600c83613e41565b915061462f826145ee565b602082019050919050565b6000602082019050818103600083015261465381614617565b9050919050565b7f4b45595f4e4f545f524f4f540000000000000000000000000000000000000000600082015250565b6000614690600c83613e41565b915061469b8261465a565b602082019050919050565b600060208201905081810360008301526146bf81614683565b9050919050565b60006146e16146dc6146d784614449565b613d6c565b6135f2565b9050919050565b6146f1816146c6565b82525050565b600082825260208201905092915050565b50565b60006147186000836146f7565b915061472382614708565b600082019050919050565b60006080820190506147436000830186613d42565b6147506020830185613bb4565b61475d60408301846146e8565b818103606083015261476e8161470b565b9050949350505050565b600060a08201905061478d6000830188613d42565b61479a6020830187613bb4565b6147a76040830186613bb4565b6147b460608301856139f8565b6147c16080830184613d42565b9695505050505050565b6000815190506147da816137c3565b92915050565b6000602082840312156147f6576147f56135e8565b5b6000614804848285016147cb565b91505092915050565b7f45524331393637557067726164653a206e657720696d706c656d656e7461746960008201527f6f6e206973206e6f742055555053000000000000000000000000000000000000602082015250565b6000614869602e83613e41565b91506148748261480d565b604082019050919050565b600060208201905081810360008301526148988161485c565b9050919050565b7f45524331393637557067726164653a20756e737570706f727465642070726f7860008201527f6961626c65555549440000000000000000000000000000000000000000000000602082015250565b60006148fb602983613e41565b91506149068261489f565b604082019050919050565b6000602082019050818103600083015261492a816148ee565b9050919050565b7f4f776e61626c653a2063616c6c6572206973206e6f7420746865206f776e6572600082015250565b6000614967602083613e41565b915061497282614931565b602082019050919050565b600060208201905081810360008301526149968161495a565b9050919050565b7f496e697469616c697a61626c653a20636f6e7472616374206973206e6f74206960008201527f6e697469616c697a696e67000000000000000000000000000000000000000000602082015250565b60006149f9602b83613e41565b9150614a048261499d565b604082019050919050565b60006020820190508181036000830152614a28816149ec565b9050919050565b7f455243313936373a206e657720696d706c656d656e746174696f6e206973206e60008201527f6f74206120636f6e747261637400000000000000000000000000000000000000602082015250565b6000614a8b602d83613e41565b9150614a9682614a2f565b604082019050919050565b60006020820190508181036000830152614aba81614a7e565b9050919050565b7f416464726573733a2064656c65676174652063616c6c20746f206e6f6e2d636f60008201527f6e74726163740000000000000000000000000000000000000000000000000000602082015250565b6000614b1d602683613e41565b9150614b2882614ac1565b604082019050919050565b60006020820190508181036000830152614b4c81614b10565b9050919050565b600081519050919050565b600081905092915050565b60005b83811015614b87578082015181840152602081019050614b6c565b60008484015250505050565b6000614b9e82614b53565b614ba88185614b5e565b9350614bb8818560208601614b69565b80840191505092915050565b6000614bd08284614b93565b915081905092915050565b600081519050919050565b6000614bf182614bdb565b614bfb8185613e41565b9350614c0b818560208601614b69565b614c1481613860565b840191505092915050565b60006020820190508181036000830152614c398184614be6565b90509291505056fe416464726573733a206c6f772d6c6576656c2064656c65676174652063616c6c206661696c6564a2646970667358221220af291170eec19f300cb6b385ef4f06f86063b2f484a0d8712417ca28dbb5352364736f6c63430008100033",
  "linkReferences": {},
  "deployedLinkReferences": {}
}