{
  "_format": "hh-sol-artifact-1",
  "contractName": "Locksmith",
  "sourceName": "contracts/Locksmith.sol",
  "abi": [
    {
      "inputs": [],
      "stateMutability": "nonpayable",
      "type": "constructor"
    },
    {
      "anonymous": false,
      "inputs": [
        {
          "indexed": false,
          "internalType": "address",
          "name": "previousAdmin",
          "type": "address"
        },
        {
          "indexed": false,
          "internalType": "address",
          "name": "newAdmin",
          "type": "address"
        }
      ],
      "name": "AdminChanged",
      "type": "event"
    },
    {
      "anonymous": false,
      "inputs": [
        {
          "indexed": true,
          "internalType": "address",
          "name": "beacon",
          "type": "address"
        }
      ],
      "name": "BeaconUpgraded",
      "type": "event"
    },
    {
      "anonymous": false,
      "inputs": [
        {
          "indexed": false,
          "internalType": "uint8",
          "name": "version",
          "type": "uint8"
        }
      ],
      "name": "Initialized",
      "type": "event"
    },
    {
      "anonymous": false,
      "inputs": [
        {
          "indexed": true,
          "internalType": "address",
          "name": "previousOwner",
          "type": "address"
        },
        {
          "indexed": true,
          "internalType": "address",
          "name": "newOwner",
          "type": "address"
        }
      ],
      "name": "OwnershipTransferred",
      "type": "event"
    },
    {
      "anonymous": false,
      "inputs": [
        {
          "indexed": true,
          "internalType": "address",
          "name": "implementation",
          "type": "address"
        }
      ],
      "name": "Upgraded",
      "type": "event"
    },
    {
      "anonymous": false,
      "inputs": [
        {
          "indexed": false,
          "internalType": "address",
          "name": "rootHolder",
          "type": "address"
        },
        {
          "indexed": false,
          "internalType": "uint256",
          "name": "trustId",
          "type": "uint256"
        },
        {
          "indexed": false,
          "internalType": "uint256",
          "name": "keyId",
          "type": "uint256"
        },
        {
          "indexed": false,
          "internalType": "address",
          "name": "target",
          "type": "address"
        },
        {
          "indexed": false,
          "internalType": "uint256",
          "name": "amount",
          "type": "uint256"
        }
      ],
      "name": "keyBurned",
      "type": "event"
    },
    {
      "anonymous": false,
      "inputs": [
        {
          "indexed": false,
          "internalType": "address",
          "name": "creator",
          "type": "address"
        },
        {
          "indexed": false,
          "internalType": "uint256",
          "name": "trustId",
          "type": "uint256"
        },
        {
          "indexed": false,
          "internalType": "uint256",
          "name": "keyId",
          "type": "uint256"
        },
        {
          "indexed": false,
          "internalType": "bytes32",
          "name": "keyName",
          "type": "bytes32"
        },
        {
          "indexed": false,
          "internalType": "address",
          "name": "receiver",
          "type": "address"
        }
      ],
      "name": "keyMinted",
      "type": "event"
    },
    {
      "anonymous": false,
      "inputs": [
        {
          "indexed": false,
          "internalType": "address",
          "name": "creator",
          "type": "address"
        },
        {
          "indexed": false,
          "internalType": "uint256",
          "name": "trustId",
          "type": "uint256"
        },
        {
          "indexed": false,
          "internalType": "bytes32",
          "name": "trustName",
          "type": "bytes32"
        },
        {
          "indexed": false,
          "internalType": "address",
          "name": "recipient",
          "type": "address"
        }
      ],
      "name": "trustCreated",
      "type": "event"
    },
    {
      "inputs": [
        {
          "internalType": "uint256",
          "name": "rootKeyId",
          "type": "uint256"
        },
        {
          "internalType": "uint256",
          "name": "keyId",
          "type": "uint256"
        },
        {
          "internalType": "address",
          "name": "holder",
          "type": "address"
        },
        {
          "internalType": "uint256",
          "name": "amount",
          "type": "uint256"
        }
      ],
      "name": "burnKey",
      "outputs": [],
      "stateMutability": "nonpayable",
      "type": "function"
    },
    {
      "inputs": [
        {
          "internalType": "uint256",
          "name": "rootKeyId",
          "type": "uint256"
        },
        {
          "internalType": "uint256",
          "name": "keyId",
          "type": "uint256"
        },
        {
          "internalType": "address",
          "name": "receiver",
          "type": "address"
        },
        {
          "internalType": "bool",
          "name": "bind",
          "type": "bool"
        }
      ],
      "name": "copyKey",
      "outputs": [],
      "stateMutability": "nonpayable",
      "type": "function"
    },
    {
      "inputs": [
        {
          "internalType": "uint256",
          "name": "rootKeyId",
          "type": "uint256"
        },
        {
          "internalType": "bytes32",
          "name": "keyName",
          "type": "bytes32"
        },
        {
          "internalType": "address",
          "name": "receiver",
          "type": "address"
        },
        {
          "internalType": "bool",
          "name": "bind",
          "type": "bool"
        }
      ],
      "name": "createKey",
      "outputs": [
        {
          "internalType": "uint256",
          "name": "",
          "type": "uint256"
        }
      ],
      "stateMutability": "nonpayable",
      "type": "function"
    },
    {
      "inputs": [
        {
          "internalType": "bytes32",
          "name": "trustName",
          "type": "bytes32"
        },
        {
          "internalType": "address",
          "name": "recipient",
          "type": "address"
        }
      ],
      "name": "createTrustAndRootKey",
      "outputs": [
        {
          "internalType": "uint256",
          "name": "",
          "type": "uint256"
        },
        {
          "internalType": "uint256",
          "name": "",
          "type": "uint256"
        }
      ],
      "stateMutability": "nonpayable",
      "type": "function"
    },
    {
      "inputs": [],
      "name": "getKeyVault",
      "outputs": [
        {
          "internalType": "address",
          "name": "",
          "type": "address"
        }
      ],
      "stateMutability": "view",
      "type": "function"
    },
    {
      "inputs": [
        {
          "internalType": "uint256",
          "name": "trustId",
          "type": "uint256"
        }
      ],
      "name": "getKeys",
      "outputs": [
        {
          "internalType": "uint256[]",
          "name": "",
          "type": "uint256[]"
        }
      ],
      "stateMutability": "view",
      "type": "function"
    },
    {
      "inputs": [
        {
          "internalType": "address",
          "name": "_KeyVault",
          "type": "address"
        }
      ],
      "name": "initialize",
      "outputs": [],
      "stateMutability": "nonpayable",
      "type": "function"
    },
    {
      "inputs": [
        {
          "internalType": "uint256",
          "name": "keyId",
          "type": "uint256"
        }
      ],
      "name": "inspectKey",
      "outputs": [
        {
          "internalType": "bool",
          "name": "",
          "type": "bool"
        },
        {
          "internalType": "bytes32",
          "name": "",
          "type": "bytes32"
        },
        {
          "internalType": "uint256",
          "name": "",
          "type": "uint256"
        },
        {
          "internalType": "bool",
          "name": "",
          "type": "bool"
        },
        {
          "internalType": "uint256[]",
          "name": "",
          "type": "uint256[]"
        }
      ],
      "stateMutability": "view",
      "type": "function"
    },
    {
      "inputs": [
        {
          "internalType": "uint256",
          "name": "keyId",
          "type": "uint256"
        }
      ],
      "name": "isRootKey",
      "outputs": [
        {
          "internalType": "bool",
          "name": "",
          "type": "bool"
        }
      ],
      "stateMutability": "view",
      "type": "function"
    },
    {
      "inputs": [],
      "name": "keyCount",
      "outputs": [
        {
          "internalType": "uint256",
          "name": "",
          "type": "uint256"
        }
      ],
      "stateMutability": "view",
      "type": "function"
    },
    {
      "inputs": [
        {
          "internalType": "uint256",
          "name": "",
          "type": "uint256"
        }
      ],
      "name": "keyTrustAssociations",
      "outputs": [
        {
          "internalType": "uint256",
          "name": "",
          "type": "uint256"
        }
      ],
      "stateMutability": "view",
      "type": "function"
    },
    {
      "inputs": [],
      "name": "keyVault",
      "outputs": [
        {
          "internalType": "address",
          "name": "",
          "type": "address"
        }
      ],
      "stateMutability": "view",
      "type": "function"
    },
    {
      "inputs": [],
      "name": "owner",
      "outputs": [
        {
          "internalType": "address",
          "name": "",
          "type": "address"
        }
      ],
      "stateMutability": "view",
      "type": "function"
    },
    {
      "inputs": [],
      "name": "proxiableUUID",
      "outputs": [
        {
          "internalType": "bytes32",
          "name": "",
          "type": "bytes32"
        }
      ],
      "stateMutability": "view",
      "type": "function"
    },
    {
      "inputs": [],
      "name": "renounceOwnership",
      "outputs": [],
      "stateMutability": "nonpayable",
      "type": "function"
    },
    {
      "inputs": [
        {
          "internalType": "uint256",
          "name": "rootKeyId",
          "type": "uint256"
        },
        {
          "internalType": "address",
          "name": "keyHolder",
          "type": "address"
        },
        {
          "internalType": "uint256",
          "name": "keyId",
          "type": "uint256"
        },
        {
          "internalType": "uint256",
          "name": "amount",
          "type": "uint256"
        }
      ],
      "name": "soulbindKey",
      "outputs": [],
      "stateMutability": "nonpayable",
      "type": "function"
    },
    {
      "inputs": [
        {
          "internalType": "address",
          "name": "newOwner",
          "type": "address"
        }
      ],
      "name": "transferOwnership",
      "outputs": [],
      "stateMutability": "nonpayable",
      "type": "function"
    },
    {
      "inputs": [
        {
          "internalType": "uint256",
          "name": "",
          "type": "uint256"
        }
      ],
      "name": "trustRegistry",
      "outputs": [
        {
          "internalType": "uint256",
          "name": "id",
          "type": "uint256"
        },
        {
          "internalType": "bytes32",
          "name": "name",
          "type": "bytes32"
        },
        {
          "internalType": "uint256",
          "name": "rootKeyId",
          "type": "uint256"
        },
        {
          "internalType": "uint256",
          "name": "trustKeyCount",
          "type": "uint256"
        }
      ],
      "stateMutability": "view",
      "type": "function"
    },
    {
      "inputs": [
        {
          "internalType": "address",
          "name": "newImplementation",
          "type": "address"
        }
      ],
      "name": "upgradeTo",
      "outputs": [],
      "stateMutability": "nonpayable",
      "type": "function"
    },
    {
      "inputs": [
        {
          "internalType": "address",
          "name": "newImplementation",
          "type": "address"
        },
        {
          "internalType": "bytes",
          "name": "data",
          "type": "bytes"
        }
      ],
      "name": "upgradeToAndCall",
      "outputs": [],
      "stateMutability": "payable",
      "type": "function"
    },
    {
      "inputs": [
        {
          "internalType": "uint256",
          "name": "trustId",
          "type": "uint256"
        },
        {
          "internalType": "uint256[]",
          "name": "keys",
          "type": "uint256[]"
        },
        {
          "internalType": "bool",
          "name": "allowRoot",
          "type": "bool"
        }
      ],
      "name": "validateKeyRing",
      "outputs": [
        {
          "internalType": "bool",
          "name": "",
          "type": "bool"
        }
      ],
      "stateMutability": "view",
      "type": "function"
    }
  ],
  "bytecode": "0x60a06040523060805234801561001457600080fd5b5061001d610022565b6100e2565b600054610100900460ff161561008e5760405162461bcd60e51b815260206004820152602760248201527f496e697469616c697a61626c653a20636f6e747261637420697320696e697469604482015266616c697a696e6760c81b606482015260840160405180910390fd5b60005460ff90811610156100e0576000805460ff191660ff9081179091556040519081527f7f26b83ff96e1f2b6a682f133852f6798a09c465da95921460cefb38474024989060200160405180910390a15b565b6080516121406200011a600039600081816106d001528181610755015281816108ec015281816109710152610a5b01526121406000f3fe60806040526004361061016a5760003560e01c806388ecda52116100cb578063b83ac19f1161007f578063d2bd0fad11610059578063d2bd0fad14610443578063f2fde38b14610463578063fac750e01461048357600080fd5b8063b83ac19f146103d0578063c4d66de8146103ee578063cf1f7f251461040e57600080fd5b80638da5cb5b116100b05780638da5cb5b14610351578063a1ca668714610383578063a9150ea8146103a357600080fd5b806388ecda52146102f35780638d357fa31461032457600080fd5b806352d1902d116101225780636d7012fa116101075780636d7012fa1461025c578063715018a61461027c578063886b43f51461029157600080fd5b806352d1902d1461021757806353a81ee11461022c57600080fd5b80633659cfe6116101535780633659cfe6146101b15780634be8b11c146101d15780634f1ef2861461020457600080fd5b8063115116681461016f578063218fa8e614610191575b600080fd5b34801561017b57600080fd5b5061018f61018a366004611cd6565b610499565b005b34801561019d57600080fd5b5061018f6101ac366004611d23565b61062f565b3480156101bd57600080fd5b5061018f6101cc366004611d69565b6106c6565b3480156101dd57600080fd5b506101f16101ec366004611d23565b610841565b6040519081526020015b60405180910390f35b61018f610212366004611d9a565b6108e2565b34801561022357600080fd5b506101f1610a4e565b34801561023857600080fd5b5061024c610247366004611e5c565b610b13565b60405190151581526020016101fb565b34801561026857600080fd5b5061018f610277366004611ee1565b610d19565b34801561028857600080fd5b5061018f610e2a565b34801561029d57600080fd5b506102d36102ac366004611f1c565b60ca6020526000908152604090208054600182015460028301546003909301549192909184565b6040805194855260208501939093529183015260608201526080016101fb565b3480156102ff57600080fd5b5061031361030e366004611f1c565b610e3e565b6040516101fb959493929190611f70565b34801561033057600080fd5b5061034461033f366004611f1c565b610f05565b6040516101fb9190611faa565b34801561035d57600080fd5b506033546001600160a01b03165b6040516001600160a01b0390911681526020016101fb565b34801561038f57600080fd5b5060c95461036b906001600160a01b031681565b3480156103af57600080fd5b506101f16103be366004611f1c565b60cc6020526000908152604090205481565b3480156103dc57600080fd5b5060c9546001600160a01b031661036b565b3480156103fa57600080fd5b5061018f610409366004611d69565b610f8a565b34801561041a57600080fd5b5061042e610429366004611fbd565b6110da565b604080519283526020830191909152016101fb565b34801561044f57600080fd5b5061024c61045e366004611f1c565b611213565b34801561046f57600080fd5b5061018f61047e366004611d69565b61127a565b34801561048f57600080fd5b506101f160cd5481565b600060ca60006104a887611307565b81526020019081526020016000209050600081600601600086815260200190815260200160002054116105225760405162461bcd60e51b815260206004820152601360248201527f54525553545f4b45595f4e4f545f464f554e440000000000000000000000000060448201526064015b60405180910390fd5b60c9546040517ff5298aca0000000000000000000000000000000000000000000000000000000081526001600160a01b03858116600483015260248201879052604482018590529091169063f5298aca90606401600060405180830381600087803b15801561059057600080fd5b505af11580156105a4573d6000803e3d6000fd5b5050506000858152600783016020526040812080548593509091906105ca908490611fff565b9091555050805460408051338152602081019290925281018590526001600160a01b0384166060820152608081018390527f707b83adf4af3b12b746160986598d56e5b5d926ad0a6ce43d49c35bb77b58569060a00160405180910390a15050505050565b600060ca600061063e87611307565b81526020019081526020016000209050600081600601600086815260200190815260200160002054116106b35760405162461bcd60e51b815260206004820152601360248201527f54525553545f4b45595f4e4f545f464f554e44000000000000000000000000006044820152606401610519565b6106bf81858585611442565b5050505050565b6001600160a01b037f00000000000000000000000000000000000000000000000000000000000000001630036107535760405162461bcd60e51b815260206004820152602c60248201527f46756e6374696f6e206d7573742062652063616c6c6564207468726f7567682060448201526b19195b1959d85d1958d85b1b60a21b6064820152608401610519565b7f00000000000000000000000000000000000000000000000000000000000000006001600160a01b03166107ae7f360894a13ba1a3210667c828492db98dca3e2076cc3735a920a3ca505d382bbc546001600160a01b031690565b6001600160a01b0316146108195760405162461bcd60e51b815260206004820152602c60248201527f46756e6374696f6e206d7573742062652063616c6c6564207468726f7567682060448201526b6163746976652070726f787960a01b6064820152608401610519565b61082281611681565b6040805160008082526020820190925261083e91839190611689565b50565b60cd80546000918291908261085583612012565b919050559050600060ca600061086a89611307565b8152602001908152602001600020905080600301600081548092919061088f90612012565b9091555050600481018054600181018255600091825260208083209091018490558382526005830181526040808320899055835460cc909252909120556108d881838787611442565b5095945050505050565b6001600160a01b037f000000000000000000000000000000000000000000000000000000000000000016300361096f5760405162461bcd60e51b815260206004820152602c60248201527f46756e6374696f6e206d7573742062652063616c6c6564207468726f7567682060448201526b19195b1959d85d1958d85b1b60a21b6064820152608401610519565b7f00000000000000000000000000000000000000000000000000000000000000006001600160a01b03166109ca7f360894a13ba1a3210667c828492db98dca3e2076cc3735a920a3ca505d382bbc546001600160a01b031690565b6001600160a01b031614610a355760405162461bcd60e51b815260206004820152602c60248201527f46756e6374696f6e206d7573742062652063616c6c6564207468726f7567682060448201526b6163746976652070726f787960a01b6064820152608401610519565b610a3e82611681565b610a4a82826001611689565b5050565b6000306001600160a01b037f00000000000000000000000000000000000000000000000000000000000000001614610aee5760405162461bcd60e51b815260206004820152603860248201527f555550535570677261646561626c653a206d757374206e6f742062652063616c60448201527f6c6564207468726f7567682064656c656761746563616c6c00000000000000006064820152608401610519565b507f360894a13ba1a3210667c828492db98dca3e2076cc3735a920a3ca505d382bbc90565b600060cb548510610b665760405162461bcd60e51b815260206004820152600d60248201527f494e56414c49445f5452555354000000000000000000000000000000000000006044820152606401610519565b600085815260ca60209081526040808320600281015484526006810190925290912054610b9557610b9561202b565b60005b84811015610d0c5760cd54868683818110610bb557610bb5612041565b9050602002013510610c095760405162461bcd60e51b815260206004820152601360248201527f494e56414c49445f4b45595f4f4e5f52494e47000000000000000000000000006044820152606401610519565b8380610c3157508160020154868683818110610c2757610c27612041565b9050602002013514155b610c7d5760405162461bcd60e51b815260206004820152600c60248201527f524f4f545f4f4e5f52494e4700000000000000000000000000000000000000006044820152606401610519565b6000826006016000888885818110610c9757610c97612041565b9050602002013581526020019081526020016000205411610cfa5760405162461bcd60e51b815260206004820152600d60248201527f4e4f4e5f54525553545f4b4559000000000000000000000000000000000000006044820152606401610519565b80610d0481612012565b915050610b98565b5060019695505050505050565b600060ca6000610d2887611307565b8152602001908152602001600020905060008160060160008581526020019081526020016000205411610d9d5760405162461bcd60e51b815260206004820152601360248201527f54525553545f4b45595f4e4f545f464f554e44000000000000000000000000006044820152606401610519565b60c9546040517f3faf3d6b0000000000000000000000000000000000000000000000000000000081526001600160a01b038681166004830152602482018690526044820185905290911690633faf3d6b90606401600060405180830381600087803b158015610e0b57600080fd5b505af1158015610e1f573d6000803e3d6000fd5b505050505050505050565b610e3261182e565b610e3c6000611888565b565b60cd54600082815260cc602081815260408084205480855260ca83528185208786526005018352908420549290915291928392839283926060929088109190610e8689611213565b60008a815260cc6020908152604080832054835260ca8252918290206004018054835181840281018401909452808452909291839190830182828015610eeb57602002820191906000526020600020905b815481526020019060010190808311610ed7575b505050505090509450945094509450945091939590929450565b600081815260ca602052604081206004015460609103610f2757610f2761202b565b600082815260ca602090815260409182902060040180548351818402810184019094528084529091830182828015610f7e57602002820191906000526020600020905b815481526020019060010190808311610f6a575b50505050509050919050565b600054610100900460ff1615808015610faa5750600054600160ff909116105b80610fc45750303b158015610fc4575060005460ff166001145b6110365760405162461bcd60e51b815260206004820152602e60248201527f496e697469616c697a61626c653a20636f6e747261637420697320616c72656160448201527f647920696e697469616c697a65640000000000000000000000000000000000006064820152608401610519565b6000805460ff191660011790558015611059576000805461ff0019166101001790555b6110616118e7565b61106961195a565b60c9805473ffffffffffffffffffffffffffffffffffffffff19166001600160a01b0384161790558015610a4a576000805461ff0019169055604051600181527f7f26b83ff96e1f2b6a682f133852f6798a09c465da95921460cefb38474024989060200160405180910390a15050565b60cb8054600081815260ca602052604081209092839290836110fb83612012565b90915550815560cd805490600061111183612012565b90915550600282015560038101805490600061112c83612012565b9091555050600180820186905560028201805460048401805493840181556000908152602080822090940182905590815260058401835260408082207f726f6f7400000000000000000000000000000000000000000000000000000000905584548354835260cc909452812092909255546111ab918391908790611442565b805460018201546040805133815260208101939093528201526001600160a01b03851660608201527fd91e2f64746507b28147d9ed981a07fe6bf4e5935e328300ac680bb58aa1bbff9060800160405180910390a18054600290910154909590945092505050565b600060cd54821080156112435750600082815260cc6020908152604080832054835260ca90915290206002015482145b80156112745750600082815260cc6020908152604080832054835260ca825280832085845260060190915290205415155b92915050565b61128261182e565b6001600160a01b0381166112fe5760405162461bcd60e51b815260206004820152602660248201527f4f776e61626c653a206e6577206f776e657220697320746865207a65726f206160448201527f64647265737300000000000000000000000000000000000000000000000000006064820152608401610519565b61083e81611888565b60c954604051630f5d2cd560e11b8152336004820152602481018390526000604482018190529182916001600160a01b0390911690631eba59aa90606401602060405180830381865afa158015611362573d6000803e3d6000fd5b505050506040513d601f19601f820116820180604052508101906113869190612057565b116113d35760405162461bcd60e51b815260206004820152600c60248201527f4b45595f4e4f545f48454c4400000000000000000000000000000000000000006044820152606401610519565b600082815260cc602090815260408083205480845260ca9092529091206002015483146112745760405162461bcd60e51b815260206004820152600c60248201527f4b45595f4e4f545f524f4f5400000000000000000000000000000000000000006044820152606401610519565b6000838152600685016020526040812080549161145e83612012565b9190505550801561157b5760c954604051630f5d2cd560e11b81526001600160a01b038481166004830152602482018690526001604483015290911690633faf3d6b90849086908490631eba59aa90606401602060405180830381865afa1580156114cd573d6000803e3d6000fd5b505050506040513d601f19601f820116820180604052508101906114f19190612057565b6114fc906001611fff565b6040517fffffffff0000000000000000000000000000000000000000000000000000000060e086901b1681526001600160a01b03909316600484015260248301919091526044820152606401600060405180830381600087803b15801561156257600080fd5b505af1158015611576573d6000803e3d6000fd5b505050505b60c9546040517f731133e90000000000000000000000000000000000000000000000000000000081526001600160a01b038481166004830152602482018690526001604483015260806064830152600060848301529091169063731133e99060a401600060405180830381600087803b1580156115f757600080fd5b505af115801561160b573d6000803e3d6000fd5b5050855460008681526005880160209081526040918290205482513381529182019390935280820188905260608101929092526001600160a01b0386166080830152517fe50957d1d876dc7be82af5865a9afa4320e3a26b1e1375bf412962745de3562a93509081900360a0019150a150505050565b61083e61182e565b7f4910fdfa16fed3260ed0e7147f7cc6da11a60208b5b9406d12a635614ffd91435460ff16156116c1576116bc836119c5565b505050565b826001600160a01b03166352d1902d6040518163ffffffff1660e01b8152600401602060405180830381865afa92505050801561171b575060408051601f3d908101601f1916820190925261171891810190612057565b60015b61178d5760405162461bcd60e51b815260206004820152602e60248201527f45524331393637557067726164653a206e657720696d706c656d656e7461746960448201527f6f6e206973206e6f7420555550530000000000000000000000000000000000006064820152608401610519565b7f360894a13ba1a3210667c828492db98dca3e2076cc3735a920a3ca505d382bbc81146118225760405162461bcd60e51b815260206004820152602960248201527f45524331393637557067726164653a20756e737570706f727465642070726f7860448201527f6961626c655555494400000000000000000000000000000000000000000000006064820152608401610519565b506116bc838383611a90565b6033546001600160a01b03163314610e3c5760405162461bcd60e51b815260206004820181905260248201527f4f776e61626c653a2063616c6c6572206973206e6f7420746865206f776e65726044820152606401610519565b603380546001600160a01b0383811673ffffffffffffffffffffffffffffffffffffffff19831681179093556040519116919082907f8be0079c531659141344cd1fd0a4f28419497f9722a3daafe3b4186f6b6457e090600090a35050565b600054610100900460ff166119525760405162461bcd60e51b815260206004820152602b60248201527f496e697469616c697a61626c653a20636f6e7472616374206973206e6f74206960448201526a6e697469616c697a696e6760a81b6064820152608401610519565b610e3c611abb565b600054610100900460ff16610e3c5760405162461bcd60e51b815260206004820152602b60248201527f496e697469616c697a61626c653a20636f6e7472616374206973206e6f74206960448201526a6e697469616c697a696e6760a81b6064820152608401610519565b6001600160a01b0381163b611a425760405162461bcd60e51b815260206004820152602d60248201527f455243313936373a206e657720696d706c656d656e746174696f6e206973206e60448201527f6f74206120636f6e7472616374000000000000000000000000000000000000006064820152608401610519565b7f360894a13ba1a3210667c828492db98dca3e2076cc3735a920a3ca505d382bbc805473ffffffffffffffffffffffffffffffffffffffff19166001600160a01b0392909216919091179055565b611a9983611b2f565b600082511180611aa65750805b156116bc57611ab58383611b6f565b50505050565b600054610100900460ff16611b265760405162461bcd60e51b815260206004820152602b60248201527f496e697469616c697a61626c653a20636f6e7472616374206973206e6f74206960448201526a6e697469616c697a696e6760a81b6064820152608401610519565b610e3c33611888565b611b38816119c5565b6040516001600160a01b038216907fbc7cd75a20ee27fd9adebab32041f755214dbc6bffa90cc0225b39da2e5c2d3b90600090a250565b60606001600160a01b0383163b611bee5760405162461bcd60e51b815260206004820152602660248201527f416464726573733a2064656c65676174652063616c6c20746f206e6f6e2d636f60448201527f6e747261637400000000000000000000000000000000000000000000000000006064820152608401610519565b600080846001600160a01b031684604051611c099190612094565b600060405180830381855af49150503d8060008114611c44576040519150601f19603f3d011682016040523d82523d6000602084013e611c49565b606091505b5091509150611c7182826040518060600160405280602781526020016120e460279139611c7a565b95945050505050565b60608315611c89575081611cb3565b825115611c995782518084602001fd5b8160405162461bcd60e51b815260040161051991906120b0565b9392505050565b80356001600160a01b0381168114611cd157600080fd5b919050565b60008060008060808587031215611cec57600080fd5b8435935060208501359250611d0360408601611cba565b9396929550929360600135925050565b80358015158114611cd157600080fd5b60008060008060808587031215611d3957600080fd5b8435935060208501359250611d5060408601611cba565b9150611d5e60608601611d13565b905092959194509250565b600060208284031215611d7b57600080fd5b611cb382611cba565b634e487b7160e01b600052604160045260246000fd5b60008060408385031215611dad57600080fd5b611db683611cba565b9150602083013567ffffffffffffffff80821115611dd357600080fd5b818501915085601f830112611de757600080fd5b813581811115611df957611df9611d84565b604051601f8201601f19908116603f01168101908382118183101715611e2157611e21611d84565b81604052828152886020848701011115611e3a57600080fd5b8260208601602083013760006020848301015280955050505050509250929050565b60008060008060608587031215611e7257600080fd5b84359350602085013567ffffffffffffffff80821115611e9157600080fd5b818701915087601f830112611ea557600080fd5b813581811115611eb457600080fd5b8860208260051b8501011115611ec957600080fd5b602083019550809450505050611d5e60408601611d13565b60008060008060808587031215611ef757600080fd5b84359350611f0760208601611cba565b93969395505050506040820135916060013590565b600060208284031215611f2e57600080fd5b5035919050565b600081518084526020808501945080840160005b83811015611f6557815187529582019590820190600101611f49565b509495945050505050565b8515158152846020820152836040820152821515606082015260a060808201526000611f9f60a0830184611f35565b979650505050505050565b602081526000611cb36020830184611f35565b60008060408385031215611fd057600080fd5b82359150611fe060208401611cba565b90509250929050565b634e487b7160e01b600052601160045260246000fd5b8082018082111561127457611274611fe9565b60006001820161202457612024611fe9565b5060010190565b634e487b7160e01b600052600160045260246000fd5b634e487b7160e01b600052603260045260246000fd5b60006020828403121561206957600080fd5b5051919050565b60005b8381101561208b578181015183820152602001612073565b50506000910152565b600082516120a6818460208701612070565b9190910192915050565b60208152600082518060208401526120cf816040850160208701612070565b601f01601f1916919091016040019291505056fe416464726573733a206c6f772d6c6576656c2064656c65676174652063616c6c206661696c6564a264697066735822122083c15a11ecd6494e29a02748ea40d211f94cadc7c7d91e256a404a7d740bd42464736f6c63430008100033",
  "linkReferences": {},
  "deployedLinkReferences": {}
}