{
  "_format": "hh-sol-artifact-1",
  "contractName": "Locksmith",
  "sourceName": "contracts/Locksmith.sol",
  "abi": [
    {
      "inputs": [],
      "stateMutability": "nonpayable",
      "type": "constructor"
    },
    {
      "anonymous": false,
      "inputs": [
        {
          "indexed": false,
          "internalType": "address",
          "name": "previousAdmin",
          "type": "address"
        },
        {
          "indexed": false,
          "internalType": "address",
          "name": "newAdmin",
          "type": "address"
        }
      ],
      "name": "AdminChanged",
      "type": "event"
    },
    {
      "anonymous": false,
      "inputs": [
        {
          "indexed": true,
          "internalType": "address",
          "name": "beacon",
          "type": "address"
        }
      ],
      "name": "BeaconUpgraded",
      "type": "event"
    },
    {
      "anonymous": false,
      "inputs": [
        {
          "indexed": false,
          "internalType": "uint8",
          "name": "version",
          "type": "uint8"
        }
      ],
      "name": "Initialized",
      "type": "event"
    },
    {
      "anonymous": false,
      "inputs": [
        {
          "indexed": true,
          "internalType": "address",
          "name": "previousOwner",
          "type": "address"
        },
        {
          "indexed": true,
          "internalType": "address",
          "name": "newOwner",
          "type": "address"
        }
      ],
      "name": "OwnershipTransferred",
      "type": "event"
    },
    {
      "anonymous": false,
      "inputs": [
        {
          "indexed": true,
          "internalType": "address",
          "name": "implementation",
          "type": "address"
        }
      ],
      "name": "Upgraded",
      "type": "event"
    },
    {
      "anonymous": false,
      "inputs": [
        {
          "indexed": false,
          "internalType": "address",
          "name": "rootHolder",
          "type": "address"
        },
        {
          "indexed": false,
          "internalType": "uint256",
          "name": "trustId",
          "type": "uint256"
        },
        {
          "indexed": false,
          "internalType": "uint256",
          "name": "keyId",
          "type": "uint256"
        },
        {
          "indexed": false,
          "internalType": "address",
          "name": "target",
          "type": "address"
        },
        {
          "indexed": false,
          "internalType": "uint256",
          "name": "amount",
          "type": "uint256"
        }
      ],
      "name": "keyBurned",
      "type": "event"
    },
    {
      "anonymous": false,
      "inputs": [
        {
          "indexed": false,
          "internalType": "address",
          "name": "creator",
          "type": "address"
        },
        {
          "indexed": false,
          "internalType": "uint256",
          "name": "trustId",
          "type": "uint256"
        },
        {
          "indexed": false,
          "internalType": "uint256",
          "name": "keyId",
          "type": "uint256"
        },
        {
          "indexed": false,
          "internalType": "bytes32",
          "name": "keyName",
          "type": "bytes32"
        },
        {
          "indexed": false,
          "internalType": "address",
          "name": "receiver",
          "type": "address"
        }
      ],
      "name": "keyMinted",
      "type": "event"
    },
    {
      "anonymous": false,
      "inputs": [
        {
          "indexed": false,
          "internalType": "address",
          "name": "creator",
          "type": "address"
        },
        {
          "indexed": false,
          "internalType": "uint256",
          "name": "trustId",
          "type": "uint256"
        },
        {
          "indexed": false,
          "internalType": "bytes32",
          "name": "trustName",
          "type": "bytes32"
        },
        {
          "indexed": false,
          "internalType": "address",
          "name": "recipient",
          "type": "address"
        }
      ],
      "name": "trustCreated",
      "type": "event"
    },
    {
      "inputs": [
        {
          "internalType": "uint256",
          "name": "rootKeyId",
          "type": "uint256"
        },
        {
          "internalType": "uint256",
          "name": "keyId",
          "type": "uint256"
        },
        {
          "internalType": "address",
          "name": "holder",
          "type": "address"
        },
        {
          "internalType": "uint256",
          "name": "amount",
          "type": "uint256"
        }
      ],
      "name": "burnKey",
      "outputs": [],
      "stateMutability": "nonpayable",
      "type": "function"
    },
    {
      "inputs": [
        {
          "internalType": "uint256",
          "name": "rootKeyId",
          "type": "uint256"
        },
        {
          "internalType": "uint256",
          "name": "keyId",
          "type": "uint256"
        },
        {
          "internalType": "address",
          "name": "receiver",
          "type": "address"
        },
        {
          "internalType": "bool",
          "name": "bind",
          "type": "bool"
        }
      ],
      "name": "copyKey",
      "outputs": [],
      "stateMutability": "nonpayable",
      "type": "function"
    },
    {
      "inputs": [
        {
          "internalType": "uint256",
          "name": "rootKeyId",
          "type": "uint256"
        },
        {
          "internalType": "bytes32",
          "name": "keyName",
          "type": "bytes32"
        },
        {
          "internalType": "address",
          "name": "receiver",
          "type": "address"
        },
        {
          "internalType": "bool",
          "name": "bind",
          "type": "bool"
        }
      ],
      "name": "createKey",
      "outputs": [],
      "stateMutability": "nonpayable",
      "type": "function"
    },
    {
      "inputs": [
        {
          "internalType": "bytes32",
          "name": "trustName",
          "type": "bytes32"
        },
        {
          "internalType": "address",
          "name": "recipient",
          "type": "address"
        }
      ],
      "name": "createTrustAndRootKey",
      "outputs": [],
      "stateMutability": "nonpayable",
      "type": "function"
    },
    {
      "inputs": [],
      "name": "getKeyVault",
      "outputs": [
        {
          "internalType": "address",
          "name": "",
          "type": "address"
        }
      ],
      "stateMutability": "view",
      "type": "function"
    },
    {
      "inputs": [
        {
          "internalType": "uint256",
          "name": "trustId",
          "type": "uint256"
        }
      ],
      "name": "getKeys",
      "outputs": [
        {
          "internalType": "uint256[]",
          "name": "",
          "type": "uint256[]"
        }
      ],
      "stateMutability": "view",
      "type": "function"
    },
    {
      "inputs": [
        {
          "internalType": "address",
          "name": "_KeyVault",
          "type": "address"
        }
      ],
      "name": "initialize",
      "outputs": [],
      "stateMutability": "nonpayable",
      "type": "function"
    },
    {
      "inputs": [
        {
          "internalType": "uint256",
          "name": "keyId",
          "type": "uint256"
        }
      ],
      "name": "inspectKey",
      "outputs": [
        {
          "internalType": "bool",
          "name": "",
          "type": "bool"
        },
        {
          "internalType": "bytes32",
          "name": "",
          "type": "bytes32"
        },
        {
          "internalType": "uint256",
          "name": "",
          "type": "uint256"
        },
        {
          "internalType": "bool",
          "name": "",
          "type": "bool"
        },
        {
          "internalType": "uint256[]",
          "name": "",
          "type": "uint256[]"
        }
      ],
      "stateMutability": "view",
      "type": "function"
    },
    {
      "inputs": [
        {
          "internalType": "uint256",
          "name": "keyId",
          "type": "uint256"
        }
      ],
      "name": "isRootKey",
      "outputs": [
        {
          "internalType": "bool",
          "name": "",
          "type": "bool"
        }
      ],
      "stateMutability": "view",
      "type": "function"
    },
    {
      "inputs": [],
      "name": "keyCount",
      "outputs": [
        {
          "internalType": "uint256",
          "name": "",
          "type": "uint256"
        }
      ],
      "stateMutability": "view",
      "type": "function"
    },
    {
      "inputs": [
        {
          "internalType": "uint256",
          "name": "",
          "type": "uint256"
        }
      ],
      "name": "keyTrustAssociations",
      "outputs": [
        {
          "internalType": "uint256",
          "name": "",
          "type": "uint256"
        }
      ],
      "stateMutability": "view",
      "type": "function"
    },
    {
      "inputs": [],
      "name": "keyVault",
      "outputs": [
        {
          "internalType": "address",
          "name": "",
          "type": "address"
        }
      ],
      "stateMutability": "view",
      "type": "function"
    },
    {
      "inputs": [],
      "name": "owner",
      "outputs": [
        {
          "internalType": "address",
          "name": "",
          "type": "address"
        }
      ],
      "stateMutability": "view",
      "type": "function"
    },
    {
      "inputs": [],
      "name": "proxiableUUID",
      "outputs": [
        {
          "internalType": "bytes32",
          "name": "",
          "type": "bytes32"
        }
      ],
      "stateMutability": "view",
      "type": "function"
    },
    {
      "inputs": [],
      "name": "renounceOwnership",
      "outputs": [],
      "stateMutability": "nonpayable",
      "type": "function"
    },
    {
      "inputs": [
        {
          "internalType": "uint256",
          "name": "rootKeyId",
          "type": "uint256"
        },
        {
          "internalType": "address",
          "name": "keyHolder",
          "type": "address"
        },
        {
          "internalType": "uint256",
          "name": "keyId",
          "type": "uint256"
        },
        {
          "internalType": "uint256",
          "name": "amount",
          "type": "uint256"
        }
      ],
      "name": "soulbindKey",
      "outputs": [],
      "stateMutability": "nonpayable",
      "type": "function"
    },
    {
      "inputs": [
        {
          "internalType": "address",
          "name": "newOwner",
          "type": "address"
        }
      ],
      "name": "transferOwnership",
      "outputs": [],
      "stateMutability": "nonpayable",
      "type": "function"
    },
    {
      "inputs": [
        {
          "internalType": "uint256",
          "name": "",
          "type": "uint256"
        }
      ],
      "name": "trustRegistry",
      "outputs": [
        {
          "internalType": "uint256",
          "name": "id",
          "type": "uint256"
        },
        {
          "internalType": "bytes32",
          "name": "name",
          "type": "bytes32"
        },
        {
          "internalType": "uint256",
          "name": "rootKeyId",
          "type": "uint256"
        },
        {
          "internalType": "uint256",
          "name": "trustKeyCount",
          "type": "uint256"
        }
      ],
      "stateMutability": "view",
      "type": "function"
    },
    {
      "inputs": [
        {
          "internalType": "address",
          "name": "newImplementation",
          "type": "address"
        }
      ],
      "name": "upgradeTo",
      "outputs": [],
      "stateMutability": "nonpayable",
      "type": "function"
    },
    {
      "inputs": [
        {
          "internalType": "address",
          "name": "newImplementation",
          "type": "address"
        },
        {
          "internalType": "bytes",
          "name": "data",
          "type": "bytes"
        }
      ],
      "name": "upgradeToAndCall",
      "outputs": [],
      "stateMutability": "payable",
      "type": "function"
    },
    {
      "inputs": [
        {
          "internalType": "uint256",
          "name": "trustId",
          "type": "uint256"
        },
        {
          "internalType": "uint256[]",
          "name": "keys",
          "type": "uint256[]"
        },
        {
          "internalType": "bool",
          "name": "allowRoot",
          "type": "bool"
        }
      ],
      "name": "validateKeyRing",
      "outputs": [
        {
          "internalType": "bool",
          "name": "",
          "type": "bool"
        }
      ],
      "stateMutability": "view",
      "type": "function"
    }
  ],
  "bytecode": "0x60a06040523073ffffffffffffffffffffffffffffffffffffffff1660809073ffffffffffffffffffffffffffffffffffffffff168152503480156200004457600080fd5b50620000797fdcfc48d52cc88cc38e9245d97575e8fb5c6a7e338862f1e4857c40fe6f0b39c160001b620000f760201b60201c565b620000ad7fc86923cca28798674c43843461c1e7804c738cfd0715f6473a783d7dd4ede11960001b620000f760201b60201c565b620000e17f480c5cd196092a173c5863ece602484871983084e9654393783227968515c9af60001b620000f760201b60201c565b620000f1620000fa60201b60201c565b620002a5565b50565b600060019054906101000a900460ff16156200014d576040517f08c379a0000000000000000000000000000000000000000000000000000000008152600401620001449062000248565b60405180910390fd5b60ff801660008054906101000a900460ff1660ff161015620001bf5760ff6000806101000a81548160ff021916908360ff1602179055507f7f26b83ff96e1f2b6a682f133852f6798a09c465da95921460cefb384740249860ff604051620001b6919062000288565b60405180910390a15b565b600082825260208201905092915050565b7f496e697469616c697a61626c653a20636f6e747261637420697320696e69746960008201527f616c697a696e6700000000000000000000000000000000000000000000000000602082015250565b600062000230602783620001c1565b91506200023d82620001d2565b604082019050919050565b60006020820190508181036000830152620002638162000221565b9050919050565b600060ff82169050919050565b62000282816200026a565b82525050565b60006020820190506200029f600083018462000277565b92915050565b608051614d27620002dd60003960008181610ac801528181610b5601528181610f810152818161100f01526110bf0152614d276000f3fe60806040526004361061012a5760003560e01c806388ecda52116100ab578063b83ac19f1161006f578063b83ac19f146103e8578063c4d66de814610413578063cf1f7f251461043c578063d2bd0fad14610465578063f2fde38b146104a2578063fac750e0146104cb5761012a565b806388ecda52146102d75780638d357fa3146103185780638da5cb5b14610355578063a1ca668714610380578063a9150ea8146103ab5761012a565b806352d1902d116100f257806352d1902d146101ef57806353a81ee11461021a5780636d7012fa14610257578063715018a614610280578063886b43f5146102975761012a565b8063115116681461012f578063218fa8e6146101585780633659cfe6146101815780634be8b11c146101aa5780634f1ef286146101d3575b600080fd5b34801561013b57600080fd5b5061015660048036038101906101519190613771565b6104f6565b005b34801561016457600080fd5b5061017f600480360381019061017a9190613810565b6108b0565b005b34801561018d57600080fd5b506101a860048036038101906101a39190613877565b610ac6565b005b3480156101b657600080fd5b506101d160048036038101906101cc91906138da565b610c4e565b005b6101ed60048036038101906101e89190613a87565b610f7f565b005b3480156101fb57600080fd5b506102046110bb565b6040516102119190613af2565b60405180910390f35b34801561022657600080fd5b50610241600480360381019061023c9190613b6d565b611174565b60405161024e9190613bf0565b60405180910390f35b34801561026357600080fd5b5061027e60048036038101906102799190613c0b565b6117ac565b005b34801561028c57600080fd5b50610295611a47565b005b3480156102a357600080fd5b506102be60048036038101906102b99190613c72565b611a5b565b6040516102ce9493929190613cae565b60405180910390f35b3480156102e357600080fd5b506102fe60048036038101906102f99190613c72565b611a8b565b60405161030f959493929190613db1565b60405180910390f35b34801561032457600080fd5b5061033f600480360381019061033a9190613c72565b611c02565b60405161034c9190613e0b565b60405180910390f35b34801561036157600080fd5b5061036a611d76565b6040516103779190613e3c565b60405180910390f35b34801561038c57600080fd5b50610395611da0565b6040516103a29190613e3c565b60405180910390f35b3480156103b757600080fd5b506103d260048036038101906103cd9190613c72565b611dc6565b6040516103df9190613e57565b60405180910390f35b3480156103f457600080fd5b506103fd611dde565b60405161040a9190613e3c565b60405180910390f35b34801561041f57600080fd5b5061043a60048036038101906104359190613877565b611e8c565b005b34801561044857600080fd5b50610463600480360381019061045e9190613e72565b612148565b005b34801561047157600080fd5b5061048c60048036038101906104879190613c72565b61261a565b6040516104999190613bf0565b60405180910390f35b3480156104ae57600080fd5b506104c960048036038101906104c49190613877565b612726565b005b3480156104d757600080fd5b506104e06127a9565b6040516104ed9190613e57565b60405180910390f35b6105227f7e6567d1b55b00fa3c129422a4f8e30d7fc2da95dfc3258ef816bb120294834d60001b6127af565b61054e7f88abc6bdc63a10b827b61eec70971137bea4d1599fa7998191fde65c62ed840e60001b6127af565b61057a7f8cf93f584cc876015d1d7d2b16d77b548722b9d0eb29d61c900a67feae17c15260001b6127af565b600060ca6000610589876127b2565b815260200190815260200160002090506105c57f8f1b598c55dbed5e41dd2759c6c56c3a8c807bb9d4b7fab00938cbbe264446c260001b6127af565b6105f17fe5442216a21ff58ae4d81081ce95900e36fd6cda8b423834a1bb63e547c7475760001b6127af565b61061d7f674c87b25adbf968d674620c12ee5643cb37d78681292663a2abbecfcd85877460001b6127af565b60008160060160008681526020019081526020016000205411610675576040517f08c379a000000000000000000000000000000000000000000000000000000000815260040161066c90613f0f565b60405180910390fd5b6106a17f7c36555b28d334f5c25058c336db9e077da603e013909fbfba524bc61cafc5f060001b6127af565b6106cd7fc6d8d4f37deb9a9d50085f300198f59f7f9af61b331a0d0b7cd93e6e74f75f2460001b6127af565b6106f97fe2b0d57076eba7c409b2f45cce491d901d291249de1ff9a9b9294ae1fdbce56b60001b6127af565b60c960009054906101000a900473ffffffffffffffffffffffffffffffffffffffff1673ffffffffffffffffffffffffffffffffffffffff1663f5298aca8486856040518463ffffffff1660e01b815260040161075893929190613f2f565b600060405180830381600087803b15801561077257600080fd5b505af1158015610786573d6000803e3d6000fd5b505050506107b67f39be3063b8693f7c7a325308b950d4f7bfe291c586985fb4d058e92b8ca6dc2760001b6127af565b6107e27fe1a1891bb1cfb8d2bc1513286c8b6c4e394f9c362d306507e16d7d9c50f4393e60001b6127af565b8181600701600086815260200190815260200160002060008282546108079190613f95565b9250508190555061083a7f8eb0a69f7d8a882ba2c2d7c5a4a10a23bec628566962cce8107d983180f8ae7960001b6127af565b6108667f42cf2b66948b24e070b01fa46e6c127838233601e0ad5e31a2eea2d459cf68d160001b6127af565b7f707b83adf4af3b12b746160986598d56e5b5d926ad0a6ce43d49c35bb77b58563382600001548686866040516108a1959493929190613fc9565b60405180910390a15050505050565b6108dc7fbdaa78b604d82238197a8b038aeedc2951d4d915458a02679d47840080952e9b60001b6127af565b6109087f8389aadbc9e06824ae065268adbc2e1300d3b77665feb3e8cb2a62fe9a8cb10c60001b6127af565b6109347f3175dac212ec895cced1e80891a324be2ea228be860f277cd951dc763327407760001b6127af565b600060ca6000610943876127b2565b8152602001908152602001600020905061097f7fe5f6aece12e6175e794a8d554c47c743470cae38694f28b8365a6835fb77c88760001b6127af565b6109ab7fb47fabb551997dd350c99732364d2e35e6dfedcaa1b14d0177e6450b5bbe4d8660001b6127af565b6109d77f411c3a7fce8e53d996b75bb7dfc53b7741f86d407603d7f30a54b9032cd2c43260001b6127af565b60008160060160008681526020019081526020016000205411610a2f576040517f08c379a0000000000000000000000000000000000000000000000000000000008152600401610a2690613f0f565b60405180910390fd5b610a5b7f31aae57a2edfe58ce0de182f40425e8ea15150c0fef08f5b8734f33597f550ea60001b6127af565b610a877f7190a115dc572a9c24391d274c58116a939c1756bafbff7c228678e43c73eefd60001b6127af565b610ab37f614614a002d2cac554ed1413463b0cba39600f5cb908cb517e0feee6b665c6b960001b6127af565b610abf81858585612b4c565b5050505050565b7f000000000000000000000000000000000000000000000000000000000000000073ffffffffffffffffffffffffffffffffffffffff163073ffffffffffffffffffffffffffffffffffffffff1603610b54576040517f08c379a0000000000000000000000000000000000000000000000000000000008152600401610b4b9061408e565b60405180910390fd5b7f000000000000000000000000000000000000000000000000000000000000000073ffffffffffffffffffffffffffffffffffffffff16610b93612fc0565b73ffffffffffffffffffffffffffffffffffffffff1614610be9576040517f08c379a0000000000000000000000000000000000000000000000000000000008152600401610be090614120565b60405180910390fd5b610bf281613017565b610c4b81600067ffffffffffffffff811115610c1157610c1061395c565b5b6040519080825280601f01601f191660200182016040528015610c435781602001600182028036833780820191505090505b50600061304e565b50565b610c7a7f43e1f17a53aaf6fb21a7c6db3a4a16928805eb3a263bbfcaa46ab78d0c31415c60001b6127af565b610ca67f9486d331dde7736a9d3fa72c8db15ba106f5d3ab61bb4e939e406862ad96d08e60001b6127af565b610cd27fbab29ec4dd5397ef252b470ab5705daa9ee69e12a608c435a675b50e95f4a1c660001b6127af565b600060cd6000815480929190610ce790614140565b919050559050610d197f80a2ed5f24b5fed729407454dbaebaa5a7a32a97974aa402d0eec5cda15cbb2460001b6127af565b610d457f4e5cc71a73a05a3e7f774743f4e9abe92860415db74c9c3e4e70b5e769e59e1060001b6127af565b600060ca6000610d54886127b2565b81526020019081526020016000209050610d907f417b40003b8bae91653aea17742e8e71757c2af26bbc73566fa5a54cdc94211560001b6127af565b806003016000815480929190610da590614140565b9190505550610dd67f2a05bb51e5aa08cb7a813f5654728125e708593172016201403c31635ef7c8e060001b6127af565b610e027fd98a935b8cba91d5f56e549efbb7be80e6c03d43ec447ed6d49663c423fbaded60001b6127af565b80600401829080600181540180825580915050600190039060005260206000200160009091909190915055610e597f490624368bdf08e6c482e619226f823a521036e06b768da157ee10987ccd07ee60001b6127af565b610e857f617ae5602d59f96522dcb8493e3e98de454468c84480a48a266052f5af9fea3860001b6127af565b8481600501600084815260200190815260200160002081905550610ecb7f90ba6a15288258656f007955f9356ded83e62a939f16c494fb089e38401a94d060001b6127af565b610ef77f2de0f98aa781e95969676774c2a3471f00a4459451ad309c566ef1092e36930360001b6127af565b806000015460cc600084815260200190815260200160002081905550610f3f7fd4885cd6b28e1e155b00277792a932b0b57d86fadea8a7065a8c99783955fbf960001b6127af565b610f6b7fb44c654ad96df9303ae14a5653913388c421d8cd1c69603fcdc6b260834a238460001b6127af565b610f7781838686612b4c565b505050505050565b7f000000000000000000000000000000000000000000000000000000000000000073ffffffffffffffffffffffffffffffffffffffff163073ffffffffffffffffffffffffffffffffffffffff160361100d576040517f08c379a00000000000000000000000000000000000000000000000000000000081526004016110049061408e565b60405180910390fd5b7f000000000000000000000000000000000000000000000000000000000000000073ffffffffffffffffffffffffffffffffffffffff1661104c612fc0565b73ffffffffffffffffffffffffffffffffffffffff16146110a2576040517f08c379a000000000000000000000000000000000000000000000000000000000815260040161109990614120565b60405180910390fd5b6110ab82613017565b6110b78282600161304e565b5050565b60007f000000000000000000000000000000000000000000000000000000000000000073ffffffffffffffffffffffffffffffffffffffff163073ffffffffffffffffffffffffffffffffffffffff161461114b576040517f08c379a0000000000000000000000000000000000000000000000000000000008152600401611142906141fa565b60405180910390fd5b7f360894a13ba1a3210667c828492db98dca3e2076cc3735a920a3ca505d382bbc60001b905090565b60006111a27fe3f5b3c816b928187edf37857c4771e88eaeb59d72d4c37ebe8a8523f2dca84060001b6127af565b6111ce7f7f49ce6b44912f5b6883a5b6ba4f9734235c253ee934b4479a30c21c90904ac060001b6127af565b6111fa7f6824ad1534f67144fea93df9edd460fbaeeccbc623a8a4114bd6f3c1b84f5bee60001b6127af565b6112267fce39bdfca8bafea2c67e147f869e6dc686f67cb5a97e5aa98a9b1026dea154f660001b6127af565b60cb54851061126a576040517f08c379a000000000000000000000000000000000000000000000000000000000815260040161126190614266565b60405180910390fd5b6112967f9a8a785f954684b440341f2ed801b29ae935fbd2ca57a73fa65b67585b7d4e5760001b6127af565b6112c27f498269f368439e0f049c82eaf6f112a4a110d8ce6b2ecb7bb330c0c2150b91de60001b6127af565b6112ee7fba0fa05e64599a7784b7e773cc9bc8ff326fe73e88b9629a90452e4ffd318d8860001b6127af565b600060ca600087815260200190815260200160002090506113317f3616a8d200bf7701c673306b6d9f008e36381bd1eec8f6dd5b02063c11ab65c460001b6127af565b61135d7fdf4f36e6022adfc694b777727b32b16a4ebdf4fea16134da9bc47e046702f5c260001b6127af565b600081600601600083600201548152602001908152602001600020541161138757611386614286565b5b6113b37f1704c810752c90858898c5de18daad2318de934408f8602e1462c978e486141760001b6127af565b6113df7f7724ec6a7d5fc6bf96a10b0cbd4eb6f7277bea80a9633a9c953b3234008cd21b60001b6127af565b60005b85859050811015611746576114197f1a0825b4ad4b51dd429518385cadeba0d7ebdabb1a5b8fa9a2877df37ece9c2860001b6127af565b6114457fd91d930454e0bee11037b979063a22772eeddca3d1d98381cf4e08657645722360001b6127af565b6114717f7f1a067a4bb060e94fbefe2034a530d321b6442f69da4d94db5727ab704e844960001b6127af565b60cd54868683818110611487576114866142b5565b5b90506020020135106114ce576040517f08c379a00000000000000000000000000000000000000000000000000000000081526004016114c590614330565b60405180910390fd5b6114fa7f9fee8fd4ee9bd0742cc8df060daa887faf1b66f8e3379828db82ae92a7c46d8260001b6127af565b6115267fd5d9dd9b0478a67bcf254d1fd7ea702c75d197e70a3f3c93ee0ab5346ba04eda60001b6127af565b6115527fdbcce34a55383f353cdcced45b40766f432747fcf700e87b4bd627f978b5719260001b6127af565b61157e7ff441f636d6f3f39eb7e204c245e8a66fae3a83c09cb13cbd67c6ea3ef4d811ae60001b6127af565b83806115a75750816002015486868381811061159d5761159c6142b5565b5b9050602002013514155b6115e6576040517f08c379a00000000000000000000000000000000000000000000000000000000081526004016115dd9061439c565b60405180910390fd5b6116127fb1bec2fc0368d8510ccf23a35f697e0df0d87fe06fad7e68b7f7be9d29560ea360001b6127af565b61163e7f0e88d04ee854012bc3077bc0a7f4a0dbe5b86bb2f18cbdbbce0979c5aac6755a60001b6127af565b61166a7f66885c8af4fbf81021e93e6ff950ded1aa69f6447a66555ec993901f6406dca260001b6127af565b6116967fb1c74996f6d0a0681c0c0ec7a59095482c7f58bad45c213baecad3d9bc9fa3c060001b6127af565b60008260060160008888858181106116b1576116b06142b5565b5b9050602002013581526020019081526020016000205411611707576040517f08c379a00000000000000000000000000000000000000000000000000000000081526004016116fe90614408565b60405180910390fd5b6117337fec0af91b5210a1aed20e857c3466e9b8149c78337d4ba967effdf66648b41b7e60001b6127af565b808061173e90614140565b9150506113e2565b506117737f63d8f764192d9fcb991322b7eaddd6dda5b52e42fd4b1044ff6a584e9e26240b60001b6127af565b61179f7fd051adf7ea1b56382fef3eb8911be8f469e2ba0aefe65717281eb32b7fa6634a60001b6127af565b6001915050949350505050565b6117d87fcc5a2e85bfc05cb0a0ff8845db91cd6215fc47e422fd9854508feb4537b2403360001b6127af565b6118047fdd1ec9b532a96bb672837779c03e2dbaffcb086dd97664132182c550927c2e1760001b6127af565b6118307f76ff908388e33a54fb48ff9c751350ad5001d2523a981a8c973aae8a260cfb0260001b6127af565b600060ca600061183f876127b2565b8152602001908152602001600020905061187b7ff8e300ded829ad245e4f281351a66a78e8e8911c9368978fa8e2268d520af53d60001b6127af565b6118a77f2980f6b20eac7ebc12131170fe1e1f2dddd244ed23d4598798585139a1d9739660001b6127af565b6118d37f533eca330b04615bf81c7c0461cfa4c7c3893ce7045b04574d4b37201240bdfb60001b6127af565b6000816006016000858152602001908152602001600020541161192b576040517f08c379a000000000000000000000000000000000000000000000000000000000815260040161192290613f0f565b60405180910390fd5b6119577fec5dc2fc355701115bd4c24eb5c8242d6afecaba00d9b41b86893a697201a3f860001b6127af565b6119837f77e06b862b32f71f1226871822b18da808f68ae3c78e252863ab26c991e044b260001b6127af565b6119af7f5e109de0512324d3771c5d3c3e5d6e4640139145e015da9329ebf7830226cc0060001b6127af565b60c960009054906101000a900473ffffffffffffffffffffffffffffffffffffffff1673ffffffffffffffffffffffffffffffffffffffff16633faf3d6b8585856040518463ffffffff1660e01b8152600401611a0e93929190613f2f565b600060405180830381600087803b158015611a2857600080fd5b505af1158015611a3c573d6000803e3d6000fd5b505050505050505050565b611a4f6131bc565b611a59600061323a565b565b60ca6020528060005260406000206000915090508060000154908060010154908060020154908060030154905084565b6000806000806060611abf7f75c5c07ab57b2b427d84874360e8211a000a7f38de798640dbdf23c199ef32ab60001b6127af565b611aeb7f423fbae2cfea6a003cd938773d6a86e9f4f83ab2aa12ec9c3cb2e226a239797460001b6127af565b611b177f0a6c6fc1bd51ec983a9caa6310a15005cc989fcc869e43cdd1167e4c01108cdf60001b6127af565b60cd54861060ca600060cc60008a815260200190815260200160002054815260200190815260200160002060050160008881526020019081526020016000205460cc600089815260200190815260200160002054611b748961261a565b60ca600060cc60008d815260200190815260200160002054815260200190815260200160002060040180805480602002602001604051908101604052809291908181526020018280548015611be857602002820191906000526020600020905b815481526020019060010190808311611bd4575b505050505090509450945094509450945091939590929450565b6060611c307f5d0866f51a200c2c67082a3a6bb2ba7c22c2495ecf01b50669d6975aa84cf3ac60001b6127af565b611c5c7f7fcc23c89aa138cb33ad3a8c93191266a771c93bad9a8b6bd29d036aaba6b2c060001b6127af565b611c887f9a854c205ebc6a771974cd3153c50adb2ee1b8f05a84f1027678508bb5ec066c60001b6127af565b600060ca60008481526020019081526020016000206004018054905003611cb257611cb1614286565b5b611cde7f5d12b3072fa62d03965481a919edde44a0c1e4dc6bf2988a5e8d652adacf6a6660001b6127af565b611d0a7f2509534c0837fd44c20d248929a0e2311416a6d51048330dbb664615ef1a8b5d60001b6127af565b60ca6000838152602001908152602001600020600401805480602002602001604051908101604052809291908181526020018280548015611d6a57602002820191906000526020600020905b815481526020019060010190808311611d56575b50505050509050919050565b6000603360009054906101000a900473ffffffffffffffffffffffffffffffffffffffff16905090565b60c960009054906101000a900473ffffffffffffffffffffffffffffffffffffffff1681565b60cc6020528060005260406000206000915090505481565b6000611e0c7faefc7919d68f66d42ecf67b7fbc85677f8a0204eae5b7fd84004123256c52e0d60001b6127af565b611e387fb4030e83a11afa482bf42fa2b5ce101fce8b7d37912e228628903c1f77c3278e60001b6127af565b611e647f63cbc1ce8a00340fc1caeb9eaab9b0349c7e5de1259c18cd4bac4abb53effd3560001b6127af565b60c960009054906101000a900473ffffffffffffffffffffffffffffffffffffffff16905090565b60008060019054906101000a900460ff16159050808015611ebd5750600160008054906101000a900460ff1660ff16105b80611eea5750611ecc30613300565b158015611ee95750600160008054906101000a900460ff1660ff16145b5b611f29576040517f08c379a0000000000000000000000000000000000000000000000000000000008152600401611f209061449a565b60405180910390fd5b60016000806101000a81548160ff021916908360ff1602179055508015611f66576001600060016101000a81548160ff0219169083151502179055505b611f927f549248c89bf5ba2becc8fc8804a69f903d9776937a4708be3c4971b5b27e6ab860001b6127af565b611fbe7faffc76cdc46f2b9c56c26c18a055bb8d6a179eb392953faa6adcdda8228b4b4a60001b6127af565b611fea7f7964dd5c4cd3145d86256b818aa9bd4c02acd98c6a780b1826311e3fda58eb4460001b6127af565b611ff2613323565b61201e7f0d65deb49902d0756671f5294586d458e22bb9f8f455eb4abb45ee26424f5ac560001b6127af565b61204a7fd164b2b7d24f087cb73a566a5090a2b2c97c856b7eff6dbf70b14dd6addb45f360001b6127af565b61205261337c565b61207e7fd41e162577d726bfa2f3a7937b82d97f147102e7f19530eb2cbc38a9a16bef3960001b6127af565b6120aa7f0dd53ac1a49b6fdafe3a5cb9e59da7170bca3761d67d4c88ebd2cef8732e6b4460001b6127af565b8160c960006101000a81548173ffffffffffffffffffffffffffffffffffffffff021916908373ffffffffffffffffffffffffffffffffffffffff16021790555080156121445760008060016101000a81548160ff0219169083151502179055507f7f26b83ff96e1f2b6a682f133852f6798a09c465da95921460cefb3847402498600160405161213b919061450c565b60405180910390a15b5050565b6121747fb26e9a02bb29264334f25b6b50003511348b93ef9f4e6067d85ab4d056d5952860001b6127af565b6121a07fc20e646ec16cde496f9b559bfa736a5c26dbdb1cec76489db2f2bf6fa758e4dd60001b6127af565b6121cc7f2c3ca180cf125d5136b8fc903343db1b0e54c64f6607f6d56316549e1b3ac77d60001b6127af565b600060ca600060cb54815260200190815260200160002090506122117f5264723e5a908b911e32fda5ad34bfa2ba4e8ac7ccca84e32f85dc6da1d1918660001b6127af565b61223d7f2092683a9a294494762347e9873b5f7b731bb005dd81148f8d4504a251967ca460001b6127af565b60cb600081548092919061225090614140565b9190505581600001819055506122887fd4c790d523ddb466637dab5f1c49d0ae94fde8950a6d750eab9b765eedfaff0860001b6127af565b6122b47fb8ea1a23cf05defa848b3cda794a4554ab7072554a237689cf66d8eb9b8e369060001b6127af565b60cd60008154809291906122c790614140565b9190505581600201819055506122ff7f80608ef353261c68a024e9d42196b32db14c9fb70d98c25d2549abb47260846d60001b6127af565b80600301600081548092919061231490614140565b91905055506123457f13dd80ec16a015bdad680b05205a20a57a41afda6c3f0582f37c3f8e86bf568460001b6127af565b6123717fa6ac7a5541c87b78e3a12caad82fe2cfb312587c5133d739436b353597276c9160001b6127af565b8281600101819055506123a67fcf6bd1465e295cb1c6d81adc593e975a2ef915f360e9475363bd844a1dd70dc860001b6127af565b6123d27f0a2b5bf18a0ba0688f7053e5a6919c34f9a0483236651561b70450640f0a8a5160001b6127af565b806004018160020154908060018154018082558091505060019003906000526020600020016000909190919091505561242d7f2e23d434f82e3d55cfc3c7c7db989f6e04b1d7c65c2f2954222ec41b37bad59260001b6127af565b6124597f1ef33057ee85165dc7fd13721e95c0016db7ebeb19a9ad0e0fc2d6436b94e98c60001b6127af565b7f726f6f740000000000000000000000000000000000000000000000000000000081600501600083600201548152602001908152602001600020819055506124c37feaffb2d101d4248fdefc750ba2c62a38578e0acc5d75625d4cb65e7edc80936160001b6127af565b6124ef7f7b1cc02d2d0c463bcf5b5a06f0671dd27ced62ead5fba869d25cbb225de532cf60001b6127af565b806000015460cc6000836002015481526020019081526020016000208190555061253b7f3073b407869db296fce3d1f5a9f289da47466de3602511b656460bed6e8572c060001b6127af565b6125677f7bc062165f8a77835b0728560b575c84995d6daa86b5062741cfa6297b8aea8a60001b6127af565b612578818260020154846000612b4c565b6125a47f89484d5ec1ca55f1a86850d718d7e5cfcdc10bc375b4228bcf7c7a568892eb8660001b6127af565b6125d07fe9ac1b2798972218d8b889ecf01cb61698368d5f9e0f0b5333e15c3fe3f0dc4c60001b6127af565b7fd91e2f64746507b28147d9ed981a07fe6bf4e5935e328300ac680bb58aa1bbff33826000015483600101548560405161260d9493929190614527565b60405180910390a1505050565b60006126487f306e2c0f139800cee6ec5b8bb70e905e3d9c761128273c3888b7f3e5f0a5964060001b6127af565b6126747fabb66d99f480f2b0cff83b25df2a15ffe8e81557a572868c738acc55c7af58c460001b6127af565b6126a07fbb2d4a8c4f920fbf21face62d612f6cb762827e580ce678a198f5178251ba89d60001b6127af565b60cd54821080156126d9575060ca600060cc60008581526020019081526020016000205481526020019081526020016000206002015482145b801561271f5750600060ca600060cc6000868152602001908152602001600020548152602001908152602001600020600601600084815260200190815260200160002054115b9050919050565b61272e6131bc565b600073ffffffffffffffffffffffffffffffffffffffff168173ffffffffffffffffffffffffffffffffffffffff160361279d576040517f08c379a0000000000000000000000000000000000000000000000000000000008152600401612794906145de565b60405180910390fd5b6127a68161323a565b50565b60cd5481565b50565b60006127e07fe5b160320908caed9b2d71379769a6b1133f72f39209e86e1b521f6ff7a5fc9060001b6127af565b61280c7f2343155aec9369deeea6c14265e03d8dedf2806f6a8d8e45d3cbb45ec8b9be4660001b6127af565b6128387f8a588b0f34b994a5f65014cb53d6e00c93156c3b24bf4bedd087ae8c535df88760001b6127af565b6128647f79d045d219a0accf4b3af166e0ce22d553d5bda49b1a1702566f39fd41be60ac60001b6127af565b600060c960009054906101000a900473ffffffffffffffffffffffffffffffffffffffff1673ffffffffffffffffffffffffffffffffffffffff16631eba59aa338560006040518463ffffffff1660e01b81526004016128c6939291906145fe565b602060405180830381865afa1580156128e3573d6000803e3d6000fd5b505050506040513d601f19601f82011682018060405250810190612907919061464a565b11612947576040517f08c379a000000000000000000000000000000000000000000000000000000000815260040161293e906146c3565b60405180910390fd5b6129737fc83e2852b6522245ba8cda6c26bf799b8270888581219ab98ad2fade22b9880960001b6127af565b61299f7ff01af3e588b4327e3bfb941cb5ff362c684bbaded9a1b8f324a181d4060fdaa560001b6127af565b6129cb7f40a30bd7c6871a1bc1b996f9d3ace92bd0164a403dc9b5c0f8ab75a24a50db8460001b6127af565b600060cc6000848152602001908152602001600020549050612a0f7f5bbfc29d313b5aa7ee176ef382b65ccef65b35d1dd82aa60596321189f2bba7660001b6127af565b612a3b7fc9249fc8de732dbd398bdf42858e54d309a27c2967b2fe9e107c665ecaa0009760001b6127af565b612a677f8619c2ddf2f0cf175c9b169da65acf1ba007b99040604dddd2b81d05df4d7f9460001b6127af565b60ca6000828152602001908152602001600020600201548314612abf576040517f08c379a0000000000000000000000000000000000000000000000000000000008152600401612ab69061472f565b60405180910390fd5b612aeb7f7847da81f49e4ea97eebea217a98930b3657b677e5b6f087eccb4353eb250bbf60001b6127af565b612b177faf6407cca3479a0255b29c7542bcf3c7f41ec65d09a1c617f7eea2355017880c60001b6127af565b612b437fcf4542b096765e0c2f0d78d5470b9892be4f246ecee6e8d07944d3de609a6bda60001b6127af565b80915050919050565b612b787f168a64b74acd47dc04efff8ba5cfb9064f62cbce2ce8483ac3f4f2ac9613f0ac60001b6127af565b612ba47f953a57e844b122594af21baf13d19cbbc20d5f3c2cfca6c84684be7e578e551f60001b6127af565b8360060160008481526020019081526020016000206000815480929190612bca90614140565b9190505550612bfb7f7973fcf4d76be9949d8749d1e8ebe5e2a52c99fe4a8e546a7240f70cf3474a5760001b6127af565b612c277f9453f8cfd25c20c1906d76a700924a5d8c8f0fb951a573d14ad1c77848fd942560001b6127af565b8015612df357612c597fba546cefef3cfe902757c2f8a220c300c487d3eb1afea9785d63dba032e197a560001b6127af565b612c857f6462c84203fbc87ce4058bdbe3ee7d462fd00c00abd8f4dfa49cb21614e5264a60001b6127af565b612cb17fe922c2561fcaa47823de43626e18270e38b5a6dff76e825222967f6f83aa98e160001b6127af565b60c960009054906101000a900473ffffffffffffffffffffffffffffffffffffffff1673ffffffffffffffffffffffffffffffffffffffff16633faf3d6b8385600160c960009054906101000a900473ffffffffffffffffffffffffffffffffffffffff1673ffffffffffffffffffffffffffffffffffffffff16631eba59aa888a60016040518463ffffffff1660e01b8152600401612d53939291906145fe565b602060405180830381865afa158015612d70573d6000803e3d6000fd5b505050506040513d601f19601f82011682018060405250810190612d94919061464a565b612d9e9190613f95565b6040518463ffffffff1660e01b8152600401612dbc93929190613f2f565b600060405180830381600087803b158015612dd657600080fd5b505af1158015612dea573d6000803e3d6000fd5b50505050612e20565b612e1f7fd9057f9a3ea0105a1c0d1f898de1ba4a82cc3f58873e6f58e25aab05124b24a060001b6127af565b5b612e4c7f122df7a9cac1740987a7f7e15384384be4816710196f6dc82c7b5ce9fd7dbb7060001b6127af565b612e787f1bbb89d4301ba68ae502fccde72d2e71917781e9f07da0306831a10668b4995960001b6127af565b60c960009054906101000a900473ffffffffffffffffffffffffffffffffffffffff1673ffffffffffffffffffffffffffffffffffffffff1663731133e9838560016040518463ffffffff1660e01b8152600401612ed8939291906147b7565b600060405180830381600087803b158015612ef257600080fd5b505af1158015612f06573d6000803e3d6000fd5b50505050612f367fa42f0f7c79c12fe0b3dcdfa5484a708afb0d8c4a1f6a0ac376448138a160e20960001b6127af565b612f627ff51f5a8db6ab7127f96eaaca4785d398d2db38b8c5d5688f3535e39f68fa9d3860001b6127af565b7fe50957d1d876dc7be82af5865a9afa4320e3a26b1e1375bf412962745de3562a338560000154858760050160008881526020019081526020016000205486604051612fb2959493929190614801565b60405180910390a150505050565b6000612fee7f360894a13ba1a3210667c828492db98dca3e2076cc3735a920a3ca505d382bbc60001b6133cd565b60000160009054906101000a900473ffffffffffffffffffffffffffffffffffffffff16905090565b61301f6131bc565b61304b7f7d0916c9a8b82fea5665858e3e02966aa9d9a124fd7ea018a9730eef7230b2b560001b6127af565b50565b61307a7f4910fdfa16fed3260ed0e7147f7cc6da11a60208b5b9406d12a635614ffd914360001b6133d7565b60000160009054906101000a900460ff161561309e57613099836133e1565b6131b7565b8273ffffffffffffffffffffffffffffffffffffffff166352d1902d6040518163ffffffff1660e01b8152600401602060405180830381865afa92505050801561310657506040513d601f19601f820116820180604052508101906131039190614869565b60015b613145576040517f08c379a000000000000000000000000000000000000000000000000000000000815260040161313c90614908565b60405180910390fd5b7f360894a13ba1a3210667c828492db98dca3e2076cc3735a920a3ca505d382bbc60001b81146131aa576040517f08c379a00000000000000000000000000000000000000000000000000000000081526004016131a19061499a565b60405180910390fd5b506131b683838361349a565b5b505050565b6131c46134c6565b73ffffffffffffffffffffffffffffffffffffffff166131e2611d76565b73ffffffffffffffffffffffffffffffffffffffff1614613238576040517f08c379a000000000000000000000000000000000000000000000000000000000815260040161322f90614a06565b60405180910390fd5b565b6000603360009054906101000a900473ffffffffffffffffffffffffffffffffffffffff16905081603360006101000a81548173ffffffffffffffffffffffffffffffffffffffff021916908373ffffffffffffffffffffffffffffffffffffffff1602179055508173ffffffffffffffffffffffffffffffffffffffff168173ffffffffffffffffffffffffffffffffffffffff167f8be0079c531659141344cd1fd0a4f28419497f9722a3daafe3b4186f6b6457e060405160405180910390a35050565b6000808273ffffffffffffffffffffffffffffffffffffffff163b119050919050565b600060019054906101000a900460ff16613372576040517f08c379a000000000000000000000000000000000000000000000000000000000815260040161336990614a98565b60405180910390fd5b61337a6134ce565b565b600060019054906101000a900460ff166133cb576040517f08c379a00000000000000000000000000000000000000000000000000000000081526004016133c290614a98565b60405180910390fd5b565b6000819050919050565b6000819050919050565b6133ea81613300565b613429576040517f08c379a000000000000000000000000000000000000000000000000000000000815260040161342090614b2a565b60405180910390fd5b806134567f360894a13ba1a3210667c828492db98dca3e2076cc3735a920a3ca505d382bbc60001b6133cd565b60000160006101000a81548173ffffffffffffffffffffffffffffffffffffffff021916908373ffffffffffffffffffffffffffffffffffffffff16021790555050565b6134a38361352f565b6000825111806134b05750805b156134c1576134bf838361357e565b505b505050565b600033905090565b600060019054906101000a900460ff1661351d576040517f08c379a000000000000000000000000000000000000000000000000000000000815260040161351490614a98565b60405180910390fd5b61352d6135286134c6565b61323a565b565b613538816133e1565b8073ffffffffffffffffffffffffffffffffffffffff167fbc7cd75a20ee27fd9adebab32041f755214dbc6bffa90cc0225b39da2e5c2d3b60405160405180910390a250565b606061358983613300565b6135c8576040517f08c379a00000000000000000000000000000000000000000000000000000000081526004016135bf90614bbc565b60405180910390fd5b6000808473ffffffffffffffffffffffffffffffffffffffff16846040516135f09190614c4d565b600060405180830381855af49150503d806000811461362b576040519150601f19603f3d011682016040523d82523d6000602084013e613630565b606091505b50915091506136588282604051806060016040528060278152602001614ccb60279139613662565b9250505092915050565b60608315613672578290506136c2565b6000835111156136855782518084602001fd5b816040517f08c379a00000000000000000000000000000000000000000000000000000000081526004016136b99190614ca8565b60405180910390fd5b9392505050565b6000604051905090565b600080fd5b600080fd5b6000819050919050565b6136f0816136dd565b81146136fb57600080fd5b50565b60008135905061370d816136e7565b92915050565b600073ffffffffffffffffffffffffffffffffffffffff82169050919050565b600061373e82613713565b9050919050565b61374e81613733565b811461375957600080fd5b50565b60008135905061376b81613745565b92915050565b6000806000806080858703121561378b5761378a6136d3565b5b6000613799878288016136fe565b94505060206137aa878288016136fe565b93505060406137bb8782880161375c565b92505060606137cc878288016136fe565b91505092959194509250565b60008115159050919050565b6137ed816137d8565b81146137f857600080fd5b50565b60008135905061380a816137e4565b92915050565b6000806000806080858703121561382a576138296136d3565b5b6000613838878288016136fe565b9450506020613849878288016136fe565b935050604061385a8782880161375c565b925050606061386b878288016137fb565b91505092959194509250565b60006020828403121561388d5761388c6136d3565b5b600061389b8482850161375c565b91505092915050565b6000819050919050565b6138b7816138a4565b81146138c257600080fd5b50565b6000813590506138d4816138ae565b92915050565b600080600080608085870312156138f4576138f36136d3565b5b6000613902878288016136fe565b9450506020613913878288016138c5565b93505060406139248782880161375c565b9250506060613935878288016137fb565b91505092959194509250565b600080fd5b600080fd5b6000601f19601f8301169050919050565b7f4e487b7100000000000000000000000000000000000000000000000000000000600052604160045260246000fd5b6139948261394b565b810181811067ffffffffffffffff821117156139b3576139b261395c565b5b80604052505050565b60006139c66136c9565b90506139d2828261398b565b919050565b600067ffffffffffffffff8211156139f2576139f161395c565b5b6139fb8261394b565b9050602081019050919050565b82818337600083830152505050565b6000613a2a613a25846139d7565b6139bc565b905082815260208101848484011115613a4657613a45613946565b5b613a51848285613a08565b509392505050565b600082601f830112613a6e57613a6d613941565b5b8135613a7e848260208601613a17565b91505092915050565b60008060408385031215613a9e57613a9d6136d3565b5b6000613aac8582860161375c565b925050602083013567ffffffffffffffff811115613acd57613acc6136d8565b5b613ad985828601613a59565b9150509250929050565b613aec816138a4565b82525050565b6000602082019050613b076000830184613ae3565b92915050565b600080fd5b600080fd5b60008083601f840112613b2d57613b2c613941565b5b8235905067ffffffffffffffff811115613b4a57613b49613b0d565b5b602083019150836020820283011115613b6657613b65613b12565b5b9250929050565b60008060008060608587031215613b8757613b866136d3565b5b6000613b95878288016136fe565b945050602085013567ffffffffffffffff811115613bb657613bb56136d8565b5b613bc287828801613b17565b93509350506040613bd5878288016137fb565b91505092959194509250565b613bea816137d8565b82525050565b6000602082019050613c056000830184613be1565b92915050565b60008060008060808587031215613c2557613c246136d3565b5b6000613c33878288016136fe565b9450506020613c448782880161375c565b9350506040613c55878288016136fe565b9250506060613c66878288016136fe565b91505092959194509250565b600060208284031215613c8857613c876136d3565b5b6000613c96848285016136fe565b91505092915050565b613ca8816136dd565b82525050565b6000608082019050613cc36000830187613c9f565b613cd06020830186613ae3565b613cdd6040830185613c9f565b613cea6060830184613c9f565b95945050505050565b600081519050919050565b600082825260208201905092915050565b6000819050602082019050919050565b613d28816136dd565b82525050565b6000613d3a8383613d1f565b60208301905092915050565b6000602082019050919050565b6000613d5e82613cf3565b613d688185613cfe565b9350613d7383613d0f565b8060005b83811015613da4578151613d8b8882613d2e565b9750613d9683613d46565b925050600181019050613d77565b5085935050505092915050565b600060a082019050613dc66000830188613be1565b613dd36020830187613ae3565b613de06040830186613c9f565b613ded6060830185613be1565b8181036080830152613dff8184613d53565b90509695505050505050565b60006020820190508181036000830152613e258184613d53565b905092915050565b613e3681613733565b82525050565b6000602082019050613e516000830184613e2d565b92915050565b6000602082019050613e6c6000830184613c9f565b92915050565b60008060408385031215613e8957613e886136d3565b5b6000613e97858286016138c5565b9250506020613ea88582860161375c565b9150509250929050565b600082825260208201905092915050565b7f54525553545f4b45595f4e4f545f464f554e4400000000000000000000000000600082015250565b6000613ef9601383613eb2565b9150613f0482613ec3565b602082019050919050565b60006020820190508181036000830152613f2881613eec565b9050919050565b6000606082019050613f446000830186613e2d565b613f516020830185613c9f565b613f5e6040830184613c9f565b949350505050565b7f4e487b7100000000000000000000000000000000000000000000000000000000600052601160045260246000fd5b6000613fa0826136dd565b9150613fab836136dd565b9250828201905080821115613fc357613fc2613f66565b5b92915050565b600060a082019050613fde6000830188613e2d565b613feb6020830187613c9f565b613ff86040830186613c9f565b6140056060830185613e2d565b6140126080830184613c9f565b9695505050505050565b7f46756e6374696f6e206d7573742062652063616c6c6564207468726f7567682060008201527f64656c656761746563616c6c0000000000000000000000000000000000000000602082015250565b6000614078602c83613eb2565b91506140838261401c565b604082019050919050565b600060208201905081810360008301526140a78161406b565b9050919050565b7f46756e6374696f6e206d7573742062652063616c6c6564207468726f7567682060008201527f6163746976652070726f78790000000000000000000000000000000000000000602082015250565b600061410a602c83613eb2565b9150614115826140ae565b604082019050919050565b60006020820190508181036000830152614139816140fd565b9050919050565b600061414b826136dd565b91507fffffffffffffffffffffffffffffffffffffffffffffffffffffffffffffffff820361417d5761417c613f66565b5b600182019050919050565b7f555550535570677261646561626c653a206d757374206e6f742062652063616c60008201527f6c6564207468726f7567682064656c656761746563616c6c0000000000000000602082015250565b60006141e4603883613eb2565b91506141ef82614188565b604082019050919050565b60006020820190508181036000830152614213816141d7565b9050919050565b7f494e56414c49445f545255535400000000000000000000000000000000000000600082015250565b6000614250600d83613eb2565b915061425b8261421a565b602082019050919050565b6000602082019050818103600083015261427f81614243565b9050919050565b7f4e487b7100000000000000000000000000000000000000000000000000000000600052600160045260246000fd5b7f4e487b7100000000000000000000000000000000000000000000000000000000600052603260045260246000fd5b7f494e56414c49445f4b45595f4f4e5f52494e4700000000000000000000000000600082015250565b600061431a601383613eb2565b9150614325826142e4565b602082019050919050565b600060208201905081810360008301526143498161430d565b9050919050565b7f524f4f545f4f4e5f52494e470000000000000000000000000000000000000000600082015250565b6000614386600c83613eb2565b915061439182614350565b602082019050919050565b600060208201905081810360008301526143b581614379565b9050919050565b7f4e4f4e5f54525553545f4b455900000000000000000000000000000000000000600082015250565b60006143f2600d83613eb2565b91506143fd826143bc565b602082019050919050565b60006020820190508181036000830152614421816143e5565b9050919050565b7f496e697469616c697a61626c653a20636f6e747261637420697320616c72656160008201527f647920696e697469616c697a6564000000000000000000000000000000000000602082015250565b6000614484602e83613eb2565b915061448f82614428565b604082019050919050565b600060208201905081810360008301526144b381614477565b9050919050565b6000819050919050565b600060ff82169050919050565b6000819050919050565b60006144f66144f16144ec846144ba565b6144d1565b6144c4565b9050919050565b614506816144db565b82525050565b600060208201905061452160008301846144fd565b92915050565b600060808201905061453c6000830187613e2d565b6145496020830186613c9f565b6145566040830185613ae3565b6145636060830184613e2d565b95945050505050565b7f4f776e61626c653a206e6577206f776e657220697320746865207a65726f206160008201527f6464726573730000000000000000000000000000000000000000000000000000602082015250565b60006145c8602683613eb2565b91506145d38261456c565b604082019050919050565b600060208201905081810360008301526145f7816145bb565b9050919050565b60006060820190506146136000830186613e2d565b6146206020830185613c9f565b61462d6040830184613be1565b949350505050565b600081519050614644816136e7565b92915050565b6000602082840312156146605761465f6136d3565b5b600061466e84828501614635565b91505092915050565b7f4b45595f4e4f545f48454c440000000000000000000000000000000000000000600082015250565b60006146ad600c83613eb2565b91506146b882614677565b602082019050919050565b600060208201905081810360008301526146dc816146a0565b9050919050565b7f4b45595f4e4f545f524f4f540000000000000000000000000000000000000000600082015250565b6000614719600c83613eb2565b9150614724826146e3565b602082019050919050565b600060208201905081810360008301526147488161470c565b9050919050565b600061476a614765614760846144ba565b6144d1565b6136dd565b9050919050565b61477a8161474f565b82525050565b600082825260208201905092915050565b50565b60006147a1600083614780565b91506147ac82614791565b600082019050919050565b60006080820190506147cc6000830186613e2d565b6147d96020830185613c9f565b6147e66040830184614771565b81810360608301526147f781614794565b9050949350505050565b600060a0820190506148166000830188613e2d565b6148236020830187613c9f565b6148306040830186613c9f565b61483d6060830185613ae3565b61484a6080830184613e2d565b9695505050505050565b600081519050614863816138ae565b92915050565b60006020828403121561487f5761487e6136d3565b5b600061488d84828501614854565b91505092915050565b7f45524331393637557067726164653a206e657720696d706c656d656e7461746960008201527f6f6e206973206e6f742055555053000000000000000000000000000000000000602082015250565b60006148f2602e83613eb2565b91506148fd82614896565b604082019050919050565b60006020820190508181036000830152614921816148e5565b9050919050565b7f45524331393637557067726164653a20756e737570706f727465642070726f7860008201527f6961626c65555549440000000000000000000000000000000000000000000000602082015250565b6000614984602983613eb2565b915061498f82614928565b604082019050919050565b600060208201905081810360008301526149b381614977565b9050919050565b7f4f776e61626c653a2063616c6c6572206973206e6f7420746865206f776e6572600082015250565b60006149f0602083613eb2565b91506149fb826149ba565b602082019050919050565b60006020820190508181036000830152614a1f816149e3565b9050919050565b7f496e697469616c697a61626c653a20636f6e7472616374206973206e6f74206960008201527f6e697469616c697a696e67000000000000000000000000000000000000000000602082015250565b6000614a82602b83613eb2565b9150614a8d82614a26565b604082019050919050565b60006020820190508181036000830152614ab181614a75565b9050919050565b7f455243313936373a206e657720696d706c656d656e746174696f6e206973206e60008201527f6f74206120636f6e747261637400000000000000000000000000000000000000602082015250565b6000614b14602d83613eb2565b9150614b1f82614ab8565b604082019050919050565b60006020820190508181036000830152614b4381614b07565b9050919050565b7f416464726573733a2064656c65676174652063616c6c20746f206e6f6e2d636f60008201527f6e74726163740000000000000000000000000000000000000000000000000000602082015250565b6000614ba6602683613eb2565b9150614bb182614b4a565b604082019050919050565b60006020820190508181036000830152614bd581614b99565b9050919050565b600081519050919050565b600081905092915050565b60005b83811015614c10578082015181840152602081019050614bf5565b60008484015250505050565b6000614c2782614bdc565b614c318185614be7565b9350614c41818560208601614bf2565b80840191505092915050565b6000614c598284614c1c565b915081905092915050565b600081519050919050565b6000614c7a82614c64565b614c848185613eb2565b9350614c94818560208601614bf2565b614c9d8161394b565b840191505092915050565b60006020820190508181036000830152614cc28184614c6f565b90509291505056fe416464726573733a206c6f772d6c6576656c2064656c65676174652063616c6c206661696c6564a2646970667358221220c5f67b6cfea46cd40b43185b96140f109cf3d484bcc2d59d3477e9b22258caa964736f6c63430008100033",
  "linkReferences": {},
  "deployedLinkReferences": {}
}