{
  "_format": "hh-sol-artifact-1",
  "contractName": "Locksmith",
  "sourceName": "contracts/Locksmith.sol",
  "abi": [
    {
      "inputs": [],
      "stateMutability": "nonpayable",
      "type": "constructor"
    },
    {
      "anonymous": false,
      "inputs": [
        {
          "indexed": false,
          "internalType": "address",
          "name": "previousAdmin",
          "type": "address"
        },
        {
          "indexed": false,
          "internalType": "address",
          "name": "newAdmin",
          "type": "address"
        }
      ],
      "name": "AdminChanged",
      "type": "event"
    },
    {
      "anonymous": false,
      "inputs": [
        {
          "indexed": true,
          "internalType": "address",
          "name": "beacon",
          "type": "address"
        }
      ],
      "name": "BeaconUpgraded",
      "type": "event"
    },
    {
      "anonymous": false,
      "inputs": [
        {
          "indexed": false,
          "internalType": "uint8",
          "name": "version",
          "type": "uint8"
        }
      ],
      "name": "Initialized",
      "type": "event"
    },
    {
      "anonymous": false,
      "inputs": [
        {
          "indexed": true,
          "internalType": "address",
          "name": "previousOwner",
          "type": "address"
        },
        {
          "indexed": true,
          "internalType": "address",
          "name": "newOwner",
          "type": "address"
        }
      ],
      "name": "OwnershipTransferred",
      "type": "event"
    },
    {
      "anonymous": false,
      "inputs": [
        {
          "indexed": true,
          "internalType": "address",
          "name": "implementation",
          "type": "address"
        }
      ],
      "name": "Upgraded",
      "type": "event"
    },
    {
      "anonymous": false,
      "inputs": [
        {
          "indexed": false,
          "internalType": "address",
          "name": "rootHolder",
          "type": "address"
        },
        {
          "indexed": false,
          "internalType": "uint256",
          "name": "trustId",
          "type": "uint256"
        },
        {
          "indexed": false,
          "internalType": "uint256",
          "name": "keyId",
          "type": "uint256"
        },
        {
          "indexed": false,
          "internalType": "address",
          "name": "target",
          "type": "address"
        },
        {
          "indexed": false,
          "internalType": "uint256",
          "name": "amount",
          "type": "uint256"
        }
      ],
      "name": "keyBurned",
      "type": "event"
    },
    {
      "anonymous": false,
      "inputs": [
        {
          "indexed": false,
          "internalType": "address",
          "name": "creator",
          "type": "address"
        },
        {
          "indexed": false,
          "internalType": "uint256",
          "name": "trustId",
          "type": "uint256"
        },
        {
          "indexed": false,
          "internalType": "uint256",
          "name": "keyId",
          "type": "uint256"
        },
        {
          "indexed": false,
          "internalType": "bytes32",
          "name": "keyName",
          "type": "bytes32"
        },
        {
          "indexed": false,
          "internalType": "address",
          "name": "receiver",
          "type": "address"
        }
      ],
      "name": "keyMinted",
      "type": "event"
    },
    {
      "anonymous": false,
      "inputs": [
        {
          "indexed": false,
          "internalType": "address",
          "name": "creator",
          "type": "address"
        },
        {
          "indexed": false,
          "internalType": "uint256",
          "name": "trustId",
          "type": "uint256"
        },
        {
          "indexed": false,
          "internalType": "bytes32",
          "name": "trustName",
          "type": "bytes32"
        },
        {
          "indexed": false,
          "internalType": "address",
          "name": "recipient",
          "type": "address"
        }
      ],
      "name": "trustCreated",
      "type": "event"
    },
    {
      "inputs": [
        {
          "internalType": "uint256",
          "name": "rootKeyId",
          "type": "uint256"
        },
        {
          "internalType": "uint256",
          "name": "keyId",
          "type": "uint256"
        },
        {
          "internalType": "address",
          "name": "holder",
          "type": "address"
        },
        {
          "internalType": "uint256",
          "name": "amount",
          "type": "uint256"
        }
      ],
      "name": "burnKey",
      "outputs": [],
      "stateMutability": "nonpayable",
      "type": "function"
    },
    {
      "inputs": [
        {
          "internalType": "uint256",
          "name": "rootKeyId",
          "type": "uint256"
        },
        {
          "internalType": "uint256",
          "name": "keyId",
          "type": "uint256"
        },
        {
          "internalType": "address",
          "name": "receiver",
          "type": "address"
        },
        {
          "internalType": "bool",
          "name": "bind",
          "type": "bool"
        }
      ],
      "name": "copyKey",
      "outputs": [],
      "stateMutability": "nonpayable",
      "type": "function"
    },
    {
      "inputs": [
        {
          "internalType": "uint256",
          "name": "rootKeyId",
          "type": "uint256"
        },
        {
          "internalType": "bytes32",
          "name": "keyName",
          "type": "bytes32"
        },
        {
          "internalType": "address",
          "name": "receiver",
          "type": "address"
        },
        {
          "internalType": "bool",
          "name": "bind",
          "type": "bool"
        }
      ],
      "name": "createKey",
      "outputs": [
        {
          "internalType": "uint256",
          "name": "",
          "type": "uint256"
        }
      ],
      "stateMutability": "nonpayable",
      "type": "function"
    },
    {
      "inputs": [
        {
          "internalType": "bytes32",
          "name": "trustName",
          "type": "bytes32"
        },
        {
          "internalType": "address",
          "name": "recipient",
          "type": "address"
        }
      ],
      "name": "createTrustAndRootKey",
      "outputs": [
        {
          "internalType": "uint256",
          "name": "",
          "type": "uint256"
        },
        {
          "internalType": "uint256",
          "name": "",
          "type": "uint256"
        }
      ],
      "stateMutability": "nonpayable",
      "type": "function"
    },
    {
      "inputs": [],
      "name": "getKeyVault",
      "outputs": [
        {
          "internalType": "address",
          "name": "",
          "type": "address"
        }
      ],
      "stateMutability": "view",
      "type": "function"
    },
    {
      "inputs": [
        {
          "internalType": "uint256",
          "name": "trustId",
          "type": "uint256"
        }
      ],
      "name": "getKeys",
      "outputs": [
        {
          "internalType": "uint256[]",
          "name": "",
          "type": "uint256[]"
        }
      ],
      "stateMutability": "view",
      "type": "function"
    },
    {
      "inputs": [
        {
          "internalType": "uint256",
          "name": "trustId",
          "type": "uint256"
        }
      ],
      "name": "getTrustInfo",
      "outputs": [
        {
          "internalType": "uint256",
          "name": "",
          "type": "uint256"
        },
        {
          "internalType": "bytes32",
          "name": "",
          "type": "bytes32"
        },
        {
          "internalType": "uint256",
          "name": "",
          "type": "uint256"
        },
        {
          "internalType": "uint256",
          "name": "",
          "type": "uint256"
        }
      ],
      "stateMutability": "view",
      "type": "function"
    },
    {
      "inputs": [
        {
          "internalType": "address",
          "name": "_KeyVault",
          "type": "address"
        }
      ],
      "name": "initialize",
      "outputs": [],
      "stateMutability": "nonpayable",
      "type": "function"
    },
    {
      "inputs": [
        {
          "internalType": "uint256",
          "name": "keyId",
          "type": "uint256"
        }
      ],
      "name": "inspectKey",
      "outputs": [
        {
          "internalType": "bool",
          "name": "",
          "type": "bool"
        },
        {
          "internalType": "bytes32",
          "name": "",
          "type": "bytes32"
        },
        {
          "internalType": "uint256",
          "name": "",
          "type": "uint256"
        },
        {
          "internalType": "bool",
          "name": "",
          "type": "bool"
        },
        {
          "internalType": "uint256[]",
          "name": "",
          "type": "uint256[]"
        }
      ],
      "stateMutability": "view",
      "type": "function"
    },
    {
      "inputs": [
        {
          "internalType": "uint256",
          "name": "keyId",
          "type": "uint256"
        }
      ],
      "name": "isRootKey",
      "outputs": [
        {
          "internalType": "bool",
          "name": "",
          "type": "bool"
        }
      ],
      "stateMutability": "view",
      "type": "function"
    },
    {
      "inputs": [],
      "name": "keyVault",
      "outputs": [
        {
          "internalType": "address",
          "name": "",
          "type": "address"
        }
      ],
      "stateMutability": "view",
      "type": "function"
    },
    {
      "inputs": [],
      "name": "owner",
      "outputs": [
        {
          "internalType": "address",
          "name": "",
          "type": "address"
        }
      ],
      "stateMutability": "view",
      "type": "function"
    },
    {
      "inputs": [],
      "name": "proxiableUUID",
      "outputs": [
        {
          "internalType": "bytes32",
          "name": "",
          "type": "bytes32"
        }
      ],
      "stateMutability": "view",
      "type": "function"
    },
    {
      "inputs": [],
      "name": "renounceOwnership",
      "outputs": [],
      "stateMutability": "nonpayable",
      "type": "function"
    },
    {
      "inputs": [
        {
          "internalType": "uint256",
          "name": "rootKeyId",
          "type": "uint256"
        },
        {
          "internalType": "address",
          "name": "keyHolder",
          "type": "address"
        },
        {
          "internalType": "uint256",
          "name": "keyId",
          "type": "uint256"
        },
        {
          "internalType": "uint256",
          "name": "amount",
          "type": "uint256"
        }
      ],
      "name": "soulbindKey",
      "outputs": [],
      "stateMutability": "nonpayable",
      "type": "function"
    },
    {
      "inputs": [
        {
          "internalType": "address",
          "name": "newOwner",
          "type": "address"
        }
      ],
      "name": "transferOwnership",
      "outputs": [],
      "stateMutability": "nonpayable",
      "type": "function"
    },
    {
      "inputs": [
        {
          "internalType": "address",
          "name": "newImplementation",
          "type": "address"
        }
      ],
      "name": "upgradeTo",
      "outputs": [],
      "stateMutability": "nonpayable",
      "type": "function"
    },
    {
      "inputs": [
        {
          "internalType": "address",
          "name": "newImplementation",
          "type": "address"
        },
        {
          "internalType": "bytes",
          "name": "data",
          "type": "bytes"
        }
      ],
      "name": "upgradeToAndCall",
      "outputs": [],
      "stateMutability": "payable",
      "type": "function"
    },
    {
      "inputs": [
        {
          "internalType": "uint256",
          "name": "trustId",
          "type": "uint256"
        },
        {
          "internalType": "uint256[]",
          "name": "keys",
          "type": "uint256[]"
        },
        {
          "internalType": "bool",
          "name": "allowRoot",
          "type": "bool"
        }
      ],
      "name": "validateKeyRing",
      "outputs": [
        {
          "internalType": "bool",
          "name": "",
          "type": "bool"
        }
      ],
      "stateMutability": "view",
      "type": "function"
    }
  ],
  "bytecode": "0x60a06040523060805234801561001457600080fd5b5061001d610022565b6100e2565b600054610100900460ff161561008e5760405162461bcd60e51b815260206004820152602760248201527f496e697469616c697a61626c653a20636f6e747261637420697320696e697469604482015266616c697a696e6760c81b606482015260840160405180910390fd5b60005460ff90811610156100e0576000805460ff191660ff9081179091556040519081527f7f26b83ff96e1f2b6a682f133852f6798a09c465da95921460cefb38474024989060200160405180910390a15b565b6080516120b56200011a6000396000818161060b01528181610690015281816108060152818161088b015261097501526120b56000f3fe6080604052600436106101445760003560e01c806388ecda52116100c0578063c4d66de811610074578063d2bd0fad11610059578063d2bd0fad1461038e578063e991f211146103ae578063f2fde38b146103ee57600080fd5b8063c4d66de814610339578063cf1f7f251461035957600080fd5b80638da5cb5b116100a55780638da5cb5b146102c9578063a1ca6687146102fb578063b83ac19f1461031b57600080fd5b806388ecda521461026b5780638d357fa31461029c57600080fd5b80634f1ef2861161011757806353a81ee1116100fc57806353a81ee1146102065780636d7012fa14610236578063715018a61461025657600080fd5b80634f1ef286146101de57806352d1902d146101f157600080fd5b80631151166814610149578063218fa8e61461016b5780633659cfe61461018b5780634be8b11c146101ab575b600080fd5b34801561015557600080fd5b50610169610164366004611c4b565b61040e565b005b34801561017757600080fd5b50610169610186366004611c98565b610574565b34801561019757600080fd5b506101696101a6366004611cde565b610601565b3480156101b757600080fd5b506101cb6101c6366004611c98565b61077c565b6040519081526020015b60405180910390f35b6101696101ec366004611d0f565b6107fc565b3480156101fd57600080fd5b506101cb610968565b34801561021257600080fd5b50610226610221366004611dd1565b610a2d565b60405190151581526020016101d5565b34801561024257600080fd5b50610169610251366004611e56565b610c2e565b34801561026257600080fd5b50610169610d35565b34801561027757600080fd5b5061028b610286366004611e91565b610d49565b6040516101d5959493929190611ee5565b3480156102a857600080fd5b506102bc6102b7366004611e91565b610dca565b6040516101d59190611f1f565b3480156102d557600080fd5b506033546001600160a01b03165b6040516001600160a01b0390911681526020016101d5565b34801561030757600080fd5b5060c9546102e3906001600160a01b031681565b34801561032757600080fd5b5060c9546001600160a01b03166102e3565b34801561034557600080fd5b50610169610354366004611cde565b610e16565b34801561036557600080fd5b50610379610374366004611f32565b610f66565b604080519283526020830191909152016101d5565b34801561039a57600080fd5b506102266103a9366004611e91565b611080565b3480156103ba57600080fd5b506103ce6103c9366004611e91565b6110df565b6040805194855260208501939093529183015260608201526080016101d5565b3480156103fa57600080fd5b50610169610409366004611cde565b611120565b600060ca600061041d876111ad565b81526020810191909152604001600020905061043c60038201856112e8565b61048d5760405162461bcd60e51b815260206004820152601360248201527f54525553545f4b45595f4e4f545f464f554e440000000000000000000000000060448201526064015b60405180910390fd5b60c9546040517ff5298aca0000000000000000000000000000000000000000000000000000000081526001600160a01b03858116600483015260248201879052604482018590529091169063f5298aca90606401600060405180830381600087803b1580156104fb57600080fd5b505af115801561050f573d6000803e3d6000fd5b5050825460408051338152602081019290925281018790526001600160a01b0386166060820152608081018590527f707b83adf4af3b12b746160986598d56e5b5d926ad0a6ce43d49c35bb77b5856925060a001905060405180910390a15050505050565b600060ca6000610583876111ad565b8152602081019190915260400160002090506105a260038201856112e8565b6105ee5760405162461bcd60e51b815260206004820152601360248201527f54525553545f4b45595f4e4f545f464f554e44000000000000000000000000006044820152606401610484565b6105fa81858585611303565b5050505050565b6001600160a01b037f000000000000000000000000000000000000000000000000000000000000000016300361068e5760405162461bcd60e51b815260206004820152602c60248201527f46756e6374696f6e206d7573742062652063616c6c6564207468726f7567682060448201526b19195b1959d85d1958d85b1b60a21b6064820152608401610484565b7f00000000000000000000000000000000000000000000000000000000000000006001600160a01b03166106e97f360894a13ba1a3210667c828492db98dca3e2076cc3735a920a3ca505d382bbc546001600160a01b031690565b6001600160a01b0316146107545760405162461bcd60e51b815260206004820152602c60248201527f46756e6374696f6e206d7573742062652063616c6c6564207468726f7567682060448201526b6163746976652070726f787960a01b6064820152608401610484565b61075d8161152f565b6040805160008082526020820190925261077991839190611537565b50565b60008060ca600061078c886111ad565b81526020019081526020016000209050600060cd60008154809291906107b190611f74565b9091555090506107c460038301826116dc565b5060008181526005830160209081526040808320899055845460cc909252909120556107f282828787611303565b9695505050505050565b6001600160a01b037f00000000000000000000000000000000000000000000000000000000000000001630036108895760405162461bcd60e51b815260206004820152602c60248201527f46756e6374696f6e206d7573742062652063616c6c6564207468726f7567682060448201526b19195b1959d85d1958d85b1b60a21b6064820152608401610484565b7f00000000000000000000000000000000000000000000000000000000000000006001600160a01b03166108e47f360894a13ba1a3210667c828492db98dca3e2076cc3735a920a3ca505d382bbc546001600160a01b031690565b6001600160a01b03161461094f5760405162461bcd60e51b815260206004820152602c60248201527f46756e6374696f6e206d7573742062652063616c6c6564207468726f7567682060448201526b6163746976652070726f787960a01b6064820152608401610484565b6109588261152f565b61096482826001611537565b5050565b6000306001600160a01b037f00000000000000000000000000000000000000000000000000000000000000001614610a085760405162461bcd60e51b815260206004820152603860248201527f555550535570677261646561626c653a206d757374206e6f742062652063616c60448201527f6c6564207468726f7567682064656c656761746563616c6c00000000000000006064820152608401610484565b507f360894a13ba1a3210667c828492db98dca3e2076cc3735a920a3ca505d382bbc90565b600060cb548510610a805760405162461bcd60e51b815260206004820152600d60248201527f494e56414c49445f5452555354000000000000000000000000000000000000006044820152606401610484565b600085815260ca602052604090206002810154610aa19060038301906112e8565b610aad57610aad611f8d565b60005b84811015610c215760cd54868683818110610acd57610acd611fa3565b9050602002013510610b215760405162461bcd60e51b815260206004820152601360248201527f494e56414c49445f4b45595f4f4e5f52494e47000000000000000000000000006044820152606401610484565b8380610b4957508160020154868683818110610b3f57610b3f611fa3565b9050602002013514155b610b955760405162461bcd60e51b815260206004820152600c60248201527f524f4f545f4f4e5f52494e4700000000000000000000000000000000000000006044820152606401610484565b610bc3868683818110610baa57610baa611fa3565b90506020020135836003016112e890919063ffffffff16565b610c0f5760405162461bcd60e51b815260206004820152600d60248201527f4e4f4e5f54525553545f4b4559000000000000000000000000000000000000006044820152606401610484565b80610c1981611f74565b915050610ab0565b5060019695505050505050565b600060ca6000610c3d876111ad565b815260208101919091526040016000209050610c5c60038201846112e8565b610ca85760405162461bcd60e51b815260206004820152601360248201527f54525553545f4b45595f4e4f545f464f554e44000000000000000000000000006044820152606401610484565b60c9546040517f3faf3d6b0000000000000000000000000000000000000000000000000000000081526001600160a01b038681166004830152602482018690526044820185905290911690633faf3d6b90606401600060405180830381600087803b158015610d1657600080fd5b505af1158015610d2a573d6000803e3d6000fd5b505050505050505050565b610d3d6116e8565b610d476000611742565b565b60cd54600082815260cc602081815260408084205480855260ca83528185208786526005018352908420549290915291928392839283926060929088109190610d9189611080565b60008a815260cc6020908152604080832054835260ca9091529020610db8906003016117a1565b939a9299509097509550909350915050565b600081815260ca60205260409020606090610de7906003016117ae565b600003610df657610df6611f8d565b600082815260ca60205260409020610e10906003016117a1565b92915050565b600054610100900460ff1615808015610e365750600054600160ff909116105b80610e505750303b158015610e50575060005460ff166001145b610ec25760405162461bcd60e51b815260206004820152602e60248201527f496e697469616c697a61626c653a20636f6e747261637420697320616c72656160448201527f647920696e697469616c697a65640000000000000000000000000000000000006064820152608401610484565b6000805460ff191660011790558015610ee5576000805461ff0019166101001790555b610eed6117b8565b610ef561182b565b60c9805473ffffffffffffffffffffffffffffffffffffffff19166001600160a01b0384161790558015610964576000805461ff0019169055604051600181527f7f26b83ff96e1f2b6a682f133852f6798a09c465da95921460cefb38474024989060200160405180910390a15050565b60cb8054600081815260ca60205260408120909283929083610f8783611f74565b90915550815560cd8054906000610f9d83611f74565b909155506002820181905560018201869055610fbd9060038301906116dc565b50600281018054600090815260058301602090815260408083207f726f6f7400000000000000000000000000000000000000000000000000000000905584548454845260cc9092528220559054611018918391908790611303565b805460018201546040805133815260208101939093528201526001600160a01b03851660608201527fd91e2f64746507b28147d9ed981a07fe6bf4e5935e328300ac680bb58aa1bbff9060800160405180910390a18054600290910154909590945092505050565b600060cd54821080156110b05750600082815260cc6020908152604080832054835260ca90915290206002015482145b8015610e105750600082815260cc6020908152604080832054835260ca9091529020610e1090600301836112e8565b600081815260ca602052604081208054600182015460028301548493849384939192909190611110600385016117ae565b9450945094509450509193509193565b6111286116e8565b6001600160a01b0381166111a45760405162461bcd60e51b815260206004820152602660248201527f4f776e61626c653a206e6577206f776e657220697320746865207a65726f206160448201527f64647265737300000000000000000000000000000000000000000000000000006064820152608401610484565b61077981611742565b60c954604051630f5d2cd560e11b8152336004820152602481018390526000604482018190529182916001600160a01b0390911690631eba59aa90606401602060405180830381865afa158015611208573d6000803e3d6000fd5b505050506040513d601f19601f8201168201806040525081019061122c9190611fb9565b116112795760405162461bcd60e51b815260206004820152600c60248201527f4b45595f4e4f545f48454c4400000000000000000000000000000000000000006044820152606401610484565b600082815260cc602090815260408083205480845260ca909252909120600201548314610e105760405162461bcd60e51b815260206004820152600c60248201527f4b45595f4e4f545f524f4f5400000000000000000000000000000000000000006044820152606401610484565b600081815260018301602052604081205415155b9392505050565b61131060038501846116dc565b5080156114295760c954604051630f5d2cd560e11b81526001600160a01b038481166004830152602482018690526001604483015290911690633faf3d6b90849086908490631eba59aa90606401602060405180830381865afa15801561137b573d6000803e3d6000fd5b505050506040513d601f19601f8201168201806040525081019061139f9190611fb9565b6113aa906001611fd2565b6040517fffffffff0000000000000000000000000000000000000000000000000000000060e086901b1681526001600160a01b03909316600484015260248301919091526044820152606401600060405180830381600087803b15801561141057600080fd5b505af1158015611424573d6000803e3d6000fd5b505050505b60c9546040517f731133e90000000000000000000000000000000000000000000000000000000081526001600160a01b038481166004830152602482018690526001604483015260806064830152600060848301529091169063731133e99060a401600060405180830381600087803b1580156114a557600080fd5b505af11580156114b9573d6000803e3d6000fd5b5050855460008681526005880160209081526040918290205482513381529182019390935280820188905260608101929092526001600160a01b0386166080830152517fe50957d1d876dc7be82af5865a9afa4320e3a26b1e1375bf412962745de3562a93509081900360a0019150a150505050565b6107796116e8565b7f4910fdfa16fed3260ed0e7147f7cc6da11a60208b5b9406d12a635614ffd91435460ff161561156f5761156a83611896565b505050565b826001600160a01b03166352d1902d6040518163ffffffff1660e01b8152600401602060405180830381865afa9250505080156115c9575060408051601f3d908101601f191682019092526115c691810190611fb9565b60015b61163b5760405162461bcd60e51b815260206004820152602e60248201527f45524331393637557067726164653a206e657720696d706c656d656e7461746960448201527f6f6e206973206e6f7420555550530000000000000000000000000000000000006064820152608401610484565b7f360894a13ba1a3210667c828492db98dca3e2076cc3735a920a3ca505d382bbc81146116d05760405162461bcd60e51b815260206004820152602960248201527f45524331393637557067726164653a20756e737570706f727465642070726f7860448201527f6961626c655555494400000000000000000000000000000000000000000000006064820152608401610484565b5061156a838383611961565b60006112fc838361198c565b6033546001600160a01b03163314610d475760405162461bcd60e51b815260206004820181905260248201527f4f776e61626c653a2063616c6c6572206973206e6f7420746865206f776e65726044820152606401610484565b603380546001600160a01b0383811673ffffffffffffffffffffffffffffffffffffffff19831681179093556040519116919082907f8be0079c531659141344cd1fd0a4f28419497f9722a3daafe3b4186f6b6457e090600090a35050565b606060006112fc836119db565b6000610e10825490565b600054610100900460ff166118235760405162461bcd60e51b815260206004820152602b60248201527f496e697469616c697a61626c653a20636f6e7472616374206973206e6f74206960448201526a6e697469616c697a696e6760a81b6064820152608401610484565b610d47611a37565b600054610100900460ff16610d475760405162461bcd60e51b815260206004820152602b60248201527f496e697469616c697a61626c653a20636f6e7472616374206973206e6f74206960448201526a6e697469616c697a696e6760a81b6064820152608401610484565b6001600160a01b0381163b6119135760405162461bcd60e51b815260206004820152602d60248201527f455243313936373a206e657720696d706c656d656e746174696f6e206973206e60448201527f6f74206120636f6e7472616374000000000000000000000000000000000000006064820152608401610484565b7f360894a13ba1a3210667c828492db98dca3e2076cc3735a920a3ca505d382bbc805473ffffffffffffffffffffffffffffffffffffffff19166001600160a01b0392909216919091179055565b61196a83611aab565b6000825111806119775750805b1561156a576119868383611aeb565b50505050565b60008181526001830160205260408120546119d357508154600181810184556000848152602080822090930184905584548482528286019093526040902091909155610e10565b506000610e10565b606081600001805480602002602001604051908101604052809291908181526020018280548015611a2b57602002820191906000526020600020905b815481526020019060010190808311611a17575b50505050509050919050565b600054610100900460ff16611aa25760405162461bcd60e51b815260206004820152602b60248201527f496e697469616c697a61626c653a20636f6e7472616374206973206e6f74206960448201526a6e697469616c697a696e6760a81b6064820152608401610484565b610d4733611742565b611ab481611896565b6040516001600160a01b038216907fbc7cd75a20ee27fd9adebab32041f755214dbc6bffa90cc0225b39da2e5c2d3b90600090a250565b60606001600160a01b0383163b611b6a5760405162461bcd60e51b815260206004820152602660248201527f416464726573733a2064656c65676174652063616c6c20746f206e6f6e2d636f60448201527f6e747261637400000000000000000000000000000000000000000000000000006064820152608401610484565b600080846001600160a01b031684604051611b859190612009565b600060405180830381855af49150503d8060008114611bc0576040519150601f19603f3d011682016040523d82523d6000602084013e611bc5565b606091505b5091509150611bed828260405180606001604052806027815260200161205960279139611bf6565b95945050505050565b60608315611c055750816112fc565b825115611c155782518084602001fd5b8160405162461bcd60e51b81526004016104849190612025565b80356001600160a01b0381168114611c4657600080fd5b919050565b60008060008060808587031215611c6157600080fd5b8435935060208501359250611c7860408601611c2f565b9396929550929360600135925050565b80358015158114611c4657600080fd5b60008060008060808587031215611cae57600080fd5b8435935060208501359250611cc560408601611c2f565b9150611cd360608601611c88565b905092959194509250565b600060208284031215611cf057600080fd5b6112fc82611c2f565b634e487b7160e01b600052604160045260246000fd5b60008060408385031215611d2257600080fd5b611d2b83611c2f565b9150602083013567ffffffffffffffff80821115611d4857600080fd5b818501915085601f830112611d5c57600080fd5b813581811115611d6e57611d6e611cf9565b604051601f8201601f19908116603f01168101908382118183101715611d9657611d96611cf9565b81604052828152886020848701011115611daf57600080fd5b8260208601602083013760006020848301015280955050505050509250929050565b60008060008060608587031215611de757600080fd5b84359350602085013567ffffffffffffffff80821115611e0657600080fd5b818701915087601f830112611e1a57600080fd5b813581811115611e2957600080fd5b8860208260051b8501011115611e3e57600080fd5b602083019550809450505050611cd360408601611c88565b60008060008060808587031215611e6c57600080fd5b84359350611e7c60208601611c2f565b93969395505050506040820135916060013590565b600060208284031215611ea357600080fd5b5035919050565b600081518084526020808501945080840160005b83811015611eda57815187529582019590820190600101611ebe565b509495945050505050565b8515158152846020820152836040820152821515606082015260a060808201526000611f1460a0830184611eaa565b979650505050505050565b6020815260006112fc6020830184611eaa565b60008060408385031215611f4557600080fd5b82359150611f5560208401611c2f565b90509250929050565b634e487b7160e01b600052601160045260246000fd5b600060018201611f8657611f86611f5e565b5060010190565b634e487b7160e01b600052600160045260246000fd5b634e487b7160e01b600052603260045260246000fd5b600060208284031215611fcb57600080fd5b5051919050565b80820180821115610e1057610e10611f5e565b60005b83811015612000578181015183820152602001611fe8565b50506000910152565b6000825161201b818460208701611fe5565b9190910192915050565b6020815260008251806020840152612044816040850160208701611fe5565b601f01601f1916919091016040019291505056fe416464726573733a206c6f772d6c6576656c2064656c65676174652063616c6c206661696c6564a26469706673582212208f29d50510407c5fa680cd3feb99b9a2cbd4fa1202a2510792bd6b3c222de38e64736f6c63430008100033",
  "linkReferences": {},
  "deployedLinkReferences": {}
}