{
  "_format": "hh-sol-artifact-1",
  "contractName": "Notary",
  "sourceName": "contracts/Notary.sol",
  "abi": [
    {
      "inputs": [],
      "stateMutability": "nonpayable",
      "type": "constructor"
    },
    {
      "anonymous": false,
      "inputs": [
        {
          "indexed": false,
          "internalType": "address",
          "name": "previousAdmin",
          "type": "address"
        },
        {
          "indexed": false,
          "internalType": "address",
          "name": "newAdmin",
          "type": "address"
        }
      ],
      "name": "AdminChanged",
      "type": "event"
    },
    {
      "anonymous": false,
      "inputs": [
        {
          "indexed": true,
          "internalType": "address",
          "name": "beacon",
          "type": "address"
        }
      ],
      "name": "BeaconUpgraded",
      "type": "event"
    },
    {
      "anonymous": false,
      "inputs": [
        {
          "indexed": false,
          "internalType": "uint8",
          "name": "version",
          "type": "uint8"
        }
      ],
      "name": "Initialized",
      "type": "event"
    },
    {
      "anonymous": false,
      "inputs": [
        {
          "indexed": true,
          "internalType": "address",
          "name": "previousOwner",
          "type": "address"
        },
        {
          "indexed": true,
          "internalType": "address",
          "name": "newOwner",
          "type": "address"
        }
      ],
      "name": "OwnershipTransferred",
      "type": "event"
    },
    {
      "anonymous": false,
      "inputs": [
        {
          "indexed": true,
          "internalType": "address",
          "name": "implementation",
          "type": "address"
        }
      ],
      "name": "Upgraded",
      "type": "event"
    },
    {
      "anonymous": false,
      "inputs": [
        {
          "indexed": false,
          "internalType": "address",
          "name": "ledger",
          "type": "address"
        },
        {
          "indexed": false,
          "internalType": "address",
          "name": "provider",
          "type": "address"
        },
        {
          "indexed": false,
          "internalType": "uint256",
          "name": "trustId",
          "type": "uint256"
        },
        {
          "indexed": false,
          "internalType": "uint256",
          "name": "rootKeyId",
          "type": "uint256"
        },
        {
          "indexed": false,
          "internalType": "bytes32",
          "name": "arn",
          "type": "bytes32"
        },
        {
          "indexed": false,
          "internalType": "uint256",
          "name": "amount",
          "type": "uint256"
        }
      ],
      "name": "notaryDepositApproval",
      "type": "event"
    },
    {
      "anonymous": false,
      "inputs": [
        {
          "indexed": false,
          "internalType": "address",
          "name": "ledger",
          "type": "address"
        },
        {
          "indexed": false,
          "internalType": "address",
          "name": "provider",
          "type": "address"
        },
        {
          "indexed": false,
          "internalType": "address",
          "name": "scribe",
          "type": "address"
        },
        {
          "indexed": false,
          "internalType": "bytes32",
          "name": "arn",
          "type": "bytes32"
        },
        {
          "indexed": false,
          "internalType": "uint256",
          "name": "trustId",
          "type": "uint256"
        },
        {
          "indexed": false,
          "internalType": "uint256",
          "name": "rootKeyId",
          "type": "uint256"
        },
        {
          "indexed": false,
          "internalType": "uint256[]",
          "name": "keys",
          "type": "uint256[]"
        },
        {
          "indexed": false,
          "internalType": "uint256[]",
          "name": "amounts",
          "type": "uint256[]"
        }
      ],
      "name": "notaryDistributionApproval",
      "type": "event"
    },
    {
      "anonymous": false,
      "inputs": [
        {
          "indexed": false,
          "internalType": "address",
          "name": "ledger",
          "type": "address"
        },
        {
          "indexed": false,
          "internalType": "address",
          "name": "provider",
          "type": "address"
        },
        {
          "indexed": false,
          "internalType": "uint256",
          "name": "trustId",
          "type": "uint256"
        },
        {
          "indexed": false,
          "internalType": "uint256",
          "name": "keyId",
          "type": "uint256"
        },
        {
          "indexed": false,
          "internalType": "bytes32",
          "name": "arn",
          "type": "bytes32"
        },
        {
          "indexed": false,
          "internalType": "uint256",
          "name": "amount",
          "type": "uint256"
        },
        {
          "indexed": false,
          "internalType": "uint256",
          "name": "allowance",
          "type": "uint256"
        }
      ],
      "name": "notaryWithdrawalApproval",
      "type": "event"
    },
    {
      "anonymous": false,
      "inputs": [
        {
          "indexed": false,
          "internalType": "address",
          "name": "keyHolder",
          "type": "address"
        },
        {
          "indexed": false,
          "internalType": "uint256",
          "name": "trustId",
          "type": "uint256"
        },
        {
          "indexed": false,
          "internalType": "uint256",
          "name": "rootKeyId",
          "type": "uint256"
        },
        {
          "indexed": false,
          "internalType": "address",
          "name": "ledger",
          "type": "address"
        },
        {
          "indexed": false,
          "internalType": "address",
          "name": "actor",
          "type": "address"
        },
        {
          "indexed": false,
          "internalType": "bool",
          "name": "trustLevel",
          "type": "bool"
        },
        {
          "indexed": false,
          "internalType": "uint256",
          "name": "role",
          "type": "uint256"
        }
      ],
      "name": "trustedRoleChange",
      "type": "event"
    },
    {
      "anonymous": false,
      "inputs": [
        {
          "indexed": false,
          "internalType": "address",
          "name": "keyHolder",
          "type": "address"
        },
        {
          "indexed": false,
          "internalType": "uint256",
          "name": "keyId",
          "type": "uint256"
        },
        {
          "indexed": false,
          "internalType": "address",
          "name": "ledger",
          "type": "address"
        },
        {
          "indexed": false,
          "internalType": "address",
          "name": "provider",
          "type": "address"
        },
        {
          "indexed": false,
          "internalType": "bytes32",
          "name": "arn",
          "type": "bytes32"
        },
        {
          "indexed": false,
          "internalType": "uint256",
          "name": "amount",
          "type": "uint256"
        }
      ],
      "name": "withdrawalAllowanceAssigned",
      "type": "event"
    },
    {
      "inputs": [],
      "name": "COLLATERAL_PROVIDER",
      "outputs": [
        {
          "internalType": "uint8",
          "name": "",
          "type": "uint8"
        }
      ],
      "stateMutability": "view",
      "type": "function"
    },
    {
      "inputs": [],
      "name": "SCRIBE",
      "outputs": [
        {
          "internalType": "uint8",
          "name": "",
          "type": "uint8"
        }
      ],
      "stateMutability": "view",
      "type": "function"
    },
    {
      "inputs": [
        {
          "internalType": "address",
          "name": "",
          "type": "address"
        },
        {
          "internalType": "uint256",
          "name": "",
          "type": "uint256"
        },
        {
          "internalType": "uint8",
          "name": "",
          "type": "uint8"
        },
        {
          "internalType": "address",
          "name": "",
          "type": "address"
        }
      ],
      "name": "actorAliases",
      "outputs": [
        {
          "internalType": "bytes32",
          "name": "",
          "type": "bytes32"
        }
      ],
      "stateMutability": "view",
      "type": "function"
    },
    {
      "inputs": [
        {
          "internalType": "address",
          "name": "ledger",
          "type": "address"
        },
        {
          "internalType": "uint256",
          "name": "trustId",
          "type": "uint256"
        },
        {
          "internalType": "uint8",
          "name": "role",
          "type": "uint8"
        }
      ],
      "name": "getTrustedActors",
      "outputs": [
        {
          "internalType": "address[]",
          "name": "",
          "type": "address[]"
        }
      ],
      "stateMutability": "view",
      "type": "function"
    },
    {
      "inputs": [
        {
          "internalType": "address",
          "name": "_Locksmith",
          "type": "address"
        }
      ],
      "name": "initialize",
      "outputs": [],
      "stateMutability": "nonpayable",
      "type": "function"
    },
    {
      "inputs": [],
      "name": "locksmith",
      "outputs": [
        {
          "internalType": "contract ILocksmith",
          "name": "",
          "type": "address"
        }
      ],
      "stateMutability": "view",
      "type": "function"
    },
    {
      "inputs": [
        {
          "internalType": "address",
          "name": "provider",
          "type": "address"
        },
        {
          "internalType": "uint256",
          "name": "keyId",
          "type": "uint256"
        },
        {
          "internalType": "bytes32",
          "name": "arn",
          "type": "bytes32"
        },
        {
          "internalType": "uint256",
          "name": "amount",
          "type": "uint256"
        }
      ],
      "name": "notarizeDeposit",
      "outputs": [
        {
          "internalType": "uint256",
          "name": "",
          "type": "uint256"
        }
      ],
      "stateMutability": "nonpayable",
      "type": "function"
    },
    {
      "inputs": [
        {
          "internalType": "address",
          "name": "scribe",
          "type": "address"
        },
        {
          "internalType": "address",
          "name": "provider",
          "type": "address"
        },
        {
          "internalType": "bytes32",
          "name": "arn",
          "type": "bytes32"
        },
        {
          "internalType": "uint256",
          "name": "rootKeyId",
          "type": "uint256"
        },
        {
          "internalType": "uint256[]",
          "name": "keys",
          "type": "uint256[]"
        },
        {
          "internalType": "uint256[]",
          "name": "amounts",
          "type": "uint256[]"
        }
      ],
      "name": "notarizeDistribution",
      "outputs": [
        {
          "internalType": "uint256",
          "name": "",
          "type": "uint256"
        }
      ],
      "stateMutability": "nonpayable",
      "type": "function"
    },
    {
      "inputs": [
        {
          "internalType": "address",
          "name": "provider",
          "type": "address"
        },
        {
          "internalType": "uint256",
          "name": "keyId",
          "type": "uint256"
        },
        {
          "internalType": "bytes32",
          "name": "arn",
          "type": "bytes32"
        },
        {
          "internalType": "uint256",
          "name": "amount",
          "type": "uint256"
        }
      ],
      "name": "notarizeWithdrawal",
      "outputs": [
        {
          "internalType": "uint256",
          "name": "",
          "type": "uint256"
        }
      ],
      "stateMutability": "nonpayable",
      "type": "function"
    },
    {
      "inputs": [],
      "name": "owner",
      "outputs": [
        {
          "internalType": "address",
          "name": "",
          "type": "address"
        }
      ],
      "stateMutability": "view",
      "type": "function"
    },
    {
      "inputs": [],
      "name": "proxiableUUID",
      "outputs": [
        {
          "internalType": "bytes32",
          "name": "",
          "type": "bytes32"
        }
      ],
      "stateMutability": "view",
      "type": "function"
    },
    {
      "inputs": [],
      "name": "renounceOwnership",
      "outputs": [],
      "stateMutability": "nonpayable",
      "type": "function"
    },
    {
      "inputs": [
        {
          "internalType": "uint256",
          "name": "rootKeyId",
          "type": "uint256"
        },
        {
          "internalType": "uint8",
          "name": "role",
          "type": "uint8"
        },
        {
          "internalType": "address",
          "name": "ledger",
          "type": "address"
        },
        {
          "internalType": "address",
          "name": "actor",
          "type": "address"
        },
        {
          "internalType": "bool",
          "name": "trustLevel",
          "type": "bool"
        },
        {
          "internalType": "bytes32",
          "name": "actorAlias",
          "type": "bytes32"
        }
      ],
      "name": "setTrustedLedgerRole",
      "outputs": [],
      "stateMutability": "nonpayable",
      "type": "function"
    },
    {
      "inputs": [
        {
          "internalType": "address",
          "name": "ledger",
          "type": "address"
        },
        {
          "internalType": "address",
          "name": "provider",
          "type": "address"
        },
        {
          "internalType": "uint256",
          "name": "keyId",
          "type": "uint256"
        },
        {
          "internalType": "bytes32",
          "name": "arn",
          "type": "bytes32"
        },
        {
          "internalType": "uint256",
          "name": "amount",
          "type": "uint256"
        }
      ],
      "name": "setWithdrawalAllowance",
      "outputs": [],
      "stateMutability": "nonpayable",
      "type": "function"
    },
    {
      "inputs": [
        {
          "internalType": "address",
          "name": "newOwner",
          "type": "address"
        }
      ],
      "name": "transferOwnership",
      "outputs": [],
      "stateMutability": "nonpayable",
      "type": "function"
    },
    {
      "inputs": [
        {
          "internalType": "address",
          "name": "newImplementation",
          "type": "address"
        }
      ],
      "name": "upgradeTo",
      "outputs": [],
      "stateMutability": "nonpayable",
      "type": "function"
    },
    {
      "inputs": [
        {
          "internalType": "address",
          "name": "newImplementation",
          "type": "address"
        },
        {
          "internalType": "bytes",
          "name": "data",
          "type": "bytes"
        }
      ],
      "name": "upgradeToAndCall",
      "outputs": [],
      "stateMutability": "payable",
      "type": "function"
    },
    {
      "inputs": [
        {
          "internalType": "address",
          "name": "",
          "type": "address"
        },
        {
          "internalType": "uint256",
          "name": "",
          "type": "uint256"
        },
        {
          "internalType": "address",
          "name": "",
          "type": "address"
        },
        {
          "internalType": "bytes32",
          "name": "",
          "type": "bytes32"
        }
      ],
      "name": "withdrawalAllowances",
      "outputs": [
        {
          "internalType": "uint256",
          "name": "",
          "type": "uint256"
        }
      ],
      "stateMutability": "view",
      "type": "function"
    }
  ],
  "bytecode": "0x60a06040523073ffffffffffffffffffffffffffffffffffffffff1660809073ffffffffffffffffffffffffffffffffffffffff168152503480156200004457600080fd5b50620000556200005b60201b60201c565b62000206565b600060019054906101000a900460ff1615620000ae576040517f08c379a0000000000000000000000000000000000000000000000000000000008152600401620000a590620001a9565b60405180910390fd5b60ff801660008054906101000a900460ff1660ff161015620001205760ff6000806101000a81548160ff021916908360ff1602179055507f7f26b83ff96e1f2b6a682f133852f6798a09c465da95921460cefb384740249860ff604051620001179190620001e9565b60405180910390a15b565b600082825260208201905092915050565b7f496e697469616c697a61626c653a20636f6e747261637420697320696e69746960008201527f616c697a696e6700000000000000000000000000000000000000000000000000602082015250565b60006200019160278362000122565b91506200019e8262000133565b604082019050919050565b60006020820190508181036000830152620001c48162000182565b9050919050565b600060ff82169050919050565b620001e381620001cb565b82525050565b6000602082019050620002006000830184620001d8565b92915050565b608051613f4d6200023e600039600081816104ba0152818161054801528181610c7d01528181610d0b0152610dbb0152613f4d6000f3fe6080604052600436106101095760003560e01c80638da5cb5b11610095578063c4d66de811610064578063c4d66de81461036e578063c59ed34914610397578063ca23b79d146103c2578063f2fde38b146103ed578063fc9cea051461041657610109565b80638da5cb5b1461028c5780639115508a146102b7578063ac7532ae146102f4578063bb4ec12d1461033157610109565b80634f1ef286116100dc5780634f1ef286146101c857806352d1902d146101e4578063625439fd1461020f578063715018a61461024c57806388dfcc521461026357610109565b8063085dce191461010e57806313fb817e1461014b5780633659cfe6146101765780634bf1be061461019f575b600080fd5b34801561011a57600080fd5b506101356004803603810190610130919061252c565b610453565b60405161014291906125ac565b60405180910390f35b34801561015757600080fd5b50610160610492565b60405161016d9190612626565b60405180910390f35b34801561018257600080fd5b5061019d60048036038101906101989190612641565b6104b8565b005b3480156101ab57600080fd5b506101c660048036038101906101c191906126d2565b610640565b005b6101e260048036038101906101dd91906128a5565b610c7b565b005b3480156101f057600080fd5b506101f9610db7565b60405161020691906125ac565b60405180910390f35b34801561021b57600080fd5b5061023660048036038101906102319190612901565b610e70565b6040516102439190612977565b60405180910390f35b34801561025857600080fd5b50610261610eaf565b005b34801561026f57600080fd5b5061028a60048036038101906102859190612992565b610ec3565b005b34801561029857600080fd5b506102a16110ff565b6040516102ae9190612a1c565b60405180910390f35b3480156102c357600080fd5b506102de60048036038101906102d99190612a37565b611129565b6040516102eb9190612b48565b60405180910390f35b34801561030057600080fd5b5061031b60048036038101906103169190612bca565b6111a3565b6040516103289190612977565b60405180910390f35b34801561033d57600080fd5b5061035860048036038101906103539190612c99565b6113b2565b6040516103659190612977565b60405180910390f35b34801561037a57600080fd5b5061039560048036038101906103909190612641565b611412565b005b3480156103a357600080fd5b506103ac61159a565b6040516103b99190612d0f565b60405180910390f35b3480156103ce57600080fd5b506103d761159f565b6040516103e49190612d0f565b60405180910390f35b3480156103f957600080fd5b50610414600480360381019061040f9190612641565b6115a4565b005b34801561042257600080fd5b5061043d60048036038101906104389190612c99565b611627565b60405161044a9190612977565b60405180910390f35b60cc6020528360005260406000206020528260005260406000206020528160005260406000206020528060005260406000206000935093505050505481565b60c960009054906101000a900473ffffffffffffffffffffffffffffffffffffffff1681565b7f000000000000000000000000000000000000000000000000000000000000000073ffffffffffffffffffffffffffffffffffffffff163073ffffffffffffffffffffffffffffffffffffffff1603610546576040517f08c379a000000000000000000000000000000000000000000000000000000000815260040161053d90612dad565b60405180910390fd5b7f000000000000000000000000000000000000000000000000000000000000000073ffffffffffffffffffffffffffffffffffffffff166105856118bc565b73ffffffffffffffffffffffffffffffffffffffff16146105db576040517f08c379a00000000000000000000000000000000000000000000000000000000081526004016105d290612e3f565b60405180910390fd5b6105e481611913565b61063d81600067ffffffffffffffff8111156106035761060261277a565b5b6040519080825280601f01601f1916602001820160405280156106355781602001600182028036833780820191505090505b50600061191e565b50565b600060c960009054906101000a900473ffffffffffffffffffffffffffffffffffffffff1673ffffffffffffffffffffffffffffffffffffffff1663b83ac19f6040518163ffffffff1660e01b8152600401602060405180830381865afa1580156106af573d6000803e3d6000fd5b505050506040513d601f19601f820116820180604052508101906106d39190612e74565b73ffffffffffffffffffffffffffffffffffffffff16631eba59aa338960006040518463ffffffff1660e01b815260040161071093929190612eb0565b602060405180830381865afa15801561072d573d6000803e3d6000fd5b505050506040513d601f19601f820116820180604052508101906107519190612efc565b11610791576040517f08c379a000000000000000000000000000000000000000000000000000000000815260040161078890612f75565b60405180910390fd5b60c960009054906101000a900473ffffffffffffffffffffffffffffffffffffffff1673ffffffffffffffffffffffffffffffffffffffff1663d2bd0fad876040518263ffffffff1660e01b81526004016107ec9190612977565b602060405180830381865afa158015610809573d6000803e3d6000fd5b505050506040513d601f19601f8201168201806040525081019061082d9190612faa565b61086c576040517f08c379a000000000000000000000000000000000000000000000000000000000815260040161086390613023565b60405180910390fd5b600060c960009054906101000a900473ffffffffffffffffffffffffffffffffffffffff1673ffffffffffffffffffffffffffffffffffffffff166388ecda52886040518263ffffffff1660e01b81526004016108c99190612977565b600060405180830381865afa1580156108e6573d6000803e3d6000fd5b505050506040513d6000823e3d601f19601f8201168201806040525081019061090f919061311b565b5050925050508215610afc576109948460cb60008873ffffffffffffffffffffffffffffffffffffffff1673ffffffffffffffffffffffffffffffffffffffff168152602001908152602001600020600084815260200190815260200160002060008960ff1660ff168152602001908152602001600020611a8c90919063ffffffff16565b156109d4576040517f08c379a00000000000000000000000000000000000000000000000000000000081526004016109cb906131fe565b60405180910390fd5b610a4d8460cb60008873ffffffffffffffffffffffffffffffffffffffff1673ffffffffffffffffffffffffffffffffffffffff168152602001908152602001600020600084815260200190815260200160002060008960ff1660ff168152602001908152602001600020611abc90919063ffffffff16565b508160cc60008773ffffffffffffffffffffffffffffffffffffffff1673ffffffffffffffffffffffffffffffffffffffff168152602001908152602001600020600083815260200190815260200160002060008860ff1660ff16815260200190815260200160002060008673ffffffffffffffffffffffffffffffffffffffff1673ffffffffffffffffffffffffffffffffffffffff16815260200190815260200160002081905550610c2f565b610b758460cb60008873ffffffffffffffffffffffffffffffffffffffff1673ffffffffffffffffffffffffffffffffffffffff168152602001908152602001600020600084815260200190815260200160002060008960ff1660ff168152602001908152602001600020611a8c90919063ffffffff16565b610bb4576040517f08c379a0000000000000000000000000000000000000000000000000000000008152600401610bab9061326a565b60405180910390fd5b610c2d8460cb60008873ffffffffffffffffffffffffffffffffffffffff1673ffffffffffffffffffffffffffffffffffffffff168152602001908152602001600020600084815260200190815260200160002060008960ff1660ff168152602001908152602001600020611aec90919063ffffffff16565b505b7f3ac8843b3af474f69618166e30a7cf14743ad7c037dbdd12b6a639b051d8fd8c3382898888888c604051610c6a97969594939291906132bb565b60405180910390a150505050505050565b7f000000000000000000000000000000000000000000000000000000000000000073ffffffffffffffffffffffffffffffffffffffff163073ffffffffffffffffffffffffffffffffffffffff1603610d09576040517f08c379a0000000000000000000000000000000000000000000000000000000008152600401610d0090612dad565b60405180910390fd5b7f000000000000000000000000000000000000000000000000000000000000000073ffffffffffffffffffffffffffffffffffffffff16610d486118bc565b73ffffffffffffffffffffffffffffffffffffffff1614610d9e576040517f08c379a0000000000000000000000000000000000000000000000000000000008152600401610d9590612e3f565b60405180910390fd5b610da782611913565b610db38282600161191e565b5050565b60007f000000000000000000000000000000000000000000000000000000000000000073ffffffffffffffffffffffffffffffffffffffff163073ffffffffffffffffffffffffffffffffffffffff1614610e47576040517f08c379a0000000000000000000000000000000000000000000000000000000008152600401610e3e9061339c565b60405180910390fd5b7f360894a13ba1a3210667c828492db98dca3e2076cc3735a920a3ca505d382bbc60001b905090565b60ca6020528360005260406000206020528260005260406000206020528160005260406000206020528060005260406000206000935093505050505481565b610eb7611b1c565b610ec16000611b9a565b565b600060c960009054906101000a900473ffffffffffffffffffffffffffffffffffffffff1673ffffffffffffffffffffffffffffffffffffffff1663b83ac19f6040518163ffffffff1660e01b8152600401602060405180830381865afa158015610f32573d6000803e3d6000fd5b505050506040513d601f19601f82011682018060405250810190610f569190612e74565b73ffffffffffffffffffffffffffffffffffffffff16631eba59aa338660006040518463ffffffff1660e01b8152600401610f9393929190612eb0565b602060405180830381865afa158015610fb0573d6000803e3d6000fd5b505050506040513d601f19601f82011682018060405250810190610fd49190612efc565b11611014576040517f08c379a000000000000000000000000000000000000000000000000000000000815260040161100b90612f75565b60405180910390fd5b8060ca60008773ffffffffffffffffffffffffffffffffffffffff1673ffffffffffffffffffffffffffffffffffffffff168152602001908152602001600020600085815260200190815260200160002060008673ffffffffffffffffffffffffffffffffffffffff1673ffffffffffffffffffffffffffffffffffffffff1681526020019081526020016000206000848152602001908152602001600020819055507f9d38ed61caea3e177c89897812b1495a28a4c5df5813d0692eb2a810b5af589a3384878786866040516110f0969594939291906133bc565b60405180910390a15050505050565b6000603360009054906101000a900473ffffffffffffffffffffffffffffffffffffffff16905090565b606061119a60cb60008673ffffffffffffffffffffffffffffffffffffffff1673ffffffffffffffffffffffffffffffffffffffff168152602001908152602001600020600085815260200190815260200160002060008460ff1660ff168152602001908152602001600020611c60565b90509392505050565b6000806111b3878b600180611c81565b905061122e8960cb60003373ffffffffffffffffffffffffffffffffffffffff1673ffffffffffffffffffffffffffffffffffffffff168152602001908152602001600020600084815260200190815260200160002060008060ff1660ff168152602001908152602001600020611a8c90919063ffffffff16565b61126d576040517f08c379a000000000000000000000000000000000000000000000000000000000815260040161126490613469565b60405180910390fd5b8383905086869050146112b5576040517f08c379a00000000000000000000000000000000000000000000000000000000081526004016112ac906134d5565b60405180910390fd5b60c960009054906101000a900473ffffffffffffffffffffffffffffffffffffffff1673ffffffffffffffffffffffffffffffffffffffff166353a81ee182888860006040518563ffffffff1660e01b81526004016113179493929190613570565b602060405180830381865afa158015611334573d6000803e3d6000fd5b505050506040513d601f19601f820116820180604052508101906113589190612faa565b507f875b64647c8f0311415910db63af5002dc849943757316ecba890efdd848e6b2338a8c8b858c8c8c8c8c60405161139a9a999897969594939291906135b0565b60405180910390a18091505098975050505050505050565b6000806113c3858760006001611c81565b90507f2b199641dbed40d94f0ff44b2f2f233176b1ec8d255e7a26a8c7b36610311c6b3387838888886040516113fe96959493929190613640565b60405180910390a180915050949350505050565b60008060019054906101000a900460ff161590508080156114435750600160008054906101000a900460ff1660ff16105b80611470575061145230611e7f565b15801561146f5750600160008054906101000a900460ff1660ff16145b5b6114af576040517f08c379a00000000000000000000000000000000000000000000000000000000081526004016114a690613713565b60405180910390fd5b60016000806101000a81548160ff021916908360ff16021790555080156114ec576001600060016101000a81548160ff0219169083151502179055505b6114f4611ea2565b6114fc611efb565b8160c960006101000a81548173ffffffffffffffffffffffffffffffffffffffff021916908373ffffffffffffffffffffffffffffffffffffffff16021790555080156115965760008060016101000a81548160ff0219169083151502179055507f7f26b83ff96e1f2b6a682f133852f6798a09c465da95921460cefb3847402498600160405161158d919061376e565b60405180910390a15b5050565b600181565b600081565b6115ac611b1c565b600073ffffffffffffffffffffffffffffffffffffffff168173ffffffffffffffffffffffffffffffffffffffff160361161b576040517f08c379a0000000000000000000000000000000000000000000000000000000008152600401611612906137fb565b60405180910390fd5b61162481611b9a565b50565b6000806116378587600080611c81565b90508260ca60003373ffffffffffffffffffffffffffffffffffffffff1673ffffffffffffffffffffffffffffffffffffffff168152602001908152602001600020600087815260200190815260200160002060008873ffffffffffffffffffffffffffffffffffffffff1673ffffffffffffffffffffffffffffffffffffffff168152602001908152602001600020600086815260200190815260200160002054101561171a576040517f08c379a000000000000000000000000000000000000000000000000000000000815260040161171190613867565b60405180910390fd5b8260ca60003373ffffffffffffffffffffffffffffffffffffffff1673ffffffffffffffffffffffffffffffffffffffff168152602001908152602001600020600087815260200190815260200160002060008873ffffffffffffffffffffffffffffffffffffffff1673ffffffffffffffffffffffffffffffffffffffff168152602001908152602001600020600086815260200190815260200160002060008282546117c891906138b6565b925050819055507f2dd238422b2fd3efa934cfe8b093a00a762966e525bdb6caffd34bde7fd60f0933878388888860ca60003373ffffffffffffffffffffffffffffffffffffffff1673ffffffffffffffffffffffffffffffffffffffff16815260200190815260200160002060008d815260200190815260200160002060008e73ffffffffffffffffffffffffffffffffffffffff1673ffffffffffffffffffffffffffffffffffffffff16815260200190815260200160002060008c8152602001908152602001600020546040516118a897969594939291906138ea565b60405180910390a180915050949350505050565b60006118ea7f360894a13ba1a3210667c828492db98dca3e2076cc3735a920a3ca505d382bbc60001b611f4c565b60000160009054906101000a900473ffffffffffffffffffffffffffffffffffffffff16905090565b61191b611b1c565b50565b61194a7f4910fdfa16fed3260ed0e7147f7cc6da11a60208b5b9406d12a635614ffd914360001b611f56565b60000160009054906101000a900460ff161561196e5761196983611f60565b611a87565b8273ffffffffffffffffffffffffffffffffffffffff166352d1902d6040518163ffffffff1660e01b8152600401602060405180830381865afa9250505080156119d657506040513d601f19601f820116820180604052508101906119d39190613959565b60015b611a15576040517f08c379a0000000000000000000000000000000000000000000000000000000008152600401611a0c906139f8565b60405180910390fd5b7f360894a13ba1a3210667c828492db98dca3e2076cc3735a920a3ca505d382bbc60001b8114611a7a576040517f08c379a0000000000000000000000000000000000000000000000000000000008152600401611a7190613a8a565b60405180910390fd5b50611a86838383612019565b5b505050565b6000611ab4836000018373ffffffffffffffffffffffffffffffffffffffff1660001b612045565b905092915050565b6000611ae4836000018373ffffffffffffffffffffffffffffffffffffffff1660001b612068565b905092915050565b6000611b14836000018373ffffffffffffffffffffffffffffffffffffffff1660001b6120d8565b905092915050565b611b246121ec565b73ffffffffffffffffffffffffffffffffffffffff16611b426110ff565b73ffffffffffffffffffffffffffffffffffffffff1614611b98576040517f08c379a0000000000000000000000000000000000000000000000000000000008152600401611b8f90613af6565b60405180910390fd5b565b6000603360009054906101000a900473ffffffffffffffffffffffffffffffffffffffff16905081603360006101000a81548173ffffffffffffffffffffffffffffffffffffffff021916908373ffffffffffffffffffffffffffffffffffffffff1602179055508173ffffffffffffffffffffffffffffffffffffffff168173ffffffffffffffffffffffffffffffffffffffff167f8be0079c531659141344cd1fd0a4f28419497f9722a3daafe3b4186f6b6457e060405160405180910390a35050565b60606000611c70836000016121f4565b905060608190508092505050919050565b60008060008060c960009054906101000a900473ffffffffffffffffffffffffffffffffffffffff1673ffffffffffffffffffffffffffffffffffffffff166388ecda52896040518263ffffffff1660e01b8152600401611ce29190612977565b600060405180830381865afa158015611cff573d6000803e3d6000fd5b505050506040513d6000823e3d601f19601f82011682018060405250810190611d28919061311b565b509350935050925082611d70576040517f08c379a0000000000000000000000000000000000000000000000000000000008152600401611d6790613b62565b60405180910390fd5b841580611d7a5750805b611db9576040517f08c379a0000000000000000000000000000000000000000000000000000000008152600401611db090613023565b60405180910390fd5b611e328760cb60003373ffffffffffffffffffffffffffffffffffffffff1673ffffffffffffffffffffffffffffffffffffffff168152602001908152602001600020600085815260200190815260200160002060008960ff1660ff168152602001908152602001600020611a8c90919063ffffffff16565b611e71576040517f08c379a0000000000000000000000000000000000000000000000000000000008152600401611e6890613bce565b60405180910390fd5b819350505050949350505050565b6000808273ffffffffffffffffffffffffffffffffffffffff163b119050919050565b600060019054906101000a900460ff16611ef1576040517f08c379a0000000000000000000000000000000000000000000000000000000008152600401611ee890613c60565b60405180910390fd5b611ef9612250565b565b600060019054906101000a900460ff16611f4a576040517f08c379a0000000000000000000000000000000000000000000000000000000008152600401611f4190613c60565b60405180910390fd5b565b6000819050919050565b6000819050919050565b611f6981611e7f565b611fa8576040517f08c379a0000000000000000000000000000000000000000000000000000000008152600401611f9f90613cf2565b60405180910390fd5b80611fd57f360894a13ba1a3210667c828492db98dca3e2076cc3735a920a3ca505d382bbc60001b611f4c565b60000160006101000a81548173ffffffffffffffffffffffffffffffffffffffff021916908373ffffffffffffffffffffffffffffffffffffffff16021790555050565b612022836122b1565b60008251118061202f5750805b156120405761203e8383612300565b505b505050565b600080836001016000848152602001908152602001600020541415905092915050565b60006120748383612045565b6120cd5782600001829080600181540180825580915050600190039060005260206000200160009091909190915055826000018054905083600101600084815260200190815260200160002081905550600190506120d2565b600090505b92915050565b600080836001016000848152602001908152602001600020549050600081146121e057600060018261210a91906138b6565b905060006001866000018054905061212291906138b6565b905081811461219157600086600001828154811061214357612142613d12565b5b906000526020600020015490508087600001848154811061216757612166613d12565b5b90600052602060002001819055508387600101600083815260200190815260200160002081905550505b856000018054806121a5576121a4613d41565b5b6001900381819060005260206000200160009055905585600101600086815260200190815260200160002060009055600193505050506121e6565b60009150505b92915050565b600033905090565b60608160000180548060200260200160405190810160405280929190818152602001828054801561224457602002820191906000526020600020905b815481526020019060010190808311612230575b50505050509050919050565b600060019054906101000a900460ff1661229f576040517f08c379a000000000000000000000000000000000000000000000000000000000815260040161229690613c60565b60405180910390fd5b6122af6122aa6121ec565b611b9a565b565b6122ba81611f60565b8073ffffffffffffffffffffffffffffffffffffffff167fbc7cd75a20ee27fd9adebab32041f755214dbc6bffa90cc0225b39da2e5c2d3b60405160405180910390a250565b606061230b83611e7f565b61234a576040517f08c379a000000000000000000000000000000000000000000000000000000000815260040161234190613de2565b60405180910390fd5b6000808473ffffffffffffffffffffffffffffffffffffffff16846040516123729190613e73565b600060405180830381855af49150503d80600081146123ad576040519150601f19603f3d011682016040523d82523d6000602084013e6123b2565b606091505b50915091506123da8282604051806060016040528060278152602001613ef1602791396123e4565b9250505092915050565b606083156123f457829050612444565b6000835111156124075782518084602001fd5b816040517f08c379a000000000000000000000000000000000000000000000000000000000815260040161243b9190613ece565b60405180910390fd5b9392505050565b6000604051905090565b600080fd5b600080fd5b600073ffffffffffffffffffffffffffffffffffffffff82169050919050565b600061248a8261245f565b9050919050565b61249a8161247f565b81146124a557600080fd5b50565b6000813590506124b781612491565b92915050565b6000819050919050565b6124d0816124bd565b81146124db57600080fd5b50565b6000813590506124ed816124c7565b92915050565b600060ff82169050919050565b612509816124f3565b811461251457600080fd5b50565b60008135905061252681612500565b92915050565b6000806000806080858703121561254657612545612455565b5b6000612554878288016124a8565b9450506020612565878288016124de565b935050604061257687828801612517565b9250506060612587878288016124a8565b91505092959194509250565b6000819050919050565b6125a681612593565b82525050565b60006020820190506125c1600083018461259d565b92915050565b6000819050919050565b60006125ec6125e76125e28461245f565b6125c7565b61245f565b9050919050565b60006125fe826125d1565b9050919050565b6000612610826125f3565b9050919050565b61262081612605565b82525050565b600060208201905061263b6000830184612617565b92915050565b60006020828403121561265757612656612455565b5b6000612665848285016124a8565b91505092915050565b60008115159050919050565b6126838161266e565b811461268e57600080fd5b50565b6000813590506126a08161267a565b92915050565b6126af81612593565b81146126ba57600080fd5b50565b6000813590506126cc816126a6565b92915050565b60008060008060008060c087890312156126ef576126ee612455565b5b60006126fd89828a016124de565b965050602061270e89828a01612517565b955050604061271f89828a016124a8565b945050606061273089828a016124a8565b935050608061274189828a01612691565b92505060a061275289828a016126bd565b9150509295509295509295565b600080fd5b600080fd5b6000601f19601f8301169050919050565b7f4e487b7100000000000000000000000000000000000000000000000000000000600052604160045260246000fd5b6127b282612769565b810181811067ffffffffffffffff821117156127d1576127d061277a565b5b80604052505050565b60006127e461244b565b90506127f082826127a9565b919050565b600067ffffffffffffffff8211156128105761280f61277a565b5b61281982612769565b9050602081019050919050565b82818337600083830152505050565b6000612848612843846127f5565b6127da565b90508281526020810184848401111561286457612863612764565b5b61286f848285612826565b509392505050565b600082601f83011261288c5761288b61275f565b5b813561289c848260208601612835565b91505092915050565b600080604083850312156128bc576128bb612455565b5b60006128ca858286016124a8565b925050602083013567ffffffffffffffff8111156128eb576128ea61245a565b5b6128f785828601612877565b9150509250929050565b6000806000806080858703121561291b5761291a612455565b5b6000612929878288016124a8565b945050602061293a878288016124de565b935050604061294b878288016124a8565b925050606061295c878288016126bd565b91505092959194509250565b612971816124bd565b82525050565b600060208201905061298c6000830184612968565b92915050565b600080600080600060a086880312156129ae576129ad612455565b5b60006129bc888289016124a8565b95505060206129cd888289016124a8565b94505060406129de888289016124de565b93505060606129ef888289016126bd565b9250506080612a00888289016124de565b9150509295509295909350565b612a168161247f565b82525050565b6000602082019050612a316000830184612a0d565b92915050565b600080600060608486031215612a5057612a4f612455565b5b6000612a5e868287016124a8565b9350506020612a6f868287016124de565b9250506040612a8086828701612517565b9150509250925092565b600081519050919050565b600082825260208201905092915050565b6000819050602082019050919050565b612abf8161247f565b82525050565b6000612ad18383612ab6565b60208301905092915050565b6000602082019050919050565b6000612af582612a8a565b612aff8185612a95565b9350612b0a83612aa6565b8060005b83811015612b3b578151612b228882612ac5565b9750612b2d83612add565b925050600181019050612b0e565b5085935050505092915050565b60006020820190508181036000830152612b628184612aea565b905092915050565b600080fd5b600080fd5b60008083601f840112612b8a57612b8961275f565b5b8235905067ffffffffffffffff811115612ba757612ba6612b6a565b5b602083019150836020820283011115612bc357612bc2612b6f565b5b9250929050565b60008060008060008060008060c0898b031215612bea57612be9612455565b5b6000612bf88b828c016124a8565b9850506020612c098b828c016124a8565b9750506040612c1a8b828c016126bd565b9650506060612c2b8b828c016124de565b955050608089013567ffffffffffffffff811115612c4c57612c4b61245a565b5b612c588b828c01612b74565b945094505060a089013567ffffffffffffffff811115612c7b57612c7a61245a565b5b612c878b828c01612b74565b92509250509295985092959890939650565b60008060008060808587031215612cb357612cb2612455565b5b6000612cc1878288016124a8565b9450506020612cd2878288016124de565b9350506040612ce3878288016126bd565b9250506060612cf4878288016124de565b91505092959194509250565b612d09816124f3565b82525050565b6000602082019050612d246000830184612d00565b92915050565b600082825260208201905092915050565b7f46756e6374696f6e206d7573742062652063616c6c6564207468726f7567682060008201527f64656c656761746563616c6c0000000000000000000000000000000000000000602082015250565b6000612d97602c83612d2a565b9150612da282612d3b565b604082019050919050565b60006020820190508181036000830152612dc681612d8a565b9050919050565b7f46756e6374696f6e206d7573742062652063616c6c6564207468726f7567682060008201527f6163746976652070726f78790000000000000000000000000000000000000000602082015250565b6000612e29602c83612d2a565b9150612e3482612dcd565b604082019050919050565b60006020820190508181036000830152612e5881612e1c565b9050919050565b600081519050612e6e81612491565b92915050565b600060208284031215612e8a57612e89612455565b5b6000612e9884828501612e5f565b91505092915050565b612eaa8161266e565b82525050565b6000606082019050612ec56000830186612a0d565b612ed26020830185612968565b612edf6040830184612ea1565b949350505050565b600081519050612ef6816124c7565b92915050565b600060208284031215612f1257612f11612455565b5b6000612f2084828501612ee7565b91505092915050565b7f4b45595f4e4f545f48454c440000000000000000000000000000000000000000600082015250565b6000612f5f600c83612d2a565b9150612f6a82612f29565b602082019050919050565b60006020820190508181036000830152612f8e81612f52565b9050919050565b600081519050612fa48161267a565b92915050565b600060208284031215612fc057612fbf612455565b5b6000612fce84828501612f95565b91505092915050565b7f4b45595f4e4f545f524f4f540000000000000000000000000000000000000000600082015250565b600061300d600c83612d2a565b915061301882612fd7565b602082019050919050565b6000602082019050818103600083015261303c81613000565b9050919050565b600081519050613052816126a6565b92915050565b600067ffffffffffffffff8211156130735761307261277a565b5b602082029050602081019050919050565b600061309761309284613058565b6127da565b905080838252602082019050602084028301858111156130ba576130b9612b6f565b5b835b818110156130e357806130cf8882612ee7565b8452602084019350506020810190506130bc565b5050509392505050565b600082601f8301126131025761310161275f565b5b8151613112848260208601613084565b91505092915050565b600080600080600060a0868803121561313757613136612455565b5b600061314588828901612f95565b955050602061315688828901613043565b945050604061316788828901612ee7565b935050606061317888828901612f95565b925050608086015167ffffffffffffffff8111156131995761319861245a565b5b6131a5888289016130ed565b9150509295509295909350565b7f524544554e44414e545f50524f564953494f4e00000000000000000000000000600082015250565b60006131e8601383612d2a565b91506131f3826131b2565b602082019050919050565b60006020820190508181036000830152613217816131db565b9050919050565b7f4e4f545f43555252454e545f4143544f52000000000000000000000000000000600082015250565b6000613254601183612d2a565b915061325f8261321e565b602082019050919050565b6000602082019050818103600083015261328381613247565b9050919050565b60006132a56132a061329b846124f3565b6125c7565b6124bd565b9050919050565b6132b58161328a565b82525050565b600060e0820190506132d0600083018a612a0d565b6132dd6020830189612968565b6132ea6040830188612968565b6132f76060830187612a0d565b6133046080830186612a0d565b61331160a0830185612ea1565b61331e60c08301846132ac565b98975050505050505050565b7f555550535570677261646561626c653a206d757374206e6f742062652063616c60008201527f6c6564207468726f7567682064656c656761746563616c6c0000000000000000602082015250565b6000613386603883612d2a565b91506133918261332a565b604082019050919050565b600060208201905081810360008301526133b581613379565b9050919050565b600060c0820190506133d16000830189612a0d565b6133de6020830188612968565b6133eb6040830187612a0d565b6133f86060830186612a0d565b613405608083018561259d565b61341260a0830184612968565b979650505050505050565b7f554e545255535445445f50524f56494445520000000000000000000000000000600082015250565b6000613453601283612d2a565b915061345e8261341d565b602082019050919050565b6000602082019050818103600083015261348281613446565b9050919050565b7f4b45595f414d4f554e545f53495a455f4d49534d415443480000000000000000600082015250565b60006134bf601883612d2a565b91506134ca82613489565b602082019050919050565b600060208201905081810360008301526134ee816134b2565b9050919050565b600082825260208201905092915050565b600080fd5b82818337505050565b600061352083856134f5565b93507f07ffffffffffffffffffffffffffffffffffffffffffffffffffffffffffffff83111561355357613552613506565b5b60208302925061356483858461350b565b82840190509392505050565b60006060820190506135856000830187612968565b8181036020830152613598818587613514565b90506135a76040830184612ea1565b95945050505050565b6000610100820190506135c6600083018d612a0d565b6135d3602083018c612a0d565b6135e0604083018b612a0d565b6135ed606083018a61259d565b6135fa6080830189612968565b61360760a0830188612968565b81810360c083015261361a818688613514565b905081810360e083015261362f818486613514565b90509b9a5050505050505050505050565b600060c0820190506136556000830189612a0d565b6136626020830188612a0d565b61366f6040830187612968565b61367c6060830186612968565b613689608083018561259d565b61369660a0830184612968565b979650505050505050565b7f496e697469616c697a61626c653a20636f6e747261637420697320616c72656160008201527f647920696e697469616c697a6564000000000000000000000000000000000000602082015250565b60006136fd602e83612d2a565b9150613708826136a1565b604082019050919050565b6000602082019050818103600083015261372c816136f0565b9050919050565b6000819050919050565b600061375861375361374e84613733565b6125c7565b6124f3565b9050919050565b6137688161373d565b82525050565b6000602082019050613783600083018461375f565b92915050565b7f4f776e61626c653a206e6577206f776e657220697320746865207a65726f206160008201527f6464726573730000000000000000000000000000000000000000000000000000602082015250565b60006137e5602683612d2a565b91506137f082613789565b604082019050919050565b60006020820190508181036000830152613814816137d8565b9050919050565b7f554e415050524f5645445f414d4f554e54000000000000000000000000000000600082015250565b6000613851601183612d2a565b915061385c8261381b565b602082019050919050565b6000602082019050818103600083015261388081613844565b9050919050565b7f4e487b7100000000000000000000000000000000000000000000000000000000600052601160045260246000fd5b60006138c1826124bd565b91506138cc836124bd565b92508282039050818111156138e4576138e3613887565b5b92915050565b600060e0820190506138ff600083018a612a0d565b61390c6020830189612a0d565b6139196040830188612968565b6139266060830187612968565b613933608083018661259d565b61394060a0830185612968565b61394d60c0830184612968565b98975050505050505050565b60006020828403121561396f5761396e612455565b5b600061397d84828501613043565b91505092915050565b7f45524331393637557067726164653a206e657720696d706c656d656e7461746960008201527f6f6e206973206e6f742055555053000000000000000000000000000000000000602082015250565b60006139e2602e83612d2a565b91506139ed82613986565b604082019050919050565b60006020820190508181036000830152613a11816139d5565b9050919050565b7f45524331393637557067726164653a20756e737570706f727465642070726f7860008201527f6961626c65555549440000000000000000000000000000000000000000000000602082015250565b6000613a74602983612d2a565b9150613a7f82613a18565b604082019050919050565b60006020820190508181036000830152613aa381613a67565b9050919050565b7f4f776e61626c653a2063616c6c6572206973206e6f7420746865206f776e6572600082015250565b6000613ae0602083612d2a565b9150613aeb82613aaa565b602082019050919050565b60006020820190508181036000830152613b0f81613ad3565b9050919050565b7f494e56414c49445f4b4559000000000000000000000000000000000000000000600082015250565b6000613b4c600b83612d2a565b9150613b5782613b16565b602082019050919050565b60006020820190508181036000830152613b7b81613b3f565b9050919050565b7f554e545255535445445f4143544f520000000000000000000000000000000000600082015250565b6000613bb8600f83612d2a565b9150613bc382613b82565b602082019050919050565b60006020820190508181036000830152613be781613bab565b9050919050565b7f496e697469616c697a61626c653a20636f6e7472616374206973206e6f74206960008201527f6e697469616c697a696e67000000000000000000000000000000000000000000602082015250565b6000613c4a602b83612d2a565b9150613c5582613bee565b604082019050919050565b60006020820190508181036000830152613c7981613c3d565b9050919050565b7f455243313936373a206e657720696d706c656d656e746174696f6e206973206e60008201527f6f74206120636f6e747261637400000000000000000000000000000000000000602082015250565b6000613cdc602d83612d2a565b9150613ce782613c80565b604082019050919050565b60006020820190508181036000830152613d0b81613ccf565b9050919050565b7f4e487b7100000000000000000000000000000000000000000000000000000000600052603260045260246000fd5b7f4e487b7100000000000000000000000000000000000000000000000000000000600052603160045260246000fd5b7f416464726573733a2064656c65676174652063616c6c20746f206e6f6e2d636f60008201527f6e74726163740000000000000000000000000000000000000000000000000000602082015250565b6000613dcc602683612d2a565b9150613dd782613d70565b604082019050919050565b60006020820190508181036000830152613dfb81613dbf565b9050919050565b600081519050919050565b600081905092915050565b60005b83811015613e36578082015181840152602081019050613e1b565b60008484015250505050565b6000613e4d82613e02565b613e578185613e0d565b9350613e67818560208601613e18565b80840191505092915050565b6000613e7f8284613e42565b915081905092915050565b600081519050919050565b6000613ea082613e8a565b613eaa8185612d2a565b9350613eba818560208601613e18565b613ec381612769565b840191505092915050565b60006020820190508181036000830152613ee88184613e95565b90509291505056fe416464726573733a206c6f772d6c6576656c2064656c65676174652063616c6c206661696c6564a264697066735822122069c1cfd8e152606b7fa88d5c364a62632271f9db00c9e088b186bd8ed0cc451964736f6c63430008100033",
  "linkReferences": {},
  "deployedLinkReferences": {}
}