{
  "_format": "hh-sol-artifact-1",
  "contractName": "Notary",
  "sourceName": "contracts/Notary.sol",
  "abi": [
    {
      "inputs": [],
      "stateMutability": "nonpayable",
      "type": "constructor"
    },
    {
      "anonymous": false,
      "inputs": [
        {
          "indexed": false,
          "internalType": "address",
          "name": "previousAdmin",
          "type": "address"
        },
        {
          "indexed": false,
          "internalType": "address",
          "name": "newAdmin",
          "type": "address"
        }
      ],
      "name": "AdminChanged",
      "type": "event"
    },
    {
      "anonymous": false,
      "inputs": [
        {
          "indexed": true,
          "internalType": "address",
          "name": "beacon",
          "type": "address"
        }
      ],
      "name": "BeaconUpgraded",
      "type": "event"
    },
    {
      "anonymous": false,
      "inputs": [
        {
          "indexed": false,
          "internalType": "uint8",
          "name": "version",
          "type": "uint8"
        }
      ],
      "name": "Initialized",
      "type": "event"
    },
    {
      "anonymous": false,
      "inputs": [
        {
          "indexed": true,
          "internalType": "address",
          "name": "previousOwner",
          "type": "address"
        },
        {
          "indexed": true,
          "internalType": "address",
          "name": "newOwner",
          "type": "address"
        }
      ],
      "name": "OwnershipTransferred",
      "type": "event"
    },
    {
      "anonymous": false,
      "inputs": [
        {
          "indexed": true,
          "internalType": "address",
          "name": "implementation",
          "type": "address"
        }
      ],
      "name": "Upgraded",
      "type": "event"
    },
    {
      "anonymous": false,
      "inputs": [
        {
          "indexed": false,
          "internalType": "address",
          "name": "ledger",
          "type": "address"
        },
        {
          "indexed": false,
          "internalType": "address",
          "name": "provider",
          "type": "address"
        },
        {
          "indexed": false,
          "internalType": "uint256",
          "name": "trustId",
          "type": "uint256"
        },
        {
          "indexed": false,
          "internalType": "uint256",
          "name": "rootKeyId",
          "type": "uint256"
        },
        {
          "indexed": false,
          "internalType": "bytes32",
          "name": "arn",
          "type": "bytes32"
        },
        {
          "indexed": false,
          "internalType": "uint256",
          "name": "amount",
          "type": "uint256"
        }
      ],
      "name": "notaryDepositApproval",
      "type": "event"
    },
    {
      "anonymous": false,
      "inputs": [
        {
          "indexed": false,
          "internalType": "address",
          "name": "ledger",
          "type": "address"
        },
        {
          "indexed": false,
          "internalType": "address",
          "name": "provider",
          "type": "address"
        },
        {
          "indexed": false,
          "internalType": "address",
          "name": "scribe",
          "type": "address"
        },
        {
          "indexed": false,
          "internalType": "bytes32",
          "name": "arn",
          "type": "bytes32"
        },
        {
          "indexed": false,
          "internalType": "uint256",
          "name": "trustId",
          "type": "uint256"
        },
        {
          "indexed": false,
          "internalType": "uint256",
          "name": "rootKeyId",
          "type": "uint256"
        },
        {
          "indexed": false,
          "internalType": "uint256[]",
          "name": "keys",
          "type": "uint256[]"
        },
        {
          "indexed": false,
          "internalType": "uint256[]",
          "name": "amounts",
          "type": "uint256[]"
        }
      ],
      "name": "notaryDistributionApproval",
      "type": "event"
    },
    {
      "anonymous": false,
      "inputs": [
        {
          "indexed": false,
          "internalType": "address",
          "name": "ledger",
          "type": "address"
        },
        {
          "indexed": false,
          "internalType": "address",
          "name": "provider",
          "type": "address"
        },
        {
          "indexed": false,
          "internalType": "uint256",
          "name": "trustId",
          "type": "uint256"
        },
        {
          "indexed": false,
          "internalType": "uint256",
          "name": "keyId",
          "type": "uint256"
        },
        {
          "indexed": false,
          "internalType": "bytes32",
          "name": "arn",
          "type": "bytes32"
        },
        {
          "indexed": false,
          "internalType": "uint256",
          "name": "amount",
          "type": "uint256"
        },
        {
          "indexed": false,
          "internalType": "uint256",
          "name": "allowance",
          "type": "uint256"
        }
      ],
      "name": "notaryWithdrawalApproval",
      "type": "event"
    },
    {
      "anonymous": false,
      "inputs": [
        {
          "indexed": false,
          "internalType": "address",
          "name": "keyHolder",
          "type": "address"
        },
        {
          "indexed": false,
          "internalType": "uint256",
          "name": "trustId",
          "type": "uint256"
        },
        {
          "indexed": false,
          "internalType": "uint256",
          "name": "rootKeyId",
          "type": "uint256"
        },
        {
          "indexed": false,
          "internalType": "address",
          "name": "ledger",
          "type": "address"
        },
        {
          "indexed": false,
          "internalType": "address",
          "name": "actor",
          "type": "address"
        },
        {
          "indexed": false,
          "internalType": "bool",
          "name": "trustLevel",
          "type": "bool"
        },
        {
          "indexed": false,
          "internalType": "uint256",
          "name": "role",
          "type": "uint256"
        }
      ],
      "name": "trustedRoleChange",
      "type": "event"
    },
    {
      "anonymous": false,
      "inputs": [
        {
          "indexed": false,
          "internalType": "address",
          "name": "keyHolder",
          "type": "address"
        },
        {
          "indexed": false,
          "internalType": "uint256",
          "name": "keyId",
          "type": "uint256"
        },
        {
          "indexed": false,
          "internalType": "address",
          "name": "ledger",
          "type": "address"
        },
        {
          "indexed": false,
          "internalType": "address",
          "name": "provider",
          "type": "address"
        },
        {
          "indexed": false,
          "internalType": "bytes32",
          "name": "arn",
          "type": "bytes32"
        },
        {
          "indexed": false,
          "internalType": "uint256",
          "name": "amount",
          "type": "uint256"
        }
      ],
      "name": "withdrawalAllowanceAssigned",
      "type": "event"
    },
    {
      "inputs": [],
      "name": "COLLATERAL_PROVIDER",
      "outputs": [
        {
          "internalType": "uint8",
          "name": "",
          "type": "uint8"
        }
      ],
      "stateMutability": "view",
      "type": "function"
    },
    {
      "inputs": [],
      "name": "SCRIBE",
      "outputs": [
        {
          "internalType": "uint8",
          "name": "",
          "type": "uint8"
        }
      ],
      "stateMutability": "view",
      "type": "function"
    },
    {
      "inputs": [
        {
          "internalType": "address",
          "name": "",
          "type": "address"
        },
        {
          "internalType": "uint256",
          "name": "",
          "type": "uint256"
        },
        {
          "internalType": "uint8",
          "name": "",
          "type": "uint8"
        },
        {
          "internalType": "address",
          "name": "",
          "type": "address"
        }
      ],
      "name": "actorAliases",
      "outputs": [
        {
          "internalType": "bytes32",
          "name": "",
          "type": "bytes32"
        }
      ],
      "stateMutability": "view",
      "type": "function"
    },
    {
      "inputs": [
        {
          "internalType": "address",
          "name": "ledger",
          "type": "address"
        },
        {
          "internalType": "uint256",
          "name": "trustId",
          "type": "uint256"
        },
        {
          "internalType": "uint8",
          "name": "role",
          "type": "uint8"
        }
      ],
      "name": "getTrustedActors",
      "outputs": [
        {
          "internalType": "address[]",
          "name": "",
          "type": "address[]"
        }
      ],
      "stateMutability": "view",
      "type": "function"
    },
    {
      "inputs": [
        {
          "internalType": "address",
          "name": "_Locksmith",
          "type": "address"
        }
      ],
      "name": "initialize",
      "outputs": [],
      "stateMutability": "nonpayable",
      "type": "function"
    },
    {
      "inputs": [],
      "name": "locksmith",
      "outputs": [
        {
          "internalType": "contract ILocksmith",
          "name": "",
          "type": "address"
        }
      ],
      "stateMutability": "view",
      "type": "function"
    },
    {
      "inputs": [
        {
          "internalType": "address",
          "name": "provider",
          "type": "address"
        },
        {
          "internalType": "uint256",
          "name": "keyId",
          "type": "uint256"
        },
        {
          "internalType": "bytes32",
          "name": "arn",
          "type": "bytes32"
        },
        {
          "internalType": "uint256",
          "name": "amount",
          "type": "uint256"
        }
      ],
      "name": "notarizeDeposit",
      "outputs": [
        {
          "internalType": "uint256",
          "name": "",
          "type": "uint256"
        }
      ],
      "stateMutability": "nonpayable",
      "type": "function"
    },
    {
      "inputs": [
        {
          "internalType": "address",
          "name": "scribe",
          "type": "address"
        },
        {
          "internalType": "address",
          "name": "provider",
          "type": "address"
        },
        {
          "internalType": "bytes32",
          "name": "arn",
          "type": "bytes32"
        },
        {
          "internalType": "uint256",
          "name": "rootKeyId",
          "type": "uint256"
        },
        {
          "internalType": "uint256[]",
          "name": "keys",
          "type": "uint256[]"
        },
        {
          "internalType": "uint256[]",
          "name": "amounts",
          "type": "uint256[]"
        }
      ],
      "name": "notarizeDistribution",
      "outputs": [
        {
          "internalType": "uint256",
          "name": "",
          "type": "uint256"
        }
      ],
      "stateMutability": "nonpayable",
      "type": "function"
    },
    {
      "inputs": [
        {
          "internalType": "address",
          "name": "provider",
          "type": "address"
        },
        {
          "internalType": "uint256",
          "name": "keyId",
          "type": "uint256"
        },
        {
          "internalType": "bytes32",
          "name": "arn",
          "type": "bytes32"
        },
        {
          "internalType": "uint256",
          "name": "amount",
          "type": "uint256"
        }
      ],
      "name": "notarizeWithdrawal",
      "outputs": [
        {
          "internalType": "uint256",
          "name": "",
          "type": "uint256"
        }
      ],
      "stateMutability": "nonpayable",
      "type": "function"
    },
    {
      "inputs": [],
      "name": "owner",
      "outputs": [
        {
          "internalType": "address",
          "name": "",
          "type": "address"
        }
      ],
      "stateMutability": "view",
      "type": "function"
    },
    {
      "inputs": [],
      "name": "proxiableUUID",
      "outputs": [
        {
          "internalType": "bytes32",
          "name": "",
          "type": "bytes32"
        }
      ],
      "stateMutability": "view",
      "type": "function"
    },
    {
      "inputs": [],
      "name": "renounceOwnership",
      "outputs": [],
      "stateMutability": "nonpayable",
      "type": "function"
    },
    {
      "inputs": [
        {
          "internalType": "uint256",
          "name": "rootKeyId",
          "type": "uint256"
        },
        {
          "internalType": "uint8",
          "name": "role",
          "type": "uint8"
        },
        {
          "internalType": "address",
          "name": "ledger",
          "type": "address"
        },
        {
          "internalType": "address",
          "name": "actor",
          "type": "address"
        },
        {
          "internalType": "bool",
          "name": "trustLevel",
          "type": "bool"
        },
        {
          "internalType": "bytes32",
          "name": "actorAlias",
          "type": "bytes32"
        }
      ],
      "name": "setTrustedLedgerRole",
      "outputs": [],
      "stateMutability": "nonpayable",
      "type": "function"
    },
    {
      "inputs": [
        {
          "internalType": "address",
          "name": "ledger",
          "type": "address"
        },
        {
          "internalType": "address",
          "name": "provider",
          "type": "address"
        },
        {
          "internalType": "uint256",
          "name": "keyId",
          "type": "uint256"
        },
        {
          "internalType": "bytes32",
          "name": "arn",
          "type": "bytes32"
        },
        {
          "internalType": "uint256",
          "name": "amount",
          "type": "uint256"
        }
      ],
      "name": "setWithdrawalAllowance",
      "outputs": [],
      "stateMutability": "nonpayable",
      "type": "function"
    },
    {
      "inputs": [
        {
          "internalType": "address",
          "name": "newOwner",
          "type": "address"
        }
      ],
      "name": "transferOwnership",
      "outputs": [],
      "stateMutability": "nonpayable",
      "type": "function"
    },
    {
      "inputs": [
        {
          "internalType": "address",
          "name": "newImplementation",
          "type": "address"
        }
      ],
      "name": "upgradeTo",
      "outputs": [],
      "stateMutability": "nonpayable",
      "type": "function"
    },
    {
      "inputs": [
        {
          "internalType": "address",
          "name": "newImplementation",
          "type": "address"
        },
        {
          "internalType": "bytes",
          "name": "data",
          "type": "bytes"
        }
      ],
      "name": "upgradeToAndCall",
      "outputs": [],
      "stateMutability": "payable",
      "type": "function"
    },
    {
      "inputs": [
        {
          "internalType": "address",
          "name": "",
          "type": "address"
        },
        {
          "internalType": "uint256",
          "name": "",
          "type": "uint256"
        },
        {
          "internalType": "address",
          "name": "",
          "type": "address"
        },
        {
          "internalType": "bytes32",
          "name": "",
          "type": "bytes32"
        }
      ],
      "name": "withdrawalAllowances",
      "outputs": [
        {
          "internalType": "uint256",
          "name": "",
          "type": "uint256"
        }
      ],
      "stateMutability": "view",
      "type": "function"
    }
  ],
  "bytecode": "0x60a0604052306080523480156200001557600080fd5b506200002062000026565b620000e8565b600054610100900460ff1615620000935760405162461bcd60e51b815260206004820152602760248201527f496e697469616c697a61626c653a20636f6e747261637420697320696e697469604482015266616c697a696e6760c81b606482015260840160405180910390fd5b60005460ff9081161015620000e6576000805460ff191660ff9081179091556040519081527f7f26b83ff96e1f2b6a682f133852f6798a09c465da95921460cefb38474024989060200160405180910390a15b565b6080516124fe62000120600039600081816103d701528181610461015281816109e601528181610a6b0152610b5501526124fe6000f3fe6080604052600436106101295760003560e01c80638da5cb5b116100a5578063c4d66de811610074578063ca23b79d11610059578063ca23b79d14610378578063f2fde38b1461038d578063fc9cea05146103ad57600080fd5b8063c4d66de814610331578063c59ed3491461035157600080fd5b80638da5cb5b146102a65780639115508a146102c4578063ac7532ae146102f1578063bb4ec12d1461031157600080fd5b80634f1ef286116100fc578063625439fd116100e1578063625439fd1461022a578063715018a61461027157806388dfcc521461028657600080fd5b80634f1ef2861461020257806352d1902d1461021557600080fd5b8063085dce191461012e57806313fb817e146101885780633659cfe6146101c05780634bf1be06146101e2575b600080fd5b34801561013a57600080fd5b50610175610149366004611d98565b60cc60209081526000948552604080862082529385528385208152918452828420909152825290205481565b6040519081526020015b60405180910390f35b34801561019457600080fd5b5060c9546101a8906001600160a01b031681565b6040516001600160a01b03909116815260200161017f565b3480156101cc57600080fd5b506101e06101db366004611de9565b6103cd565b005b3480156101ee57600080fd5b506101e06101fd366004611e14565b61054d565b6101e0610210366004611ec9565b6109dc565b34801561022157600080fd5b50610175610b48565b34801561023657600080fd5b50610175610245366004611f71565b60ca60209081526000948552604080862082529385528385208152918452828420909152825290205481565b34801561027d57600080fd5b506101e0610c0d565b34801561029257600080fd5b506101e06102a1366004611fb9565b610c21565b3480156102b257600080fd5b506033546001600160a01b03166101a8565b3480156102d057600080fd5b506102e46102df36600461200a565b610ddb565b60405161017f9190612048565b3480156102fd57600080fd5b5061017561030c3660046120e1565b610e1f565b34801561031d57600080fd5b5061017561032c366004612189565b610fe1565b34801561033d57600080fd5b506101e061034c366004611de9565b61105d565b34801561035d57600080fd5b50610366600181565b60405160ff909116815260200161017f565b34801561038457600080fd5b50610366600081565b34801561039957600080fd5b506101e06103a8366004611de9565b6111ad565b3480156103b957600080fd5b506101756103c8366004612189565b61123a565b6001600160a01b037f000000000000000000000000000000000000000000000000000000000000000016300361045f5760405162461bcd60e51b815260206004820152602c60248201527f46756e6374696f6e206d7573742062652063616c6c6564207468726f7567682060448201526b19195b1959d85d1958d85b1b60a21b60648201526084015b60405180910390fd5b7f00000000000000000000000000000000000000000000000000000000000000006001600160a01b03166104ba7f360894a13ba1a3210667c828492db98dca3e2076cc3735a920a3ca505d382bbc546001600160a01b031690565b6001600160a01b0316146105255760405162461bcd60e51b815260206004820152602c60248201527f46756e6374696f6e206d7573742062652063616c6c6564207468726f7567682060448201526b6163746976652070726f787960a01b6064820152608401610456565b61052e816113a5565b6040805160008082526020820190925261054a918391906113ad565b50565b60c9546040805163b83ac19f60e01b815290516000926001600160a01b03169163b83ac19f9160048083019260209291908290030181865afa158015610597573d6000803e3d6000fd5b505050506040513d601f19601f820116820180604052508101906105bb91906121c4565b604051630f5d2cd560e11b815233600482015260248101899052600060448201526001600160a01b039190911690631eba59aa90606401602060405180830381865afa15801561060f573d6000803e3d6000fd5b505050506040513d601f19601f8201168201806040525081019061063391906121e1565b1161066f5760405162461bcd60e51b815260206004820152600c60248201526b12d15657d393d517d211531160a21b6044820152606401610456565b60c9546040517fd2bd0fad000000000000000000000000000000000000000000000000000000008152600481018890526001600160a01b039091169063d2bd0fad90602401602060405180830381865afa1580156106d1573d6000803e3d6000fd5b505050506040513d601f19601f820116820180604052508101906106f591906121fa565b6107305760405162461bcd60e51b815260206004820152600c60248201526b12d15657d393d517d493d3d560a21b6044820152606401610456565b60c9546040516344766d2960e11b8152600481018890526000916001600160a01b0316906388ecda5290602401600060405180830381865afa15801561077a573d6000803e3d6000fd5b505050506040513d6000823e601f3d908101601f191682016040526107a29190810190612217565b50509250505082156108ac576001600160a01b038516600090815260cb60209081526040808320848452825280832060ff8a16845290915290206107e69085611552565b156108335760405162461bcd60e51b815260206004820152601360248201527f524544554e44414e545f50524f564953494f4e000000000000000000000000006044820152606401610456565b6001600160a01b038516600090815260cb60209081526040808320848452825280832060ff8a168452909152902061086b9085611579565b506001600160a01b03808616600090815260cc60209081526040808320858452825280832060ff8b168452825280832093881683529290522082905561096a565b6001600160a01b038516600090815260cb60209081526040808320848452825280832060ff8a16845290915290206108e49085611552565b6109305760405162461bcd60e51b815260206004820152601160248201527f4e4f545f43555252454e545f4143544f520000000000000000000000000000006044820152606401610456565b6001600160a01b038516600090815260cb60209081526040808320848452825280832060ff8a1684529091529020610968908561158e565b505b60408051338152602081018390529081018890526001600160a01b0380871660608301528516608082015283151560a082015260ff871660c08201527f3ac8843b3af474f69618166e30a7cf14743ad7c037dbdd12b6a639b051d8fd8c9060e00160405180910390a150505050505050565b6001600160a01b037f0000000000000000000000000000000000000000000000000000000000000000163003610a695760405162461bcd60e51b815260206004820152602c60248201527f46756e6374696f6e206d7573742062652063616c6c6564207468726f7567682060448201526b19195b1959d85d1958d85b1b60a21b6064820152608401610456565b7f00000000000000000000000000000000000000000000000000000000000000006001600160a01b0316610ac47f360894a13ba1a3210667c828492db98dca3e2076cc3735a920a3ca505d382bbc546001600160a01b031690565b6001600160a01b031614610b2f5760405162461bcd60e51b815260206004820152602c60248201527f46756e6374696f6e206d7573742062652063616c6c6564207468726f7567682060448201526b6163746976652070726f787960a01b6064820152608401610456565b610b38826113a5565b610b44828260016113ad565b5050565b6000306001600160a01b037f00000000000000000000000000000000000000000000000000000000000000001614610be85760405162461bcd60e51b815260206004820152603860248201527f555550535570677261646561626c653a206d757374206e6f742062652063616c60448201527f6c6564207468726f7567682064656c656761746563616c6c00000000000000006064820152608401610456565b507f360894a13ba1a3210667c828492db98dca3e2076cc3735a920a3ca505d382bbc90565b610c156115a3565b610c1f60006115fd565b565b60c9546040805163b83ac19f60e01b815290516000926001600160a01b03169163b83ac19f9160048083019260209291908290030181865afa158015610c6b573d6000803e3d6000fd5b505050506040513d601f19601f82011682018060405250810190610c8f91906121c4565b604051630f5d2cd560e11b815233600482015260248101869052600060448201526001600160a01b039190911690631eba59aa90606401602060405180830381865afa158015610ce3573d6000803e3d6000fd5b505050506040513d601f19601f82011682018060405250810190610d0791906121e1565b11610d435760405162461bcd60e51b815260206004820152600c60248201526b12d15657d393d517d211531160a21b6044820152606401610456565b6001600160a01b03858116600081815260ca60209081526040808320888452825280832094891680845294825280832087845282529182902085905581513381529081018790529081019190915260608101919091526080810183905260a081018290527f9d38ed61caea3e177c89897812b1495a28a4c5df5813d0692eb2a810b5af589a9060c00160405180910390a15050505050565b6001600160a01b038316600090815260cb60209081526040808320858452825280832060ff851684529091529020606090610e159061165c565b90505b9392505050565b600080610e2f878b600180611669565b33600090815260cb6020908152604080832084845282528083208380529091529020909150610e5e908a611552565b610eaa5760405162461bcd60e51b815260206004820152601260248201527f554e545255535445445f50524f564944455200000000000000000000000000006044820152606401610456565b848314610ef95760405162461bcd60e51b815260206004820152601860248201527f4b45595f414d4f554e545f53495a455f4d49534d4154434800000000000000006044820152606401610456565b60c9546040517f53a81ee10000000000000000000000000000000000000000000000000000000081526001600160a01b03909116906353a81ee190610f499084908a908a90600090600401612346565b602060405180830381865afa158015610f66573d6000803e3d6000fd5b505050506040513d601f19601f82011682018060405250810190610f8a91906121fa565b507f875b64647c8f0311415910db63af5002dc849943757316ecba890efdd848e6b2338a8c8b858c8c8c8c8c604051610fcc9a99989796959493929190612373565b60405180910390a19998505050505050505050565b600080610ff2858760006001611669565b604080513381526001600160a01b0389166020820152908101829052606081018790526080810186905260a081018590529091507f2b199641dbed40d94f0ff44b2f2f233176b1ec8d255e7a26a8c7b36610311c6b9060c0015b60405180910390a195945050505050565b600054610100900460ff161580801561107d5750600054600160ff909116105b806110975750303b158015611097575060005460ff166001145b6111095760405162461bcd60e51b815260206004820152602e60248201527f496e697469616c697a61626c653a20636f6e747261637420697320616c72656160448201527f647920696e697469616c697a65640000000000000000000000000000000000006064820152608401610456565b6000805460ff19166001179055801561112c576000805461ff0019166101001790555b611134611803565b61113c611876565b60c9805473ffffffffffffffffffffffffffffffffffffffff19166001600160a01b0384161790558015610b44576000805461ff0019169055604051600181527f7f26b83ff96e1f2b6a682f133852f6798a09c465da95921460cefb38474024989060200160405180910390a15050565b6111b56115a3565b6001600160a01b0381166112315760405162461bcd60e51b815260206004820152602660248201527f4f776e61626c653a206e6577206f776e657220697320746865207a65726f206160448201527f64647265737300000000000000000000000000000000000000000000000000006064820152608401610456565b61054a816115fd565b60008061124a8587600080611669565b33600090815260ca6020908152604080832089845282528083206001600160a01b038b16845282528083208884529091529020549091508311156112d05760405162461bcd60e51b815260206004820152601160248201527f554e415050524f5645445f414d4f554e540000000000000000000000000000006044820152606401610456565b33600090815260ca6020908152604080832088845282528083206001600160a01b038a1684528252808320878452909152812080548592906113139084906123e1565b909155505033600081815260ca6020908152604080832089845282528083206001600160a01b038b1680855290835281842089855283529281902054815194855291840192909252908201839052606082018790526080820186905260a0820185905260c08201527f2dd238422b2fd3efa934cfe8b093a00a762966e525bdb6caffd34bde7fd60f099060e00161104c565b61054a6115a3565b7f4910fdfa16fed3260ed0e7147f7cc6da11a60208b5b9406d12a635614ffd91435460ff16156113e5576113e0836118e1565b505050565b826001600160a01b03166352d1902d6040518163ffffffff1660e01b8152600401602060405180830381865afa92505050801561143f575060408051601f3d908101601f1916820190925261143c918101906121e1565b60015b6114b15760405162461bcd60e51b815260206004820152602e60248201527f45524331393637557067726164653a206e657720696d706c656d656e7461746960448201527f6f6e206973206e6f7420555550530000000000000000000000000000000000006064820152608401610456565b7f360894a13ba1a3210667c828492db98dca3e2076cc3735a920a3ca505d382bbc81146115465760405162461bcd60e51b815260206004820152602960248201527f45524331393637557067726164653a20756e737570706f727465642070726f7860448201527f6961626c655555494400000000000000000000000000000000000000000000006064820152608401610456565b506113e08383836119ac565b6001600160a01b038116600090815260018301602052604081205415155b90505b92915050565b6000611570836001600160a01b0384166119d7565b6000611570836001600160a01b038416611a26565b6033546001600160a01b03163314610c1f5760405162461bcd60e51b815260206004820181905260248201527f4f776e61626c653a2063616c6c6572206973206e6f7420746865206f776e65726044820152606401610456565b603380546001600160a01b0383811673ffffffffffffffffffffffffffffffffffffffff19831681179093556040519116919082907f8be0079c531659141344cd1fd0a4f28419497f9722a3daafe3b4186f6b6457e090600090a35050565b60606000610e1883611b19565b60c9546040516344766d2960e11b8152600481018690526000918291829182916001600160a01b03909116906388ecda5290602401600060405180830381865afa1580156116bb573d6000803e3d6000fd5b505050506040513d6000823e601f3d908101601f191682016040526116e39190810190612217565b5093509350509250826117385760405162461bcd60e51b815260206004820152600b60248201527f494e56414c49445f4b45590000000000000000000000000000000000000000006044820152606401610456565b8415806117425750805b61177d5760405162461bcd60e51b815260206004820152600c60248201526b12d15657d393d517d493d3d560a21b6044820152606401610456565b33600090815260cb60209081526040808320858452825280832060ff8a16845290915290206117ac9088611552565b6117f85760405162461bcd60e51b815260206004820152600f60248201527f554e545255535445445f4143544f5200000000000000000000000000000000006044820152606401610456565b509695505050505050565b600054610100900460ff1661186e5760405162461bcd60e51b815260206004820152602b60248201527f496e697469616c697a61626c653a20636f6e7472616374206973206e6f74206960448201526a6e697469616c697a696e6760a81b6064820152608401610456565b610c1f611b75565b600054610100900460ff16610c1f5760405162461bcd60e51b815260206004820152602b60248201527f496e697469616c697a61626c653a20636f6e7472616374206973206e6f74206960448201526a6e697469616c697a696e6760a81b6064820152608401610456565b6001600160a01b0381163b61195e5760405162461bcd60e51b815260206004820152602d60248201527f455243313936373a206e657720696d706c656d656e746174696f6e206973206e60448201527f6f74206120636f6e7472616374000000000000000000000000000000000000006064820152608401610456565b7f360894a13ba1a3210667c828492db98dca3e2076cc3735a920a3ca505d382bbc805473ffffffffffffffffffffffffffffffffffffffff19166001600160a01b0392909216919091179055565b6119b583611be9565b6000825111806119c25750805b156113e0576119d18383611c29565b50505050565b6000818152600183016020526040812054611a1e57508154600181810184556000848152602080822090930184905584548482528286019093526040902091909155611573565b506000611573565b60008181526001830160205260408120548015611b0f576000611a4a6001836123e1565b8554909150600090611a5e906001906123e1565b9050818114611ac3576000866000018281548110611a7e57611a7e612402565b9060005260206000200154905080876000018481548110611aa157611aa1612402565b6000918252602080832090910192909255918252600188019052604090208390555b8554869080611ad457611ad4612418565b600190038181906000526020600020016000905590558560010160008681526020019081526020016000206000905560019350505050611573565b6000915050611573565b606081600001805480602002602001604051908101604052809291908181526020018280548015611b6957602002820191906000526020600020905b815481526020019060010190808311611b55575b50505050509050919050565b600054610100900460ff16611be05760405162461bcd60e51b815260206004820152602b60248201527f496e697469616c697a61626c653a20636f6e7472616374206973206e6f74206960448201526a6e697469616c697a696e6760a81b6064820152608401610456565b610c1f336115fd565b611bf2816118e1565b6040516001600160a01b038216907fbc7cd75a20ee27fd9adebab32041f755214dbc6bffa90cc0225b39da2e5c2d3b90600090a250565b60606001600160a01b0383163b611ca85760405162461bcd60e51b815260206004820152602660248201527f416464726573733a2064656c65676174652063616c6c20746f206e6f6e2d636f60448201527f6e747261637400000000000000000000000000000000000000000000000000006064820152608401610456565b600080846001600160a01b031684604051611cc39190612452565b600060405180830381855af49150503d8060008114611cfe576040519150601f19603f3d011682016040523d82523d6000602084013e611d03565b606091505b5091509150611d2b82826040518060600160405280602781526020016124a260279139611d34565b95945050505050565b60608315611d43575081610e18565b825115611d535782518084602001fd5b8160405162461bcd60e51b8152600401610456919061246e565b6001600160a01b038116811461054a57600080fd5b803560ff81168114611d9357600080fd5b919050565b60008060008060808587031215611dae57600080fd5b8435611db981611d6d565b935060208501359250611dce60408601611d82565b91506060850135611dde81611d6d565b939692955090935050565b600060208284031215611dfb57600080fd5b8135610e1881611d6d565b801515811461054a57600080fd5b60008060008060008060c08789031215611e2d57600080fd5b86359550611e3d60208801611d82565b94506040870135611e4d81611d6d565b93506060870135611e5d81611d6d565b92506080870135611e6d81611e06565b8092505060a087013590509295509295509295565b634e487b7160e01b600052604160045260246000fd5b604051601f8201601f1916810167ffffffffffffffff81118282101715611ec157611ec1611e82565b604052919050565b60008060408385031215611edc57600080fd5b8235611ee781611d6d565b915060208381013567ffffffffffffffff80821115611f0557600080fd5b818601915086601f830112611f1957600080fd5b813581811115611f2b57611f2b611e82565b611f3d601f8201601f19168501611e98565b91508082528784828501011115611f5357600080fd5b80848401858401376000848284010152508093505050509250929050565b60008060008060808587031215611f8757600080fd5b8435611f9281611d6d565b9350602085013592506040850135611fa981611d6d565b9396929550929360600135925050565b600080600080600060a08688031215611fd157600080fd5b8535611fdc81611d6d565b94506020860135611fec81611d6d565b94979496505050506040830135926060810135926080909101359150565b60008060006060848603121561201f57600080fd5b833561202a81611d6d565b92506020840135915061203f60408501611d82565b90509250925092565b6020808252825182820181905260009190848201906040850190845b818110156120895783516001600160a01b031683529284019291840191600101612064565b50909695505050505050565b60008083601f8401126120a757600080fd5b50813567ffffffffffffffff8111156120bf57600080fd5b6020830191508360208260051b85010111156120da57600080fd5b9250929050565b60008060008060008060008060c0898b0312156120fd57600080fd5b883561210881611d6d565b9750602089013561211881611d6d565b96506040890135955060608901359450608089013567ffffffffffffffff8082111561214357600080fd5b61214f8c838d01612095565b909650945060a08b013591508082111561216857600080fd5b506121758b828c01612095565b999c989b5096995094979396929594505050565b6000806000806080858703121561219f57600080fd5b84356121aa81611d6d565b966020860135965060408601359560600135945092505050565b6000602082840312156121d657600080fd5b8151610e1881611d6d565b6000602082840312156121f357600080fd5b5051919050565b60006020828403121561220c57600080fd5b8151610e1881611e06565b600080600080600060a0868803121561222f57600080fd5b855161223a81611e06565b80955050602080870151945060408701519350606087015161225b81611e06565b608088015190935067ffffffffffffffff8082111561227957600080fd5b818901915089601f83011261228d57600080fd5b81518181111561229f5761229f611e82565b8060051b91506122b0848301611e98565b818152918301840191848101908c8411156122ca57600080fd5b938501935b838510156122e8578451825293850193908501906122cf565b8096505050505050509295509295909350565b81835260007f07ffffffffffffffffffffffffffffffffffffffffffffffffffffffffffffff83111561232d57600080fd5b8260051b80836020870137939093016020019392505050565b8481526060602082015260006123606060830185876122fb565b9050821515604083015295945050505050565b60006101006001600160a01b03808e168452808d166020850152808c166040850152508960608401528860808401528760a08401528060c08401526123bb81840187896122fb565b905082810360e08401526123d08185876122fb565b9d9c50505050505050505050505050565b8181038181111561157357634e487b7160e01b600052601160045260246000fd5b634e487b7160e01b600052603260045260246000fd5b634e487b7160e01b600052603160045260246000fd5b60005b83811015612449578181015183820152602001612431565b50506000910152565b6000825161246481846020870161242e565b9190910192915050565b602081526000825180602084015261248d81604085016020870161242e565b601f01601f1916919091016040019291505056fe416464726573733a206c6f772d6c6576656c2064656c65676174652063616c6c206661696c6564a26469706673582212201ca5d5e9f89c2c2c925a5832cdc3cdef6140e9968455744593a68bc1f4c6de8e64736f6c63430008100033",
  "linkReferences": {},
  "deployedLinkReferences": {}
}