{
  "_format": "hh-sol-artifact-1",
  "contractName": "Notary",
  "sourceName": "contracts/Notary.sol",
  "abi": [
    {
      "inputs": [],
      "stateMutability": "nonpayable",
      "type": "constructor"
    },
    {
      "anonymous": false,
      "inputs": [
        {
          "indexed": false,
          "internalType": "address",
          "name": "previousAdmin",
          "type": "address"
        },
        {
          "indexed": false,
          "internalType": "address",
          "name": "newAdmin",
          "type": "address"
        }
      ],
      "name": "AdminChanged",
      "type": "event"
    },
    {
      "anonymous": false,
      "inputs": [
        {
          "indexed": true,
          "internalType": "address",
          "name": "beacon",
          "type": "address"
        }
      ],
      "name": "BeaconUpgraded",
      "type": "event"
    },
    {
      "anonymous": false,
      "inputs": [
        {
          "indexed": false,
          "internalType": "uint8",
          "name": "version",
          "type": "uint8"
        }
      ],
      "name": "Initialized",
      "type": "event"
    },
    {
      "anonymous": false,
      "inputs": [
        {
          "indexed": true,
          "internalType": "address",
          "name": "previousOwner",
          "type": "address"
        },
        {
          "indexed": true,
          "internalType": "address",
          "name": "newOwner",
          "type": "address"
        }
      ],
      "name": "OwnershipTransferred",
      "type": "event"
    },
    {
      "anonymous": false,
      "inputs": [
        {
          "indexed": true,
          "internalType": "address",
          "name": "implementation",
          "type": "address"
        }
      ],
      "name": "Upgraded",
      "type": "event"
    },
    {
      "anonymous": false,
      "inputs": [
        {
          "indexed": false,
          "internalType": "address",
          "name": "ledger",
          "type": "address"
        },
        {
          "indexed": false,
          "internalType": "address",
          "name": "provider",
          "type": "address"
        },
        {
          "indexed": false,
          "internalType": "uint256",
          "name": "trustId",
          "type": "uint256"
        },
        {
          "indexed": false,
          "internalType": "uint256",
          "name": "rootKeyId",
          "type": "uint256"
        },
        {
          "indexed": false,
          "internalType": "bytes32",
          "name": "arn",
          "type": "bytes32"
        },
        {
          "indexed": false,
          "internalType": "uint256",
          "name": "amount",
          "type": "uint256"
        }
      ],
      "name": "notaryDepositApproval",
      "type": "event"
    },
    {
      "anonymous": false,
      "inputs": [
        {
          "indexed": false,
          "internalType": "address",
          "name": "ledger",
          "type": "address"
        },
        {
          "indexed": false,
          "internalType": "address",
          "name": "provider",
          "type": "address"
        },
        {
          "indexed": false,
          "internalType": "address",
          "name": "scribe",
          "type": "address"
        },
        {
          "indexed": false,
          "internalType": "bytes32",
          "name": "arn",
          "type": "bytes32"
        },
        {
          "indexed": false,
          "internalType": "uint256",
          "name": "trustId",
          "type": "uint256"
        },
        {
          "indexed": false,
          "internalType": "uint256",
          "name": "sourceKeyId",
          "type": "uint256"
        },
        {
          "indexed": false,
          "internalType": "uint256[]",
          "name": "keys",
          "type": "uint256[]"
        },
        {
          "indexed": false,
          "internalType": "uint256[]",
          "name": "amounts",
          "type": "uint256[]"
        }
      ],
      "name": "notaryDistributionApproval",
      "type": "event"
    },
    {
      "anonymous": false,
      "inputs": [
        {
          "indexed": false,
          "internalType": "address",
          "name": "dispatcher",
          "type": "address"
        },
        {
          "indexed": false,
          "internalType": "uint256",
          "name": "trustId",
          "type": "uint256"
        },
        {
          "indexed": false,
          "internalType": "bytes32",
          "name": "eventHash",
          "type": "bytes32"
        },
        {
          "indexed": false,
          "internalType": "bytes32",
          "name": "description",
          "type": "bytes32"
        }
      ],
      "name": "notaryEventRegistrationApproval",
      "type": "event"
    },
    {
      "anonymous": false,
      "inputs": [
        {
          "indexed": false,
          "internalType": "address",
          "name": "ledger",
          "type": "address"
        },
        {
          "indexed": false,
          "internalType": "address",
          "name": "provider",
          "type": "address"
        },
        {
          "indexed": false,
          "internalType": "uint256",
          "name": "trustId",
          "type": "uint256"
        },
        {
          "indexed": false,
          "internalType": "uint256",
          "name": "keyId",
          "type": "uint256"
        },
        {
          "indexed": false,
          "internalType": "bytes32",
          "name": "arn",
          "type": "bytes32"
        },
        {
          "indexed": false,
          "internalType": "uint256",
          "name": "amount",
          "type": "uint256"
        },
        {
          "indexed": false,
          "internalType": "uint256",
          "name": "allowance",
          "type": "uint256"
        }
      ],
      "name": "notaryWithdrawalApproval",
      "type": "event"
    },
    {
      "anonymous": false,
      "inputs": [
        {
          "indexed": false,
          "internalType": "address",
          "name": "keyHolder",
          "type": "address"
        },
        {
          "indexed": false,
          "internalType": "uint256",
          "name": "trustId",
          "type": "uint256"
        },
        {
          "indexed": false,
          "internalType": "uint256",
          "name": "rootKeyId",
          "type": "uint256"
        },
        {
          "indexed": false,
          "internalType": "address",
          "name": "ledger",
          "type": "address"
        },
        {
          "indexed": false,
          "internalType": "address",
          "name": "actor",
          "type": "address"
        },
        {
          "indexed": false,
          "internalType": "bool",
          "name": "trustLevel",
          "type": "bool"
        },
        {
          "indexed": false,
          "internalType": "uint256",
          "name": "role",
          "type": "uint256"
        }
      ],
      "name": "trustedRoleChange",
      "type": "event"
    },
    {
      "anonymous": false,
      "inputs": [
        {
          "indexed": false,
          "internalType": "address",
          "name": "keyHolder",
          "type": "address"
        },
        {
          "indexed": false,
          "internalType": "uint256",
          "name": "keyId",
          "type": "uint256"
        },
        {
          "indexed": false,
          "internalType": "address",
          "name": "ledger",
          "type": "address"
        },
        {
          "indexed": false,
          "internalType": "address",
          "name": "provider",
          "type": "address"
        },
        {
          "indexed": false,
          "internalType": "bytes32",
          "name": "arn",
          "type": "bytes32"
        },
        {
          "indexed": false,
          "internalType": "uint256",
          "name": "amount",
          "type": "uint256"
        }
      ],
      "name": "withdrawalAllowanceAssigned",
      "type": "event"
    },
    {
      "inputs": [],
      "name": "COLLATERAL_PROVIDER",
      "outputs": [
        {
          "internalType": "uint8",
          "name": "",
          "type": "uint8"
        }
      ],
      "stateMutability": "view",
      "type": "function"
    },
    {
      "inputs": [],
      "name": "EVENT_DISPATCHER",
      "outputs": [
        {
          "internalType": "uint8",
          "name": "",
          "type": "uint8"
        }
      ],
      "stateMutability": "view",
      "type": "function"
    },
    {
      "inputs": [],
      "name": "SCRIBE",
      "outputs": [
        {
          "internalType": "uint8",
          "name": "",
          "type": "uint8"
        }
      ],
      "stateMutability": "view",
      "type": "function"
    },
    {
      "inputs": [
        {
          "internalType": "address",
          "name": "",
          "type": "address"
        },
        {
          "internalType": "uint256",
          "name": "",
          "type": "uint256"
        },
        {
          "internalType": "uint8",
          "name": "",
          "type": "uint8"
        },
        {
          "internalType": "address",
          "name": "",
          "type": "address"
        }
      ],
      "name": "actorAliases",
      "outputs": [
        {
          "internalType": "bytes32",
          "name": "",
          "type": "bytes32"
        }
      ],
      "stateMutability": "view",
      "type": "function"
    },
    {
      "inputs": [
        {
          "internalType": "address",
          "name": "ledger",
          "type": "address"
        },
        {
          "internalType": "uint256",
          "name": "trustId",
          "type": "uint256"
        },
        {
          "internalType": "uint8",
          "name": "role",
          "type": "uint8"
        }
      ],
      "name": "getTrustedActors",
      "outputs": [
        {
          "internalType": "address[]",
          "name": "",
          "type": "address[]"
        }
      ],
      "stateMutability": "view",
      "type": "function"
    },
    {
      "inputs": [
        {
          "internalType": "address",
          "name": "_Locksmith",
          "type": "address"
        }
      ],
      "name": "initialize",
      "outputs": [],
      "stateMutability": "nonpayable",
      "type": "function"
    },
    {
      "inputs": [],
      "name": "locksmith",
      "outputs": [
        {
          "internalType": "contract ILocksmith",
          "name": "",
          "type": "address"
        }
      ],
      "stateMutability": "view",
      "type": "function"
    },
    {
      "inputs": [
        {
          "internalType": "address",
          "name": "provider",
          "type": "address"
        },
        {
          "internalType": "uint256",
          "name": "keyId",
          "type": "uint256"
        },
        {
          "internalType": "bytes32",
          "name": "arn",
          "type": "bytes32"
        },
        {
          "internalType": "uint256",
          "name": "amount",
          "type": "uint256"
        }
      ],
      "name": "notarizeDeposit",
      "outputs": [
        {
          "internalType": "uint256",
          "name": "",
          "type": "uint256"
        }
      ],
      "stateMutability": "nonpayable",
      "type": "function"
    },
    {
      "inputs": [
        {
          "internalType": "address",
          "name": "scribe",
          "type": "address"
        },
        {
          "internalType": "address",
          "name": "provider",
          "type": "address"
        },
        {
          "internalType": "bytes32",
          "name": "arn",
          "type": "bytes32"
        },
        {
          "internalType": "uint256",
          "name": "sourceKeyId",
          "type": "uint256"
        },
        {
          "internalType": "uint256[]",
          "name": "keys",
          "type": "uint256[]"
        },
        {
          "internalType": "uint256[]",
          "name": "amounts",
          "type": "uint256[]"
        }
      ],
      "name": "notarizeDistribution",
      "outputs": [
        {
          "internalType": "uint256",
          "name": "",
          "type": "uint256"
        }
      ],
      "stateMutability": "nonpayable",
      "type": "function"
    },
    {
      "inputs": [
        {
          "internalType": "address",
          "name": "dispatcher",
          "type": "address"
        },
        {
          "internalType": "uint256",
          "name": "trustId",
          "type": "uint256"
        },
        {
          "internalType": "bytes32",
          "name": "eventHash",
          "type": "bytes32"
        },
        {
          "internalType": "bytes32",
          "name": "description",
          "type": "bytes32"
        }
      ],
      "name": "notarizeEventRegistration",
      "outputs": [],
      "stateMutability": "nonpayable",
      "type": "function"
    },
    {
      "inputs": [
        {
          "internalType": "address",
          "name": "provider",
          "type": "address"
        },
        {
          "internalType": "uint256",
          "name": "keyId",
          "type": "uint256"
        },
        {
          "internalType": "bytes32",
          "name": "arn",
          "type": "bytes32"
        },
        {
          "internalType": "uint256",
          "name": "amount",
          "type": "uint256"
        }
      ],
      "name": "notarizeWithdrawal",
      "outputs": [
        {
          "internalType": "uint256",
          "name": "",
          "type": "uint256"
        }
      ],
      "stateMutability": "nonpayable",
      "type": "function"
    },
    {
      "inputs": [],
      "name": "owner",
      "outputs": [
        {
          "internalType": "address",
          "name": "",
          "type": "address"
        }
      ],
      "stateMutability": "view",
      "type": "function"
    },
    {
      "inputs": [],
      "name": "proxiableUUID",
      "outputs": [
        {
          "internalType": "bytes32",
          "name": "",
          "type": "bytes32"
        }
      ],
      "stateMutability": "view",
      "type": "function"
    },
    {
      "inputs": [],
      "name": "renounceOwnership",
      "outputs": [],
      "stateMutability": "nonpayable",
      "type": "function"
    },
    {
      "inputs": [
        {
          "internalType": "uint256",
          "name": "rootKeyId",
          "type": "uint256"
        },
        {
          "internalType": "uint8",
          "name": "role",
          "type": "uint8"
        },
        {
          "internalType": "address",
          "name": "ledger",
          "type": "address"
        },
        {
          "internalType": "address",
          "name": "actor",
          "type": "address"
        },
        {
          "internalType": "bool",
          "name": "trustLevel",
          "type": "bool"
        },
        {
          "internalType": "bytes32",
          "name": "actorAlias",
          "type": "bytes32"
        }
      ],
      "name": "setTrustedLedgerRole",
      "outputs": [],
      "stateMutability": "nonpayable",
      "type": "function"
    },
    {
      "inputs": [
        {
          "internalType": "address",
          "name": "ledger",
          "type": "address"
        },
        {
          "internalType": "address",
          "name": "provider",
          "type": "address"
        },
        {
          "internalType": "uint256",
          "name": "keyId",
          "type": "uint256"
        },
        {
          "internalType": "bytes32",
          "name": "arn",
          "type": "bytes32"
        },
        {
          "internalType": "uint256",
          "name": "amount",
          "type": "uint256"
        }
      ],
      "name": "setWithdrawalAllowance",
      "outputs": [],
      "stateMutability": "nonpayable",
      "type": "function"
    },
    {
      "inputs": [
        {
          "internalType": "address",
          "name": "newOwner",
          "type": "address"
        }
      ],
      "name": "transferOwnership",
      "outputs": [],
      "stateMutability": "nonpayable",
      "type": "function"
    },
    {
      "inputs": [
        {
          "internalType": "address",
          "name": "newImplementation",
          "type": "address"
        }
      ],
      "name": "upgradeTo",
      "outputs": [],
      "stateMutability": "nonpayable",
      "type": "function"
    },
    {
      "inputs": [
        {
          "internalType": "address",
          "name": "newImplementation",
          "type": "address"
        },
        {
          "internalType": "bytes",
          "name": "data",
          "type": "bytes"
        }
      ],
      "name": "upgradeToAndCall",
      "outputs": [],
      "stateMutability": "payable",
      "type": "function"
    },
    {
      "inputs": [
        {
          "internalType": "address",
          "name": "",
          "type": "address"
        },
        {
          "internalType": "uint256",
          "name": "",
          "type": "uint256"
        },
        {
          "internalType": "address",
          "name": "",
          "type": "address"
        },
        {
          "internalType": "bytes32",
          "name": "",
          "type": "bytes32"
        }
      ],
      "name": "withdrawalAllowances",
      "outputs": [
        {
          "internalType": "uint256",
          "name": "",
          "type": "uint256"
        }
      ],
      "stateMutability": "view",
      "type": "function"
    }
  ],
  "bytecode": "0x60a06040523060805234801561001457600080fd5b5061001d610022565b6100e2565b600054610100900460ff161561008e5760405162461bcd60e51b815260206004820152602760248201527f496e697469616c697a61626c653a20636f6e747261637420697320696e697469604482015266616c697a696e6760c81b606482015260840160405180910390fd5b60005460ff90811610156100e0576000805460ff191660ff9081179091556040519081527f7f26b83ff96e1f2b6a682f133852f6798a09c465da95921460cefb38474024989060200160405180910390a15b565b6080516123336200011a600039600081816104020152818161044b0152818161094a0152818161098a0152610a1d01526123336000f3fe60806040526004361061011f5760003560e01c80639115508a116100a0578063c4d66de811610064578063c4d66de81461036e578063c59ed3491461038e578063ca23b79d146103a3578063f2fde38b146103b8578063fc9cea05146103d857600080fd5b80639115508a146102ba578063ac7532ae146102e7578063b985e1d714610307578063bb4ec12d1461032e578063bc231f2d1461034e57600080fd5b806352d1902d116100e757806352d1902d1461020b578063625439fd14610220578063715018a61461026757806388dfcc521461027c5780638da5cb5b1461029c57600080fd5b8063085dce191461012457806313fb817e1461017e5780633659cfe6146101b65780634bf1be06146101d85780634f1ef286146101f8575b600080fd5b34801561013057600080fd5b5061016b61013f366004611ae0565b60cc60209081526000948552604080862082529385528385208152918452828420909152825290205481565b6040519081526020015b60405180910390f35b34801561018a57600080fd5b5060c95461019e906001600160a01b031681565b6040516001600160a01b039091168152602001610175565b3480156101c257600080fd5b506101d66101d1366004611b31565b6103f8565b005b3480156101e457600080fd5b506101d66101f3366004611b5c565b6104e0565b6101d6610206366004611c11565b610940565b34801561021757600080fd5b5061016b610a10565b34801561022c57600080fd5b5061016b61023b366004611cb9565b60ca60209081526000948552604080862082529385528385208152918452828420909152825290205481565b34801561027357600080fd5b506101d6610ac3565b34801561028857600080fd5b506101d6610297366004611d01565b610ad7565b3480156102a857600080fd5b506033546001600160a01b031661019e565b3480156102c657600080fd5b506102da6102d5366004611d52565b610c91565b6040516101759190611d90565b3480156102f357600080fd5b5061016b610302366004611e29565b610cd5565b34801561031357600080fd5b5061031c600281565b60405160ff9091168152602001610175565b34801561033a57600080fd5b5061016b610349366004611ed1565b610e72565b34801561035a57600080fd5b506101d6610369366004611ed1565b610eec565b34801561037a57600080fd5b506101d6610389366004611b31565b610fb3565b34801561039a57600080fd5b5061031c600181565b3480156103af57600080fd5b5061031c600081565b3480156103c457600080fd5b506101d66103d3366004611b31565b6110e7565b3480156103e457600080fd5b5061016b6103f3366004611ed1565b61115d565b6001600160a01b037f00000000000000000000000000000000000000000000000000000000000000001630036104495760405162461bcd60e51b815260040161044090611f0c565b60405180910390fd5b7f00000000000000000000000000000000000000000000000000000000000000006001600160a01b03166104926000805160206122b7833981519152546001600160a01b031690565b6001600160a01b0316146104b85760405162461bcd60e51b815260040161044090611f58565b6104c1816112bb565b604080516000808252602082019092526104dd918391906112c3565b50565b60c9546040805163b83ac19f60e01b815290516000926001600160a01b03169163b83ac19f9160048083019260209291908290030181865afa15801561052a573d6000803e3d6000fd5b505050506040513d601f19601f8201168201806040525081019061054e9190611fa4565b604051630f5d2cd560e11b815233600482015260248101899052600060448201526001600160a01b039190911690631eba59aa90606401602060405180830381865afa1580156105a2573d6000803e3d6000fd5b505050506040513d601f19601f820116820180604052508101906105c69190611fc1565b116106025760405162461bcd60e51b815260206004820152600c60248201526b12d15657d393d517d211531160a21b6044820152606401610440565b60c95460405163d2bd0fad60e01b8152600481018890526001600160a01b039091169063d2bd0fad90602401602060405180830381865afa15801561064b573d6000803e3d6000fd5b505050506040513d601f19601f8201168201806040525081019061066f9190611fda565b6106aa5760405162461bcd60e51b815260206004820152600c60248201526b12d15657d393d517d493d3d560a21b6044820152606401610440565b60c9546040516344766d2960e11b8152600481018890526000916001600160a01b0316906388ecda5290602401600060405180830381865afa1580156106f4573d6000803e3d6000fd5b505050506040513d6000823e601f3d908101601f1916820160405261071c9190810190611ff7565b505092505050821561081c576001600160a01b038516600090815260cb60209081526040808320848452825280832060ff8a16845290915290206107609085611433565b156107a35760405162461bcd60e51b81526020600482015260136024820152722922a22aa72220a72a2fa82927ab24a9a4a7a760691b6044820152606401610440565b6001600160a01b038516600090815260cb60209081526040808320848452825280832060ff8a16845290915290206107db908561145a565b506001600160a01b03808616600090815260cc60209081526040808320858452825280832060ff8b16845282528083209388168352929052208290556108ce565b6001600160a01b038516600090815260cb60209081526040808320848452825280832060ff8a16845290915290206108549085611433565b6108945760405162461bcd60e51b81526020600482015260116024820152702727aa2fa1aaa92922a72a2fa0a1aa27a960791b6044820152606401610440565b6001600160a01b038516600090815260cb60209081526040808320848452825280832060ff8a16845290915290206108cc908561146f565b505b60408051338152602081018390529081018890526001600160a01b0380871660608301528516608082015283151560a082015260ff871660c08201527f3ac8843b3af474f69618166e30a7cf14743ad7c037dbdd12b6a639b051d8fd8c9060e00160405180910390a150505050505050565b6001600160a01b037f00000000000000000000000000000000000000000000000000000000000000001630036109885760405162461bcd60e51b815260040161044090611f0c565b7f00000000000000000000000000000000000000000000000000000000000000006001600160a01b03166109d16000805160206122b7833981519152546001600160a01b031690565b6001600160a01b0316146109f75760405162461bcd60e51b815260040161044090611f58565b610a00826112bb565b610a0c828260016112c3565b5050565b6000306001600160a01b037f00000000000000000000000000000000000000000000000000000000000000001614610ab05760405162461bcd60e51b815260206004820152603860248201527f555550535570677261646561626c653a206d757374206e6f742062652063616c60448201527f6c6564207468726f7567682064656c656761746563616c6c00000000000000006064820152608401610440565b506000805160206122b783398151915290565b610acb611484565b610ad560006114de565b565b60c9546040805163b83ac19f60e01b815290516000926001600160a01b03169163b83ac19f9160048083019260209291908290030181865afa158015610b21573d6000803e3d6000fd5b505050506040513d601f19601f82011682018060405250810190610b459190611fa4565b604051630f5d2cd560e11b815233600482015260248101869052600060448201526001600160a01b039190911690631eba59aa90606401602060405180830381865afa158015610b99573d6000803e3d6000fd5b505050506040513d601f19601f82011682018060405250810190610bbd9190611fc1565b11610bf95760405162461bcd60e51b815260206004820152600c60248201526b12d15657d393d517d211531160a21b6044820152606401610440565b6001600160a01b03858116600081815260ca60209081526040808320888452825280832094891680845294825280832087845282529182902085905581513381529081018790529081019190915260608101919091526080810183905260a081018290527f9d38ed61caea3e177c89897812b1495a28a4c5df5813d0692eb2a810b5af589a9060c00160405180910390a15050505050565b6001600160a01b038316600090815260cb60209081526040808320858452825280832060ff851684529091529020606090610ccb90611530565b90505b9392505050565b600080610ce4878b600161153d565b33600090815260cb6020908152604080832084845282528083208380529091529020909150610d13908a611433565b610d545760405162461bcd60e51b81526020600482015260126024820152712aa72a292aa9aa22a22fa82927ab24a222a960711b6044820152606401610440565b848314610da35760405162461bcd60e51b815260206004820152601860248201527f4b45595f414d4f554e545f53495a455f4d49534d4154434800000000000000006044820152606401610440565b60c9546040516353a81ee160e01b81526001600160a01b03909116906353a81ee190610dda9084908a908a9060019060040161210d565b602060405180830381865afa158015610df7573d6000803e3d6000fd5b505050506040513d601f19601f82011682018060405250810190610e1b9190611fda565b507f875b64647c8f0311415910db63af5002dc849943757316ecba890efdd848e6b2338a8c8b858c8c8c8c8c604051610e5d9a9998979695949392919061213a565b60405180910390a19998505050505050505050565b600080610e818587600061153d565b604080513381526001600160a01b0389166020820152908101829052606081018790526080810186905260a081018590529091507f2b199641dbed40d94f0ff44b2f2f233176b1ec8d255e7a26a8c7b36610311c6b9060c0015b60405180910390a195945050505050565b33600090815260cb602090815260408083208684528252808320600284529091529020610f199085611433565b610f5c5760405162461bcd60e51b81526020600482015260146024820152732aa72a292aa9aa22a22fa224a9a820aa21a422a960611b6044820152606401610440565b604080516001600160a01b038616815260208101859052908101839052606081018290527f5b67a0e8c387eb447cf708cdfabf7e8ea37dcd585e67ccf921f83d1cbedde3429060800160405180910390a150505050565b600054610100900460ff1615808015610fd35750600054600160ff909116105b80610fed5750303b158015610fed575060005460ff166001145b6110505760405162461bcd60e51b815260206004820152602e60248201527f496e697469616c697a61626c653a20636f6e747261637420697320616c72656160448201526d191e481a5b9a5d1a585b1a5e995960921b6064820152608401610440565b6000805460ff191660011790558015611073576000805461ff0019166101001790555b61107b61166b565b61108361169a565b60c980546001600160a01b0319166001600160a01b0384161790558015610a0c576000805461ff0019169055604051600181527f7f26b83ff96e1f2b6a682f133852f6798a09c465da95921460cefb38474024989060200160405180910390a15050565b6110ef611484565b6001600160a01b0381166111545760405162461bcd60e51b815260206004820152602660248201527f4f776e61626c653a206e6577206f776e657220697320746865207a65726f206160448201526564647265737360d01b6064820152608401610440565b6104dd816114de565b60008061116c8587600061153d565b33600090815260ca6020908152604080832089845282528083206001600160a01b038b16845282528083208884529091529020549091508311156111e65760405162461bcd60e51b815260206004820152601160248201527015539054141493d5915117d05353d55395607a1b6044820152606401610440565b33600090815260ca6020908152604080832088845282528083206001600160a01b038a1684528252808320878452909152812080548592906112299084906121ab565b909155505033600081815260ca6020908152604080832089845282528083206001600160a01b038b1680855290835281842089855283529281902054815194855291840192909252908201839052606082018790526080820186905260a0820185905260c08201527f2dd238422b2fd3efa934cfe8b093a00a762966e525bdb6caffd34bde7fd60f099060e001610edb565b6104dd611484565b7f4910fdfa16fed3260ed0e7147f7cc6da11a60208b5b9406d12a635614ffd91435460ff16156112fb576112f6836116c1565b505050565b826001600160a01b03166352d1902d6040518163ffffffff1660e01b8152600401602060405180830381865afa925050508015611355575060408051601f3d908101601f1916820190925261135291810190611fc1565b60015b6113b85760405162461bcd60e51b815260206004820152602e60248201527f45524331393637557067726164653a206e657720696d706c656d656e7461746960448201526d6f6e206973206e6f74205555505360901b6064820152608401610440565b6000805160206122b783398151915281146114275760405162461bcd60e51b815260206004820152602960248201527f45524331393637557067726164653a20756e737570706f727465642070726f786044820152681a58589b195555525160ba1b6064820152608401610440565b506112f683838361175d565b6001600160a01b038116600090815260018301602052604081205415155b90505b92915050565b6000611451836001600160a01b038416611788565b6000611451836001600160a01b0384166117d7565b6033546001600160a01b03163314610ad55760405162461bcd60e51b815260206004820181905260248201527f4f776e61626c653a2063616c6c6572206973206e6f7420746865206f776e65726044820152606401610440565b603380546001600160a01b038381166001600160a01b0319831681179093556040519116919082907f8be0079c531659141344cd1fd0a4f28419497f9722a3daafe3b4186f6b6457e090600090a35050565b60606000610cce836118ca565b60c9546040516344766d2960e11b815260048101859052600091829182916001600160a01b0316906388ecda5290602401600060405180830381865afa15801561158b573d6000803e3d6000fd5b505050506040513d6000823e601f3d908101601f191682016040526115b39190810190611ff7565b50509250509150816115f55760405162461bcd60e51b815260206004820152600b60248201526a494e56414c49445f4b455960a81b6044820152606401610440565b33600090815260cb60209081526040808320848452825280832060ff8816845290915290206116249086611433565b6116625760405162461bcd60e51b815260206004820152600f60248201526e2aa72a292aa9aa22a22fa0a1aa27a960891b6044820152606401610440565b95945050505050565b600054610100900460ff166116925760405162461bcd60e51b8152600401610440906121cc565b610ad5611926565b600054610100900460ff16610ad55760405162461bcd60e51b8152600401610440906121cc565b6001600160a01b0381163b61172e5760405162461bcd60e51b815260206004820152602d60248201527f455243313936373a206e657720696d706c656d656e746174696f6e206973206e60448201526c1bdd08184818dbdb9d1c9858dd609a1b6064820152608401610440565b6000805160206122b783398151915280546001600160a01b0319166001600160a01b0392909216919091179055565b61176683611956565b6000825111806117735750805b156112f6576117828383611996565b50505050565b60008181526001830160205260408120546117cf57508154600181810184556000848152602080822090930184905584548482528286019093526040902091909155611454565b506000611454565b600081815260018301602052604081205480156118c05760006117fb6001836121ab565b855490915060009061180f906001906121ab565b905081811461187457600086600001828154811061182f5761182f612217565b906000526020600020015490508087600001848154811061185257611852612217565b6000918252602080832090910192909255918252600188019052604090208390555b85548690806118855761188561222d565b600190038181906000526020600020016000905590558560010160008681526020019081526020016000206000905560019350505050611454565b6000915050611454565b60608160000180548060200260200160405190810160405280929190818152602001828054801561191a57602002820191906000526020600020905b815481526020019060010190808311611906575b50505050509050919050565b600054610100900460ff1661194d5760405162461bcd60e51b8152600401610440906121cc565b610ad5336114de565b61195f816116c1565b6040516001600160a01b038216907fbc7cd75a20ee27fd9adebab32041f755214dbc6bffa90cc0225b39da2e5c2d3b90600090a250565b60606001600160a01b0383163b6119fe5760405162461bcd60e51b815260206004820152602660248201527f416464726573733a2064656c65676174652063616c6c20746f206e6f6e2d636f6044820152651b9d1c9858dd60d21b6064820152608401610440565b600080846001600160a01b031684604051611a199190612267565b600060405180830381855af49150503d8060008114611a54576040519150601f19603f3d011682016040523d82523d6000602084013e611a59565b606091505b509150915061166282826040518060600160405280602781526020016122d76027913960608315611a8b575081610cce565b825115611a9b5782518084602001fd5b8160405162461bcd60e51b81526004016104409190612283565b6001600160a01b03811681146104dd57600080fd5b803560ff81168114611adb57600080fd5b919050565b60008060008060808587031215611af657600080fd5b8435611b0181611ab5565b935060208501359250611b1660408601611aca565b91506060850135611b2681611ab5565b939692955090935050565b600060208284031215611b4357600080fd5b8135610cce81611ab5565b80151581146104dd57600080fd5b60008060008060008060c08789031215611b7557600080fd5b86359550611b8560208801611aca565b94506040870135611b9581611ab5565b93506060870135611ba581611ab5565b92506080870135611bb581611b4e565b8092505060a087013590509295509295509295565b634e487b7160e01b600052604160045260246000fd5b604051601f8201601f1916810167ffffffffffffffff81118282101715611c0957611c09611bca565b604052919050565b60008060408385031215611c2457600080fd5b8235611c2f81611ab5565b915060208381013567ffffffffffffffff80821115611c4d57600080fd5b818601915086601f830112611c6157600080fd5b813581811115611c7357611c73611bca565b611c85601f8201601f19168501611be0565b91508082528784828501011115611c9b57600080fd5b80848401858401376000848284010152508093505050509250929050565b60008060008060808587031215611ccf57600080fd5b8435611cda81611ab5565b9350602085013592506040850135611cf181611ab5565b9396929550929360600135925050565b600080600080600060a08688031215611d1957600080fd5b8535611d2481611ab5565b94506020860135611d3481611ab5565b94979496505050506040830135926060810135926080909101359150565b600080600060608486031215611d6757600080fd5b8335611d7281611ab5565b925060208401359150611d8760408501611aca565b90509250925092565b6020808252825182820181905260009190848201906040850190845b81811015611dd15783516001600160a01b031683529284019291840191600101611dac565b50909695505050505050565b60008083601f840112611def57600080fd5b50813567ffffffffffffffff811115611e0757600080fd5b6020830191508360208260051b8501011115611e2257600080fd5b9250929050565b60008060008060008060008060c0898b031215611e4557600080fd5b8835611e5081611ab5565b97506020890135611e6081611ab5565b96506040890135955060608901359450608089013567ffffffffffffffff80821115611e8b57600080fd5b611e978c838d01611ddd565b909650945060a08b0135915080821115611eb057600080fd5b50611ebd8b828c01611ddd565b999c989b5096995094979396929594505050565b60008060008060808587031215611ee757600080fd5b8435611ef281611ab5565b966020860135965060408601359560600135945092505050565b6020808252602c908201527f46756e6374696f6e206d7573742062652063616c6c6564207468726f7567682060408201526b19195b1959d85d1958d85b1b60a21b606082015260800190565b6020808252602c908201527f46756e6374696f6e206d7573742062652063616c6c6564207468726f7567682060408201526b6163746976652070726f787960a01b606082015260800190565b600060208284031215611fb657600080fd5b8151610cce81611ab5565b600060208284031215611fd357600080fd5b5051919050565b600060208284031215611fec57600080fd5b8151610cce81611b4e565b600080600080600060a0868803121561200f57600080fd5b855161201a81611b4e565b80955050602080870151945060408701519350606087015161203b81611b4e565b608088015190935067ffffffffffffffff8082111561205957600080fd5b818901915089601f83011261206d57600080fd5b81518181111561207f5761207f611bca565b8060051b9150612090848301611be0565b818152918301840191848101908c8411156120aa57600080fd5b938501935b838510156120c8578451825293850193908501906120af565b8096505050505050509295509295909350565b81835260006001600160fb1b038311156120f457600080fd5b8260051b80836020870137939093016020019392505050565b8481526060602082015260006121276060830185876120db565b9050821515604083015295945050505050565b6001600160a01b038b811682528a8116602083015289166040820152606081018890526080810187905260a0810186905261010060c0820181905260009061218583820187896120db565b905082810360e084015261219a8185876120db565b9d9c50505050505050505050505050565b8181038181111561145457634e487b7160e01b600052601160045260246000fd5b6020808252602b908201527f496e697469616c697a61626c653a20636f6e7472616374206973206e6f74206960408201526a6e697469616c697a696e6760a81b606082015260800190565b634e487b7160e01b600052603260045260246000fd5b634e487b7160e01b600052603160045260246000fd5b60005b8381101561225e578181015183820152602001612246565b50506000910152565b60008251612279818460208701612243565b9190910192915050565b60208152600082518060208401526122a2816040850160208701612243565b601f01601f1916919091016040019291505056fe360894a13ba1a3210667c828492db98dca3e2076cc3735a920a3ca505d382bbc416464726573733a206c6f772d6c6576656c2064656c65676174652063616c6c206661696c6564a26469706673582212208258f1621c49834740f1deb9a33ba09b54e36713ed3bab688ec6cccb6601a44b64736f6c63430008100033",
  "linkReferences": {},
  "deployedLinkReferences": {}
}