{
  "_format": "hh-sol-artifact-1",
  "contractName": "Notary",
  "sourceName": "contracts/Notary.sol",
  "abi": [
    {
      "inputs": [],
      "stateMutability": "nonpayable",
      "type": "constructor"
    },
    {
      "anonymous": false,
      "inputs": [
        {
          "indexed": false,
          "internalType": "address",
          "name": "previousAdmin",
          "type": "address"
        },
        {
          "indexed": false,
          "internalType": "address",
          "name": "newAdmin",
          "type": "address"
        }
      ],
      "name": "AdminChanged",
      "type": "event"
    },
    {
      "anonymous": false,
      "inputs": [
        {
          "indexed": true,
          "internalType": "address",
          "name": "beacon",
          "type": "address"
        }
      ],
      "name": "BeaconUpgraded",
      "type": "event"
    },
    {
      "anonymous": false,
      "inputs": [
        {
          "indexed": false,
          "internalType": "uint8",
          "name": "version",
          "type": "uint8"
        }
      ],
      "name": "Initialized",
      "type": "event"
    },
    {
      "anonymous": false,
      "inputs": [
        {
          "indexed": true,
          "internalType": "address",
          "name": "previousOwner",
          "type": "address"
        },
        {
          "indexed": true,
          "internalType": "address",
          "name": "newOwner",
          "type": "address"
        }
      ],
      "name": "OwnershipTransferred",
      "type": "event"
    },
    {
      "anonymous": false,
      "inputs": [
        {
          "indexed": true,
          "internalType": "address",
          "name": "implementation",
          "type": "address"
        }
      ],
      "name": "Upgraded",
      "type": "event"
    },
    {
      "anonymous": false,
      "inputs": [
        {
          "indexed": false,
          "internalType": "address",
          "name": "ledger",
          "type": "address"
        },
        {
          "indexed": false,
          "internalType": "address",
          "name": "provider",
          "type": "address"
        },
        {
          "indexed": false,
          "internalType": "uint256",
          "name": "trustId",
          "type": "uint256"
        },
        {
          "indexed": false,
          "internalType": "uint256",
          "name": "rootKeyId",
          "type": "uint256"
        },
        {
          "indexed": false,
          "internalType": "bytes32",
          "name": "arn",
          "type": "bytes32"
        },
        {
          "indexed": false,
          "internalType": "uint256",
          "name": "amount",
          "type": "uint256"
        }
      ],
      "name": "notaryDepositApproval",
      "type": "event"
    },
    {
      "anonymous": false,
      "inputs": [
        {
          "indexed": false,
          "internalType": "address",
          "name": "ledger",
          "type": "address"
        },
        {
          "indexed": false,
          "internalType": "address",
          "name": "provider",
          "type": "address"
        },
        {
          "indexed": false,
          "internalType": "address",
          "name": "scribe",
          "type": "address"
        },
        {
          "indexed": false,
          "internalType": "bytes32",
          "name": "arn",
          "type": "bytes32"
        },
        {
          "indexed": false,
          "internalType": "uint256",
          "name": "trustId",
          "type": "uint256"
        },
        {
          "indexed": false,
          "internalType": "uint256",
          "name": "rootKeyId",
          "type": "uint256"
        },
        {
          "indexed": false,
          "internalType": "uint256[]",
          "name": "keys",
          "type": "uint256[]"
        },
        {
          "indexed": false,
          "internalType": "uint256[]",
          "name": "amounts",
          "type": "uint256[]"
        }
      ],
      "name": "notaryDistributionApproval",
      "type": "event"
    },
    {
      "anonymous": false,
      "inputs": [
        {
          "indexed": false,
          "internalType": "address",
          "name": "dispatcher",
          "type": "address"
        },
        {
          "indexed": false,
          "internalType": "uint256",
          "name": "trustId",
          "type": "uint256"
        },
        {
          "indexed": false,
          "internalType": "bytes32",
          "name": "eventHash",
          "type": "bytes32"
        },
        {
          "indexed": false,
          "internalType": "bytes32",
          "name": "description",
          "type": "bytes32"
        }
      ],
      "name": "notaryEventRegistrationApproval",
      "type": "event"
    },
    {
      "anonymous": false,
      "inputs": [
        {
          "indexed": false,
          "internalType": "address",
          "name": "ledger",
          "type": "address"
        },
        {
          "indexed": false,
          "internalType": "address",
          "name": "provider",
          "type": "address"
        },
        {
          "indexed": false,
          "internalType": "uint256",
          "name": "trustId",
          "type": "uint256"
        },
        {
          "indexed": false,
          "internalType": "uint256",
          "name": "keyId",
          "type": "uint256"
        },
        {
          "indexed": false,
          "internalType": "bytes32",
          "name": "arn",
          "type": "bytes32"
        },
        {
          "indexed": false,
          "internalType": "uint256",
          "name": "amount",
          "type": "uint256"
        },
        {
          "indexed": false,
          "internalType": "uint256",
          "name": "allowance",
          "type": "uint256"
        }
      ],
      "name": "notaryWithdrawalApproval",
      "type": "event"
    },
    {
      "anonymous": false,
      "inputs": [
        {
          "indexed": false,
          "internalType": "address",
          "name": "keyHolder",
          "type": "address"
        },
        {
          "indexed": false,
          "internalType": "uint256",
          "name": "trustId",
          "type": "uint256"
        },
        {
          "indexed": false,
          "internalType": "uint256",
          "name": "rootKeyId",
          "type": "uint256"
        },
        {
          "indexed": false,
          "internalType": "address",
          "name": "ledger",
          "type": "address"
        },
        {
          "indexed": false,
          "internalType": "address",
          "name": "actor",
          "type": "address"
        },
        {
          "indexed": false,
          "internalType": "bool",
          "name": "trustLevel",
          "type": "bool"
        },
        {
          "indexed": false,
          "internalType": "uint256",
          "name": "role",
          "type": "uint256"
        }
      ],
      "name": "trustedRoleChange",
      "type": "event"
    },
    {
      "anonymous": false,
      "inputs": [
        {
          "indexed": false,
          "internalType": "address",
          "name": "keyHolder",
          "type": "address"
        },
        {
          "indexed": false,
          "internalType": "uint256",
          "name": "keyId",
          "type": "uint256"
        },
        {
          "indexed": false,
          "internalType": "address",
          "name": "ledger",
          "type": "address"
        },
        {
          "indexed": false,
          "internalType": "address",
          "name": "provider",
          "type": "address"
        },
        {
          "indexed": false,
          "internalType": "bytes32",
          "name": "arn",
          "type": "bytes32"
        },
        {
          "indexed": false,
          "internalType": "uint256",
          "name": "amount",
          "type": "uint256"
        }
      ],
      "name": "withdrawalAllowanceAssigned",
      "type": "event"
    },
    {
      "inputs": [],
      "name": "COLLATERAL_PROVIDER",
      "outputs": [
        {
          "internalType": "uint8",
          "name": "",
          "type": "uint8"
        }
      ],
      "stateMutability": "view",
      "type": "function"
    },
    {
      "inputs": [],
      "name": "EVENT_DISPATCHER",
      "outputs": [
        {
          "internalType": "uint8",
          "name": "",
          "type": "uint8"
        }
      ],
      "stateMutability": "view",
      "type": "function"
    },
    {
      "inputs": [],
      "name": "SCRIBE",
      "outputs": [
        {
          "internalType": "uint8",
          "name": "",
          "type": "uint8"
        }
      ],
      "stateMutability": "view",
      "type": "function"
    },
    {
      "inputs": [
        {
          "internalType": "address",
          "name": "",
          "type": "address"
        },
        {
          "internalType": "uint256",
          "name": "",
          "type": "uint256"
        },
        {
          "internalType": "uint8",
          "name": "",
          "type": "uint8"
        },
        {
          "internalType": "address",
          "name": "",
          "type": "address"
        }
      ],
      "name": "actorAliases",
      "outputs": [
        {
          "internalType": "bytes32",
          "name": "",
          "type": "bytes32"
        }
      ],
      "stateMutability": "view",
      "type": "function"
    },
    {
      "inputs": [
        {
          "internalType": "address",
          "name": "ledger",
          "type": "address"
        },
        {
          "internalType": "uint256",
          "name": "trustId",
          "type": "uint256"
        },
        {
          "internalType": "uint8",
          "name": "role",
          "type": "uint8"
        }
      ],
      "name": "getTrustedActors",
      "outputs": [
        {
          "internalType": "address[]",
          "name": "",
          "type": "address[]"
        }
      ],
      "stateMutability": "view",
      "type": "function"
    },
    {
      "inputs": [
        {
          "internalType": "address",
          "name": "_Locksmith",
          "type": "address"
        }
      ],
      "name": "initialize",
      "outputs": [],
      "stateMutability": "nonpayable",
      "type": "function"
    },
    {
      "inputs": [],
      "name": "locksmith",
      "outputs": [
        {
          "internalType": "contract ILocksmith",
          "name": "",
          "type": "address"
        }
      ],
      "stateMutability": "view",
      "type": "function"
    },
    {
      "inputs": [
        {
          "internalType": "address",
          "name": "provider",
          "type": "address"
        },
        {
          "internalType": "uint256",
          "name": "keyId",
          "type": "uint256"
        },
        {
          "internalType": "bytes32",
          "name": "arn",
          "type": "bytes32"
        },
        {
          "internalType": "uint256",
          "name": "amount",
          "type": "uint256"
        }
      ],
      "name": "notarizeDeposit",
      "outputs": [
        {
          "internalType": "uint256",
          "name": "",
          "type": "uint256"
        }
      ],
      "stateMutability": "nonpayable",
      "type": "function"
    },
    {
      "inputs": [
        {
          "internalType": "address",
          "name": "scribe",
          "type": "address"
        },
        {
          "internalType": "address",
          "name": "provider",
          "type": "address"
        },
        {
          "internalType": "bytes32",
          "name": "arn",
          "type": "bytes32"
        },
        {
          "internalType": "uint256",
          "name": "rootKeyId",
          "type": "uint256"
        },
        {
          "internalType": "uint256[]",
          "name": "keys",
          "type": "uint256[]"
        },
        {
          "internalType": "uint256[]",
          "name": "amounts",
          "type": "uint256[]"
        }
      ],
      "name": "notarizeDistribution",
      "outputs": [
        {
          "internalType": "uint256",
          "name": "",
          "type": "uint256"
        }
      ],
      "stateMutability": "nonpayable",
      "type": "function"
    },
    {
      "inputs": [
        {
          "internalType": "address",
          "name": "dispatcher",
          "type": "address"
        },
        {
          "internalType": "uint256",
          "name": "trustId",
          "type": "uint256"
        },
        {
          "internalType": "bytes32",
          "name": "eventHash",
          "type": "bytes32"
        },
        {
          "internalType": "bytes32",
          "name": "description",
          "type": "bytes32"
        }
      ],
      "name": "notarizeEventRegistration",
      "outputs": [],
      "stateMutability": "nonpayable",
      "type": "function"
    },
    {
      "inputs": [
        {
          "internalType": "address",
          "name": "provider",
          "type": "address"
        },
        {
          "internalType": "uint256",
          "name": "keyId",
          "type": "uint256"
        },
        {
          "internalType": "bytes32",
          "name": "arn",
          "type": "bytes32"
        },
        {
          "internalType": "uint256",
          "name": "amount",
          "type": "uint256"
        }
      ],
      "name": "notarizeWithdrawal",
      "outputs": [
        {
          "internalType": "uint256",
          "name": "",
          "type": "uint256"
        }
      ],
      "stateMutability": "nonpayable",
      "type": "function"
    },
    {
      "inputs": [],
      "name": "owner",
      "outputs": [
        {
          "internalType": "address",
          "name": "",
          "type": "address"
        }
      ],
      "stateMutability": "view",
      "type": "function"
    },
    {
      "inputs": [],
      "name": "proxiableUUID",
      "outputs": [
        {
          "internalType": "bytes32",
          "name": "",
          "type": "bytes32"
        }
      ],
      "stateMutability": "view",
      "type": "function"
    },
    {
      "inputs": [],
      "name": "renounceOwnership",
      "outputs": [],
      "stateMutability": "nonpayable",
      "type": "function"
    },
    {
      "inputs": [
        {
          "internalType": "uint256",
          "name": "rootKeyId",
          "type": "uint256"
        },
        {
          "internalType": "uint8",
          "name": "role",
          "type": "uint8"
        },
        {
          "internalType": "address",
          "name": "ledger",
          "type": "address"
        },
        {
          "internalType": "address",
          "name": "actor",
          "type": "address"
        },
        {
          "internalType": "bool",
          "name": "trustLevel",
          "type": "bool"
        },
        {
          "internalType": "bytes32",
          "name": "actorAlias",
          "type": "bytes32"
        }
      ],
      "name": "setTrustedLedgerRole",
      "outputs": [],
      "stateMutability": "nonpayable",
      "type": "function"
    },
    {
      "inputs": [
        {
          "internalType": "address",
          "name": "ledger",
          "type": "address"
        },
        {
          "internalType": "address",
          "name": "provider",
          "type": "address"
        },
        {
          "internalType": "uint256",
          "name": "keyId",
          "type": "uint256"
        },
        {
          "internalType": "bytes32",
          "name": "arn",
          "type": "bytes32"
        },
        {
          "internalType": "uint256",
          "name": "amount",
          "type": "uint256"
        }
      ],
      "name": "setWithdrawalAllowance",
      "outputs": [],
      "stateMutability": "nonpayable",
      "type": "function"
    },
    {
      "inputs": [
        {
          "internalType": "address",
          "name": "newOwner",
          "type": "address"
        }
      ],
      "name": "transferOwnership",
      "outputs": [],
      "stateMutability": "nonpayable",
      "type": "function"
    },
    {
      "inputs": [
        {
          "internalType": "address",
          "name": "newImplementation",
          "type": "address"
        }
      ],
      "name": "upgradeTo",
      "outputs": [],
      "stateMutability": "nonpayable",
      "type": "function"
    },
    {
      "inputs": [
        {
          "internalType": "address",
          "name": "newImplementation",
          "type": "address"
        },
        {
          "internalType": "bytes",
          "name": "data",
          "type": "bytes"
        }
      ],
      "name": "upgradeToAndCall",
      "outputs": [],
      "stateMutability": "payable",
      "type": "function"
    },
    {
      "inputs": [
        {
          "internalType": "address",
          "name": "",
          "type": "address"
        },
        {
          "internalType": "uint256",
          "name": "",
          "type": "uint256"
        },
        {
          "internalType": "address",
          "name": "",
          "type": "address"
        },
        {
          "internalType": "bytes32",
          "name": "",
          "type": "bytes32"
        }
      ],
      "name": "withdrawalAllowances",
      "outputs": [
        {
          "internalType": "uint256",
          "name": "",
          "type": "uint256"
        }
      ],
      "stateMutability": "view",
      "type": "function"
    }
  ],
  "bytecode": "0x60a06040523073ffffffffffffffffffffffffffffffffffffffff1660809073ffffffffffffffffffffffffffffffffffffffff168152503480156200004457600080fd5b506200006167aae28a6f6c84cc5460c01b620000af60201b60201c565b6200007d67ac21e892787348d960c01b620000af60201b60201c565b620000996711fc9b16bc65f10360c01b620000af60201b60201c565b620000a9620000b260201b60201c565b6200025d565b50565b600060019054906101000a900460ff161562000105576040517f08c379a0000000000000000000000000000000000000000000000000000000008152600401620000fc9062000200565b60405180910390fd5b60ff801660008054906101000a900460ff1660ff161015620001775760ff6000806101000a81548160ff021916908360ff1602179055507f7f26b83ff96e1f2b6a682f133852f6798a09c465da95921460cefb384740249860ff6040516200016e919062000240565b60405180910390a15b565b600082825260208201905092915050565b7f496e697469616c697a61626c653a20636f6e747261637420697320696e69746960008201527f616c697a696e6700000000000000000000000000000000000000000000000000602082015250565b6000620001e860278362000179565b9150620001f5826200018a565b604082019050919050565b600060208201905081810360008301526200021b81620001d9565b9050919050565b600060ff82169050919050565b6200023a8162000222565b82525050565b60006020820190506200025760008301846200022f565b92915050565b608051614a346200029560003960008181610564015281816105f201528181610f7f0152818161100d01526110bd0152614a346000f3fe60806040526004361061015f5760003560e01c80639115508a116100c0578063c4d66de811610074578063ca23b79d11610059578063ca23b79d1461046c578063f2fde38b14610497578063fc9cea05146104c05761015f565b8063c4d66de814610418578063c59ed349146104415761015f565b8063b985e1d7116100a5578063b985e1d714610387578063bb4ec12d146103b2578063bc231f2d146103ef5761015f565b80639115508a1461030d578063ac7532ae1461034a5761015f565b806352d1902d11610117578063715018a6116100fc578063715018a6146102a257806388dfcc52146102b95780638da5cb5b146102e25761015f565b806352d1902d1461023a578063625439fd146102655761015f565b80633659cfe6116101485780633659cfe6146101cc5780634bf1be06146101f55780634f1ef2861461021e5761015f565b8063085dce191461016457806313fb817e146101a1575b600080fd5b34801561017057600080fd5b5061018b60048036038101906101869190612efb565b6104fd565b6040516101989190612f7b565b60405180910390f35b3480156101ad57600080fd5b506101b661053c565b6040516101c39190612ff5565b60405180910390f35b3480156101d857600080fd5b506101f360048036038101906101ee9190613010565b610562565b005b34801561020157600080fd5b5061021c600480360381019061021791906130a1565b6106ea565b005b61023860048036038101906102339190613274565b610f7d565b005b34801561024657600080fd5b5061024f6110b9565b60405161025c9190612f7b565b60405180910390f35b34801561027157600080fd5b5061028c600480360381019061028791906132d0565b611172565b6040516102999190613346565b60405180910390f35b3480156102ae57600080fd5b506102b76111b1565b005b3480156102c557600080fd5b506102e060048036038101906102db9190613361565b6111c5565b005b3480156102ee57600080fd5b506102f76114a1565b60405161030491906133eb565b60405180910390f35b34801561031957600080fd5b50610334600480360381019061032f9190613406565b6114cb565b6040516103419190613517565b60405180910390f35b34801561035657600080fd5b50610371600480360381019061036c9190613599565b611581565b60405161037e9190613346565b60405180910390f35b34801561039357600080fd5b5061039c6118e4565b6040516103a99190613677565b60405180910390f35b3480156103be57600080fd5b506103d960048036038101906103d49190613692565b6118e9565b6040516103e69190613346565b60405180910390f35b3480156103fb57600080fd5b50610416600480360381019061041191906136f9565b6119d4565b005b34801561042457600080fd5b5061043f600480360381019061043a9190613010565b611b5b565b005b34801561044d57600080fd5b50610456611d83565b6040516104639190613677565b60405180910390f35b34801561047857600080fd5b50610481611d88565b60405161048e9190613677565b60405180910390f35b3480156104a357600080fd5b506104be60048036038101906104b99190613010565b611d8d565b005b3480156104cc57600080fd5b506104e760048036038101906104e29190613692565b611e10565b6040516104f49190613346565b60405180910390f35b60cc6020528360005260406000206020528260005260406000206020528160005260406000206020528060005260406000206000935093505050505481565b60c960009054906101000a900473ffffffffffffffffffffffffffffffffffffffff1681565b7f000000000000000000000000000000000000000000000000000000000000000073ffffffffffffffffffffffffffffffffffffffff163073ffffffffffffffffffffffffffffffffffffffff16036105f0576040517f08c379a00000000000000000000000000000000000000000000000000000000081526004016105e7906137e3565b60405180910390fd5b7f000000000000000000000000000000000000000000000000000000000000000073ffffffffffffffffffffffffffffffffffffffff1661062f612195565b73ffffffffffffffffffffffffffffffffffffffff1614610685576040517f08c379a000000000000000000000000000000000000000000000000000000000815260040161067c90613875565b60405180910390fd5b61068e816121ec565b6106e781600067ffffffffffffffff8111156106ad576106ac613149565b5b6040519080825280601f01601f1916602001820160405280156106df5781602001600182028036833780820191505090505b506000612233565b50565b6106fe6718c2080fe9ce9b3060c01b6123a1565b61071267ce5ef630a1b6cdb160c01b6123a1565b610726672ec15006e9051b6960c01b6123a1565b61073a674cf4661ee45fee5360c01b6123a1565b600060c960009054906101000a900473ffffffffffffffffffffffffffffffffffffffff1673ffffffffffffffffffffffffffffffffffffffff1663b83ac19f6040518163ffffffff1660e01b8152600401602060405180830381865afa1580156107a9573d6000803e3d6000fd5b505050506040513d601f19601f820116820180604052508101906107cd91906138aa565b73ffffffffffffffffffffffffffffffffffffffff16631eba59aa338960006040518463ffffffff1660e01b815260040161080a939291906138e6565b602060405180830381865afa158015610827573d6000803e3d6000fd5b505050506040513d601f19601f8201168201806040525081019061084b9190613932565b1161088b576040517f08c379a0000000000000000000000000000000000000000000000000000000008152600401610882906139ab565b60405180910390fd5b61089f677fc441dbdd7358c960c01b6123a1565b6108b3676a38af3a5f55dd8f60c01b6123a1565b6108c767a14c0ab7acc3b01560c01b6123a1565b6108db6799d808d5bd1f5d0460c01b6123a1565b60c960009054906101000a900473ffffffffffffffffffffffffffffffffffffffff1673ffffffffffffffffffffffffffffffffffffffff1663d2bd0fad876040518263ffffffff1660e01b81526004016109369190613346565b602060405180830381865afa158015610953573d6000803e3d6000fd5b505050506040513d601f19601f8201168201806040525081019061097791906139e0565b6109b6576040517f08c379a00000000000000000000000000000000000000000000000000000000081526004016109ad90613a59565b60405180910390fd5b6109ca674b66d6aa7d5c7a1160c01b6123a1565b6109de67e8cf4634043e175160c01b6123a1565b6109f26776d24a51499e6c0760c01b6123a1565b600060c960009054906101000a900473ffffffffffffffffffffffffffffffffffffffff1673ffffffffffffffffffffffffffffffffffffffff166388ecda52886040518263ffffffff1660e01b8152600401610a4f9190613346565b600060405180830381865afa158015610a6c573d6000803e3d6000fd5b505050506040513d6000823e3d601f19601f82011682018060405250810190610a959190613b51565b505092505050610aaf671201bdde9c7e445b60c01b6123a1565b610ac3672210acb07bbb1bcb60c01b6123a1565b8215610d4a57610add67052c031f3adefae960c01b6123a1565b610af16793f32b293c6678d860c01b6123a1565b610b0567ce870f244fc033d960c01b6123a1565b610b1967fdfec7545c06de6960c01b6123a1565b610b928460cb60008873ffffffffffffffffffffffffffffffffffffffff1673ffffffffffffffffffffffffffffffffffffffff168152602001908152602001600020600084815260200190815260200160002060008960ff1660ff1681526020019081526020016000206123a490919063ffffffff16565b15610bd2576040517f08c379a0000000000000000000000000000000000000000000000000000000008152600401610bc990613c34565b60405180910390fd5b610be667fc80a9fd2fdef30f60c01b6123a1565b610bfa672f010df20b01602760c01b6123a1565b610c0e672b75830b8ee4aa2260c01b6123a1565b610c878460cb60008873ffffffffffffffffffffffffffffffffffffffff1673ffffffffffffffffffffffffffffffffffffffff168152602001908152602001600020600084815260200190815260200160002060008960ff1660ff1681526020019081526020016000206123d490919063ffffffff16565b50610c9c6717563979caa4ec5460c01b6123a1565b8160cc60008773ffffffffffffffffffffffffffffffffffffffff1673ffffffffffffffffffffffffffffffffffffffff168152602001908152602001600020600083815260200190815260200160002060008860ff1660ff16815260200190815260200160002060008673ffffffffffffffffffffffffffffffffffffffff1673ffffffffffffffffffffffffffffffffffffffff16815260200190815260200160002081905550610f09565b610d5e6711e58dfcd35cfdf660c01b6123a1565b610d7267625ed06b29a2983d60c01b6123a1565b610d8667fab35f4b53479eef60c01b6123a1565b610d9a67c453474c90e1cfb260c01b6123a1565b610e138460cb60008873ffffffffffffffffffffffffffffffffffffffff1673ffffffffffffffffffffffffffffffffffffffff168152602001908152602001600020600084815260200190815260200160002060008960ff1660ff1681526020019081526020016000206123a490919063ffffffff16565b610e52576040517f08c379a0000000000000000000000000000000000000000000000000000000008152600401610e4990613ca0565b60405180910390fd5b610e6667e5b74cf8e052b57660c01b6123a1565b610e7a67722f7bc8ade3813860c01b6123a1565b610e8e67dad253fb9fa627bb60c01b6123a1565b610f078460cb60008873ffffffffffffffffffffffffffffffffffffffff1673ffffffffffffffffffffffffffffffffffffffff168152602001908152602001600020600084815260200190815260200160002060008960ff1660ff16815260200190815260200160002061240490919063ffffffff16565b505b610f1d67f74749a603fd000860c01b6123a1565b610f3167bfe9faee828d2b9260c01b6123a1565b7f3ac8843b3af474f69618166e30a7cf14743ad7c037dbdd12b6a639b051d8fd8c3382898888888c604051610f6c9796959493929190613cf1565b60405180910390a150505050505050565b7f000000000000000000000000000000000000000000000000000000000000000073ffffffffffffffffffffffffffffffffffffffff163073ffffffffffffffffffffffffffffffffffffffff160361100b576040517f08c379a0000000000000000000000000000000000000000000000000000000008152600401611002906137e3565b60405180910390fd5b7f000000000000000000000000000000000000000000000000000000000000000073ffffffffffffffffffffffffffffffffffffffff1661104a612195565b73ffffffffffffffffffffffffffffffffffffffff16146110a0576040517f08c379a000000000000000000000000000000000000000000000000000000000815260040161109790613875565b60405180910390fd5b6110a9826121ec565b6110b582826001612233565b5050565b60007f000000000000000000000000000000000000000000000000000000000000000073ffffffffffffffffffffffffffffffffffffffff163073ffffffffffffffffffffffffffffffffffffffff1614611149576040517f08c379a000000000000000000000000000000000000000000000000000000000815260040161114090613dd2565b60405180910390fd5b7f360894a13ba1a3210667c828492db98dca3e2076cc3735a920a3ca505d382bbc60001b905090565b60ca6020528360005260406000206020528260005260406000206020528160005260406000206020528060005260406000206000935093505050505481565b6111b9612434565b6111c360006124b2565b565b6111d967e1886b04418311df60c01b6123a1565b6111ed67443ed61786e09c5160c01b6123a1565b61120167ad838523f46c84a960c01b6123a1565b611215674b12972dce6b7df160c01b6123a1565b600060c960009054906101000a900473ffffffffffffffffffffffffffffffffffffffff1673ffffffffffffffffffffffffffffffffffffffff1663b83ac19f6040518163ffffffff1660e01b8152600401602060405180830381865afa158015611284573d6000803e3d6000fd5b505050506040513d601f19601f820116820180604052508101906112a891906138aa565b73ffffffffffffffffffffffffffffffffffffffff16631eba59aa338660006040518463ffffffff1660e01b81526004016112e5939291906138e6565b602060405180830381865afa158015611302573d6000803e3d6000fd5b505050506040513d601f19601f820116820180604052508101906113269190613932565b11611366576040517f08c379a000000000000000000000000000000000000000000000000000000000815260040161135d906139ab565b60405180910390fd5b61137a67cea574d984af397b60c01b6123a1565b61138e67640952244984b78b60c01b6123a1565b8060ca60008773ffffffffffffffffffffffffffffffffffffffff1673ffffffffffffffffffffffffffffffffffffffff168152602001908152602001600020600085815260200190815260200160002060008673ffffffffffffffffffffffffffffffffffffffff1673ffffffffffffffffffffffffffffffffffffffff1681526020019081526020016000206000848152602001908152602001600020819055506114456775083f7654f0552660c01b6123a1565b6114596745f9d7a6d5a04aac60c01b6123a1565b7f9d38ed61caea3e177c89897812b1495a28a4c5df5813d0692eb2a810b5af589a33848787868660405161149296959493929190613df2565b60405180910390a15050505050565b6000603360009054906101000a900473ffffffffffffffffffffffffffffffffffffffff16905090565b60606114e1674eda7fbe0a57c8db60c01b6123a1565b6114f567e80e88fe5fe5db5960c01b6123a1565b61150967bfbf29de0fc997bb60c01b6123a1565b61157860cb60008673ffffffffffffffffffffffffffffffffffffffff1673ffffffffffffffffffffffffffffffffffffffff168152602001908152602001600020600085815260200190815260200160002060008460ff1660ff168152602001908152602001600020612578565b90509392505050565b600061159767a33068cf23d1e1fc60c01b6123a1565b6115ab67eff3798c40ff9e7760c01b6123a1565b6115bf674e49f271b16d371760c01b6123a1565b60006115cd878b6001612599565b90506115e367ee675fc2c4918b7f60c01b6123a1565b6115f767480a15bc70a6540f60c01b6123a1565b61160b676835f90a8c28f8a860c01b6123a1565b6116848960cb60003373ffffffffffffffffffffffffffffffffffffffff1673ffffffffffffffffffffffffffffffffffffffff168152602001908152602001600020600084815260200190815260200160002060008060ff1660ff1681526020019081526020016000206123a490919063ffffffff16565b6116c3576040517f08c379a00000000000000000000000000000000000000000000000000000000081526004016116ba90613e9f565b60405180910390fd5b6116d767dcf1090db248aab960c01b6123a1565b6116eb670959e202ed27ece860c01b6123a1565b6116ff6795ea809108578d8b60c01b6123a1565b611713679822b948cb4aa0db60c01b6123a1565b83839050868690501461175b576040517f08c379a000000000000000000000000000000000000000000000000000000000815260040161175290613f0b565b60405180910390fd5b61176f677fdd63977792cd7160c01b6123a1565b6117836796d3c291099e672860c01b6123a1565b61179767cf4dd4b55d0289d060c01b6123a1565b60c960009054906101000a900473ffffffffffffffffffffffffffffffffffffffff1673ffffffffffffffffffffffffffffffffffffffff166353a81ee182888860006040518563ffffffff1660e01b81526004016117f99493929190613fa6565b602060405180830381865afa158015611816573d6000803e3d6000fd5b505050506040513d601f19601f8201168201806040525081019061183a91906139e0565b5061184f67dadf5db5037c2c6460c01b6123a1565b61186367b232efdbecc7f06060c01b6123a1565b7f875b64647c8f0311415910db63af5002dc849943757316ecba890efdd848e6b2338a8c8b858c8c8c8c8c6040516118a49a99989796959493929190613fe6565b60405180910390a16118c067836e69ed569aeac360c01b6123a1565b6118d467ef377a03feb566bf60c01b6123a1565b8091505098975050505050505050565b600281565b60006118ff678d28d19a0157391460c01b6123a1565b6119136717abb36afeb692fc60c01b6123a1565b611927672d178cc15445485b60c01b6123a1565b600061193585876000612599565b905061194b674c080a9597054f8a60c01b6123a1565b61195f6788028af5f7e8598b60c01b6123a1565b7f2b199641dbed40d94f0ff44b2f2f233176b1ec8d255e7a26a8c7b36610311c6b33878388888860405161199896959493929190614076565b60405180910390a16119b4677c83985f0920e3a460c01b6123a1565b6119c8679b5f0a21e546cd0160c01b6123a1565b80915050949350505050565b6119e8672a664ae6bd1f765d60c01b6123a1565b6119fc674943beee47a1399160c01b6123a1565b611a10672c64c09c1b74dbbb60c01b6123a1565b611a2467a1dd4222154b7d8660c01b6123a1565b611a9e8460cb60003373ffffffffffffffffffffffffffffffffffffffff1673ffffffffffffffffffffffffffffffffffffffff16815260200190815260200160002060008681526020019081526020016000206000600260ff1660ff1681526020019081526020016000206123a490919063ffffffff16565b611add576040517f08c379a0000000000000000000000000000000000000000000000000000000008152600401611ad490614123565b60405180910390fd5b611af066f13e2bde5e118560c01b6123a1565b611b04674ab170e4c35a367560c01b6123a1565b611b1867f34400ac7b6b0a3460c01b6123a1565b7f5b67a0e8c387eb447cf708cdfabf7e8ea37dcd585e67ccf921f83d1cbedde34284848484604051611b4d9493929190614143565b60405180910390a150505050565b611b6f6762e1a632832e632960c01b6123a1565b60008060019054906101000a900460ff16159050808015611ba05750600160008054906101000a900460ff1660ff16105b80611bcd5750611baf3061284e565b158015611bcc5750600160008054906101000a900460ff1660ff16145b5b611c0c576040517f08c379a0000000000000000000000000000000000000000000000000000000008152600401611c03906141fa565b60405180910390fd5b60016000806101000a81548160ff021916908360ff1602179055508015611c49576001600060016101000a81548160ff0219169083151502179055505b611c5d6726ef5d880bac0b5460c01b6123a1565b611c716756e96bf07d1ff83060c01b6123a1565b611c8567056ddaa91d20200d60c01b6123a1565b611c9967844d6f724c4717cc60c01b6123a1565b611ca1612871565b611cb567470c4f0e7f58fb6f60c01b6123a1565b611cc967850639fa8bc4e71460c01b6123a1565b611cd16128ca565b611ce5671f5671852616370960c01b6123a1565b8160c960006101000a81548173ffffffffffffffffffffffffffffffffffffffff021916908373ffffffffffffffffffffffffffffffffffffffff1602179055508015611d7f5760008060016101000a81548160ff0219169083151502179055507f7f26b83ff96e1f2b6a682f133852f6798a09c465da95921460cefb38474024986001604051611d769190614255565b60405180910390a15b5050565b600181565b600081565b611d95612434565b600073ffffffffffffffffffffffffffffffffffffffff168173ffffffffffffffffffffffffffffffffffffffff1603611e04576040517f08c379a0000000000000000000000000000000000000000000000000000000008152600401611dfb906142e2565b60405180910390fd5b611e0d816124b2565b50565b6000611e26675c2c78e40c5612f060c01b6123a1565b611e3a6713e70d0d1af87eee60c01b6123a1565b611e4e67c8775ed57a3baa0060c01b6123a1565b6000611e5c85876000612599565b9050611e7267e96b1d34df6369d660c01b6123a1565b611e86676fa0d024833c2b2160c01b6123a1565b611e9a67a3901cdbfd48170060c01b6123a1565b8260ca60003373ffffffffffffffffffffffffffffffffffffffff1673ffffffffffffffffffffffffffffffffffffffff168152602001908152602001600020600087815260200190815260200160002060008873ffffffffffffffffffffffffffffffffffffffff1673ffffffffffffffffffffffffffffffffffffffff1681526020019081526020016000206000868152602001908152602001600020541015611f7b576040517f08c379a0000000000000000000000000000000000000000000000000000000008152600401611f729061434e565b60405180910390fd5b611f8f671e20a0dd15490caf60c01b6123a1565b611fa36762b76682549b6d0d60c01b6123a1565b8260ca60003373ffffffffffffffffffffffffffffffffffffffff1673ffffffffffffffffffffffffffffffffffffffff168152602001908152602001600020600087815260200190815260200160002060008873ffffffffffffffffffffffffffffffffffffffff1673ffffffffffffffffffffffffffffffffffffffff16815260200190815260200160002060008681526020019081526020016000206000828254612051919061439d565b9250508190555061206c67ba495a25544f793660c01b6123a1565b6120806776ff5b0ee8e5766e60c01b6123a1565b7f2dd238422b2fd3efa934cfe8b093a00a762966e525bdb6caffd34bde7fd60f0933878388888860ca60003373ffffffffffffffffffffffffffffffffffffffff1673ffffffffffffffffffffffffffffffffffffffff16815260200190815260200160002060008d815260200190815260200160002060008e73ffffffffffffffffffffffffffffffffffffffff1673ffffffffffffffffffffffffffffffffffffffff16815260200190815260200160002060008c81526020019081526020016000205460405161215997969594939291906143d1565b60405180910390a16121756794ac15b8715a936660c01b6123a1565b612189673d27a78269edac2260c01b6123a1565b80915050949350505050565b60006121c37f360894a13ba1a3210667c828492db98dca3e2076cc3735a920a3ca505d382bbc60001b61291b565b60000160009054906101000a900473ffffffffffffffffffffffffffffffffffffffff16905090565b6122006771b83c2f33442d9260c01b6123a1565b612208612434565b61221c6772c0d8789a2cd71660c01b6123a1565b61223067c9f065fc9648ecc660c01b6123a1565b50565b61225f7f4910fdfa16fed3260ed0e7147f7cc6da11a60208b5b9406d12a635614ffd914360001b612925565b60000160009054906101000a900460ff16156122835761227e8361292f565b61239c565b8273ffffffffffffffffffffffffffffffffffffffff166352d1902d6040518163ffffffff1660e01b8152600401602060405180830381865afa9250505080156122eb57506040513d601f19601f820116820180604052508101906122e89190614440565b60015b61232a576040517f08c379a0000000000000000000000000000000000000000000000000000000008152600401612321906144df565b60405180910390fd5b7f360894a13ba1a3210667c828492db98dca3e2076cc3735a920a3ca505d382bbc60001b811461238f576040517f08c379a000000000000000000000000000000000000000000000000000000000815260040161238690614571565b60405180910390fd5b5061239b8383836129e8565b5b505050565b50565b60006123cc836000018373ffffffffffffffffffffffffffffffffffffffff1660001b612a14565b905092915050565b60006123fc836000018373ffffffffffffffffffffffffffffffffffffffff1660001b612a37565b905092915050565b600061242c836000018373ffffffffffffffffffffffffffffffffffffffff1660001b612aa7565b905092915050565b61243c612bbb565b73ffffffffffffffffffffffffffffffffffffffff1661245a6114a1565b73ffffffffffffffffffffffffffffffffffffffff16146124b0576040517f08c379a00000000000000000000000000000000000000000000000000000000081526004016124a7906145dd565b60405180910390fd5b565b6000603360009054906101000a900473ffffffffffffffffffffffffffffffffffffffff16905081603360006101000a81548173ffffffffffffffffffffffffffffffffffffffff021916908373ffffffffffffffffffffffffffffffffffffffff1602179055508173ffffffffffffffffffffffffffffffffffffffff168173ffffffffffffffffffffffffffffffffffffffff167f8be0079c531659141344cd1fd0a4f28419497f9722a3daafe3b4186f6b6457e060405160405180910390a35050565b6060600061258883600001612bc3565b905060608190508092505050919050565b60006125af6706dc483c8b6c576f60c01b6123a1565b6125c3676694b0d28573958160c01b6123a1565b6125d7670f34b9310a79028f60c01b6123a1565b60008060c960009054906101000a900473ffffffffffffffffffffffffffffffffffffffff1673ffffffffffffffffffffffffffffffffffffffff166388ecda52876040518263ffffffff1660e01b81526004016126359190613346565b600060405180830381865afa158015612652573d6000803e3d6000fd5b505050506040513d6000823e3d601f19601f8201168201806040525081019061267b9190613b51565b505092505091506126966736ccee1262bc6ea960c01b6123a1565b6126aa676c4188d6aa70aaa060c01b6123a1565b6126be67ab0c44b596de3f9e60c01b6123a1565b816126fe576040517f08c379a00000000000000000000000000000000000000000000000000000000081526004016126f590614649565b60405180910390fd5b61271267d13f0b320a2c0ed960c01b6123a1565b61272667e20d2cc1627bfcf860c01b6123a1565b61273a67e60445039a20606b60c01b6123a1565b61274e6781f83fc2dd19bdfe60c01b6123a1565b6127c78560cb60003373ffffffffffffffffffffffffffffffffffffffff1673ffffffffffffffffffffffffffffffffffffffff168152602001908152602001600020600084815260200190815260200160002060008760ff1660ff1681526020019081526020016000206123a490919063ffffffff16565b612806576040517f08c379a00000000000000000000000000000000000000000000000000000000081526004016127fd906146b5565b60405180910390fd5b61281a67bdb215e07709105060c01b6123a1565b61282e67c43de59293067e1160c01b6123a1565b612842672d06f906b4499f4c60c01b6123a1565b80925050509392505050565b6000808273ffffffffffffffffffffffffffffffffffffffff163b119050919050565b600060019054906101000a900460ff166128c0576040517f08c379a00000000000000000000000000000000000000000000000000000000081526004016128b790614747565b60405180910390fd5b6128c8612c1f565b565b600060019054906101000a900460ff16612919576040517f08c379a000000000000000000000000000000000000000000000000000000000815260040161291090614747565b60405180910390fd5b565b6000819050919050565b6000819050919050565b6129388161284e565b612977576040517f08c379a000000000000000000000000000000000000000000000000000000000815260040161296e906147d9565b60405180910390fd5b806129a47f360894a13ba1a3210667c828492db98dca3e2076cc3735a920a3ca505d382bbc60001b61291b565b60000160006101000a81548173ffffffffffffffffffffffffffffffffffffffff021916908373ffffffffffffffffffffffffffffffffffffffff16021790555050565b6129f183612c80565b6000825111806129fe5750805b15612a0f57612a0d8383612ccf565b505b505050565b600080836001016000848152602001908152602001600020541415905092915050565b6000612a438383612a14565b612a9c578260000182908060018154018082558091505060019003906000526020600020016000909190919091505582600001805490508360010160008481526020019081526020016000208190555060019050612aa1565b600090505b92915050565b60008083600101600084815260200190815260200160002054905060008114612baf576000600182612ad9919061439d565b9050600060018660000180549050612af1919061439d565b9050818114612b60576000866000018281548110612b1257612b116147f9565b5b9060005260206000200154905080876000018481548110612b3657612b356147f9565b5b90600052602060002001819055508387600101600083815260200190815260200160002081905550505b85600001805480612b7457612b73614828565b5b600190038181906000526020600020016000905590558560010160008681526020019081526020016000206000905560019350505050612bb5565b60009150505b92915050565b600033905090565b606081600001805480602002602001604051908101604052809291908181526020018280548015612c1357602002820191906000526020600020905b815481526020019060010190808311612bff575b50505050509050919050565b600060019054906101000a900460ff16612c6e576040517f08c379a0000000000000000000000000000000000000000000000000000000008152600401612c6590614747565b60405180910390fd5b612c7e612c79612bbb565b6124b2565b565b612c898161292f565b8073ffffffffffffffffffffffffffffffffffffffff167fbc7cd75a20ee27fd9adebab32041f755214dbc6bffa90cc0225b39da2e5c2d3b60405160405180910390a250565b6060612cda8361284e565b612d19576040517f08c379a0000000000000000000000000000000000000000000000000000000008152600401612d10906148c9565b60405180910390fd5b6000808473ffffffffffffffffffffffffffffffffffffffff1684604051612d41919061495a565b600060405180830381855af49150503d8060008114612d7c576040519150601f19603f3d011682016040523d82523d6000602084013e612d81565b606091505b5091509150612da982826040518060600160405280602781526020016149d860279139612db3565b9250505092915050565b60608315612dc357829050612e13565b600083511115612dd65782518084602001fd5b816040517f08c379a0000000000000000000000000000000000000000000000000000000008152600401612e0a91906149b5565b60405180910390fd5b9392505050565b6000604051905090565b600080fd5b600080fd5b600073ffffffffffffffffffffffffffffffffffffffff82169050919050565b6000612e5982612e2e565b9050919050565b612e6981612e4e565b8114612e7457600080fd5b50565b600081359050612e8681612e60565b92915050565b6000819050919050565b612e9f81612e8c565b8114612eaa57600080fd5b50565b600081359050612ebc81612e96565b92915050565b600060ff82169050919050565b612ed881612ec2565b8114612ee357600080fd5b50565b600081359050612ef581612ecf565b92915050565b60008060008060808587031215612f1557612f14612e24565b5b6000612f2387828801612e77565b9450506020612f3487828801612ead565b9350506040612f4587828801612ee6565b9250506060612f5687828801612e77565b91505092959194509250565b6000819050919050565b612f7581612f62565b82525050565b6000602082019050612f906000830184612f6c565b92915050565b6000819050919050565b6000612fbb612fb6612fb184612e2e565b612f96565b612e2e565b9050919050565b6000612fcd82612fa0565b9050919050565b6000612fdf82612fc2565b9050919050565b612fef81612fd4565b82525050565b600060208201905061300a6000830184612fe6565b92915050565b60006020828403121561302657613025612e24565b5b600061303484828501612e77565b91505092915050565b60008115159050919050565b6130528161303d565b811461305d57600080fd5b50565b60008135905061306f81613049565b92915050565b61307e81612f62565b811461308957600080fd5b50565b60008135905061309b81613075565b92915050565b60008060008060008060c087890312156130be576130bd612e24565b5b60006130cc89828a01612ead565b96505060206130dd89828a01612ee6565b95505060406130ee89828a01612e77565b94505060606130ff89828a01612e77565b935050608061311089828a01613060565b92505060a061312189828a0161308c565b9150509295509295509295565b600080fd5b600080fd5b6000601f19601f8301169050919050565b7f4e487b7100000000000000000000000000000000000000000000000000000000600052604160045260246000fd5b61318182613138565b810181811067ffffffffffffffff821117156131a05761319f613149565b5b80604052505050565b60006131b3612e1a565b90506131bf8282613178565b919050565b600067ffffffffffffffff8211156131df576131de613149565b5b6131e882613138565b9050602081019050919050565b82818337600083830152505050565b6000613217613212846131c4565b6131a9565b90508281526020810184848401111561323357613232613133565b5b61323e8482856131f5565b509392505050565b600082601f83011261325b5761325a61312e565b5b813561326b848260208601613204565b91505092915050565b6000806040838503121561328b5761328a612e24565b5b600061329985828601612e77565b925050602083013567ffffffffffffffff8111156132ba576132b9612e29565b5b6132c685828601613246565b9150509250929050565b600080600080608085870312156132ea576132e9612e24565b5b60006132f887828801612e77565b945050602061330987828801612ead565b935050604061331a87828801612e77565b925050606061332b8782880161308c565b91505092959194509250565b61334081612e8c565b82525050565b600060208201905061335b6000830184613337565b92915050565b600080600080600060a0868803121561337d5761337c612e24565b5b600061338b88828901612e77565b955050602061339c88828901612e77565b94505060406133ad88828901612ead565b93505060606133be8882890161308c565b92505060806133cf88828901612ead565b9150509295509295909350565b6133e581612e4e565b82525050565b600060208201905061340060008301846133dc565b92915050565b60008060006060848603121561341f5761341e612e24565b5b600061342d86828701612e77565b935050602061343e86828701612ead565b925050604061344f86828701612ee6565b9150509250925092565b600081519050919050565b600082825260208201905092915050565b6000819050602082019050919050565b61348e81612e4e565b82525050565b60006134a08383613485565b60208301905092915050565b6000602082019050919050565b60006134c482613459565b6134ce8185613464565b93506134d983613475565b8060005b8381101561350a5781516134f18882613494565b97506134fc836134ac565b9250506001810190506134dd565b5085935050505092915050565b6000602082019050818103600083015261353181846134b9565b905092915050565b600080fd5b600080fd5b60008083601f8401126135595761355861312e565b5b8235905067ffffffffffffffff81111561357657613575613539565b5b6020830191508360208202830111156135925761359161353e565b5b9250929050565b60008060008060008060008060c0898b0312156135b9576135b8612e24565b5b60006135c78b828c01612e77565b98505060206135d88b828c01612e77565b97505060406135e98b828c0161308c565b96505060606135fa8b828c01612ead565b955050608089013567ffffffffffffffff81111561361b5761361a612e29565b5b6136278b828c01613543565b945094505060a089013567ffffffffffffffff81111561364a57613649612e29565b5b6136568b828c01613543565b92509250509295985092959890939650565b61367181612ec2565b82525050565b600060208201905061368c6000830184613668565b92915050565b600080600080608085870312156136ac576136ab612e24565b5b60006136ba87828801612e77565b94505060206136cb87828801612ead565b93505060406136dc8782880161308c565b92505060606136ed87828801612ead565b91505092959194509250565b6000806000806080858703121561371357613712612e24565b5b600061372187828801612e77565b945050602061373287828801612ead565b93505060406137438782880161308c565b92505060606137548782880161308c565b91505092959194509250565b600082825260208201905092915050565b7f46756e6374696f6e206d7573742062652063616c6c6564207468726f7567682060008201527f64656c656761746563616c6c0000000000000000000000000000000000000000602082015250565b60006137cd602c83613760565b91506137d882613771565b604082019050919050565b600060208201905081810360008301526137fc816137c0565b9050919050565b7f46756e6374696f6e206d7573742062652063616c6c6564207468726f7567682060008201527f6163746976652070726f78790000000000000000000000000000000000000000602082015250565b600061385f602c83613760565b915061386a82613803565b604082019050919050565b6000602082019050818103600083015261388e81613852565b9050919050565b6000815190506138a481612e60565b92915050565b6000602082840312156138c0576138bf612e24565b5b60006138ce84828501613895565b91505092915050565b6138e08161303d565b82525050565b60006060820190506138fb60008301866133dc565b6139086020830185613337565b61391560408301846138d7565b949350505050565b60008151905061392c81612e96565b92915050565b60006020828403121561394857613947612e24565b5b60006139568482850161391d565b91505092915050565b7f4b45595f4e4f545f48454c440000000000000000000000000000000000000000600082015250565b6000613995600c83613760565b91506139a08261395f565b602082019050919050565b600060208201905081810360008301526139c481613988565b9050919050565b6000815190506139da81613049565b92915050565b6000602082840312156139f6576139f5612e24565b5b6000613a04848285016139cb565b91505092915050565b7f4b45595f4e4f545f524f4f540000000000000000000000000000000000000000600082015250565b6000613a43600c83613760565b9150613a4e82613a0d565b602082019050919050565b60006020820190508181036000830152613a7281613a36565b9050919050565b600081519050613a8881613075565b92915050565b600067ffffffffffffffff821115613aa957613aa8613149565b5b602082029050602081019050919050565b6000613acd613ac884613a8e565b6131a9565b90508083825260208201905060208402830185811115613af057613aef61353e565b5b835b81811015613b195780613b05888261391d565b845260208401935050602081019050613af2565b5050509392505050565b600082601f830112613b3857613b3761312e565b5b8151613b48848260208601613aba565b91505092915050565b600080600080600060a08688031215613b6d57613b6c612e24565b5b6000613b7b888289016139cb565b9550506020613b8c88828901613a79565b9450506040613b9d8882890161391d565b9350506060613bae888289016139cb565b925050608086015167ffffffffffffffff811115613bcf57613bce612e29565b5b613bdb88828901613b23565b9150509295509295909350565b7f524544554e44414e545f50524f564953494f4e00000000000000000000000000600082015250565b6000613c1e601383613760565b9150613c2982613be8565b602082019050919050565b60006020820190508181036000830152613c4d81613c11565b9050919050565b7f4e4f545f43555252454e545f4143544f52000000000000000000000000000000600082015250565b6000613c8a601183613760565b9150613c9582613c54565b602082019050919050565b60006020820190508181036000830152613cb981613c7d565b9050919050565b6000613cdb613cd6613cd184612ec2565b612f96565b612e8c565b9050919050565b613ceb81613cc0565b82525050565b600060e082019050613d06600083018a6133dc565b613d136020830189613337565b613d206040830188613337565b613d2d60608301876133dc565b613d3a60808301866133dc565b613d4760a08301856138d7565b613d5460c0830184613ce2565b98975050505050505050565b7f555550535570677261646561626c653a206d757374206e6f742062652063616c60008201527f6c6564207468726f7567682064656c656761746563616c6c0000000000000000602082015250565b6000613dbc603883613760565b9150613dc782613d60565b604082019050919050565b60006020820190508181036000830152613deb81613daf565b9050919050565b600060c082019050613e0760008301896133dc565b613e146020830188613337565b613e2160408301876133dc565b613e2e60608301866133dc565b613e3b6080830185612f6c565b613e4860a0830184613337565b979650505050505050565b7f554e545255535445445f50524f56494445520000000000000000000000000000600082015250565b6000613e89601283613760565b9150613e9482613e53565b602082019050919050565b60006020820190508181036000830152613eb881613e7c565b9050919050565b7f4b45595f414d4f554e545f53495a455f4d49534d415443480000000000000000600082015250565b6000613ef5601883613760565b9150613f0082613ebf565b602082019050919050565b60006020820190508181036000830152613f2481613ee8565b9050919050565b600082825260208201905092915050565b600080fd5b82818337505050565b6000613f568385613f2b565b93507f07ffffffffffffffffffffffffffffffffffffffffffffffffffffffffffffff831115613f8957613f88613f3c565b5b602083029250613f9a838584613f41565b82840190509392505050565b6000606082019050613fbb6000830187613337565b8181036020830152613fce818587613f4a565b9050613fdd60408301846138d7565b95945050505050565b600061010082019050613ffc600083018d6133dc565b614009602083018c6133dc565b614016604083018b6133dc565b614023606083018a612f6c565b6140306080830189613337565b61403d60a0830188613337565b81810360c0830152614050818688613f4a565b905081810360e0830152614065818486613f4a565b90509b9a5050505050505050505050565b600060c08201905061408b60008301896133dc565b61409860208301886133dc565b6140a56040830187613337565b6140b26060830186613337565b6140bf6080830185612f6c565b6140cc60a0830184613337565b979650505050505050565b7f554e545255535445445f44495350415443484552000000000000000000000000600082015250565b600061410d601483613760565b9150614118826140d7565b602082019050919050565b6000602082019050818103600083015261413c81614100565b9050919050565b600060808201905061415860008301876133dc565b6141656020830186613337565b6141726040830185612f6c565b61417f6060830184612f6c565b95945050505050565b7f496e697469616c697a61626c653a20636f6e747261637420697320616c72656160008201527f647920696e697469616c697a6564000000000000000000000000000000000000602082015250565b60006141e4602e83613760565b91506141ef82614188565b604082019050919050565b60006020820190508181036000830152614213816141d7565b9050919050565b6000819050919050565b600061423f61423a6142358461421a565b612f96565b612ec2565b9050919050565b61424f81614224565b82525050565b600060208201905061426a6000830184614246565b92915050565b7f4f776e61626c653a206e6577206f776e657220697320746865207a65726f206160008201527f6464726573730000000000000000000000000000000000000000000000000000602082015250565b60006142cc602683613760565b91506142d782614270565b604082019050919050565b600060208201905081810360008301526142fb816142bf565b9050919050565b7f554e415050524f5645445f414d4f554e54000000000000000000000000000000600082015250565b6000614338601183613760565b915061434382614302565b602082019050919050565b600060208201905081810360008301526143678161432b565b9050919050565b7f4e487b7100000000000000000000000000000000000000000000000000000000600052601160045260246000fd5b60006143a882612e8c565b91506143b383612e8c565b92508282039050818111156143cb576143ca61436e565b5b92915050565b600060e0820190506143e6600083018a6133dc565b6143f360208301896133dc565b6144006040830188613337565b61440d6060830187613337565b61441a6080830186612f6c565b61442760a0830185613337565b61443460c0830184613337565b98975050505050505050565b60006020828403121561445657614455612e24565b5b600061446484828501613a79565b91505092915050565b7f45524331393637557067726164653a206e657720696d706c656d656e7461746960008201527f6f6e206973206e6f742055555053000000000000000000000000000000000000602082015250565b60006144c9602e83613760565b91506144d48261446d565b604082019050919050565b600060208201905081810360008301526144f8816144bc565b9050919050565b7f45524331393637557067726164653a20756e737570706f727465642070726f7860008201527f6961626c65555549440000000000000000000000000000000000000000000000602082015250565b600061455b602983613760565b9150614566826144ff565b604082019050919050565b6000602082019050818103600083015261458a8161454e565b9050919050565b7f4f776e61626c653a2063616c6c6572206973206e6f7420746865206f776e6572600082015250565b60006145c7602083613760565b91506145d282614591565b602082019050919050565b600060208201905081810360008301526145f6816145ba565b9050919050565b7f494e56414c49445f4b4559000000000000000000000000000000000000000000600082015250565b6000614633600b83613760565b915061463e826145fd565b602082019050919050565b6000602082019050818103600083015261466281614626565b9050919050565b7f554e545255535445445f4143544f520000000000000000000000000000000000600082015250565b600061469f600f83613760565b91506146aa82614669565b602082019050919050565b600060208201905081810360008301526146ce81614692565b9050919050565b7f496e697469616c697a61626c653a20636f6e7472616374206973206e6f74206960008201527f6e697469616c697a696e67000000000000000000000000000000000000000000602082015250565b6000614731602b83613760565b915061473c826146d5565b604082019050919050565b6000602082019050818103600083015261476081614724565b9050919050565b7f455243313936373a206e657720696d706c656d656e746174696f6e206973206e60008201527f6f74206120636f6e747261637400000000000000000000000000000000000000602082015250565b60006147c3602d83613760565b91506147ce82614767565b604082019050919050565b600060208201905081810360008301526147f2816147b6565b9050919050565b7f4e487b7100000000000000000000000000000000000000000000000000000000600052603260045260246000fd5b7f4e487b7100000000000000000000000000000000000000000000000000000000600052603160045260246000fd5b7f416464726573733a2064656c65676174652063616c6c20746f206e6f6e2d636f60008201527f6e74726163740000000000000000000000000000000000000000000000000000602082015250565b60006148b3602683613760565b91506148be82614857565b604082019050919050565b600060208201905081810360008301526148e2816148a6565b9050919050565b600081519050919050565b600081905092915050565b60005b8381101561491d578082015181840152602081019050614902565b60008484015250505050565b6000614934826148e9565b61493e81856148f4565b935061494e8185602086016148ff565b80840191505092915050565b60006149668284614929565b915081905092915050565b600081519050919050565b600061498782614971565b6149918185613760565b93506149a18185602086016148ff565b6149aa81613138565b840191505092915050565b600060208201905081810360008301526149cf818461497c565b90509291505056fe416464726573733a206c6f772d6c6576656c2064656c65676174652063616c6c206661696c6564a264697066735822122077e666469a88591b88be7dcdb40acad9b8b82cbe05ba96e8fa804e35f4d44b4064736f6c63430008100033",
  "linkReferences": {},
  "deployedLinkReferences": {}
}