{
  "_format": "hh-sol-artifact-1",
  "contractName": "Ledger",
  "sourceName": "contracts/Ledger.sol",
  "abi": [
    {
      "inputs": [],
      "stateMutability": "nonpayable",
      "type": "constructor"
    },
    {
      "anonymous": false,
      "inputs": [
        {
          "indexed": false,
          "internalType": "address",
          "name": "previousAdmin",
          "type": "address"
        },
        {
          "indexed": false,
          "internalType": "address",
          "name": "newAdmin",
          "type": "address"
        }
      ],
      "name": "AdminChanged",
      "type": "event"
    },
    {
      "anonymous": false,
      "inputs": [
        {
          "indexed": true,
          "internalType": "address",
          "name": "beacon",
          "type": "address"
        }
      ],
      "name": "BeaconUpgraded",
      "type": "event"
    },
    {
      "anonymous": false,
      "inputs": [
        {
          "indexed": false,
          "internalType": "uint8",
          "name": "version",
          "type": "uint8"
        }
      ],
      "name": "Initialized",
      "type": "event"
    },
    {
      "anonymous": false,
      "inputs": [
        {
          "indexed": true,
          "internalType": "address",
          "name": "previousOwner",
          "type": "address"
        },
        {
          "indexed": true,
          "internalType": "address",
          "name": "newOwner",
          "type": "address"
        }
      ],
      "name": "OwnershipTransferred",
      "type": "event"
    },
    {
      "anonymous": false,
      "inputs": [
        {
          "indexed": true,
          "internalType": "address",
          "name": "implementation",
          "type": "address"
        }
      ],
      "name": "Upgraded",
      "type": "event"
    },
    {
      "anonymous": false,
      "inputs": [
        {
          "indexed": false,
          "internalType": "address",
          "name": "provider",
          "type": "address"
        },
        {
          "indexed": false,
          "internalType": "uint256",
          "name": "trustId",
          "type": "uint256"
        },
        {
          "indexed": false,
          "internalType": "uint256",
          "name": "keyId",
          "type": "uint256"
        },
        {
          "indexed": false,
          "internalType": "bytes32",
          "name": "arn",
          "type": "bytes32"
        },
        {
          "indexed": false,
          "internalType": "uint256",
          "name": "amount",
          "type": "uint256"
        },
        {
          "indexed": false,
          "internalType": "uint256",
          "name": "keyBalance",
          "type": "uint256"
        },
        {
          "indexed": false,
          "internalType": "uint256",
          "name": "trustBalance",
          "type": "uint256"
        },
        {
          "indexed": false,
          "internalType": "uint256",
          "name": "ledgerBalance",
          "type": "uint256"
        }
      ],
      "name": "depositOccurred",
      "type": "event"
    },
    {
      "anonymous": false,
      "inputs": [
        {
          "indexed": false,
          "internalType": "address",
          "name": "scribe",
          "type": "address"
        },
        {
          "indexed": false,
          "internalType": "address",
          "name": "provider",
          "type": "address"
        },
        {
          "indexed": false,
          "internalType": "bytes32",
          "name": "arn",
          "type": "bytes32"
        },
        {
          "indexed": false,
          "internalType": "uint256",
          "name": "trustId",
          "type": "uint256"
        },
        {
          "indexed": false,
          "internalType": "uint256",
          "name": "rootKeyId",
          "type": "uint256"
        },
        {
          "indexed": false,
          "internalType": "uint256[]",
          "name": "keys",
          "type": "uint256[]"
        },
        {
          "indexed": false,
          "internalType": "uint256[]",
          "name": "amounts",
          "type": "uint256[]"
        },
        {
          "indexed": false,
          "internalType": "uint256",
          "name": "finalRootBalance",
          "type": "uint256"
        }
      ],
      "name": "ledgerTransferOccurred",
      "type": "event"
    },
    {
      "anonymous": false,
      "inputs": [
        {
          "indexed": false,
          "internalType": "address",
          "name": "provider",
          "type": "address"
        },
        {
          "indexed": false,
          "internalType": "uint256",
          "name": "trustId",
          "type": "uint256"
        },
        {
          "indexed": false,
          "internalType": "uint256",
          "name": "keyId",
          "type": "uint256"
        },
        {
          "indexed": false,
          "internalType": "bytes32",
          "name": "arn",
          "type": "bytes32"
        },
        {
          "indexed": false,
          "internalType": "uint256",
          "name": "amount",
          "type": "uint256"
        },
        {
          "indexed": false,
          "internalType": "uint256",
          "name": "keyBalance",
          "type": "uint256"
        },
        {
          "indexed": false,
          "internalType": "uint256",
          "name": "trustBalance",
          "type": "uint256"
        },
        {
          "indexed": false,
          "internalType": "uint256",
          "name": "ledgerBalance",
          "type": "uint256"
        }
      ],
      "name": "withdrawalOccurred",
      "type": "event"
    },
    {
      "inputs": [],
      "name": "KEY_CONTEXT_ID",
      "outputs": [
        {
          "internalType": "uint256",
          "name": "",
          "type": "uint256"
        }
      ],
      "stateMutability": "view",
      "type": "function"
    },
    {
      "inputs": [],
      "name": "LEDGER_CONTEXT_ID",
      "outputs": [
        {
          "internalType": "uint256",
          "name": "",
          "type": "uint256"
        }
      ],
      "stateMutability": "view",
      "type": "function"
    },
    {
      "inputs": [],
      "name": "TRUST_CONTEXT_ID",
      "outputs": [
        {
          "internalType": "uint256",
          "name": "",
          "type": "uint256"
        }
      ],
      "stateMutability": "view",
      "type": "function"
    },
    {
      "inputs": [
        {
          "internalType": "uint256",
          "name": "rootKeyId",
          "type": "uint256"
        },
        {
          "internalType": "bytes32",
          "name": "arn",
          "type": "bytes32"
        },
        {
          "internalType": "uint256",
          "name": "amount",
          "type": "uint256"
        }
      ],
      "name": "deposit",
      "outputs": [
        {
          "internalType": "uint256",
          "name": "",
          "type": "uint256"
        },
        {
          "internalType": "uint256",
          "name": "",
          "type": "uint256"
        },
        {
          "internalType": "uint256",
          "name": "",
          "type": "uint256"
        }
      ],
      "stateMutability": "nonpayable",
      "type": "function"
    },
    {
      "inputs": [
        {
          "internalType": "address",
          "name": "provider",
          "type": "address"
        },
        {
          "internalType": "bytes32",
          "name": "arn",
          "type": "bytes32"
        },
        {
          "internalType": "uint256",
          "name": "rootKeyId",
          "type": "uint256"
        },
        {
          "internalType": "uint256[]",
          "name": "keys",
          "type": "uint256[]"
        },
        {
          "internalType": "uint256[]",
          "name": "amounts",
          "type": "uint256[]"
        }
      ],
      "name": "distribute",
      "outputs": [
        {
          "internalType": "uint256",
          "name": "",
          "type": "uint256"
        }
      ],
      "stateMutability": "nonpayable",
      "type": "function"
    },
    {
      "inputs": [
        {
          "internalType": "uint256",
          "name": "context",
          "type": "uint256"
        },
        {
          "internalType": "uint256",
          "name": "identifier",
          "type": "uint256"
        },
        {
          "internalType": "bytes32",
          "name": "arn",
          "type": "bytes32"
        }
      ],
      "name": "getContextArnAllocations",
      "outputs": [
        {
          "internalType": "address[]",
          "name": "",
          "type": "address[]"
        },
        {
          "internalType": "uint256[]",
          "name": "",
          "type": "uint256[]"
        }
      ],
      "stateMutability": "view",
      "type": "function"
    },
    {
      "inputs": [
        {
          "internalType": "uint256",
          "name": "context",
          "type": "uint256"
        },
        {
          "internalType": "uint256",
          "name": "identifier",
          "type": "uint256"
        },
        {
          "internalType": "address",
          "name": "provider",
          "type": "address"
        },
        {
          "internalType": "bytes32[]",
          "name": "arns",
          "type": "bytes32[]"
        }
      ],
      "name": "getContextArnBalances",
      "outputs": [
        {
          "internalType": "uint256[]",
          "name": "",
          "type": "uint256[]"
        }
      ],
      "stateMutability": "view",
      "type": "function"
    },
    {
      "inputs": [
        {
          "internalType": "uint256",
          "name": "context",
          "type": "uint256"
        },
        {
          "internalType": "uint256",
          "name": "identifier",
          "type": "uint256"
        },
        {
          "internalType": "address",
          "name": "provider",
          "type": "address"
        }
      ],
      "name": "getContextArnRegistry",
      "outputs": [
        {
          "internalType": "bytes32[]",
          "name": "",
          "type": "bytes32[]"
        }
      ],
      "stateMutability": "view",
      "type": "function"
    },
    {
      "inputs": [
        {
          "internalType": "uint256",
          "name": "context",
          "type": "uint256"
        },
        {
          "internalType": "uint256",
          "name": "identifier",
          "type": "uint256"
        },
        {
          "internalType": "address",
          "name": "provider",
          "type": "address"
        }
      ],
      "name": "getContextBalanceSheet",
      "outputs": [
        {
          "internalType": "bytes32[]",
          "name": "",
          "type": "bytes32[]"
        },
        {
          "internalType": "uint256[]",
          "name": "",
          "type": "uint256[]"
        }
      ],
      "stateMutability": "view",
      "type": "function"
    },
    {
      "inputs": [
        {
          "internalType": "uint256",
          "name": "context",
          "type": "uint256"
        },
        {
          "internalType": "uint256",
          "name": "identifier",
          "type": "uint256"
        },
        {
          "internalType": "bytes32",
          "name": "arn",
          "type": "bytes32"
        }
      ],
      "name": "getContextProviderRegistry",
      "outputs": [
        {
          "internalType": "address[]",
          "name": "",
          "type": "address[]"
        }
      ],
      "stateMutability": "view",
      "type": "function"
    },
    {
      "inputs": [
        {
          "internalType": "address",
          "name": "_Notary",
          "type": "address"
        }
      ],
      "name": "initialize",
      "outputs": [],
      "stateMutability": "nonpayable",
      "type": "function"
    },
    {
      "inputs": [],
      "name": "notary",
      "outputs": [
        {
          "internalType": "address",
          "name": "",
          "type": "address"
        }
      ],
      "stateMutability": "view",
      "type": "function"
    },
    {
      "inputs": [],
      "name": "owner",
      "outputs": [
        {
          "internalType": "address",
          "name": "",
          "type": "address"
        }
      ],
      "stateMutability": "view",
      "type": "function"
    },
    {
      "inputs": [],
      "name": "proxiableUUID",
      "outputs": [
        {
          "internalType": "bytes32",
          "name": "",
          "type": "bytes32"
        }
      ],
      "stateMutability": "view",
      "type": "function"
    },
    {
      "inputs": [],
      "name": "renounceOwnership",
      "outputs": [],
      "stateMutability": "nonpayable",
      "type": "function"
    },
    {
      "inputs": [
        {
          "internalType": "address",
          "name": "newOwner",
          "type": "address"
        }
      ],
      "name": "transferOwnership",
      "outputs": [],
      "stateMutability": "nonpayable",
      "type": "function"
    },
    {
      "inputs": [
        {
          "internalType": "address",
          "name": "newImplementation",
          "type": "address"
        }
      ],
      "name": "upgradeTo",
      "outputs": [],
      "stateMutability": "nonpayable",
      "type": "function"
    },
    {
      "inputs": [
        {
          "internalType": "address",
          "name": "newImplementation",
          "type": "address"
        },
        {
          "internalType": "bytes",
          "name": "data",
          "type": "bytes"
        }
      ],
      "name": "upgradeToAndCall",
      "outputs": [],
      "stateMutability": "payable",
      "type": "function"
    },
    {
      "inputs": [
        {
          "internalType": "uint256",
          "name": "keyId",
          "type": "uint256"
        },
        {
          "internalType": "bytes32",
          "name": "arn",
          "type": "bytes32"
        },
        {
          "internalType": "uint256",
          "name": "amount",
          "type": "uint256"
        }
      ],
      "name": "withdrawal",
      "outputs": [
        {
          "internalType": "uint256",
          "name": "",
          "type": "uint256"
        },
        {
          "internalType": "uint256",
          "name": "",
          "type": "uint256"
        },
        {
          "internalType": "uint256",
          "name": "",
          "type": "uint256"
        }
      ],
      "stateMutability": "nonpayable",
      "type": "function"
    }
  ],
  "bytecode": "0x60a06040523073ffffffffffffffffffffffffffffffffffffffff1660809073ffffffffffffffffffffffffffffffffffffffff168152503480156200004457600080fd5b5062000061673a6dc6977a1130f360c01b620000af60201b60201c565b6200007d67ce7aae8eb1656de560c01b620000af60201b60201c565b62000099678d207943684484e460c01b620000af60201b60201c565b620000a9620000b260201b60201c565b6200025d565b50565b600060019054906101000a900460ff161562000105576040517f08c379a0000000000000000000000000000000000000000000000000000000008152600401620000fc9062000200565b60405180910390fd5b60ff801660008054906101000a900460ff1660ff161015620001775760ff6000806101000a81548160ff021916908360ff1602179055507f7f26b83ff96e1f2b6a682f133852f6798a09c465da95921460cefb384740249860ff6040516200016e919062000240565b60405180910390a15b565b600082825260208201905092915050565b7f496e697469616c697a61626c653a20636f6e747261637420697320696e69746960008201527f616c697a696e6700000000000000000000000000000000000000000000000000602082015250565b6000620001e860278362000179565b9150620001f5826200018a565b604082019050919050565b600060208201905081810360008301526200021b81620001d9565b9050919050565b600060ff82169050919050565b6200023a8162000222565b82525050565b60006020820190506200025760008301846200022f565b92915050565b6080516147156200029560003960008181610861015281816108ef01528181610a4b01528181610ad90152610b8901526147156000f3fe6080604052600436106101445760003560e01c806377017792116100c0578063d84681e211610074578063ed279f1911610059578063ed279f1914610456578063f2fde38b14610481578063f8853b1d146104aa57610144565b8063d84681e2146103da578063e009d93c1461041957610144565b80639d54c79d116100a55780639d54c79d14610348578063a900780314610373578063c4d66de8146103b157610144565b806377017792146102f25780638da5cb5b1461031d57610144565b80634f1ef286116101175780635d48d49d116100fc5780635d48d49d14610272578063715018a61461029d578063761ba758146102b457610144565b80634f1ef2861461022b57806352d1902d1461024757610144565b80630331d4de1461014957806312e57629146101885780633659cfe6146101c55780633fdada9e146101ee575b600080fd5b34801561015557600080fd5b50610170600480360381019061016b9190612e21565b6104e7565b60405161017f93929190612e83565b60405180910390f35b34801561019457600080fd5b506101af60048036038101906101aa9190612eba565b6107fc565b6040516101bc9190612ffd565b60405180910390f35b3480156101d157600080fd5b506101ec60048036038101906101e7919061304b565b61085f565b005b3480156101fa57600080fd5b5061021560048036038101906102109190613078565b6109e7565b6040516102229190613189565b60405180910390f35b610245600480360381019061024091906132f1565b610a49565b005b34801561025357600080fd5b5061025c610b85565b604051610269919061335c565b60405180910390f35b34801561027e57600080fd5b50610287610c3e565b6040516102949190613377565b60405180910390f35b3480156102a957600080fd5b506102b2610c43565b005b3480156102c057600080fd5b506102db60048036038101906102d69190612eba565b610c57565b6040516102e9929190613450565b60405180910390f35b3480156102fe57600080fd5b50610307610cec565b6040516103149190613377565b60405180910390f35b34801561032957600080fd5b50610332610cf1565b60405161033f9190613496565b60405180910390f35b34801561035457600080fd5b5061035d610d1b565b60405161036a9190613496565b60405180910390f35b34801561037f57600080fd5b5061039a60048036038101906103959190613078565b610d41565b6040516103a89291906134b1565b60405180910390f35b3480156103bd57600080fd5b506103d860048036038101906103d3919061304b565b610ec2565b005b3480156103e657600080fd5b5061040160048036038101906103fc9190612e21565b6110ea565b60405161041093929190612e83565b60405180910390f35b34801561042557600080fd5b50610440600480360381019061043b9190613548565b611444565b60405161044d9190613377565b60405180910390f35b34801561046257600080fd5b5061046b611763565b6040516104789190613377565b60405180910390f35b34801561048d57600080fd5b506104a860048036038101906104a3919061304b565b611768565b005b3480156104b657600080fd5b506104d160048036038101906104cc919061365a565b6117eb565b6040516104de91906136e2565b60405180910390f35b6000806000610500678af8fe931b4f452060c01b611990565b61051467e37415df387bebb960c01b611990565b610528672006534d87b362d360c01b611990565b61053c678152836dad5dcd9b60c01b611990565b6000841161057f576040517f08c379a000000000000000000000000000000000000000000000000000000000815260040161057690613761565b60405180910390fd5b61059367c729848323da680160c01b611990565b6105a767d7f4f1bba0a3ffa060c01b611990565b6105bb67b0b1fc509440b99460c01b611990565b600060c960009054906101000a900473ffffffffffffffffffffffffffffffffffffffff1673ffffffffffffffffffffffffffffffffffffffff1663bb4ec12d338989896040518563ffffffff1660e01b815260040161061e9493929190613781565b6020604051808303816000875af115801561063d573d6000803e3d6000fd5b505050506040513d601f19601f8201168201806040525081019061066191906137db565b90506106776772e4d037542cc05260c01b611990565b61068b67d5f5377f9ae9fa0360c01b611990565b60006106a533888860ca611993909392919063ffffffff16565b90506106bb67d00b752894023e4860c01b611990565b6106cf675f0c2a2e28007ae960c01b611990565b60006106fa33898960d26000888152602001908152602001600020611993909392919063ffffffff16565b905061071067c97d00ceea55356360c01b611990565b61072467398488abc25b7d7760c01b611990565b600061074f338a8a60d360008f8152602001908152602001600020611993909392919063ffffffff16565b9050610765673b4ff23e76ed62af60c01b611990565b61077967594b0c6a2ae36fc260c01b611990565b7f2de93f8cac90b8d542dab00b5b11fedc8227506d3cc8e69688e2c27a7a55655733858c8c8c86888a6040516107b6989796959493929190613808565b60405180910390a16107d2670dd1735a2cb73f5c60c01b611990565b6107e667317e8d34f874cbcc60c01b611990565b8082849650965096505050505093509350939050565b606061081267c5831eef95435a5060c01b611990565b610826675ede98bc6dc160d360c01b611990565b61083a670f56237e3eaeba7c60c01b611990565b610856826108488686611ba9565b611da590919063ffffffff16565b90509392505050565b7f000000000000000000000000000000000000000000000000000000000000000073ffffffffffffffffffffffffffffffffffffffff163073ffffffffffffffffffffffffffffffffffffffff16036108ed576040517f08c379a00000000000000000000000000000000000000000000000000000000081526004016108e4906138f8565b60405180910390fd5b7f000000000000000000000000000000000000000000000000000000000000000073ffffffffffffffffffffffffffffffffffffffff1661092c611dea565b73ffffffffffffffffffffffffffffffffffffffff1614610982576040517f08c379a00000000000000000000000000000000000000000000000000000000081526004016109799061398a565b60405180910390fd5b61098b81611e41565b6109e481600067ffffffffffffffff8111156109aa576109a96131c6565b5b6040519080825280601f01601f1916602001820160405280156109dc5781602001600182028036833780820191505090505b506000611e9c565b50565b60606109fd67fdda6f6b3c44b80160c01b611990565b610a11679bce8ff1aa67a55960c01b611990565b610a24667f557b89c9cf7460c01b611990565b610a4082610a328686611ba9565b61200a90919063ffffffff16565b90509392505050565b7f000000000000000000000000000000000000000000000000000000000000000073ffffffffffffffffffffffffffffffffffffffff163073ffffffffffffffffffffffffffffffffffffffff1603610ad7576040517f08c379a0000000000000000000000000000000000000000000000000000000008152600401610ace906138f8565b60405180910390fd5b7f000000000000000000000000000000000000000000000000000000000000000073ffffffffffffffffffffffffffffffffffffffff16610b16611dea565b73ffffffffffffffffffffffffffffffffffffffff1614610b6c576040517f08c379a0000000000000000000000000000000000000000000000000000000008152600401610b639061398a565b60405180910390fd5b610b7582611e41565b610b8182826001611e9c565b5050565b60007f000000000000000000000000000000000000000000000000000000000000000073ffffffffffffffffffffffffffffffffffffffff163073ffffffffffffffffffffffffffffffffffffffff1614610c15576040517f08c379a0000000000000000000000000000000000000000000000000000000008152600401610c0c90613a1c565b60405180910390fd5b7f360894a13ba1a3210667c828492db98dca3e2076cc3735a920a3ca505d382bbc60001b905090565b600081565b610c4b6120a5565b610c556000612123565b565b606080610c6e67b8f1f484e74dafb760c01b611990565b610c8267a07d2c995d20914d60c01b611990565b610c9667d0ce9ed4dbcf7c2960c01b611990565b6000610ca28686611ba9565b9050610cb867c09a64f1b1924aa460c01b611990565b610ccc676bc68e2d985d846a60c01b611990565b610cdf84826121e990919063ffffffff16565b9250925050935093915050565b600181565b6000603360009054906101000a900473ffffffffffffffffffffffffffffffffffffffff16905090565b60c960009054906101000a900473ffffffffffffffffffffffffffffffffffffffff1681565b606080610d586753f07b27559018e660c01b611990565b610d6c67db878cd28524fd3160c01b611990565b610d80673fcaf4c27aee1da360c01b611990565b60003073ffffffffffffffffffffffffffffffffffffffff16633fdada9e8787876040518463ffffffff1660e01b8152600401610dbf93929190613a3c565b600060405180830381865afa158015610ddc573d6000803e3d6000fd5b505050506040513d6000823e3d601f19601f82011682018060405250810190610e059190613b4b565b9050610e1b672918650b95b9603860c01b611990565b610e2f679c5ccb2449ef97dc60c01b611990565b803073ffffffffffffffffffffffffffffffffffffffff1663f8853b1d888888866040518563ffffffff1660e01b8152600401610e6f9493929190613b94565b600060405180830381865afa158015610e8c573d6000803e3d6000fd5b505050506040513d6000823e3d601f19601f82011682018060405250810190610eb59190613ca3565b9250925050935093915050565b610ed667bf238ee791e6fab860c01b611990565b60008060019054906101000a900460ff16159050808015610f075750600160008054906101000a900460ff1660ff16105b80610f345750610f163061231f565b158015610f335750600160008054906101000a900460ff1660ff16145b5b610f73576040517f08c379a0000000000000000000000000000000000000000000000000000000008152600401610f6a90613d5e565b60405180910390fd5b60016000806101000a81548160ff021916908360ff1602179055508015610fb0576001600060016101000a81548160ff0219169083151502179055505b610fc467c3277355efb1c37760c01b611990565b610fd867f490025b47ac9a9d60c01b611990565b610fec67297c6ff1cdcd87bf60c01b611990565b6110006737bcd96411f73fec60c01b611990565b611008612342565b61101c67ceb2b1c22f47996d60c01b611990565b6110306785c7fb6e8bc8c18c60c01b611990565b61103861239b565b61104c670dcef289288352fa60c01b611990565b8160c960006101000a81548173ffffffffffffffffffffffffffffffffffffffff021916908373ffffffffffffffffffffffffffffffffffffffff16021790555080156110e65760008060016101000a81548160ff0219169083151502179055507f7f26b83ff96e1f2b6a682f133852f6798a09c465da95921460cefb384740249860016040516110dd9190613dd0565b60405180910390a15b5050565b60008060006111036705233a314e159fdb60c01b611990565b61111767b84e3fb6e805342460c01b611990565b61112b67e3253d870b28e81360c01b611990565b61113f67bbff859535c0166460c01b611990565b60008411611182576040517f08c379a000000000000000000000000000000000000000000000000000000000815260040161117990613761565b60405180910390fd5b61119667e03f973d8d0697c860c01b611990565b6111aa67d5e76d681bfc1f2860c01b611990565b6111be67de92ee55c3c4814e60c01b611990565b600060c960009054906101000a900473ffffffffffffffffffffffffffffffffffffffff1673ffffffffffffffffffffffffffffffffffffffff1663fc9cea05338989896040518563ffffffff1660e01b81526004016112219493929190613781565b6020604051808303816000875af1158015611240573d6000803e3d6000fd5b505050506040513d601f19601f8201168201806040525081019061126491906137db565b905061127a67936c0d6fb9b04ed360c01b611990565b61128e67b6804077c84486e760c01b611990565b60006112a833888860ca6123ec909392919063ffffffff16565b90506112be67cb9142a710fe2c4060c01b611990565b6112d26747254b5a590b0d9660c01b611990565b60006112fd33898960d260008881526020019081526020016000206123ec909392919063ffffffff16565b905061131367519369a43423ad2f60c01b611990565b61132767ee80cfa27899c59d60c01b611990565b6000611352338a8a60d360008f81526020019081526020016000206123ec909392919063ffffffff16565b905061136867193df1db4b97cbaa60c01b611990565b61137c67c3ae802af65bff5660c01b611990565b81831015801561138c5750808210155b61139957611398613deb565b5b6113ad6724f9ef2b4bc7ae0760c01b611990565b6113c16788b9d11db614122c60c01b611990565b7fc80770ceaa2b90f03c8fb8b7226bdb6541c4468463c6b85ef241b870e993c14e33858c8c8c86888a6040516113fe989796959493929190613808565b60405180910390a161141a67bd30479750301fba60c01b611990565b61142e670e3fecad08de65fe60c01b611990565b8082849650965096505050505093509350939050565b600061145a67fae2848585e903e760c01b611990565b61146e67f7ae5e280597218b60c01b611990565b611482679e79de0a6a2e038a60c01b611990565b600060c960009054906101000a900473ffffffffffffffffffffffffffffffffffffffff1673ffffffffffffffffffffffffffffffffffffffff1663ac7532ae338b8b8b8b8b8b8b6040518963ffffffff1660e01b81526004016114ed989796959493929190613e84565b6020604051808303816000875af115801561150c573d6000803e3d6000fd5b505050506040513d601f19601f8201168201806040525081019061153091906137db565b905061154667f031383f7ee7930d60c01b611990565b61155a674ac293afe6be0d5360c01b611990565b6000611570676eecc93b71a50ceb60c01b611990565b6115846763cf79fd96b1122260c01b611990565b60005b87879050811015611664576115a6675662f4b16d142d4c60c01b611990565b6115ba67b2a19bbce33ad9d460c01b611990565b6116158b8b8888858181106115d2576115d1613ef7565b5b9050602002013560d360008d8d888181106115f0576115ef613ef7565b5b905060200201358152602001908152602001600020611993909392919063ffffffff16565b5061162a676efd8f2b2280c09b60c01b611990565b85858281811061163d5761163c613ef7565b5b905060200201358261164f9190613f55565b9150808061165c90613f89565b915050611587565b50611679675ed56d1f58f2678960c01b611990565b61168d671d08f738b213137b60c01b611990565b60006116b88b8b8460d360008e81526020019081526020016000206123ec909392919063ffffffff16565b90506116ce6773e6ab508cbb90b060c01b611990565b6116e166add6857c1de2a760c01b611990565b7f9956ba0ad4e8a804def4f3554854761b05eb393e91af83058f95f9161245bdf4338c8c868d8d8d8d8d8a6040516117229a99989796959493929190613fd1565b60405180910390a161173e679db8cb10235fdf5260c01b611990565b6117526723b971ff8127842a60c01b611990565b809350505050979650505050505050565b600281565b6117706120a5565b600073ffffffffffffffffffffffffffffffffffffffff168173ffffffffffffffffffffffffffffffffffffffff16036117df576040517f08c379a00000000000000000000000000000000000000000000000000000000081526004016117d6906140d3565b60405180910390fd5b6117e881612123565b50565b606061180167a26071ae6ad1964560c01b611990565b61181567d3d75d1d87c03eea60c01b611990565b6118296753eae9372004ce5a60c01b611990565b60006118358787611ba9565b905061184b67e5dfc86329c1abdd60c01b611990565b61185f67bca732f04af7d0e860c01b611990565b60008484905067ffffffffffffffff81111561187e5761187d6131c6565b5b6040519080825280602002602001820160405280156118ac5781602001602082028036833780820191505090505b5090506118c3676f71f08cc307ccd560c01b611990565b6118d76714f6202bfe02a4cd60c01b611990565b60005b85859050811015611959576118f967754df9923e7eb50e60c01b611990565b611927878787848181106119105761190f613ef7565b5b90506020020135856127179092919063ffffffff16565b82828151811061193a57611939613ef7565b5b602002602001018181525050808061195190613f89565b9150506118da565b5061196e672ba7d726f3a92ffc60c01b611990565b6119826715ac711132d237a060c01b611990565b809250505095945050505050565b50565b60006119ab84866002016127c790919063ffffffff16565b506119c283866000016127f790919063ffffffff16565b50611a16838660040160008773ffffffffffffffffffffffffffffffffffffffff1673ffffffffffffffffffffffffffffffffffffffff1681526020019081526020016000206127f790919063ffffffff16565b50611a3e848660050160008681526020019081526020016000206127c790919063ffffffff16565b50818560060160008581526020019081526020016000206000828254611a649190613f55565b92505081905550818560070160008673ffffffffffffffffffffffffffffffffffffffff1673ffffffffffffffffffffffffffffffffffffffff16815260200190815260200160002060008581526020019081526020016000206000828254611acd9190613f55565b925050819055508460070160008573ffffffffffffffffffffffffffffffffffffffff1673ffffffffffffffffffffffffffffffffffffffff168152602001908152602001600020600084815260200190815260200160002054856006016000858152602001908152602001600020541015611b4c57611b4b613deb565b5b8460070160008573ffffffffffffffffffffffffffffffffffffffff1673ffffffffffffffffffffffffffffffffffffffff1681526020019081526020016000206000848152602001908152602001600020549050949350505050565b6000611bbf672dd2dcabd63b639560c01b611990565b611bd367b8d1181f6071d9ab60c01b611990565b611be7671a42cf67fa23f36360c01b611990565b611bfb677baceba85f9e93b660c01b611990565b60038310611c3e576040517f08c379a0000000000000000000000000000000000000000000000000000000008152600401611c359061413f565b60405180910390fd5b611c5267c6a835baa28f9f5460c01b611990565b611c66677854a7f6ecf0207260c01b611990565b611c7a67271abcd0cc1ca43f60c01b611990565b82600103611cd857611c96675f3a3be616dcdb6f60c01b611990565b611caa67b56a459bee004b7660c01b611990565b611cbe67bb2893393d1e8ec060c01b611990565b60d260008381526020019081526020016000209050611d9f565b611cec671075d437d80dd75d60c01b611990565b611d0067230beb6b0890fc8060c01b611990565b82600203611d5e57611d1c671dbd1236973cce8a60c01b611990565b611d3067360182c0a9001de860c01b611990565b611d4467f86c35b1f780a05360c01b611990565b60d360008381526020019081526020016000209050611d9f565b611d7267163a4dae7cacc57960c01b611990565b611d866735b6f9d1b042c27760c01b611990565b611d9a67c3acc63c825fc35660c01b611990565b60ca90505b92915050565b6060816000801b03611dc457611dbd8360020161280e565b9050611de4565b611de183600501600084815260200190815260200160002061280e565b90505b92915050565b6000611e187f360894a13ba1a3210667c828492db98dca3e2076cc3735a920a3ca505d382bbc60001b61282f565b60000160009054906101000a900473ffffffffffffffffffffffffffffffffffffffff16905090565b611e55673b8e0e52507fff4160c01b611990565b611e5d6120a5565b611e7167efd3d9bd05435b5f60c01b611990565b611e856770c8dc610fc565aa60c01b611990565b611e996767e9756b34e0687360c01b611990565b50565b611ec87f4910fdfa16fed3260ed0e7147f7cc6da11a60208b5b9406d12a635614ffd914360001b612839565b60000160009054906101000a900460ff1615611eec57611ee783612843565b612005565b8273ffffffffffffffffffffffffffffffffffffffff166352d1902d6040518163ffffffff1660e01b8152600401602060405180830381865afa925050508015611f5457506040513d601f19601f82011682018060405250810190611f51919061415f565b60015b611f93576040517f08c379a0000000000000000000000000000000000000000000000000000000008152600401611f8a906141fe565b60405180910390fd5b7f360894a13ba1a3210667c828492db98dca3e2076cc3735a920a3ca505d382bbc60001b8114611ff8576040517f08c379a0000000000000000000000000000000000000000000000000000000008152600401611fef90614290565b60405180910390fd5b506120048383836128fc565b5b505050565b60608173ffffffffffffffffffffffffffffffffffffffff16600073ffffffffffffffffffffffffffffffffffffffff16036120535761204c83600001612928565b905061209f565b61209c8360040160008473ffffffffffffffffffffffffffffffffffffffff1673ffffffffffffffffffffffffffffffffffffffff168152602001908152602001600020612928565b90505b92915050565b6120ad61293d565b73ffffffffffffffffffffffffffffffffffffffff166120cb610cf1565b73ffffffffffffffffffffffffffffffffffffffff1614612121576040517f08c379a0000000000000000000000000000000000000000000000000000000008152600401612118906142fc565b60405180910390fd5b565b6000603360009054906101000a900473ffffffffffffffffffffffffffffffffffffffff16905081603360006101000a81548173ffffffffffffffffffffffffffffffffffffffff021916908373ffffffffffffffffffffffffffffffffffffffff1602179055508173ffffffffffffffffffffffffffffffffffffffff168173ffffffffffffffffffffffffffffffffffffffff167f8be0079c531659141344cd1fd0a4f28419497f9722a3daafe3b4186f6b6457e060405160405180910390a35050565b606080600061220b85600501600086815260200190815260200160002061280e565b90506000815167ffffffffffffffff81111561222a576122296131c6565b5b6040519080825280602002602001820160405280156122585781602001602082028036833780820191505090505b50905060005b82518160ff16101561230f57866007016000848360ff168151811061228657612285613ef7565b5b602002602001015173ffffffffffffffffffffffffffffffffffffffff1673ffffffffffffffffffffffffffffffffffffffff168152602001908152602001600020600087815260200190815260200160002054828260ff16815181106122f0576122ef613ef7565b5b60200260200101818152505080806123079061431c565b91505061225e565b5081819350935050509250929050565b6000808273ffffffffffffffffffffffffffffffffffffffff163b119050919050565b600060019054906101000a900460ff16612391576040517f08c379a0000000000000000000000000000000000000000000000000000000008152600401612388906143b7565b60405180910390fd5b612399612945565b565b600060019054906101000a900460ff166123ea576040517f08c379a00000000000000000000000000000000000000000000000000000000081526004016123e1906143b7565b60405180910390fd5b565b600061240483866000016129a690919063ffffffff16565b80156124625750818560070160008673ffffffffffffffffffffffffffffffffffffffff1673ffffffffffffffffffffffffffffffffffffffff16815260200190815260200160002060008581526020019081526020016000205410155b6124a1576040517f08c379a000000000000000000000000000000000000000000000000000000000815260040161249890614423565b60405180910390fd5b8185600601600085815260200190815260200160002060008282546124c69190614443565b92505081905550818560070160008673ffffffffffffffffffffffffffffffffffffffff1673ffffffffffffffffffffffffffffffffffffffff1681526020019081526020016000206000858152602001908152602001600020600082825461252f9190614443565b9250508190555060008560070160008673ffffffffffffffffffffffffffffffffffffffff1673ffffffffffffffffffffffffffffffffffffffff1681526020019081526020016000206000858152602001908152602001600020540361260d576125e3838660040160008773ffffffffffffffffffffffffffffffffffffffff1673ffffffffffffffffffffffffffffffffffffffff1681526020019081526020016000206129bd90919063ffffffff16565b5061260b848660050160008681526020019081526020016000206129d490919063ffffffff16565b505b600085600601600085815260200190815260200160002054036126425761264083866000016129bd90919063ffffffff16565b505b8460070160008573ffffffffffffffffffffffffffffffffffffffff1673ffffffffffffffffffffffffffffffffffffffff1681526020019081526020016000206000848152602001908152602001600020548560060160008581526020019081526020016000205410156126ba576126b9613deb565b5b8460070160008573ffffffffffffffffffffffffffffffffffffffff1673ffffffffffffffffffffffffffffffffffffffff1681526020019081526020016000206000848152602001908152602001600020549050949350505050565b60008273ffffffffffffffffffffffffffffffffffffffff16600073ffffffffffffffffffffffffffffffffffffffff160361276a578360060160008381526020019081526020016000205490506127c0565b8360070160008473ffffffffffffffffffffffffffffffffffffffff1673ffffffffffffffffffffffffffffffffffffffff16815260200190815260200160002060008381526020019081526020016000205490505b9392505050565b60006127ef836000018373ffffffffffffffffffffffffffffffffffffffff1660001b612a04565b905092915050565b60006128068360000183612a04565b905092915050565b6060600061281e83600001612a74565b905060608190508092505050919050565b6000819050919050565b6000819050919050565b61284c8161231f565b61288b576040517f08c379a0000000000000000000000000000000000000000000000000000000008152600401612882906144e9565b60405180910390fd5b806128b87f360894a13ba1a3210667c828492db98dca3e2076cc3735a920a3ca505d382bbc60001b61282f565b60000160006101000a81548173ffffffffffffffffffffffffffffffffffffffff021916908373ffffffffffffffffffffffffffffffffffffffff16021790555050565b61290583612ad0565b6000825111806129125750805b15612923576129218383612b1f565b505b505050565b606061293682600001612a74565b9050919050565b600033905090565b600060019054906101000a900460ff16612994576040517f08c379a000000000000000000000000000000000000000000000000000000000815260040161298b906143b7565b60405180910390fd5b6129a461299f61293d565b612123565b565b60006129b58360000183612c03565b905092915050565b60006129cc8360000183612c26565b905092915050565b60006129fc836000018373ffffffffffffffffffffffffffffffffffffffff1660001b612c26565b905092915050565b6000612a108383612c03565b612a69578260000182908060018154018082558091505060019003906000526020600020016000909190919091505582600001805490508360010160008481526020019081526020016000208190555060019050612a6e565b600090505b92915050565b606081600001805480602002602001604051908101604052809291908181526020018280548015612ac457602002820191906000526020600020905b815481526020019060010190808311612ab0575b50505050509050919050565b612ad981612843565b8073ffffffffffffffffffffffffffffffffffffffff167fbc7cd75a20ee27fd9adebab32041f755214dbc6bffa90cc0225b39da2e5c2d3b60405160405180910390a250565b6060612b2a8361231f565b612b69576040517f08c379a0000000000000000000000000000000000000000000000000000000008152600401612b609061457b565b60405180910390fd5b6000808473ffffffffffffffffffffffffffffffffffffffff1684604051612b91919061460c565b600060405180830381855af49150503d8060008114612bcc576040519150601f19603f3d011682016040523d82523d6000602084013e612bd1565b606091505b5091509150612bf982826040518060600160405280602781526020016146b960279139612d3a565b9250505092915050565b600080836001016000848152602001908152602001600020541415905092915050565b60008083600101600084815260200190815260200160002054905060008114612d2e576000600182612c589190614443565b9050600060018660000180549050612c709190614443565b9050818114612cdf576000866000018281548110612c9157612c90613ef7565b5b9060005260206000200154905080876000018481548110612cb557612cb4613ef7565b5b90600052602060002001819055508387600101600083815260200190815260200160002081905550505b85600001805480612cf357612cf2614623565b5b600190038181906000526020600020016000905590558560010160008681526020019081526020016000206000905560019350505050612d34565b60009150505b92915050565b60608315612d4a57829050612d9a565b600083511115612d5d5782518084602001fd5b816040517f08c379a0000000000000000000000000000000000000000000000000000000008152600401612d919190614696565b60405180910390fd5b9392505050565b6000604051905090565b600080fd5b600080fd5b6000819050919050565b612dc881612db5565b8114612dd357600080fd5b50565b600081359050612de581612dbf565b92915050565b6000819050919050565b612dfe81612deb565b8114612e0957600080fd5b50565b600081359050612e1b81612df5565b92915050565b600080600060608486031215612e3a57612e39612dab565b5b6000612e4886828701612dd6565b9350506020612e5986828701612e0c565b9250506040612e6a86828701612dd6565b9150509250925092565b612e7d81612db5565b82525050565b6000606082019050612e986000830186612e74565b612ea56020830185612e74565b612eb26040830184612e74565b949350505050565b600080600060608486031215612ed357612ed2612dab565b5b6000612ee186828701612dd6565b9350506020612ef286828701612dd6565b9250506040612f0386828701612e0c565b9150509250925092565b600081519050919050565b600082825260208201905092915050565b6000819050602082019050919050565b600073ffffffffffffffffffffffffffffffffffffffff82169050919050565b6000612f6482612f39565b9050919050565b612f7481612f59565b82525050565b6000612f868383612f6b565b60208301905092915050565b6000602082019050919050565b6000612faa82612f0d565b612fb48185612f18565b9350612fbf83612f29565b8060005b83811015612ff0578151612fd78882612f7a565b9750612fe283612f92565b925050600181019050612fc3565b5085935050505092915050565b600060208201905081810360008301526130178184612f9f565b905092915050565b61302881612f59565b811461303357600080fd5b50565b6000813590506130458161301f565b92915050565b60006020828403121561306157613060612dab565b5b600061306f84828501613036565b91505092915050565b60008060006060848603121561309157613090612dab565b5b600061309f86828701612dd6565b93505060206130b086828701612dd6565b92505060406130c186828701613036565b9150509250925092565b600081519050919050565b600082825260208201905092915050565b6000819050602082019050919050565b61310081612deb565b82525050565b600061311283836130f7565b60208301905092915050565b6000602082019050919050565b6000613136826130cb565b61314081856130d6565b935061314b836130e7565b8060005b8381101561317c5781516131638882613106565b975061316e8361311e565b92505060018101905061314f565b5085935050505092915050565b600060208201905081810360008301526131a3818461312b565b905092915050565b600080fd5b600080fd5b6000601f19601f8301169050919050565b7f4e487b7100000000000000000000000000000000000000000000000000000000600052604160045260246000fd5b6131fe826131b5565b810181811067ffffffffffffffff8211171561321d5761321c6131c6565b5b80604052505050565b6000613230612da1565b905061323c82826131f5565b919050565b600067ffffffffffffffff82111561325c5761325b6131c6565b5b613265826131b5565b9050602081019050919050565b82818337600083830152505050565b600061329461328f84613241565b613226565b9050828152602081018484840111156132b0576132af6131b0565b5b6132bb848285613272565b509392505050565b600082601f8301126132d8576132d76131ab565b5b81356132e8848260208601613281565b91505092915050565b6000806040838503121561330857613307612dab565b5b600061331685828601613036565b925050602083013567ffffffffffffffff81111561333757613336612db0565b5b613343858286016132c3565b9150509250929050565b61335681612deb565b82525050565b6000602082019050613371600083018461334d565b92915050565b600060208201905061338c6000830184612e74565b92915050565b600081519050919050565b600082825260208201905092915050565b6000819050602082019050919050565b6133c781612db5565b82525050565b60006133d983836133be565b60208301905092915050565b6000602082019050919050565b60006133fd82613392565b613407818561339d565b9350613412836133ae565b8060005b8381101561344357815161342a88826133cd565b9750613435836133e5565b925050600181019050613416565b5085935050505092915050565b6000604082019050818103600083015261346a8185612f9f565b9050818103602083015261347e81846133f2565b90509392505050565b61349081612f59565b82525050565b60006020820190506134ab6000830184613487565b92915050565b600060408201905081810360008301526134cb818561312b565b905081810360208301526134df81846133f2565b90509392505050565b600080fd5b600080fd5b60008083601f840112613508576135076131ab565b5b8235905067ffffffffffffffff811115613525576135246134e8565b5b602083019150836020820283011115613541576135406134ed565b5b9250929050565b600080600080600080600060a0888a03121561356757613566612dab565b5b60006135758a828b01613036565b97505060206135868a828b01612e0c565b96505060406135978a828b01612dd6565b955050606088013567ffffffffffffffff8111156135b8576135b7612db0565b5b6135c48a828b016134f2565b9450945050608088013567ffffffffffffffff8111156135e7576135e6612db0565b5b6135f38a828b016134f2565b925092505092959891949750929550565b60008083601f84011261361a576136196131ab565b5b8235905067ffffffffffffffff811115613637576136366134e8565b5b602083019150836020820283011115613653576136526134ed565b5b9250929050565b60008060008060006080868803121561367657613675612dab565b5b600061368488828901612dd6565b955050602061369588828901612dd6565b94505060406136a688828901613036565b935050606086013567ffffffffffffffff8111156136c7576136c6612db0565b5b6136d388828901613604565b92509250509295509295909350565b600060208201905081810360008301526136fc81846133f2565b905092915050565b600082825260208201905092915050565b7f5a45524f5f414d4f554e54000000000000000000000000000000000000000000600082015250565b600061374b600b83613704565b915061375682613715565b602082019050919050565b6000602082019050818103600083015261377a8161373e565b9050919050565b60006080820190506137966000830187613487565b6137a36020830186612e74565b6137b0604083018561334d565b6137bd6060830184612e74565b95945050505050565b6000815190506137d581612dbf565b92915050565b6000602082840312156137f1576137f0612dab565b5b60006137ff848285016137c6565b91505092915050565b60006101008201905061381e600083018b613487565b61382b602083018a612e74565b6138386040830189612e74565b613845606083018861334d565b6138526080830187612e74565b61385f60a0830186612e74565b61386c60c0830185612e74565b61387960e0830184612e74565b9998505050505050505050565b7f46756e6374696f6e206d7573742062652063616c6c6564207468726f7567682060008201527f64656c656761746563616c6c0000000000000000000000000000000000000000602082015250565b60006138e2602c83613704565b91506138ed82613886565b604082019050919050565b60006020820190508181036000830152613911816138d5565b9050919050565b7f46756e6374696f6e206d7573742062652063616c6c6564207468726f7567682060008201527f6163746976652070726f78790000000000000000000000000000000000000000602082015250565b6000613974602c83613704565b915061397f82613918565b604082019050919050565b600060208201905081810360008301526139a381613967565b9050919050565b7f555550535570677261646561626c653a206d757374206e6f742062652063616c60008201527f6c6564207468726f7567682064656c656761746563616c6c0000000000000000602082015250565b6000613a06603883613704565b9150613a11826139aa565b604082019050919050565b60006020820190508181036000830152613a35816139f9565b9050919050565b6000606082019050613a516000830186612e74565b613a5e6020830185612e74565b613a6b6040830184613487565b949350505050565b600067ffffffffffffffff821115613a8e57613a8d6131c6565b5b602082029050602081019050919050565b600081519050613aae81612df5565b92915050565b6000613ac7613ac284613a73565b613226565b90508083825260208201905060208402830185811115613aea57613ae96134ed565b5b835b81811015613b135780613aff8882613a9f565b845260208401935050602081019050613aec565b5050509392505050565b600082601f830112613b3257613b316131ab565b5b8151613b42848260208601613ab4565b91505092915050565b600060208284031215613b6157613b60612dab565b5b600082015167ffffffffffffffff811115613b7f57613b7e612db0565b5b613b8b84828501613b1d565b91505092915050565b6000608082019050613ba96000830187612e74565b613bb66020830186612e74565b613bc36040830185613487565b8181036060830152613bd5818461312b565b905095945050505050565b600067ffffffffffffffff821115613bfb57613bfa6131c6565b5b602082029050602081019050919050565b6000613c1f613c1a84613be0565b613226565b90508083825260208201905060208402830185811115613c4257613c416134ed565b5b835b81811015613c6b5780613c5788826137c6565b845260208401935050602081019050613c44565b5050509392505050565b600082601f830112613c8a57613c896131ab565b5b8151613c9a848260208601613c0c565b91505092915050565b600060208284031215613cb957613cb8612dab565b5b600082015167ffffffffffffffff811115613cd757613cd6612db0565b5b613ce384828501613c75565b91505092915050565b7f496e697469616c697a61626c653a20636f6e747261637420697320616c72656160008201527f647920696e697469616c697a6564000000000000000000000000000000000000602082015250565b6000613d48602e83613704565b9150613d5382613cec565b604082019050919050565b60006020820190508181036000830152613d7781613d3b565b9050919050565b6000819050919050565b600060ff82169050919050565b6000819050919050565b6000613dba613db5613db084613d7e565b613d95565b613d88565b9050919050565b613dca81613d9f565b82525050565b6000602082019050613de56000830184613dc1565b92915050565b7f4e487b7100000000000000000000000000000000000000000000000000000000600052600160045260246000fd5b600080fd5b82818337505050565b6000613e34838561339d565b93507f07ffffffffffffffffffffffffffffffffffffffffffffffffffffffffffffff831115613e6757613e66613e1a565b5b602083029250613e78838584613e1f565b82840190509392505050565b600060c082019050613e99600083018b613487565b613ea6602083018a613487565b613eb3604083018961334d565b613ec06060830188612e74565b8181036080830152613ed3818688613e28565b905081810360a0830152613ee8818486613e28565b90509998505050505050505050565b7f4e487b7100000000000000000000000000000000000000000000000000000000600052603260045260246000fd5b7f4e487b7100000000000000000000000000000000000000000000000000000000600052601160045260246000fd5b6000613f6082612db5565b9150613f6b83612db5565b9250828201905080821115613f8357613f82613f26565b5b92915050565b6000613f9482612db5565b91507fffffffffffffffffffffffffffffffffffffffffffffffffffffffffffffffff8203613fc657613fc5613f26565b5b600182019050919050565b600061010082019050613fe7600083018d613487565b613ff4602083018c613487565b614001604083018b61334d565b61400e606083018a612e74565b61401b6080830189612e74565b81810360a083015261402e818789613e28565b905081810360c0830152614043818587613e28565b905061405260e0830184612e74565b9b9a5050505050505050505050565b7f4f776e61626c653a206e6577206f776e657220697320746865207a65726f206160008201527f6464726573730000000000000000000000000000000000000000000000000000602082015250565b60006140bd602683613704565b91506140c882614061565b604082019050919050565b600060208201905081810360008301526140ec816140b0565b9050919050565b7f494e56414c49445f434f4e544558540000000000000000000000000000000000600082015250565b6000614129600f83613704565b9150614134826140f3565b602082019050919050565b600060208201905081810360008301526141588161411c565b9050919050565b60006020828403121561417557614174612dab565b5b600061418384828501613a9f565b91505092915050565b7f45524331393637557067726164653a206e657720696d706c656d656e7461746960008201527f6f6e206973206e6f742055555053000000000000000000000000000000000000602082015250565b60006141e8602e83613704565b91506141f38261418c565b604082019050919050565b60006020820190508181036000830152614217816141db565b9050919050565b7f45524331393637557067726164653a20756e737570706f727465642070726f7860008201527f6961626c65555549440000000000000000000000000000000000000000000000602082015250565b600061427a602983613704565b91506142858261421e565b604082019050919050565b600060208201905081810360008301526142a98161426d565b9050919050565b7f4f776e61626c653a2063616c6c6572206973206e6f7420746865206f776e6572600082015250565b60006142e6602083613704565b91506142f1826142b0565b602082019050919050565b60006020820190508181036000830152614315816142d9565b9050919050565b600061432782613d88565b915060ff820361433a57614339613f26565b5b600182019050919050565b7f496e697469616c697a61626c653a20636f6e7472616374206973206e6f74206960008201527f6e697469616c697a696e67000000000000000000000000000000000000000000602082015250565b60006143a1602b83613704565b91506143ac82614345565b604082019050919050565b600060208201905081810360008301526143d081614394565b9050919050565b7f4f56455244524146540000000000000000000000000000000000000000000000600082015250565b600061440d600983613704565b9150614418826143d7565b602082019050919050565b6000602082019050818103600083015261443c81614400565b9050919050565b600061444e82612db5565b915061445983612db5565b925082820390508181111561447157614470613f26565b5b92915050565b7f455243313936373a206e657720696d706c656d656e746174696f6e206973206e60008201527f6f74206120636f6e747261637400000000000000000000000000000000000000602082015250565b60006144d3602d83613704565b91506144de82614477565b604082019050919050565b60006020820190508181036000830152614502816144c6565b9050919050565b7f416464726573733a2064656c65676174652063616c6c20746f206e6f6e2d636f60008201527f6e74726163740000000000000000000000000000000000000000000000000000602082015250565b6000614565602683613704565b915061457082614509565b604082019050919050565b6000602082019050818103600083015261459481614558565b9050919050565b600081519050919050565b600081905092915050565b60005b838110156145cf5780820151818401526020810190506145b4565b60008484015250505050565b60006145e68261459b565b6145f081856145a6565b93506146008185602086016145b1565b80840191505092915050565b600061461882846145db565b915081905092915050565b7f4e487b7100000000000000000000000000000000000000000000000000000000600052603160045260246000fd5b600081519050919050565b600061466882614652565b6146728185613704565b93506146828185602086016145b1565b61468b816131b5565b840191505092915050565b600060208201905081810360008301526146b0818461465d565b90509291505056fe416464726573733a206c6f772d6c6576656c2064656c65676174652063616c6c206661696c6564a2646970667358221220288f56cdde43e54001c8b3ee51a5dc8b61f2e25eaabac58db10bb054d86656d864736f6c63430008100033",
  "linkReferences": {},
  "deployedLinkReferences": {}
}