{
  "_format": "hh-sol-artifact-1",
  "contractName": "Ledger",
  "sourceName": "contracts/Ledger.sol",
  "abi": [
    {
      "inputs": [],
      "stateMutability": "nonpayable",
      "type": "constructor"
    },
    {
      "anonymous": false,
      "inputs": [
        {
          "indexed": false,
          "internalType": "address",
          "name": "previousAdmin",
          "type": "address"
        },
        {
          "indexed": false,
          "internalType": "address",
          "name": "newAdmin",
          "type": "address"
        }
      ],
      "name": "AdminChanged",
      "type": "event"
    },
    {
      "anonymous": false,
      "inputs": [
        {
          "indexed": true,
          "internalType": "address",
          "name": "beacon",
          "type": "address"
        }
      ],
      "name": "BeaconUpgraded",
      "type": "event"
    },
    {
      "anonymous": false,
      "inputs": [
        {
          "indexed": false,
          "internalType": "uint8",
          "name": "version",
          "type": "uint8"
        }
      ],
      "name": "Initialized",
      "type": "event"
    },
    {
      "anonymous": false,
      "inputs": [
        {
          "indexed": true,
          "internalType": "address",
          "name": "previousOwner",
          "type": "address"
        },
        {
          "indexed": true,
          "internalType": "address",
          "name": "newOwner",
          "type": "address"
        }
      ],
      "name": "OwnershipTransferred",
      "type": "event"
    },
    {
      "anonymous": false,
      "inputs": [
        {
          "indexed": true,
          "internalType": "address",
          "name": "implementation",
          "type": "address"
        }
      ],
      "name": "Upgraded",
      "type": "event"
    },
    {
      "anonymous": false,
      "inputs": [
        {
          "indexed": false,
          "internalType": "address",
          "name": "provider",
          "type": "address"
        },
        {
          "indexed": false,
          "internalType": "uint256",
          "name": "trustId",
          "type": "uint256"
        },
        {
          "indexed": false,
          "internalType": "uint256",
          "name": "keyId",
          "type": "uint256"
        },
        {
          "indexed": false,
          "internalType": "bytes32",
          "name": "arn",
          "type": "bytes32"
        },
        {
          "indexed": false,
          "internalType": "uint256",
          "name": "amount",
          "type": "uint256"
        },
        {
          "indexed": false,
          "internalType": "uint256",
          "name": "keyBalance",
          "type": "uint256"
        },
        {
          "indexed": false,
          "internalType": "uint256",
          "name": "trustBalance",
          "type": "uint256"
        },
        {
          "indexed": false,
          "internalType": "uint256",
          "name": "ledgerBalance",
          "type": "uint256"
        }
      ],
      "name": "depositOccurred",
      "type": "event"
    },
    {
      "anonymous": false,
      "inputs": [
        {
          "indexed": false,
          "internalType": "address",
          "name": "scribe",
          "type": "address"
        },
        {
          "indexed": false,
          "internalType": "address",
          "name": "provider",
          "type": "address"
        },
        {
          "indexed": false,
          "internalType": "bytes32",
          "name": "arn",
          "type": "bytes32"
        },
        {
          "indexed": false,
          "internalType": "uint256",
          "name": "trustId",
          "type": "uint256"
        },
        {
          "indexed": false,
          "internalType": "uint256",
          "name": "rootKeyId",
          "type": "uint256"
        },
        {
          "indexed": false,
          "internalType": "uint256[]",
          "name": "keys",
          "type": "uint256[]"
        },
        {
          "indexed": false,
          "internalType": "uint256[]",
          "name": "amounts",
          "type": "uint256[]"
        },
        {
          "indexed": false,
          "internalType": "uint256",
          "name": "finalRootBalance",
          "type": "uint256"
        }
      ],
      "name": "ledgerTransferOccurred",
      "type": "event"
    },
    {
      "anonymous": false,
      "inputs": [
        {
          "indexed": false,
          "internalType": "address",
          "name": "provider",
          "type": "address"
        },
        {
          "indexed": false,
          "internalType": "uint256",
          "name": "trustId",
          "type": "uint256"
        },
        {
          "indexed": false,
          "internalType": "uint256",
          "name": "keyId",
          "type": "uint256"
        },
        {
          "indexed": false,
          "internalType": "bytes32",
          "name": "arn",
          "type": "bytes32"
        },
        {
          "indexed": false,
          "internalType": "uint256",
          "name": "amount",
          "type": "uint256"
        },
        {
          "indexed": false,
          "internalType": "uint256",
          "name": "keyBalance",
          "type": "uint256"
        },
        {
          "indexed": false,
          "internalType": "uint256",
          "name": "trustBalance",
          "type": "uint256"
        },
        {
          "indexed": false,
          "internalType": "uint256",
          "name": "ledgerBalance",
          "type": "uint256"
        }
      ],
      "name": "withdrawalOccurred",
      "type": "event"
    },
    {
      "inputs": [],
      "name": "KEY_CONTEXT_ID",
      "outputs": [
        {
          "internalType": "uint256",
          "name": "",
          "type": "uint256"
        }
      ],
      "stateMutability": "view",
      "type": "function"
    },
    {
      "inputs": [],
      "name": "LEDGER_CONTEXT_ID",
      "outputs": [
        {
          "internalType": "uint256",
          "name": "",
          "type": "uint256"
        }
      ],
      "stateMutability": "view",
      "type": "function"
    },
    {
      "inputs": [],
      "name": "TRUST_CONTEXT_ID",
      "outputs": [
        {
          "internalType": "uint256",
          "name": "",
          "type": "uint256"
        }
      ],
      "stateMutability": "view",
      "type": "function"
    },
    {
      "inputs": [
        {
          "internalType": "uint256",
          "name": "rootKeyId",
          "type": "uint256"
        },
        {
          "internalType": "bytes32",
          "name": "arn",
          "type": "bytes32"
        },
        {
          "internalType": "uint256",
          "name": "amount",
          "type": "uint256"
        }
      ],
      "name": "deposit",
      "outputs": [
        {
          "internalType": "uint256",
          "name": "",
          "type": "uint256"
        },
        {
          "internalType": "uint256",
          "name": "",
          "type": "uint256"
        },
        {
          "internalType": "uint256",
          "name": "",
          "type": "uint256"
        }
      ],
      "stateMutability": "nonpayable",
      "type": "function"
    },
    {
      "inputs": [
        {
          "internalType": "address",
          "name": "provider",
          "type": "address"
        },
        {
          "internalType": "bytes32",
          "name": "arn",
          "type": "bytes32"
        },
        {
          "internalType": "uint256",
          "name": "sourceKeyId",
          "type": "uint256"
        },
        {
          "internalType": "uint256[]",
          "name": "keys",
          "type": "uint256[]"
        },
        {
          "internalType": "uint256[]",
          "name": "amounts",
          "type": "uint256[]"
        }
      ],
      "name": "distribute",
      "outputs": [
        {
          "internalType": "uint256",
          "name": "",
          "type": "uint256"
        }
      ],
      "stateMutability": "nonpayable",
      "type": "function"
    },
    {
      "inputs": [
        {
          "internalType": "uint256",
          "name": "context",
          "type": "uint256"
        },
        {
          "internalType": "uint256",
          "name": "identifier",
          "type": "uint256"
        },
        {
          "internalType": "bytes32",
          "name": "arn",
          "type": "bytes32"
        }
      ],
      "name": "getContextArnAllocations",
      "outputs": [
        {
          "internalType": "address[]",
          "name": "",
          "type": "address[]"
        },
        {
          "internalType": "uint256[]",
          "name": "",
          "type": "uint256[]"
        }
      ],
      "stateMutability": "view",
      "type": "function"
    },
    {
      "inputs": [
        {
          "internalType": "uint256",
          "name": "context",
          "type": "uint256"
        },
        {
          "internalType": "uint256",
          "name": "identifier",
          "type": "uint256"
        },
        {
          "internalType": "address",
          "name": "provider",
          "type": "address"
        },
        {
          "internalType": "bytes32[]",
          "name": "arns",
          "type": "bytes32[]"
        }
      ],
      "name": "getContextArnBalances",
      "outputs": [
        {
          "internalType": "uint256[]",
          "name": "",
          "type": "uint256[]"
        }
      ],
      "stateMutability": "view",
      "type": "function"
    },
    {
      "inputs": [
        {
          "internalType": "uint256",
          "name": "context",
          "type": "uint256"
        },
        {
          "internalType": "uint256",
          "name": "identifier",
          "type": "uint256"
        },
        {
          "internalType": "address",
          "name": "provider",
          "type": "address"
        }
      ],
      "name": "getContextArnRegistry",
      "outputs": [
        {
          "internalType": "bytes32[]",
          "name": "",
          "type": "bytes32[]"
        }
      ],
      "stateMutability": "view",
      "type": "function"
    },
    {
      "inputs": [
        {
          "internalType": "uint256",
          "name": "context",
          "type": "uint256"
        },
        {
          "internalType": "uint256",
          "name": "identifier",
          "type": "uint256"
        },
        {
          "internalType": "address",
          "name": "provider",
          "type": "address"
        }
      ],
      "name": "getContextBalanceSheet",
      "outputs": [
        {
          "internalType": "bytes32[]",
          "name": "",
          "type": "bytes32[]"
        },
        {
          "internalType": "uint256[]",
          "name": "",
          "type": "uint256[]"
        }
      ],
      "stateMutability": "view",
      "type": "function"
    },
    {
      "inputs": [
        {
          "internalType": "uint256",
          "name": "context",
          "type": "uint256"
        },
        {
          "internalType": "uint256",
          "name": "identifier",
          "type": "uint256"
        },
        {
          "internalType": "bytes32",
          "name": "arn",
          "type": "bytes32"
        }
      ],
      "name": "getContextProviderRegistry",
      "outputs": [
        {
          "internalType": "address[]",
          "name": "",
          "type": "address[]"
        }
      ],
      "stateMutability": "view",
      "type": "function"
    },
    {
      "inputs": [
        {
          "internalType": "address",
          "name": "_Notary",
          "type": "address"
        }
      ],
      "name": "initialize",
      "outputs": [],
      "stateMutability": "nonpayable",
      "type": "function"
    },
    {
      "inputs": [],
      "name": "notary",
      "outputs": [
        {
          "internalType": "address",
          "name": "",
          "type": "address"
        }
      ],
      "stateMutability": "view",
      "type": "function"
    },
    {
      "inputs": [],
      "name": "owner",
      "outputs": [
        {
          "internalType": "address",
          "name": "",
          "type": "address"
        }
      ],
      "stateMutability": "view",
      "type": "function"
    },
    {
      "inputs": [],
      "name": "proxiableUUID",
      "outputs": [
        {
          "internalType": "bytes32",
          "name": "",
          "type": "bytes32"
        }
      ],
      "stateMutability": "view",
      "type": "function"
    },
    {
      "inputs": [],
      "name": "renounceOwnership",
      "outputs": [],
      "stateMutability": "nonpayable",
      "type": "function"
    },
    {
      "inputs": [
        {
          "internalType": "address",
          "name": "newOwner",
          "type": "address"
        }
      ],
      "name": "transferOwnership",
      "outputs": [],
      "stateMutability": "nonpayable",
      "type": "function"
    },
    {
      "inputs": [
        {
          "internalType": "address",
          "name": "newImplementation",
          "type": "address"
        }
      ],
      "name": "upgradeTo",
      "outputs": [],
      "stateMutability": "nonpayable",
      "type": "function"
    },
    {
      "inputs": [
        {
          "internalType": "address",
          "name": "newImplementation",
          "type": "address"
        },
        {
          "internalType": "bytes",
          "name": "data",
          "type": "bytes"
        }
      ],
      "name": "upgradeToAndCall",
      "outputs": [],
      "stateMutability": "payable",
      "type": "function"
    },
    {
      "inputs": [
        {
          "internalType": "uint256",
          "name": "keyId",
          "type": "uint256"
        },
        {
          "internalType": "bytes32",
          "name": "arn",
          "type": "bytes32"
        },
        {
          "internalType": "uint256",
          "name": "amount",
          "type": "uint256"
        }
      ],
      "name": "withdrawal",
      "outputs": [
        {
          "internalType": "uint256",
          "name": "",
          "type": "uint256"
        },
        {
          "internalType": "uint256",
          "name": "",
          "type": "uint256"
        },
        {
          "internalType": "uint256",
          "name": "",
          "type": "uint256"
        }
      ],
      "stateMutability": "nonpayable",
      "type": "function"
    }
  ],
  "bytecode": "0x60a0604052306080523480156200001557600080fd5b506200002062000026565b620000e8565b600054610100900460ff1615620000935760405162461bcd60e51b815260206004820152602760248201527f496e697469616c697a61626c653a20636f6e747261637420697320696e697469604482015266616c697a696e6760c81b606482015260840160405180910390fd5b60005460ff9081161015620000e6576000805460ff191660ff9081179091556040519081527f7f26b83ff96e1f2b6a682f133852f6798a09c465da95921460cefb38474024989060200160405180910390a15b565b60805161262462000120600039600081816105b00152818161063501528181610741015281816107c601526108b001526126246000f3fe6080604052600436106101445760003560e01c806377017792116100c0578063d84681e211610074578063ed279f1911610059578063ed279f1914610388578063f2fde38b1461039d578063f8853b1d146103bd57600080fd5b8063d84681e214610348578063e009d93c1461036857600080fd5b80639d54c79d116100a55780639d54c79d146102da578063a9007803146102fa578063c4d66de81461032857600080fd5b806377017792146102935780638da5cb5b146102a857600080fd5b80634f1ef286116101175780635d48d49d116100fc5780635d48d49d1461023b578063715018a614610250578063761ba7581461026557600080fd5b80634f1ef2861461020557806352d1902d1461021857600080fd5b80630331d4de1461014957806312e57629146101895780633659cfe6146101b65780633fdada9e146101d8575b600080fd5b34801561015557600080fd5b50610169610164366004611ee8565b6103dd565b604080519384526020840192909252908201526060015b60405180910390f35b34801561019557600080fd5b506101a96101a4366004611ee8565b610586565b6040516101809190611f58565b3480156101c257600080fd5b506101d66101d1366004611f87565b6105a6565b005b3480156101e457600080fd5b506101f86101f3366004611fa2565b610721565b6040516101809190612007565b6101d6610213366004612061565b610737565b34801561022457600080fd5b5061022d6108a3565b604051908152602001610180565b34801561024757600080fd5b5061022d600081565b34801561025c57600080fd5b506101d6610968565b34801561027157600080fd5b50610285610280366004611ee8565b61097c565b604051610180929190612107565b34801561029f57600080fd5b5061022d600181565b3480156102b457600080fd5b506033546001600160a01b03165b6040516001600160a01b039091168152602001610180565b3480156102e657600080fd5b5060c9546102c2906001600160a01b031681565b34801561030657600080fd5b5061031a610315366004611fa2565b6109a4565b60405161018092919061212c565b34801561033457600080fd5b506101d6610343366004611f87565b610acb565b34801561035457600080fd5b50610169610363366004611ee8565b610c1b565b34801561037457600080fd5b5061022d610383366004612184565b610dc7565b34801561039457600080fd5b5061022d600281565b3480156103a957600080fd5b506101d66103b8366004611f87565b611003565b3480156103c957600080fd5b506101f86103d8366004612218565b611090565b60008060008084116104245760405162461bcd60e51b815260206004820152600b60248201526a16915493d7d05353d5539560aa1b60448201526064015b60405180910390fd5b60c9546040517fbb4ec12d0000000000000000000000000000000000000000000000000000000081523360048201526024810188905260448101879052606481018690526000916001600160a01b03169063bb4ec12d906084016020604051808303816000875af115801561049d573d6000803e3d6000fd5b505050506040513d601f19601f820116820180604052508101906104c19190612280565b905060006104d260ca33898961115a565b600083815260d260205260408120919250906104f090338a8a61115a565b60008a815260d3602052604081209192509061050e90338b8b61115a565b60408051338152602081018790529081018c9052606081018b9052608081018a905260a0810182905260c0810184905260e081018590529091507f2de93f8cac90b8d542dab00b5b11fedc8227506d3cc8e69688e2c27a7a55655790610100015b60405180910390a199909850909650945050505050565b606061059c826105968686611282565b90611316565b90505b9392505050565b6001600160a01b037f00000000000000000000000000000000000000000000000000000000000000001630036106335760405162461bcd60e51b815260206004820152602c60248201527f46756e6374696f6e206d7573742062652063616c6c6564207468726f7567682060448201526b19195b1959d85d1958d85b1b60a21b606482015260840161041b565b7f00000000000000000000000000000000000000000000000000000000000000006001600160a01b031661068e7f360894a13ba1a3210667c828492db98dca3e2076cc3735a920a3ca505d382bbc546001600160a01b031690565b6001600160a01b0316146106f95760405162461bcd60e51b815260206004820152602c60248201527f46756e6374696f6e206d7573742062652063616c6c6564207468726f7567682060448201526b6163746976652070726f787960a01b606482015260840161041b565b6107028161134d565b6040805160008082526020820190925261071e91839190611355565b50565b606061059c826107318686611282565b906114fa565b6001600160a01b037f00000000000000000000000000000000000000000000000000000000000000001630036107c45760405162461bcd60e51b815260206004820152602c60248201527f46756e6374696f6e206d7573742062652063616c6c6564207468726f7567682060448201526b19195b1959d85d1958d85b1b60a21b606482015260840161041b565b7f00000000000000000000000000000000000000000000000000000000000000006001600160a01b031661081f7f360894a13ba1a3210667c828492db98dca3e2076cc3735a920a3ca505d382bbc546001600160a01b031690565b6001600160a01b03161461088a5760405162461bcd60e51b815260206004820152602c60248201527f46756e6374696f6e206d7573742062652063616c6c6564207468726f7567682060448201526b6163746976652070726f787960a01b606482015260840161041b565b6108938261134d565b61089f82826001611355565b5050565b6000306001600160a01b037f000000000000000000000000000000000000000000000000000000000000000016146109435760405162461bcd60e51b815260206004820152603860248201527f555550535570677261646561626c653a206d757374206e6f742062652063616c60448201527f6c6564207468726f7567682064656c656761746563616c6c0000000000000000606482015260840161041b565b507f360894a13ba1a3210667c828492db98dca3e2076cc3735a920a3ca505d382bbc90565b610970611539565b61097a6000611593565b565b606080600061098b8686611282565b905061099781856115f2565b9250925050935093915050565b6040517f3fdada9e00000000000000000000000000000000000000000000000000000000815260048101849052602481018390526001600160a01b038216604482015260609081906000903090633fdada9e90606401600060405180830381865afa158015610a17573d6000803e3d6000fd5b505050506040513d6000823e601f3d908101601f19168201604052610a3f91908101906122bd565b6040517ff8853b1d0000000000000000000000000000000000000000000000000000000081529091508190309063f8853b1d90610a86908a908a908a908790600401612353565b600060405180830381865afa158015610aa3573d6000803e3d6000fd5b505050506040513d6000823e601f3d908101601f1916820160405261099791908101906122bd565b600054610100900460ff1615808015610aeb5750600054600160ff909116105b80610b055750303b158015610b05575060005460ff166001145b610b775760405162461bcd60e51b815260206004820152602e60248201527f496e697469616c697a61626c653a20636f6e747261637420697320616c72656160448201527f647920696e697469616c697a6564000000000000000000000000000000000000606482015260840161041b565b6000805460ff191660011790558015610b9a576000805461ff0019166101001790555b610ba26116fe565b610baa611771565b60c9805473ffffffffffffffffffffffffffffffffffffffff19166001600160a01b038416179055801561089f576000805461ff0019169055604051600181527f7f26b83ff96e1f2b6a682f133852f6798a09c465da95921460cefb38474024989060200160405180910390a15050565b6000806000808411610c5d5760405162461bcd60e51b815260206004820152600b60248201526a16915493d7d05353d5539560aa1b604482015260640161041b565b60c9546040517ffc9cea050000000000000000000000000000000000000000000000000000000081523360048201526024810188905260448101879052606481018690526000916001600160a01b03169063fc9cea05906084016020604051808303816000875af1158015610cd6573d6000803e3d6000fd5b505050506040513d601f19601f82011682018060405250810190610cfa9190612280565b90506000610d0b60ca3389896117dc565b600083815260d26020526040812091925090610d2990338a8a6117dc565b60008a815260d36020526040812091925090610d4790338b8b6117dc565b9050818310158015610d595750808210155b610d6557610d6561238b565b60408051338152602081018690529081018b9052606081018a90526080810189905260a0810182905260c0810183905260e081018490527fc80770ceaa2b90f03c8fb8b7226bdb6541c4468463c6b85ef241b870e993c14e906101000161056f565b60c9546040517fac7532ae00000000000000000000000000000000000000000000000000000000815260009182916001600160a01b039091169063ac7532ae90610e239033908d908d908d908d908d908d908d906004016123ec565b6020604051808303816000875af1158015610e42573d6000803e3d6000fd5b505050506040513d601f19601f82011682018060405250810190610e669190612280565b90506000805b86811015610f8f5788888883818110610e8757610e87612447565b9050602002013503610edb5760405162461bcd60e51b815260206004820152601160248201527f53454c465f444953545249425554494f4e000000000000000000000000000000604482015260640161041b565b6000868683818110610eef57610eef612447565b905060200201351115610f7d57610f558b8b888885818110610f1357610f13612447565b9050602002013560d360008d8d88818110610f3057610f30612447565b90506020020135815260200190815260200160002061115a909392919063ffffffff16565b50858582818110610f6857610f68612447565b9050602002013582610f7a9190612473565b91505b80610f8781612486565b915050610e6c565b50600088815260d360205260408120610faa908c8c856117dc565b90507f9956ba0ad4e8a804def4f3554854761b05eb393e91af83058f95f9161245bdf4338c8c868d8d8d8d8d8a604051610fed9a9998979695949392919061249f565b60405180910390a19a9950505050505050505050565b61100b611539565b6001600160a01b0381166110875760405162461bcd60e51b815260206004820152602660248201527f4f776e61626c653a206e6577206f776e657220697320746865207a65726f206160448201527f6464726573730000000000000000000000000000000000000000000000000000606482015260840161041b565b61071e81611593565b6060600061109e8787611282565b905060008367ffffffffffffffff8111156110bb576110bb61201a565b6040519080825280602002602001820160405280156110e4578160200160208202803683370190505b50905060005b8481101561114e5761111f8787878481811061110857611108612447565b90506020020135856119939092919063ffffffff16565b82828151811061113157611131612447565b60209081029190910101528061114681612486565b9150506110ea565b50979650505050505050565b600061116960028601856119ea565b5061117485846119ff565b506001600160a01b0384166000908152600486016020526040902061119990846119ff565b50600083815260058601602052604090206111b490856119ea565b506000838152600686016020526040812080548492906111d5908490612473565b90915550506001600160a01b038416600090815260078601602090815260408083208684529091528120805484929061120f908490612473565b90915550506001600160a01b03841660009081526007860160209081526040808320868452825280832054600689019092529091205410156112535761125361238b565b506001600160a01b03831660009081526007850160209081526040808320858452909152902054949350505050565b6000600383106112d45760405162461bcd60e51b815260206004820152600f60248201527f494e56414c49445f434f4e544558540000000000000000000000000000000000604482015260640161041b565b826001036112f05750600081815260d260205260409020611310565b8260020361130c5750600081815260d360205260409020611310565b5060ca5b92915050565b606060008290036113345761132d83600201611a0b565b9050611310565b6000828152600584016020526040902061059f90611a0b565b61071e611539565b7f4910fdfa16fed3260ed0e7147f7cc6da11a60208b5b9406d12a635614ffd91435460ff161561138d5761138883611a18565b505050565b826001600160a01b03166352d1902d6040518163ffffffff1660e01b8152600401602060405180830381865afa9250505080156113e7575060408051601f3d908101601f191682019092526113e491810190612280565b60015b6114595760405162461bcd60e51b815260206004820152602e60248201527f45524331393637557067726164653a206e657720696d706c656d656e7461746960448201527f6f6e206973206e6f742055555053000000000000000000000000000000000000606482015260840161041b565b7f360894a13ba1a3210667c828492db98dca3e2076cc3735a920a3ca505d382bbc81146114ee5760405162461bcd60e51b815260206004820152602960248201527f45524331393637557067726164653a20756e737570706f727465642070726f7860448201527f6961626c65555549440000000000000000000000000000000000000000000000606482015260840161041b565b50611388838383611ae3565b60606001600160a01b0382166000036115165761132d83611b0e565b6001600160a01b0382166000908152600484016020526040902061059f90611b0e565b6033546001600160a01b0316331461097a5760405162461bcd60e51b815260206004820181905260248201527f4f776e61626c653a2063616c6c6572206973206e6f7420746865206f776e6572604482015260640161041b565b603380546001600160a01b0383811673ffffffffffffffffffffffffffffffffffffffff19831681179093556040519116919082907f8be0079c531659141344cd1fd0a4f28419497f9722a3daafe3b4186f6b6457e090600090a35050565b60008181526005830160205260408120606091829161161090611a0b565b90506000815167ffffffffffffffff81111561162e5761162e61201a565b604051908082528060200260200182016040528015611657578160200160208202803683370190505b50905060005b82518160ff1610156116f057866007016000848360ff168151811061168457611684612447565b60200260200101516001600160a01b03166001600160a01b03168152602001908152602001600020600087815260200190815260200160002054828260ff16815181106116d3576116d3612447565b6020908102919091010152806116e88161250c565b91505061165d565b5090925090505b9250929050565b600054610100900460ff166117695760405162461bcd60e51b815260206004820152602b60248201527f496e697469616c697a61626c653a20636f6e7472616374206973206e6f74206960448201526a6e697469616c697a696e6760a81b606482015260840161041b565b61097a611b19565b600054610100900460ff1661097a5760405162461bcd60e51b815260206004820152602b60248201527f496e697469616c697a61626c653a20636f6e7472616374206973206e6f74206960448201526a6e697469616c697a696e6760a81b606482015260840161041b565b60006117e88584611b8d565b801561181957506001600160a01b038416600090815260078601602090815260408083208684529091529020548211155b6118655760405162461bcd60e51b815260206004820152600960248201527f4f56455244524146540000000000000000000000000000000000000000000000604482015260640161041b565b60008381526006860160205260408120805484929061188590849061252b565b90915550506001600160a01b03841660009081526007860160209081526040808320868452909152812080548492906118bf90849061252b565b90915550506001600160a01b038416600090815260078601602090815260408083208684529091528120549003611931576001600160a01b038416600090815260048601602052604090206119149084611ba5565b506000838152600586016020526040902061192f9085611bb1565b505b60008381526006860160205260408120549003611954576119528584611ba5565b505b6001600160a01b03841660009081526007860160209081526040808320868452825280832054600689019092529091205410156112535761125361238b565b60006001600160a01b03831681036119bc5750600081815260068401602052604090205461059f565b506001600160a01b038216600090815260078401602090815260408083208484529091529020549392505050565b600061059f836001600160a01b038416611bc6565b600061059f8383611bc6565b6060600061059f83611c15565b6001600160a01b0381163b611a955760405162461bcd60e51b815260206004820152602d60248201527f455243313936373a206e657720696d706c656d656e746174696f6e206973206e60448201527f6f74206120636f6e747261637400000000000000000000000000000000000000606482015260840161041b565b7f360894a13ba1a3210667c828492db98dca3e2076cc3735a920a3ca505d382bbc805473ffffffffffffffffffffffffffffffffffffffff19166001600160a01b0392909216919091179055565b611aec83611c71565b600082511180611af95750805b1561138857611b088383611cb1565b50505050565b606061131082611c15565b600054610100900460ff16611b845760405162461bcd60e51b815260206004820152602b60248201527f496e697469616c697a61626c653a20636f6e7472616374206973206e6f74206960448201526a6e697469616c697a696e6760a81b606482015260840161041b565b61097a33611593565b6000818152600183016020526040812054151561059f565b600061059f8383611dbc565b600061059f836001600160a01b038416611dbc565b6000818152600183016020526040812054611c0d57508154600181810184556000848152602080822090930184905584548482528286019093526040902091909155611310565b506000611310565b606081600001805480602002602001604051908101604052809291908181526020018280548015611c6557602002820191906000526020600020905b815481526020019060010190808311611c51575b50505050509050919050565b611c7a81611a18565b6040516001600160a01b038216907fbc7cd75a20ee27fd9adebab32041f755214dbc6bffa90cc0225b39da2e5c2d3b90600090a250565b60606001600160a01b0383163b611d305760405162461bcd60e51b815260206004820152602660248201527f416464726573733a2064656c65676174652063616c6c20746f206e6f6e2d636f60448201527f6e74726163740000000000000000000000000000000000000000000000000000606482015260840161041b565b600080846001600160a01b031684604051611d4b9190612562565b600060405180830381855af49150503d8060008114611d86576040519150601f19603f3d011682016040523d82523d6000602084013e611d8b565b606091505b5091509150611db382826040518060600160405280602781526020016125c860279139611eaf565b95945050505050565b60008181526001830160205260408120548015611ea5576000611de060018361252b565b8554909150600090611df49060019061252b565b9050818114611e59576000866000018281548110611e1457611e14612447565b9060005260206000200154905080876000018481548110611e3757611e37612447565b6000918252602080832090910192909255918252600188019052604090208390555b8554869080611e6a57611e6a61257e565b600190038181906000526020600020016000905590558560010160008681526020019081526020016000206000905560019350505050611310565b6000915050611310565b60608315611ebe57508161059f565b825115611ece5782518084602001fd5b8160405162461bcd60e51b815260040161041b9190612594565b600080600060608486031215611efd57600080fd5b505081359360208301359350604090920135919050565b600081518084526020808501945080840160005b83811015611f4d5781516001600160a01b031687529582019590820190600101611f28565b509495945050505050565b60208152600061059f6020830184611f14565b80356001600160a01b0381168114611f8257600080fd5b919050565b600060208284031215611f9957600080fd5b61059f82611f6b565b600080600060608486031215611fb757600080fd5b8335925060208401359150611fce60408501611f6b565b90509250925092565b600081518084526020808501945080840160005b83811015611f4d57815187529582019590820190600101611feb565b60208152600061059f6020830184611fd7565b634e487b7160e01b600052604160045260246000fd5b604051601f8201601f1916810167ffffffffffffffff811182821017156120595761205961201a565b604052919050565b6000806040838503121561207457600080fd5b61207d83611f6b565b915060208084013567ffffffffffffffff8082111561209b57600080fd5b818601915086601f8301126120af57600080fd5b8135818111156120c1576120c161201a565b6120d3601f8201601f19168501612030565b915080825287848285010111156120e957600080fd5b80848401858401376000848284010152508093505050509250929050565b60408152600061211a6040830185611f14565b8281036020840152611db38185611fd7565b60408152600061211a6040830185611fd7565b60008083601f84011261215157600080fd5b50813567ffffffffffffffff81111561216957600080fd5b6020830191508360208260051b85010111156116f757600080fd5b600080600080600080600060a0888a03121561219f57600080fd5b6121a888611f6b565b96506020880135955060408801359450606088013567ffffffffffffffff808211156121d357600080fd5b6121df8b838c0161213f565b909650945060808a01359150808211156121f857600080fd5b506122058a828b0161213f565b989b979a50959850939692959293505050565b60008060008060006080868803121561223057600080fd5b853594506020860135935061224760408701611f6b565b9250606086013567ffffffffffffffff81111561226357600080fd5b61226f8882890161213f565b969995985093965092949392505050565b60006020828403121561229257600080fd5b5051919050565b600067ffffffffffffffff8211156122b3576122b361201a565b5060051b60200190565b600060208083850312156122d057600080fd5b825167ffffffffffffffff8111156122e757600080fd5b8301601f810185136122f857600080fd5b805161230b61230682612299565b612030565b81815260059190911b8201830190838101908783111561232a57600080fd5b928401925b828410156123485783518252928401929084019061232f565b979650505050505050565b8481528360208201526001600160a01b03831660408201526080606082015260006123816080830184611fd7565b9695505050505050565b634e487b7160e01b600052600160045260246000fd5b81835260007f07ffffffffffffffffffffffffffffffffffffffffffffffffffffffffffffff8311156123d357600080fd5b8260051b80836020870137939093016020019392505050565b60006001600160a01b03808b168352808a1660208401525087604083015286606083015260c0608083015261242560c0830186886123a1565b82810360a08401526124388185876123a1565b9b9a5050505050505050505050565b634e487b7160e01b600052603260045260246000fd5b634e487b7160e01b600052601160045260246000fd5b808201808211156113105761131061245d565b6000600182016124985761249861245d565b5060010190565b60006101006001600160a01b03808e168452808d166020850152508a60408401528960608401528860808401528060a08401526124df818401888a6123a1565b905082810360c08401526124f48186886123a1565b9150508260e08301529b9a5050505050505050505050565b600060ff821660ff81036125225761252261245d565b60010192915050565b818103818111156113105761131061245d565b60005b83811015612559578181015183820152602001612541565b50506000910152565b6000825161257481846020870161253e565b9190910192915050565b634e487b7160e01b600052603160045260246000fd5b60208152600082518060208401526125b381604085016020870161253e565b601f01601f1916919091016040019291505056fe416464726573733a206c6f772d6c6576656c2064656c65676174652063616c6c206661696c6564a26469706673582212207923a138a12e59df58c876e078c84cc9bae00d333d1d9786c66bb1d35301965264736f6c63430008100033",
  "linkReferences": {},
  "deployedLinkReferences": {}
}