{
  "_format": "hh-sol-artifact-1",
  "contractName": "TokenVault",
  "sourceName": "contracts/providers/TokenVault.sol",
  "abi": [
    {
      "inputs": [],
      "stateMutability": "nonpayable",
      "type": "constructor"
    },
    {
      "anonymous": false,
      "inputs": [
        {
          "indexed": false,
          "internalType": "address",
          "name": "previousAdmin",
          "type": "address"
        },
        {
          "indexed": false,
          "internalType": "address",
          "name": "newAdmin",
          "type": "address"
        }
      ],
      "name": "AdminChanged",
      "type": "event"
    },
    {
      "anonymous": false,
      "inputs": [
        {
          "indexed": true,
          "internalType": "address",
          "name": "beacon",
          "type": "address"
        }
      ],
      "name": "BeaconUpgraded",
      "type": "event"
    },
    {
      "anonymous": false,
      "inputs": [
        {
          "indexed": false,
          "internalType": "uint8",
          "name": "version",
          "type": "uint8"
        }
      ],
      "name": "Initialized",
      "type": "event"
    },
    {
      "anonymous": false,
      "inputs": [
        {
          "indexed": true,
          "internalType": "address",
          "name": "previousOwner",
          "type": "address"
        },
        {
          "indexed": true,
          "internalType": "address",
          "name": "newOwner",
          "type": "address"
        }
      ],
      "name": "OwnershipTransferred",
      "type": "event"
    },
    {
      "anonymous": false,
      "inputs": [
        {
          "indexed": true,
          "internalType": "address",
          "name": "implementation",
          "type": "address"
        }
      ],
      "name": "Upgraded",
      "type": "event"
    },
    {
      "inputs": [
        {
          "internalType": "uint256",
          "name": "keyId",
          "type": "uint256"
        },
        {
          "internalType": "bytes32",
          "name": "arn",
          "type": "bytes32"
        },
        {
          "internalType": "uint256",
          "name": "amount",
          "type": "uint256"
        }
      ],
      "name": "arnWithdrawal",
      "outputs": [],
      "stateMutability": "nonpayable",
      "type": "function"
    },
    {
      "inputs": [
        {
          "internalType": "uint256",
          "name": "keyId",
          "type": "uint256"
        },
        {
          "internalType": "address",
          "name": "token",
          "type": "address"
        },
        {
          "internalType": "uint256",
          "name": "amount",
          "type": "uint256"
        }
      ],
      "name": "deposit",
      "outputs": [],
      "stateMutability": "nonpayable",
      "type": "function"
    },
    {
      "inputs": [
        {
          "internalType": "uint256",
          "name": "keyId",
          "type": "uint256"
        }
      ],
      "name": "getTokenTypes",
      "outputs": [
        {
          "internalType": "address[]",
          "name": "",
          "type": "address[]"
        }
      ],
      "stateMutability": "view",
      "type": "function"
    },
    {
      "inputs": [
        {
          "internalType": "address",
          "name": "_Locksmith",
          "type": "address"
        },
        {
          "internalType": "address",
          "name": "_Ledger",
          "type": "address"
        }
      ],
      "name": "initialize",
      "outputs": [],
      "stateMutability": "nonpayable",
      "type": "function"
    },
    {
      "inputs": [],
      "name": "ledger",
      "outputs": [
        {
          "internalType": "contract ILedger",
          "name": "",
          "type": "address"
        }
      ],
      "stateMutability": "view",
      "type": "function"
    },
    {
      "inputs": [],
      "name": "locksmith",
      "outputs": [
        {
          "internalType": "contract ILocksmith",
          "name": "",
          "type": "address"
        }
      ],
      "stateMutability": "view",
      "type": "function"
    },
    {
      "inputs": [],
      "name": "owner",
      "outputs": [
        {
          "internalType": "address",
          "name": "",
          "type": "address"
        }
      ],
      "stateMutability": "view",
      "type": "function"
    },
    {
      "inputs": [],
      "name": "proxiableUUID",
      "outputs": [
        {
          "internalType": "bytes32",
          "name": "",
          "type": "bytes32"
        }
      ],
      "stateMutability": "view",
      "type": "function"
    },
    {
      "inputs": [],
      "name": "renounceOwnership",
      "outputs": [],
      "stateMutability": "nonpayable",
      "type": "function"
    },
    {
      "inputs": [
        {
          "internalType": "address",
          "name": "newOwner",
          "type": "address"
        }
      ],
      "name": "transferOwnership",
      "outputs": [],
      "stateMutability": "nonpayable",
      "type": "function"
    },
    {
      "inputs": [
        {
          "internalType": "address",
          "name": "newImplementation",
          "type": "address"
        }
      ],
      "name": "upgradeTo",
      "outputs": [],
      "stateMutability": "nonpayable",
      "type": "function"
    },
    {
      "inputs": [
        {
          "internalType": "address",
          "name": "newImplementation",
          "type": "address"
        },
        {
          "internalType": "bytes",
          "name": "data",
          "type": "bytes"
        }
      ],
      "name": "upgradeToAndCall",
      "outputs": [],
      "stateMutability": "payable",
      "type": "function"
    },
    {
      "inputs": [
        {
          "internalType": "uint256",
          "name": "keyId",
          "type": "uint256"
        },
        {
          "internalType": "address",
          "name": "token",
          "type": "address"
        },
        {
          "internalType": "uint256",
          "name": "amount",
          "type": "uint256"
        }
      ],
      "name": "withdrawal",
      "outputs": [],
      "stateMutability": "nonpayable",
      "type": "function"
    }
  ],
  "bytecode": "0x60a06040523060805234801561001457600080fd5b5061001d610022565b6100e2565b600054610100900460ff161561008e5760405162461bcd60e51b815260206004820152602760248201527f496e697469616c697a61626c653a20636f6e747261637420697320696e697469604482015266616c697a696e6760c81b606482015260840160405180910390fd5b60005460ff90811610156100e0576000805460ff191660ff9081179091556040519081527f7f26b83ff96e1f2b6a682f133852f6798a09c465da95921460cefb38474024989060200160405180910390a15b565b608051611c6e61011960003960008181610333015281816103bd01528181610640015281816106c501526107af0152611c6e6000f3fe6080604052600436106100d25760003560e01c806352d1902d1161007f5780638da5cb5b116100595780638da5cb5b1461020e578063bc157ac11461022c578063f24ff92c1461024c578063f2fde38b1461026c57600080fd5b806352d1902d146101b657806356397c35146101d9578063715018a6146101f957600080fd5b8063485cc955116100b0578063485cc955146101635780634dc33cd9146101835780634f1ef286146101a357600080fd5b806313fb817e146100d75780632eb13096146101145780633659cfe614610141575b600080fd5b3480156100e357600080fd5b5060c9546100f7906001600160a01b031681565b6040516001600160a01b0390911681526020015b60405180910390f35b34801561012057600080fd5b5061013461012f3660046117d2565b61028c565b60405161010b91906117eb565b34801561014d57600080fd5b5061016161015c36600461184d565b610329565b005b34801561016f57600080fd5b5061016161017e36600461186a565b6104a9565b34801561018f57600080fd5b5061016161019e3660046118a3565b610610565b6101616101b1366004611916565b610636565b3480156101c257600080fd5b506101cb6107a2565b60405190815260200161010b565b3480156101e557600080fd5b5060ca546100f7906001600160a01b031681565b34801561020557600080fd5b50610161610867565b34801561021a57600080fd5b506033546001600160a01b03166100f7565b34801561023857600080fd5b506101616102473660046119be565b61087b565b34801561025857600080fd5b506101616102673660046119be565b610d0c565b34801561027857600080fd5b5061016161028736600461184d565b610d6f565b60c9546040516344766d2960e11b8152600481018390526060916000916001600160a01b03909116906388ecda5290602401600060405180830381865afa1580156102db573d6000803e3d6000fd5b505050506040513d6000823e601f3d908101601f191682016040526103039190810190611a0b565b5050600081815260cb6020526040902090935061032292509050610dfc565b9392505050565b6001600160a01b037f00000000000000000000000000000000000000000000000000000000000000001630036103bb5760405162461bcd60e51b815260206004820152602c60248201527f46756e6374696f6e206d7573742062652063616c6c6564207468726f7567682060448201526b19195b1959d85d1958d85b1b60a21b60648201526084015b60405180910390fd5b7f00000000000000000000000000000000000000000000000000000000000000006001600160a01b03166104167f360894a13ba1a3210667c828492db98dca3e2076cc3735a920a3ca505d382bbc546001600160a01b031690565b6001600160a01b0316146104815760405162461bcd60e51b815260206004820152602c60248201527f46756e6374696f6e206d7573742062652063616c6c6564207468726f7567682060448201526b6163746976652070726f787960a01b60648201526084016103b2565b61048a81610e09565b604080516000808252602082019092526104a691839190610e11565b50565b600054610100900460ff16158080156104c95750600054600160ff909116105b806104e35750303b1580156104e3575060005460ff166001145b6105555760405162461bcd60e51b815260206004820152602e60248201527f496e697469616c697a61626c653a20636f6e747261637420697320616c72656160448201527f647920696e697469616c697a656400000000000000000000000000000000000060648201526084016103b2565b6000805460ff191660011790558015610578576000805461ff0019166101001790555b610580610fb1565b610588611024565b60c980546001600160a01b0380861673ffffffffffffffffffffffffffffffffffffffff199283161790925560ca805492851692909116919091179055801561060b576000805461ff0019169055604051600181527f7f26b83ff96e1f2b6a682f133852f6798a09c465da95921460cefb38474024989060200160405180910390a15b505050565b600082815260cc602052604090205461060b90849084906001600160a01b03168461108f565b6001600160a01b037f00000000000000000000000000000000000000000000000000000000000000001630036106c35760405162461bcd60e51b815260206004820152602c60248201527f46756e6374696f6e206d7573742062652063616c6c6564207468726f7567682060448201526b19195b1959d85d1958d85b1b60a21b60648201526084016103b2565b7f00000000000000000000000000000000000000000000000000000000000000006001600160a01b031661071e7f360894a13ba1a3210667c828492db98dca3e2076cc3735a920a3ca505d382bbc546001600160a01b031690565b6001600160a01b0316146107895760405162461bcd60e51b815260206004820152602c60248201527f46756e6374696f6e206d7573742062652063616c6c6564207468726f7567682060448201526b6163746976652070726f787960a01b60648201526084016103b2565b61079282610e09565b61079e82826001610e11565b5050565b6000306001600160a01b037f000000000000000000000000000000000000000000000000000000000000000016146108425760405162461bcd60e51b815260206004820152603860248201527f555550535570677261646561626c653a206d757374206e6f742062652063616c60448201527f6c6564207468726f7567682064656c656761746563616c6c000000000000000060648201526084016103b2565b507f360894a13ba1a3210667c828492db98dca3e2076cc3735a920a3ca505d382bbc90565b61086f611362565b61087960006113bc565b565b60c9546040805163b83ac19f60e01b815290516000926001600160a01b03169163b83ac19f9160048083019260209291908290030181865afa1580156108c5573d6000803e3d6000fd5b505050506040513d601f19601f820116820180604052508101906108e99190611ae8565b604051630f5d2cd560e11b815233600482015260248101869052600060448201526001600160a01b039190911690631eba59aa90606401602060405180830381865afa15801561093d573d6000803e3d6000fd5b505050506040513d601f19601f820116820180604052508101906109619190611b05565b1161099d5760405162461bcd60e51b815260206004820152600c60248201526b12d15657d393d517d211531160a21b60448201526064016103b2565b60408051606080820183526001600160a01b038516808352601460208085018290526000948601859052855180820184905280870192909252818401859052855180830390940184526080820180875284519482019490942080865260cc825294869020805473ffffffffffffffffffffffffffffffffffffffff1916841790556370a0823160e01b90935233608482015293519293859391926370a082319260a4808401938290030181865afa158015610a5c573d6000803e3d6000fd5b505050506040513d601f19601f82011682018060405250810190610a809190611b05565b1015610ace5760405162461bcd60e51b815260206004820152601360248201527f494e53554646494349454e545f544f4b454e530000000000000000000000000060448201526064016103b2565b6040517f23b872dd000000000000000000000000000000000000000000000000000000008152336004820152306024820152604481018390526001600160a01b038416906323b872dd906064016020604051808303816000875af1158015610b3a573d6000803e3d6000fd5b505050506040513d601f19601f82011682018060405250810190610b5e9190611b1e565b5060ca546040517f0331d4de0000000000000000000000000000000000000000000000000000000081526004810186905260248101839052604481018490526000916001600160a01b031690630331d4de906064016060604051808303816000875af1158015610bd2573d6000803e3d6000fd5b505050506040513d601f19601f82011682018060405250810190610bf69190611b39565b6040516370a0823160e01b81523060048201529093506001600160a01b03871692506370a082319150602401602060405180830381865afa158015610c3f573d6000803e3d6000fd5b505050506040513d601f19601f82011682018060405250810190610c639190611b05565b8114610c7157610c71611b67565b60c9546040516344766d2960e11b8152600481018790526000916001600160a01b0316906388ecda5290602401600060405180830381865afa158015610cbb573d6000803e3d6000fd5b505050506040513d6000823e601f3d908101601f19168201604052610ce39190810190611a0b565b5050600081815260cb60205260409020909350610d03925090508661141b565b50505050505050565b60408051606080820183526001600160a01b038516808352601460208085018290526000948601859052855180820193909352828601919091528183019390935283518082039092018252608001909252815191012061060b908490848461108f565b610d77611362565b6001600160a01b038116610df35760405162461bcd60e51b815260206004820152602660248201527f4f776e61626c653a206e6577206f776e657220697320746865207a65726f206160448201527f646472657373000000000000000000000000000000000000000000000000000060648201526084016103b2565b6104a6816113bc565b6060600061032283611439565b6104a6611362565b7f4910fdfa16fed3260ed0e7147f7cc6da11a60208b5b9406d12a635614ffd91435460ff1615610e445761060b83611495565b826001600160a01b03166352d1902d6040518163ffffffff1660e01b8152600401602060405180830381865afa925050508015610e9e575060408051601f3d908101601f19168201909252610e9b91810190611b05565b60015b610f105760405162461bcd60e51b815260206004820152602e60248201527f45524331393637557067726164653a206e657720696d706c656d656e7461746960448201527f6f6e206973206e6f74205555505300000000000000000000000000000000000060648201526084016103b2565b7f360894a13ba1a3210667c828492db98dca3e2076cc3735a920a3ca505d382bbc8114610fa55760405162461bcd60e51b815260206004820152602960248201527f45524331393637557067726164653a20756e737570706f727465642070726f7860448201527f6961626c6555554944000000000000000000000000000000000000000000000060648201526084016103b2565b5061060b838383611560565b600054610100900460ff1661101c5760405162461bcd60e51b815260206004820152602b60248201527f496e697469616c697a61626c653a20636f6e7472616374206973206e6f74206960448201526a6e697469616c697a696e6760a81b60648201526084016103b2565b61087961158b565b600054610100900460ff166108795760405162461bcd60e51b815260206004820152602b60248201527f496e697469616c697a61626c653a20636f6e7472616374206973206e6f74206960448201526a6e697469616c697a696e6760a81b60648201526084016103b2565b60c9546040805163b83ac19f60e01b815290516000926001600160a01b03169163b83ac19f9160048083019260209291908290030181865afa1580156110d9573d6000803e3d6000fd5b505050506040513d601f19601f820116820180604052508101906110fd9190611ae8565b604051630f5d2cd560e11b815233600482015260248101879052600060448201526001600160a01b039190911690631eba59aa90606401602060405180830381865afa158015611151573d6000803e3d6000fd5b505050506040513d601f19601f820116820180604052508101906111759190611b05565b116111b15760405162461bcd60e51b815260206004820152600c60248201526b12d15657d393d517d211531160a21b60448201526064016103b2565b60ca546040517fd84681e20000000000000000000000000000000000000000000000000000000081526004810186905260248101859052604481018390526000916001600160a01b03169063d84681e2906064016060604051808303816000875af1158015611224573d6000803e3d6000fd5b505050506040513d601f19601f820116820180604052508101906112489190611b39565b6040516370a0823160e01b81523060048201529093508392508491506001600160a01b038616906370a0823190602401602060405180830381865afa158015611295573d6000803e3d6000fd5b505050506040513d601f19601f820116820180604052508101906112b99190611b05565b6112c39190611b7d565b146112d0576112d0611b67565b6040517fa9059cbb000000000000000000000000000000000000000000000000000000008152336004820152602481018390526001600160a01b0384169063a9059cbb906044016020604051808303816000875af1158015611336573d6000803e3d6000fd5b505050506040513d601f19601f8201168201806040525081019061135a9190611b1e565b505050505050565b6033546001600160a01b031633146108795760405162461bcd60e51b815260206004820181905260248201527f4f776e61626c653a2063616c6c6572206973206e6f7420746865206f776e657260448201526064016103b2565b603380546001600160a01b0383811673ffffffffffffffffffffffffffffffffffffffff19831681179093556040519116919082907f8be0079c531659141344cd1fd0a4f28419497f9722a3daafe3b4186f6b6457e090600090a35050565b6000611430836001600160a01b0384166115ff565b90505b92915050565b60608160000180548060200260200160405190810160405280929190818152602001828054801561148957602002820191906000526020600020905b815481526020019060010190808311611475575b50505050509050919050565b6001600160a01b0381163b6115125760405162461bcd60e51b815260206004820152602d60248201527f455243313936373a206e657720696d706c656d656e746174696f6e206973206e60448201527f6f74206120636f6e74726163740000000000000000000000000000000000000060648201526084016103b2565b7f360894a13ba1a3210667c828492db98dca3e2076cc3735a920a3ca505d382bbc805473ffffffffffffffffffffffffffffffffffffffff19166001600160a01b0392909216919091179055565b6115698361164e565b6000825111806115765750805b1561060b57611585838361168e565b50505050565b600054610100900460ff166115f65760405162461bcd60e51b815260206004820152602b60248201527f496e697469616c697a61626c653a20636f6e7472616374206973206e6f74206960448201526a6e697469616c697a696e6760a81b60648201526084016103b2565b610879336113bc565b600081815260018301602052604081205461164657508154600181810184556000848152602080822090930184905584548482528286019093526040902091909155611433565b506000611433565b61165781611495565b6040516001600160a01b038216907fbc7cd75a20ee27fd9adebab32041f755214dbc6bffa90cc0225b39da2e5c2d3b90600090a250565b60606001600160a01b0383163b61170d5760405162461bcd60e51b815260206004820152602660248201527f416464726573733a2064656c65676174652063616c6c20746f206e6f6e2d636f60448201527f6e7472616374000000000000000000000000000000000000000000000000000060648201526084016103b2565b600080846001600160a01b0316846040516117289190611bc2565b600060405180830381855af49150503d8060008114611763576040519150601f19603f3d011682016040523d82523d6000602084013e611768565b606091505b50915091506117908282604051806060016040528060278152602001611c1260279139611799565b95945050505050565b606083156117a8575081610322565b8251156117b85782518084602001fd5b8160405162461bcd60e51b81526004016103b29190611bde565b6000602082840312156117e457600080fd5b5035919050565b6020808252825182820181905260009190848201906040850190845b8181101561182c5783516001600160a01b031683529284019291840191600101611807565b50909695505050505050565b6001600160a01b03811681146104a657600080fd5b60006020828403121561185f57600080fd5b813561032281611838565b6000806040838503121561187d57600080fd5b823561188881611838565b9150602083013561189881611838565b809150509250929050565b6000806000606084860312156118b857600080fd5b505081359360208301359350604090920135919050565b634e487b7160e01b600052604160045260246000fd5b604051601f8201601f1916810167ffffffffffffffff8111828210171561190e5761190e6118cf565b604052919050565b6000806040838503121561192957600080fd5b823561193481611838565b915060208381013567ffffffffffffffff8082111561195257600080fd5b818601915086601f83011261196657600080fd5b813581811115611978576119786118cf565b61198a601f8201601f191685016118e5565b915080825287848285010111156119a057600080fd5b80848401858401376000848284010152508093505050509250929050565b6000806000606084860312156119d357600080fd5b8335925060208401356119e581611838565b929592945050506040919091013590565b80518015158114611a0657600080fd5b919050565b600080600080600060a08688031215611a2357600080fd5b611a2c866119f6565b9450602080870151945060408701519350611a49606088016119f6565b9250608087015167ffffffffffffffff80821115611a6657600080fd5b818901915089601f830112611a7a57600080fd5b815181811115611a8c57611a8c6118cf565b8060051b9150611a9d8483016118e5565b818152918301840191848101908c841115611ab757600080fd5b938501935b83851015611ad557845182529385019390850190611abc565b8096505050505050509295509295909350565b600060208284031215611afa57600080fd5b815161032281611838565b600060208284031215611b1757600080fd5b5051919050565b600060208284031215611b3057600080fd5b611430826119f6565b600080600060608486031215611b4e57600080fd5b8351925060208401519150604084015190509250925092565b634e487b7160e01b600052600160045260246000fd5b8181038181111561143357634e487b7160e01b600052601160045260246000fd5b60005b83811015611bb9578181015183820152602001611ba1565b50506000910152565b60008251611bd4818460208701611b9e565b9190910192915050565b6020815260008251806020840152611bfd816040850160208701611b9e565b601f01601f1916919091016040019291505056fe416464726573733a206c6f772d6c6576656c2064656c65676174652063616c6c206661696c6564a2646970667358221220aca54de9135f7ba3895d5ab7a24f04bdc8a16555a5f9ad8e8abfee75144ddb5864736f6c63430008100033",
  "linkReferences": {},
  "deployedLinkReferences": {}
}