{
  "_format": "hh-sol-artifact-1",
  "contractName": "TokenVault",
  "sourceName": "contracts/providers/TokenVault.sol",
  "abi": [
    {
      "inputs": [],
      "stateMutability": "nonpayable",
      "type": "constructor"
    },
    {
      "anonymous": false,
      "inputs": [
        {
          "indexed": false,
          "internalType": "address",
          "name": "previousAdmin",
          "type": "address"
        },
        {
          "indexed": false,
          "internalType": "address",
          "name": "newAdmin",
          "type": "address"
        }
      ],
      "name": "AdminChanged",
      "type": "event"
    },
    {
      "anonymous": false,
      "inputs": [
        {
          "indexed": true,
          "internalType": "address",
          "name": "beacon",
          "type": "address"
        }
      ],
      "name": "BeaconUpgraded",
      "type": "event"
    },
    {
      "anonymous": false,
      "inputs": [
        {
          "indexed": false,
          "internalType": "uint8",
          "name": "version",
          "type": "uint8"
        }
      ],
      "name": "Initialized",
      "type": "event"
    },
    {
      "anonymous": false,
      "inputs": [
        {
          "indexed": true,
          "internalType": "address",
          "name": "previousOwner",
          "type": "address"
        },
        {
          "indexed": true,
          "internalType": "address",
          "name": "newOwner",
          "type": "address"
        }
      ],
      "name": "OwnershipTransferred",
      "type": "event"
    },
    {
      "anonymous": false,
      "inputs": [
        {
          "indexed": true,
          "internalType": "address",
          "name": "implementation",
          "type": "address"
        }
      ],
      "name": "Upgraded",
      "type": "event"
    },
    {
      "inputs": [
        {
          "internalType": "bytes32",
          "name": "",
          "type": "bytes32"
        }
      ],
      "name": "arnContracts",
      "outputs": [
        {
          "internalType": "address",
          "name": "",
          "type": "address"
        }
      ],
      "stateMutability": "view",
      "type": "function"
    },
    {
      "inputs": [
        {
          "internalType": "uint256",
          "name": "keyId",
          "type": "uint256"
        },
        {
          "internalType": "bytes32",
          "name": "arn",
          "type": "bytes32"
        },
        {
          "internalType": "uint256",
          "name": "amount",
          "type": "uint256"
        }
      ],
      "name": "arnWithdrawal",
      "outputs": [],
      "stateMutability": "nonpayable",
      "type": "function"
    },
    {
      "inputs": [
        {
          "internalType": "uint256",
          "name": "keyId",
          "type": "uint256"
        },
        {
          "internalType": "address",
          "name": "token",
          "type": "address"
        },
        {
          "internalType": "uint256",
          "name": "amount",
          "type": "uint256"
        }
      ],
      "name": "deposit",
      "outputs": [],
      "stateMutability": "nonpayable",
      "type": "function"
    },
    {
      "inputs": [
        {
          "internalType": "uint256",
          "name": "keyId",
          "type": "uint256"
        }
      ],
      "name": "getTokenTypes",
      "outputs": [
        {
          "internalType": "address[]",
          "name": "",
          "type": "address[]"
        }
      ],
      "stateMutability": "view",
      "type": "function"
    },
    {
      "inputs": [],
      "name": "getTrustedLedger",
      "outputs": [
        {
          "internalType": "address",
          "name": "",
          "type": "address"
        }
      ],
      "stateMutability": "view",
      "type": "function"
    },
    {
      "inputs": [
        {
          "internalType": "address",
          "name": "_Locksmith",
          "type": "address"
        },
        {
          "internalType": "address",
          "name": "_Ledger",
          "type": "address"
        }
      ],
      "name": "initialize",
      "outputs": [],
      "stateMutability": "nonpayable",
      "type": "function"
    },
    {
      "inputs": [],
      "name": "ledger",
      "outputs": [
        {
          "internalType": "contract ILedger",
          "name": "",
          "type": "address"
        }
      ],
      "stateMutability": "view",
      "type": "function"
    },
    {
      "inputs": [],
      "name": "locksmith",
      "outputs": [
        {
          "internalType": "contract ILocksmith",
          "name": "",
          "type": "address"
        }
      ],
      "stateMutability": "view",
      "type": "function"
    },
    {
      "inputs": [],
      "name": "owner",
      "outputs": [
        {
          "internalType": "address",
          "name": "",
          "type": "address"
        }
      ],
      "stateMutability": "view",
      "type": "function"
    },
    {
      "inputs": [],
      "name": "proxiableUUID",
      "outputs": [
        {
          "internalType": "bytes32",
          "name": "",
          "type": "bytes32"
        }
      ],
      "stateMutability": "view",
      "type": "function"
    },
    {
      "inputs": [],
      "name": "renounceOwnership",
      "outputs": [],
      "stateMutability": "nonpayable",
      "type": "function"
    },
    {
      "inputs": [
        {
          "internalType": "address",
          "name": "newOwner",
          "type": "address"
        }
      ],
      "name": "transferOwnership",
      "outputs": [],
      "stateMutability": "nonpayable",
      "type": "function"
    },
    {
      "inputs": [
        {
          "internalType": "address",
          "name": "newImplementation",
          "type": "address"
        }
      ],
      "name": "upgradeTo",
      "outputs": [],
      "stateMutability": "nonpayable",
      "type": "function"
    },
    {
      "inputs": [
        {
          "internalType": "address",
          "name": "newImplementation",
          "type": "address"
        },
        {
          "internalType": "bytes",
          "name": "data",
          "type": "bytes"
        }
      ],
      "name": "upgradeToAndCall",
      "outputs": [],
      "stateMutability": "payable",
      "type": "function"
    },
    {
      "inputs": [
        {
          "internalType": "uint256",
          "name": "keyId",
          "type": "uint256"
        },
        {
          "internalType": "address",
          "name": "token",
          "type": "address"
        },
        {
          "internalType": "uint256",
          "name": "amount",
          "type": "uint256"
        }
      ],
      "name": "withdrawal",
      "outputs": [],
      "stateMutability": "nonpayable",
      "type": "function"
    }
  ],
  "bytecode": "0x60a06040523073ffffffffffffffffffffffffffffffffffffffff1660809073ffffffffffffffffffffffffffffffffffffffff168152503480156200004457600080fd5b50620000616752b5c6c74bcf703960c01b620000af60201b60201c565b6200007d67bb5a99345715be6f60c01b620000af60201b60201c565b6200009967e7a8406f7814f13060c01b620000af60201b60201c565b620000a9620000b260201b60201c565b6200025d565b50565b600060019054906101000a900460ff161562000105576040517f08c379a0000000000000000000000000000000000000000000000000000000008152600401620000fc9062000200565b60405180910390fd5b60ff801660008054906101000a900460ff1660ff161015620001775760ff6000806101000a81548160ff021916908360ff1602179055507f7f26b83ff96e1f2b6a682f133852f6798a09c465da95921460cefb384740249860ff6040516200016e919062000240565b60405180910390a15b565b600082825260208201905092915050565b7f496e697469616c697a61626c653a20636f6e747261637420697320696e69746960008201527f616c697a696e6700000000000000000000000000000000000000000000000000602082015250565b6000620001e860278362000179565b9150620001f5826200018a565b604082019050919050565b600060208201905081810360008301526200021b81620001d9565b9050919050565b600060ff82169050919050565b6200023a8162000222565b82525050565b60006020820190506200025760008301846200022f565b92915050565b60805161346f62000295600039600081816104c10152818161054f01528181610947015281816109d50152610a85015261346f6000f3fe6080604052600436106100e85760003560e01c806356397c351161008a578063962047981161005957806396204798146102c1578063bc157ac1146102ec578063f24ff92c14610315578063f2fde38b1461033e576100e8565b806356397c35146102175780635ccca39814610242578063715018a61461027f5780638da5cb5b14610296576100e8565b8063485cc955116100c6578063485cc9551461017e5780634dc33cd9146101a75780634f1ef286146101d057806352d1902d146101ec576100e8565b806313fb817e146100ed5780632eb13096146101185780633659cfe614610155575b600080fd5b3480156100f957600080fd5b50610102610367565b60405161010f919061217f565b60405180910390f35b34801561012457600080fd5b5061013f600480360381019061013a91906121e4565b61038d565b60405161014c91906122e1565b60405180910390f35b34801561016157600080fd5b5061017c6004803603810190610177919061232f565b6104bf565b005b34801561018a57600080fd5b506101a560048036038101906101a0919061235c565b610647565b005b3480156101b357600080fd5b506101ce60048036038101906101c991906123d2565b6108c5565b005b6101ea60048036038101906101e5919061256b565b610945565b005b3480156101f857600080fd5b50610201610a81565b60405161020e91906125d6565b60405180910390f35b34801561022357600080fd5b5061022c610b3a565b6040516102399190612612565b60405180910390f35b34801561024e57600080fd5b506102696004803603810190610264919061262d565b610b60565b6040516102769190612669565b60405180910390f35b34801561028b57600080fd5b50610294610b93565b005b3480156102a257600080fd5b506102ab610ba7565b6040516102b89190612669565b60405180910390f35b3480156102cd57600080fd5b506102d6610bd1565b6040516102e39190612669565b60405180910390f35b3480156102f857600080fd5b50610313600480360381019061030e9190612684565b610c37565b005b34801561032157600080fd5b5061033c60048036038101906103379190612684565b611346565b005b34801561034a57600080fd5b506103656004803603810190610360919061232f565b6113cd565b005b60c960009054906101000a900473ffffffffffffffffffffffffffffffffffffffff1681565b60606103a367985263c55cf4867c60c01b611450565b6103b7679992aedeeae1331960c01b611450565b6103cb6728ade41690699da960c01b611450565b600060c960009054906101000a900473ffffffffffffffffffffffffffffffffffffffff1673ffffffffffffffffffffffffffffffffffffffff166388ecda52846040518263ffffffff1660e01b815260040161042891906126e6565b600060405180830381865afa158015610445573d6000803e3d6000fd5b505050506040513d6000823e3d601f19601f8201168201806040525081019061046e919061282b565b505092505050610488679d37abd7096bf8fb60c01b611450565b61049c67ce677faca8c0393f60c01b611450565b6104b760cb6000838152602001908152602001600020611453565b915050919050565b7f000000000000000000000000000000000000000000000000000000000000000073ffffffffffffffffffffffffffffffffffffffff163073ffffffffffffffffffffffffffffffffffffffff160361054d576040517f08c379a000000000000000000000000000000000000000000000000000000000815260040161054490612945565b60405180910390fd5b7f000000000000000000000000000000000000000000000000000000000000000073ffffffffffffffffffffffffffffffffffffffff1661058c611474565b73ffffffffffffffffffffffffffffffffffffffff16146105e2576040517f08c379a00000000000000000000000000000000000000000000000000000000081526004016105d9906129d7565b60405180910390fd5b6105eb816114cb565b61064481600067ffffffffffffffff81111561060a57610609612440565b5b6040519080825280601f01601f19166020018201604052801561063c5781602001600182028036833780820191505090505b506000611512565b50565b61065b67d6c39f6206b7d26a60c01b611450565b60008060019054906101000a900460ff1615905080801561068c5750600160008054906101000a900460ff1660ff16105b806106b9575061069b30611680565b1580156106b85750600160008054906101000a900460ff1660ff16145b5b6106f8576040517f08c379a00000000000000000000000000000000000000000000000000000000081526004016106ef90612a69565b60405180910390fd5b60016000806101000a81548160ff021916908360ff1602179055508015610735576001600060016101000a81548160ff0219169083151502179055505b6107496703dc40f44ddc288760c01b611450565b61075d6798aecad7f50554f660c01b611450565b610771678106876e21001bf960c01b611450565b6107856702da0e0e922c37f160c01b611450565b61078d6116a3565b6107a167a153f771404bd9ae60c01b611450565b6107b567e0f21a1b85494a9460c01b611450565b6107bd6116fc565b6107d16713718d8da0bdf7dc60c01b611450565b8260c960006101000a81548173ffffffffffffffffffffffffffffffffffffffff021916908373ffffffffffffffffffffffffffffffffffffffff1602179055506108266737e737f556d703d960c01b611450565b8160ca60006101000a81548173ffffffffffffffffffffffffffffffffffffffff021916908373ffffffffffffffffffffffffffffffffffffffff16021790555080156108c05760008060016101000a81548160ff0219169083151502179055507f7f26b83ff96e1f2b6a682f133852f6798a09c465da95921460cefb384740249860016040516108b79190612ad1565b60405180910390a15b505050565b6108d967242e21e062e9a88360c01b611450565b6108ed67a5341a7e4ec1da2460c01b611450565b6109016787e36063c36749ec60c01b611450565b610940838360cc600086815260200190815260200160002060009054906101000a900473ffffffffffffffffffffffffffffffffffffffff168461174d565b505050565b7f000000000000000000000000000000000000000000000000000000000000000073ffffffffffffffffffffffffffffffffffffffff163073ffffffffffffffffffffffffffffffffffffffff16036109d3576040517f08c379a00000000000000000000000000000000000000000000000000000000081526004016109ca90612945565b60405180910390fd5b7f000000000000000000000000000000000000000000000000000000000000000073ffffffffffffffffffffffffffffffffffffffff16610a12611474565b73ffffffffffffffffffffffffffffffffffffffff1614610a68576040517f08c379a0000000000000000000000000000000000000000000000000000000008152600401610a5f906129d7565b60405180910390fd5b610a71826114cb565b610a7d82826001611512565b5050565b60007f000000000000000000000000000000000000000000000000000000000000000073ffffffffffffffffffffffffffffffffffffffff163073ffffffffffffffffffffffffffffffffffffffff1614610b11576040517f08c379a0000000000000000000000000000000000000000000000000000000008152600401610b0890612b5e565b60405180910390fd5b7f360894a13ba1a3210667c828492db98dca3e2076cc3735a920a3ca505d382bbc60001b905090565b60ca60009054906101000a900473ffffffffffffffffffffffffffffffffffffffff1681565b60cc6020528060005260406000206000915054906101000a900473ffffffffffffffffffffffffffffffffffffffff1681565b610b9b611b61565b610ba56000611bdf565b565b6000603360009054906101000a900473ffffffffffffffffffffffffffffffffffffffff16905090565b6000610be76771c6c92e49a4205260c01b611450565b610bfb6776b77d6a686a47b360c01b611450565b610c0f67414c330156a08df660c01b611450565b60ca60009054906101000a900473ffffffffffffffffffffffffffffffffffffffff16905090565b610c4b674cc7c3721a75c8f960c01b611450565b610c5f6767a7c47d15992c3760c01b611450565b610c7367088fecb0d83c3b9e60c01b611450565b610c87679e48b59e0ef202f960c01b611450565b600060c960009054906101000a900473ffffffffffffffffffffffffffffffffffffffff1673ffffffffffffffffffffffffffffffffffffffff1663b83ac19f6040518163ffffffff1660e01b8152600401602060405180830381865afa158015610cf6573d6000803e3d6000fd5b505050506040513d601f19601f82011682018060405250810190610d1a9190612b93565b73ffffffffffffffffffffffffffffffffffffffff16631eba59aa338660006040518463ffffffff1660e01b8152600401610d5793929190612bcf565b602060405180830381865afa158015610d74573d6000803e3d6000fd5b505050506040513d601f19601f82011682018060405250810190610d989190612c06565b11610dd8576040517f08c379a0000000000000000000000000000000000000000000000000000000008152600401610dcf90612c7f565b60405180910390fd5b610dec675a7c455ae8bc3c7a60c01b611450565b610e006740846988a84a5ee460c01b611450565b610e1467bc44f3929c5d5ca460c01b611450565b6000610e5160405180606001604052808573ffffffffffffffffffffffffffffffffffffffff168152602001601481526020016000815250611ca5565b9050610e67676606ad12ea2e023b60c01b611450565b8260cc600083815260200190815260200160002060006101000a81548173ffffffffffffffffffffffffffffffffffffffff021916908373ffffffffffffffffffffffffffffffffffffffff160217905550610ecd67992d2139b956c3aa60c01b611450565b610ee16746d0864b47c656fb60c01b611450565b610ef567a360bf93ad80a8d860c01b611450565b818373ffffffffffffffffffffffffffffffffffffffff166370a08231336040518263ffffffff1660e01b8152600401610f2f9190612669565b602060405180830381865afa158015610f4c573d6000803e3d6000fd5b505050506040513d601f19601f82011682018060405250810190610f709190612c06565b1015610fb1576040517f08c379a0000000000000000000000000000000000000000000000000000000008152600401610fa890612ceb565b60405180910390fd5b610fc567b629f50e7e8e2b5160c01b611450565b610fd967698892d624e141dd60c01b611450565b610fed677d9cdf6381e5c47860c01b611450565b8273ffffffffffffffffffffffffffffffffffffffff166323b872dd3330856040518463ffffffff1660e01b815260040161102a93929190612d0b565b6020604051808303816000875af1158015611049573d6000803e3d6000fd5b505050506040513d601f19601f8201168201806040525081019061106d9190612d42565b506110826793e9899de573be3860c01b611450565b61109667e2982dc6b0bd72f360c01b611450565b600060ca60009054906101000a900473ffffffffffffffffffffffffffffffffffffffff1673ffffffffffffffffffffffffffffffffffffffff16630331d4de8684866040518463ffffffff1660e01b81526004016110f793929190612d6f565b6060604051808303816000875af1158015611116573d6000803e3d6000fd5b505050506040513d601f19601f8201168201806040525081019061113a9190612da6565b92505050611152673155ddc5cff2c32860c01b611450565b8260cd60008673ffffffffffffffffffffffffffffffffffffffff1673ffffffffffffffffffffffffffffffffffffffff16815260200190815260200160002060008282546111a19190612e28565b925050819055506111bc677b01cab49b7c1a2460c01b611450565b6111d067515daccdcad5980260c01b611450565b60cd60008573ffffffffffffffffffffffffffffffffffffffff1673ffffffffffffffffffffffffffffffffffffffff16815260200190815260200160002054811461121f5761121e612e5c565b5b611233678af4d6847016725260c01b611450565b61124767909333ea422249cf60c01b611450565b600060c960009054906101000a900473ffffffffffffffffffffffffffffffffffffffff1673ffffffffffffffffffffffffffffffffffffffff166388ecda52876040518263ffffffff1660e01b81526004016112a491906126e6565b600060405180830381865afa1580156112c1573d6000803e3d6000fd5b505050506040513d6000823e3d601f19601f820116820180604052508101906112ea919061282b565b5050925050506113046771e04d10ce2eaf1760c01b611450565b61131867db622929ba2422b060c01b611450565b61133d8560cb6000848152602001908152602001600020611ce590919063ffffffff16565b50505050505050565b61135a67f8e553c34538d5c160c01b611450565b61136e6788c10356a87d5b8860c01b611450565b611382677c4e4ffa1dd79f6360c01b611450565b6113c8836113c160405180606001604052808673ffffffffffffffffffffffffffffffffffffffff168152602001601481526020016000815250611ca5565b848461174d565b505050565b6113d5611b61565b600073ffffffffffffffffffffffffffffffffffffffff168173ffffffffffffffffffffffffffffffffffffffff1603611444576040517f08c379a000000000000000000000000000000000000000000000000000000000815260040161143b90612efd565b60405180910390fd5b61144d81611bdf565b50565b50565b6060600061146383600001611d15565b905060608190508092505050919050565b60006114a27f360894a13ba1a3210667c828492db98dca3e2076cc3735a920a3ca505d382bbc60001b611d71565b60000160009054906101000a900473ffffffffffffffffffffffffffffffffffffffff16905090565b6114df67e2b442a13d263f9f60c01b611450565b6114e7611b61565b6114fb67818fbcc87fbe8a6160c01b611450565b61150f678ed68499df168e2760c01b611450565b50565b61153e7f4910fdfa16fed3260ed0e7147f7cc6da11a60208b5b9406d12a635614ffd914360001b611d7b565b60000160009054906101000a900460ff16156115625761155d83611d85565b61167b565b8273ffffffffffffffffffffffffffffffffffffffff166352d1902d6040518163ffffffff1660e01b8152600401602060405180830381865afa9250505080156115ca57506040513d601f19601f820116820180604052508101906115c79190612f1d565b60015b611609576040517f08c379a000000000000000000000000000000000000000000000000000000000815260040161160090612fbc565b60405180910390fd5b7f360894a13ba1a3210667c828492db98dca3e2076cc3735a920a3ca505d382bbc60001b811461166e576040517f08c379a00000000000000000000000000000000000000000000000000000000081526004016116659061304e565b60405180910390fd5b5061167a838383611e3e565b5b505050565b6000808273ffffffffffffffffffffffffffffffffffffffff163b119050919050565b600060019054906101000a900460ff166116f2576040517f08c379a00000000000000000000000000000000000000000000000000000000081526004016116e9906130e0565b60405180910390fd5b6116fa611e6a565b565b600060019054906101000a900460ff1661174b576040517f08c379a0000000000000000000000000000000000000000000000000000000008152600401611742906130e0565b60405180910390fd5b565b61176167c8902342f2163ce960c01b611450565b6117756799c56a0b9eceb68e60c01b611450565b6117896788058d59cf1d23c660c01b611450565b61179d6786a538f92864714b60c01b611450565b600060c960009054906101000a900473ffffffffffffffffffffffffffffffffffffffff1673ffffffffffffffffffffffffffffffffffffffff1663b83ac19f6040518163ffffffff1660e01b8152600401602060405180830381865afa15801561180c573d6000803e3d6000fd5b505050506040513d601f19601f820116820180604052508101906118309190612b93565b73ffffffffffffffffffffffffffffffffffffffff16631eba59aa338760006040518463ffffffff1660e01b815260040161186d93929190612bcf565b602060405180830381865afa15801561188a573d6000803e3d6000fd5b505050506040513d601f19601f820116820180604052508101906118ae9190612c06565b116118ee576040517f08c379a00000000000000000000000000000000000000000000000000000000081526004016118e590612c7f565b60405180910390fd5b611902671328e30d1e33440a60c01b611450565b611916673aee886cc050bd5360c01b611450565b61192a6718b3e45ff581c3b360c01b611450565b600060ca60009054906101000a900473ffffffffffffffffffffffffffffffffffffffff1673ffffffffffffffffffffffffffffffffffffffff1663d84681e28686856040518463ffffffff1660e01b815260040161198b93929190612d6f565b6060604051808303816000875af11580156119aa573d6000803e3d6000fd5b505050506040513d601f19601f820116820180604052508101906119ce9190612da6565b925050506119e667250d0e0a6be7adfb60c01b611450565b8160cd60008573ffffffffffffffffffffffffffffffffffffffff1673ffffffffffffffffffffffffffffffffffffffff1681526020019081526020016000206000828254611a359190613100565b92505081905550611a5067429d56e6b39f094660c01b611450565b611a64679ba527d81cc0a23660c01b611450565b8060cd60008573ffffffffffffffffffffffffffffffffffffffff1673ffffffffffffffffffffffffffffffffffffffff1681526020019081526020016000205414611ab357611ab2612e5c565b5b611ac7672cb6c52ade937f3960c01b611450565b611adb67f2616e00634673bf60c01b611450565b8273ffffffffffffffffffffffffffffffffffffffff1663a9059cbb33846040518363ffffffff1660e01b8152600401611b16929190613134565b6020604051808303816000875af1158015611b35573d6000803e3d6000fd5b505050506040513d601f19601f82011682018060405250810190611b599190612d42565b505050505050565b611b69611ecb565b73ffffffffffffffffffffffffffffffffffffffff16611b87610ba7565b73ffffffffffffffffffffffffffffffffffffffff1614611bdd576040517f08c379a0000000000000000000000000000000000000000000000000000000008152600401611bd4906131a9565b60405180910390fd5b565b6000603360009054906101000a900473ffffffffffffffffffffffffffffffffffffffff16905081603360006101000a81548173ffffffffffffffffffffffffffffffffffffffff021916908373ffffffffffffffffffffffffffffffffffffffff1602179055508173ffffffffffffffffffffffffffffffffffffffff168173ffffffffffffffffffffffffffffffffffffffff167f8be0079c531659141344cd1fd0a4f28419497f9722a3daafe3b4186f6b6457e060405160405180910390a35050565b6000816000015182602001518360400151604051602001611cc8939291906131c9565b604051602081830303815290604052805190602001209050919050565b6000611d0d836000018373ffffffffffffffffffffffffffffffffffffffff1660001b611ed3565b905092915050565b606081600001805480602002602001604051908101604052809291908181526020018280548015611d6557602002820191906000526020600020905b815481526020019060010190808311611d51575b50505050509050919050565b6000819050919050565b6000819050919050565b611d8e81611680565b611dcd576040517f08c379a0000000000000000000000000000000000000000000000000000000008152600401611dc490613272565b60405180910390fd5b80611dfa7f360894a13ba1a3210667c828492db98dca3e2076cc3735a920a3ca505d382bbc60001b611d71565b60000160006101000a81548173ffffffffffffffffffffffffffffffffffffffff021916908373ffffffffffffffffffffffffffffffffffffffff16021790555050565b611e4783611f43565b600082511180611e545750805b15611e6557611e638383611f92565b505b505050565b600060019054906101000a900460ff16611eb9576040517f08c379a0000000000000000000000000000000000000000000000000000000008152600401611eb0906130e0565b60405180910390fd5b611ec9611ec4611ecb565b611bdf565b565b600033905090565b6000611edf8383612076565b611f38578260000182908060018154018082558091505060019003906000526020600020016000909190919091505582600001805490508360010160008481526020019081526020016000208190555060019050611f3d565b600090505b92915050565b611f4c81611d85565b8073ffffffffffffffffffffffffffffffffffffffff167fbc7cd75a20ee27fd9adebab32041f755214dbc6bffa90cc0225b39da2e5c2d3b60405160405180910390a250565b6060611f9d83611680565b611fdc576040517f08c379a0000000000000000000000000000000000000000000000000000000008152600401611fd390613304565b60405180910390fd5b6000808473ffffffffffffffffffffffffffffffffffffffff16846040516120049190613395565b600060405180830381855af49150503d806000811461203f576040519150601f19603f3d011682016040523d82523d6000602084013e612044565b606091505b509150915061206c828260405180606001604052806027815260200161341360279139612099565b9250505092915050565b600080836001016000848152602001908152602001600020541415905092915050565b606083156120a9578290506120f9565b6000835111156120bc5782518084602001fd5b816040517f08c379a00000000000000000000000000000000000000000000000000000000081526004016120f091906133f0565b60405180910390fd5b9392505050565b600073ffffffffffffffffffffffffffffffffffffffff82169050919050565b6000819050919050565b600061214561214061213b84612100565b612120565b612100565b9050919050565b60006121578261212a565b9050919050565b60006121698261214c565b9050919050565b6121798161215e565b82525050565b60006020820190506121946000830184612170565b92915050565b6000604051905090565b600080fd5b600080fd5b6000819050919050565b6121c1816121ae565b81146121cc57600080fd5b50565b6000813590506121de816121b8565b92915050565b6000602082840312156121fa576121f96121a4565b5b6000612208848285016121cf565b91505092915050565b600081519050919050565b600082825260208201905092915050565b6000819050602082019050919050565b600061224882612100565b9050919050565b6122588161223d565b82525050565b600061226a838361224f565b60208301905092915050565b6000602082019050919050565b600061228e82612211565b612298818561221c565b93506122a38361222d565b8060005b838110156122d45781516122bb888261225e565b97506122c683612276565b9250506001810190506122a7565b5085935050505092915050565b600060208201905081810360008301526122fb8184612283565b905092915050565b61230c8161223d565b811461231757600080fd5b50565b60008135905061232981612303565b92915050565b600060208284031215612345576123446121a4565b5b60006123538482850161231a565b91505092915050565b60008060408385031215612373576123726121a4565b5b60006123818582860161231a565b92505060206123928582860161231a565b9150509250929050565b6000819050919050565b6123af8161239c565b81146123ba57600080fd5b50565b6000813590506123cc816123a6565b92915050565b6000806000606084860312156123eb576123ea6121a4565b5b60006123f9868287016121cf565b935050602061240a868287016123bd565b925050604061241b868287016121cf565b9150509250925092565b600080fd5b600080fd5b6000601f19601f8301169050919050565b7f4e487b7100000000000000000000000000000000000000000000000000000000600052604160045260246000fd5b6124788261242f565b810181811067ffffffffffffffff8211171561249757612496612440565b5b80604052505050565b60006124aa61219a565b90506124b6828261246f565b919050565b600067ffffffffffffffff8211156124d6576124d5612440565b5b6124df8261242f565b9050602081019050919050565b82818337600083830152505050565b600061250e612509846124bb565b6124a0565b90508281526020810184848401111561252a5761252961242a565b5b6125358482856124ec565b509392505050565b600082601f83011261255257612551612425565b5b81356125628482602086016124fb565b91505092915050565b60008060408385031215612582576125816121a4565b5b60006125908582860161231a565b925050602083013567ffffffffffffffff8111156125b1576125b06121a9565b5b6125bd8582860161253d565b9150509250929050565b6125d08161239c565b82525050565b60006020820190506125eb60008301846125c7565b92915050565b60006125fc8261214c565b9050919050565b61260c816125f1565b82525050565b60006020820190506126276000830184612603565b92915050565b600060208284031215612643576126426121a4565b5b6000612651848285016123bd565b91505092915050565b6126638161223d565b82525050565b600060208201905061267e600083018461265a565b92915050565b60008060006060848603121561269d5761269c6121a4565b5b60006126ab868287016121cf565b93505060206126bc8682870161231a565b92505060406126cd868287016121cf565b9150509250925092565b6126e0816121ae565b82525050565b60006020820190506126fb60008301846126d7565b92915050565b60008115159050919050565b61271681612701565b811461272157600080fd5b50565b6000815190506127338161270d565b92915050565b600081519050612748816123a6565b92915050565b60008151905061275d816121b8565b92915050565b600067ffffffffffffffff82111561277e5761277d612440565b5b602082029050602081019050919050565b600080fd5b60006127a76127a284612763565b6124a0565b905080838252602082019050602084028301858111156127ca576127c961278f565b5b835b818110156127f357806127df888261274e565b8452602084019350506020810190506127cc565b5050509392505050565b600082601f83011261281257612811612425565b5b8151612822848260208601612794565b91505092915050565b600080600080600060a08688031215612847576128466121a4565b5b600061285588828901612724565b955050602061286688828901612739565b94505060406128778882890161274e565b935050606061288888828901612724565b925050608086015167ffffffffffffffff8111156128a9576128a86121a9565b5b6128b5888289016127fd565b9150509295509295909350565b600082825260208201905092915050565b7f46756e6374696f6e206d7573742062652063616c6c6564207468726f7567682060008201527f64656c656761746563616c6c0000000000000000000000000000000000000000602082015250565b600061292f602c836128c2565b915061293a826128d3565b604082019050919050565b6000602082019050818103600083015261295e81612922565b9050919050565b7f46756e6374696f6e206d7573742062652063616c6c6564207468726f7567682060008201527f6163746976652070726f78790000000000000000000000000000000000000000602082015250565b60006129c1602c836128c2565b91506129cc82612965565b604082019050919050565b600060208201905081810360008301526129f0816129b4565b9050919050565b7f496e697469616c697a61626c653a20636f6e747261637420697320616c72656160008201527f647920696e697469616c697a6564000000000000000000000000000000000000602082015250565b6000612a53602e836128c2565b9150612a5e826129f7565b604082019050919050565b60006020820190508181036000830152612a8281612a46565b9050919050565b6000819050919050565b600060ff82169050919050565b6000612abb612ab6612ab184612a89565b612120565b612a93565b9050919050565b612acb81612aa0565b82525050565b6000602082019050612ae66000830184612ac2565b92915050565b7f555550535570677261646561626c653a206d757374206e6f742062652063616c60008201527f6c6564207468726f7567682064656c656761746563616c6c0000000000000000602082015250565b6000612b486038836128c2565b9150612b5382612aec565b604082019050919050565b60006020820190508181036000830152612b7781612b3b565b9050919050565b600081519050612b8d81612303565b92915050565b600060208284031215612ba957612ba86121a4565b5b6000612bb784828501612b7e565b91505092915050565b612bc981612701565b82525050565b6000606082019050612be4600083018661265a565b612bf160208301856126d7565b612bfe6040830184612bc0565b949350505050565b600060208284031215612c1c57612c1b6121a4565b5b6000612c2a8482850161274e565b91505092915050565b7f4b45595f4e4f545f48454c440000000000000000000000000000000000000000600082015250565b6000612c69600c836128c2565b9150612c7482612c33565b602082019050919050565b60006020820190508181036000830152612c9881612c5c565b9050919050565b7f494e53554646494349454e545f544f4b454e5300000000000000000000000000600082015250565b6000612cd56013836128c2565b9150612ce082612c9f565b602082019050919050565b60006020820190508181036000830152612d0481612cc8565b9050919050565b6000606082019050612d20600083018661265a565b612d2d602083018561265a565b612d3a60408301846126d7565b949350505050565b600060208284031215612d5857612d576121a4565b5b6000612d6684828501612724565b91505092915050565b6000606082019050612d8460008301866126d7565b612d9160208301856125c7565b612d9e60408301846126d7565b949350505050565b600080600060608486031215612dbf57612dbe6121a4565b5b6000612dcd8682870161274e565b9350506020612dde8682870161274e565b9250506040612def8682870161274e565b9150509250925092565b7f4e487b7100000000000000000000000000000000000000000000000000000000600052601160045260246000fd5b6000612e33826121ae565b9150612e3e836121ae565b9250828201905080821115612e5657612e55612df9565b5b92915050565b7f4e487b7100000000000000000000000000000000000000000000000000000000600052600160045260246000fd5b7f4f776e61626c653a206e6577206f776e657220697320746865207a65726f206160008201527f6464726573730000000000000000000000000000000000000000000000000000602082015250565b6000612ee76026836128c2565b9150612ef282612e8b565b604082019050919050565b60006020820190508181036000830152612f1681612eda565b9050919050565b600060208284031215612f3357612f326121a4565b5b6000612f4184828501612739565b91505092915050565b7f45524331393637557067726164653a206e657720696d706c656d656e7461746960008201527f6f6e206973206e6f742055555053000000000000000000000000000000000000602082015250565b6000612fa6602e836128c2565b9150612fb182612f4a565b604082019050919050565b60006020820190508181036000830152612fd581612f99565b9050919050565b7f45524331393637557067726164653a20756e737570706f727465642070726f7860008201527f6961626c65555549440000000000000000000000000000000000000000000000602082015250565b60006130386029836128c2565b915061304382612fdc565b604082019050919050565b600060208201905081810360008301526130678161302b565b9050919050565b7f496e697469616c697a61626c653a20636f6e7472616374206973206e6f74206960008201527f6e697469616c697a696e67000000000000000000000000000000000000000000602082015250565b60006130ca602b836128c2565b91506130d58261306e565b604082019050919050565b600060208201905081810360008301526130f9816130bd565b9050919050565b600061310b826121ae565b9150613116836121ae565b925082820390508181111561312e5761312d612df9565b5b92915050565b6000604082019050613149600083018561265a565b61315660208301846126d7565b9392505050565b7f4f776e61626c653a2063616c6c6572206973206e6f7420746865206f776e6572600082015250565b60006131936020836128c2565b915061319e8261315d565b602082019050919050565b600060208201905081810360008301526131c281613186565b9050919050565b60006060820190506131de600083018661265a565b6131eb60208301856126d7565b6131f860408301846126d7565b949350505050565b7f455243313936373a206e657720696d706c656d656e746174696f6e206973206e60008201527f6f74206120636f6e747261637400000000000000000000000000000000000000602082015250565b600061325c602d836128c2565b915061326782613200565b604082019050919050565b6000602082019050818103600083015261328b8161324f565b9050919050565b7f416464726573733a2064656c65676174652063616c6c20746f206e6f6e2d636f60008201527f6e74726163740000000000000000000000000000000000000000000000000000602082015250565b60006132ee6026836128c2565b91506132f982613292565b604082019050919050565b6000602082019050818103600083015261331d816132e1565b9050919050565b600081519050919050565b600081905092915050565b60005b8381101561335857808201518184015260208101905061333d565b60008484015250505050565b600061336f82613324565b613379818561332f565b935061338981856020860161333a565b80840191505092915050565b60006133a18284613364565b915081905092915050565b600081519050919050565b60006133c2826133ac565b6133cc81856128c2565b93506133dc81856020860161333a565b6133e58161242f565b840191505092915050565b6000602082019050818103600083015261340a81846133b7565b90509291505056fe416464726573733a206c6f772d6c6576656c2064656c65676174652063616c6c206661696c6564a264697066735822122054c5f6ce89216951fa4f0ca6dc44387d278cc3d6e110f130874f7e54703733d264736f6c63430008100033",
  "linkReferences": {},
  "deployedLinkReferences": {}
}