{
  "_format": "hh-sol-artifact-1",
  "contractName": "TokenVault",
  "sourceName": "contracts/providers/TokenVault.sol",
  "abi": [
    {
      "inputs": [],
      "stateMutability": "nonpayable",
      "type": "constructor"
    },
    {
      "anonymous": false,
      "inputs": [
        {
          "indexed": false,
          "internalType": "address",
          "name": "previousAdmin",
          "type": "address"
        },
        {
          "indexed": false,
          "internalType": "address",
          "name": "newAdmin",
          "type": "address"
        }
      ],
      "name": "AdminChanged",
      "type": "event"
    },
    {
      "anonymous": false,
      "inputs": [
        {
          "indexed": true,
          "internalType": "address",
          "name": "beacon",
          "type": "address"
        }
      ],
      "name": "BeaconUpgraded",
      "type": "event"
    },
    {
      "anonymous": false,
      "inputs": [
        {
          "indexed": false,
          "internalType": "uint8",
          "name": "version",
          "type": "uint8"
        }
      ],
      "name": "Initialized",
      "type": "event"
    },
    {
      "anonymous": false,
      "inputs": [
        {
          "indexed": true,
          "internalType": "address",
          "name": "previousOwner",
          "type": "address"
        },
        {
          "indexed": true,
          "internalType": "address",
          "name": "newOwner",
          "type": "address"
        }
      ],
      "name": "OwnershipTransferred",
      "type": "event"
    },
    {
      "anonymous": false,
      "inputs": [
        {
          "indexed": true,
          "internalType": "address",
          "name": "implementation",
          "type": "address"
        }
      ],
      "name": "Upgraded",
      "type": "event"
    },
    {
      "inputs": [
        {
          "internalType": "bytes32",
          "name": "",
          "type": "bytes32"
        }
      ],
      "name": "arnContracts",
      "outputs": [
        {
          "internalType": "address",
          "name": "",
          "type": "address"
        }
      ],
      "stateMutability": "view",
      "type": "function"
    },
    {
      "inputs": [
        {
          "internalType": "uint256",
          "name": "keyId",
          "type": "uint256"
        },
        {
          "internalType": "bytes32",
          "name": "arn",
          "type": "bytes32"
        },
        {
          "internalType": "uint256",
          "name": "amount",
          "type": "uint256"
        }
      ],
      "name": "arnWithdrawal",
      "outputs": [],
      "stateMutability": "nonpayable",
      "type": "function"
    },
    {
      "inputs": [
        {
          "internalType": "uint256",
          "name": "keyId",
          "type": "uint256"
        },
        {
          "internalType": "address",
          "name": "token",
          "type": "address"
        },
        {
          "internalType": "uint256",
          "name": "amount",
          "type": "uint256"
        }
      ],
      "name": "deposit",
      "outputs": [],
      "stateMutability": "nonpayable",
      "type": "function"
    },
    {
      "inputs": [
        {
          "internalType": "uint256",
          "name": "keyId",
          "type": "uint256"
        }
      ],
      "name": "getTokenTypes",
      "outputs": [
        {
          "internalType": "address[]",
          "name": "",
          "type": "address[]"
        }
      ],
      "stateMutability": "view",
      "type": "function"
    },
    {
      "inputs": [],
      "name": "getTrustedLedger",
      "outputs": [
        {
          "internalType": "address",
          "name": "",
          "type": "address"
        }
      ],
      "stateMutability": "view",
      "type": "function"
    },
    {
      "inputs": [
        {
          "internalType": "address",
          "name": "_Locksmith",
          "type": "address"
        },
        {
          "internalType": "address",
          "name": "_Ledger",
          "type": "address"
        }
      ],
      "name": "initialize",
      "outputs": [],
      "stateMutability": "nonpayable",
      "type": "function"
    },
    {
      "inputs": [],
      "name": "ledger",
      "outputs": [
        {
          "internalType": "contract ILedger",
          "name": "",
          "type": "address"
        }
      ],
      "stateMutability": "view",
      "type": "function"
    },
    {
      "inputs": [],
      "name": "locksmith",
      "outputs": [
        {
          "internalType": "contract ILocksmith",
          "name": "",
          "type": "address"
        }
      ],
      "stateMutability": "view",
      "type": "function"
    },
    {
      "inputs": [],
      "name": "owner",
      "outputs": [
        {
          "internalType": "address",
          "name": "",
          "type": "address"
        }
      ],
      "stateMutability": "view",
      "type": "function"
    },
    {
      "inputs": [],
      "name": "proxiableUUID",
      "outputs": [
        {
          "internalType": "bytes32",
          "name": "",
          "type": "bytes32"
        }
      ],
      "stateMutability": "view",
      "type": "function"
    },
    {
      "inputs": [],
      "name": "renounceOwnership",
      "outputs": [],
      "stateMutability": "nonpayable",
      "type": "function"
    },
    {
      "inputs": [
        {
          "internalType": "address",
          "name": "newOwner",
          "type": "address"
        }
      ],
      "name": "transferOwnership",
      "outputs": [],
      "stateMutability": "nonpayable",
      "type": "function"
    },
    {
      "inputs": [
        {
          "internalType": "address",
          "name": "newImplementation",
          "type": "address"
        }
      ],
      "name": "upgradeTo",
      "outputs": [],
      "stateMutability": "nonpayable",
      "type": "function"
    },
    {
      "inputs": [
        {
          "internalType": "address",
          "name": "newImplementation",
          "type": "address"
        },
        {
          "internalType": "bytes",
          "name": "data",
          "type": "bytes"
        }
      ],
      "name": "upgradeToAndCall",
      "outputs": [],
      "stateMutability": "payable",
      "type": "function"
    },
    {
      "inputs": [
        {
          "internalType": "uint256",
          "name": "keyId",
          "type": "uint256"
        },
        {
          "internalType": "address",
          "name": "token",
          "type": "address"
        },
        {
          "internalType": "uint256",
          "name": "amount",
          "type": "uint256"
        }
      ],
      "name": "withdrawal",
      "outputs": [],
      "stateMutability": "nonpayable",
      "type": "function"
    }
  ],
  "bytecode": "0x60a06040523060805234801561001457600080fd5b5061001d610022565b6100e2565b600054610100900460ff161561008e5760405162461bcd60e51b815260206004820152602760248201527f496e697469616c697a61626c653a20636f6e747261637420697320696e697469604482015266616c697a696e6760c81b606482015260840160405180910390fd5b60005460ff90811610156100e0576000805460ff191660ff9081179091556040519081527f7f26b83ff96e1f2b6a682f133852f6798a09c465da95921460cefb38474024989060200160405180910390a15b565b608051611cbd6101196000396000818161039d01528181610427015281816106aa0152818161072f01526108190152611cbd6000f3fe6080604052600436106100e85760003560e01c806356397c351161008a57806396204798116100595780639620479814610278578063bc157ac114610296578063f24ff92c146102b6578063f2fde38b146102d657600080fd5b806356397c35146101ef5780635ccca3981461020f578063715018a6146102455780638da5cb5b1461025a57600080fd5b8063485cc955116100c6578063485cc955146101795780634dc33cd9146101995780634f1ef286146101b957806352d1902d146101cc57600080fd5b806313fb817e146100ed5780632eb130961461012a5780633659cfe614610157575b600080fd5b3480156100f957600080fd5b5060c95461010d906001600160a01b031681565b6040516001600160a01b0390911681526020015b60405180910390f35b34801561013657600080fd5b5061014a610145366004611806565b6102f6565b604051610121919061181f565b34801561016357600080fd5b50610177610172366004611881565b610393565b005b34801561018557600080fd5b5061017761019436600461189e565b610513565b3480156101a557600080fd5b506101776101b43660046118d7565b61067a565b6101776101c736600461194a565b6106a0565b3480156101d857600080fd5b506101e161080c565b604051908152602001610121565b3480156101fb57600080fd5b5060ca5461010d906001600160a01b031681565b34801561021b57600080fd5b5061010d61022a366004611806565b60cc602052600090815260409020546001600160a01b031681565b34801561025157600080fd5b506101776108d1565b34801561026657600080fd5b506033546001600160a01b031661010d565b34801561028457600080fd5b5060ca546001600160a01b031661010d565b3480156102a257600080fd5b506101776102b13660046119f2565b6108e5565b3480156102c257600080fd5b506101776102d13660046119f2565b610d6e565b3480156102e257600080fd5b506101776102f1366004611881565b610dd1565b60c9546040516344766d2960e11b8152600481018390526060916000916001600160a01b03909116906388ecda5290602401600060405180830381865afa158015610345573d6000803e3d6000fd5b505050506040513d6000823e601f3d908101601f1916820160405261036d9190810190611a3f565b5050600081815260cb6020526040902090935061038c92509050610e5e565b9392505050565b6001600160a01b037f00000000000000000000000000000000000000000000000000000000000000001630036104255760405162461bcd60e51b815260206004820152602c60248201527f46756e6374696f6e206d7573742062652063616c6c6564207468726f7567682060448201526b19195b1959d85d1958d85b1b60a21b60648201526084015b60405180910390fd5b7f00000000000000000000000000000000000000000000000000000000000000006001600160a01b03166104807f360894a13ba1a3210667c828492db98dca3e2076cc3735a920a3ca505d382bbc546001600160a01b031690565b6001600160a01b0316146104eb5760405162461bcd60e51b815260206004820152602c60248201527f46756e6374696f6e206d7573742062652063616c6c6564207468726f7567682060448201526b6163746976652070726f787960a01b606482015260840161041c565b6104f481610e6b565b6040805160008082526020820190925261051091839190610e73565b50565b600054610100900460ff16158080156105335750600054600160ff909116105b8061054d5750303b15801561054d575060005460ff166001145b6105bf5760405162461bcd60e51b815260206004820152602e60248201527f496e697469616c697a61626c653a20636f6e747261637420697320616c72656160448201527f647920696e697469616c697a6564000000000000000000000000000000000000606482015260840161041c565b6000805460ff1916600117905580156105e2576000805461ff0019166101001790555b6105ea611013565b6105f2611086565b60c980546001600160a01b0380861673ffffffffffffffffffffffffffffffffffffffff199283161790925560ca8054928516929091169190911790558015610675576000805461ff0019169055604051600181527f7f26b83ff96e1f2b6a682f133852f6798a09c465da95921460cefb38474024989060200160405180910390a15b505050565b600082815260cc602052604090205461067590849084906001600160a01b0316846110f1565b6001600160a01b037f000000000000000000000000000000000000000000000000000000000000000016300361072d5760405162461bcd60e51b815260206004820152602c60248201527f46756e6374696f6e206d7573742062652063616c6c6564207468726f7567682060448201526b19195b1959d85d1958d85b1b60a21b606482015260840161041c565b7f00000000000000000000000000000000000000000000000000000000000000006001600160a01b03166107887f360894a13ba1a3210667c828492db98dca3e2076cc3735a920a3ca505d382bbc546001600160a01b031690565b6001600160a01b0316146107f35760405162461bcd60e51b815260206004820152602c60248201527f46756e6374696f6e206d7573742062652063616c6c6564207468726f7567682060448201526b6163746976652070726f787960a01b606482015260840161041c565b6107fc82610e6b565b61080882826001610e73565b5050565b6000306001600160a01b037f000000000000000000000000000000000000000000000000000000000000000016146108ac5760405162461bcd60e51b815260206004820152603860248201527f555550535570677261646561626c653a206d757374206e6f742062652063616c60448201527f6c6564207468726f7567682064656c656761746563616c6c0000000000000000606482015260840161041c565b507f360894a13ba1a3210667c828492db98dca3e2076cc3735a920a3ca505d382bbc90565b6108d9611396565b6108e360006113f0565b565b60c9546040805163b83ac19f60e01b815290516000926001600160a01b03169163b83ac19f9160048083019260209291908290030181865afa15801561092f573d6000803e3d6000fd5b505050506040513d601f19601f820116820180604052508101906109539190611b1c565b604051630f5d2cd560e11b815233600482015260248101869052600060448201526001600160a01b039190911690631eba59aa90606401602060405180830381865afa1580156109a7573d6000803e3d6000fd5b505050506040513d601f19601f820116820180604052508101906109cb9190611b39565b11610a075760405162461bcd60e51b815260206004820152600c60248201526b12d15657d393d517d211531160a21b604482015260640161041c565b60408051606080820183526001600160a01b038516808352601460208085018290526000948601859052855180820184905280870192909252818401859052855180830390940184526080820180875284519482019490942080865260cc825294869020805473ffffffffffffffffffffffffffffffffffffffff1916841790557f70a082310000000000000000000000000000000000000000000000000000000090935233608482015293519293859391926370a082319260a4808401938290030181865afa158015610adf573d6000803e3d6000fd5b505050506040513d601f19601f82011682018060405250810190610b039190611b39565b1015610b515760405162461bcd60e51b815260206004820152601360248201527f494e53554646494349454e545f544f4b454e5300000000000000000000000000604482015260640161041c565b6040517f23b872dd000000000000000000000000000000000000000000000000000000008152336004820152306024820152604481018390526001600160a01b038416906323b872dd906064016020604051808303816000875af1158015610bbd573d6000803e3d6000fd5b505050506040513d601f19601f82011682018060405250810190610be19190611b52565b5060ca546040517f0331d4de0000000000000000000000000000000000000000000000000000000081526004810186905260248101839052604481018490526000916001600160a01b031690630331d4de906064016060604051808303816000875af1158015610c55573d6000803e3d6000fd5b505050506040513d601f19601f82011682018060405250810190610c799190611b6d565b6001600160a01b038716600090815260cd602052604081208054929550879450925090610ca7908490611bb1565b90915550506001600160a01b038416600090815260cd60205260409020548114610cd357610cd3611bc4565b60c9546040516344766d2960e11b8152600481018790526000916001600160a01b0316906388ecda5290602401600060405180830381865afa158015610d1d573d6000803e3d6000fd5b505050506040513d6000823e601f3d908101601f19168201604052610d459190810190611a3f565b5050600081815260cb60205260409020909350610d65925090508661144f565b50505050505050565b60408051606080820183526001600160a01b038516808352601460208085018290526000948601859052855180820193909352828601919091528183019390935283518082039092018252608001909252815191012061067590849084846110f1565b610dd9611396565b6001600160a01b038116610e555760405162461bcd60e51b815260206004820152602660248201527f4f776e61626c653a206e6577206f776e657220697320746865207a65726f206160448201527f6464726573730000000000000000000000000000000000000000000000000000606482015260840161041c565b610510816113f0565b6060600061038c8361146d565b610510611396565b7f4910fdfa16fed3260ed0e7147f7cc6da11a60208b5b9406d12a635614ffd91435460ff1615610ea657610675836114c9565b826001600160a01b03166352d1902d6040518163ffffffff1660e01b8152600401602060405180830381865afa925050508015610f00575060408051601f3d908101601f19168201909252610efd91810190611b39565b60015b610f725760405162461bcd60e51b815260206004820152602e60248201527f45524331393637557067726164653a206e657720696d706c656d656e7461746960448201527f6f6e206973206e6f742055555053000000000000000000000000000000000000606482015260840161041c565b7f360894a13ba1a3210667c828492db98dca3e2076cc3735a920a3ca505d382bbc81146110075760405162461bcd60e51b815260206004820152602960248201527f45524331393637557067726164653a20756e737570706f727465642070726f7860448201527f6961626c65555549440000000000000000000000000000000000000000000000606482015260840161041c565b50610675838383611594565b600054610100900460ff1661107e5760405162461bcd60e51b815260206004820152602b60248201527f496e697469616c697a61626c653a20636f6e7472616374206973206e6f74206960448201526a6e697469616c697a696e6760a81b606482015260840161041c565b6108e36115bf565b600054610100900460ff166108e35760405162461bcd60e51b815260206004820152602b60248201527f496e697469616c697a61626c653a20636f6e7472616374206973206e6f74206960448201526a6e697469616c697a696e6760a81b606482015260840161041c565b60c9546040805163b83ac19f60e01b815290516000926001600160a01b03169163b83ac19f9160048083019260209291908290030181865afa15801561113b573d6000803e3d6000fd5b505050506040513d601f19601f8201168201806040525081019061115f9190611b1c565b604051630f5d2cd560e11b815233600482015260248101879052600060448201526001600160a01b039190911690631eba59aa90606401602060405180830381865afa1580156111b3573d6000803e3d6000fd5b505050506040513d601f19601f820116820180604052508101906111d79190611b39565b116112135760405162461bcd60e51b815260206004820152600c60248201526b12d15657d393d517d211531160a21b604482015260640161041c565b60ca546040517fd84681e20000000000000000000000000000000000000000000000000000000081526004810186905260248101859052604481018390526000916001600160a01b03169063d84681e2906064016060604051808303816000875af1158015611286573d6000803e3d6000fd5b505050506040513d601f19601f820116820180604052508101906112aa9190611b6d565b6001600160a01b038616600090815260cd6020526040812080549295508694509250906112d8908490611bda565b90915550506001600160a01b038316600090815260cd6020526040902054811461130457611304611bc4565b6040517fa9059cbb000000000000000000000000000000000000000000000000000000008152336004820152602481018390526001600160a01b0384169063a9059cbb906044016020604051808303816000875af115801561136a573d6000803e3d6000fd5b505050506040513d601f19601f8201168201806040525081019061138e9190611b52565b505050505050565b6033546001600160a01b031633146108e35760405162461bcd60e51b815260206004820181905260248201527f4f776e61626c653a2063616c6c6572206973206e6f7420746865206f776e6572604482015260640161041c565b603380546001600160a01b0383811673ffffffffffffffffffffffffffffffffffffffff19831681179093556040519116919082907f8be0079c531659141344cd1fd0a4f28419497f9722a3daafe3b4186f6b6457e090600090a35050565b6000611464836001600160a01b038416611633565b90505b92915050565b6060816000018054806020026020016040519081016040528092919081815260200182805480156114bd57602002820191906000526020600020905b8154815260200190600101908083116114a9575b50505050509050919050565b6001600160a01b0381163b6115465760405162461bcd60e51b815260206004820152602d60248201527f455243313936373a206e657720696d706c656d656e746174696f6e206973206e60448201527f6f74206120636f6e747261637400000000000000000000000000000000000000606482015260840161041c565b7f360894a13ba1a3210667c828492db98dca3e2076cc3735a920a3ca505d382bbc805473ffffffffffffffffffffffffffffffffffffffff19166001600160a01b0392909216919091179055565b61159d83611682565b6000825111806115aa5750805b15610675576115b983836116c2565b50505050565b600054610100900460ff1661162a5760405162461bcd60e51b815260206004820152602b60248201527f496e697469616c697a61626c653a20636f6e7472616374206973206e6f74206960448201526a6e697469616c697a696e6760a81b606482015260840161041c565b6108e3336113f0565b600081815260018301602052604081205461167a57508154600181810184556000848152602080822090930184905584548482528286019093526040902091909155611467565b506000611467565b61168b816114c9565b6040516001600160a01b038216907fbc7cd75a20ee27fd9adebab32041f755214dbc6bffa90cc0225b39da2e5c2d3b90600090a250565b60606001600160a01b0383163b6117415760405162461bcd60e51b815260206004820152602660248201527f416464726573733a2064656c65676174652063616c6c20746f206e6f6e2d636f60448201527f6e74726163740000000000000000000000000000000000000000000000000000606482015260840161041c565b600080846001600160a01b03168460405161175c9190611c11565b600060405180830381855af49150503d8060008114611797576040519150601f19603f3d011682016040523d82523d6000602084013e61179c565b606091505b50915091506117c48282604051806060016040528060278152602001611c61602791396117cd565b95945050505050565b606083156117dc57508161038c565b8251156117ec5782518084602001fd5b8160405162461bcd60e51b815260040161041c9190611c2d565b60006020828403121561181857600080fd5b5035919050565b6020808252825182820181905260009190848201906040850190845b818110156118605783516001600160a01b03168352928401929184019160010161183b565b50909695505050505050565b6001600160a01b038116811461051057600080fd5b60006020828403121561189357600080fd5b813561038c8161186c565b600080604083850312156118b157600080fd5b82356118bc8161186c565b915060208301356118cc8161186c565b809150509250929050565b6000806000606084860312156118ec57600080fd5b505081359360208301359350604090920135919050565b634e487b7160e01b600052604160045260246000fd5b604051601f8201601f1916810167ffffffffffffffff8111828210171561194257611942611903565b604052919050565b6000806040838503121561195d57600080fd5b82356119688161186c565b915060208381013567ffffffffffffffff8082111561198657600080fd5b818601915086601f83011261199a57600080fd5b8135818111156119ac576119ac611903565b6119be601f8201601f19168501611919565b915080825287848285010111156119d457600080fd5b80848401858401376000848284010152508093505050509250929050565b600080600060608486031215611a0757600080fd5b833592506020840135611a198161186c565b929592945050506040919091013590565b80518015158114611a3a57600080fd5b919050565b600080600080600060a08688031215611a5757600080fd5b611a6086611a2a565b9450602080870151945060408701519350611a7d60608801611a2a565b9250608087015167ffffffffffffffff80821115611a9a57600080fd5b818901915089601f830112611aae57600080fd5b815181811115611ac057611ac0611903565b8060051b9150611ad1848301611919565b818152918301840191848101908c841115611aeb57600080fd5b938501935b83851015611b0957845182529385019390850190611af0565b8096505050505050509295509295909350565b600060208284031215611b2e57600080fd5b815161038c8161186c565b600060208284031215611b4b57600080fd5b5051919050565b600060208284031215611b6457600080fd5b61146482611a2a565b600080600060608486031215611b8257600080fd5b8351925060208401519150604084015190509250925092565b634e487b7160e01b600052601160045260246000fd5b8082018082111561146757611467611b9b565b634e487b7160e01b600052600160045260246000fd5b8181038181111561146757611467611b9b565b60005b83811015611c08578181015183820152602001611bf0565b50506000910152565b60008251611c23818460208701611bed565b9190910192915050565b6020815260008251806020840152611c4c816040850160208701611bed565b601f01601f1916919091016040019291505056fe416464726573733a206c6f772d6c6576656c2064656c65676174652063616c6c206661696c6564a264697066735822122030503d676adf2ab6393cc7b967419b9a8d9142ca08bad6fd8c1efda18818c61b64736f6c63430008100033",
  "linkReferences": {},
  "deployedLinkReferences": {}
}