{
  "_format": "hh-sol-artifact-1",
  "contractName": "TokenVault",
  "sourceName": "contracts/providers/TokenVault.sol",
  "abi": [
    {
      "inputs": [],
      "stateMutability": "nonpayable",
      "type": "constructor"
    },
    {
      "anonymous": false,
      "inputs": [
        {
          "indexed": false,
          "internalType": "address",
          "name": "previousAdmin",
          "type": "address"
        },
        {
          "indexed": false,
          "internalType": "address",
          "name": "newAdmin",
          "type": "address"
        }
      ],
      "name": "AdminChanged",
      "type": "event"
    },
    {
      "anonymous": false,
      "inputs": [
        {
          "indexed": true,
          "internalType": "address",
          "name": "beacon",
          "type": "address"
        }
      ],
      "name": "BeaconUpgraded",
      "type": "event"
    },
    {
      "anonymous": false,
      "inputs": [
        {
          "indexed": false,
          "internalType": "uint8",
          "name": "version",
          "type": "uint8"
        }
      ],
      "name": "Initialized",
      "type": "event"
    },
    {
      "anonymous": false,
      "inputs": [
        {
          "indexed": true,
          "internalType": "address",
          "name": "previousOwner",
          "type": "address"
        },
        {
          "indexed": true,
          "internalType": "address",
          "name": "newOwner",
          "type": "address"
        }
      ],
      "name": "OwnershipTransferred",
      "type": "event"
    },
    {
      "anonymous": false,
      "inputs": [
        {
          "indexed": true,
          "internalType": "address",
          "name": "implementation",
          "type": "address"
        }
      ],
      "name": "Upgraded",
      "type": "event"
    },
    {
      "inputs": [
        {
          "internalType": "uint256",
          "name": "keyId",
          "type": "uint256"
        },
        {
          "internalType": "bytes32",
          "name": "arn",
          "type": "bytes32"
        },
        {
          "internalType": "uint256",
          "name": "amount",
          "type": "uint256"
        }
      ],
      "name": "arnWithdrawal",
      "outputs": [],
      "stateMutability": "nonpayable",
      "type": "function"
    },
    {
      "inputs": [
        {
          "internalType": "uint256",
          "name": "keyId",
          "type": "uint256"
        },
        {
          "internalType": "address",
          "name": "token",
          "type": "address"
        },
        {
          "internalType": "uint256",
          "name": "amount",
          "type": "uint256"
        }
      ],
      "name": "deposit",
      "outputs": [],
      "stateMutability": "nonpayable",
      "type": "function"
    },
    {
      "inputs": [
        {
          "internalType": "uint256",
          "name": "keyId",
          "type": "uint256"
        }
      ],
      "name": "getTokenTypes",
      "outputs": [
        {
          "internalType": "address[]",
          "name": "",
          "type": "address[]"
        }
      ],
      "stateMutability": "view",
      "type": "function"
    },
    {
      "inputs": [
        {
          "internalType": "address",
          "name": "_Locksmith",
          "type": "address"
        },
        {
          "internalType": "address",
          "name": "_Ledger",
          "type": "address"
        }
      ],
      "name": "initialize",
      "outputs": [],
      "stateMutability": "nonpayable",
      "type": "function"
    },
    {
      "inputs": [],
      "name": "ledger",
      "outputs": [
        {
          "internalType": "contract Ledger",
          "name": "",
          "type": "address"
        }
      ],
      "stateMutability": "view",
      "type": "function"
    },
    {
      "inputs": [],
      "name": "locksmith",
      "outputs": [
        {
          "internalType": "contract Locksmith",
          "name": "",
          "type": "address"
        }
      ],
      "stateMutability": "view",
      "type": "function"
    },
    {
      "inputs": [],
      "name": "owner",
      "outputs": [
        {
          "internalType": "address",
          "name": "",
          "type": "address"
        }
      ],
      "stateMutability": "view",
      "type": "function"
    },
    {
      "inputs": [],
      "name": "proxiableUUID",
      "outputs": [
        {
          "internalType": "bytes32",
          "name": "",
          "type": "bytes32"
        }
      ],
      "stateMutability": "view",
      "type": "function"
    },
    {
      "inputs": [],
      "name": "renounceOwnership",
      "outputs": [],
      "stateMutability": "nonpayable",
      "type": "function"
    },
    {
      "inputs": [
        {
          "internalType": "address",
          "name": "newOwner",
          "type": "address"
        }
      ],
      "name": "transferOwnership",
      "outputs": [],
      "stateMutability": "nonpayable",
      "type": "function"
    },
    {
      "inputs": [
        {
          "internalType": "address",
          "name": "newImplementation",
          "type": "address"
        }
      ],
      "name": "upgradeTo",
      "outputs": [],
      "stateMutability": "nonpayable",
      "type": "function"
    },
    {
      "inputs": [
        {
          "internalType": "address",
          "name": "newImplementation",
          "type": "address"
        },
        {
          "internalType": "bytes",
          "name": "data",
          "type": "bytes"
        }
      ],
      "name": "upgradeToAndCall",
      "outputs": [],
      "stateMutability": "payable",
      "type": "function"
    },
    {
      "inputs": [
        {
          "internalType": "uint256",
          "name": "keyId",
          "type": "uint256"
        },
        {
          "internalType": "address",
          "name": "token",
          "type": "address"
        },
        {
          "internalType": "uint256",
          "name": "amount",
          "type": "uint256"
        }
      ],
      "name": "withdrawal",
      "outputs": [],
      "stateMutability": "nonpayable",
      "type": "function"
    }
  ],
  "bytecode": "0x60a06040523073ffffffffffffffffffffffffffffffffffffffff1660809073ffffffffffffffffffffffffffffffffffffffff168152503480156200004457600080fd5b50620000556200005b60201b60201c565b62000206565b600060019054906101000a900460ff1615620000ae576040517f08c379a0000000000000000000000000000000000000000000000000000000008152600401620000a590620001a9565b60405180910390fd5b60ff801660008054906101000a900460ff1660ff161015620001205760ff6000806101000a81548160ff021916908360ff1602179055507f7f26b83ff96e1f2b6a682f133852f6798a09c465da95921460cefb384740249860ff604051620001179190620001e9565b60405180910390a15b565b600082825260208201905092915050565b7f496e697469616c697a61626c653a20636f6e747261637420697320696e69746960008201527f616c697a696e6700000000000000000000000000000000000000000000000000602082015250565b60006200019160278362000122565b91506200019e8262000133565b604082019050919050565b60006020820190508181036000830152620001c48162000182565b9050919050565b600060ff82169050919050565b620001e381620001cb565b82525050565b6000602082019050620002006000830184620001d8565b92915050565b608051612e0a6200023e600039600081816103cf0152818161045d01528181610765015281816107f301526108a30152612e0a6000f3fe6080604052600436106100c25760003560e01c806352d1902d1161007f5780638da5cb5b116100595780638da5cb5b14610233578063bc157ac11461025e578063f24ff92c14610287578063f2fde38b146102b0576100c2565b806352d1902d146101c657806356397c35146101f1578063715018a61461021c576100c2565b806313fb817e146100c75780632eb13096146100f25780633659cfe61461012f578063485cc955146101585780634dc33cd9146101815780634f1ef286146101aa575b600080fd5b3480156100d357600080fd5b506100dc6102d9565b6040516100e99190611b98565b60405180910390f35b3480156100fe57600080fd5b5061011960048036038101906101149190611bfd565b6102ff565b6040516101269190611cfa565b60405180910390f35b34801561013b57600080fd5b5061015660048036038101906101519190611d48565b6103cd565b005b34801561016457600080fd5b5061017f600480360381019061017a9190611d75565b610555565b005b34801561018d57600080fd5b506101a860048036038101906101a39190611deb565b61071f565b005b6101c460048036038101906101bf9190611f84565b610763565b005b3480156101d257600080fd5b506101db61089f565b6040516101e89190611fef565b60405180910390f35b3480156101fd57600080fd5b50610206610958565b604051610213919061202b565b60405180910390f35b34801561022857600080fd5b5061023161097e565b005b34801561023f57600080fd5b50610248610992565b6040516102559190612055565b60405180910390f35b34801561026a57600080fd5b5061028560048036038101906102809190612070565b6109bc565b005b34801561029357600080fd5b506102ae60048036038101906102a99190612070565b610edf565b005b3480156102bc57600080fd5b506102d760048036038101906102d29190611d48565b610f2a565b005b60c960009054906101000a900473ffffffffffffffffffffffffffffffffffffffff1681565b6060600060c960009054906101000a900473ffffffffffffffffffffffffffffffffffffffff1673ffffffffffffffffffffffffffffffffffffffff166388ecda52846040518263ffffffff1660e01b815260040161035e91906120d2565b600060405180830381865afa15801561037b573d6000803e3d6000fd5b505050506040513d6000823e3d601f19601f820116820180604052508101906103a49190612217565b5050925050506103c560cb6000838152602001908152602001600020610fad565b915050919050565b7f000000000000000000000000000000000000000000000000000000000000000073ffffffffffffffffffffffffffffffffffffffff163073ffffffffffffffffffffffffffffffffffffffff160361045b576040517f08c379a000000000000000000000000000000000000000000000000000000000815260040161045290612331565b60405180910390fd5b7f000000000000000000000000000000000000000000000000000000000000000073ffffffffffffffffffffffffffffffffffffffff1661049a610fce565b73ffffffffffffffffffffffffffffffffffffffff16146104f0576040517f08c379a00000000000000000000000000000000000000000000000000000000081526004016104e7906123c3565b60405180910390fd5b6104f981611025565b61055281600067ffffffffffffffff81111561051857610517611e59565b5b6040519080825280601f01601f19166020018201604052801561054a5781602001600182028036833780820191505090505b506000611030565b50565b60008060019054906101000a900460ff161590508080156105865750600160008054906101000a900460ff1660ff16105b806105b357506105953061119e565b1580156105b25750600160008054906101000a900460ff1660ff16145b5b6105f2576040517f08c379a00000000000000000000000000000000000000000000000000000000081526004016105e990612455565b60405180910390fd5b60016000806101000a81548160ff021916908360ff160217905550801561062f576001600060016101000a81548160ff0219169083151502179055505b6106376111c1565b61063f61121a565b8260c960006101000a81548173ffffffffffffffffffffffffffffffffffffffff021916908373ffffffffffffffffffffffffffffffffffffffff1602179055508160ca60006101000a81548173ffffffffffffffffffffffffffffffffffffffff021916908373ffffffffffffffffffffffffffffffffffffffff160217905550801561071a5760008060016101000a81548160ff0219169083151502179055507f7f26b83ff96e1f2b6a682f133852f6798a09c465da95921460cefb3847402498600160405161071191906124bd565b60405180910390a15b505050565b61075e838360cc600086815260200190815260200160002060009054906101000a900473ffffffffffffffffffffffffffffffffffffffff168461126b565b505050565b7f000000000000000000000000000000000000000000000000000000000000000073ffffffffffffffffffffffffffffffffffffffff163073ffffffffffffffffffffffffffffffffffffffff16036107f1576040517f08c379a00000000000000000000000000000000000000000000000000000000081526004016107e890612331565b60405180910390fd5b7f000000000000000000000000000000000000000000000000000000000000000073ffffffffffffffffffffffffffffffffffffffff16610830610fce565b73ffffffffffffffffffffffffffffffffffffffff1614610886576040517f08c379a000000000000000000000000000000000000000000000000000000000815260040161087d906123c3565b60405180910390fd5b61088f82611025565b61089b82826001611030565b5050565b60007f000000000000000000000000000000000000000000000000000000000000000073ffffffffffffffffffffffffffffffffffffffff163073ffffffffffffffffffffffffffffffffffffffff161461092f576040517f08c379a00000000000000000000000000000000000000000000000000000000081526004016109269061254a565b60405180910390fd5b7f360894a13ba1a3210667c828492db98dca3e2076cc3735a920a3ca505d382bbc60001b905090565b60ca60009054906101000a900473ffffffffffffffffffffffffffffffffffffffff1681565b61098661157a565b61099060006115f8565b565b6000603360009054906101000a900473ffffffffffffffffffffffffffffffffffffffff16905090565b600060c960009054906101000a900473ffffffffffffffffffffffffffffffffffffffff1673ffffffffffffffffffffffffffffffffffffffff1663a1ca66876040518163ffffffff1660e01b8152600401602060405180830381865afa158015610a2b573d6000803e3d6000fd5b505050506040513d601f19601f82011682018060405250810190610a4f91906125a8565b73ffffffffffffffffffffffffffffffffffffffff1662fdd58e33866040518363ffffffff1660e01b8152600401610a889291906125d5565b602060405180830381865afa158015610aa5573d6000803e3d6000fd5b505050506040513d601f19601f82011682018060405250810190610ac991906125fe565b11610b09576040517f08c379a0000000000000000000000000000000000000000000000000000000008152600401610b0090612677565b60405180910390fd5b6000610b4660405180606001604052808573ffffffffffffffffffffffffffffffffffffffff1681526020016014815260200160008152506116be565b90508260cc600083815260200190815260200160002060006101000a81548173ffffffffffffffffffffffffffffffffffffffff021916908373ffffffffffffffffffffffffffffffffffffffff160217905550818373ffffffffffffffffffffffffffffffffffffffff166370a08231336040518263ffffffff1660e01b8152600401610bd49190612055565b602060405180830381865afa158015610bf1573d6000803e3d6000fd5b505050506040513d601f19601f82011682018060405250810190610c1591906125fe565b1015610c56576040517f08c379a0000000000000000000000000000000000000000000000000000000008152600401610c4d906126e3565b60405180910390fd5b8273ffffffffffffffffffffffffffffffffffffffff166323b872dd3330856040518463ffffffff1660e01b8152600401610c9393929190612703565b6020604051808303816000875af1158015610cb2573d6000803e3d6000fd5b505050506040513d601f19601f82011682018060405250810190610cd6919061273a565b50600060ca60009054906101000a900473ffffffffffffffffffffffffffffffffffffffff1673ffffffffffffffffffffffffffffffffffffffff16630331d4de8684866040518463ffffffff1660e01b8152600401610d3893929190612767565b6060604051808303816000875af1158015610d57573d6000803e3d6000fd5b505050506040513d601f19601f82011682018060405250810190610d7b919061279e565b925050508373ffffffffffffffffffffffffffffffffffffffff166370a08231306040518263ffffffff1660e01b8152600401610db89190612055565b602060405180830381865afa158015610dd5573d6000803e3d6000fd5b505050506040513d601f19601f82011682018060405250810190610df991906125fe565b8114610e0857610e076127f1565b5b600060c960009054906101000a900473ffffffffffffffffffffffffffffffffffffffff1673ffffffffffffffffffffffffffffffffffffffff166388ecda52876040518263ffffffff1660e01b8152600401610e6591906120d2565b600060405180830381865afa158015610e82573d6000803e3d6000fd5b505050506040513d6000823e3d601f19601f82011682018060405250810190610eab9190612217565b505092505050610ed68560cb60008481526020019081526020016000206116fe90919063ffffffff16565b50505050505050565b610f2583610f1e60405180606001604052808673ffffffffffffffffffffffffffffffffffffffff1681526020016014815260200160008152506116be565b848461126b565b505050565b610f3261157a565b600073ffffffffffffffffffffffffffffffffffffffff168173ffffffffffffffffffffffffffffffffffffffff1603610fa1576040517f08c379a0000000000000000000000000000000000000000000000000000000008152600401610f9890612892565b60405180910390fd5b610faa816115f8565b50565b60606000610fbd8360000161172e565b905060608190508092505050919050565b6000610ffc7f360894a13ba1a3210667c828492db98dca3e2076cc3735a920a3ca505d382bbc60001b61178a565b60000160009054906101000a900473ffffffffffffffffffffffffffffffffffffffff16905090565b61102d61157a565b50565b61105c7f4910fdfa16fed3260ed0e7147f7cc6da11a60208b5b9406d12a635614ffd914360001b611794565b60000160009054906101000a900460ff16156110805761107b8361179e565b611199565b8273ffffffffffffffffffffffffffffffffffffffff166352d1902d6040518163ffffffff1660e01b8152600401602060405180830381865afa9250505080156110e857506040513d601f19601f820116820180604052508101906110e591906128b2565b60015b611127576040517f08c379a000000000000000000000000000000000000000000000000000000000815260040161111e90612951565b60405180910390fd5b7f360894a13ba1a3210667c828492db98dca3e2076cc3735a920a3ca505d382bbc60001b811461118c576040517f08c379a0000000000000000000000000000000000000000000000000000000008152600401611183906129e3565b60405180910390fd5b50611198838383611857565b5b505050565b6000808273ffffffffffffffffffffffffffffffffffffffff163b119050919050565b600060019054906101000a900460ff16611210576040517f08c379a000000000000000000000000000000000000000000000000000000000815260040161120790612a75565b60405180910390fd5b611218611883565b565b600060019054906101000a900460ff16611269576040517f08c379a000000000000000000000000000000000000000000000000000000000815260040161126090612a75565b60405180910390fd5b565b600060c960009054906101000a900473ffffffffffffffffffffffffffffffffffffffff1673ffffffffffffffffffffffffffffffffffffffff1663a1ca66876040518163ffffffff1660e01b8152600401602060405180830381865afa1580156112da573d6000803e3d6000fd5b505050506040513d601f19601f820116820180604052508101906112fe91906125a8565b73ffffffffffffffffffffffffffffffffffffffff1662fdd58e33876040518363ffffffff1660e01b81526004016113379291906125d5565b602060405180830381865afa158015611354573d6000803e3d6000fd5b505050506040513d601f19601f8201168201806040525081019061137891906125fe565b116113b8576040517f08c379a00000000000000000000000000000000000000000000000000000000081526004016113af90612677565b60405180910390fd5b600060ca60009054906101000a900473ffffffffffffffffffffffffffffffffffffffff1673ffffffffffffffffffffffffffffffffffffffff1663d84681e28686856040518463ffffffff1660e01b815260040161141993929190612767565b6060604051808303816000875af1158015611438573d6000803e3d6000fd5b505050506040513d601f19601f8201168201806040525081019061145c919061279e565b9250505080828473ffffffffffffffffffffffffffffffffffffffff166370a08231306040518263ffffffff1660e01b815260040161149b9190612055565b602060405180830381865afa1580156114b8573d6000803e3d6000fd5b505050506040513d601f19601f820116820180604052508101906114dc91906125fe565b6114e69190612ac4565b146114f4576114f36127f1565b5b8273ffffffffffffffffffffffffffffffffffffffff1663a9059cbb33846040518363ffffffff1660e01b815260040161152f9291906125d5565b6020604051808303816000875af115801561154e573d6000803e3d6000fd5b505050506040513d601f19601f82011682018060405250810190611572919061273a565b505050505050565b6115826118e4565b73ffffffffffffffffffffffffffffffffffffffff166115a0610992565b73ffffffffffffffffffffffffffffffffffffffff16146115f6576040517f08c379a00000000000000000000000000000000000000000000000000000000081526004016115ed90612b44565b60405180910390fd5b565b6000603360009054906101000a900473ffffffffffffffffffffffffffffffffffffffff16905081603360006101000a81548173ffffffffffffffffffffffffffffffffffffffff021916908373ffffffffffffffffffffffffffffffffffffffff1602179055508173ffffffffffffffffffffffffffffffffffffffff168173ffffffffffffffffffffffffffffffffffffffff167f8be0079c531659141344cd1fd0a4f28419497f9722a3daafe3b4186f6b6457e060405160405180910390a35050565b60008160000151826020015183604001516040516020016116e193929190612b64565b604051602081830303815290604052805190602001209050919050565b6000611726836000018373ffffffffffffffffffffffffffffffffffffffff1660001b6118ec565b905092915050565b60608160000180548060200260200160405190810160405280929190818152602001828054801561177e57602002820191906000526020600020905b81548152602001906001019080831161176a575b50505050509050919050565b6000819050919050565b6000819050919050565b6117a78161119e565b6117e6576040517f08c379a00000000000000000000000000000000000000000000000000000000081526004016117dd90612c0d565b60405180910390fd5b806118137f360894a13ba1a3210667c828492db98dca3e2076cc3735a920a3ca505d382bbc60001b61178a565b60000160006101000a81548173ffffffffffffffffffffffffffffffffffffffff021916908373ffffffffffffffffffffffffffffffffffffffff16021790555050565b6118608361195c565b60008251118061186d5750805b1561187e5761187c83836119ab565b505b505050565b600060019054906101000a900460ff166118d2576040517f08c379a00000000000000000000000000000000000000000000000000000000081526004016118c990612a75565b60405180910390fd5b6118e26118dd6118e4565b6115f8565b565b600033905090565b60006118f88383611a8f565b611951578260000182908060018154018082558091505060019003906000526020600020016000909190919091505582600001805490508360010160008481526020019081526020016000208190555060019050611956565b600090505b92915050565b6119658161179e565b8073ffffffffffffffffffffffffffffffffffffffff167fbc7cd75a20ee27fd9adebab32041f755214dbc6bffa90cc0225b39da2e5c2d3b60405160405180910390a250565b60606119b68361119e565b6119f5576040517f08c379a00000000000000000000000000000000000000000000000000000000081526004016119ec90612c9f565b60405180910390fd5b6000808473ffffffffffffffffffffffffffffffffffffffff1684604051611a1d9190612d30565b600060405180830381855af49150503d8060008114611a58576040519150601f19603f3d011682016040523d82523d6000602084013e611a5d565b606091505b5091509150611a858282604051806060016040528060278152602001612dae60279139611ab2565b9250505092915050565b600080836001016000848152602001908152602001600020541415905092915050565b60608315611ac257829050611b12565b600083511115611ad55782518084602001fd5b816040517f08c379a0000000000000000000000000000000000000000000000000000000008152600401611b099190612d8b565b60405180910390fd5b9392505050565b600073ffffffffffffffffffffffffffffffffffffffff82169050919050565b6000819050919050565b6000611b5e611b59611b5484611b19565b611b39565b611b19565b9050919050565b6000611b7082611b43565b9050919050565b6000611b8282611b65565b9050919050565b611b9281611b77565b82525050565b6000602082019050611bad6000830184611b89565b92915050565b6000604051905090565b600080fd5b600080fd5b6000819050919050565b611bda81611bc7565b8114611be557600080fd5b50565b600081359050611bf781611bd1565b92915050565b600060208284031215611c1357611c12611bbd565b5b6000611c2184828501611be8565b91505092915050565b600081519050919050565b600082825260208201905092915050565b6000819050602082019050919050565b6000611c6182611b19565b9050919050565b611c7181611c56565b82525050565b6000611c838383611c68565b60208301905092915050565b6000602082019050919050565b6000611ca782611c2a565b611cb18185611c35565b9350611cbc83611c46565b8060005b83811015611ced578151611cd48882611c77565b9750611cdf83611c8f565b925050600181019050611cc0565b5085935050505092915050565b60006020820190508181036000830152611d148184611c9c565b905092915050565b611d2581611c56565b8114611d3057600080fd5b50565b600081359050611d4281611d1c565b92915050565b600060208284031215611d5e57611d5d611bbd565b5b6000611d6c84828501611d33565b91505092915050565b60008060408385031215611d8c57611d8b611bbd565b5b6000611d9a85828601611d33565b9250506020611dab85828601611d33565b9150509250929050565b6000819050919050565b611dc881611db5565b8114611dd357600080fd5b50565b600081359050611de581611dbf565b92915050565b600080600060608486031215611e0457611e03611bbd565b5b6000611e1286828701611be8565b9350506020611e2386828701611dd6565b9250506040611e3486828701611be8565b9150509250925092565b600080fd5b600080fd5b6000601f19601f8301169050919050565b7f4e487b7100000000000000000000000000000000000000000000000000000000600052604160045260246000fd5b611e9182611e48565b810181811067ffffffffffffffff82111715611eb057611eaf611e59565b5b80604052505050565b6000611ec3611bb3565b9050611ecf8282611e88565b919050565b600067ffffffffffffffff821115611eef57611eee611e59565b5b611ef882611e48565b9050602081019050919050565b82818337600083830152505050565b6000611f27611f2284611ed4565b611eb9565b905082815260208101848484011115611f4357611f42611e43565b5b611f4e848285611f05565b509392505050565b600082601f830112611f6b57611f6a611e3e565b5b8135611f7b848260208601611f14565b91505092915050565b60008060408385031215611f9b57611f9a611bbd565b5b6000611fa985828601611d33565b925050602083013567ffffffffffffffff811115611fca57611fc9611bc2565b5b611fd685828601611f56565b9150509250929050565b611fe981611db5565b82525050565b60006020820190506120046000830184611fe0565b92915050565b600061201582611b65565b9050919050565b6120258161200a565b82525050565b6000602082019050612040600083018461201c565b92915050565b61204f81611c56565b82525050565b600060208201905061206a6000830184612046565b92915050565b60008060006060848603121561208957612088611bbd565b5b600061209786828701611be8565b93505060206120a886828701611d33565b92505060406120b986828701611be8565b9150509250925092565b6120cc81611bc7565b82525050565b60006020820190506120e760008301846120c3565b92915050565b60008115159050919050565b612102816120ed565b811461210d57600080fd5b50565b60008151905061211f816120f9565b92915050565b60008151905061213481611dbf565b92915050565b60008151905061214981611bd1565b92915050565b600067ffffffffffffffff82111561216a57612169611e59565b5b602082029050602081019050919050565b600080fd5b600061219361218e8461214f565b611eb9565b905080838252602082019050602084028301858111156121b6576121b561217b565b5b835b818110156121df57806121cb888261213a565b8452602084019350506020810190506121b8565b5050509392505050565b600082601f8301126121fe576121fd611e3e565b5b815161220e848260208601612180565b91505092915050565b600080600080600060a0868803121561223357612232611bbd565b5b600061224188828901612110565b955050602061225288828901612125565b94505060406122638882890161213a565b935050606061227488828901612110565b925050608086015167ffffffffffffffff81111561229557612294611bc2565b5b6122a1888289016121e9565b9150509295509295909350565b600082825260208201905092915050565b7f46756e6374696f6e206d7573742062652063616c6c6564207468726f7567682060008201527f64656c656761746563616c6c0000000000000000000000000000000000000000602082015250565b600061231b602c836122ae565b9150612326826122bf565b604082019050919050565b6000602082019050818103600083015261234a8161230e565b9050919050565b7f46756e6374696f6e206d7573742062652063616c6c6564207468726f7567682060008201527f6163746976652070726f78790000000000000000000000000000000000000000602082015250565b60006123ad602c836122ae565b91506123b882612351565b604082019050919050565b600060208201905081810360008301526123dc816123a0565b9050919050565b7f496e697469616c697a61626c653a20636f6e747261637420697320616c72656160008201527f647920696e697469616c697a6564000000000000000000000000000000000000602082015250565b600061243f602e836122ae565b915061244a826123e3565b604082019050919050565b6000602082019050818103600083015261246e81612432565b9050919050565b6000819050919050565b600060ff82169050919050565b60006124a76124a261249d84612475565b611b39565b61247f565b9050919050565b6124b78161248c565b82525050565b60006020820190506124d260008301846124ae565b92915050565b7f555550535570677261646561626c653a206d757374206e6f742062652063616c60008201527f6c6564207468726f7567682064656c656761746563616c6c0000000000000000602082015250565b60006125346038836122ae565b915061253f826124d8565b604082019050919050565b6000602082019050818103600083015261256381612527565b9050919050565b600061257582611c56565b9050919050565b6125858161256a565b811461259057600080fd5b50565b6000815190506125a28161257c565b92915050565b6000602082840312156125be576125bd611bbd565b5b60006125cc84828501612593565b91505092915050565b60006040820190506125ea6000830185612046565b6125f760208301846120c3565b9392505050565b60006020828403121561261457612613611bbd565b5b60006126228482850161213a565b91505092915050565b7f4b45595f4e4f545f48454c440000000000000000000000000000000000000000600082015250565b6000612661600c836122ae565b915061266c8261262b565b602082019050919050565b6000602082019050818103600083015261269081612654565b9050919050565b7f494e53554646494349454e545f544f4b454e5300000000000000000000000000600082015250565b60006126cd6013836122ae565b91506126d882612697565b602082019050919050565b600060208201905081810360008301526126fc816126c0565b9050919050565b60006060820190506127186000830186612046565b6127256020830185612046565b61273260408301846120c3565b949350505050565b6000602082840312156127505761274f611bbd565b5b600061275e84828501612110565b91505092915050565b600060608201905061277c60008301866120c3565b6127896020830185611fe0565b61279660408301846120c3565b949350505050565b6000806000606084860312156127b7576127b6611bbd565b5b60006127c58682870161213a565b93505060206127d68682870161213a565b92505060406127e78682870161213a565b9150509250925092565b7f4e487b7100000000000000000000000000000000000000000000000000000000600052600160045260246000fd5b7f4f776e61626c653a206e6577206f776e657220697320746865207a65726f206160008201527f6464726573730000000000000000000000000000000000000000000000000000602082015250565b600061287c6026836122ae565b915061288782612820565b604082019050919050565b600060208201905081810360008301526128ab8161286f565b9050919050565b6000602082840312156128c8576128c7611bbd565b5b60006128d684828501612125565b91505092915050565b7f45524331393637557067726164653a206e657720696d706c656d656e7461746960008201527f6f6e206973206e6f742055555053000000000000000000000000000000000000602082015250565b600061293b602e836122ae565b9150612946826128df565b604082019050919050565b6000602082019050818103600083015261296a8161292e565b9050919050565b7f45524331393637557067726164653a20756e737570706f727465642070726f7860008201527f6961626c65555549440000000000000000000000000000000000000000000000602082015250565b60006129cd6029836122ae565b91506129d882612971565b604082019050919050565b600060208201905081810360008301526129fc816129c0565b9050919050565b7f496e697469616c697a61626c653a20636f6e7472616374206973206e6f74206960008201527f6e697469616c697a696e67000000000000000000000000000000000000000000602082015250565b6000612a5f602b836122ae565b9150612a6a82612a03565b604082019050919050565b60006020820190508181036000830152612a8e81612a52565b9050919050565b7f4e487b7100000000000000000000000000000000000000000000000000000000600052601160045260246000fd5b6000612acf82611bc7565b9150612ada83611bc7565b9250828203905081811115612af257612af1612a95565b5b92915050565b7f4f776e61626c653a2063616c6c6572206973206e6f7420746865206f776e6572600082015250565b6000612b2e6020836122ae565b9150612b3982612af8565b602082019050919050565b60006020820190508181036000830152612b5d81612b21565b9050919050565b6000606082019050612b796000830186612046565b612b8660208301856120c3565b612b9360408301846120c3565b949350505050565b7f455243313936373a206e657720696d706c656d656e746174696f6e206973206e60008201527f6f74206120636f6e747261637400000000000000000000000000000000000000602082015250565b6000612bf7602d836122ae565b9150612c0282612b9b565b604082019050919050565b60006020820190508181036000830152612c2681612bea565b9050919050565b7f416464726573733a2064656c65676174652063616c6c20746f206e6f6e2d636f60008201527f6e74726163740000000000000000000000000000000000000000000000000000602082015250565b6000612c896026836122ae565b9150612c9482612c2d565b604082019050919050565b60006020820190508181036000830152612cb881612c7c565b9050919050565b600081519050919050565b600081905092915050565b60005b83811015612cf3578082015181840152602081019050612cd8565b60008484015250505050565b6000612d0a82612cbf565b612d148185612cca565b9350612d24818560208601612cd5565b80840191505092915050565b6000612d3c8284612cff565b915081905092915050565b600081519050919050565b6000612d5d82612d47565b612d6781856122ae565b9350612d77818560208601612cd5565b612d8081611e48565b840191505092915050565b60006020820190508181036000830152612da58184612d52565b90509291505056fe416464726573733a206c6f772d6c6576656c2064656c65676174652063616c6c206661696c6564a26469706673582212201fc578a02c71663d08d9418f43b90d0cfb915fce8b795aeccabbd8d5f7dbefe564736f6c63430008100033",
  "linkReferences": {},
  "deployedLinkReferences": {}
}