{
  "_format": "hh-sol-artifact-1",
  "contractName": "EtherVault",
  "sourceName": "contracts/providers/EtherVault.sol",
  "abi": [
    {
      "inputs": [],
      "stateMutability": "nonpayable",
      "type": "constructor"
    },
    {
      "anonymous": false,
      "inputs": [
        {
          "indexed": false,
          "internalType": "address",
          "name": "previousAdmin",
          "type": "address"
        },
        {
          "indexed": false,
          "internalType": "address",
          "name": "newAdmin",
          "type": "address"
        }
      ],
      "name": "AdminChanged",
      "type": "event"
    },
    {
      "anonymous": false,
      "inputs": [
        {
          "indexed": true,
          "internalType": "address",
          "name": "beacon",
          "type": "address"
        }
      ],
      "name": "BeaconUpgraded",
      "type": "event"
    },
    {
      "anonymous": false,
      "inputs": [
        {
          "indexed": false,
          "internalType": "uint8",
          "name": "version",
          "type": "uint8"
        }
      ],
      "name": "Initialized",
      "type": "event"
    },
    {
      "anonymous": false,
      "inputs": [
        {
          "indexed": true,
          "internalType": "address",
          "name": "previousOwner",
          "type": "address"
        },
        {
          "indexed": true,
          "internalType": "address",
          "name": "newOwner",
          "type": "address"
        }
      ],
      "name": "OwnershipTransferred",
      "type": "event"
    },
    {
      "anonymous": false,
      "inputs": [
        {
          "indexed": true,
          "internalType": "address",
          "name": "implementation",
          "type": "address"
        }
      ],
      "name": "Upgraded",
      "type": "event"
    },
    {
      "inputs": [
        {
          "internalType": "uint256",
          "name": "keyId",
          "type": "uint256"
        }
      ],
      "name": "deposit",
      "outputs": [],
      "stateMutability": "payable",
      "type": "function"
    },
    {
      "inputs": [],
      "name": "ethArn",
      "outputs": [
        {
          "internalType": "bytes32",
          "name": "",
          "type": "bytes32"
        }
      ],
      "stateMutability": "view",
      "type": "function"
    },
    {
      "inputs": [
        {
          "internalType": "address",
          "name": "_Locksmith",
          "type": "address"
        },
        {
          "internalType": "address",
          "name": "_Ledger",
          "type": "address"
        }
      ],
      "name": "initialize",
      "outputs": [],
      "stateMutability": "nonpayable",
      "type": "function"
    },
    {
      "inputs": [],
      "name": "ledger",
      "outputs": [
        {
          "internalType": "contract Ledger",
          "name": "",
          "type": "address"
        }
      ],
      "stateMutability": "view",
      "type": "function"
    },
    {
      "inputs": [],
      "name": "locksmith",
      "outputs": [
        {
          "internalType": "contract Locksmith",
          "name": "",
          "type": "address"
        }
      ],
      "stateMutability": "view",
      "type": "function"
    },
    {
      "inputs": [],
      "name": "owner",
      "outputs": [
        {
          "internalType": "address",
          "name": "",
          "type": "address"
        }
      ],
      "stateMutability": "view",
      "type": "function"
    },
    {
      "inputs": [],
      "name": "proxiableUUID",
      "outputs": [
        {
          "internalType": "bytes32",
          "name": "",
          "type": "bytes32"
        }
      ],
      "stateMutability": "view",
      "type": "function"
    },
    {
      "inputs": [],
      "name": "renounceOwnership",
      "outputs": [],
      "stateMutability": "nonpayable",
      "type": "function"
    },
    {
      "inputs": [
        {
          "internalType": "address",
          "name": "newOwner",
          "type": "address"
        }
      ],
      "name": "transferOwnership",
      "outputs": [],
      "stateMutability": "nonpayable",
      "type": "function"
    },
    {
      "inputs": [
        {
          "internalType": "address",
          "name": "newImplementation",
          "type": "address"
        }
      ],
      "name": "upgradeTo",
      "outputs": [],
      "stateMutability": "nonpayable",
      "type": "function"
    },
    {
      "inputs": [
        {
          "internalType": "address",
          "name": "newImplementation",
          "type": "address"
        },
        {
          "internalType": "bytes",
          "name": "data",
          "type": "bytes"
        }
      ],
      "name": "upgradeToAndCall",
      "outputs": [],
      "stateMutability": "payable",
      "type": "function"
    },
    {
      "inputs": [
        {
          "internalType": "uint256",
          "name": "keyId",
          "type": "uint256"
        },
        {
          "internalType": "uint256",
          "name": "amount",
          "type": "uint256"
        }
      ],
      "name": "withdrawal",
      "outputs": [],
      "stateMutability": "nonpayable",
      "type": "function"
    }
  ],
  "bytecode": "0x60a06040523073ffffffffffffffffffffffffffffffffffffffff1660809073ffffffffffffffffffffffffffffffffffffffff168152503480156200004457600080fd5b50620000556200005b60201b60201c565b62000206565b600060019054906101000a900460ff1615620000ae576040517f08c379a0000000000000000000000000000000000000000000000000000000008152600401620000a590620001a9565b60405180910390fd5b60ff801660008054906101000a900460ff1660ff161015620001205760ff6000806101000a81548160ff021916908360ff1602179055507f7f26b83ff96e1f2b6a682f133852f6798a09c465da95921460cefb384740249860ff604051620001179190620001e9565b60405180910390a15b565b600082825260208201905092915050565b7f496e697469616c697a61626c653a20636f6e747261637420697320696e69746960008201527f616c697a696e6700000000000000000000000000000000000000000000000000602082015250565b60006200019160278362000122565b91506200019e8262000133565b604082019050919050565b60006020820190508181036000830152620001c48162000182565b9050919050565b600060ff82169050919050565b620001e381620001cb565b82525050565b6000602082019050620002006000830184620001d8565b92915050565b60805161241b6200023e6000396000818161029e0152818161032c01528181610632015281816106c00152610770015261241b6000f3fe6080604052600436106100a75760003560e01c8063615a449111610064578063615a44911461019b578063715018a6146101c65780638da5cb5b146101dd578063b6b55f2514610208578063c72a869614610224578063f2fde38b1461024d576100a7565b806313fb817e146100ac5780633659cfe6146100d7578063485cc955146101005780634f1ef2861461012957806352d1902d1461014557806356397c3514610170575b600080fd5b3480156100b857600080fd5b506100c1610276565b6040516100ce919061154b565b60405180910390f35b3480156100e357600080fd5b506100fe60048036038101906100f991906115b8565b61029c565b005b34801561010c57600080fd5b50610127600480360381019061012291906115e5565b610424565b005b610143600480360381019061013e919061176b565b610630565b005b34801561015157600080fd5b5061015a61076c565b60405161016791906117e0565b60405180910390f35b34801561017c57600080fd5b50610185610825565b604051610192919061181c565b60405180910390f35b3480156101a757600080fd5b506101b061084b565b6040516101bd91906117e0565b60405180910390f35b3480156101d257600080fd5b506101db610851565b005b3480156101e957600080fd5b506101f2610865565b6040516101ff9190611846565b60405180910390f35b610222600480360381019061021d9190611897565b61088f565b005b34801561023057600080fd5b5061024b600480360381019061024691906118c4565b610a9a565b005b34801561025957600080fd5b50610274600480360381019061026f91906115b8565b610d2c565b005b60c960009054906101000a900473ffffffffffffffffffffffffffffffffffffffff1681565b7f000000000000000000000000000000000000000000000000000000000000000073ffffffffffffffffffffffffffffffffffffffff163073ffffffffffffffffffffffffffffffffffffffff160361032a576040517f08c379a000000000000000000000000000000000000000000000000000000000815260040161032190611987565b60405180910390fd5b7f000000000000000000000000000000000000000000000000000000000000000073ffffffffffffffffffffffffffffffffffffffff16610369610daf565b73ffffffffffffffffffffffffffffffffffffffff16146103bf576040517f08c379a00000000000000000000000000000000000000000000000000000000081526004016103b690611a19565b60405180910390fd5b6103c881610e06565b61042181600067ffffffffffffffff8111156103e7576103e6611640565b5b6040519080825280601f01601f1916602001820160405280156104195781602001600182028036833780820191505090505b506000610e11565b50565b60008060019054906101000a900460ff161590508080156104555750600160008054906101000a900460ff1660ff16105b80610482575061046430610f7f565b1580156104815750600160008054906101000a900460ff1660ff16145b5b6104c1576040517f08c379a00000000000000000000000000000000000000000000000000000000081526004016104b890611aab565b60405180910390fd5b60016000806101000a81548160ff021916908360ff16021790555080156104fe576001600060016101000a81548160ff0219169083151502179055505b610506610fa2565b61050e610ffb565b8260c960006101000a81548173ffffffffffffffffffffffffffffffffffffffff021916908373ffffffffffffffffffffffffffffffffffffffff1602179055508160ca60006101000a81548173ffffffffffffffffffffffffffffffffffffffff021916908373ffffffffffffffffffffffffffffffffffffffff1602179055506105cc6040518060600160405280600073ffffffffffffffffffffffffffffffffffffffff16815260200160008152602001600081525061104c565b60cb81905550801561062b5760008060016101000a81548160ff0219169083151502179055507f7f26b83ff96e1f2b6a682f133852f6798a09c465da95921460cefb384740249860016040516106229190611b13565b60405180910390a15b505050565b7f000000000000000000000000000000000000000000000000000000000000000073ffffffffffffffffffffffffffffffffffffffff163073ffffffffffffffffffffffffffffffffffffffff16036106be576040517f08c379a00000000000000000000000000000000000000000000000000000000081526004016106b590611987565b60405180910390fd5b7f000000000000000000000000000000000000000000000000000000000000000073ffffffffffffffffffffffffffffffffffffffff166106fd610daf565b73ffffffffffffffffffffffffffffffffffffffff1614610753576040517f08c379a000000000000000000000000000000000000000000000000000000000815260040161074a90611a19565b60405180910390fd5b61075c82610e06565b61076882826001610e11565b5050565b60007f000000000000000000000000000000000000000000000000000000000000000073ffffffffffffffffffffffffffffffffffffffff163073ffffffffffffffffffffffffffffffffffffffff16146107fc576040517f08c379a00000000000000000000000000000000000000000000000000000000081526004016107f390611ba0565b60405180910390fd5b7f360894a13ba1a3210667c828492db98dca3e2076cc3735a920a3ca505d382bbc60001b905090565b60ca60009054906101000a900473ffffffffffffffffffffffffffffffffffffffff1681565b60cb5481565b61085961108c565b610863600061110a565b565b6000603360009054906101000a900473ffffffffffffffffffffffffffffffffffffffff16905090565b600060c960009054906101000a900473ffffffffffffffffffffffffffffffffffffffff1673ffffffffffffffffffffffffffffffffffffffff1663a1ca66876040518163ffffffff1660e01b8152600401602060405180830381865afa1580156108fe573d6000803e3d6000fd5b505050506040513d601f19601f820116820180604052508101906109229190611bfe565b73ffffffffffffffffffffffffffffffffffffffff1662fdd58e33846040518363ffffffff1660e01b815260040161095b929190611c3a565b602060405180830381865afa158015610978573d6000803e3d6000fd5b505050506040513d601f19601f8201168201806040525081019061099c9190611c78565b116109dc576040517f08c379a00000000000000000000000000000000000000000000000000000000081526004016109d390611cf1565b60405180910390fd5b600060ca60009054906101000a900473ffffffffffffffffffffffffffffffffffffffff1673ffffffffffffffffffffffffffffffffffffffff16630331d4de8360cb54346040518463ffffffff1660e01b8152600401610a3f93929190611d11565b6060604051808303816000875af1158015610a5e573d6000803e3d6000fd5b505050506040513d601f19601f82011682018060405250810190610a829190611d48565b92505050478114610a9657610a95611d9b565b5b5050565b600060c960009054906101000a900473ffffffffffffffffffffffffffffffffffffffff1673ffffffffffffffffffffffffffffffffffffffff1663a1ca66876040518163ffffffff1660e01b8152600401602060405180830381865afa158015610b09573d6000803e3d6000fd5b505050506040513d601f19601f82011682018060405250810190610b2d9190611bfe565b73ffffffffffffffffffffffffffffffffffffffff1662fdd58e33856040518363ffffffff1660e01b8152600401610b66929190611c3a565b602060405180830381865afa158015610b83573d6000803e3d6000fd5b505050506040513d601f19601f82011682018060405250810190610ba79190611c78565b11610be7576040517f08c379a0000000000000000000000000000000000000000000000000000000008152600401610bde90611cf1565b60405180910390fd5b600060ca60009054906101000a900473ffffffffffffffffffffffffffffffffffffffff1673ffffffffffffffffffffffffffffffffffffffff1663d84681e28460cb54856040518463ffffffff1660e01b8152600401610c4a93929190611d11565b6060604051808303816000875af1158015610c69573d6000803e3d6000fd5b505050506040513d601f19601f82011682018060405250810190610c8d9190611d48565b925050508147610c9d9190611df9565b8114610cac57610cab611d9b565b5b60003373ffffffffffffffffffffffffffffffffffffffff1683604051610cd290611e5e565b60006040518083038185875af1925050503d8060008114610d0f576040519150601f19603f3d011682016040523d82523d6000602084013e610d14565b606091505b5050905080610d2657610d25611d9b565b5b50505050565b610d3461108c565b600073ffffffffffffffffffffffffffffffffffffffff168173ffffffffffffffffffffffffffffffffffffffff1603610da3576040517f08c379a0000000000000000000000000000000000000000000000000000000008152600401610d9a90611ee5565b60405180910390fd5b610dac8161110a565b50565b6000610ddd7f360894a13ba1a3210667c828492db98dca3e2076cc3735a920a3ca505d382bbc60001b6111d0565b60000160009054906101000a900473ffffffffffffffffffffffffffffffffffffffff16905090565b610e0e61108c565b50565b610e3d7f4910fdfa16fed3260ed0e7147f7cc6da11a60208b5b9406d12a635614ffd914360001b6111da565b60000160009054906101000a900460ff1615610e6157610e5c836111e4565b610f7a565b8273ffffffffffffffffffffffffffffffffffffffff166352d1902d6040518163ffffffff1660e01b8152600401602060405180830381865afa925050508015610ec957506040513d601f19601f82011682018060405250810190610ec69190611f31565b60015b610f08576040517f08c379a0000000000000000000000000000000000000000000000000000000008152600401610eff90611fd0565b60405180910390fd5b7f360894a13ba1a3210667c828492db98dca3e2076cc3735a920a3ca505d382bbc60001b8114610f6d576040517f08c379a0000000000000000000000000000000000000000000000000000000008152600401610f6490612062565b60405180910390fd5b50610f7983838361129d565b5b505050565b6000808273ffffffffffffffffffffffffffffffffffffffff163b119050919050565b600060019054906101000a900460ff16610ff1576040517f08c379a0000000000000000000000000000000000000000000000000000000008152600401610fe8906120f4565b60405180910390fd5b610ff96112c9565b565b600060019054906101000a900460ff1661104a576040517f08c379a0000000000000000000000000000000000000000000000000000000008152600401611041906120f4565b60405180910390fd5b565b600081600001518260200151836040015160405160200161106f93929190612114565b604051602081830303815290604052805190602001209050919050565b61109461132a565b73ffffffffffffffffffffffffffffffffffffffff166110b2610865565b73ffffffffffffffffffffffffffffffffffffffff1614611108576040517f08c379a00000000000000000000000000000000000000000000000000000000081526004016110ff90612197565b60405180910390fd5b565b6000603360009054906101000a900473ffffffffffffffffffffffffffffffffffffffff16905081603360006101000a81548173ffffffffffffffffffffffffffffffffffffffff021916908373ffffffffffffffffffffffffffffffffffffffff1602179055508173ffffffffffffffffffffffffffffffffffffffff168173ffffffffffffffffffffffffffffffffffffffff167f8be0079c531659141344cd1fd0a4f28419497f9722a3daafe3b4186f6b6457e060405160405180910390a35050565b6000819050919050565b6000819050919050565b6111ed81610f7f565b61122c576040517f08c379a000000000000000000000000000000000000000000000000000000000815260040161122390612229565b60405180910390fd5b806112597f360894a13ba1a3210667c828492db98dca3e2076cc3735a920a3ca505d382bbc60001b6111d0565b60000160006101000a81548173ffffffffffffffffffffffffffffffffffffffff021916908373ffffffffffffffffffffffffffffffffffffffff16021790555050565b6112a683611332565b6000825111806112b35750805b156112c4576112c28383611381565b505b505050565b600060019054906101000a900460ff16611318576040517f08c379a000000000000000000000000000000000000000000000000000000000815260040161130f906120f4565b60405180910390fd5b61132861132361132a565b61110a565b565b600033905090565b61133b816111e4565b8073ffffffffffffffffffffffffffffffffffffffff167fbc7cd75a20ee27fd9adebab32041f755214dbc6bffa90cc0225b39da2e5c2d3b60405160405180910390a250565b606061138c83610f7f565b6113cb576040517f08c379a00000000000000000000000000000000000000000000000000000000081526004016113c2906122bb565b60405180910390fd5b6000808473ffffffffffffffffffffffffffffffffffffffff16846040516113f39190612341565b600060405180830381855af49150503d806000811461142e576040519150601f19603f3d011682016040523d82523d6000602084013e611433565b606091505b509150915061145b82826040518060600160405280602781526020016123bf60279139611465565b9250505092915050565b60608315611475578290506114c5565b6000835111156114885782518084602001fd5b816040517f08c379a00000000000000000000000000000000000000000000000000000000081526004016114bc919061239c565b60405180910390fd5b9392505050565b600073ffffffffffffffffffffffffffffffffffffffff82169050919050565b6000819050919050565b600061151161150c611507846114cc565b6114ec565b6114cc565b9050919050565b6000611523826114f6565b9050919050565b600061153582611518565b9050919050565b6115458161152a565b82525050565b6000602082019050611560600083018461153c565b92915050565b6000604051905090565b600080fd5b600080fd5b6000611585826114cc565b9050919050565b6115958161157a565b81146115a057600080fd5b50565b6000813590506115b28161158c565b92915050565b6000602082840312156115ce576115cd611570565b5b60006115dc848285016115a3565b91505092915050565b600080604083850312156115fc576115fb611570565b5b600061160a858286016115a3565b925050602061161b858286016115a3565b9150509250929050565b600080fd5b600080fd5b6000601f19601f8301169050919050565b7f4e487b7100000000000000000000000000000000000000000000000000000000600052604160045260246000fd5b6116788261162f565b810181811067ffffffffffffffff8211171561169757611696611640565b5b80604052505050565b60006116aa611566565b90506116b6828261166f565b919050565b600067ffffffffffffffff8211156116d6576116d5611640565b5b6116df8261162f565b9050602081019050919050565b82818337600083830152505050565b600061170e611709846116bb565b6116a0565b90508281526020810184848401111561172a5761172961162a565b5b6117358482856116ec565b509392505050565b600082601f83011261175257611751611625565b5b81356117628482602086016116fb565b91505092915050565b6000806040838503121561178257611781611570565b5b6000611790858286016115a3565b925050602083013567ffffffffffffffff8111156117b1576117b0611575565b5b6117bd8582860161173d565b9150509250929050565b6000819050919050565b6117da816117c7565b82525050565b60006020820190506117f560008301846117d1565b92915050565b600061180682611518565b9050919050565b611816816117fb565b82525050565b6000602082019050611831600083018461180d565b92915050565b6118408161157a565b82525050565b600060208201905061185b6000830184611837565b92915050565b6000819050919050565b61187481611861565b811461187f57600080fd5b50565b6000813590506118918161186b565b92915050565b6000602082840312156118ad576118ac611570565b5b60006118bb84828501611882565b91505092915050565b600080604083850312156118db576118da611570565b5b60006118e985828601611882565b92505060206118fa85828601611882565b9150509250929050565b600082825260208201905092915050565b7f46756e6374696f6e206d7573742062652063616c6c6564207468726f7567682060008201527f64656c656761746563616c6c0000000000000000000000000000000000000000602082015250565b6000611971602c83611904565b915061197c82611915565b604082019050919050565b600060208201905081810360008301526119a081611964565b9050919050565b7f46756e6374696f6e206d7573742062652063616c6c6564207468726f7567682060008201527f6163746976652070726f78790000000000000000000000000000000000000000602082015250565b6000611a03602c83611904565b9150611a0e826119a7565b604082019050919050565b60006020820190508181036000830152611a32816119f6565b9050919050565b7f496e697469616c697a61626c653a20636f6e747261637420697320616c72656160008201527f647920696e697469616c697a6564000000000000000000000000000000000000602082015250565b6000611a95602e83611904565b9150611aa082611a39565b604082019050919050565b60006020820190508181036000830152611ac481611a88565b9050919050565b6000819050919050565b600060ff82169050919050565b6000611afd611af8611af384611acb565b6114ec565b611ad5565b9050919050565b611b0d81611ae2565b82525050565b6000602082019050611b286000830184611b04565b92915050565b7f555550535570677261646561626c653a206d757374206e6f742062652063616c60008201527f6c6564207468726f7567682064656c656761746563616c6c0000000000000000602082015250565b6000611b8a603883611904565b9150611b9582611b2e565b604082019050919050565b60006020820190508181036000830152611bb981611b7d565b9050919050565b6000611bcb8261157a565b9050919050565b611bdb81611bc0565b8114611be657600080fd5b50565b600081519050611bf881611bd2565b92915050565b600060208284031215611c1457611c13611570565b5b6000611c2284828501611be9565b91505092915050565b611c3481611861565b82525050565b6000604082019050611c4f6000830185611837565b611c5c6020830184611c2b565b9392505050565b600081519050611c728161186b565b92915050565b600060208284031215611c8e57611c8d611570565b5b6000611c9c84828501611c63565b91505092915050565b7f4b45595f4e4f545f48454c440000000000000000000000000000000000000000600082015250565b6000611cdb600c83611904565b9150611ce682611ca5565b602082019050919050565b60006020820190508181036000830152611d0a81611cce565b9050919050565b6000606082019050611d266000830186611c2b565b611d3360208301856117d1565b611d406040830184611c2b565b949350505050565b600080600060608486031215611d6157611d60611570565b5b6000611d6f86828701611c63565b9350506020611d8086828701611c63565b9250506040611d9186828701611c63565b9150509250925092565b7f4e487b7100000000000000000000000000000000000000000000000000000000600052600160045260246000fd5b7f4e487b7100000000000000000000000000000000000000000000000000000000600052601160045260246000fd5b6000611e0482611861565b9150611e0f83611861565b9250828203905081811115611e2757611e26611dca565b5b92915050565b600081905092915050565b50565b6000611e48600083611e2d565b9150611e5382611e38565b600082019050919050565b6000611e6982611e3b565b9150819050919050565b7f4f776e61626c653a206e6577206f776e657220697320746865207a65726f206160008201527f6464726573730000000000000000000000000000000000000000000000000000602082015250565b6000611ecf602683611904565b9150611eda82611e73565b604082019050919050565b60006020820190508181036000830152611efe81611ec2565b9050919050565b611f0e816117c7565b8114611f1957600080fd5b50565b600081519050611f2b81611f05565b92915050565b600060208284031215611f4757611f46611570565b5b6000611f5584828501611f1c565b91505092915050565b7f45524331393637557067726164653a206e657720696d706c656d656e7461746960008201527f6f6e206973206e6f742055555053000000000000000000000000000000000000602082015250565b6000611fba602e83611904565b9150611fc582611f5e565b604082019050919050565b60006020820190508181036000830152611fe981611fad565b9050919050565b7f45524331393637557067726164653a20756e737570706f727465642070726f7860008201527f6961626c65555549440000000000000000000000000000000000000000000000602082015250565b600061204c602983611904565b915061205782611ff0565b604082019050919050565b6000602082019050818103600083015261207b8161203f565b9050919050565b7f496e697469616c697a61626c653a20636f6e7472616374206973206e6f74206960008201527f6e697469616c697a696e67000000000000000000000000000000000000000000602082015250565b60006120de602b83611904565b91506120e982612082565b604082019050919050565b6000602082019050818103600083015261210d816120d1565b9050919050565b60006060820190506121296000830186611837565b6121366020830185611c2b565b6121436040830184611c2b565b949350505050565b7f4f776e61626c653a2063616c6c6572206973206e6f7420746865206f776e6572600082015250565b6000612181602083611904565b915061218c8261214b565b602082019050919050565b600060208201905081810360008301526121b081612174565b9050919050565b7f455243313936373a206e657720696d706c656d656e746174696f6e206973206e60008201527f6f74206120636f6e747261637400000000000000000000000000000000000000602082015250565b6000612213602d83611904565b915061221e826121b7565b604082019050919050565b6000602082019050818103600083015261224281612206565b9050919050565b7f416464726573733a2064656c65676174652063616c6c20746f206e6f6e2d636f60008201527f6e74726163740000000000000000000000000000000000000000000000000000602082015250565b60006122a5602683611904565b91506122b082612249565b604082019050919050565b600060208201905081810360008301526122d481612298565b9050919050565b600081519050919050565b60005b838110156123045780820151818401526020810190506122e9565b60008484015250505050565b600061231b826122db565b6123258185611e2d565b93506123358185602086016122e6565b80840191505092915050565b600061234d8284612310565b915081905092915050565b600081519050919050565b600061236e82612358565b6123788185611904565b93506123888185602086016122e6565b6123918161162f565b840191505092915050565b600060208201905081810360008301526123b68184612363565b90509291505056fe416464726573733a206c6f772d6c6576656c2064656c65676174652063616c6c206661696c6564a264697066735822122068e38d1f79c77526178351d9e06dc14209de1e546f22b019474e02d4b2bba96d64736f6c63430008100033",
  "linkReferences": {},
  "deployedLinkReferences": {}
}