{
  "_format": "hh-sol-artifact-1",
  "contractName": "EtherVault",
  "sourceName": "contracts/providers/EtherVault.sol",
  "abi": [
    {
      "inputs": [],
      "stateMutability": "nonpayable",
      "type": "constructor"
    },
    {
      "anonymous": false,
      "inputs": [
        {
          "indexed": false,
          "internalType": "address",
          "name": "previousAdmin",
          "type": "address"
        },
        {
          "indexed": false,
          "internalType": "address",
          "name": "newAdmin",
          "type": "address"
        }
      ],
      "name": "AdminChanged",
      "type": "event"
    },
    {
      "anonymous": false,
      "inputs": [
        {
          "indexed": true,
          "internalType": "address",
          "name": "beacon",
          "type": "address"
        }
      ],
      "name": "BeaconUpgraded",
      "type": "event"
    },
    {
      "anonymous": false,
      "inputs": [
        {
          "indexed": false,
          "internalType": "uint8",
          "name": "version",
          "type": "uint8"
        }
      ],
      "name": "Initialized",
      "type": "event"
    },
    {
      "anonymous": false,
      "inputs": [
        {
          "indexed": true,
          "internalType": "address",
          "name": "previousOwner",
          "type": "address"
        },
        {
          "indexed": true,
          "internalType": "address",
          "name": "newOwner",
          "type": "address"
        }
      ],
      "name": "OwnershipTransferred",
      "type": "event"
    },
    {
      "anonymous": false,
      "inputs": [
        {
          "indexed": true,
          "internalType": "address",
          "name": "implementation",
          "type": "address"
        }
      ],
      "name": "Upgraded",
      "type": "event"
    },
    {
      "inputs": [
        {
          "internalType": "uint256",
          "name": "keyId",
          "type": "uint256"
        },
        {
          "internalType": "bytes32",
          "name": "arn",
          "type": "bytes32"
        },
        {
          "internalType": "uint256",
          "name": "amount",
          "type": "uint256"
        }
      ],
      "name": "arnWithdrawal",
      "outputs": [],
      "stateMutability": "nonpayable",
      "type": "function"
    },
    {
      "inputs": [
        {
          "internalType": "uint256",
          "name": "keyId",
          "type": "uint256"
        }
      ],
      "name": "deposit",
      "outputs": [],
      "stateMutability": "payable",
      "type": "function"
    },
    {
      "inputs": [],
      "name": "ethArn",
      "outputs": [
        {
          "internalType": "bytes32",
          "name": "",
          "type": "bytes32"
        }
      ],
      "stateMutability": "view",
      "type": "function"
    },
    {
      "inputs": [],
      "name": "etherBalance",
      "outputs": [
        {
          "internalType": "uint256",
          "name": "",
          "type": "uint256"
        }
      ],
      "stateMutability": "view",
      "type": "function"
    },
    {
      "inputs": [],
      "name": "getTrustedLedger",
      "outputs": [
        {
          "internalType": "address",
          "name": "",
          "type": "address"
        }
      ],
      "stateMutability": "view",
      "type": "function"
    },
    {
      "inputs": [
        {
          "internalType": "address",
          "name": "_Locksmith",
          "type": "address"
        },
        {
          "internalType": "address",
          "name": "_Ledger",
          "type": "address"
        }
      ],
      "name": "initialize",
      "outputs": [],
      "stateMutability": "nonpayable",
      "type": "function"
    },
    {
      "inputs": [],
      "name": "ledger",
      "outputs": [
        {
          "internalType": "contract ILedger",
          "name": "",
          "type": "address"
        }
      ],
      "stateMutability": "view",
      "type": "function"
    },
    {
      "inputs": [],
      "name": "locksmith",
      "outputs": [
        {
          "internalType": "contract ILocksmith",
          "name": "",
          "type": "address"
        }
      ],
      "stateMutability": "view",
      "type": "function"
    },
    {
      "inputs": [],
      "name": "owner",
      "outputs": [
        {
          "internalType": "address",
          "name": "",
          "type": "address"
        }
      ],
      "stateMutability": "view",
      "type": "function"
    },
    {
      "inputs": [],
      "name": "proxiableUUID",
      "outputs": [
        {
          "internalType": "bytes32",
          "name": "",
          "type": "bytes32"
        }
      ],
      "stateMutability": "view",
      "type": "function"
    },
    {
      "inputs": [],
      "name": "renounceOwnership",
      "outputs": [],
      "stateMutability": "nonpayable",
      "type": "function"
    },
    {
      "inputs": [
        {
          "internalType": "address",
          "name": "newOwner",
          "type": "address"
        }
      ],
      "name": "transferOwnership",
      "outputs": [],
      "stateMutability": "nonpayable",
      "type": "function"
    },
    {
      "inputs": [
        {
          "internalType": "address",
          "name": "newImplementation",
          "type": "address"
        }
      ],
      "name": "upgradeTo",
      "outputs": [],
      "stateMutability": "nonpayable",
      "type": "function"
    },
    {
      "inputs": [
        {
          "internalType": "address",
          "name": "newImplementation",
          "type": "address"
        },
        {
          "internalType": "bytes",
          "name": "data",
          "type": "bytes"
        }
      ],
      "name": "upgradeToAndCall",
      "outputs": [],
      "stateMutability": "payable",
      "type": "function"
    },
    {
      "inputs": [
        {
          "internalType": "uint256",
          "name": "keyId",
          "type": "uint256"
        },
        {
          "internalType": "uint256",
          "name": "amount",
          "type": "uint256"
        }
      ],
      "name": "withdrawal",
      "outputs": [],
      "stateMutability": "nonpayable",
      "type": "function"
    }
  ],
  "bytecode": "0x60a06040523060805234801561001457600080fd5b5061001d610022565b6100e2565b600054610100900460ff161561008e5760405162461bcd60e51b815260206004820152602760248201527f496e697469616c697a61626c653a20636f6e747261637420697320696e697469604482015266616c697a696e6760c81b606482015260840160405180910390fd5b60005460ff90811610156100e0576000805460ff191660ff9081179091556040519081527f7f26b83ff96e1f2b6a682f133852f6798a09c465da95921460cefb38474024989060200160405180910390a15b565b6080516116be610119600039600081816102bc0152818161034601528181610649015281816106ce01526107b801526116be6000f3fe6080604052600436106100e85760003560e01c8063615a44911161008a578063ad66e52a11610059578063ad66e52a14610249578063b6b55f251461025f578063c72a869614610272578063f2fde38b1461029257600080fd5b8063615a4491146101e2578063715018a6146101f85780638da5cb5b1461020d578063962047981461022b57600080fd5b80634dc33cd9116100c65780634dc33cd91461016c5780634f1ef2861461018c57806352d1902d1461019f57806356397c35146101c257600080fd5b806313fb817e146100ed5780633659cfe61461012a578063485cc9551461014c575b600080fd5b3480156100f957600080fd5b5060c95461010d906001600160a01b031681565b6040516001600160a01b0390911681526020015b60405180910390f35b34801561013657600080fd5b5061014a6101453660046113a1565b6102b2565b005b34801561015857600080fd5b5061014a6101673660046113be565b610432565b34801561017857600080fd5b5061014a6101873660046113f7565b6105e4565b61014a61019a366004611439565b61063f565b3480156101ab57600080fd5b506101b46107ab565b604051908152602001610121565b3480156101ce57600080fd5b5060ca5461010d906001600160a01b031681565b3480156101ee57600080fd5b506101b460cb5481565b34801561020457600080fd5b5061014a610870565b34801561021957600080fd5b506033546001600160a01b031661010d565b34801561023757600080fd5b5060ca546001600160a01b031661010d565b34801561025557600080fd5b506101b460cc5481565b61014a61026d3660046114fd565b610884565b34801561027e57600080fd5b5061014a61028d366004611516565b610a6c565b34801561029e57600080fd5b5061014a6102ad3660046113a1565b610a76565b6001600160a01b037f00000000000000000000000000000000000000000000000000000000000000001630036103445760405162461bcd60e51b815260206004820152602c60248201527f46756e6374696f6e206d7573742062652063616c6c6564207468726f7567682060448201526b19195b1959d85d1958d85b1b60a21b60648201526084015b60405180910390fd5b7f00000000000000000000000000000000000000000000000000000000000000006001600160a01b031661039f7f360894a13ba1a3210667c828492db98dca3e2076cc3735a920a3ca505d382bbc546001600160a01b031690565b6001600160a01b03161461040a5760405162461bcd60e51b815260206004820152602c60248201527f46756e6374696f6e206d7573742062652063616c6c6564207468726f7567682060448201526b6163746976652070726f787960a01b606482015260840161033b565b61041381610b03565b6040805160008082526020820190925261042f91839190610b0b565b50565b600054610100900460ff16158080156104525750600054600160ff909116105b8061046c5750303b15801561046c575060005460ff166001145b6104de5760405162461bcd60e51b815260206004820152602e60248201527f496e697469616c697a61626c653a20636f6e747261637420697320616c72656160448201527f647920696e697469616c697a6564000000000000000000000000000000000000606482015260840161033b565b6000805460ff191660011790558015610501576000805461ff0019166101001790555b610509610cab565b610511610d1e565b60c980546001600160a01b0385811673ffffffffffffffffffffffffffffffffffffffff199283161790925560ca80549285169290911691909117905560408051606080820183526000808352602080840182905292840181905283518084018290528085018290528083019190915283518082039092018252608001909252815191012060cb5580156105df576000805461ff0019169055604051600181527f7f26b83ff96e1f2b6a682f133852f6798a09c465da95921460cefb38474024989060200160405180910390a15b505050565b60cb5482146106355760405162461bcd60e51b815260206004820152600b60248201527f494e56414c49445f41524e000000000000000000000000000000000000000000604482015260640161033b565b6105df8382610d89565b6001600160a01b037f00000000000000000000000000000000000000000000000000000000000000001630036106cc5760405162461bcd60e51b815260206004820152602c60248201527f46756e6374696f6e206d7573742062652063616c6c6564207468726f7567682060448201526b19195b1959d85d1958d85b1b60a21b606482015260840161033b565b7f00000000000000000000000000000000000000000000000000000000000000006001600160a01b03166107277f360894a13ba1a3210667c828492db98dca3e2076cc3735a920a3ca505d382bbc546001600160a01b031690565b6001600160a01b0316146107925760405162461bcd60e51b815260206004820152602c60248201527f46756e6374696f6e206d7573742062652063616c6c6564207468726f7567682060448201526b6163746976652070726f787960a01b606482015260840161033b565b61079b82610b03565b6107a782826001610b0b565b5050565b6000306001600160a01b037f0000000000000000000000000000000000000000000000000000000000000000161461084b5760405162461bcd60e51b815260206004820152603860248201527f555550535570677261646561626c653a206d757374206e6f742062652063616c60448201527f6c6564207468726f7567682064656c656761746563616c6c0000000000000000606482015260840161033b565b507f360894a13ba1a3210667c828492db98dca3e2076cc3735a920a3ca505d382bbc90565b610878610fe2565b610882600061103c565b565b60c9546040805163b83ac19f60e01b815290516000926001600160a01b03169163b83ac19f9160048083019260209291908290030181865afa1580156108ce573d6000803e3d6000fd5b505050506040513d601f19601f820116820180604052508101906108f29190611538565b604051630f5d2cd560e11b815233600482015260248101849052600060448201526001600160a01b039190911690631eba59aa90606401602060405180830381865afa158015610946573d6000803e3d6000fd5b505050506040513d601f19601f8201168201806040525081019061096a9190611555565b116109a65760405162461bcd60e51b815260206004820152600c60248201526b12d15657d393d517d211531160a21b604482015260640161033b565b60ca5460cb546040517f0331d4de0000000000000000000000000000000000000000000000000000000081526004810184905260248101919091523460448201526000916001600160a01b031690630331d4de906064016060604051808303816000875af1158015610a1c573d6000803e3d6000fd5b505050506040513d601f19601f82011682018060405250810190610a40919061156e565b925050503460cc6000828254610a5691906115b2565b909155505060cc5481146107a7576107a76115c5565b6107a78282610d89565b610a7e610fe2565b6001600160a01b038116610afa5760405162461bcd60e51b815260206004820152602660248201527f4f776e61626c653a206e6577206f776e657220697320746865207a65726f206160448201527f6464726573730000000000000000000000000000000000000000000000000000606482015260840161033b565b61042f8161103c565b61042f610fe2565b7f4910fdfa16fed3260ed0e7147f7cc6da11a60208b5b9406d12a635614ffd91435460ff1615610b3e576105df8361109b565b826001600160a01b03166352d1902d6040518163ffffffff1660e01b8152600401602060405180830381865afa925050508015610b98575060408051601f3d908101601f19168201909252610b9591810190611555565b60015b610c0a5760405162461bcd60e51b815260206004820152602e60248201527f45524331393637557067726164653a206e657720696d706c656d656e7461746960448201527f6f6e206973206e6f742055555053000000000000000000000000000000000000606482015260840161033b565b7f360894a13ba1a3210667c828492db98dca3e2076cc3735a920a3ca505d382bbc8114610c9f5760405162461bcd60e51b815260206004820152602960248201527f45524331393637557067726164653a20756e737570706f727465642070726f7860448201527f6961626c65555549440000000000000000000000000000000000000000000000606482015260840161033b565b506105df838383611166565b600054610100900460ff16610d165760405162461bcd60e51b815260206004820152602b60248201527f496e697469616c697a61626c653a20636f6e7472616374206973206e6f74206960448201526a6e697469616c697a696e6760a81b606482015260840161033b565b61088261118b565b600054610100900460ff166108825760405162461bcd60e51b815260206004820152602b60248201527f496e697469616c697a61626c653a20636f6e7472616374206973206e6f74206960448201526a6e697469616c697a696e6760a81b606482015260840161033b565b60c9546040805163b83ac19f60e01b815290516000926001600160a01b03169163b83ac19f9160048083019260209291908290030181865afa158015610dd3573d6000803e3d6000fd5b505050506040513d601f19601f82011682018060405250810190610df79190611538565b604051630f5d2cd560e11b815233600482015260248101859052600060448201526001600160a01b039190911690631eba59aa90606401602060405180830381865afa158015610e4b573d6000803e3d6000fd5b505050506040513d601f19601f82011682018060405250810190610e6f9190611555565b11610eab5760405162461bcd60e51b815260206004820152600c60248201526b12d15657d393d517d211531160a21b604482015260640161033b565b60ca5460cb546040517fd84681e2000000000000000000000000000000000000000000000000000000008152600481018590526024810191909152604481018390526000916001600160a01b03169063d84681e2906064016060604051808303816000875af1158015610f22573d6000803e3d6000fd5b505050506040513d601f19601f82011682018060405250810190610f46919061156e565b925050508160cc6000828254610f5c91906115db565b909155505060cc548114610f7257610f726115c5565b60cc54471015610f8457610f846115c5565b604051600090339084908381818185875af1925050503d8060008114610fc6576040519150601f19603f3d011682016040523d82523d6000602084013e610fcb565b606091505b5050905080610fdc57610fdc6115c5565b50505050565b6033546001600160a01b031633146108825760405162461bcd60e51b815260206004820181905260248201527f4f776e61626c653a2063616c6c6572206973206e6f7420746865206f776e6572604482015260640161033b565b603380546001600160a01b0383811673ffffffffffffffffffffffffffffffffffffffff19831681179093556040519116919082907f8be0079c531659141344cd1fd0a4f28419497f9722a3daafe3b4186f6b6457e090600090a35050565b6001600160a01b0381163b6111185760405162461bcd60e51b815260206004820152602d60248201527f455243313936373a206e657720696d706c656d656e746174696f6e206973206e60448201527f6f74206120636f6e747261637400000000000000000000000000000000000000606482015260840161033b565b7f360894a13ba1a3210667c828492db98dca3e2076cc3735a920a3ca505d382bbc805473ffffffffffffffffffffffffffffffffffffffff19166001600160a01b0392909216919091179055565b61116f836111ff565b60008251118061117c5750805b156105df57610fdc838361123f565b600054610100900460ff166111f65760405162461bcd60e51b815260206004820152602b60248201527f496e697469616c697a61626c653a20636f6e7472616374206973206e6f74206960448201526a6e697469616c697a696e6760a81b606482015260840161033b565b6108823361103c565b6112088161109b565b6040516001600160a01b038216907fbc7cd75a20ee27fd9adebab32041f755214dbc6bffa90cc0225b39da2e5c2d3b90600090a250565b60606001600160a01b0383163b6112be5760405162461bcd60e51b815260206004820152602660248201527f416464726573733a2064656c65676174652063616c6c20746f206e6f6e2d636f60448201527f6e74726163740000000000000000000000000000000000000000000000000000606482015260840161033b565b600080846001600160a01b0316846040516112d99190611612565b600060405180830381855af49150503d8060008114611314576040519150601f19603f3d011682016040523d82523d6000602084013e611319565b606091505b509150915061134182826040518060600160405280602781526020016116626027913961134c565b925050505b92915050565b6060831561135b575081611385565b82511561136b5782518084602001fd5b8160405162461bcd60e51b815260040161033b919061162e565b9392505050565b6001600160a01b038116811461042f57600080fd5b6000602082840312156113b357600080fd5b81356113858161138c565b600080604083850312156113d157600080fd5b82356113dc8161138c565b915060208301356113ec8161138c565b809150509250929050565b60008060006060848603121561140c57600080fd5b505081359360208301359350604090920135919050565b634e487b7160e01b600052604160045260246000fd5b6000806040838503121561144c57600080fd5b82356114578161138c565b9150602083013567ffffffffffffffff8082111561147457600080fd5b818501915085601f83011261148857600080fd5b81358181111561149a5761149a611423565b604051601f8201601f19908116603f011681019083821181831017156114c2576114c2611423565b816040528281528860208487010111156114db57600080fd5b8260208601602083013760006020848301015280955050505050509250929050565b60006020828403121561150f57600080fd5b5035919050565b6000806040838503121561152957600080fd5b50508035926020909101359150565b60006020828403121561154a57600080fd5b81516113858161138c565b60006020828403121561156757600080fd5b5051919050565b60008060006060848603121561158357600080fd5b8351925060208401519150604084015190509250925092565b634e487b7160e01b600052601160045260246000fd5b808201808211156113465761134661159c565b634e487b7160e01b600052600160045260246000fd5b818103818111156113465761134661159c565b60005b838110156116095781810151838201526020016115f1565b50506000910152565b600082516116248184602087016115ee565b9190910192915050565b602081526000825180602084015261164d8160408501602087016115ee565b601f01601f1916919091016040019291505056fe416464726573733a206c6f772d6c6576656c2064656c65676174652063616c6c206661696c6564a2646970667358221220fb50bda633321c45cda1a7a21dbeb1020e48295ab57cc91947994c3e8d9d1a2464736f6c63430008100033",
  "linkReferences": {},
  "deployedLinkReferences": {}
}