{
  "_format": "hh-sol-artifact-1",
  "contractName": "EtherVault",
  "sourceName": "contracts/providers/EtherVault.sol",
  "abi": [
    {
      "inputs": [],
      "stateMutability": "nonpayable",
      "type": "constructor"
    },
    {
      "anonymous": false,
      "inputs": [
        {
          "indexed": false,
          "internalType": "address",
          "name": "previousAdmin",
          "type": "address"
        },
        {
          "indexed": false,
          "internalType": "address",
          "name": "newAdmin",
          "type": "address"
        }
      ],
      "name": "AdminChanged",
      "type": "event"
    },
    {
      "anonymous": false,
      "inputs": [
        {
          "indexed": true,
          "internalType": "address",
          "name": "beacon",
          "type": "address"
        }
      ],
      "name": "BeaconUpgraded",
      "type": "event"
    },
    {
      "anonymous": false,
      "inputs": [
        {
          "indexed": false,
          "internalType": "uint8",
          "name": "version",
          "type": "uint8"
        }
      ],
      "name": "Initialized",
      "type": "event"
    },
    {
      "anonymous": false,
      "inputs": [
        {
          "indexed": true,
          "internalType": "address",
          "name": "previousOwner",
          "type": "address"
        },
        {
          "indexed": true,
          "internalType": "address",
          "name": "newOwner",
          "type": "address"
        }
      ],
      "name": "OwnershipTransferred",
      "type": "event"
    },
    {
      "anonymous": false,
      "inputs": [
        {
          "indexed": true,
          "internalType": "address",
          "name": "implementation",
          "type": "address"
        }
      ],
      "name": "Upgraded",
      "type": "event"
    },
    {
      "inputs": [
        {
          "internalType": "uint256",
          "name": "keyId",
          "type": "uint256"
        },
        {
          "internalType": "bytes32",
          "name": "arn",
          "type": "bytes32"
        },
        {
          "internalType": "uint256",
          "name": "amount",
          "type": "uint256"
        }
      ],
      "name": "arnWithdrawal",
      "outputs": [],
      "stateMutability": "nonpayable",
      "type": "function"
    },
    {
      "inputs": [
        {
          "internalType": "uint256",
          "name": "keyId",
          "type": "uint256"
        }
      ],
      "name": "deposit",
      "outputs": [],
      "stateMutability": "payable",
      "type": "function"
    },
    {
      "inputs": [],
      "name": "ethArn",
      "outputs": [
        {
          "internalType": "bytes32",
          "name": "",
          "type": "bytes32"
        }
      ],
      "stateMutability": "view",
      "type": "function"
    },
    {
      "inputs": [],
      "name": "etherBalance",
      "outputs": [
        {
          "internalType": "uint256",
          "name": "",
          "type": "uint256"
        }
      ],
      "stateMutability": "view",
      "type": "function"
    },
    {
      "inputs": [],
      "name": "getTrustedLedger",
      "outputs": [
        {
          "internalType": "address",
          "name": "",
          "type": "address"
        }
      ],
      "stateMutability": "view",
      "type": "function"
    },
    {
      "inputs": [
        {
          "internalType": "address",
          "name": "_Locksmith",
          "type": "address"
        },
        {
          "internalType": "address",
          "name": "_Ledger",
          "type": "address"
        }
      ],
      "name": "initialize",
      "outputs": [],
      "stateMutability": "nonpayable",
      "type": "function"
    },
    {
      "inputs": [],
      "name": "ledger",
      "outputs": [
        {
          "internalType": "contract ILedger",
          "name": "",
          "type": "address"
        }
      ],
      "stateMutability": "view",
      "type": "function"
    },
    {
      "inputs": [],
      "name": "locksmith",
      "outputs": [
        {
          "internalType": "contract ILocksmith",
          "name": "",
          "type": "address"
        }
      ],
      "stateMutability": "view",
      "type": "function"
    },
    {
      "inputs": [],
      "name": "owner",
      "outputs": [
        {
          "internalType": "address",
          "name": "",
          "type": "address"
        }
      ],
      "stateMutability": "view",
      "type": "function"
    },
    {
      "inputs": [],
      "name": "proxiableUUID",
      "outputs": [
        {
          "internalType": "bytes32",
          "name": "",
          "type": "bytes32"
        }
      ],
      "stateMutability": "view",
      "type": "function"
    },
    {
      "inputs": [],
      "name": "renounceOwnership",
      "outputs": [],
      "stateMutability": "nonpayable",
      "type": "function"
    },
    {
      "inputs": [
        {
          "internalType": "address",
          "name": "newOwner",
          "type": "address"
        }
      ],
      "name": "transferOwnership",
      "outputs": [],
      "stateMutability": "nonpayable",
      "type": "function"
    },
    {
      "inputs": [
        {
          "internalType": "address",
          "name": "newImplementation",
          "type": "address"
        }
      ],
      "name": "upgradeTo",
      "outputs": [],
      "stateMutability": "nonpayable",
      "type": "function"
    },
    {
      "inputs": [
        {
          "internalType": "address",
          "name": "newImplementation",
          "type": "address"
        },
        {
          "internalType": "bytes",
          "name": "data",
          "type": "bytes"
        }
      ],
      "name": "upgradeToAndCall",
      "outputs": [],
      "stateMutability": "payable",
      "type": "function"
    },
    {
      "inputs": [
        {
          "internalType": "uint256",
          "name": "keyId",
          "type": "uint256"
        },
        {
          "internalType": "uint256",
          "name": "amount",
          "type": "uint256"
        }
      ],
      "name": "withdrawal",
      "outputs": [],
      "stateMutability": "nonpayable",
      "type": "function"
    }
  ],
  "bytecode": "0x60a06040523073ffffffffffffffffffffffffffffffffffffffff1660809073ffffffffffffffffffffffffffffffffffffffff168152503480156200004457600080fd5b50620000616741a8be1896330eae60c01b620000af60201b60201c565b6200007d677ef9951107d4f23260c01b620000af60201b60201c565b6200009967a095bb16a1ac191060c01b620000af60201b60201c565b620000a9620000b260201b60201c565b6200025d565b50565b600060019054906101000a900460ff161562000105576040517f08c379a0000000000000000000000000000000000000000000000000000000008152600401620000fc9062000200565b60405180910390fd5b60ff801660008054906101000a900460ff1660ff161015620001775760ff6000806101000a81548160ff021916908360ff1602179055507f7f26b83ff96e1f2b6a682f133852f6798a09c465da95921460cefb384740249860ff6040516200016e919062000240565b60405180910390a15b565b600082825260208201905092915050565b7f496e697469616c697a61626c653a20636f6e747261637420697320696e69746960008201527f616c697a696e6700000000000000000000000000000000000000000000000000602082015250565b6000620001e860278362000179565b9150620001f5826200018a565b604082019050919050565b600060208201905081810360008301526200021b81620001d9565b9050919050565b600060ff82169050919050565b6200023a8162000222565b82525050565b60006020820190506200025760008301846200022f565b92915050565b608051612afc620002956000396000818161035e015281816103ec015281816108990152818161092701526109d70152612afc6000f3fe6080604052600436106100e85760003560e01c8063615a44911161008a578063ad66e52a11610059578063ad66e52a1461029d578063b6b55f25146102c8578063c72a8696146102e4578063f2fde38b1461030d576100e8565b8063615a449114610205578063715018a6146102305780638da5cb5b146102475780639620479814610272576100e8565b80634dc33cd9116100c65780634dc33cd91461016a5780634f1ef2861461019357806352d1902d146101af57806356397c35146101da576100e8565b806313fb817e146100ed5780633659cfe614610118578063485cc95514610141575b600080fd5b3480156100f957600080fd5b50610102610336565b60405161010f9190611b09565b60405180910390f35b34801561012457600080fd5b5061013f600480360381019061013a9190611b76565b61035c565b005b34801561014d57600080fd5b5061016860048036038101906101639190611ba3565b6104e4565b005b34801561017657600080fd5b50610191600480360381019061018c9190611c4f565b6107b8565b005b6101ad60048036038101906101a89190611de8565b610897565b005b3480156101bb57600080fd5b506101c46109d3565b6040516101d19190611e53565b60405180910390f35b3480156101e657600080fd5b506101ef610a8c565b6040516101fc9190611e8f565b60405180910390f35b34801561021157600080fd5b5061021a610ab2565b6040516102279190611e53565b60405180910390f35b34801561023c57600080fd5b50610245610ab8565b005b34801561025357600080fd5b5061025c610acc565b6040516102699190611eb9565b60405180910390f35b34801561027e57600080fd5b50610287610af6565b6040516102949190611eb9565b60405180910390f35b3480156102a957600080fd5b506102b2610b5c565b6040516102bf9190611ee3565b60405180910390f35b6102e260048036038101906102dd9190611efe565b610b62565b005b3480156102f057600080fd5b5061030b60048036038101906103069190611f2b565b610e54565b005b34801561031957600080fd5b50610334600480360381019061032f9190611b76565b610e9e565b005b60c960009054906101000a900473ffffffffffffffffffffffffffffffffffffffff1681565b7f000000000000000000000000000000000000000000000000000000000000000073ffffffffffffffffffffffffffffffffffffffff163073ffffffffffffffffffffffffffffffffffffffff16036103ea576040517f08c379a00000000000000000000000000000000000000000000000000000000081526004016103e190611fee565b60405180910390fd5b7f000000000000000000000000000000000000000000000000000000000000000073ffffffffffffffffffffffffffffffffffffffff16610429610f21565b73ffffffffffffffffffffffffffffffffffffffff161461047f576040517f08c379a000000000000000000000000000000000000000000000000000000000815260040161047690612080565b60405180910390fd5b61048881610f78565b6104e181600067ffffffffffffffff8111156104a7576104a6611cbd565b5b6040519080825280601f01601f1916602001820160405280156104d95781602001600182028036833780820191505090505b506000610fd3565b50565b6104f867c3bfd1869951b2d360c01b611141565b60008060019054906101000a900460ff161590508080156105295750600160008054906101000a900460ff1660ff16105b80610556575061053830611144565b1580156105555750600160008054906101000a900460ff1660ff16145b5b610595576040517f08c379a000000000000000000000000000000000000000000000000000000000815260040161058c90612112565b60405180910390fd5b60016000806101000a81548160ff021916908360ff16021790555080156105d2576001600060016101000a81548160ff0219169083151502179055505b6105e667189bd2fc2a0023c160c01b611141565b6105fa67f387db10d308ae5360c01b611141565b61060e677ce9977d1449da9360c01b611141565b6106226763a52c7a3edc6a6560c01b611141565b61062a611167565b61063e67a8859d615f176b3260c01b611141565b61065267eae1bd572774512060c01b611141565b61065a6111c0565b61066e6763b17958e29c7bcc60c01b611141565b8260c960006101000a81548173ffffffffffffffffffffffffffffffffffffffff021916908373ffffffffffffffffffffffffffffffffffffffff1602179055506106c367fbabb4e306d2ad9760c01b611141565b8160ca60006101000a81548173ffffffffffffffffffffffffffffffffffffffff021916908373ffffffffffffffffffffffffffffffffffffffff160217905550610718670233a836b1bd3eea60c01b611141565b6107546040518060600160405280600073ffffffffffffffffffffffffffffffffffffffff168152602001600081526020016000815250611211565b60cb8190555080156107b35760008060016101000a81548160ff0219169083151502179055507f7f26b83ff96e1f2b6a682f133852f6798a09c465da95921460cefb384740249860016040516107aa919061217a565b60405180910390a15b505050565b6107cc67aabf9a5ac7e0319f60c01b611141565b6107e067f32770912101da8760c01b611141565b6107f46707f40786eeb1ee6360c01b611141565b61080867add21cae179c8d7b60c01b611141565b60cb54821461084c576040517f08c379a0000000000000000000000000000000000000000000000000000000008152600401610843906121e1565b60405180910390fd5b610860675449cd6c463b36df60c01b611141565b610874673b1de50f7fbd087e60c01b611141565b61088867584e07868da27da660c01b611141565b6108928382611251565b505050565b7f000000000000000000000000000000000000000000000000000000000000000073ffffffffffffffffffffffffffffffffffffffff163073ffffffffffffffffffffffffffffffffffffffff1603610925576040517f08c379a000000000000000000000000000000000000000000000000000000000815260040161091c90611fee565b60405180910390fd5b7f000000000000000000000000000000000000000000000000000000000000000073ffffffffffffffffffffffffffffffffffffffff16610964610f21565b73ffffffffffffffffffffffffffffffffffffffff16146109ba576040517f08c379a00000000000000000000000000000000000000000000000000000000081526004016109b190612080565b60405180910390fd5b6109c382610f78565b6109cf82826001610fd3565b5050565b60007f000000000000000000000000000000000000000000000000000000000000000073ffffffffffffffffffffffffffffffffffffffff163073ffffffffffffffffffffffffffffffffffffffff1614610a63576040517f08c379a0000000000000000000000000000000000000000000000000000000008152600401610a5a90612273565b60405180910390fd5b7f360894a13ba1a3210667c828492db98dca3e2076cc3735a920a3ca505d382bbc60001b905090565b60ca60009054906101000a900473ffffffffffffffffffffffffffffffffffffffff1681565b60cb5481565b610ac061164a565b610aca60006116c8565b565b6000603360009054906101000a900473ffffffffffffffffffffffffffffffffffffffff16905090565b6000610b0c67be69a15b495f635b60c01b611141565b610b2067ac2fcf650b633f1260c01b611141565b610b34670bb08f15475373f060c01b611141565b60ca60009054906101000a900473ffffffffffffffffffffffffffffffffffffffff16905090565b60cc5481565b610b7667c8a84b18527be10160c01b611141565b610b8a676d5018e9bc402db460c01b611141565b610b9e67b328b64f1e9e355260c01b611141565b610bb26748d9af592ce8522060c01b611141565b600060c960009054906101000a900473ffffffffffffffffffffffffffffffffffffffff1673ffffffffffffffffffffffffffffffffffffffff1663b83ac19f6040518163ffffffff1660e01b8152600401602060405180830381865afa158015610c21573d6000803e3d6000fd5b505050506040513d601f19601f82011682018060405250810190610c4591906122a8565b73ffffffffffffffffffffffffffffffffffffffff16631eba59aa338460006040518463ffffffff1660e01b8152600401610c82939291906122f0565b602060405180830381865afa158015610c9f573d6000803e3d6000fd5b505050506040513d601f19601f82011682018060405250810190610cc3919061233c565b11610d03576040517f08c379a0000000000000000000000000000000000000000000000000000000008152600401610cfa906123b5565b60405180910390fd5b610d17674235011cfebe819f60c01b611141565b610d2b67851010a94a03119460c01b611141565b610d3f67c4aa5b3921e7d93d60c01b611141565b600060ca60009054906101000a900473ffffffffffffffffffffffffffffffffffffffff1673ffffffffffffffffffffffffffffffffffffffff16630331d4de8360cb54346040518463ffffffff1660e01b8152600401610da2939291906123d5565b6060604051808303816000875af1158015610dc1573d6000803e3d6000fd5b505050506040513d601f19601f82011682018060405250810190610de5919061240c565b92505050610dfd675d08c9261921e61460c01b611141565b3460cc6000828254610e0f919061248e565b92505081905550610e2a676e5b9dea5ee3608660c01b611141565b610e3e67108b7f009705a3ce60c01b611141565b60cc548114610e5057610e4f6124c2565b5b5050565b610e68675f71000615582abf60c01b611141565b610e7c67aa8fd28de778737460c01b611141565b610e9067de0e811539cc2a1460c01b611141565b610e9a8282611251565b5050565b610ea661164a565b600073ffffffffffffffffffffffffffffffffffffffff168173ffffffffffffffffffffffffffffffffffffffff1603610f15576040517f08c379a0000000000000000000000000000000000000000000000000000000008152600401610f0c90612563565b60405180910390fd5b610f1e816116c8565b50565b6000610f4f7f360894a13ba1a3210667c828492db98dca3e2076cc3735a920a3ca505d382bbc60001b61178e565b60000160009054906101000a900473ffffffffffffffffffffffffffffffffffffffff16905090565b610f8c678936303d9516a9e260c01b611141565b610f9461164a565b610fa867cd01bf2e4741d05960c01b611141565b610fbc675d99cb4dba6394a260c01b611141565b610fd067ddbd63f6a356383660c01b611141565b50565b610fff7f4910fdfa16fed3260ed0e7147f7cc6da11a60208b5b9406d12a635614ffd914360001b611798565b60000160009054906101000a900460ff16156110235761101e836117a2565b61113c565b8273ffffffffffffffffffffffffffffffffffffffff166352d1902d6040518163ffffffff1660e01b8152600401602060405180830381865afa92505050801561108b57506040513d601f19601f820116820180604052508101906110889190612598565b60015b6110ca576040517f08c379a00000000000000000000000000000000000000000000000000000000081526004016110c190612637565b60405180910390fd5b7f360894a13ba1a3210667c828492db98dca3e2076cc3735a920a3ca505d382bbc60001b811461112f576040517f08c379a0000000000000000000000000000000000000000000000000000000008152600401611126906126c9565b60405180910390fd5b5061113b83838361185b565b5b505050565b50565b6000808273ffffffffffffffffffffffffffffffffffffffff163b119050919050565b600060019054906101000a900460ff166111b6576040517f08c379a00000000000000000000000000000000000000000000000000000000081526004016111ad9061275b565b60405180910390fd5b6111be611887565b565b600060019054906101000a900460ff1661120f576040517f08c379a00000000000000000000000000000000000000000000000000000000081526004016112069061275b565b60405180910390fd5b565b60008160000151826020015183604001516040516020016112349392919061277b565b604051602081830303815290604052805190602001209050919050565b611265677b9a924f2f142e2060c01b611141565b611279670a20d6e112cbfa4860c01b611141565b61128d6761bafd48d6d3d4d360c01b611141565b6112a167f97f36b662523f6860c01b611141565b600060c960009054906101000a900473ffffffffffffffffffffffffffffffffffffffff1673ffffffffffffffffffffffffffffffffffffffff1663b83ac19f6040518163ffffffff1660e01b8152600401602060405180830381865afa158015611310573d6000803e3d6000fd5b505050506040513d601f19601f8201168201806040525081019061133491906122a8565b73ffffffffffffffffffffffffffffffffffffffff16631eba59aa338560006040518463ffffffff1660e01b8152600401611371939291906122f0565b602060405180830381865afa15801561138e573d6000803e3d6000fd5b505050506040513d601f19601f820116820180604052508101906113b2919061233c565b116113f2576040517f08c379a00000000000000000000000000000000000000000000000000000000081526004016113e9906123b5565b60405180910390fd5b61140667a28b417df359fa2a60c01b611141565b61141a67ef2c09b86587474b60c01b611141565b61142e67fb7bb6e130e1002c60c01b611141565b600060ca60009054906101000a900473ffffffffffffffffffffffffffffffffffffffff1673ffffffffffffffffffffffffffffffffffffffff1663d84681e28460cb54856040518463ffffffff1660e01b8152600401611491939291906123d5565b6060604051808303816000875af11580156114b0573d6000803e3d6000fd5b505050506040513d601f19601f820116820180604052508101906114d4919061240c565b925050506114ec6749fe22e99d9a332260c01b611141565b8160cc60008282546114fe91906127b2565b92505081905550611519678101e2f49b1f7c1d60c01b611141565b61152d671818d62d5a59e46560c01b611141565b60cc54811461153f5761153e6124c2565b5b611553678c0f0150f3a466c560c01b611141565b61156767184075589c89343c60c01b611141565b60cc5447101561157a576115796124c2565b5b61158e67a34631d540de381860c01b611141565b6115a267c4c415cddc21fe0e60c01b611141565b60003373ffffffffffffffffffffffffffffffffffffffff16836040516115c890612817565b60006040518083038185875af1925050503d8060008114611605576040519150601f19603f3d011682016040523d82523d6000602084013e61160a565b606091505b5050905061162267d5bea499c1e7729160c01b611141565b6116366722ac1397e30cf55a60c01b611141565b80611644576116436124c2565b5b50505050565b6116526118e8565b73ffffffffffffffffffffffffffffffffffffffff16611670610acc565b73ffffffffffffffffffffffffffffffffffffffff16146116c6576040517f08c379a00000000000000000000000000000000000000000000000000000000081526004016116bd90612878565b60405180910390fd5b565b6000603360009054906101000a900473ffffffffffffffffffffffffffffffffffffffff16905081603360006101000a81548173ffffffffffffffffffffffffffffffffffffffff021916908373ffffffffffffffffffffffffffffffffffffffff1602179055508173ffffffffffffffffffffffffffffffffffffffff168173ffffffffffffffffffffffffffffffffffffffff167f8be0079c531659141344cd1fd0a4f28419497f9722a3daafe3b4186f6b6457e060405160405180910390a35050565b6000819050919050565b6000819050919050565b6117ab81611144565b6117ea576040517f08c379a00000000000000000000000000000000000000000000000000000000081526004016117e19061290a565b60405180910390fd5b806118177f360894a13ba1a3210667c828492db98dca3e2076cc3735a920a3ca505d382bbc60001b61178e565b60000160006101000a81548173ffffffffffffffffffffffffffffffffffffffff021916908373ffffffffffffffffffffffffffffffffffffffff16021790555050565b611864836118f0565b6000825111806118715750805b1561188257611880838361193f565b505b505050565b600060019054906101000a900460ff166118d6576040517f08c379a00000000000000000000000000000000000000000000000000000000081526004016118cd9061275b565b60405180910390fd5b6118e66118e16118e8565b6116c8565b565b600033905090565b6118f9816117a2565b8073ffffffffffffffffffffffffffffffffffffffff167fbc7cd75a20ee27fd9adebab32041f755214dbc6bffa90cc0225b39da2e5c2d3b60405160405180910390a250565b606061194a83611144565b611989576040517f08c379a00000000000000000000000000000000000000000000000000000000081526004016119809061299c565b60405180910390fd5b6000808473ffffffffffffffffffffffffffffffffffffffff16846040516119b19190612a22565b600060405180830381855af49150503d80600081146119ec576040519150601f19603f3d011682016040523d82523d6000602084013e6119f1565b606091505b5091509150611a198282604051806060016040528060278152602001612aa060279139611a23565b9250505092915050565b60608315611a3357829050611a83565b600083511115611a465782518084602001fd5b816040517f08c379a0000000000000000000000000000000000000000000000000000000008152600401611a7a9190612a7d565b60405180910390fd5b9392505050565b600073ffffffffffffffffffffffffffffffffffffffff82169050919050565b6000819050919050565b6000611acf611aca611ac584611a8a565b611aaa565b611a8a565b9050919050565b6000611ae182611ab4565b9050919050565b6000611af382611ad6565b9050919050565b611b0381611ae8565b82525050565b6000602082019050611b1e6000830184611afa565b92915050565b6000604051905090565b600080fd5b600080fd5b6000611b4382611a8a565b9050919050565b611b5381611b38565b8114611b5e57600080fd5b50565b600081359050611b7081611b4a565b92915050565b600060208284031215611b8c57611b8b611b2e565b5b6000611b9a84828501611b61565b91505092915050565b60008060408385031215611bba57611bb9611b2e565b5b6000611bc885828601611b61565b9250506020611bd985828601611b61565b9150509250929050565b6000819050919050565b611bf681611be3565b8114611c0157600080fd5b50565b600081359050611c1381611bed565b92915050565b6000819050919050565b611c2c81611c19565b8114611c3757600080fd5b50565b600081359050611c4981611c23565b92915050565b600080600060608486031215611c6857611c67611b2e565b5b6000611c7686828701611c04565b9350506020611c8786828701611c3a565b9250506040611c9886828701611c04565b9150509250925092565b600080fd5b600080fd5b6000601f19601f8301169050919050565b7f4e487b7100000000000000000000000000000000000000000000000000000000600052604160045260246000fd5b611cf582611cac565b810181811067ffffffffffffffff82111715611d1457611d13611cbd565b5b80604052505050565b6000611d27611b24565b9050611d338282611cec565b919050565b600067ffffffffffffffff821115611d5357611d52611cbd565b5b611d5c82611cac565b9050602081019050919050565b82818337600083830152505050565b6000611d8b611d8684611d38565b611d1d565b905082815260208101848484011115611da757611da6611ca7565b5b611db2848285611d69565b509392505050565b600082601f830112611dcf57611dce611ca2565b5b8135611ddf848260208601611d78565b91505092915050565b60008060408385031215611dff57611dfe611b2e565b5b6000611e0d85828601611b61565b925050602083013567ffffffffffffffff811115611e2e57611e2d611b33565b5b611e3a85828601611dba565b9150509250929050565b611e4d81611c19565b82525050565b6000602082019050611e686000830184611e44565b92915050565b6000611e7982611ad6565b9050919050565b611e8981611e6e565b82525050565b6000602082019050611ea46000830184611e80565b92915050565b611eb381611b38565b82525050565b6000602082019050611ece6000830184611eaa565b92915050565b611edd81611be3565b82525050565b6000602082019050611ef86000830184611ed4565b92915050565b600060208284031215611f1457611f13611b2e565b5b6000611f2284828501611c04565b91505092915050565b60008060408385031215611f4257611f41611b2e565b5b6000611f5085828601611c04565b9250506020611f6185828601611c04565b9150509250929050565b600082825260208201905092915050565b7f46756e6374696f6e206d7573742062652063616c6c6564207468726f7567682060008201527f64656c656761746563616c6c0000000000000000000000000000000000000000602082015250565b6000611fd8602c83611f6b565b9150611fe382611f7c565b604082019050919050565b6000602082019050818103600083015261200781611fcb565b9050919050565b7f46756e6374696f6e206d7573742062652063616c6c6564207468726f7567682060008201527f6163746976652070726f78790000000000000000000000000000000000000000602082015250565b600061206a602c83611f6b565b91506120758261200e565b604082019050919050565b600060208201905081810360008301526120998161205d565b9050919050565b7f496e697469616c697a61626c653a20636f6e747261637420697320616c72656160008201527f647920696e697469616c697a6564000000000000000000000000000000000000602082015250565b60006120fc602e83611f6b565b9150612107826120a0565b604082019050919050565b6000602082019050818103600083015261212b816120ef565b9050919050565b6000819050919050565b600060ff82169050919050565b600061216461215f61215a84612132565b611aaa565b61213c565b9050919050565b61217481612149565b82525050565b600060208201905061218f600083018461216b565b92915050565b7f494e56414c49445f41524e000000000000000000000000000000000000000000600082015250565b60006121cb600b83611f6b565b91506121d682612195565b602082019050919050565b600060208201905081810360008301526121fa816121be565b9050919050565b7f555550535570677261646561626c653a206d757374206e6f742062652063616c60008201527f6c6564207468726f7567682064656c656761746563616c6c0000000000000000602082015250565b600061225d603883611f6b565b915061226882612201565b604082019050919050565b6000602082019050818103600083015261228c81612250565b9050919050565b6000815190506122a281611b4a565b92915050565b6000602082840312156122be576122bd611b2e565b5b60006122cc84828501612293565b91505092915050565b60008115159050919050565b6122ea816122d5565b82525050565b60006060820190506123056000830186611eaa565b6123126020830185611ed4565b61231f60408301846122e1565b949350505050565b60008151905061233681611bed565b92915050565b60006020828403121561235257612351611b2e565b5b600061236084828501612327565b91505092915050565b7f4b45595f4e4f545f48454c440000000000000000000000000000000000000000600082015250565b600061239f600c83611f6b565b91506123aa82612369565b602082019050919050565b600060208201905081810360008301526123ce81612392565b9050919050565b60006060820190506123ea6000830186611ed4565b6123f76020830185611e44565b6124046040830184611ed4565b949350505050565b60008060006060848603121561242557612424611b2e565b5b600061243386828701612327565b935050602061244486828701612327565b925050604061245586828701612327565b9150509250925092565b7f4e487b7100000000000000000000000000000000000000000000000000000000600052601160045260246000fd5b600061249982611be3565b91506124a483611be3565b92508282019050808211156124bc576124bb61245f565b5b92915050565b7f4e487b7100000000000000000000000000000000000000000000000000000000600052600160045260246000fd5b7f4f776e61626c653a206e6577206f776e657220697320746865207a65726f206160008201527f6464726573730000000000000000000000000000000000000000000000000000602082015250565b600061254d602683611f6b565b9150612558826124f1565b604082019050919050565b6000602082019050818103600083015261257c81612540565b9050919050565b60008151905061259281611c23565b92915050565b6000602082840312156125ae576125ad611b2e565b5b60006125bc84828501612583565b91505092915050565b7f45524331393637557067726164653a206e657720696d706c656d656e7461746960008201527f6f6e206973206e6f742055555053000000000000000000000000000000000000602082015250565b6000612621602e83611f6b565b915061262c826125c5565b604082019050919050565b6000602082019050818103600083015261265081612614565b9050919050565b7f45524331393637557067726164653a20756e737570706f727465642070726f7860008201527f6961626c65555549440000000000000000000000000000000000000000000000602082015250565b60006126b3602983611f6b565b91506126be82612657565b604082019050919050565b600060208201905081810360008301526126e2816126a6565b9050919050565b7f496e697469616c697a61626c653a20636f6e7472616374206973206e6f74206960008201527f6e697469616c697a696e67000000000000000000000000000000000000000000602082015250565b6000612745602b83611f6b565b9150612750826126e9565b604082019050919050565b6000602082019050818103600083015261277481612738565b9050919050565b60006060820190506127906000830186611eaa565b61279d6020830185611ed4565b6127aa6040830184611ed4565b949350505050565b60006127bd82611be3565b91506127c883611be3565b92508282039050818111156127e0576127df61245f565b5b92915050565b600081905092915050565b50565b60006128016000836127e6565b915061280c826127f1565b600082019050919050565b6000612822826127f4565b9150819050919050565b7f4f776e61626c653a2063616c6c6572206973206e6f7420746865206f776e6572600082015250565b6000612862602083611f6b565b915061286d8261282c565b602082019050919050565b6000602082019050818103600083015261289181612855565b9050919050565b7f455243313936373a206e657720696d706c656d656e746174696f6e206973206e60008201527f6f74206120636f6e747261637400000000000000000000000000000000000000602082015250565b60006128f4602d83611f6b565b91506128ff82612898565b604082019050919050565b60006020820190508181036000830152612923816128e7565b9050919050565b7f416464726573733a2064656c65676174652063616c6c20746f206e6f6e2d636f60008201527f6e74726163740000000000000000000000000000000000000000000000000000602082015250565b6000612986602683611f6b565b91506129918261292a565b604082019050919050565b600060208201905081810360008301526129b581612979565b9050919050565b600081519050919050565b60005b838110156129e55780820151818401526020810190506129ca565b60008484015250505050565b60006129fc826129bc565b612a0681856127e6565b9350612a168185602086016129c7565b80840191505092915050565b6000612a2e82846129f1565b915081905092915050565b600081519050919050565b6000612a4f82612a39565b612a598185611f6b565b9350612a698185602086016129c7565b612a7281611cac565b840191505092915050565b60006020820190508181036000830152612a978184612a44565b90509291505056fe416464726573733a206c6f772d6c6576656c2064656c65676174652063616c6c206661696c6564a26469706673582212201ce134564f68b14aad049336dd47435c5588785f8e3b12b44f35be4d030b1c9d64736f6c63430008100033",
  "linkReferences": {},
  "deployedLinkReferences": {}
}