{
  "_format": "hh-sol-artifact-1",
  "contractName": "EtherVault",
  "sourceName": "contracts/providers/EtherVault.sol",
  "abi": [
    {
      "inputs": [],
      "stateMutability": "nonpayable",
      "type": "constructor"
    },
    {
      "anonymous": false,
      "inputs": [
        {
          "indexed": false,
          "internalType": "address",
          "name": "previousAdmin",
          "type": "address"
        },
        {
          "indexed": false,
          "internalType": "address",
          "name": "newAdmin",
          "type": "address"
        }
      ],
      "name": "AdminChanged",
      "type": "event"
    },
    {
      "anonymous": false,
      "inputs": [
        {
          "indexed": true,
          "internalType": "address",
          "name": "beacon",
          "type": "address"
        }
      ],
      "name": "BeaconUpgraded",
      "type": "event"
    },
    {
      "anonymous": false,
      "inputs": [
        {
          "indexed": false,
          "internalType": "uint8",
          "name": "version",
          "type": "uint8"
        }
      ],
      "name": "Initialized",
      "type": "event"
    },
    {
      "anonymous": false,
      "inputs": [
        {
          "indexed": true,
          "internalType": "address",
          "name": "previousOwner",
          "type": "address"
        },
        {
          "indexed": true,
          "internalType": "address",
          "name": "newOwner",
          "type": "address"
        }
      ],
      "name": "OwnershipTransferred",
      "type": "event"
    },
    {
      "anonymous": false,
      "inputs": [
        {
          "indexed": true,
          "internalType": "address",
          "name": "implementation",
          "type": "address"
        }
      ],
      "name": "Upgraded",
      "type": "event"
    },
    {
      "inputs": [
        {
          "internalType": "uint256",
          "name": "keyId",
          "type": "uint256"
        }
      ],
      "name": "deposit",
      "outputs": [],
      "stateMutability": "payable",
      "type": "function"
    },
    {
      "inputs": [],
      "name": "ethArn",
      "outputs": [
        {
          "internalType": "bytes32",
          "name": "",
          "type": "bytes32"
        }
      ],
      "stateMutability": "view",
      "type": "function"
    },
    {
      "inputs": [
        {
          "internalType": "address",
          "name": "_Locksmith",
          "type": "address"
        },
        {
          "internalType": "address",
          "name": "_Ledger",
          "type": "address"
        }
      ],
      "name": "initialize",
      "outputs": [],
      "stateMutability": "nonpayable",
      "type": "function"
    },
    {
      "inputs": [],
      "name": "ledger",
      "outputs": [
        {
          "internalType": "contract ILedger",
          "name": "",
          "type": "address"
        }
      ],
      "stateMutability": "view",
      "type": "function"
    },
    {
      "inputs": [],
      "name": "locksmith",
      "outputs": [
        {
          "internalType": "contract ILocksmith",
          "name": "",
          "type": "address"
        }
      ],
      "stateMutability": "view",
      "type": "function"
    },
    {
      "inputs": [],
      "name": "owner",
      "outputs": [
        {
          "internalType": "address",
          "name": "",
          "type": "address"
        }
      ],
      "stateMutability": "view",
      "type": "function"
    },
    {
      "inputs": [],
      "name": "proxiableUUID",
      "outputs": [
        {
          "internalType": "bytes32",
          "name": "",
          "type": "bytes32"
        }
      ],
      "stateMutability": "view",
      "type": "function"
    },
    {
      "inputs": [],
      "name": "renounceOwnership",
      "outputs": [],
      "stateMutability": "nonpayable",
      "type": "function"
    },
    {
      "inputs": [
        {
          "internalType": "address",
          "name": "newOwner",
          "type": "address"
        }
      ],
      "name": "transferOwnership",
      "outputs": [],
      "stateMutability": "nonpayable",
      "type": "function"
    },
    {
      "inputs": [
        {
          "internalType": "address",
          "name": "newImplementation",
          "type": "address"
        }
      ],
      "name": "upgradeTo",
      "outputs": [],
      "stateMutability": "nonpayable",
      "type": "function"
    },
    {
      "inputs": [
        {
          "internalType": "address",
          "name": "newImplementation",
          "type": "address"
        },
        {
          "internalType": "bytes",
          "name": "data",
          "type": "bytes"
        }
      ],
      "name": "upgradeToAndCall",
      "outputs": [],
      "stateMutability": "payable",
      "type": "function"
    },
    {
      "inputs": [
        {
          "internalType": "uint256",
          "name": "keyId",
          "type": "uint256"
        },
        {
          "internalType": "uint256",
          "name": "amount",
          "type": "uint256"
        }
      ],
      "name": "withdrawal",
      "outputs": [],
      "stateMutability": "nonpayable",
      "type": "function"
    }
  ],
  "bytecode": "0x60a06040523060805234801561001457600080fd5b5061001d610022565b6100e2565b600054610100900460ff161561008e5760405162461bcd60e51b815260206004820152602760248201527f496e697469616c697a61626c653a20636f6e747261637420697320696e697469604482015266616c697a696e6760c81b606482015260840160405180910390fd5b60005460ff90811610156100e0576000805460ff191660ff9081179091556040519081527f7f26b83ff96e1f2b6a682f133852f6798a09c465da95921460cefb38474024989060200160405180910390a15b565b60805161156461011960003960008181610247015281816102d101528181610579015281816105fe01526106e801526115646000f3fe6080604052600436106100c75760003560e01c8063615a449111610074578063b6b55f251161004e578063b6b55f25146101ea578063c72a8696146101fd578063f2fde38b1461021d57600080fd5b8063615a4491146101a1578063715018a6146101b75780638da5cb5b146101cc57600080fd5b80634f1ef286116100a55780634f1ef2861461014b57806352d1902d1461015e57806356397c351461018157600080fd5b806313fb817e146100cc5780633659cfe614610109578063485cc9551461012b575b600080fd5b3480156100d857600080fd5b5060c9546100ec906001600160a01b031681565b6040516001600160a01b0390911681526020015b60405180910390f35b34801561011557600080fd5b5061012961012436600461128e565b61023d565b005b34801561013757600080fd5b506101296101463660046112ab565b6103bd565b6101296101593660046112fa565b61056f565b34801561016a57600080fd5b506101736106db565b604051908152602001610100565b34801561018d57600080fd5b5060ca546100ec906001600160a01b031681565b3480156101ad57600080fd5b5061017360cb5481565b3480156101c357600080fd5b506101296107a0565b3480156101d857600080fd5b506033546001600160a01b03166100ec565b6101296101f83660046113be565b6107b4565b34801561020957600080fd5b506101296102183660046113d7565b610983565b34801561022957600080fd5b5061012961023836600461128e565b610bbc565b6001600160a01b037f00000000000000000000000000000000000000000000000000000000000000001630036102cf5760405162461bcd60e51b815260206004820152602c60248201527f46756e6374696f6e206d7573742062652063616c6c6564207468726f7567682060448201526b19195b1959d85d1958d85b1b60a21b60648201526084015b60405180910390fd5b7f00000000000000000000000000000000000000000000000000000000000000006001600160a01b031661032a7f360894a13ba1a3210667c828492db98dca3e2076cc3735a920a3ca505d382bbc546001600160a01b031690565b6001600160a01b0316146103955760405162461bcd60e51b815260206004820152602c60248201527f46756e6374696f6e206d7573742062652063616c6c6564207468726f7567682060448201526b6163746976652070726f787960a01b60648201526084016102c6565b61039e81610c49565b604080516000808252602082019092526103ba91839190610c51565b50565b600054610100900460ff16158080156103dd5750600054600160ff909116105b806103f75750303b1580156103f7575060005460ff166001145b6104695760405162461bcd60e51b815260206004820152602e60248201527f496e697469616c697a61626c653a20636f6e747261637420697320616c72656160448201527f647920696e697469616c697a656400000000000000000000000000000000000060648201526084016102c6565b6000805460ff19166001179055801561048c576000805461ff0019166101001790555b610494610df1565b61049c610e64565b60c980546001600160a01b0385811673ffffffffffffffffffffffffffffffffffffffff199283161790925560ca80549285169290911691909117905560408051606080820183526000808352602080840182905292840181905283518084018290528085018290528083019190915283518082039092018252608001909252815191012060cb55801561056a576000805461ff0019169055604051600181527f7f26b83ff96e1f2b6a682f133852f6798a09c465da95921460cefb38474024989060200160405180910390a15b505050565b6001600160a01b037f00000000000000000000000000000000000000000000000000000000000000001630036105fc5760405162461bcd60e51b815260206004820152602c60248201527f46756e6374696f6e206d7573742062652063616c6c6564207468726f7567682060448201526b19195b1959d85d1958d85b1b60a21b60648201526084016102c6565b7f00000000000000000000000000000000000000000000000000000000000000006001600160a01b03166106577f360894a13ba1a3210667c828492db98dca3e2076cc3735a920a3ca505d382bbc546001600160a01b031690565b6001600160a01b0316146106c25760405162461bcd60e51b815260206004820152602c60248201527f46756e6374696f6e206d7573742062652063616c6c6564207468726f7567682060448201526b6163746976652070726f787960a01b60648201526084016102c6565b6106cb82610c49565b6106d782826001610c51565b5050565b6000306001600160a01b037f0000000000000000000000000000000000000000000000000000000000000000161461077b5760405162461bcd60e51b815260206004820152603860248201527f555550535570677261646561626c653a206d757374206e6f742062652063616c60448201527f6c6564207468726f7567682064656c656761746563616c6c000000000000000060648201526084016102c6565b507f360894a13ba1a3210667c828492db98dca3e2076cc3735a920a3ca505d382bbc90565b6107a8610ecf565b6107b26000610f29565b565b60c9546040805163b83ac19f60e01b815290516000926001600160a01b03169163b83ac19f9160048083019260209291908290030181865afa1580156107fe573d6000803e3d6000fd5b505050506040513d601f19601f8201168201806040525081019061082291906113f9565b604051630f5d2cd560e11b815233600482015260248101849052600060448201526001600160a01b039190911690631eba59aa90606401602060405180830381865afa158015610876573d6000803e3d6000fd5b505050506040513d601f19601f8201168201806040525081019061089a9190611416565b116108d65760405162461bcd60e51b815260206004820152600c60248201526b12d15657d393d517d211531160a21b60448201526064016102c6565b60ca5460cb546040517f0331d4de0000000000000000000000000000000000000000000000000000000081526004810184905260248101919091523460448201526000916001600160a01b031690630331d4de906064016060604051808303816000875af115801561094c573d6000803e3d6000fd5b505050506040513d601f19601f82011682018060405250810190610970919061142f565b925050504781146106d7576106d761145d565b60c9546040805163b83ac19f60e01b815290516000926001600160a01b03169163b83ac19f9160048083019260209291908290030181865afa1580156109cd573d6000803e3d6000fd5b505050506040513d601f19601f820116820180604052508101906109f191906113f9565b604051630f5d2cd560e11b815233600482015260248101859052600060448201526001600160a01b039190911690631eba59aa90606401602060405180830381865afa158015610a45573d6000803e3d6000fd5b505050506040513d601f19601f82011682018060405250810190610a699190611416565b11610aa55760405162461bcd60e51b815260206004820152600c60248201526b12d15657d393d517d211531160a21b60448201526064016102c6565b60ca5460cb546040517fd84681e2000000000000000000000000000000000000000000000000000000008152600481018590526024810191909152604481018390526000916001600160a01b03169063d84681e2906064016060604051808303816000875af1158015610b1c573d6000803e3d6000fd5b505050506040513d601f19601f82011682018060405250810190610b40919061142f565b925050508147610b509190611473565b8114610b5e57610b5e61145d565b604051600090339084908381818185875af1925050503d8060008114610ba0576040519150601f19603f3d011682016040523d82523d6000602084013e610ba5565b606091505b5050905080610bb657610bb661145d565b50505050565b610bc4610ecf565b6001600160a01b038116610c405760405162461bcd60e51b815260206004820152602660248201527f4f776e61626c653a206e6577206f776e657220697320746865207a65726f206160448201527f646472657373000000000000000000000000000000000000000000000000000060648201526084016102c6565b6103ba81610f29565b6103ba610ecf565b7f4910fdfa16fed3260ed0e7147f7cc6da11a60208b5b9406d12a635614ffd91435460ff1615610c845761056a83610f88565b826001600160a01b03166352d1902d6040518163ffffffff1660e01b8152600401602060405180830381865afa925050508015610cde575060408051601f3d908101601f19168201909252610cdb91810190611416565b60015b610d505760405162461bcd60e51b815260206004820152602e60248201527f45524331393637557067726164653a206e657720696d706c656d656e7461746960448201527f6f6e206973206e6f74205555505300000000000000000000000000000000000060648201526084016102c6565b7f360894a13ba1a3210667c828492db98dca3e2076cc3735a920a3ca505d382bbc8114610de55760405162461bcd60e51b815260206004820152602960248201527f45524331393637557067726164653a20756e737570706f727465642070726f7860448201527f6961626c6555554944000000000000000000000000000000000000000000000060648201526084016102c6565b5061056a838383611053565b600054610100900460ff16610e5c5760405162461bcd60e51b815260206004820152602b60248201527f496e697469616c697a61626c653a20636f6e7472616374206973206e6f74206960448201526a6e697469616c697a696e6760a81b60648201526084016102c6565b6107b2611078565b600054610100900460ff166107b25760405162461bcd60e51b815260206004820152602b60248201527f496e697469616c697a61626c653a20636f6e7472616374206973206e6f74206960448201526a6e697469616c697a696e6760a81b60648201526084016102c6565b6033546001600160a01b031633146107b25760405162461bcd60e51b815260206004820181905260248201527f4f776e61626c653a2063616c6c6572206973206e6f7420746865206f776e657260448201526064016102c6565b603380546001600160a01b0383811673ffffffffffffffffffffffffffffffffffffffff19831681179093556040519116919082907f8be0079c531659141344cd1fd0a4f28419497f9722a3daafe3b4186f6b6457e090600090a35050565b6001600160a01b0381163b6110055760405162461bcd60e51b815260206004820152602d60248201527f455243313936373a206e657720696d706c656d656e746174696f6e206973206e60448201527f6f74206120636f6e74726163740000000000000000000000000000000000000060648201526084016102c6565b7f360894a13ba1a3210667c828492db98dca3e2076cc3735a920a3ca505d382bbc805473ffffffffffffffffffffffffffffffffffffffff19166001600160a01b0392909216919091179055565b61105c836110ec565b6000825111806110695750805b1561056a57610bb6838361112c565b600054610100900460ff166110e35760405162461bcd60e51b815260206004820152602b60248201527f496e697469616c697a61626c653a20636f6e7472616374206973206e6f74206960448201526a6e697469616c697a696e6760a81b60648201526084016102c6565b6107b233610f29565b6110f581610f88565b6040516001600160a01b038216907fbc7cd75a20ee27fd9adebab32041f755214dbc6bffa90cc0225b39da2e5c2d3b90600090a250565b60606001600160a01b0383163b6111ab5760405162461bcd60e51b815260206004820152602660248201527f416464726573733a2064656c65676174652063616c6c20746f206e6f6e2d636f60448201527f6e7472616374000000000000000000000000000000000000000000000000000060648201526084016102c6565b600080846001600160a01b0316846040516111c691906114b8565b600060405180830381855af49150503d8060008114611201576040519150601f19603f3d011682016040523d82523d6000602084013e611206565b606091505b509150915061122e828260405180606001604052806027815260200161150860279139611239565b925050505b92915050565b60608315611248575081611272565b8251156112585782518084602001fd5b8160405162461bcd60e51b81526004016102c691906114d4565b9392505050565b6001600160a01b03811681146103ba57600080fd5b6000602082840312156112a057600080fd5b813561127281611279565b600080604083850312156112be57600080fd5b82356112c981611279565b915060208301356112d981611279565b809150509250929050565b634e487b7160e01b600052604160045260246000fd5b6000806040838503121561130d57600080fd5b823561131881611279565b9150602083013567ffffffffffffffff8082111561133557600080fd5b818501915085601f83011261134957600080fd5b81358181111561135b5761135b6112e4565b604051601f8201601f19908116603f01168101908382118183101715611383576113836112e4565b8160405282815288602084870101111561139c57600080fd5b8260208601602083013760006020848301015280955050505050509250929050565b6000602082840312156113d057600080fd5b5035919050565b600080604083850312156113ea57600080fd5b50508035926020909101359150565b60006020828403121561140b57600080fd5b815161127281611279565b60006020828403121561142857600080fd5b5051919050565b60008060006060848603121561144457600080fd5b8351925060208401519150604084015190509250925092565b634e487b7160e01b600052600160045260246000fd5b8181038181111561123357634e487b7160e01b600052601160045260246000fd5b60005b838110156114af578181015183820152602001611497565b50506000910152565b600082516114ca818460208701611494565b9190910192915050565b60208152600082518060208401526114f3816040850160208701611494565b601f01601f1916919091016040019291505056fe416464726573733a206c6f772d6c6576656c2064656c65676174652063616c6c206661696c6564a2646970667358221220f1a61591909946ade0b0c12e57ec72eb5b58540a4b45434b295da197f3d88e7464736f6c63430008100033",
  "linkReferences": {},
  "deployedLinkReferences": {}
}