{
  "_format": "hh-sol-artifact-1",
  "contractName": "StubKeyAddress",
  "sourceName": "contracts/stubs/StubKeyAddress.sol",
  "abi": [
    {
      "anonymous": false,
      "inputs": [
        {
          "indexed": false,
          "internalType": "address",
          "name": "previousAdmin",
          "type": "address"
        },
        {
          "indexed": false,
          "internalType": "address",
          "name": "newAdmin",
          "type": "address"
        }
      ],
      "name": "AdminChanged",
      "type": "event"
    },
    {
      "anonymous": false,
      "inputs": [
        {
          "indexed": true,
          "internalType": "address",
          "name": "beacon",
          "type": "address"
        }
      ],
      "name": "BeaconUpgraded",
      "type": "event"
    },
    {
      "anonymous": false,
      "inputs": [
        {
          "indexed": false,
          "internalType": "uint8",
          "name": "version",
          "type": "uint8"
        }
      ],
      "name": "Initialized",
      "type": "event"
    },
    {
      "anonymous": false,
      "inputs": [
        {
          "indexed": true,
          "internalType": "address",
          "name": "implementation",
          "type": "address"
        }
      ],
      "name": "Upgraded",
      "type": "event"
    },
    {
      "anonymous": false,
      "inputs": [
        {
          "indexed": false,
          "internalType": "enum IVirtualAddress.TxType",
          "name": "txType",
          "type": "uint8"
        },
        {
          "indexed": false,
          "internalType": "address",
          "name": "operator",
          "type": "address"
        },
        {
          "indexed": false,
          "internalType": "address",
          "name": "target",
          "type": "address"
        },
        {
          "indexed": false,
          "internalType": "address",
          "name": "provider",
          "type": "address"
        },
        {
          "indexed": false,
          "internalType": "bytes32",
          "name": "arn",
          "type": "bytes32"
        },
        {
          "indexed": false,
          "internalType": "uint256",
          "name": "amount",
          "type": "uint256"
        }
      ],
      "name": "addressTransaction",
      "type": "event"
    },
    {
      "inputs": [
        {
          "internalType": "address",
          "name": "token",
          "type": "address"
        },
        {
          "internalType": "address",
          "name": "provider",
          "type": "address"
        }
      ],
      "name": "acceptToken",
      "outputs": [
        {
          "internalType": "uint256",
          "name": "",
          "type": "uint256"
        }
      ],
      "stateMutability": "nonpayable",
      "type": "function"
    },
    {
      "inputs": [],
      "name": "defaultEthDepositProvider",
      "outputs": [
        {
          "internalType": "contract IEtherCollateralProvider",
          "name": "",
          "type": "address"
        }
      ],
      "stateMutability": "view",
      "type": "function"
    },
    {
      "inputs": [],
      "name": "depositHatch",
      "outputs": [
        {
          "internalType": "bool",
          "name": "",
          "type": "bool"
        }
      ],
      "stateMutability": "view",
      "type": "function"
    },
    {
      "inputs": [],
      "name": "ethArn",
      "outputs": [
        {
          "internalType": "bytes32",
          "name": "",
          "type": "bytes32"
        }
      ],
      "stateMutability": "view",
      "type": "function"
    },
    {
      "inputs": [],
      "name": "getDefaultEthDepositProvider",
      "outputs": [
        {
          "internalType": "address",
          "name": "",
          "type": "address"
        }
      ],
      "stateMutability": "view",
      "type": "function"
    },
    {
      "inputs": [
        {
          "internalType": "address",
          "name": "_Locksmith",
          "type": "address"
        },
        {
          "internalType": "address",
          "name": "_ethProvider",
          "type": "address"
        },
        {
          "internalType": "uint256",
          "name": "_ownerKeyId",
          "type": "uint256"
        },
        {
          "internalType": "uint256",
          "name": "_keyId",
          "type": "uint256"
        }
      ],
      "name": "initialize",
      "outputs": [],
      "stateMutability": "nonpayable",
      "type": "function"
    },
    {
      "inputs": [],
      "name": "keyId",
      "outputs": [
        {
          "internalType": "uint256",
          "name": "",
          "type": "uint256"
        }
      ],
      "stateMutability": "view",
      "type": "function"
    },
    {
      "inputs": [],
      "name": "keyInitialized",
      "outputs": [
        {
          "internalType": "bool",
          "name": "",
          "type": "bool"
        }
      ],
      "stateMutability": "view",
      "type": "function"
    },
    {
      "inputs": [],
      "name": "locksmith",
      "outputs": [
        {
          "internalType": "address",
          "name": "",
          "type": "address"
        }
      ],
      "stateMutability": "view",
      "type": "function"
    },
    {
      "inputs": [
        {
          "components": [
            {
              "internalType": "address",
              "name": "provider",
              "type": "address"
            },
            {
              "internalType": "bytes32",
              "name": "arn",
              "type": "bytes32"
            },
            {
              "internalType": "uint256",
              "name": "amount",
              "type": "uint256"
            }
          ],
          "internalType": "struct IVirtualAddress.FundingPreparation[]",
          "name": "assets",
          "type": "tuple[]"
        },
        {
          "components": [
            {
              "internalType": "address",
              "name": "target",
              "type": "address"
            },
            {
              "internalType": "bytes",
              "name": "callData",
              "type": "bytes"
            },
            {
              "internalType": "uint256",
              "name": "msgValue",
              "type": "uint256"
            }
          ],
          "internalType": "struct IVirtualAddress.Call[]",
          "name": "calls",
          "type": "tuple[]"
        }
      ],
      "name": "multicall",
      "outputs": [],
      "stateMutability": "payable",
      "type": "function"
    },
    {
      "inputs": [
        {
          "internalType": "address",
          "name": "",
          "type": "address"
        },
        {
          "internalType": "address",
          "name": "",
          "type": "address"
        },
        {
          "internalType": "uint256[]",
          "name": "",
          "type": "uint256[]"
        },
        {
          "internalType": "uint256[]",
          "name": "",
          "type": "uint256[]"
        },
        {
          "internalType": "bytes",
          "name": "",
          "type": "bytes"
        }
      ],
      "name": "onERC1155BatchReceived",
      "outputs": [
        {
          "internalType": "bytes4",
          "name": "",
          "type": "bytes4"
        }
      ],
      "stateMutability": "nonpayable",
      "type": "function"
    },
    {
      "inputs": [
        {
          "internalType": "address",
          "name": "",
          "type": "address"
        },
        {
          "internalType": "address",
          "name": "",
          "type": "address"
        },
        {
          "internalType": "uint256",
          "name": "",
          "type": "uint256"
        },
        {
          "internalType": "uint256",
          "name": "",
          "type": "uint256"
        },
        {
          "internalType": "bytes",
          "name": "",
          "type": "bytes"
        }
      ],
      "name": "onERC1155Received",
      "outputs": [
        {
          "internalType": "bytes4",
          "name": "",
          "type": "bytes4"
        }
      ],
      "stateMutability": "nonpayable",
      "type": "function"
    },
    {
      "inputs": [],
      "name": "ownerKeyId",
      "outputs": [
        {
          "internalType": "uint256",
          "name": "",
          "type": "uint256"
        }
      ],
      "stateMutability": "view",
      "type": "function"
    },
    {
      "inputs": [],
      "name": "proxiableUUID",
      "outputs": [
        {
          "internalType": "bytes32",
          "name": "",
          "type": "bytes32"
        }
      ],
      "stateMutability": "view",
      "type": "function"
    },
    {
      "inputs": [
        {
          "internalType": "address",
          "name": "provider",
          "type": "address"
        },
        {
          "internalType": "uint256",
          "name": "amount",
          "type": "uint256"
        },
        {
          "internalType": "address",
          "name": "to",
          "type": "address"
        }
      ],
      "name": "send",
      "outputs": [],
      "stateMutability": "nonpayable",
      "type": "function"
    },
    {
      "inputs": [
        {
          "internalType": "address",
          "name": "provider",
          "type": "address"
        },
        {
          "internalType": "address",
          "name": "token",
          "type": "address"
        },
        {
          "internalType": "uint256",
          "name": "amount",
          "type": "uint256"
        },
        {
          "internalType": "address",
          "name": "to",
          "type": "address"
        }
      ],
      "name": "sendToken",
      "outputs": [],
      "stateMutability": "nonpayable",
      "type": "function"
    },
    {
      "inputs": [
        {
          "internalType": "address",
          "name": "provider",
          "type": "address"
        }
      ],
      "name": "setDefaultEthDepositProvider",
      "outputs": [],
      "stateMutability": "nonpayable",
      "type": "function"
    },
    {
      "inputs": [
        {
          "internalType": "uint256",
          "name": "_keyId",
          "type": "uint256"
        }
      ],
      "name": "setKeyId",
      "outputs": [],
      "stateMutability": "nonpayable",
      "type": "function"
    },
    {
      "inputs": [
        {
          "internalType": "bytes4",
          "name": "interfaceId",
          "type": "bytes4"
        }
      ],
      "name": "supportsInterface",
      "outputs": [
        {
          "internalType": "bool",
          "name": "",
          "type": "bool"
        }
      ],
      "stateMutability": "view",
      "type": "function"
    },
    {
      "inputs": [],
      "name": "transactionCount",
      "outputs": [
        {
          "internalType": "uint256",
          "name": "",
          "type": "uint256"
        }
      ],
      "stateMutability": "view",
      "type": "function"
    },
    {
      "inputs": [
        {
          "internalType": "uint256",
          "name": "",
          "type": "uint256"
        }
      ],
      "name": "transactions",
      "outputs": [
        {
          "internalType": "enum IVirtualAddress.TxType",
          "name": "transactionType",
          "type": "uint8"
        },
        {
          "internalType": "uint256",
          "name": "blockTime",
          "type": "uint256"
        },
        {
          "internalType": "address",
          "name": "operator",
          "type": "address"
        },
        {
          "internalType": "address",
          "name": "target",
          "type": "address"
        },
        {
          "internalType": "address",
          "name": "provider",
          "type": "address"
        },
        {
          "internalType": "bytes32",
          "name": "arn",
          "type": "bytes32"
        },
        {
          "internalType": "uint256",
          "name": "amount",
          "type": "uint256"
        }
      ],
      "stateMutability": "view",
      "type": "function"
    },
    {
      "inputs": [
        {
          "internalType": "address",
          "name": "newImplementation",
          "type": "address"
        }
      ],
      "name": "upgradeTo",
      "outputs": [],
      "stateMutability": "nonpayable",
      "type": "function"
    },
    {
      "inputs": [
        {
          "internalType": "address",
          "name": "newImplementation",
          "type": "address"
        },
        {
          "internalType": "bytes",
          "name": "data",
          "type": "bytes"
        }
      ],
      "name": "upgradeToAndCall",
      "outputs": [],
      "stateMutability": "payable",
      "type": "function"
    },
    {
      "stateMutability": "payable",
      "type": "receive"
    }
  ],
  "bytecode": "0x60a06040523073ffffffffffffffffffffffffffffffffffffffff1660809073ffffffffffffffffffffffffffffffffffffffff168152503480156200004457600080fd5b5062000061675643664af9a8450b60c01b620000af60201b60201c565b6200007d671134d941b119341e60c01b620000af60201b60201c565b62000099673a51a67b087b1e9b60c01b620000af60201b60201c565b620000a9620000b260201b60201c565b6200025d565b50565b600060019054906101000a900460ff161562000105576040517f08c379a0000000000000000000000000000000000000000000000000000000008152600401620000fc9062000200565b60405180910390fd5b60ff801660008054906101000a900460ff1660ff161015620001775760ff6000806101000a81548160ff021916908360ff1602179055507f7f26b83ff96e1f2b6a682f133852f6798a09c465da95921460cefb384740249860ff6040516200016e919062000240565b60405180910390a15b565b600082825260208201905092915050565b7f496e697469616c697a61626c653a20636f6e747261637420697320696e69746960008201527f616c697a696e6700000000000000000000000000000000000000000000000000602082015250565b6000620001e860278362000179565b9150620001f5826200018a565b604082019050919050565b600060208201905081810360008301526200021b81620001d9565b9050919050565b600060ff82169050919050565b6200023a8162000222565b82525050565b60006020820190506200025760008301846200022f565b92915050565b608051614e8a6200029560003960008181610a4d01528181610adb0152818161105c015281816110ea01526111a00152614e8a6000f3fe6080604052600436106101845760003560e01c80637501c833116100d6578063b77bf6001161007f578063eb990c5911610059578063eb990c5914610655578063f23a6e611461067e578063f691a27c146106bb576102cc565b8063b77bf600146105c4578063bc197c81146105ef578063d6cb52101461062c576102cc565b806383b1d46c116100b057806383b1d46c1461052b5780639ace38c214610556578063af7c2a3614610599576102cc565b80637501c833146104a957806379300875146104d2578063811a2716146104ee576102cc565b80634486deaa1161013857806352d1902d1161011257806352d1902d14610428578063615a4491146104535780636e5c68f11461047e576102cc565b80634486deaa146103b85780634f1ef286146103e157806350b56276146103fd576102cc565b80632cf2a416116101695780632cf2a416146103395780633659cfe614610364578063429c8b241461038d576102cc565b806301ffc9a7146102d157806313fb817e1461030e576102cc565b366102cc5761019d678655f32be16a435260c01b6106e4565b606860159054906101000a900460ff16156101cb576101c66738e664ebef8778cb60c01b6106e4565b6102ca565b6101df6770a0fdee72875f9860c01b6106e4565b6101f367a7254bf216766ee760c01b6106e4565b606860019054906101000a900473ffffffffffffffffffffffffffffffffffffffff1673ffffffffffffffffffffffffffffffffffffffff1663b6b55f25346067546040518363ffffffff1660e01b81526004016102519190613733565b6000604051808303818588803b15801561026a57600080fd5b505af115801561027e573d6000803e3d6000fd5b50505050506102976755318b2c8479f0c060c01b6106e4565b6102c9600230606860019054906101000a900473ffffffffffffffffffffffffffffffffffffffff16606554346106e7565b5b005b600080fd5b3480156102dd57600080fd5b506102f860048036038101906102f391906137ba565b610998565b6040516103059190613802565b60405180910390f35b34801561031a57600080fd5b50610323610a12565b604051610330919061385e565b60405180910390f35b34801561034557600080fd5b5061034e610a38565b60405161035b9190613802565b60405180910390f35b34801561037057600080fd5b5061038b600480360381019061038691906138a5565b610a4b565b005b34801561039957600080fd5b506103a2610bd3565b6040516103af9190613931565b60405180910390f35b3480156103c457600080fd5b506103df60048036038101906103da9190613978565b610bf9565b005b6103fb60048036038101906103f69190613b25565b61105a565b005b34801561040957600080fd5b50610412611196565b60405161041f9190613733565b60405180910390f35b34801561043457600080fd5b5061043d61119c565b60405161044a9190613b9a565b60405180910390f35b34801561045f57600080fd5b50610468611255565b6040516104759190613b9a565b60405180910390f35b34801561048a57600080fd5b5061049361125b565b6040516104a0919061385e565b60405180910390f35b3480156104b557600080fd5b506104d060048036038101906104cb9190613bb5565b6112c1565b005b6104ec60048036038101906104e79190613cbe565b611741565b005b3480156104fa57600080fd5b5061051560048036038101906105109190613d3f565b611f20565b6040516105229190613733565b60405180910390f35b34801561053757600080fd5b50610540612595565b60405161054d9190613802565b60405180910390f35b34801561056257600080fd5b5061057d60048036038101906105789190613d7f565b6125a8565b6040516105909796959493929190613e23565b60405180910390f35b3480156105a557600080fd5b506105ae612667565b6040516105bb9190613733565b60405180910390f35b3480156105d057600080fd5b506105d961266d565b6040516105e69190613733565b60405180910390f35b3480156105fb57600080fd5b5061061660048036038101906106119190613f55565b612673565b6040516106239190614033565b60405180910390f35b34801561063857600080fd5b50610653600480360381019061064e9190613d7f565b612688565b005b34801561066157600080fd5b5061067c6004803603810190610677919061404e565b6126ba565b005b34801561068a57600080fd5b506106a560048036038101906106a091906140b5565b6129c5565b6040516106b29190614033565b60405180910390f35b3480156106c757600080fd5b506106e260048036038101906106dd91906138a5565b6129da565b005b50565b6106fb67bd85c2df66758c5360c01b6106e4565b61070f673ca2b88e94c35cfb60c01b6106e4565b610723671a7967357a7c5f5e60c01b6106e4565b606a6040518060e0016040528087600381111561074357610742613dac565b5b81526020014281526020013373ffffffffffffffffffffffffffffffffffffffff1681526020018673ffffffffffffffffffffffffffffffffffffffff1681526020018573ffffffffffffffffffffffffffffffffffffffff16815260200184815260200183815250908060018154018082558091505060019003906000526020600020906007020160009091909190915060008201518160000160006101000a81548160ff02191690836003811115610800576107ff613dac565b5b02179055506020820151816001015560408201518160020160006101000a81548173ffffffffffffffffffffffffffffffffffffffff021916908373ffffffffffffffffffffffffffffffffffffffff16021790555060608201518160030160006101000a81548173ffffffffffffffffffffffffffffffffffffffff021916908373ffffffffffffffffffffffffffffffffffffffff16021790555060808201518160040160006101000a81548173ffffffffffffffffffffffffffffffffffffffff021916908373ffffffffffffffffffffffffffffffffffffffff16021790555060a0820151816005015560c08201518160060155505061090e67a42b9226f63d975560c01b6106e4565b6001606b6000828254610921919061417b565b9250508190555061093c6724bb89ca531d442e60c01b6106e4565b61095067a38f3d5d7333179160c01b6106e4565b7f899741d8f90185decb7c287e2b8c8a079abff26b4c406d4476172d2fa7f7795a853386868686604051610989969594939291906141af565b60405180910390a15050505050565b60007f4e2312e0000000000000000000000000000000000000000000000000000000007bffffffffffffffffffffffffffffffffffffffffffffffffffffffff1916827bffffffffffffffffffffffffffffffffffffffffffffffffffffffff19161480610a0b5750610a0a82612c7c565b5b9050919050565b606960009054906101000a900473ffffffffffffffffffffffffffffffffffffffff1681565b606860009054906101000a900460ff1681565b7f000000000000000000000000000000000000000000000000000000000000000073ffffffffffffffffffffffffffffffffffffffff163073ffffffffffffffffffffffffffffffffffffffff1603610ad9576040517f08c379a0000000000000000000000000000000000000000000000000000000008152600401610ad090614293565b60405180910390fd5b7f000000000000000000000000000000000000000000000000000000000000000073ffffffffffffffffffffffffffffffffffffffff16610b18612ce6565b73ffffffffffffffffffffffffffffffffffffffff1614610b6e576040517f08c379a0000000000000000000000000000000000000000000000000000000008152600401610b6590614325565b60405180910390fd5b610b7781612d3d565b610bd081600067ffffffffffffffff811115610b9657610b956139fa565b5b6040519080825280601f01601f191660200182016040528015610bc85781602001600182028036833780820191505090505b506000612f8a565b50565b606860019054906101000a900473ffffffffffffffffffffffffffffffffffffffff1681565b610c0d67de4a2d6816d81a2960c01b6106e4565b606754610c2467065fc4e4abbe492460c01b6106e4565b610c386738e24f6fc1c1a4cd60c01b6106e4565b610c4c676cad492ec566130160c01b6106e4565b606860009054906101000a900460ff16610c6957610c68614345565b5b610c7d6722987f9fcddde10d60c01b6106e4565b610c91673074f461e5c6847a60c01b6106e4565b610ca56773ab8d0eda761bbc60c01b6106e4565b6000606960009054906101000a900473ffffffffffffffffffffffffffffffffffffffff1673ffffffffffffffffffffffffffffffffffffffff1663b83ac19f6040518163ffffffff1660e01b8152600401602060405180830381865afa158015610d14573d6000803e3d6000fd5b505050506040513d601f19601f82011682018060405250810190610d389190614389565b73ffffffffffffffffffffffffffffffffffffffff1662fdd58e33846040518363ffffffff1660e01b8152600401610d719291906143b6565b602060405180830381865afa158015610d8e573d6000803e3d6000fd5b505050506040513d601f19601f82011682018060405250810190610db291906143f4565b11610df2576040517f08c379a0000000000000000000000000000000000000000000000000000000008152600401610de99061446d565b60405180910390fd5b610e0667fe691cf384d6410b60c01b6106e4565b610e1a6702d37e940619d85760c01b6106e4565b610e2e67d83ee4e00f07fd2860c01b6106e4565b610e4267ea56c0392626c3e060c01b6106e4565b610e566791f8eddce129975b60c01b6106e4565b610e6a672cf3ac8d9f5737e860c01b6106e4565b6000610ea760405180606001604052808773ffffffffffffffffffffffffffffffffffffffff1681526020016014815260200160008152506130f8565b9050610ebd67762728d95906fa4360c01b6106e4565b610ed16708ef27b247a67d7f60c01b6106e4565b610edc868286613138565b610ef067fe14dd3e64b95fb560c01b6106e4565b610f0467d1319acb6d2929e360c01b6106e4565b8573ffffffffffffffffffffffffffffffffffffffff16634dc33cd960675483876040518463ffffffff1660e01b8152600401610f439392919061448d565b600060405180830381600087803b158015610f5d57600080fd5b505af1158015610f71573d6000803e3d6000fd5b50505050610f89674c77afefb611010460c01b6106e4565b610f9d6724c1fc49a3f5ef6660c01b6106e4565b8473ffffffffffffffffffffffffffffffffffffffff1663a9059cbb84866040518363ffffffff1660e01b8152600401610fd89291906143b6565b6020604051808303816000875af1158015610ff7573d6000803e3d6000fd5b505050506040513d601f19601f8201168201806040525081019061101b91906144f0565b5061103067d46bff7d97f6917160c01b6106e4565b61104467ce2a8850957960f360c01b6106e4565b6110526001848884886106e7565b505050505050565b7f000000000000000000000000000000000000000000000000000000000000000073ffffffffffffffffffffffffffffffffffffffff163073ffffffffffffffffffffffffffffffffffffffff16036110e8576040517f08c379a00000000000000000000000000000000000000000000000000000000081526004016110df90614293565b60405180910390fd5b7f000000000000000000000000000000000000000000000000000000000000000073ffffffffffffffffffffffffffffffffffffffff16611127612ce6565b73ffffffffffffffffffffffffffffffffffffffff161461117d576040517f08c379a000000000000000000000000000000000000000000000000000000000815260040161117490614325565b60405180910390fd5b61118682612d3d565b61119282826001612f8a565b5050565b60665481565b60007f000000000000000000000000000000000000000000000000000000000000000073ffffffffffffffffffffffffffffffffffffffff163073ffffffffffffffffffffffffffffffffffffffff161461122c576040517f08c379a00000000000000000000000000000000000000000000000000000000081526004016112239061458f565b60405180910390fd5b7f360894a13ba1a3210667c828492db98dca3e2076cc3735a920a3ca505d382bbc60001b905090565b60655481565b600061127167f258b80d0613f2da60c01b6106e4565b611285678dd5a3bd746d307c60c01b6106e4565b611299675e9407198ba91ea060c01b6106e4565b606860019054906101000a900473ffffffffffffffffffffffffffffffffffffffff16905090565b6112d56754650f803391fc2b60c01b6106e4565b6067546112ec67065fc4e4abbe492460c01b6106e4565b6113006738e24f6fc1c1a4cd60c01b6106e4565b611314676cad492ec566130160c01b6106e4565b606860009054906101000a900460ff1661133157611330614345565b5b6113456722987f9fcddde10d60c01b6106e4565b611359673074f461e5c6847a60c01b6106e4565b61136d6773ab8d0eda761bbc60c01b6106e4565b6000606960009054906101000a900473ffffffffffffffffffffffffffffffffffffffff1673ffffffffffffffffffffffffffffffffffffffff1663b83ac19f6040518163ffffffff1660e01b8152600401602060405180830381865afa1580156113dc573d6000803e3d6000fd5b505050506040513d601f19601f820116820180604052508101906114009190614389565b73ffffffffffffffffffffffffffffffffffffffff1662fdd58e33846040518363ffffffff1660e01b81526004016114399291906143b6565b602060405180830381865afa158015611456573d6000803e3d6000fd5b505050506040513d601f19601f8201168201806040525081019061147a91906143f4565b116114ba576040517f08c379a00000000000000000000000000000000000000000000000000000000081526004016114b19061446d565b60405180910390fd5b6114ce67fe691cf384d6410b60c01b6106e4565b6114e26702d37e940619d85760c01b6106e4565b6114f667642f62bccd3e6c9c60c01b6106e4565b61150a6716fa7f069ac22bdb60c01b6106e4565b61151e67ec2ed59a0f9a590160c01b6106e4565b6115326781c8455f728ab8ea60c01b6106e4565b61153f8460655485613138565b61155367d966d408cd3ac1e760c01b6106e4565b6001606860156101000a81548160ff0219169083151502179055506115826713113f339218435560c01b6106e4565b61159667a10e7d568d580d9060c01b6106e4565b8373ffffffffffffffffffffffffffffffffffffffff16634dc33cd9606754606554866040518463ffffffff1660e01b81526004016115d79392919061448d565b600060405180830381600087803b1580156115f157600080fd5b505af1158015611605573d6000803e3d6000fd5b5050505061161d6715842c05d22a8f0760c01b6106e4565b6000606860156101000a81548160ff02191690831515021790555061164c67b696fd30b6642ef060c01b6106e4565b611660673707cbe7d895d35160c01b6106e4565b60008273ffffffffffffffffffffffffffffffffffffffff1684604051611686906145e0565b60006040518083038185875af1925050503d80600081146116c3576040519150601f19603f3d011682016040523d82523d6000602084013e6116c8565b606091505b505090506116e067836965ac7aaf0c3660c01b6106e4565b6116f4677ee7112307d5709960c01b6106e4565b8061170257611701614345565b5b61171667823eb177d7e8147560c01b6106e4565b61172a670f3d78fdcd226deb60c01b6106e4565b61173a60018487606554886106e7565b5050505050565b6117556770c8337cc62aa51e60c01b6106e4565b60675461176c67065fc4e4abbe492460c01b6106e4565b6117806738e24f6fc1c1a4cd60c01b6106e4565b611794676cad492ec566130160c01b6106e4565b606860009054906101000a900460ff166117b1576117b0614345565b5b6117c56722987f9fcddde10d60c01b6106e4565b6117d9673074f461e5c6847a60c01b6106e4565b6117ed6773ab8d0eda761bbc60c01b6106e4565b6000606960009054906101000a900473ffffffffffffffffffffffffffffffffffffffff1673ffffffffffffffffffffffffffffffffffffffff1663b83ac19f6040518163ffffffff1660e01b8152600401602060405180830381865afa15801561185c573d6000803e3d6000fd5b505050506040513d601f19601f820116820180604052508101906118809190614389565b73ffffffffffffffffffffffffffffffffffffffff1662fdd58e33846040518363ffffffff1660e01b81526004016118b99291906143b6565b602060405180830381865afa1580156118d6573d6000803e3d6000fd5b505050506040513d601f19601f820116820180604052508101906118fa91906143f4565b1161193a576040517f08c379a00000000000000000000000000000000000000000000000000000000081526004016119319061446d565b60405180910390fd5b61194e67fe691cf384d6410b60c01b6106e4565b6119626702d37e940619d85760c01b6106e4565b611976675b61cd5c89b1891a60c01b6106e4565b61198a674ce49c1c7027f02b60c01b6106e4565b61199e675c1f23b3a12eb8d360c01b6106e4565b6001606860156101000a81548160ff0219169083151502179055506119cd673e923b5a12c9400d60c01b6106e4565b6119e1676800a268e34639ca60c01b6106e4565b60005b85859050811015611c2a57611a036718656b41755c088b60c01b6106e4565b611a17677d5a5259e0c6b23c60c01b6106e4565b611a84868683818110611a2d57611a2c6145f5565b5b9050606002016000016020810190611a4591906138a5565b878784818110611a5857611a576145f5565b5b90506060020160200135888885818110611a7557611a746145f5565b5b90506060020160400135613138565b611a9867b190454b56b8176360c01b6106e4565b611aac674613e295e59ae95e60c01b6106e4565b858582818110611abf57611abe6145f5565b5b9050606002016000016020810190611ad791906138a5565b73ffffffffffffffffffffffffffffffffffffffff16634dc33cd9606754888885818110611b0857611b076145f5565b5b90506060020160200135898986818110611b2557611b246145f5565b5b905060600201604001356040518463ffffffff1660e01b8152600401611b4d9392919061448d565b600060405180830381600087803b158015611b6757600080fd5b505af1158015611b7b573d6000803e3d6000fd5b50505050611b9367b004d90f744badd960c01b6106e4565b611ba767315860a7f5ee270760c01b6106e4565b611c17600330888885818110611bc057611bbf6145f5565b5b9050606002016000016020810190611bd891906138a5565b898986818110611beb57611bea6145f5565b5b905060600201602001358a8a87818110611c0857611c076145f5565b5b905060600201604001356106e7565b8080611c2290614624565b9150506119e4565b50611c3f67219aadca3de7705f60c01b6106e4565b6000606860156101000a81548160ff021916908315150217905550611c6e67ab26f151c32e29fa60c01b6106e4565b611c82674c98c4effd46095560c01b6106e4565b60005b83839050811015611f1857611ca467784f3c0d28e8bbb360c01b6106e4565b611cb867798a215c3a51f38f60c01b6106e4565b611ccc67f8ce205fb5d042d460c01b6106e4565b838382818110611cdf57611cde6145f5565b5b9050602002810190611cf1919061467b565b6000016020810190611d0391906138a5565b73ffffffffffffffffffffffffffffffffffffffff16606960009054906101000a900473ffffffffffffffffffffffffffffffffffffffff1673ffffffffffffffffffffffffffffffffffffffff1603611d92576040517f08c379a0000000000000000000000000000000000000000000000000000000008152600401611d89906146ef565b60405180910390fd5b611da667ce4b2433bff1326b60c01b6106e4565b611dba675bdf9feddb1861da60c01b6106e4565b611dce6771422fcf327ca53760c01b6106e4565b6000848483818110611de357611de26145f5565b5b9050602002810190611df5919061467b565b6000016020810190611e0791906138a5565b73ffffffffffffffffffffffffffffffffffffffff16858584818110611e3057611e2f6145f5565b5b9050602002810190611e42919061467b565b60400135868685818110611e5957611e586145f5565b5b9050602002810190611e6b919061467b565b8060200190611e7a919061470f565b604051611e88929190614797565b60006040518083038185875af1925050503d8060008114611ec5576040519150601f19603f3d011682016040523d82523d6000602084013e611eca565b606091505b50509050611ee267b688976686f089a460c01b6106e4565b611ef667593fdfca494b716760c01b6106e4565b80611f0457611f03614345565b5b508080611f1090614624565b915050611c85565b505050505050565b6000611f3667cf7509ff867be7ca60c01b6106e4565b606754611f4d67065fc4e4abbe492460c01b6106e4565b611f616738e24f6fc1c1a4cd60c01b6106e4565b611f75676cad492ec566130160c01b6106e4565b606860009054906101000a900460ff16611f9257611f91614345565b5b611fa66722987f9fcddde10d60c01b6106e4565b611fba673074f461e5c6847a60c01b6106e4565b611fce6773ab8d0eda761bbc60c01b6106e4565b6000606960009054906101000a900473ffffffffffffffffffffffffffffffffffffffff1673ffffffffffffffffffffffffffffffffffffffff1663b83ac19f6040518163ffffffff1660e01b8152600401602060405180830381865afa15801561203d573d6000803e3d6000fd5b505050506040513d601f19601f820116820180604052508101906120619190614389565b73ffffffffffffffffffffffffffffffffffffffff1662fdd58e33846040518363ffffffff1660e01b815260040161209a9291906143b6565b602060405180830381865afa1580156120b7573d6000803e3d6000fd5b505050506040513d601f19601f820116820180604052508101906120db91906143f4565b1161211b576040517f08c379a00000000000000000000000000000000000000000000000000000000081526004016121129061446d565b60405180910390fd5b61212f67fe691cf384d6410b60c01b6106e4565b6121436702d37e940619d85760c01b6106e4565b612157679a1b86161e62c0f660c01b6106e4565b61216b679be70399a1f7229660c01b6106e4565b61217f67fefce19fb4d30c1260c01b6106e4565b61219367f660060ffe92d30d60c01b6106e4565b60008390506121ac671b6fefa05341065860c01b6106e4565b6121c067b4ebe0b1bd6a7f8860c01b6106e4565b60006121fd60405180606001604052808873ffffffffffffffffffffffffffffffffffffffff1681526020016014815260200160008152506130f8565b905061221367b8ac0c433579a7b360c01b6106e4565b61222767b1792e70e345e4a660c01b6106e4565b60008673ffffffffffffffffffffffffffffffffffffffff166370a08231306040518263ffffffff1660e01b8152600401612262919061385e565b602060405180830381865afa15801561227f573d6000803e3d6000fd5b505050506040513d601f19601f820116820180604052508101906122a391906143f4565b90506122b967720b61aea0c2776060c01b6106e4565b6122cd67d749458fd27129b960c01b6106e4565b6122e1674627344199f4dc9960c01b6106e4565b60008111612324576040517f08c379a000000000000000000000000000000000000000000000000000000000815260040161231b906147fc565b60405180910390fd5b6123386772eb5939aa084c5660c01b6106e4565b61234c678398d38288c519d760c01b6106e4565b6123606786d796b9c080a80760c01b6106e4565b8673ffffffffffffffffffffffffffffffffffffffff1663095ea7b387836040518363ffffffff1660e01b815260040161239b9291906143b6565b6020604051808303816000875af11580156123ba573d6000803e3d6000fd5b505050506040513d601f19601f820116820180604052508101906123de91906144f0565b506123f367c80c5cc1433a015960c01b6106e4565b6124076795506cfe5c1c604e60c01b6106e4565b8273ffffffffffffffffffffffffffffffffffffffff1663bc157ac160675489846040518463ffffffff1660e01b81526004016124469392919061481c565b600060405180830381600087803b15801561246057600080fd5b505af1158015612474573d6000803e3d6000fd5b5050505061248c6786a0041ed0393d7f60c01b6106e4565b6124a0677f845dd4f23f418460c01b6106e4565b60008773ffffffffffffffffffffffffffffffffffffffff166370a08231306040518263ffffffff1660e01b81526004016124db919061385e565b602060405180830381865afa1580156124f8573d6000803e3d6000fd5b505050506040513d601f19601f8201168201806040525081019061251c91906143f4565b1461252a57612529614345565b5b61253e67b2a004e2ed748f4360c01b6106e4565b612552671fecb7012ee798a960c01b6106e4565b6125606002308885856106e7565b61257467b4ed2b96021df18e60c01b6106e4565b61258867d8d4cddfe70bca9460c01b6106e4565b8094505050505092915050565b606860159054906101000a900460ff1681565b606a81815481106125b857600080fd5b90600052602060002090600702016000915090508060000160009054906101000a900460ff16908060010154908060020160009054906101000a900473ffffffffffffffffffffffffffffffffffffffff16908060030160009054906101000a900473ffffffffffffffffffffffffffffffffffffffff16908060040160009054906101000a900473ffffffffffffffffffffffffffffffffffffffff16908060050154908060060154905087565b60675481565b606b5481565b600063bc197c8160e01b905095945050505050565b61269c670932ef606eef174860c01b613410565b6126b067505db6535b130a0960c01b613410565b8060678190555050565b6126ce674e6170cf8c6250da60c01b6106e4565b60008060019054906101000a900460ff161590508080156126ff5750600160008054906101000a900460ff1660ff16105b8061272c575061270e30613413565b15801561272b5750600160008054906101000a900460ff1660ff16145b5b61276b576040517f08c379a0000000000000000000000000000000000000000000000000000000008152600401612762906148c5565b60405180910390fd5b60016000806101000a81548160ff021916908360ff16021790555080156127a8576001600060016101000a81548160ff0219169083151502179055505b6127bc67b41fd409ee91df9e60c01b6106e4565b6127d067299544d298f78d4e60c01b6106e4565b6127e467c53624119c7cf1a360c01b6106e4565b6127f867164c37bcfa188aa160c01b6106e4565b612800613436565b612814676f194d613a9bec6c60c01b6106e4565b84606960006101000a81548173ffffffffffffffffffffffffffffffffffffffff021916908373ffffffffffffffffffffffffffffffffffffffff16021790555061286967ce4dbd4095582c5e60c01b6106e4565b8260668190555061288467e9d2fded0e2d689260c01b6106e4565b8160678190555061289f67e5fceab2588d298860c01b6106e4565b6001606860006101000a81548160ff0219169083151502179055506128ce67d0ad6e35a183c96960c01b6106e4565b83606860016101000a81548173ffffffffffffffffffffffffffffffffffffffff021916908373ffffffffffffffffffffffffffffffffffffffff1602179055506129236711db25bb3850465860c01b6106e4565b61295f6040518060600160405280600073ffffffffffffffffffffffffffffffffffffffff1681526020016000815260200160008152506130f8565b60658190555080156129be5760008060016101000a81548160ff0219169083151502179055507f7f26b83ff96e1f2b6a682f133852f6798a09c465da95921460cefb384740249860016040516129b5919061492d565b60405180910390a15b5050505050565b600063f23a6e6160e01b905095945050505050565b6129ee6727068c70eb970b5f60c01b6106e4565b606654612a0567065fc4e4abbe492460c01b6106e4565b612a196738e24f6fc1c1a4cd60c01b6106e4565b612a2d676cad492ec566130160c01b6106e4565b606860009054906101000a900460ff16612a4a57612a49614345565b5b612a5e6722987f9fcddde10d60c01b6106e4565b612a72673074f461e5c6847a60c01b6106e4565b612a866773ab8d0eda761bbc60c01b6106e4565b6000606960009054906101000a900473ffffffffffffffffffffffffffffffffffffffff1673ffffffffffffffffffffffffffffffffffffffff1663b83ac19f6040518163ffffffff1660e01b8152600401602060405180830381865afa158015612af5573d6000803e3d6000fd5b505050506040513d601f19601f82011682018060405250810190612b199190614389565b73ffffffffffffffffffffffffffffffffffffffff1662fdd58e33846040518363ffffffff1660e01b8152600401612b529291906143b6565b602060405180830381865afa158015612b6f573d6000803e3d6000fd5b505050506040513d601f19601f82011682018060405250810190612b9391906143f4565b11612bd3576040517f08c379a0000000000000000000000000000000000000000000000000000000008152600401612bca9061446d565b60405180910390fd5b612be767fe691cf384d6410b60c01b6106e4565b612bfb6702d37e940619d85760c01b6106e4565b612c0f67dffc22b1d32fe27960c01b6106e4565b612c23678f425b9532cc869160c01b6106e4565b612c3767b891f12790fb89b460c01b6106e4565b81606860016101000a81548173ffffffffffffffffffffffffffffffffffffffff021916908373ffffffffffffffffffffffffffffffffffffffff1602179055505050565b60007f01ffc9a7000000000000000000000000000000000000000000000000000000007bffffffffffffffffffffffffffffffffffffffffffffffffffffffff1916827bffffffffffffffffffffffffffffffffffffffffffffffffffffffff1916149050919050565b6000612d147f360894a13ba1a3210667c828492db98dca3e2076cc3735a920a3ca505d382bbc60001b613487565b60000160009054906101000a900473ffffffffffffffffffffffffffffffffffffffff16905090565b612d5167d81782145cd8d26f60c01b6106e4565b606654612d6867065fc4e4abbe492460c01b6106e4565b612d7c6738e24f6fc1c1a4cd60c01b6106e4565b612d90676cad492ec566130160c01b6106e4565b606860009054906101000a900460ff16612dad57612dac614345565b5b612dc16722987f9fcddde10d60c01b6106e4565b612dd5673074f461e5c6847a60c01b6106e4565b612de96773ab8d0eda761bbc60c01b6106e4565b6000606960009054906101000a900473ffffffffffffffffffffffffffffffffffffffff1673ffffffffffffffffffffffffffffffffffffffff1663b83ac19f6040518163ffffffff1660e01b8152600401602060405180830381865afa158015612e58573d6000803e3d6000fd5b505050506040513d601f19601f82011682018060405250810190612e7c9190614389565b73ffffffffffffffffffffffffffffffffffffffff1662fdd58e33846040518363ffffffff1660e01b8152600401612eb59291906143b6565b602060405180830381865afa158015612ed2573d6000803e3d6000fd5b505050506040513d601f19601f82011682018060405250810190612ef691906143f4565b11612f36576040517f08c379a0000000000000000000000000000000000000000000000000000000008152600401612f2d9061446d565b60405180910390fd5b612f4a67fe691cf384d6410b60c01b6106e4565b612f5e6702d37e940619d85760c01b6106e4565b612f72674e7ef5a4a2c768f760c01b6106e4565b612f8667564f10533321e9dc60c01b6106e4565b5050565b612fb67f4910fdfa16fed3260ed0e7147f7cc6da11a60208b5b9406d12a635614ffd914360001b613491565b60000160009054906101000a900460ff1615612fda57612fd58361349b565b6130f3565b8273ffffffffffffffffffffffffffffffffffffffff166352d1902d6040518163ffffffff1660e01b8152600401602060405180830381865afa92505050801561304257506040513d601f19601f8201168201806040525081019061303f9190614974565b60015b613081576040517f08c379a000000000000000000000000000000000000000000000000000000000815260040161307890614a13565b60405180910390fd5b7f360894a13ba1a3210667c828492db98dca3e2076cc3735a920a3ca505d382bbc60001b81146130e6576040517f08c379a00000000000000000000000000000000000000000000000000000000081526004016130dd90614aa5565b60405180910390fd5b506130f2838383613554565b5b505050565b600081600001518260200151836040015160405160200161311b93929190614ac5565b604051602081830303815290604052805190602001209050919050565b61314c6772f348c38fae0d4560c01b6106e4565b613160670effd06ed202cfac60c01b6106e4565b6131746735c81b6e93d924f060c01b6106e4565b600083905061318d672eac68ae2f86aed460c01b6106e4565b6131a16755a53add874a4f3f60c01b6106e4565b60008173ffffffffffffffffffffffffffffffffffffffff1663962047986040518163ffffffff1660e01b8152600401602060405180830381865afa1580156131ee573d6000803e3d6000fd5b505050506040513d601f19601f820116820180604052508101906132129190614389565b905061322867d30a58df317cc51b60c01b6106e4565b61323c6759fecb3f016df59860c01b6106e4565b60008173ffffffffffffffffffffffffffffffffffffffff16639d54c79d6040518163ffffffff1660e01b8152600401602060405180830381865afa158015613289573d6000803e3d6000fd5b505050506040513d601f19601f820116820180604052508101906132ad9190614389565b90506132c3674f6a17096fc5a94160c01b6106e4565b6132d767e1024d1661ae747860c01b6106e4565b60008173ffffffffffffffffffffffffffffffffffffffff1663625439fd846067548a8a6040518563ffffffff1660e01b815260040161331a9493929190614afc565b6020604051808303816000875af1158015613339573d6000803e3d6000fd5b505050506040513d601f19601f8201168201806040525081019061335d91906143f4565b9050613373674670082c202fc9d260c01b6106e4565b613387670937be0b49e99f8260c01b6106e4565b8173ffffffffffffffffffffffffffffffffffffffff166388dfcc5284896067548a8a876133b5919061417b565b6040518663ffffffff1660e01b81526004016133d5959493929190614b41565b600060405180830381600087803b1580156133ef57600080fd5b505af1158015613403573d6000803e3d6000fd5b5050505050505050505050565b50565b6000808273ffffffffffffffffffffffffffffffffffffffff163b119050919050565b600060019054906101000a900460ff16613485576040517f08c379a000000000000000000000000000000000000000000000000000000000815260040161347c90614c06565b60405180910390fd5b565b6000819050919050565b6000819050919050565b6134a481613413565b6134e3576040517f08c379a00000000000000000000000000000000000000000000000000000000081526004016134da90614c98565b60405180910390fd5b806135107f360894a13ba1a3210667c828492db98dca3e2076cc3735a920a3ca505d382bbc60001b613487565b60000160006101000a81548173ffffffffffffffffffffffffffffffffffffffff021916908373ffffffffffffffffffffffffffffffffffffffff16021790555050565b61355d83613580565b60008251118061356a5750805b1561357b5761357983836135cf565b505b505050565b6135898161349b565b8073ffffffffffffffffffffffffffffffffffffffff167fbc7cd75a20ee27fd9adebab32041f755214dbc6bffa90cc0225b39da2e5c2d3b60405160405180910390a250565b60606135da83613413565b613619576040517f08c379a000000000000000000000000000000000000000000000000000000000815260040161361090614d2a565b60405180910390fd5b6000808473ffffffffffffffffffffffffffffffffffffffff16846040516136419190614db0565b600060405180830381855af49150503d806000811461367c576040519150601f19603f3d011682016040523d82523d6000602084013e613681565b606091505b50915091506136a98282604051806060016040528060278152602001614e2e602791396136b3565b9250505092915050565b606083156136c357829050613713565b6000835111156136d65782518084602001fd5b816040517f08c379a000000000000000000000000000000000000000000000000000000000815260040161370a9190614e0b565b60405180910390fd5b9392505050565b6000819050919050565b61372d8161371a565b82525050565b60006020820190506137486000830184613724565b92915050565b6000604051905090565b600080fd5b600080fd5b60007fffffffff0000000000000000000000000000000000000000000000000000000082169050919050565b61379781613762565b81146137a257600080fd5b50565b6000813590506137b48161378e565b92915050565b6000602082840312156137d0576137cf613758565b5b60006137de848285016137a5565b91505092915050565b60008115159050919050565b6137fc816137e7565b82525050565b600060208201905061381760008301846137f3565b92915050565b600073ffffffffffffffffffffffffffffffffffffffff82169050919050565b60006138488261381d565b9050919050565b6138588161383d565b82525050565b6000602082019050613873600083018461384f565b92915050565b6138828161383d565b811461388d57600080fd5b50565b60008135905061389f81613879565b92915050565b6000602082840312156138bb576138ba613758565b5b60006138c984828501613890565b91505092915050565b6000819050919050565b60006138f76138f26138ed8461381d565b6138d2565b61381d565b9050919050565b6000613909826138dc565b9050919050565b600061391b826138fe565b9050919050565b61392b81613910565b82525050565b60006020820190506139466000830184613922565b92915050565b6139558161371a565b811461396057600080fd5b50565b6000813590506139728161394c565b92915050565b6000806000806080858703121561399257613991613758565b5b60006139a087828801613890565b94505060206139b187828801613890565b93505060406139c287828801613963565b92505060606139d387828801613890565b91505092959194509250565b600080fd5b600080fd5b6000601f19601f8301169050919050565b7f4e487b7100000000000000000000000000000000000000000000000000000000600052604160045260246000fd5b613a32826139e9565b810181811067ffffffffffffffff82111715613a5157613a506139fa565b5b80604052505050565b6000613a6461374e565b9050613a708282613a29565b919050565b600067ffffffffffffffff821115613a9057613a8f6139fa565b5b613a99826139e9565b9050602081019050919050565b82818337600083830152505050565b6000613ac8613ac384613a75565b613a5a565b905082815260208101848484011115613ae457613ae36139e4565b5b613aef848285613aa6565b509392505050565b600082601f830112613b0c57613b0b6139df565b5b8135613b1c848260208601613ab5565b91505092915050565b60008060408385031215613b3c57613b3b613758565b5b6000613b4a85828601613890565b925050602083013567ffffffffffffffff811115613b6b57613b6a61375d565b5b613b7785828601613af7565b9150509250929050565b6000819050919050565b613b9481613b81565b82525050565b6000602082019050613baf6000830184613b8b565b92915050565b600080600060608486031215613bce57613bcd613758565b5b6000613bdc86828701613890565b9350506020613bed86828701613963565b9250506040613bfe86828701613890565b9150509250925092565b600080fd5b600080fd5b60008083601f840112613c2857613c276139df565b5b8235905067ffffffffffffffff811115613c4557613c44613c08565b5b602083019150836060820283011115613c6157613c60613c0d565b5b9250929050565b60008083601f840112613c7e57613c7d6139df565b5b8235905067ffffffffffffffff811115613c9b57613c9a613c08565b5b602083019150836020820283011115613cb757613cb6613c0d565b5b9250929050565b60008060008060408587031215613cd857613cd7613758565b5b600085013567ffffffffffffffff811115613cf657613cf561375d565b5b613d0287828801613c12565b9450945050602085013567ffffffffffffffff811115613d2557613d2461375d565b5b613d3187828801613c68565b925092505092959194509250565b60008060408385031215613d5657613d55613758565b5b6000613d6485828601613890565b9250506020613d7585828601613890565b9150509250929050565b600060208284031215613d9557613d94613758565b5b6000613da384828501613963565b91505092915050565b7f4e487b7100000000000000000000000000000000000000000000000000000000600052602160045260246000fd5b60048110613dec57613deb613dac565b5b50565b6000819050613dfd82613ddb565b919050565b6000613e0d82613def565b9050919050565b613e1d81613e02565b82525050565b600060e082019050613e38600083018a613e14565b613e456020830189613724565b613e52604083018861384f565b613e5f606083018761384f565b613e6c608083018661384f565b613e7960a0830185613b8b565b613e8660c0830184613724565b98975050505050505050565b600067ffffffffffffffff821115613ead57613eac6139fa565b5b602082029050602081019050919050565b6000613ed1613ecc84613e92565b613a5a565b90508083825260208201905060208402830185811115613ef457613ef3613c0d565b5b835b81811015613f1d5780613f098882613963565b845260208401935050602081019050613ef6565b5050509392505050565b600082601f830112613f3c57613f3b6139df565b5b8135613f4c848260208601613ebe565b91505092915050565b600080600080600060a08688031215613f7157613f70613758565b5b6000613f7f88828901613890565b9550506020613f9088828901613890565b945050604086013567ffffffffffffffff811115613fb157613fb061375d565b5b613fbd88828901613f27565b935050606086013567ffffffffffffffff811115613fde57613fdd61375d565b5b613fea88828901613f27565b925050608086013567ffffffffffffffff81111561400b5761400a61375d565b5b61401788828901613af7565b9150509295509295909350565b61402d81613762565b82525050565b60006020820190506140486000830184614024565b92915050565b6000806000806080858703121561406857614067613758565b5b600061407687828801613890565b945050602061408787828801613890565b935050604061409887828801613963565b92505060606140a987828801613963565b91505092959194509250565b600080600080600060a086880312156140d1576140d0613758565b5b60006140df88828901613890565b95505060206140f088828901613890565b945050604061410188828901613963565b935050606061411288828901613963565b925050608086013567ffffffffffffffff8111156141335761413261375d565b5b61413f88828901613af7565b9150509295509295909350565b7f4e487b7100000000000000000000000000000000000000000000000000000000600052601160045260246000fd5b60006141868261371a565b91506141918361371a565b92508282019050808211156141a9576141a861414c565b5b92915050565b600060c0820190506141c46000830189613e14565b6141d1602083018861384f565b6141de604083018761384f565b6141eb606083018661384f565b6141f86080830185613b8b565b61420560a0830184613724565b979650505050505050565b600082825260208201905092915050565b7f46756e6374696f6e206d7573742062652063616c6c6564207468726f7567682060008201527f64656c656761746563616c6c0000000000000000000000000000000000000000602082015250565b600061427d602c83614210565b915061428882614221565b604082019050919050565b600060208201905081810360008301526142ac81614270565b9050919050565b7f46756e6374696f6e206d7573742062652063616c6c6564207468726f7567682060008201527f6163746976652070726f78790000000000000000000000000000000000000000602082015250565b600061430f602c83614210565b915061431a826142b3565b604082019050919050565b6000602082019050818103600083015261433e81614302565b9050919050565b7f4e487b7100000000000000000000000000000000000000000000000000000000600052600160045260246000fd5b60008151905061438381613879565b92915050565b60006020828403121561439f5761439e613758565b5b60006143ad84828501614374565b91505092915050565b60006040820190506143cb600083018561384f565b6143d86020830184613724565b9392505050565b6000815190506143ee8161394c565b92915050565b60006020828403121561440a57614409613758565b5b6000614418848285016143df565b91505092915050565b7f494e56414c49445f4f50455241544f5200000000000000000000000000000000600082015250565b6000614457601083614210565b915061446282614421565b602082019050919050565b600060208201905081810360008301526144868161444a565b9050919050565b60006060820190506144a26000830186613724565b6144af6020830185613b8b565b6144bc6040830184613724565b949350505050565b6144cd816137e7565b81146144d857600080fd5b50565b6000815190506144ea816144c4565b92915050565b60006020828403121561450657614505613758565b5b6000614514848285016144db565b91505092915050565b7f555550535570677261646561626c653a206d757374206e6f742062652063616c60008201527f6c6564207468726f7567682064656c656761746563616c6c0000000000000000602082015250565b6000614579603883614210565b91506145848261451d565b604082019050919050565b600060208201905081810360008301526145a88161456c565b9050919050565b600081905092915050565b50565b60006145ca6000836145af565b91506145d5826145ba565b600082019050919050565b60006145eb826145bd565b9150819050919050565b7f4e487b7100000000000000000000000000000000000000000000000000000000600052603260045260246000fd5b600061462f8261371a565b91507fffffffffffffffffffffffffffffffffffffffffffffffffffffffffffffffff82036146615761466061414c565b5b600182019050919050565b600080fd5b600080fd5b600080fd5b6000823560016060038336030381126146975761469661466c565b5b80830191505092915050565b7f494e56415249414e545f434f4e54524f4c000000000000000000000000000000600082015250565b60006146d9601183614210565b91506146e4826146a3565b602082019050919050565b60006020820190508181036000830152614708816146cc565b9050919050565b6000808335600160200384360303811261472c5761472b61466c565b5b80840192508235915067ffffffffffffffff82111561474e5761474d614671565b5b60208301925060018202360383131561476a57614769614676565b5b509250929050565b600061477e83856145af565b935061478b838584613aa6565b82840190509392505050565b60006147a4828486614772565b91508190509392505050565b7f4e4f5f544f4b454e530000000000000000000000000000000000000000000000600082015250565b60006147e6600983614210565b91506147f1826147b0565b602082019050919050565b60006020820190508181036000830152614815816147d9565b9050919050565b60006060820190506148316000830186613724565b61483e602083018561384f565b61484b6040830184613724565b949350505050565b7f496e697469616c697a61626c653a20636f6e747261637420697320616c72656160008201527f647920696e697469616c697a6564000000000000000000000000000000000000602082015250565b60006148af602e83614210565b91506148ba82614853565b604082019050919050565b600060208201905081810360008301526148de816148a2565b9050919050565b6000819050919050565b600060ff82169050919050565b600061491761491261490d846148e5565b6138d2565b6148ef565b9050919050565b614927816148fc565b82525050565b6000602082019050614942600083018461491e565b92915050565b61495181613b81565b811461495c57600080fd5b50565b60008151905061496e81614948565b92915050565b60006020828403121561498a57614989613758565b5b60006149988482850161495f565b91505092915050565b7f45524331393637557067726164653a206e657720696d706c656d656e7461746960008201527f6f6e206973206e6f742055555053000000000000000000000000000000000000602082015250565b60006149fd602e83614210565b9150614a08826149a1565b604082019050919050565b60006020820190508181036000830152614a2c816149f0565b9050919050565b7f45524331393637557067726164653a20756e737570706f727465642070726f7860008201527f6961626c65555549440000000000000000000000000000000000000000000000602082015250565b6000614a8f602983614210565b9150614a9a82614a33565b604082019050919050565b60006020820190508181036000830152614abe81614a82565b9050919050565b6000606082019050614ada600083018661384f565b614ae76020830185613724565b614af46040830184613724565b949350505050565b6000608082019050614b11600083018761384f565b614b1e6020830186613724565b614b2b604083018561384f565b614b386060830184613b8b565b95945050505050565b600060a082019050614b56600083018861384f565b614b63602083018761384f565b614b706040830186613724565b614b7d6060830185613b8b565b614b8a6080830184613724565b9695505050505050565b7f496e697469616c697a61626c653a20636f6e7472616374206973206e6f74206960008201527f6e697469616c697a696e67000000000000000000000000000000000000000000602082015250565b6000614bf0602b83614210565b9150614bfb82614b94565b604082019050919050565b60006020820190508181036000830152614c1f81614be3565b9050919050565b7f455243313936373a206e657720696d706c656d656e746174696f6e206973206e60008201527f6f74206120636f6e747261637400000000000000000000000000000000000000602082015250565b6000614c82602d83614210565b9150614c8d82614c26565b604082019050919050565b60006020820190508181036000830152614cb181614c75565b9050919050565b7f416464726573733a2064656c65676174652063616c6c20746f206e6f6e2d636f60008201527f6e74726163740000000000000000000000000000000000000000000000000000602082015250565b6000614d14602683614210565b9150614d1f82614cb8565b604082019050919050565b60006020820190508181036000830152614d4381614d07565b9050919050565b600081519050919050565b60005b83811015614d73578082015181840152602081019050614d58565b60008484015250505050565b6000614d8a82614d4a565b614d9481856145af565b9350614da4818560208601614d55565b80840191505092915050565b6000614dbc8284614d7f565b915081905092915050565b600081519050919050565b6000614ddd82614dc7565b614de78185614210565b9350614df7818560208601614d55565b614e00816139e9565b840191505092915050565b60006020820190508181036000830152614e258184614dd2565b90509291505056fe416464726573733a206c6f772d6c6576656c2064656c65676174652063616c6c206661696c6564a264697066735822122021b5df7989777ea8d8b168ed49f4eefcdfb17dacd0825e473bacaf70d48cc00264736f6c63430008100033",
  "linkReferences": {},
  "deployedLinkReferences": {}
}