{
  "_format": "hh-sol-artifact-1",
  "contractName": "StubKeyAddress",
  "sourceName": "contracts/stubs/StubKeyAddress.sol",
  "abi": [
    {
      "anonymous": false,
      "inputs": [
        {
          "indexed": false,
          "internalType": "address",
          "name": "previousAdmin",
          "type": "address"
        },
        {
          "indexed": false,
          "internalType": "address",
          "name": "newAdmin",
          "type": "address"
        }
      ],
      "name": "AdminChanged",
      "type": "event"
    },
    {
      "anonymous": false,
      "inputs": [
        {
          "indexed": true,
          "internalType": "address",
          "name": "beacon",
          "type": "address"
        }
      ],
      "name": "BeaconUpgraded",
      "type": "event"
    },
    {
      "anonymous": false,
      "inputs": [
        {
          "indexed": false,
          "internalType": "uint8",
          "name": "version",
          "type": "uint8"
        }
      ],
      "name": "Initialized",
      "type": "event"
    },
    {
      "anonymous": false,
      "inputs": [
        {
          "indexed": true,
          "internalType": "address",
          "name": "implementation",
          "type": "address"
        }
      ],
      "name": "Upgraded",
      "type": "event"
    },
    {
      "anonymous": false,
      "inputs": [
        {
          "indexed": false,
          "internalType": "enum IVirtualAddress.TxType",
          "name": "txType",
          "type": "uint8"
        },
        {
          "indexed": false,
          "internalType": "address",
          "name": "operator",
          "type": "address"
        },
        {
          "indexed": false,
          "internalType": "address",
          "name": "target",
          "type": "address"
        },
        {
          "indexed": false,
          "internalType": "address",
          "name": "provider",
          "type": "address"
        },
        {
          "indexed": false,
          "internalType": "bytes32",
          "name": "arn",
          "type": "bytes32"
        },
        {
          "indexed": false,
          "internalType": "uint256",
          "name": "amount",
          "type": "uint256"
        }
      ],
      "name": "addressTransaction",
      "type": "event"
    },
    {
      "inputs": [
        {
          "internalType": "address",
          "name": "token",
          "type": "address"
        },
        {
          "internalType": "address",
          "name": "provider",
          "type": "address"
        }
      ],
      "name": "acceptToken",
      "outputs": [
        {
          "internalType": "uint256",
          "name": "",
          "type": "uint256"
        }
      ],
      "stateMutability": "nonpayable",
      "type": "function"
    },
    {
      "inputs": [],
      "name": "defaultEthDepositProvider",
      "outputs": [
        {
          "internalType": "contract IEtherCollateralProvider",
          "name": "",
          "type": "address"
        }
      ],
      "stateMutability": "view",
      "type": "function"
    },
    {
      "inputs": [],
      "name": "depositHatch",
      "outputs": [
        {
          "internalType": "bool",
          "name": "",
          "type": "bool"
        }
      ],
      "stateMutability": "view",
      "type": "function"
    },
    {
      "inputs": [],
      "name": "ethArn",
      "outputs": [
        {
          "internalType": "bytes32",
          "name": "",
          "type": "bytes32"
        }
      ],
      "stateMutability": "view",
      "type": "function"
    },
    {
      "inputs": [],
      "name": "getDefaultEthDepositProvider",
      "outputs": [
        {
          "internalType": "address",
          "name": "",
          "type": "address"
        }
      ],
      "stateMutability": "view",
      "type": "function"
    },
    {
      "inputs": [
        {
          "internalType": "address",
          "name": "_Locksmith",
          "type": "address"
        },
        {
          "internalType": "address",
          "name": "_ethProvider",
          "type": "address"
        },
        {
          "internalType": "uint256",
          "name": "_ownerKeyId",
          "type": "uint256"
        },
        {
          "internalType": "uint256",
          "name": "_keyId",
          "type": "uint256"
        }
      ],
      "name": "initialize",
      "outputs": [],
      "stateMutability": "nonpayable",
      "type": "function"
    },
    {
      "inputs": [],
      "name": "keyId",
      "outputs": [
        {
          "internalType": "uint256",
          "name": "",
          "type": "uint256"
        }
      ],
      "stateMutability": "view",
      "type": "function"
    },
    {
      "inputs": [],
      "name": "keyInitialized",
      "outputs": [
        {
          "internalType": "bool",
          "name": "",
          "type": "bool"
        }
      ],
      "stateMutability": "view",
      "type": "function"
    },
    {
      "inputs": [],
      "name": "locksmith",
      "outputs": [
        {
          "internalType": "address",
          "name": "",
          "type": "address"
        }
      ],
      "stateMutability": "view",
      "type": "function"
    },
    {
      "inputs": [
        {
          "components": [
            {
              "internalType": "address",
              "name": "provider",
              "type": "address"
            },
            {
              "internalType": "bytes32",
              "name": "arn",
              "type": "bytes32"
            },
            {
              "internalType": "uint256",
              "name": "amount",
              "type": "uint256"
            }
          ],
          "internalType": "struct IVirtualAddress.FundingPreparation[]",
          "name": "assets",
          "type": "tuple[]"
        },
        {
          "components": [
            {
              "internalType": "address",
              "name": "target",
              "type": "address"
            },
            {
              "internalType": "bytes",
              "name": "callData",
              "type": "bytes"
            },
            {
              "internalType": "uint256",
              "name": "msgValue",
              "type": "uint256"
            }
          ],
          "internalType": "struct IVirtualAddress.Call[]",
          "name": "calls",
          "type": "tuple[]"
        }
      ],
      "name": "multicall",
      "outputs": [],
      "stateMutability": "payable",
      "type": "function"
    },
    {
      "inputs": [
        {
          "internalType": "address",
          "name": "",
          "type": "address"
        },
        {
          "internalType": "address",
          "name": "",
          "type": "address"
        },
        {
          "internalType": "uint256[]",
          "name": "",
          "type": "uint256[]"
        },
        {
          "internalType": "uint256[]",
          "name": "",
          "type": "uint256[]"
        },
        {
          "internalType": "bytes",
          "name": "",
          "type": "bytes"
        }
      ],
      "name": "onERC1155BatchReceived",
      "outputs": [
        {
          "internalType": "bytes4",
          "name": "",
          "type": "bytes4"
        }
      ],
      "stateMutability": "nonpayable",
      "type": "function"
    },
    {
      "inputs": [
        {
          "internalType": "address",
          "name": "",
          "type": "address"
        },
        {
          "internalType": "address",
          "name": "",
          "type": "address"
        },
        {
          "internalType": "uint256",
          "name": "",
          "type": "uint256"
        },
        {
          "internalType": "uint256",
          "name": "",
          "type": "uint256"
        },
        {
          "internalType": "bytes",
          "name": "",
          "type": "bytes"
        }
      ],
      "name": "onERC1155Received",
      "outputs": [
        {
          "internalType": "bytes4",
          "name": "",
          "type": "bytes4"
        }
      ],
      "stateMutability": "nonpayable",
      "type": "function"
    },
    {
      "inputs": [],
      "name": "ownerKeyId",
      "outputs": [
        {
          "internalType": "uint256",
          "name": "",
          "type": "uint256"
        }
      ],
      "stateMutability": "view",
      "type": "function"
    },
    {
      "inputs": [],
      "name": "proxiableUUID",
      "outputs": [
        {
          "internalType": "bytes32",
          "name": "",
          "type": "bytes32"
        }
      ],
      "stateMutability": "view",
      "type": "function"
    },
    {
      "inputs": [
        {
          "internalType": "address",
          "name": "provider",
          "type": "address"
        },
        {
          "internalType": "uint256",
          "name": "amount",
          "type": "uint256"
        },
        {
          "internalType": "address",
          "name": "to",
          "type": "address"
        }
      ],
      "name": "send",
      "outputs": [],
      "stateMutability": "nonpayable",
      "type": "function"
    },
    {
      "inputs": [
        {
          "internalType": "address",
          "name": "provider",
          "type": "address"
        },
        {
          "internalType": "address",
          "name": "token",
          "type": "address"
        },
        {
          "internalType": "uint256",
          "name": "amount",
          "type": "uint256"
        },
        {
          "internalType": "address",
          "name": "to",
          "type": "address"
        }
      ],
      "name": "sendToken",
      "outputs": [],
      "stateMutability": "nonpayable",
      "type": "function"
    },
    {
      "inputs": [
        {
          "internalType": "address",
          "name": "provider",
          "type": "address"
        }
      ],
      "name": "setDefaultEthDepositProvider",
      "outputs": [],
      "stateMutability": "nonpayable",
      "type": "function"
    },
    {
      "inputs": [
        {
          "internalType": "uint256",
          "name": "_keyId",
          "type": "uint256"
        }
      ],
      "name": "setKeyId",
      "outputs": [],
      "stateMutability": "nonpayable",
      "type": "function"
    },
    {
      "inputs": [
        {
          "internalType": "bytes4",
          "name": "interfaceId",
          "type": "bytes4"
        }
      ],
      "name": "supportsInterface",
      "outputs": [
        {
          "internalType": "bool",
          "name": "",
          "type": "bool"
        }
      ],
      "stateMutability": "view",
      "type": "function"
    },
    {
      "inputs": [],
      "name": "transactionCount",
      "outputs": [
        {
          "internalType": "uint256",
          "name": "",
          "type": "uint256"
        }
      ],
      "stateMutability": "view",
      "type": "function"
    },
    {
      "inputs": [
        {
          "internalType": "uint256",
          "name": "",
          "type": "uint256"
        }
      ],
      "name": "transactions",
      "outputs": [
        {
          "internalType": "enum IVirtualAddress.TxType",
          "name": "transactionType",
          "type": "uint8"
        },
        {
          "internalType": "uint256",
          "name": "blockTime",
          "type": "uint256"
        },
        {
          "internalType": "address",
          "name": "operator",
          "type": "address"
        },
        {
          "internalType": "address",
          "name": "target",
          "type": "address"
        },
        {
          "internalType": "address",
          "name": "provider",
          "type": "address"
        },
        {
          "internalType": "bytes32",
          "name": "arn",
          "type": "bytes32"
        },
        {
          "internalType": "uint256",
          "name": "amount",
          "type": "uint256"
        }
      ],
      "stateMutability": "view",
      "type": "function"
    },
    {
      "inputs": [
        {
          "internalType": "address",
          "name": "newImplementation",
          "type": "address"
        }
      ],
      "name": "upgradeTo",
      "outputs": [],
      "stateMutability": "nonpayable",
      "type": "function"
    },
    {
      "inputs": [
        {
          "internalType": "address",
          "name": "newImplementation",
          "type": "address"
        },
        {
          "internalType": "bytes",
          "name": "data",
          "type": "bytes"
        }
      ],
      "name": "upgradeToAndCall",
      "outputs": [],
      "stateMutability": "payable",
      "type": "function"
    },
    {
      "stateMutability": "payable",
      "type": "receive"
    }
  ],
  "bytecode": "0x60a0604052306080523480156200001557600080fd5b506200002062000026565b620000e8565b600054610100900460ff1615620000935760405162461bcd60e51b815260206004820152602760248201527f496e697469616c697a61626c653a20636f6e747261637420697320696e697469604482015266616c697a696e6760c81b606482015260840160405180910390fd5b60005460ff9081161015620000e6576000805460ff191660ff9081179091556040519081527f7f26b83ff96e1f2b6a682f133852f6798a09c465da95921460cefb38474024989060200160405180910390a15b565b608051612bf4620001206000396000818161077d0152818161080701528181610b9f01528181610c240152610d0e0152612bf46000f3fe6080604052600436106101845760003560e01c80637501c833116100d6578063b77bf6001161007f578063eb990c5911610059578063eb990c591461050c578063f23a6e611461052c578063f691a27c1461057157600080fd5b8063b77bf60014610478578063bc197c811461048e578063d6cb5210146104ec57600080fd5b806383b1d46c116100b057806383b1d46c1461040e5780639ace38c21461042f578063af7c2a361461046257600080fd5b80637501c833146103bb57806379300875146103db578063811a2716146103ee57600080fd5b80634486deaa1161013857806352d1902d1161011257806352d1902d1461036d578063615a4491146103825780636e5c68f11461039857600080fd5b80634486deaa146103165780634f1ef2861461033657806350b562761461034957600080fd5b80632cf2a416116101695780632cf2a416146102b75780633659cfe6146102d1578063429c8b24146102f157600080fd5b806301ffc9a71461024a57806313fb817e1461027f57600080fd5b3661024557606854600160a81b900460ff161561019d57005b6068546067546040517fb6b55f2500000000000000000000000000000000000000000000000000000000815260048101919091526101009091046001600160a01b03169063b6b55f259034906024016000604051808303818588803b15801561020557600080fd5b505af1158015610219573d6000803e3d6000fd5b5050505050610243600230606860019054906101000a90046001600160a01b031660655434610591565b005b600080fd5b34801561025657600080fd5b5061026a61026536600461243b565b61070a565b60405190151581526020015b60405180910390f35b34801561028b57600080fd5b5060695461029f906001600160a01b031681565b6040516001600160a01b039091168152602001610276565b3480156102c357600080fd5b5060685461026a9060ff1681565b3480156102dd57600080fd5b506102436102ec36600461247a565b610773565b3480156102fd57600080fd5b5060685461029f9061010090046001600160a01b031681565b34801561032257600080fd5b50610243610331366004612497565b6108f3565b6102436103443660046125a1565b610b95565b34801561035557600080fd5b5061035f60665481565b604051908152602001610276565b34801561037957600080fd5b5061035f610d01565b34801561038e57600080fd5b5061035f60655481565b3480156103a457600080fd5b5060685461010090046001600160a01b031661029f565b3480156103c757600080fd5b506102436103d63660046125f1565b610dc6565b6102436103e9366004612633565b61100a565b3480156103fa57600080fd5b5061035f6104093660046126fb565b6114c4565b34801561041a57600080fd5b5060685461026a90600160a81b900460ff1681565b34801561043b57600080fd5b5061044f61044a366004612734565b6118a7565b6040516102769796959493929190612785565b34801561046e57600080fd5b5061035f60675481565b34801561048457600080fd5b5061035f606b5481565b34801561049a57600080fd5b506104d36104a936600461284d565b7fbc197c810000000000000000000000000000000000000000000000000000000095945050505050565b6040516001600160e01b03199091168152602001610276565b3480156104f857600080fd5b50610243610507366004612734565b606755565b34801561051857600080fd5b506102436105273660046128fb565b611909565b34801561053857600080fd5b506104d3610547366004612941565b7ff23a6e610000000000000000000000000000000000000000000000000000000095945050505050565b34801561057d57600080fd5b5061024361058c36600461247a565b611add565b606a6040518060e001604052808760038111156105b0576105b061274d565b8152426020808301919091523360408301526001600160a01b0388811660608401528716608083015260a0820186905260c090910184905282546001818101855560009485529190932082516007909402018054929390929091839160ff1916908360038111156106235761062361274d565b0217905550602082015160018083019190915560408301516002830180546001600160a01b0392831673ffffffffffffffffffffffffffffffffffffffff19918216179091556060850151600385018054918416918316919091179055608085015160048501805491909316911617905560a0830151600583015560c090920151600690910155606b80546000906106bc9084906129c0565b90915550506040517f899741d8f90185decb7c287e2b8c8a079abff26b4c406d4476172d2fa7f7795a906106fb908790339088908890889088906129d3565b60405180910390a15050505050565b60006001600160e01b031982167f4e2312e000000000000000000000000000000000000000000000000000000000148061076d57507f01ffc9a7000000000000000000000000000000000000000000000000000000006001600160e01b03198316145b92915050565b6001600160a01b037f00000000000000000000000000000000000000000000000000000000000000001630036108055760405162461bcd60e51b815260206004820152602c60248201527f46756e6374696f6e206d7573742062652063616c6c6564207468726f7567682060448201526b19195b1959d85d1958d85b1b60a21b60648201526084015b60405180910390fd5b7f00000000000000000000000000000000000000000000000000000000000000006001600160a01b03166108607f360894a13ba1a3210667c828492db98dca3e2076cc3735a920a3ca505d382bbc546001600160a01b031690565b6001600160a01b0316146108cb5760405162461bcd60e51b815260206004820152602c60248201527f46756e6374696f6e206d7573742062652063616c6c6564207468726f7567682060448201526b6163746976652070726f787960a01b60648201526084016107fc565b6108d481611c4f565b604080516000808252602082019092526108f091839190611d81565b50565b60675460685460ff1661090857610908612a13565b6069546040805163b83ac19f60e01b815290516000926001600160a01b03169163b83ac19f9160048083019260209291908290030181865afa158015610952573d6000803e3d6000fd5b505050506040513d601f19601f820116820180604052508101906109769190612a29565b604051627eeac760e11b8152336004820152602481018490526001600160a01b03919091169062fdd58e90604401602060405180830381865afa1580156109c1573d6000803e3d6000fd5b505050506040513d601f19601f820116820180604052508101906109e59190612a46565b11610a255760405162461bcd60e51b815260206004820152601060248201526f24a72b20a624a22fa7a822a920aa27a960811b60448201526064016107fc565b60408051606080820183526001600160a01b0387168083526014602080850182905260009486018590528551808201939093528286019190915281830193909352835180820390920182526080019092528151910120610a86868286611f26565b606754604051634dc33cd960e01b8152600481019190915260248101829052604481018590526001600160a01b03871690634dc33cd990606401600060405180830381600087803b158015610ada57600080fd5b505af1158015610aee573d6000803e3d6000fd5b50506040517fa9059cbb0000000000000000000000000000000000000000000000000000000081526001600160a01b038681166004830152602482018890528816925063a9059cbb91506044016020604051808303816000875af1158015610b5a573d6000803e3d6000fd5b505050506040513d601f19601f82011682018060405250810190610b7e9190612a5f565b50610b8d600184888488610591565b505050505050565b6001600160a01b037f0000000000000000000000000000000000000000000000000000000000000000163003610c225760405162461bcd60e51b815260206004820152602c60248201527f46756e6374696f6e206d7573742062652063616c6c6564207468726f7567682060448201526b19195b1959d85d1958d85b1b60a21b60648201526084016107fc565b7f00000000000000000000000000000000000000000000000000000000000000006001600160a01b0316610c7d7f360894a13ba1a3210667c828492db98dca3e2076cc3735a920a3ca505d382bbc546001600160a01b031690565b6001600160a01b031614610ce85760405162461bcd60e51b815260206004820152602c60248201527f46756e6374696f6e206d7573742062652063616c6c6564207468726f7567682060448201526b6163746976652070726f787960a01b60648201526084016107fc565b610cf182611c4f565b610cfd82826001611d81565b5050565b6000306001600160a01b037f00000000000000000000000000000000000000000000000000000000000000001614610da15760405162461bcd60e51b815260206004820152603860248201527f555550535570677261646561626c653a206d757374206e6f742062652063616c60448201527f6c6564207468726f7567682064656c656761746563616c6c000000000000000060648201526084016107fc565b507f360894a13ba1a3210667c828492db98dca3e2076cc3735a920a3ca505d382bbc90565b60675460685460ff16610ddb57610ddb612a13565b6069546040805163b83ac19f60e01b815290516000926001600160a01b03169163b83ac19f9160048083019260209291908290030181865afa158015610e25573d6000803e3d6000fd5b505050506040513d601f19601f82011682018060405250810190610e499190612a29565b604051627eeac760e11b8152336004820152602481018490526001600160a01b03919091169062fdd58e90604401602060405180830381865afa158015610e94573d6000803e3d6000fd5b505050506040513d601f19601f82011682018060405250810190610eb89190612a46565b11610ef85760405162461bcd60e51b815260206004820152601060248201526f24a72b20a624a22fa7a822a920aa27a960811b60448201526064016107fc565b610f058460655485611f26565b6068805460ff60a81b1916600160a81b179055606754606554604051634dc33cd960e01b815260048101929092526024820152604481018490526001600160a01b03851690634dc33cd990606401600060405180830381600087803b158015610f6d57600080fd5b505af1158015610f81573d6000803e3d6000fd5b50506068805460ff60a81b1916905550506040516000906001600160a01b0384169085908381818185875af1925050503d8060008114610fdd576040519150601f19603f3d011682016040523d82523d6000602084013e610fe2565b606091505b5050905080610ff357610ff3612a13565b6110036001848760655488610591565b5050505050565b60675460685460ff1661101f5761101f612a13565b6069546040805163b83ac19f60e01b815290516000926001600160a01b03169163b83ac19f9160048083019260209291908290030181865afa158015611069573d6000803e3d6000fd5b505050506040513d601f19601f8201168201806040525081019061108d9190612a29565b604051627eeac760e11b8152336004820152602481018490526001600160a01b03919091169062fdd58e90604401602060405180830381865afa1580156110d8573d6000803e3d6000fd5b505050506040513d601f19601f820116820180604052508101906110fc9190612a46565b1161113c5760405162461bcd60e51b815260206004820152601060248201526f24a72b20a624a22fa7a822a920aa27a960811b60448201526064016107fc565b6068805460ff60a81b1916600160a81b17905560005b84811015611311576111c286868381811061116f5761116f612a81565b611185926020606090920201908101915061247a565b87878481811061119757611197612a81565b905060600201602001358888858181106111b3576111b3612a81565b90506060020160400135611f26565b8585828181106111d4576111d4612a81565b6111ea926020606090920201908101915061247a565b6001600160a01b0316634dc33cd960675488888581811061120d5761120d612a81565b9050606002016020013589898681811061122957611229612a81565b905060600201604001356040518463ffffffff1660e01b8152600401611262939291909283526020830191909152604082015260600190565b600060405180830381600087803b15801561127c57600080fd5b505af1158015611290573d6000803e3d6000fd5b505050506112ff6003308888858181106112ac576112ac612a81565b6112c2926020606090920201908101915061247a565b8989868181106112d4576112d4612a81565b905060600201602001358a8a878181106112f0576112f0612a81565b90506060020160400135610591565b8061130981612a97565b915050611152565b506068805460ff60a81b1916905560005b82811015610b8d5783838281811061133c5761133c612a81565b905060200281019061134e9190612ab0565b61135c90602081019061247a565b6069546001600160a01b039182169116036113b95760405162461bcd60e51b815260206004820152601160248201527f494e56415249414e545f434f4e54524f4c00000000000000000000000000000060448201526064016107fc565b60008484838181106113cd576113cd612a81565b90506020028101906113df9190612ab0565b6113ed90602081019061247a565b6001600160a01b031685858481811061140857611408612a81565b905060200281019061141a9190612ab0565b6040013586868581811061143057611430612a81565b90506020028101906114429190612ab0565b611450906020810190612ad0565b60405161145e929190612b1e565b60006040518083038185875af1925050503d806000811461149b576040519150601f19603f3d011682016040523d82523d6000602084013e6114a0565b606091505b50509050806114b1576114b1612a13565b50806114bc81612a97565b915050611322565b6067546068546000919060ff166114dd576114dd612a13565b6069546040805163b83ac19f60e01b815290516000926001600160a01b03169163b83ac19f9160048083019260209291908290030181865afa158015611527573d6000803e3d6000fd5b505050506040513d601f19601f8201168201806040525081019061154b9190612a29565b604051627eeac760e11b8152336004820152602481018490526001600160a01b03919091169062fdd58e90604401602060405180830381865afa158015611596573d6000803e3d6000fd5b505050506040513d601f19601f820116820180604052508101906115ba9190612a46565b116115fa5760405162461bcd60e51b815260206004820152601060248201526f24a72b20a624a22fa7a822a920aa27a960811b60448201526064016107fc565b60408051606080820183526001600160a01b03871680835260146020808501829052600094860185905285518082018490528087019290925281840185905285518083039094018452608082018087528451948201949094206370a0823160e01b909452306084830152945188959394936370a082319260a480820193918290030181865afa158015611691573d6000803e3d6000fd5b505050506040513d601f19601f820116820180604052508101906116b59190612a46565b9050600081116117075760405162461bcd60e51b815260206004820152600960248201527f4e4f5f544f4b454e53000000000000000000000000000000000000000000000060448201526064016107fc565b6040517f095ea7b30000000000000000000000000000000000000000000000000000000081526001600160a01b0387811660048301526024820183905288169063095ea7b3906044016020604051808303816000875af115801561176f573d6000803e3d6000fd5b505050506040513d601f19601f820116820180604052508101906117939190612a5f565b506067546040517fbc157ac100000000000000000000000000000000000000000000000000000000815260048101919091526001600160a01b0388811660248301526044820183905284169063bc157ac190606401600060405180830381600087803b15801561180257600080fd5b505af1158015611816573d6000803e3d6000fd5b50506040516370a0823160e01b81523060048201526001600160a01b038a1692506370a082319150602401602060405180830381865afa15801561185e573d6000803e3d6000fd5b505050506040513d601f19601f820116820180604052508101906118829190612a46565b1561188f5761188f612a13565b61189d600230888585610591565b9695505050505050565b606a81815481106118b757600080fd5b6000918252602090912060079091020180546001820154600283015460038401546004850154600586015460069096015460ff909516965092946001600160a01b039283169491831693909216919087565b600054610100900460ff16158080156119295750600054600160ff909116105b806119435750303b158015611943575060005460ff166001145b6119b55760405162461bcd60e51b815260206004820152602e60248201527f496e697469616c697a61626c653a20636f6e747261637420697320616c72656160448201527f647920696e697469616c697a656400000000000000000000000000000000000060648201526084016107fc565b6000805460ff1916600117905580156119d8576000805461ff0019166101001790555b6119e061213b565b6069805473ffffffffffffffffffffffffffffffffffffffff19166001600160a01b038781169190911790915560668490556067839055606880547fffffffffffffffffffffff00000000000000000000000000000000000000000016610100928716929092029190911760011790556040805160608082018352600080835260208084018290529284018190528351808401829052808501829052808301919091528351808203909201825260800190925281519101206065558015611003576000805461ff0019169055604051600181527f7f26b83ff96e1f2b6a682f133852f6798a09c465da95921460cefb3847402498906020016106fb565b60665460685460ff16611af257611af2612a13565b6069546040805163b83ac19f60e01b815290516000926001600160a01b03169163b83ac19f9160048083019260209291908290030181865afa158015611b3c573d6000803e3d6000fd5b505050506040513d601f19601f82011682018060405250810190611b609190612a29565b604051627eeac760e11b8152336004820152602481018490526001600160a01b03919091169062fdd58e90604401602060405180830381865afa158015611bab573d6000803e3d6000fd5b505050506040513d601f19601f82011682018060405250810190611bcf9190612a46565b11611c0f5760405162461bcd60e51b815260206004820152601060248201526f24a72b20a624a22fa7a822a920aa27a960811b60448201526064016107fc565b50606880546001600160a01b03909216610100027fffffffffffffffffffffff0000000000000000000000000000000000000000ff909216919091179055565b60665460685460ff16611c6457611c64612a13565b6069546040805163b83ac19f60e01b815290516000926001600160a01b03169163b83ac19f9160048083019260209291908290030181865afa158015611cae573d6000803e3d6000fd5b505050506040513d601f19601f82011682018060405250810190611cd29190612a29565b604051627eeac760e11b8152336004820152602481018490526001600160a01b03919091169062fdd58e90604401602060405180830381865afa158015611d1d573d6000803e3d6000fd5b505050506040513d601f19601f82011682018060405250810190611d419190612a46565b11610cfd5760405162461bcd60e51b815260206004820152601060248201526f24a72b20a624a22fa7a822a920aa27a960811b60448201526064016107fc565b7f4910fdfa16fed3260ed0e7147f7cc6da11a60208b5b9406d12a635614ffd91435460ff1615611db957611db4836121ba565b505050565b826001600160a01b03166352d1902d6040518163ffffffff1660e01b8152600401602060405180830381865afa925050508015611e13575060408051601f3d908101601f19168201909252611e1091810190612a46565b60015b611e855760405162461bcd60e51b815260206004820152602e60248201527f45524331393637557067726164653a206e657720696d706c656d656e7461746960448201527f6f6e206973206e6f74205555505300000000000000000000000000000000000060648201526084016107fc565b7f360894a13ba1a3210667c828492db98dca3e2076cc3735a920a3ca505d382bbc8114611f1a5760405162461bcd60e51b815260206004820152602960248201527f45524331393637557067726164653a20756e737570706f727465642070726f7860448201527f6961626c6555554944000000000000000000000000000000000000000000000060648201526084016107fc565b50611db4838383612285565b60008390506000816001600160a01b031663962047986040518163ffffffff1660e01b8152600401602060405180830381865afa158015611f6b573d6000803e3d6000fd5b505050506040513d601f19601f82011682018060405250810190611f8f9190612a29565b90506000816001600160a01b0316639d54c79d6040518163ffffffff1660e01b8152600401602060405180830381865afa158015611fd1573d6000803e3d6000fd5b505050506040513d601f19601f82011682018060405250810190611ff59190612a29565b6067546040517f625439fd0000000000000000000000000000000000000000000000000000000081526001600160a01b03858116600483015260248201929092528882166044820152606481018890529192506000919083169063625439fd906084016020604051808303816000875af1158015612077573d6000803e3d6000fd5b505050506040513d601f19601f8201168201806040525081019061209b9190612a46565b9050816001600160a01b03166388dfcc5284896067548a8a876120be91906129c0565b6040516001600160e01b031960e088901b1681526001600160a01b03958616600482015294909316602485015260448401919091526064830152608482015260a401600060405180830381600087803b15801561211a57600080fd5b505af115801561212e573d6000803e3d6000fd5b5050505050505050505050565b600054610100900460ff166121b85760405162461bcd60e51b815260206004820152602b60248201527f496e697469616c697a61626c653a20636f6e7472616374206973206e6f74206960448201527f6e697469616c697a696e6700000000000000000000000000000000000000000060648201526084016107fc565b565b6001600160a01b0381163b6122375760405162461bcd60e51b815260206004820152602d60248201527f455243313936373a206e657720696d706c656d656e746174696f6e206973206e60448201527f6f74206120636f6e74726163740000000000000000000000000000000000000060648201526084016107fc565b7f360894a13ba1a3210667c828492db98dca3e2076cc3735a920a3ca505d382bbc805473ffffffffffffffffffffffffffffffffffffffff19166001600160a01b0392909216919091179055565b61228e836122b0565b60008251118061229b5750805b15611db4576122aa83836122f0565b50505050565b6122b9816121ba565b6040516001600160a01b038216907fbc7cd75a20ee27fd9adebab32041f755214dbc6bffa90cc0225b39da2e5c2d3b90600090a250565b60606001600160a01b0383163b61236f5760405162461bcd60e51b815260206004820152602660248201527f416464726573733a2064656c65676174652063616c6c20746f206e6f6e2d636f60448201527f6e7472616374000000000000000000000000000000000000000000000000000060648201526084016107fc565b600080846001600160a01b03168460405161238a9190612b52565b600060405180830381855af49150503d80600081146123c5576040519150601f19603f3d011682016040523d82523d6000602084013e6123ca565b606091505b50915091506123f28282604051806060016040528060278152602001612b98602791396123fb565b95945050505050565b6060831561240a575081612434565b82511561241a5782518084602001fd5b8160405162461bcd60e51b81526004016107fc9190612b64565b9392505050565b60006020828403121561244d57600080fd5b81356001600160e01b03198116811461243457600080fd5b6001600160a01b03811681146108f057600080fd5b60006020828403121561248c57600080fd5b813561243481612465565b600080600080608085870312156124ad57600080fd5b84356124b881612465565b935060208501356124c881612465565b92506040850135915060608501356124df81612465565b939692955090935050565b634e487b7160e01b600052604160045260246000fd5b604051601f8201601f1916810167ffffffffffffffff81118282101715612529576125296124ea565b604052919050565b600082601f83011261254257600080fd5b813567ffffffffffffffff81111561255c5761255c6124ea565b61256f601f8201601f1916602001612500565b81815284602083860101111561258457600080fd5b816020850160208301376000918101602001919091529392505050565b600080604083850312156125b457600080fd5b82356125bf81612465565b9150602083013567ffffffffffffffff8111156125db57600080fd5b6125e785828601612531565b9150509250929050565b60008060006060848603121561260657600080fd5b833561261181612465565b925060208401359150604084013561262881612465565b809150509250925092565b6000806000806040858703121561264957600080fd5b843567ffffffffffffffff8082111561266157600080fd5b818701915087601f83011261267557600080fd5b81358181111561268457600080fd5b88602060608302850101111561269957600080fd5b6020928301965094509086013590808211156126b457600080fd5b818701915087601f8301126126c857600080fd5b8135818111156126d757600080fd5b8860208260051b85010111156126ec57600080fd5b95989497505060200194505050565b6000806040838503121561270e57600080fd5b823561271981612465565b9150602083013561272981612465565b809150509250929050565b60006020828403121561274657600080fd5b5035919050565b634e487b7160e01b600052602160045260246000fd5b6004811061278157634e487b7160e01b600052602160045260246000fd5b9052565b60e08101612793828a612763565b60208201979097526001600160a01b039586166040820152938516606085015291909316608083015260a082019290925260c00152919050565b600082601f8301126127de57600080fd5b8135602067ffffffffffffffff8211156127fa576127fa6124ea565b8160051b612809828201612500565b928352848101820192828101908785111561282357600080fd5b83870192505b8483101561284257823582529183019190830190612829565b979650505050505050565b600080600080600060a0868803121561286557600080fd5b853561287081612465565b9450602086013561288081612465565b9350604086013567ffffffffffffffff8082111561289d57600080fd5b6128a989838a016127cd565b945060608801359150808211156128bf57600080fd5b6128cb89838a016127cd565b935060808801359150808211156128e157600080fd5b506128ee88828901612531565b9150509295509295909350565b6000806000806080858703121561291157600080fd5b843561291c81612465565b9350602085013561292c81612465565b93969395505050506040820135916060013590565b600080600080600060a0868803121561295957600080fd5b853561296481612465565b9450602086013561297481612465565b93506040860135925060608601359150608086013567ffffffffffffffff81111561299e57600080fd5b6128ee88828901612531565b634e487b7160e01b600052601160045260246000fd5b8082018082111561076d5761076d6129aa565b60c081016129e18289612763565b6001600160a01b0396871660208301529486166040820152929094166060830152608082015260a00191909152919050565b634e487b7160e01b600052600160045260246000fd5b600060208284031215612a3b57600080fd5b815161243481612465565b600060208284031215612a5857600080fd5b5051919050565b600060208284031215612a7157600080fd5b8151801515811461243457600080fd5b634e487b7160e01b600052603260045260246000fd5b600060018201612aa957612aa96129aa565b5060010190565b60008235605e19833603018112612ac657600080fd5b9190910192915050565b6000808335601e19843603018112612ae757600080fd5b83018035915067ffffffffffffffff821115612b0257600080fd5b602001915036819003821315612b1757600080fd5b9250929050565b8183823760009101908152919050565b60005b83811015612b49578181015183820152602001612b31565b50506000910152565b60008251612ac6818460208701612b2e565b6020815260008251806020840152612b83816040850160208701612b2e565b601f01601f1916919091016040019291505056fe416464726573733a206c6f772d6c6576656c2064656c65676174652063616c6c206661696c6564a2646970667358221220435a7ad2bf58319226697b347b13c0e07adcdc7f608800ba448a9f7a700b0ecf64736f6c63430008100033",
  "linkReferences": {},
  "deployedLinkReferences": {}
}