{
  "_format": "hh-sol-artifact-1",
  "contractName": "Peer",
  "sourceName": "contracts/stubs/Peer.sol",
  "abi": [
    {
      "inputs": [],
      "stateMutability": "nonpayable",
      "type": "constructor"
    },
    {
      "anonymous": false,
      "inputs": [
        {
          "indexed": false,
          "internalType": "address",
          "name": "previousAdmin",
          "type": "address"
        },
        {
          "indexed": false,
          "internalType": "address",
          "name": "newAdmin",
          "type": "address"
        }
      ],
      "name": "AdminChanged",
      "type": "event"
    },
    {
      "anonymous": false,
      "inputs": [
        {
          "indexed": true,
          "internalType": "address",
          "name": "beacon",
          "type": "address"
        }
      ],
      "name": "BeaconUpgraded",
      "type": "event"
    },
    {
      "anonymous": false,
      "inputs": [
        {
          "indexed": false,
          "internalType": "uint8",
          "name": "version",
          "type": "uint8"
        }
      ],
      "name": "Initialized",
      "type": "event"
    },
    {
      "anonymous": false,
      "inputs": [
        {
          "indexed": true,
          "internalType": "address",
          "name": "previousOwner",
          "type": "address"
        },
        {
          "indexed": true,
          "internalType": "address",
          "name": "newOwner",
          "type": "address"
        }
      ],
      "name": "OwnershipTransferred",
      "type": "event"
    },
    {
      "anonymous": false,
      "inputs": [
        {
          "indexed": true,
          "internalType": "address",
          "name": "implementation",
          "type": "address"
        }
      ],
      "name": "Upgraded",
      "type": "event"
    },
    {
      "inputs": [],
      "name": "deposit",
      "outputs": [],
      "stateMutability": "nonpayable",
      "type": "function"
    },
    {
      "inputs": [
        {
          "internalType": "address",
          "name": "_Ledger",
          "type": "address"
        }
      ],
      "name": "initialize",
      "outputs": [],
      "stateMutability": "nonpayable",
      "type": "function"
    },
    {
      "inputs": [],
      "name": "ledger",
      "outputs": [
        {
          "internalType": "contract Ledger",
          "name": "",
          "type": "address"
        }
      ],
      "stateMutability": "view",
      "type": "function"
    },
    {
      "inputs": [],
      "name": "owner",
      "outputs": [
        {
          "internalType": "address",
          "name": "",
          "type": "address"
        }
      ],
      "stateMutability": "view",
      "type": "function"
    },
    {
      "inputs": [],
      "name": "proxiableUUID",
      "outputs": [
        {
          "internalType": "bytes32",
          "name": "",
          "type": "bytes32"
        }
      ],
      "stateMutability": "view",
      "type": "function"
    },
    {
      "inputs": [],
      "name": "renounceOwnership",
      "outputs": [],
      "stateMutability": "nonpayable",
      "type": "function"
    },
    {
      "inputs": [
        {
          "internalType": "address",
          "name": "newOwner",
          "type": "address"
        }
      ],
      "name": "transferOwnership",
      "outputs": [],
      "stateMutability": "nonpayable",
      "type": "function"
    },
    {
      "inputs": [
        {
          "internalType": "address",
          "name": "newImplementation",
          "type": "address"
        }
      ],
      "name": "upgradeTo",
      "outputs": [],
      "stateMutability": "nonpayable",
      "type": "function"
    },
    {
      "inputs": [
        {
          "internalType": "address",
          "name": "newImplementation",
          "type": "address"
        },
        {
          "internalType": "bytes",
          "name": "data",
          "type": "bytes"
        }
      ],
      "name": "upgradeToAndCall",
      "outputs": [],
      "stateMutability": "payable",
      "type": "function"
    }
  ],
  "bytecode": "0x60a06040523073ffffffffffffffffffffffffffffffffffffffff1660809073ffffffffffffffffffffffffffffffffffffffff168152503480156200004457600080fd5b50620000556200005b60201b60201c565b62000206565b600060019054906101000a900460ff1615620000ae576040517f08c379a0000000000000000000000000000000000000000000000000000000008152600401620000a590620001a9565b60405180910390fd5b60ff801660008054906101000a900460ff1660ff161015620001205760ff6000806101000a81548160ff021916908360ff1602179055507f7f26b83ff96e1f2b6a682f133852f6798a09c465da95921460cefb384740249860ff604051620001179190620001e9565b60405180910390a15b565b600082825260208201905092915050565b7f496e697469616c697a61626c653a20636f6e747261637420697320696e69746960008201527f616c697a696e6700000000000000000000000000000000000000000000000000602082015250565b60006200019160278362000122565b91506200019e8262000133565b604082019050919050565b60006020820190508181036000830152620001c48162000182565b9050919050565b600060ff82169050919050565b620001e381620001cb565b82525050565b6000602082019050620002006000830184620001d8565b92915050565b608051611bf16200023e600039600081816101d3015281816102610152818161035b015281816103e901526104990152611bf16000f3fe6080604052600436106100865760003560e01c8063715018a611610059578063715018a6146101265780638da5cb5b1461013d578063c4d66de814610168578063d0e30db014610191578063f2fde38b146101a857610086565b80633659cfe61461008b5780634f1ef286146100b457806352d1902d146100d057806356397c35146100fb575b600080fd5b34801561009757600080fd5b506100b260048036038101906100ad9190610fdc565b6101d1565b005b6100ce60048036038101906100c9919061114f565b610359565b005b3480156100dc57600080fd5b506100e5610495565b6040516100f291906111c4565b60405180910390f35b34801561010757600080fd5b5061011061054e565b60405161011d919061123e565b60405180910390f35b34801561013257600080fd5b5061013b610574565b005b34801561014957600080fd5b50610152610588565b60405161015f9190611268565b60405180910390f35b34801561017457600080fd5b5061018f600480360381019061018a9190610fdc565b6105b2565b005b34801561019d57600080fd5b506101a661073a565b005b3480156101b457600080fd5b506101cf60048036038101906101ca9190610fdc565b61080a565b005b7f000000000000000000000000000000000000000000000000000000000000000073ffffffffffffffffffffffffffffffffffffffff163073ffffffffffffffffffffffffffffffffffffffff160361025f576040517f08c379a000000000000000000000000000000000000000000000000000000000815260040161025690611306565b60405180910390fd5b7f000000000000000000000000000000000000000000000000000000000000000073ffffffffffffffffffffffffffffffffffffffff1661029e61088d565b73ffffffffffffffffffffffffffffffffffffffff16146102f4576040517f08c379a00000000000000000000000000000000000000000000000000000000081526004016102eb90611398565b60405180910390fd5b6102fd816108e4565b61035681600067ffffffffffffffff81111561031c5761031b611024565b5b6040519080825280601f01601f19166020018201604052801561034e5781602001600182028036833780820191505090505b5060006108ef565b50565b7f000000000000000000000000000000000000000000000000000000000000000073ffffffffffffffffffffffffffffffffffffffff163073ffffffffffffffffffffffffffffffffffffffff16036103e7576040517f08c379a00000000000000000000000000000000000000000000000000000000081526004016103de90611306565b60405180910390fd5b7f000000000000000000000000000000000000000000000000000000000000000073ffffffffffffffffffffffffffffffffffffffff1661042661088d565b73ffffffffffffffffffffffffffffffffffffffff161461047c576040517f08c379a000000000000000000000000000000000000000000000000000000000815260040161047390611398565b60405180910390fd5b610485826108e4565b610491828260016108ef565b5050565b60007f000000000000000000000000000000000000000000000000000000000000000073ffffffffffffffffffffffffffffffffffffffff163073ffffffffffffffffffffffffffffffffffffffff1614610525576040517f08c379a000000000000000000000000000000000000000000000000000000000815260040161051c9061142a565b60405180910390fd5b7f360894a13ba1a3210667c828492db98dca3e2076cc3735a920a3ca505d382bbc60001b905090565b60c960009054906101000a900473ffffffffffffffffffffffffffffffffffffffff1681565b61057c610a5d565b6105866000610adb565b565b6000603360009054906101000a900473ffffffffffffffffffffffffffffffffffffffff16905090565b60008060019054906101000a900460ff161590508080156105e35750600160008054906101000a900460ff1660ff16105b8061061057506105f230610ba1565b15801561060f5750600160008054906101000a900460ff1660ff16145b5b61064f576040517f08c379a0000000000000000000000000000000000000000000000000000000008152600401610646906114bc565b60405180910390fd5b60016000806101000a81548160ff021916908360ff160217905550801561068c576001600060016101000a81548160ff0219169083151502179055505b610694610bc4565b61069c610c1d565b8160c960006101000a81548173ffffffffffffffffffffffffffffffffffffffff021916908373ffffffffffffffffffffffffffffffffffffffff16021790555080156107365760008060016101000a81548160ff0219169083151502179055507f7f26b83ff96e1f2b6a682f133852f6798a09c465da95921460cefb3847402498600160405161072d9190611524565b60405180910390a15b5050565b60c960009054906101000a900473ffffffffffffffffffffffffffffffffffffffff1673ffffffffffffffffffffffffffffffffffffffff16630331d4de60007f6574686572000000000000000000000000000000000000000000000000000000670de0b6b3a76400006040518463ffffffff1660e01b81526004016107c2939291906115bf565b6060604051808303816000875af11580156107e1573d6000803e3d6000fd5b505050506040513d601f19601f820116820180604052508101906108059190611622565b505050565b610812610a5d565b600073ffffffffffffffffffffffffffffffffffffffff168173ffffffffffffffffffffffffffffffffffffffff1603610881576040517f08c379a0000000000000000000000000000000000000000000000000000000008152600401610878906116e7565b60405180910390fd5b61088a81610adb565b50565b60006108bb7f360894a13ba1a3210667c828492db98dca3e2076cc3735a920a3ca505d382bbc60001b610c6e565b60000160009054906101000a900473ffffffffffffffffffffffffffffffffffffffff16905090565b6108ec610a5d565b50565b61091b7f4910fdfa16fed3260ed0e7147f7cc6da11a60208b5b9406d12a635614ffd914360001b610c78565b60000160009054906101000a900460ff161561093f5761093a83610c82565b610a58565b8273ffffffffffffffffffffffffffffffffffffffff166352d1902d6040518163ffffffff1660e01b8152600401602060405180830381865afa9250505080156109a757506040513d601f19601f820116820180604052508101906109a49190611733565b60015b6109e6576040517f08c379a00000000000000000000000000000000000000000000000000000000081526004016109dd906117d2565b60405180910390fd5b7f360894a13ba1a3210667c828492db98dca3e2076cc3735a920a3ca505d382bbc60001b8114610a4b576040517f08c379a0000000000000000000000000000000000000000000000000000000008152600401610a4290611864565b60405180910390fd5b50610a57838383610d3b565b5b505050565b610a65610d67565b73ffffffffffffffffffffffffffffffffffffffff16610a83610588565b73ffffffffffffffffffffffffffffffffffffffff1614610ad9576040517f08c379a0000000000000000000000000000000000000000000000000000000008152600401610ad0906118d0565b60405180910390fd5b565b6000603360009054906101000a900473ffffffffffffffffffffffffffffffffffffffff16905081603360006101000a81548173ffffffffffffffffffffffffffffffffffffffff021916908373ffffffffffffffffffffffffffffffffffffffff1602179055508173ffffffffffffffffffffffffffffffffffffffff168173ffffffffffffffffffffffffffffffffffffffff167f8be0079c531659141344cd1fd0a4f28419497f9722a3daafe3b4186f6b6457e060405160405180910390a35050565b6000808273ffffffffffffffffffffffffffffffffffffffff163b119050919050565b600060019054906101000a900460ff16610c13576040517f08c379a0000000000000000000000000000000000000000000000000000000008152600401610c0a90611962565b60405180910390fd5b610c1b610d6f565b565b600060019054906101000a900460ff16610c6c576040517f08c379a0000000000000000000000000000000000000000000000000000000008152600401610c6390611962565b60405180910390fd5b565b6000819050919050565b6000819050919050565b610c8b81610ba1565b610cca576040517f08c379a0000000000000000000000000000000000000000000000000000000008152600401610cc1906119f4565b60405180910390fd5b80610cf77f360894a13ba1a3210667c828492db98dca3e2076cc3735a920a3ca505d382bbc60001b610c6e565b60000160006101000a81548173ffffffffffffffffffffffffffffffffffffffff021916908373ffffffffffffffffffffffffffffffffffffffff16021790555050565b610d4483610dd0565b600082511180610d515750805b15610d6257610d608383610e1f565b505b505050565b600033905090565b600060019054906101000a900460ff16610dbe576040517f08c379a0000000000000000000000000000000000000000000000000000000008152600401610db590611962565b60405180910390fd5b610dce610dc9610d67565b610adb565b565b610dd981610c82565b8073ffffffffffffffffffffffffffffffffffffffff167fbc7cd75a20ee27fd9adebab32041f755214dbc6bffa90cc0225b39da2e5c2d3b60405160405180910390a250565b6060610e2a83610ba1565b610e69576040517f08c379a0000000000000000000000000000000000000000000000000000000008152600401610e6090611a86565b60405180910390fd5b6000808473ffffffffffffffffffffffffffffffffffffffff1684604051610e919190611b17565b600060405180830381855af49150503d8060008114610ecc576040519150601f19603f3d011682016040523d82523d6000602084013e610ed1565b606091505b5091509150610ef98282604051806060016040528060278152602001611b9560279139610f03565b9250505092915050565b60608315610f1357829050610f63565b600083511115610f265782518084602001fd5b816040517f08c379a0000000000000000000000000000000000000000000000000000000008152600401610f5a9190611b72565b60405180910390fd5b9392505050565b6000604051905090565b600080fd5b600080fd5b600073ffffffffffffffffffffffffffffffffffffffff82169050919050565b6000610fa982610f7e565b9050919050565b610fb981610f9e565b8114610fc457600080fd5b50565b600081359050610fd681610fb0565b92915050565b600060208284031215610ff257610ff1610f74565b5b600061100084828501610fc7565b91505092915050565b600080fd5b600080fd5b6000601f19601f8301169050919050565b7f4e487b7100000000000000000000000000000000000000000000000000000000600052604160045260246000fd5b61105c82611013565b810181811067ffffffffffffffff8211171561107b5761107a611024565b5b80604052505050565b600061108e610f6a565b905061109a8282611053565b919050565b600067ffffffffffffffff8211156110ba576110b9611024565b5b6110c382611013565b9050602081019050919050565b82818337600083830152505050565b60006110f26110ed8461109f565b611084565b90508281526020810184848401111561110e5761110d61100e565b5b6111198482856110d0565b509392505050565b600082601f83011261113657611135611009565b5b81356111468482602086016110df565b91505092915050565b6000806040838503121561116657611165610f74565b5b600061117485828601610fc7565b925050602083013567ffffffffffffffff81111561119557611194610f79565b5b6111a185828601611121565b9150509250929050565b6000819050919050565b6111be816111ab565b82525050565b60006020820190506111d960008301846111b5565b92915050565b6000819050919050565b60006112046111ff6111fa84610f7e565b6111df565b610f7e565b9050919050565b6000611216826111e9565b9050919050565b60006112288261120b565b9050919050565b6112388161121d565b82525050565b6000602082019050611253600083018461122f565b92915050565b61126281610f9e565b82525050565b600060208201905061127d6000830184611259565b92915050565b600082825260208201905092915050565b7f46756e6374696f6e206d7573742062652063616c6c6564207468726f7567682060008201527f64656c656761746563616c6c0000000000000000000000000000000000000000602082015250565b60006112f0602c83611283565b91506112fb82611294565b604082019050919050565b6000602082019050818103600083015261131f816112e3565b9050919050565b7f46756e6374696f6e206d7573742062652063616c6c6564207468726f7567682060008201527f6163746976652070726f78790000000000000000000000000000000000000000602082015250565b6000611382602c83611283565b915061138d82611326565b604082019050919050565b600060208201905081810360008301526113b181611375565b9050919050565b7f555550535570677261646561626c653a206d757374206e6f742062652063616c60008201527f6c6564207468726f7567682064656c656761746563616c6c0000000000000000602082015250565b6000611414603883611283565b915061141f826113b8565b604082019050919050565b6000602082019050818103600083015261144381611407565b9050919050565b7f496e697469616c697a61626c653a20636f6e747261637420697320616c72656160008201527f647920696e697469616c697a6564000000000000000000000000000000000000602082015250565b60006114a6602e83611283565b91506114b18261144a565b604082019050919050565b600060208201905081810360008301526114d581611499565b9050919050565b6000819050919050565b600060ff82169050919050565b600061150e611509611504846114dc565b6111df565b6114e6565b9050919050565b61151e816114f3565b82525050565b60006020820190506115396000830184611515565b92915050565b6000819050919050565b6000819050919050565b600061156e6115696115648461153f565b6111df565b611549565b9050919050565b61157e81611553565b82525050565b6000819050919050565b60006115a96115a461159f84611584565b6111df565b611549565b9050919050565b6115b98161158e565b82525050565b60006060820190506115d46000830186611575565b6115e160208301856111b5565b6115ee60408301846115b0565b949350505050565b6115ff81611549565b811461160a57600080fd5b50565b60008151905061161c816115f6565b92915050565b60008060006060848603121561163b5761163a610f74565b5b60006116498682870161160d565b935050602061165a8682870161160d565b925050604061166b8682870161160d565b9150509250925092565b7f4f776e61626c653a206e6577206f776e657220697320746865207a65726f206160008201527f6464726573730000000000000000000000000000000000000000000000000000602082015250565b60006116d1602683611283565b91506116dc82611675565b604082019050919050565b60006020820190508181036000830152611700816116c4565b9050919050565b611710816111ab565b811461171b57600080fd5b50565b60008151905061172d81611707565b92915050565b60006020828403121561174957611748610f74565b5b60006117578482850161171e565b91505092915050565b7f45524331393637557067726164653a206e657720696d706c656d656e7461746960008201527f6f6e206973206e6f742055555053000000000000000000000000000000000000602082015250565b60006117bc602e83611283565b91506117c782611760565b604082019050919050565b600060208201905081810360008301526117eb816117af565b9050919050565b7f45524331393637557067726164653a20756e737570706f727465642070726f7860008201527f6961626c65555549440000000000000000000000000000000000000000000000602082015250565b600061184e602983611283565b9150611859826117f2565b604082019050919050565b6000602082019050818103600083015261187d81611841565b9050919050565b7f4f776e61626c653a2063616c6c6572206973206e6f7420746865206f776e6572600082015250565b60006118ba602083611283565b91506118c582611884565b602082019050919050565b600060208201905081810360008301526118e9816118ad565b9050919050565b7f496e697469616c697a61626c653a20636f6e7472616374206973206e6f74206960008201527f6e697469616c697a696e67000000000000000000000000000000000000000000602082015250565b600061194c602b83611283565b9150611957826118f0565b604082019050919050565b6000602082019050818103600083015261197b8161193f565b9050919050565b7f455243313936373a206e657720696d706c656d656e746174696f6e206973206e60008201527f6f74206120636f6e747261637400000000000000000000000000000000000000602082015250565b60006119de602d83611283565b91506119e982611982565b604082019050919050565b60006020820190508181036000830152611a0d816119d1565b9050919050565b7f416464726573733a2064656c65676174652063616c6c20746f206e6f6e2d636f60008201527f6e74726163740000000000000000000000000000000000000000000000000000602082015250565b6000611a70602683611283565b9150611a7b82611a14565b604082019050919050565b60006020820190508181036000830152611a9f81611a63565b9050919050565b600081519050919050565b600081905092915050565b60005b83811015611ada578082015181840152602081019050611abf565b60008484015250505050565b6000611af182611aa6565b611afb8185611ab1565b9350611b0b818560208601611abc565b80840191505092915050565b6000611b238284611ae6565b915081905092915050565b600081519050919050565b6000611b4482611b2e565b611b4e8185611283565b9350611b5e818560208601611abc565b611b6781611013565b840191505092915050565b60006020820190508181036000830152611b8c8184611b39565b90509291505056fe416464726573733a206c6f772d6c6576656c2064656c65676174652063616c6c206661696c6564a26469706673582212205c63c97df41c819b9d29382e182eba0446b466358300be4228c9163406df4aa364736f6c63430008100033",
  "linkReferences": {},
  "deployedLinkReferences": {}
}