{
  "_format": "hh-sol-artifact-1",
  "contractName": "Peer",
  "sourceName": "contracts/stubs/Peer.sol",
  "abi": [
    {
      "inputs": [],
      "stateMutability": "nonpayable",
      "type": "constructor"
    },
    {
      "anonymous": false,
      "inputs": [
        {
          "indexed": false,
          "internalType": "address",
          "name": "previousAdmin",
          "type": "address"
        },
        {
          "indexed": false,
          "internalType": "address",
          "name": "newAdmin",
          "type": "address"
        }
      ],
      "name": "AdminChanged",
      "type": "event"
    },
    {
      "anonymous": false,
      "inputs": [
        {
          "indexed": true,
          "internalType": "address",
          "name": "beacon",
          "type": "address"
        }
      ],
      "name": "BeaconUpgraded",
      "type": "event"
    },
    {
      "anonymous": false,
      "inputs": [
        {
          "indexed": false,
          "internalType": "uint8",
          "name": "version",
          "type": "uint8"
        }
      ],
      "name": "Initialized",
      "type": "event"
    },
    {
      "anonymous": false,
      "inputs": [
        {
          "indexed": true,
          "internalType": "address",
          "name": "previousOwner",
          "type": "address"
        },
        {
          "indexed": true,
          "internalType": "address",
          "name": "newOwner",
          "type": "address"
        }
      ],
      "name": "OwnershipTransferred",
      "type": "event"
    },
    {
      "anonymous": false,
      "inputs": [
        {
          "indexed": true,
          "internalType": "address",
          "name": "implementation",
          "type": "address"
        }
      ],
      "name": "Upgraded",
      "type": "event"
    },
    {
      "inputs": [],
      "name": "deposit",
      "outputs": [],
      "stateMutability": "nonpayable",
      "type": "function"
    },
    {
      "inputs": [
        {
          "internalType": "address",
          "name": "_Ledger",
          "type": "address"
        }
      ],
      "name": "initialize",
      "outputs": [],
      "stateMutability": "nonpayable",
      "type": "function"
    },
    {
      "inputs": [],
      "name": "ledger",
      "outputs": [
        {
          "internalType": "contract Ledger",
          "name": "",
          "type": "address"
        }
      ],
      "stateMutability": "view",
      "type": "function"
    },
    {
      "inputs": [],
      "name": "owner",
      "outputs": [
        {
          "internalType": "address",
          "name": "",
          "type": "address"
        }
      ],
      "stateMutability": "view",
      "type": "function"
    },
    {
      "inputs": [],
      "name": "proxiableUUID",
      "outputs": [
        {
          "internalType": "bytes32",
          "name": "",
          "type": "bytes32"
        }
      ],
      "stateMutability": "view",
      "type": "function"
    },
    {
      "inputs": [],
      "name": "renounceOwnership",
      "outputs": [],
      "stateMutability": "nonpayable",
      "type": "function"
    },
    {
      "inputs": [
        {
          "internalType": "address",
          "name": "newOwner",
          "type": "address"
        }
      ],
      "name": "transferOwnership",
      "outputs": [],
      "stateMutability": "nonpayable",
      "type": "function"
    },
    {
      "inputs": [
        {
          "internalType": "address",
          "name": "newImplementation",
          "type": "address"
        }
      ],
      "name": "upgradeTo",
      "outputs": [],
      "stateMutability": "nonpayable",
      "type": "function"
    },
    {
      "inputs": [
        {
          "internalType": "address",
          "name": "newImplementation",
          "type": "address"
        },
        {
          "internalType": "bytes",
          "name": "data",
          "type": "bytes"
        }
      ],
      "name": "upgradeToAndCall",
      "outputs": [],
      "stateMutability": "payable",
      "type": "function"
    }
  ],
  "bytecode": "0x60a06040523073ffffffffffffffffffffffffffffffffffffffff1660809073ffffffffffffffffffffffffffffffffffffffff168152503480156200004457600080fd5b50620000797f8cdc97d558ec4fe5f93a7d89b72a63f340270200d36a483e987ed3546ceb5caa60001b620000f760201b60201c565b620000ad7f97d67953971b7cc4ee287784cf7200a6270ed46ff20ffa4675913ea9df7eed0e60001b620000f760201b60201c565b620000e17f66bcbc2f61721cd7bb73568ef2edc4b2fe2d5ef7eb5919c209903f8d2324f7ed60001b620000f760201b60201c565b620000f1620000fa60201b60201c565b620002a5565b50565b600060019054906101000a900460ff16156200014d576040517f08c379a0000000000000000000000000000000000000000000000000000000008152600401620001449062000248565b60405180910390fd5b60ff801660008054906101000a900460ff1660ff161015620001bf5760ff6000806101000a81548160ff021916908360ff1602179055507f7f26b83ff96e1f2b6a682f133852f6798a09c465da95921460cefb384740249860ff604051620001b6919062000288565b60405180910390a15b565b600082825260208201905092915050565b7f496e697469616c697a61626c653a20636f6e747261637420697320696e69746960008201527f616c697a696e6700000000000000000000000000000000000000000000000000602082015250565b600062000230602783620001c1565b91506200023d82620001d2565b604082019050919050565b60006020820190508181036000830152620002638162000221565b9050919050565b600060ff82169050919050565b62000282816200026a565b82525050565b60006020820190506200029f600083018462000277565b92915050565b608051611e04620002dd600039600081816101d3015281816102610152818161035b015281816103e901526104990152611e046000f3fe6080604052600436106100865760003560e01c8063715018a611610059578063715018a6146101265780638da5cb5b1461013d578063c4d66de814610168578063d0e30db014610191578063f2fde38b146101a857610086565b80633659cfe61461008b5780634f1ef286146100b457806352d1902d146100d057806356397c35146100fb575b600080fd5b34801561009757600080fd5b506100b260048036038101906100ad91906111ef565b6101d1565b005b6100ce60048036038101906100c99190611362565b610359565b005b3480156100dc57600080fd5b506100e5610495565b6040516100f291906113d7565b60405180910390f35b34801561010757600080fd5b5061011061054e565b60405161011d9190611451565b60405180910390f35b34801561013257600080fd5b5061013b610574565b005b34801561014957600080fd5b50610152610588565b60405161015f919061147b565b60405180910390f35b34801561017457600080fd5b5061018f600480360381019061018a91906111ef565b6105b2565b005b34801561019d57600080fd5b506101a661086e565b005b3480156101b457600080fd5b506101cf60048036038101906101ca91906111ef565b6109c2565b005b7f000000000000000000000000000000000000000000000000000000000000000073ffffffffffffffffffffffffffffffffffffffff163073ffffffffffffffffffffffffffffffffffffffff160361025f576040517f08c379a000000000000000000000000000000000000000000000000000000000815260040161025690611519565b60405180910390fd5b7f000000000000000000000000000000000000000000000000000000000000000073ffffffffffffffffffffffffffffffffffffffff1661029e610a45565b73ffffffffffffffffffffffffffffffffffffffff16146102f4576040517f08c379a00000000000000000000000000000000000000000000000000000000081526004016102eb906115ab565b60405180910390fd5b6102fd81610a9c565b61035681600067ffffffffffffffff81111561031c5761031b611237565b5b6040519080825280601f01601f19166020018201604052801561034e5781602001600182028036833780820191505090505b506000610aff565b50565b7f000000000000000000000000000000000000000000000000000000000000000073ffffffffffffffffffffffffffffffffffffffff163073ffffffffffffffffffffffffffffffffffffffff16036103e7576040517f08c379a00000000000000000000000000000000000000000000000000000000081526004016103de90611519565b60405180910390fd5b7f000000000000000000000000000000000000000000000000000000000000000073ffffffffffffffffffffffffffffffffffffffff16610426610a45565b73ffffffffffffffffffffffffffffffffffffffff161461047c576040517f08c379a0000000000000000000000000000000000000000000000000000000008152600401610473906115ab565b60405180910390fd5b61048582610a9c565b61049182826001610aff565b5050565b60007f000000000000000000000000000000000000000000000000000000000000000073ffffffffffffffffffffffffffffffffffffffff163073ffffffffffffffffffffffffffffffffffffffff1614610525576040517f08c379a000000000000000000000000000000000000000000000000000000000815260040161051c9061163d565b60405180910390fd5b7f360894a13ba1a3210667c828492db98dca3e2076cc3735a920a3ca505d382bbc60001b905090565b60c960009054906101000a900473ffffffffffffffffffffffffffffffffffffffff1681565b61057c610c6d565b6105866000610ceb565b565b6000603360009054906101000a900473ffffffffffffffffffffffffffffffffffffffff16905090565b60008060019054906101000a900460ff161590508080156105e35750600160008054906101000a900460ff1660ff16105b8061061057506105f230610db1565b15801561060f5750600160008054906101000a900460ff1660ff16145b5b61064f576040517f08c379a0000000000000000000000000000000000000000000000000000000008152600401610646906116cf565b60405180910390fd5b60016000806101000a81548160ff021916908360ff160217905550801561068c576001600060016101000a81548160ff0219169083151502179055505b6106b87f342330e2bca9978282c2a745ab93847f9ad95528c3995b01fc5705ecaaf5ce0e60001b610dd4565b6106e47f6e1f3e6978f53627e588d85b975a0f903e546baa604909c3f4c5a85671279b0d60001b610dd4565b6107107f8af52bf5c51776e2cdc8be8ba852f9d43c5817667cea172ac71c67aafddc731c60001b610dd4565b610718610dd7565b6107447f1228e3ee59c1eba4f69f8c1c92d4b760e7a9fde3af4c007aa6fcd9bc1976272c60001b610dd4565b6107707f4a827f435dedbbc68c8c63249471749f93c23bd9d64527de2131d9985d2a319e60001b610dd4565b610778610e30565b6107a47f9cd42f20e38cd39422aa5a1b7e2f879fcc19a3f6b5413f723e1d305400ef755660001b610dd4565b6107d07f79dc6c631b918289c41caeacad96775a8637d75901fc93a1c452c093bdc9327b60001b610dd4565b8160c960006101000a81548173ffffffffffffffffffffffffffffffffffffffff021916908373ffffffffffffffffffffffffffffffffffffffff160217905550801561086a5760008060016101000a81548160ff0219169083151502179055507f7f26b83ff96e1f2b6a682f133852f6798a09c465da95921460cefb384740249860016040516108619190611737565b60405180910390a15b5050565b61089a7f73acaa45b9df24664f7314812b3f70c1bd94850530a915c12c3008eb53189b8960001b610dd4565b6108c67f9f15a249dc60e2462c56090947f0f889b1acac85f161045fbdff16068a94bb7b60001b610dd4565b6108f27fdde50db28e22ddb01159eea4f2c98fe69e5cd4239f4e20e00a554ab4b656dff660001b610dd4565b60c960009054906101000a900473ffffffffffffffffffffffffffffffffffffffff1673ffffffffffffffffffffffffffffffffffffffff16630331d4de60007f6574686572000000000000000000000000000000000000000000000000000000670de0b6b3a76400006040518463ffffffff1660e01b815260040161097a939291906117d2565b6060604051808303816000875af1158015610999573d6000803e3d6000fd5b505050506040513d601f19601f820116820180604052508101906109bd9190611835565b505050565b6109ca610c6d565b600073ffffffffffffffffffffffffffffffffffffffff168173ffffffffffffffffffffffffffffffffffffffff1603610a39576040517f08c379a0000000000000000000000000000000000000000000000000000000008152600401610a30906118fa565b60405180910390fd5b610a4281610ceb565b50565b6000610a737f360894a13ba1a3210667c828492db98dca3e2076cc3735a920a3ca505d382bbc60001b610e81565b60000160009054906101000a900473ffffffffffffffffffffffffffffffffffffffff16905090565b610aa4610c6d565b610ad07f9badcc2b08f47de24e963e4b2f49063ad604bdcbeeb6ca5e167f02311b3b790b60001b610dd4565b610afc7fd335cd09fb9c53eb3267b4fe3be4c25d41853a34fe5a631ed07291aa5fd32c6960001b610dd4565b50565b610b2b7f4910fdfa16fed3260ed0e7147f7cc6da11a60208b5b9406d12a635614ffd914360001b610e8b565b60000160009054906101000a900460ff1615610b4f57610b4a83610e95565b610c68565b8273ffffffffffffffffffffffffffffffffffffffff166352d1902d6040518163ffffffff1660e01b8152600401602060405180830381865afa925050508015610bb757506040513d601f19601f82011682018060405250810190610bb49190611946565b60015b610bf6576040517f08c379a0000000000000000000000000000000000000000000000000000000008152600401610bed906119e5565b60405180910390fd5b7f360894a13ba1a3210667c828492db98dca3e2076cc3735a920a3ca505d382bbc60001b8114610c5b576040517f08c379a0000000000000000000000000000000000000000000000000000000008152600401610c5290611a77565b60405180910390fd5b50610c67838383610f4e565b5b505050565b610c75610f7a565b73ffffffffffffffffffffffffffffffffffffffff16610c93610588565b73ffffffffffffffffffffffffffffffffffffffff1614610ce9576040517f08c379a0000000000000000000000000000000000000000000000000000000008152600401610ce090611ae3565b60405180910390fd5b565b6000603360009054906101000a900473ffffffffffffffffffffffffffffffffffffffff16905081603360006101000a81548173ffffffffffffffffffffffffffffffffffffffff021916908373ffffffffffffffffffffffffffffffffffffffff1602179055508173ffffffffffffffffffffffffffffffffffffffff168173ffffffffffffffffffffffffffffffffffffffff167f8be0079c531659141344cd1fd0a4f28419497f9722a3daafe3b4186f6b6457e060405160405180910390a35050565b6000808273ffffffffffffffffffffffffffffffffffffffff163b119050919050565b50565b600060019054906101000a900460ff16610e26576040517f08c379a0000000000000000000000000000000000000000000000000000000008152600401610e1d90611b75565b60405180910390fd5b610e2e610f82565b565b600060019054906101000a900460ff16610e7f576040517f08c379a0000000000000000000000000000000000000000000000000000000008152600401610e7690611b75565b60405180910390fd5b565b6000819050919050565b6000819050919050565b610e9e81610db1565b610edd576040517f08c379a0000000000000000000000000000000000000000000000000000000008152600401610ed490611c07565b60405180910390fd5b80610f0a7f360894a13ba1a3210667c828492db98dca3e2076cc3735a920a3ca505d382bbc60001b610e81565b60000160006101000a81548173ffffffffffffffffffffffffffffffffffffffff021916908373ffffffffffffffffffffffffffffffffffffffff16021790555050565b610f5783610fe3565b600082511180610f645750805b15610f7557610f738383611032565b505b505050565b600033905090565b600060019054906101000a900460ff16610fd1576040517f08c379a0000000000000000000000000000000000000000000000000000000008152600401610fc890611b75565b60405180910390fd5b610fe1610fdc610f7a565b610ceb565b565b610fec81610e95565b8073ffffffffffffffffffffffffffffffffffffffff167fbc7cd75a20ee27fd9adebab32041f755214dbc6bffa90cc0225b39da2e5c2d3b60405160405180910390a250565b606061103d83610db1565b61107c576040517f08c379a000000000000000000000000000000000000000000000000000000000815260040161107390611c99565b60405180910390fd5b6000808473ffffffffffffffffffffffffffffffffffffffff16846040516110a49190611d2a565b600060405180830381855af49150503d80600081146110df576040519150601f19603f3d011682016040523d82523d6000602084013e6110e4565b606091505b509150915061110c8282604051806060016040528060278152602001611da860279139611116565b9250505092915050565b6060831561112657829050611176565b6000835111156111395782518084602001fd5b816040517f08c379a000000000000000000000000000000000000000000000000000000000815260040161116d9190611d85565b60405180910390fd5b9392505050565b6000604051905090565b600080fd5b600080fd5b600073ffffffffffffffffffffffffffffffffffffffff82169050919050565b60006111bc82611191565b9050919050565b6111cc816111b1565b81146111d757600080fd5b50565b6000813590506111e9816111c3565b92915050565b60006020828403121561120557611204611187565b5b6000611213848285016111da565b91505092915050565b600080fd5b600080fd5b6000601f19601f8301169050919050565b7f4e487b7100000000000000000000000000000000000000000000000000000000600052604160045260246000fd5b61126f82611226565b810181811067ffffffffffffffff8211171561128e5761128d611237565b5b80604052505050565b60006112a161117d565b90506112ad8282611266565b919050565b600067ffffffffffffffff8211156112cd576112cc611237565b5b6112d682611226565b9050602081019050919050565b82818337600083830152505050565b6000611305611300846112b2565b611297565b90508281526020810184848401111561132157611320611221565b5b61132c8482856112e3565b509392505050565b600082601f8301126113495761134861121c565b5b81356113598482602086016112f2565b91505092915050565b6000806040838503121561137957611378611187565b5b6000611387858286016111da565b925050602083013567ffffffffffffffff8111156113a8576113a761118c565b5b6113b485828601611334565b9150509250929050565b6000819050919050565b6113d1816113be565b82525050565b60006020820190506113ec60008301846113c8565b92915050565b6000819050919050565b600061141761141261140d84611191565b6113f2565b611191565b9050919050565b6000611429826113fc565b9050919050565b600061143b8261141e565b9050919050565b61144b81611430565b82525050565b60006020820190506114666000830184611442565b92915050565b611475816111b1565b82525050565b6000602082019050611490600083018461146c565b92915050565b600082825260208201905092915050565b7f46756e6374696f6e206d7573742062652063616c6c6564207468726f7567682060008201527f64656c656761746563616c6c0000000000000000000000000000000000000000602082015250565b6000611503602c83611496565b915061150e826114a7565b604082019050919050565b60006020820190508181036000830152611532816114f6565b9050919050565b7f46756e6374696f6e206d7573742062652063616c6c6564207468726f7567682060008201527f6163746976652070726f78790000000000000000000000000000000000000000602082015250565b6000611595602c83611496565b91506115a082611539565b604082019050919050565b600060208201905081810360008301526115c481611588565b9050919050565b7f555550535570677261646561626c653a206d757374206e6f742062652063616c60008201527f6c6564207468726f7567682064656c656761746563616c6c0000000000000000602082015250565b6000611627603883611496565b9150611632826115cb565b604082019050919050565b600060208201905081810360008301526116568161161a565b9050919050565b7f496e697469616c697a61626c653a20636f6e747261637420697320616c72656160008201527f647920696e697469616c697a6564000000000000000000000000000000000000602082015250565b60006116b9602e83611496565b91506116c48261165d565b604082019050919050565b600060208201905081810360008301526116e8816116ac565b9050919050565b6000819050919050565b600060ff82169050919050565b600061172161171c611717846116ef565b6113f2565b6116f9565b9050919050565b61173181611706565b82525050565b600060208201905061174c6000830184611728565b92915050565b6000819050919050565b6000819050919050565b600061178161177c61177784611752565b6113f2565b61175c565b9050919050565b61179181611766565b82525050565b6000819050919050565b60006117bc6117b76117b284611797565b6113f2565b61175c565b9050919050565b6117cc816117a1565b82525050565b60006060820190506117e76000830186611788565b6117f460208301856113c8565b61180160408301846117c3565b949350505050565b6118128161175c565b811461181d57600080fd5b50565b60008151905061182f81611809565b92915050565b60008060006060848603121561184e5761184d611187565b5b600061185c86828701611820565b935050602061186d86828701611820565b925050604061187e86828701611820565b9150509250925092565b7f4f776e61626c653a206e6577206f776e657220697320746865207a65726f206160008201527f6464726573730000000000000000000000000000000000000000000000000000602082015250565b60006118e4602683611496565b91506118ef82611888565b604082019050919050565b60006020820190508181036000830152611913816118d7565b9050919050565b611923816113be565b811461192e57600080fd5b50565b6000815190506119408161191a565b92915050565b60006020828403121561195c5761195b611187565b5b600061196a84828501611931565b91505092915050565b7f45524331393637557067726164653a206e657720696d706c656d656e7461746960008201527f6f6e206973206e6f742055555053000000000000000000000000000000000000602082015250565b60006119cf602e83611496565b91506119da82611973565b604082019050919050565b600060208201905081810360008301526119fe816119c2565b9050919050565b7f45524331393637557067726164653a20756e737570706f727465642070726f7860008201527f6961626c65555549440000000000000000000000000000000000000000000000602082015250565b6000611a61602983611496565b9150611a6c82611a05565b604082019050919050565b60006020820190508181036000830152611a9081611a54565b9050919050565b7f4f776e61626c653a2063616c6c6572206973206e6f7420746865206f776e6572600082015250565b6000611acd602083611496565b9150611ad882611a97565b602082019050919050565b60006020820190508181036000830152611afc81611ac0565b9050919050565b7f496e697469616c697a61626c653a20636f6e7472616374206973206e6f74206960008201527f6e697469616c697a696e67000000000000000000000000000000000000000000602082015250565b6000611b5f602b83611496565b9150611b6a82611b03565b604082019050919050565b60006020820190508181036000830152611b8e81611b52565b9050919050565b7f455243313936373a206e657720696d706c656d656e746174696f6e206973206e60008201527f6f74206120636f6e747261637400000000000000000000000000000000000000602082015250565b6000611bf1602d83611496565b9150611bfc82611b95565b604082019050919050565b60006020820190508181036000830152611c2081611be4565b9050919050565b7f416464726573733a2064656c65676174652063616c6c20746f206e6f6e2d636f60008201527f6e74726163740000000000000000000000000000000000000000000000000000602082015250565b6000611c83602683611496565b9150611c8e82611c27565b604082019050919050565b60006020820190508181036000830152611cb281611c76565b9050919050565b600081519050919050565b600081905092915050565b60005b83811015611ced578082015181840152602081019050611cd2565b60008484015250505050565b6000611d0482611cb9565b611d0e8185611cc4565b9350611d1e818560208601611ccf565b80840191505092915050565b6000611d368284611cf9565b915081905092915050565b600081519050919050565b6000611d5782611d41565b611d618185611496565b9350611d71818560208601611ccf565b611d7a81611226565b840191505092915050565b60006020820190508181036000830152611d9f8184611d4c565b90509291505056fe416464726573733a206c6f772d6c6576656c2064656c65676174652063616c6c206661696c6564a264697066735822122027727153cd262541480edd6d35e44ab38074732169709dfcb62ad30ad467353e64736f6c63430008100033",
  "linkReferences": {},
  "deployedLinkReferences": {}
}