{
  "_format": "hh-sol-artifact-1",
  "contractName": "KeyVault",
  "sourceName": "contracts/KeyVault.sol",
  "abi": [
    {
      "inputs": [],
      "stateMutability": "nonpayable",
      "type": "constructor"
    },
    {
      "anonymous": false,
      "inputs": [
        {
          "indexed": false,
          "internalType": "address",
          "name": "previousAdmin",
          "type": "address"
        },
        {
          "indexed": false,
          "internalType": "address",
          "name": "newAdmin",
          "type": "address"
        }
      ],
      "name": "AdminChanged",
      "type": "event"
    },
    {
      "anonymous": false,
      "inputs": [
        {
          "indexed": true,
          "internalType": "address",
          "name": "account",
          "type": "address"
        },
        {
          "indexed": true,
          "internalType": "address",
          "name": "operator",
          "type": "address"
        },
        {
          "indexed": false,
          "internalType": "bool",
          "name": "approved",
          "type": "bool"
        }
      ],
      "name": "ApprovalForAll",
      "type": "event"
    },
    {
      "anonymous": false,
      "inputs": [
        {
          "indexed": true,
          "internalType": "address",
          "name": "beacon",
          "type": "address"
        }
      ],
      "name": "BeaconUpgraded",
      "type": "event"
    },
    {
      "anonymous": false,
      "inputs": [
        {
          "indexed": false,
          "internalType": "uint8",
          "name": "version",
          "type": "uint8"
        }
      ],
      "name": "Initialized",
      "type": "event"
    },
    {
      "anonymous": false,
      "inputs": [
        {
          "indexed": true,
          "internalType": "address",
          "name": "previousOwner",
          "type": "address"
        },
        {
          "indexed": true,
          "internalType": "address",
          "name": "newOwner",
          "type": "address"
        }
      ],
      "name": "OwnershipTransferred",
      "type": "event"
    },
    {
      "anonymous": false,
      "inputs": [
        {
          "indexed": true,
          "internalType": "address",
          "name": "operator",
          "type": "address"
        },
        {
          "indexed": true,
          "internalType": "address",
          "name": "from",
          "type": "address"
        },
        {
          "indexed": true,
          "internalType": "address",
          "name": "to",
          "type": "address"
        },
        {
          "indexed": false,
          "internalType": "uint256[]",
          "name": "ids",
          "type": "uint256[]"
        },
        {
          "indexed": false,
          "internalType": "uint256[]",
          "name": "values",
          "type": "uint256[]"
        }
      ],
      "name": "TransferBatch",
      "type": "event"
    },
    {
      "anonymous": false,
      "inputs": [
        {
          "indexed": true,
          "internalType": "address",
          "name": "operator",
          "type": "address"
        },
        {
          "indexed": true,
          "internalType": "address",
          "name": "from",
          "type": "address"
        },
        {
          "indexed": true,
          "internalType": "address",
          "name": "to",
          "type": "address"
        },
        {
          "indexed": false,
          "internalType": "uint256",
          "name": "id",
          "type": "uint256"
        },
        {
          "indexed": false,
          "internalType": "uint256",
          "name": "value",
          "type": "uint256"
        }
      ],
      "name": "TransferSingle",
      "type": "event"
    },
    {
      "anonymous": false,
      "inputs": [
        {
          "indexed": false,
          "internalType": "string",
          "name": "value",
          "type": "string"
        },
        {
          "indexed": true,
          "internalType": "uint256",
          "name": "id",
          "type": "uint256"
        }
      ],
      "name": "URI",
      "type": "event"
    },
    {
      "anonymous": false,
      "inputs": [
        {
          "indexed": true,
          "internalType": "address",
          "name": "implementation",
          "type": "address"
        }
      ],
      "name": "Upgraded",
      "type": "event"
    },
    {
      "anonymous": false,
      "inputs": [
        {
          "indexed": false,
          "internalType": "address",
          "name": "operator",
          "type": "address"
        },
        {
          "indexed": false,
          "internalType": "address",
          "name": "keyHolder",
          "type": "address"
        },
        {
          "indexed": false,
          "internalType": "uint256",
          "name": "keyId",
          "type": "uint256"
        },
        {
          "indexed": false,
          "internalType": "uint256",
          "name": "amount",
          "type": "uint256"
        }
      ],
      "name": "setSoulboundKeyAmount",
      "type": "event"
    },
    {
      "inputs": [
        {
          "internalType": "address",
          "name": "account",
          "type": "address"
        },
        {
          "internalType": "uint256",
          "name": "id",
          "type": "uint256"
        }
      ],
      "name": "balanceOf",
      "outputs": [
        {
          "internalType": "uint256",
          "name": "",
          "type": "uint256"
        }
      ],
      "stateMutability": "view",
      "type": "function"
    },
    {
      "inputs": [
        {
          "internalType": "address[]",
          "name": "accounts",
          "type": "address[]"
        },
        {
          "internalType": "uint256[]",
          "name": "ids",
          "type": "uint256[]"
        }
      ],
      "name": "balanceOfBatch",
      "outputs": [
        {
          "internalType": "uint256[]",
          "name": "",
          "type": "uint256[]"
        }
      ],
      "stateMutability": "view",
      "type": "function"
    },
    {
      "inputs": [
        {
          "internalType": "address",
          "name": "holder",
          "type": "address"
        },
        {
          "internalType": "uint256",
          "name": "keyId",
          "type": "uint256"
        },
        {
          "internalType": "uint256",
          "name": "burnAmount",
          "type": "uint256"
        }
      ],
      "name": "burn",
      "outputs": [],
      "stateMutability": "nonpayable",
      "type": "function"
    },
    {
      "inputs": [
        {
          "internalType": "uint256",
          "name": "keyId",
          "type": "uint256"
        }
      ],
      "name": "getHolders",
      "outputs": [
        {
          "internalType": "address[]",
          "name": "",
          "type": "address[]"
        }
      ],
      "stateMutability": "view",
      "type": "function"
    },
    {
      "inputs": [
        {
          "internalType": "address",
          "name": "holder",
          "type": "address"
        }
      ],
      "name": "getKeys",
      "outputs": [
        {
          "internalType": "uint256[]",
          "name": "",
          "type": "uint256[]"
        }
      ],
      "stateMutability": "view",
      "type": "function"
    },
    {
      "inputs": [],
      "name": "initialize",
      "outputs": [],
      "stateMutability": "nonpayable",
      "type": "function"
    },
    {
      "inputs": [
        {
          "internalType": "address",
          "name": "account",
          "type": "address"
        },
        {
          "internalType": "address",
          "name": "operator",
          "type": "address"
        }
      ],
      "name": "isApprovedForAll",
      "outputs": [
        {
          "internalType": "bool",
          "name": "",
          "type": "bool"
        }
      ],
      "stateMutability": "view",
      "type": "function"
    },
    {
      "inputs": [
        {
          "internalType": "uint256",
          "name": "",
          "type": "uint256"
        }
      ],
      "name": "keySupply",
      "outputs": [
        {
          "internalType": "uint256",
          "name": "",
          "type": "uint256"
        }
      ],
      "stateMutability": "view",
      "type": "function"
    },
    {
      "inputs": [],
      "name": "locksmith",
      "outputs": [
        {
          "internalType": "address",
          "name": "",
          "type": "address"
        }
      ],
      "stateMutability": "view",
      "type": "function"
    },
    {
      "inputs": [
        {
          "internalType": "address",
          "name": "receiver",
          "type": "address"
        },
        {
          "internalType": "uint256",
          "name": "keyId",
          "type": "uint256"
        },
        {
          "internalType": "uint256",
          "name": "amount",
          "type": "uint256"
        },
        {
          "internalType": "bytes",
          "name": "data",
          "type": "bytes"
        }
      ],
      "name": "mint",
      "outputs": [],
      "stateMutability": "nonpayable",
      "type": "function"
    },
    {
      "inputs": [],
      "name": "owner",
      "outputs": [
        {
          "internalType": "address",
          "name": "",
          "type": "address"
        }
      ],
      "stateMutability": "view",
      "type": "function"
    },
    {
      "inputs": [],
      "name": "proxiableUUID",
      "outputs": [
        {
          "internalType": "bytes32",
          "name": "",
          "type": "bytes32"
        }
      ],
      "stateMutability": "view",
      "type": "function"
    },
    {
      "inputs": [],
      "name": "renounceOwnership",
      "outputs": [],
      "stateMutability": "nonpayable",
      "type": "function"
    },
    {
      "inputs": [
        {
          "internalType": "address",
          "name": "from",
          "type": "address"
        },
        {
          "internalType": "address",
          "name": "to",
          "type": "address"
        },
        {
          "internalType": "uint256[]",
          "name": "ids",
          "type": "uint256[]"
        },
        {
          "internalType": "uint256[]",
          "name": "amounts",
          "type": "uint256[]"
        },
        {
          "internalType": "bytes",
          "name": "data",
          "type": "bytes"
        }
      ],
      "name": "safeBatchTransferFrom",
      "outputs": [],
      "stateMutability": "nonpayable",
      "type": "function"
    },
    {
      "inputs": [
        {
          "internalType": "address",
          "name": "from",
          "type": "address"
        },
        {
          "internalType": "address",
          "name": "to",
          "type": "address"
        },
        {
          "internalType": "uint256",
          "name": "id",
          "type": "uint256"
        },
        {
          "internalType": "uint256",
          "name": "amount",
          "type": "uint256"
        },
        {
          "internalType": "bytes",
          "name": "data",
          "type": "bytes"
        }
      ],
      "name": "safeTransferFrom",
      "outputs": [],
      "stateMutability": "nonpayable",
      "type": "function"
    },
    {
      "inputs": [
        {
          "internalType": "address",
          "name": "operator",
          "type": "address"
        },
        {
          "internalType": "bool",
          "name": "approved",
          "type": "bool"
        }
      ],
      "name": "setApprovalForAll",
      "outputs": [],
      "stateMutability": "nonpayable",
      "type": "function"
    },
    {
      "inputs": [
        {
          "internalType": "address",
          "name": "_Locksmith",
          "type": "address"
        }
      ],
      "name": "setRespectedLocksmith",
      "outputs": [],
      "stateMutability": "nonpayable",
      "type": "function"
    },
    {
      "inputs": [
        {
          "internalType": "address",
          "name": "keyHolder",
          "type": "address"
        },
        {
          "internalType": "uint256",
          "name": "keyId",
          "type": "uint256"
        },
        {
          "internalType": "uint256",
          "name": "amount",
          "type": "uint256"
        }
      ],
      "name": "soulbind",
      "outputs": [],
      "stateMutability": "nonpayable",
      "type": "function"
    },
    {
      "inputs": [
        {
          "internalType": "address",
          "name": "",
          "type": "address"
        },
        {
          "internalType": "uint256",
          "name": "",
          "type": "uint256"
        }
      ],
      "name": "soulboundKeyAmounts",
      "outputs": [
        {
          "internalType": "uint256",
          "name": "",
          "type": "uint256"
        }
      ],
      "stateMutability": "view",
      "type": "function"
    },
    {
      "inputs": [
        {
          "internalType": "bytes4",
          "name": "interfaceId",
          "type": "bytes4"
        }
      ],
      "name": "supportsInterface",
      "outputs": [
        {
          "internalType": "bool",
          "name": "",
          "type": "bool"
        }
      ],
      "stateMutability": "view",
      "type": "function"
    },
    {
      "inputs": [
        {
          "internalType": "address",
          "name": "newOwner",
          "type": "address"
        }
      ],
      "name": "transferOwnership",
      "outputs": [],
      "stateMutability": "nonpayable",
      "type": "function"
    },
    {
      "inputs": [
        {
          "internalType": "address",
          "name": "newImplementation",
          "type": "address"
        }
      ],
      "name": "upgradeTo",
      "outputs": [],
      "stateMutability": "nonpayable",
      "type": "function"
    },
    {
      "inputs": [
        {
          "internalType": "address",
          "name": "newImplementation",
          "type": "address"
        },
        {
          "internalType": "bytes",
          "name": "data",
          "type": "bytes"
        }
      ],
      "name": "upgradeToAndCall",
      "outputs": [],
      "stateMutability": "payable",
      "type": "function"
    },
    {
      "inputs": [
        {
          "internalType": "uint256",
          "name": "",
          "type": "uint256"
        }
      ],
      "name": "uri",
      "outputs": [
        {
          "internalType": "string",
          "name": "",
          "type": "string"
        }
      ],
      "stateMutability": "view",
      "type": "function"
    }
  ],
  "bytecode": "0x60a06040523073ffffffffffffffffffffffffffffffffffffffff1660809073ffffffffffffffffffffffffffffffffffffffff168152503480156200004457600080fd5b50620000556200005b60201b60201c565b62000206565b600060019054906101000a900460ff1615620000ae576040517f08c379a0000000000000000000000000000000000000000000000000000000008152600401620000a590620001a9565b60405180910390fd5b60ff801660008054906101000a900460ff1660ff161015620001205760ff6000806101000a81548160ff021916908360ff1602179055507f7f26b83ff96e1f2b6a682f133852f6798a09c465da95921460cefb384740249860ff604051620001179190620001e9565b60405180910390a15b565b600082825260208201905092915050565b7f496e697469616c697a61626c653a20636f6e747261637420697320696e69746960008201527f616c697a696e6700000000000000000000000000000000000000000000000000602082015250565b60006200019160278362000122565b91506200019e8262000133565b604082019050919050565b60006020820190508181036000830152620001c48162000182565b9050919050565b600060ff82169050919050565b620001e381620001cb565b82525050565b6000602082019050620002006000830184620001d8565b92915050565b6080516153876200023e60003960008181610957015281816109e501528181610d2101528181610daf0152610e5f01526153876000f3fe60806040526004361061014a5760003560e01c8063715018a6116100b6578063927078691161006f5780639270786914610492578063a22cb465146104cf578063e985e9c5146104f8578063f242432a14610535578063f2fde38b1461055e578063f5298aca146105875761014a565b8063715018a614610396578063731133e9146103ad578063808c5b3b146103d65780638129fc1c146104135780638da5cb5b1461042a5780638f17ae32146104555761014a565b806334e80c341161010857806334e80c34146102835780633659cfe6146102c05780633faf3d6b146102e95780634e1273f4146103125780634f1ef2861461034f57806352d1902d1461036b5761014a565b8062fdd58e1461014f57806301ffc9a71461018c5780630e89341c146101c957806313fb817e146102065780632e9d4d85146102315780632eb2c2d61461025a575b600080fd5b34801561015b57600080fd5b5061017660048036038101906101719190613451565b6105b0565b60405161018391906134a0565b60405180910390f35b34801561019857600080fd5b506101b360048036038101906101ae9190613513565b610679565b6040516101c0919061355b565b60405180910390f35b3480156101d557600080fd5b506101f060048036038101906101eb9190613576565b61075b565b6040516101fd9190613633565b60405180910390f35b34801561021257600080fd5b5061021b6107ef565b6040516102289190613664565b60405180910390f35b34801561023d57600080fd5b506102586004803603810190610253919061367f565b610816565b005b34801561026657600080fd5b50610281600480360381019061027c91906138a9565b610863565b005b34801561028f57600080fd5b506102aa60048036038101906102a5919061367f565b610904565b6040516102b79190613a36565b60405180910390f35b3480156102cc57600080fd5b506102e760048036038101906102e2919061367f565b610955565b005b3480156102f557600080fd5b50610310600480360381019061030b9190613a58565b610add565b005b34801561031e57600080fd5b5061033960048036038101906103349190613b6e565b610c06565b6040516103469190613a36565b60405180910390f35b61036960048036038101906103649190613be6565b610d1f565b005b34801561037757600080fd5b50610380610e5b565b60405161038d9190613c5b565b60405180910390f35b3480156103a257600080fd5b506103ab610f14565b005b3480156103b957600080fd5b506103d460048036038101906103cf9190613cd1565b610f28565b005b3480156103e257600080fd5b506103fd60048036038101906103f89190613451565b61103b565b60405161040a91906134a0565b60405180910390f35b34801561041f57600080fd5b50610428611061565b005b34801561043657600080fd5b5061043f6111a7565b60405161044c9190613664565b60405180910390f35b34801561046157600080fd5b5061047c60048036038101906104779190613576565b6111d1565b60405161048991906134a0565b60405180910390f35b34801561049e57600080fd5b506104b960048036038101906104b49190613576565b6111ea565b6040516104c69190613e17565b60405180910390f35b3480156104db57600080fd5b506104f660048036038101906104f19190613e65565b61120f565b005b34801561050457600080fd5b5061051f600480360381019061051a9190613ea5565b611225565b60405161052c919061355b565b60405180910390f35b34801561054157600080fd5b5061055c60048036038101906105579190613ee5565b6112b9565b005b34801561056a57600080fd5b506105856004803603810190610580919061367f565b61135a565b005b34801561059357600080fd5b506105ae60048036038101906105a99190613a58565b6113dd565b005b60008073ffffffffffffffffffffffffffffffffffffffff168373ffffffffffffffffffffffffffffffffffffffff1603610620576040517f08c379a000000000000000000000000000000000000000000000000000000000815260040161061790613fee565b60405180910390fd5b6065600083815260200190815260200160002060008473ffffffffffffffffffffffffffffffffffffffff1673ffffffffffffffffffffffffffffffffffffffff16815260200190815260200160002054905092915050565b60007fd9b67a26000000000000000000000000000000000000000000000000000000007bffffffffffffffffffffffffffffffffffffffffffffffffffffffff1916827bffffffffffffffffffffffffffffffffffffffffffffffffffffffff1916148061074457507f0e89341c000000000000000000000000000000000000000000000000000000007bffffffffffffffffffffffffffffffffffffffffffffffffffffffff1916827bffffffffffffffffffffffffffffffffffffffffffffffffffffffff1916145b806107545750610753826114a9565b5b9050919050565b60606067805461076a9061403d565b80601f01602080910402602001604051908101604052809291908181526020018280546107969061403d565b80156107e35780601f106107b8576101008083540402835291602001916107e3565b820191906000526020600020905b8154815290600101906020018083116107c657829003601f168201915b50505050509050919050565b61012d60009054906101000a900473ffffffffffffffffffffffffffffffffffffffff1681565b61081e611513565b8061012d60006101000a81548173ffffffffffffffffffffffffffffffffffffffff021916908373ffffffffffffffffffffffffffffffffffffffff16021790555050565b61086b611591565b73ffffffffffffffffffffffffffffffffffffffff168573ffffffffffffffffffffffffffffffffffffffff1614806108b157506108b0856108ab611591565b611225565b5b6108f0576040517f08c379a00000000000000000000000000000000000000000000000000000000081526004016108e7906140e0565b60405180910390fd5b6108fd8585858585611599565b5050505050565b606061094e61012f60008473ffffffffffffffffffffffffffffffffffffffff1673ffffffffffffffffffffffffffffffffffffffff1681526020019081526020016000206118bd565b9050919050565b7f000000000000000000000000000000000000000000000000000000000000000073ffffffffffffffffffffffffffffffffffffffff163073ffffffffffffffffffffffffffffffffffffffff16036109e3576040517f08c379a00000000000000000000000000000000000000000000000000000000081526004016109da90614172565b60405180910390fd5b7f000000000000000000000000000000000000000000000000000000000000000073ffffffffffffffffffffffffffffffffffffffff16610a226118de565b73ffffffffffffffffffffffffffffffffffffffff1614610a78576040517f08c379a0000000000000000000000000000000000000000000000000000000008152600401610a6f90614204565b60405180910390fd5b610a8181611935565b610ada81600067ffffffffffffffff811115610aa057610a9f6136b1565b5b6040519080825280601f01601f191660200182016040528015610ad25781602001600182028036833780820191505090505b506000611940565b50565b3373ffffffffffffffffffffffffffffffffffffffff1661012d60009054906101000a900473ffffffffffffffffffffffffffffffffffffffff1673ffffffffffffffffffffffffffffffffffffffff1614610b6e576040517f08c379a0000000000000000000000000000000000000000000000000000000008152600401610b6590614270565b60405180910390fd5b8061012e60008573ffffffffffffffffffffffffffffffffffffffff1673ffffffffffffffffffffffffffffffffffffffff1681526020019081526020016000206000848152602001908152602001600020819055507fdd4ed73814d490cf0c19636b7b143543516fb68cc7d4fff60b44805e18913f4433848484604051610bf99493929190614290565b60405180910390a1505050565b60608151835114610c4c576040517f08c379a0000000000000000000000000000000000000000000000000000000008152600401610c4390614347565b60405180910390fd5b6000835167ffffffffffffffff811115610c6957610c686136b1565b5b604051908082528060200260200182016040528015610c975781602001602082028036833780820191505090505b50905060005b8451811015610d1457610ce4858281518110610cbc57610cbb614367565b5b6020026020010151858381518110610cd757610cd6614367565b5b60200260200101516105b0565b828281518110610cf757610cf6614367565b5b60200260200101818152505080610d0d906143c5565b9050610c9d565b508091505092915050565b7f000000000000000000000000000000000000000000000000000000000000000073ffffffffffffffffffffffffffffffffffffffff163073ffffffffffffffffffffffffffffffffffffffff1603610dad576040517f08c379a0000000000000000000000000000000000000000000000000000000008152600401610da490614172565b60405180910390fd5b7f000000000000000000000000000000000000000000000000000000000000000073ffffffffffffffffffffffffffffffffffffffff16610dec6118de565b73ffffffffffffffffffffffffffffffffffffffff1614610e42576040517f08c379a0000000000000000000000000000000000000000000000000000000008152600401610e3990614204565b60405180910390fd5b610e4b82611935565b610e5782826001611940565b5050565b60007f000000000000000000000000000000000000000000000000000000000000000073ffffffffffffffffffffffffffffffffffffffff163073ffffffffffffffffffffffffffffffffffffffff1614610eeb576040517f08c379a0000000000000000000000000000000000000000000000000000000008152600401610ee29061447f565b60405180910390fd5b7f360894a13ba1a3210667c828492db98dca3e2076cc3735a920a3ca505d382bbc60001b905090565b610f1c611513565b610f266000611aae565b565b3373ffffffffffffffffffffffffffffffffffffffff1661012d60009054906101000a900473ffffffffffffffffffffffffffffffffffffffff1673ffffffffffffffffffffffffffffffffffffffff1614610fb9576040517f08c379a0000000000000000000000000000000000000000000000000000000008152600401610fb090614270565b60405180910390fd5b8261013160008681526020019081526020016000206000828254610fdd919061449f565b9250508190555061103485858585858080601f016020809104026020016040519081016040528093929190818152602001838380828437600081840152601f19601f82011690508083019250505050505050611b74565b5050505050565b61012e602052816000526040600020602052806000526040600020600091509150505481565b60008060019054906101000a900460ff161590508080156110925750600160008054906101000a900460ff1660ff16105b806110bf57506110a130611d25565b1580156110be5750600160008054906101000a900460ff1660ff16145b5b6110fe576040517f08c379a00000000000000000000000000000000000000000000000000000000081526004016110f590614545565b60405180910390fd5b60016000806101000a81548160ff021916908360ff160217905550801561113b576001600060016101000a81548160ff0219169083151502179055505b611143611d48565b61114b611da1565b80156111a45760008060016101000a81548160ff0219169083151502179055507f7f26b83ff96e1f2b6a682f133852f6798a09c465da95921460cefb3847402498600160405161119b91906145b7565b60405180910390a15b50565b6000609760009054906101000a900473ffffffffffffffffffffffffffffffffffffffff16905090565b6101316020528060005260406000206000915090505481565b60606112086101306000848152602001908152602001600020611df2565b9050919050565b61122161121a611591565b8383611e13565b5050565b6000606660008473ffffffffffffffffffffffffffffffffffffffff1673ffffffffffffffffffffffffffffffffffffffff16815260200190815260200160002060008373ffffffffffffffffffffffffffffffffffffffff1673ffffffffffffffffffffffffffffffffffffffff16815260200190815260200160002060009054906101000a900460ff16905092915050565b6112c1611591565b73ffffffffffffffffffffffffffffffffffffffff168573ffffffffffffffffffffffffffffffffffffffff161480611307575061130685611301611591565b611225565b5b611346576040517f08c379a000000000000000000000000000000000000000000000000000000000815260040161133d906140e0565b60405180910390fd5b6113538585858585611f7f565b5050505050565b611362611513565b600073ffffffffffffffffffffffffffffffffffffffff168173ffffffffffffffffffffffffffffffffffffffff16036113d1576040517f08c379a00000000000000000000000000000000000000000000000000000000081526004016113c890614644565b60405180910390fd5b6113da81611aae565b50565b3373ffffffffffffffffffffffffffffffffffffffff1661012d60009054906101000a900473ffffffffffffffffffffffffffffffffffffffff1673ffffffffffffffffffffffffffffffffffffffff161461146e576040517f08c379a000000000000000000000000000000000000000000000000000000000815260040161146590614270565b60405180910390fd5b80610131600084815260200190815260200160002060008282546114929190614664565b925050819055506114a483838361221d565b505050565b60007f01ffc9a7000000000000000000000000000000000000000000000000000000007bffffffffffffffffffffffffffffffffffffffffffffffffffffffff1916827bffffffffffffffffffffffffffffffffffffffffffffffffffffffff1916149050919050565b61151b611591565b73ffffffffffffffffffffffffffffffffffffffff166115396111a7565b73ffffffffffffffffffffffffffffffffffffffff161461158f576040517f08c379a0000000000000000000000000000000000000000000000000000000008152600401611586906146e4565b60405180910390fd5b565b600033905090565b81518351146115dd576040517f08c379a00000000000000000000000000000000000000000000000000000000081526004016115d490614776565b60405180910390fd5b600073ffffffffffffffffffffffffffffffffffffffff168473ffffffffffffffffffffffffffffffffffffffff160361164c576040517f08c379a000000000000000000000000000000000000000000000000000000000815260040161164390614808565b60405180910390fd5b6000611656611591565b9050611666818787878787612465565b60005b845181101561181a57600085828151811061168757611686614367565b5b6020026020010151905060008583815181106116a6576116a5614367565b5b6020026020010151905060006065600084815260200190815260200160002060008b73ffffffffffffffffffffffffffffffffffffffff1673ffffffffffffffffffffffffffffffffffffffff16815260200190815260200160002054905081811015611748576040517f08c379a000000000000000000000000000000000000000000000000000000000815260040161173f9061489a565b60405180910390fd5b8181036065600085815260200190815260200160002060008c73ffffffffffffffffffffffffffffffffffffffff1673ffffffffffffffffffffffffffffffffffffffff16815260200190815260200160002081905550816065600085815260200190815260200160002060008b73ffffffffffffffffffffffffffffffffffffffff1673ffffffffffffffffffffffffffffffffffffffff16815260200190815260200160002060008282546117ff919061449f565b9250508190555050505080611813906143c5565b9050611669565b508473ffffffffffffffffffffffffffffffffffffffff168673ffffffffffffffffffffffffffffffffffffffff168273ffffffffffffffffffffffffffffffffffffffff167f4a39dc06d4c0dbc64b70af90fd698a233a518aa5d07e595d983b8c0526c8f7fb87876040516118919291906148ba565b60405180910390a46118a78187878787876129e6565b6118b58187878787876129ee565b505050505050565b606060006118cd83600001612bc5565b905060608190508092505050919050565b600061190c7f360894a13ba1a3210667c828492db98dca3e2076cc3735a920a3ca505d382bbc60001b612c21565b60000160009054906101000a900473ffffffffffffffffffffffffffffffffffffffff16905090565b61193d611513565b50565b61196c7f4910fdfa16fed3260ed0e7147f7cc6da11a60208b5b9406d12a635614ffd914360001b612c2b565b60000160009054906101000a900460ff16156119905761198b83612c35565b611aa9565b8273ffffffffffffffffffffffffffffffffffffffff166352d1902d6040518163ffffffff1660e01b8152600401602060405180830381865afa9250505080156119f857506040513d601f19601f820116820180604052508101906119f5919061491d565b60015b611a37576040517f08c379a0000000000000000000000000000000000000000000000000000000008152600401611a2e906149bc565b60405180910390fd5b7f360894a13ba1a3210667c828492db98dca3e2076cc3735a920a3ca505d382bbc60001b8114611a9c576040517f08c379a0000000000000000000000000000000000000000000000000000000008152600401611a9390614a4e565b60405180910390fd5b50611aa8838383612cee565b5b505050565b6000609760009054906101000a900473ffffffffffffffffffffffffffffffffffffffff16905081609760006101000a81548173ffffffffffffffffffffffffffffffffffffffff021916908373ffffffffffffffffffffffffffffffffffffffff1602179055508173ffffffffffffffffffffffffffffffffffffffff168173ffffffffffffffffffffffffffffffffffffffff167f8be0079c531659141344cd1fd0a4f28419497f9722a3daafe3b4186f6b6457e060405160405180910390a35050565b600073ffffffffffffffffffffffffffffffffffffffff168473ffffffffffffffffffffffffffffffffffffffff1603611be3576040517f08c379a0000000000000000000000000000000000000000000000000000000008152600401611bda90614ae0565b60405180910390fd5b6000611bed611591565b90506000611bfa85612d1a565b90506000611c0785612d1a565b9050611c1883600089858589612465565b846065600088815260200190815260200160002060008973ffffffffffffffffffffffffffffffffffffffff1673ffffffffffffffffffffffffffffffffffffffff1681526020019081526020016000206000828254611c78919061449f565b925050819055508673ffffffffffffffffffffffffffffffffffffffff16600073ffffffffffffffffffffffffffffffffffffffff168473ffffffffffffffffffffffffffffffffffffffff167fc3d58168c5ae7397731d063d5bbf3d657854427343f4c083240f7aacaa2d0f628989604051611cf6929190614b00565b60405180910390a4611d0d836000898585896129e6565b611d1c83600089898989612d94565b50505050505050565b6000808273ffffffffffffffffffffffffffffffffffffffff163b119050919050565b600060019054906101000a900460ff16611d97576040517f08c379a0000000000000000000000000000000000000000000000000000000008152600401611d8e90614b9b565b60405180910390fd5b611d9f612f6b565b565b600060019054906101000a900460ff16611df0576040517f08c379a0000000000000000000000000000000000000000000000000000000008152600401611de790614b9b565b60405180910390fd5b565b60606000611e0283600001612bc5565b905060608190508092505050919050565b8173ffffffffffffffffffffffffffffffffffffffff168373ffffffffffffffffffffffffffffffffffffffff1603611e81576040517f08c379a0000000000000000000000000000000000000000000000000000000008152600401611e7890614c2d565b60405180910390fd5b80606660008573ffffffffffffffffffffffffffffffffffffffff1673ffffffffffffffffffffffffffffffffffffffff16815260200190815260200160002060008473ffffffffffffffffffffffffffffffffffffffff1673ffffffffffffffffffffffffffffffffffffffff16815260200190815260200160002060006101000a81548160ff0219169083151502179055508173ffffffffffffffffffffffffffffffffffffffff168373ffffffffffffffffffffffffffffffffffffffff167f17307eab39ab6107e8899845ad3d59bd9653f200f220920489ca2b5937696c3183604051611f72919061355b565b60405180910390a3505050565b600073ffffffffffffffffffffffffffffffffffffffff168473ffffffffffffffffffffffffffffffffffffffff1603611fee576040517f08c379a0000000000000000000000000000000000000000000000000000000008152600401611fe590614808565b60405180910390fd5b6000611ff8611591565b9050600061200585612d1a565b9050600061201285612d1a565b9050612022838989858589612465565b60006065600088815260200190815260200160002060008a73ffffffffffffffffffffffffffffffffffffffff1673ffffffffffffffffffffffffffffffffffffffff168152602001908152602001600020549050858110156120ba576040517f08c379a00000000000000000000000000000000000000000000000000000000081526004016120b19061489a565b60405180910390fd5b8581036065600089815260200190815260200160002060008b73ffffffffffffffffffffffffffffffffffffffff1673ffffffffffffffffffffffffffffffffffffffff16815260200190815260200160002081905550856065600089815260200190815260200160002060008a73ffffffffffffffffffffffffffffffffffffffff1673ffffffffffffffffffffffffffffffffffffffff1681526020019081526020016000206000828254612171919061449f565b925050819055508773ffffffffffffffffffffffffffffffffffffffff168973ffffffffffffffffffffffffffffffffffffffff168573ffffffffffffffffffffffffffffffffffffffff167fc3d58168c5ae7397731d063d5bbf3d657854427343f4c083240f7aacaa2d0f628a8a6040516121ee929190614b00565b60405180910390a4612204848a8a86868a6129e6565b612212848a8a8a8a8a612d94565b505050505050505050565b600073ffffffffffffffffffffffffffffffffffffffff168373ffffffffffffffffffffffffffffffffffffffff160361228c576040517f08c379a000000000000000000000000000000000000000000000000000000000815260040161228390614cbf565b60405180910390fd5b6000612296611591565b905060006122a384612d1a565b905060006122b084612d1a565b90506122d083876000858560405180602001604052806000815250612465565b60006065600087815260200190815260200160002060008873ffffffffffffffffffffffffffffffffffffffff1673ffffffffffffffffffffffffffffffffffffffff16815260200190815260200160002054905084811015612368576040517f08c379a000000000000000000000000000000000000000000000000000000000815260040161235f90614d51565b60405180910390fd5b8481036065600088815260200190815260200160002060008973ffffffffffffffffffffffffffffffffffffffff1673ffffffffffffffffffffffffffffffffffffffff16815260200190815260200160002081905550600073ffffffffffffffffffffffffffffffffffffffff168773ffffffffffffffffffffffffffffffffffffffff168573ffffffffffffffffffffffffffffffffffffffff167fc3d58168c5ae7397731d063d5bbf3d657854427343f4c083240f7aacaa2d0f628989604051612436929190614b00565b60405180910390a461245c848860008686604051806020016040528060008152506129e6565b50505050505050565b612473868686868686612fcc565b60005b83518110156129dd57600073ffffffffffffffffffffffffffffffffffffffff168673ffffffffffffffffffffffffffffffffffffffff161480612508575061012d60009054906101000a900473ffffffffffffffffffffffffffffffffffffffff1673ffffffffffffffffffffffffffffffffffffffff168773ffffffffffffffffffffffffffffffffffffffff16145b80612637575061012e60008773ffffffffffffffffffffffffffffffffffffffff1673ffffffffffffffffffffffffffffffffffffffff168152602001908152602001600020600085838151811061256357612562614367565b5b602002602001015181526020019081526020016000205483828151811061258d5761258c614367565b5b60200260200101513073ffffffffffffffffffffffffffffffffffffffff1662fdd58e898886815181106125c4576125c3614367565b5b60200260200101516040518363ffffffff1660e01b81526004016125e9929190614d71565b602060405180830381865afa158015612606573d6000803e3d6000fd5b505050506040513d601f19601f8201168201806040525081019061262a9190614daf565b6126349190614664565b10155b612676576040517f08c379a000000000000000000000000000000000000000000000000000000000815260040161266d90614e28565b60405180910390fd5b600073ffffffffffffffffffffffffffffffffffffffff168673ffffffffffffffffffffffffffffffffffffffff161415801561276c575060008382815181106126c3576126c2614367565b5b60200260200101513073ffffffffffffffffffffffffffffffffffffffff1662fdd58e898886815181106126fa576126f9614367565b5b60200260200101516040518363ffffffff1660e01b815260040161271f929190614d71565b602060405180830381865afa15801561273c573d6000803e3d6000fd5b505050506040513d601f19601f820116820180604052508101906127609190614daf565b61276a9190614664565b145b15612820576127dd84828151811061278757612786614367565b5b602002602001015161012f60008973ffffffffffffffffffffffffffffffffffffffff1673ffffffffffffffffffffffffffffffffffffffff168152602001908152602001600020612fd490919063ffffffff16565b5061281e8661013060008785815181106127fa576127f9614367565b5b60200260200101518152602001908152602001600020612fee90919063ffffffff16565b505b600073ffffffffffffffffffffffffffffffffffffffff168573ffffffffffffffffffffffffffffffffffffffff16141580156129165750600083828151811061286d5761286c614367565b5b60200260200101513073ffffffffffffffffffffffffffffffffffffffff1662fdd58e888886815181106128a4576128a3614367565b5b60200260200101516040518363ffffffff1660e01b81526004016128c9929190614d71565b602060405180830381865afa1580156128e6573d6000803e3d6000fd5b505050506040513d601f19601f8201168201806040525081019061290a9190614daf565b612914919061449f565b115b156129ca5761298784828151811061293157612930614367565b5b602002602001015161012f60008873ffffffffffffffffffffffffffffffffffffffff1673ffffffffffffffffffffffffffffffffffffffff16815260200190815260200160002061301e90919063ffffffff16565b506129c88561013060008785815181106129a4576129a3614367565b5b6020026020010151815260200190815260200160002061303890919063ffffffff16565b505b80806129d5906143c5565b915050612476565b50505050505050565b505050505050565b612a0d8473ffffffffffffffffffffffffffffffffffffffff16611d25565b15612bbd578373ffffffffffffffffffffffffffffffffffffffff1663bc197c8187878686866040518663ffffffff1660e01b8152600401612a53959493929190614e9d565b6020604051808303816000875af1925050508015612a8f57506040513d601f19601f82011682018060405250810190612a8c9190614f1a565b60015b612b3457612a9b614f54565b806308c379a003612af75750612aaf614f76565b80612aba5750612af9565b806040517f08c379a0000000000000000000000000000000000000000000000000000000008152600401612aee9190613633565b60405180910390fd5b505b6040517f08c379a0000000000000000000000000000000000000000000000000000000008152600401612b2b90615078565b60405180910390fd5b63bc197c8160e01b7bffffffffffffffffffffffffffffffffffffffffffffffffffffffff1916817bffffffffffffffffffffffffffffffffffffffffffffffffffffffff191614612bbb576040517f08c379a0000000000000000000000000000000000000000000000000000000008152600401612bb29061510a565b60405180910390fd5b505b505050505050565b606081600001805480602002602001604051908101604052809291908181526020018280548015612c1557602002820191906000526020600020905b815481526020019060010190808311612c01575b50505050509050919050565b6000819050919050565b6000819050919050565b612c3e81611d25565b612c7d576040517f08c379a0000000000000000000000000000000000000000000000000000000008152600401612c749061519c565b60405180910390fd5b80612caa7f360894a13ba1a3210667c828492db98dca3e2076cc3735a920a3ca505d382bbc60001b612c21565b60000160006101000a81548173ffffffffffffffffffffffffffffffffffffffff021916908373ffffffffffffffffffffffffffffffffffffffff16021790555050565b612cf783613068565b600082511180612d045750805b15612d1557612d1383836130b7565b505b505050565b60606000600167ffffffffffffffff811115612d3957612d386136b1565b5b604051908082528060200260200182016040528015612d675781602001602082028036833780820191505090505b5090508281600081518110612d7f57612d7e614367565b5b60200260200101818152505080915050919050565b612db38473ffffffffffffffffffffffffffffffffffffffff16611d25565b15612f63578373ffffffffffffffffffffffffffffffffffffffff1663f23a6e6187878686866040518663ffffffff1660e01b8152600401612df99594939291906151bc565b6020604051808303816000875af1925050508015612e3557506040513d601f19601f82011682018060405250810190612e329190614f1a565b60015b612eda57612e41614f54565b806308c379a003612e9d5750612e55614f76565b80612e605750612e9f565b806040517f08c379a0000000000000000000000000000000000000000000000000000000008152600401612e949190613633565b60405180910390fd5b505b6040517f08c379a0000000000000000000000000000000000000000000000000000000008152600401612ed190615078565b60405180910390fd5b63f23a6e6160e01b7bffffffffffffffffffffffffffffffffffffffffffffffffffffffff1916817bffffffffffffffffffffffffffffffffffffffffffffffffffffffff191614612f61576040517f08c379a0000000000000000000000000000000000000000000000000000000008152600401612f589061510a565b60405180910390fd5b505b505050505050565b600060019054906101000a900460ff16612fba576040517f08c379a0000000000000000000000000000000000000000000000000000000008152600401612fb190614b9b565b60405180910390fd5b612fca612fc5611591565b611aae565b565b505050505050565b6000612fe6836000018360001b61319b565b905092915050565b6000613016836000018373ffffffffffffffffffffffffffffffffffffffff1660001b61319b565b905092915050565b6000613030836000018360001b6132af565b905092915050565b6000613060836000018373ffffffffffffffffffffffffffffffffffffffff1660001b6132af565b905092915050565b61307181612c35565b8073ffffffffffffffffffffffffffffffffffffffff167fbc7cd75a20ee27fd9adebab32041f755214dbc6bffa90cc0225b39da2e5c2d3b60405160405180910390a250565b60606130c283611d25565b613101576040517f08c379a00000000000000000000000000000000000000000000000000000000081526004016130f890615288565b60405180910390fd5b6000808473ffffffffffffffffffffffffffffffffffffffff168460405161312991906152e4565b600060405180830381855af49150503d8060008114613164576040519150601f19603f3d011682016040523d82523d6000602084013e613169565b606091505b5091509150613191828260405180606001604052806027815260200161532b6027913961331f565b9250505092915050565b600080836001016000848152602001908152602001600020549050600081146132a35760006001826131cd9190614664565b90506000600186600001805490506131e59190614664565b905081811461325457600086600001828154811061320657613205614367565b5b906000526020600020015490508087600001848154811061322a57613229614367565b5b90600052602060002001819055508387600101600083815260200190815260200160002081905550505b85600001805480613268576132676152fb565b5b6001900381819060005260206000200160009055905585600101600086815260200190815260200160002060009055600193505050506132a9565b60009150505b92915050565b60006132bb8383613386565b613314578260000182908060018154018082558091505060019003906000526020600020016000909190919091505582600001805490508360010160008481526020019081526020016000208190555060019050613319565b600090505b92915050565b6060831561332f5782905061337f565b6000835111156133425782518084602001fd5b816040517f08c379a00000000000000000000000000000000000000000000000000000000081526004016133769190613633565b60405180910390fd5b9392505050565b600080836001016000848152602001908152602001600020541415905092915050565b6000604051905090565b600080fd5b600080fd5b600073ffffffffffffffffffffffffffffffffffffffff82169050919050565b60006133e8826133bd565b9050919050565b6133f8816133dd565b811461340357600080fd5b50565b600081359050613415816133ef565b92915050565b6000819050919050565b61342e8161341b565b811461343957600080fd5b50565b60008135905061344b81613425565b92915050565b60008060408385031215613468576134676133b3565b5b600061347685828601613406565b92505060206134878582860161343c565b9150509250929050565b61349a8161341b565b82525050565b60006020820190506134b56000830184613491565b92915050565b60007fffffffff0000000000000000000000000000000000000000000000000000000082169050919050565b6134f0816134bb565b81146134fb57600080fd5b50565b60008135905061350d816134e7565b92915050565b600060208284031215613529576135286133b3565b5b6000613537848285016134fe565b91505092915050565b60008115159050919050565b61355581613540565b82525050565b6000602082019050613570600083018461354c565b92915050565b60006020828403121561358c5761358b6133b3565b5b600061359a8482850161343c565b91505092915050565b600081519050919050565b600082825260208201905092915050565b60005b838110156135dd5780820151818401526020810190506135c2565b60008484015250505050565b6000601f19601f8301169050919050565b6000613605826135a3565b61360f81856135ae565b935061361f8185602086016135bf565b613628816135e9565b840191505092915050565b6000602082019050818103600083015261364d81846135fa565b905092915050565b61365e816133dd565b82525050565b60006020820190506136796000830184613655565b92915050565b600060208284031215613695576136946133b3565b5b60006136a384828501613406565b91505092915050565b600080fd5b7f4e487b7100000000000000000000000000000000000000000000000000000000600052604160045260246000fd5b6136e9826135e9565b810181811067ffffffffffffffff82111715613708576137076136b1565b5b80604052505050565b600061371b6133a9565b905061372782826136e0565b919050565b600067ffffffffffffffff821115613747576137466136b1565b5b602082029050602081019050919050565b600080fd5b600061377061376b8461372c565b613711565b9050808382526020820190506020840283018581111561379357613792613758565b5b835b818110156137bc57806137a8888261343c565b845260208401935050602081019050613795565b5050509392505050565b600082601f8301126137db576137da6136ac565b5b81356137eb84826020860161375d565b91505092915050565b600080fd5b600067ffffffffffffffff821115613814576138136136b1565b5b61381d826135e9565b9050602081019050919050565b82818337600083830152505050565b600061384c613847846137f9565b613711565b905082815260208101848484011115613868576138676137f4565b5b61387384828561382a565b509392505050565b600082601f8301126138905761388f6136ac565b5b81356138a0848260208601613839565b91505092915050565b600080600080600060a086880312156138c5576138c46133b3565b5b60006138d388828901613406565b95505060206138e488828901613406565b945050604086013567ffffffffffffffff811115613905576139046133b8565b5b613911888289016137c6565b935050606086013567ffffffffffffffff811115613932576139316133b8565b5b61393e888289016137c6565b925050608086013567ffffffffffffffff81111561395f5761395e6133b8565b5b61396b8882890161387b565b9150509295509295909350565b600081519050919050565b600082825260208201905092915050565b6000819050602082019050919050565b6139ad8161341b565b82525050565b60006139bf83836139a4565b60208301905092915050565b6000602082019050919050565b60006139e382613978565b6139ed8185613983565b93506139f883613994565b8060005b83811015613a29578151613a1088826139b3565b9750613a1b836139cb565b9250506001810190506139fc565b5085935050505092915050565b60006020820190508181036000830152613a5081846139d8565b905092915050565b600080600060608486031215613a7157613a706133b3565b5b6000613a7f86828701613406565b9350506020613a908682870161343c565b9250506040613aa18682870161343c565b9150509250925092565b600067ffffffffffffffff821115613ac657613ac56136b1565b5b602082029050602081019050919050565b6000613aea613ae584613aab565b613711565b90508083825260208201905060208402830185811115613b0d57613b0c613758565b5b835b81811015613b365780613b228882613406565b845260208401935050602081019050613b0f565b5050509392505050565b600082601f830112613b5557613b546136ac565b5b8135613b65848260208601613ad7565b91505092915050565b60008060408385031215613b8557613b846133b3565b5b600083013567ffffffffffffffff811115613ba357613ba26133b8565b5b613baf85828601613b40565b925050602083013567ffffffffffffffff811115613bd057613bcf6133b8565b5b613bdc858286016137c6565b9150509250929050565b60008060408385031215613bfd57613bfc6133b3565b5b6000613c0b85828601613406565b925050602083013567ffffffffffffffff811115613c2c57613c2b6133b8565b5b613c388582860161387b565b9150509250929050565b6000819050919050565b613c5581613c42565b82525050565b6000602082019050613c706000830184613c4c565b92915050565b600080fd5b60008083601f840112613c9157613c906136ac565b5b8235905067ffffffffffffffff811115613cae57613cad613c76565b5b602083019150836001820283011115613cca57613cc9613758565b5b9250929050565b600080600080600060808688031215613ced57613cec6133b3565b5b6000613cfb88828901613406565b9550506020613d0c8882890161343c565b9450506040613d1d8882890161343c565b935050606086013567ffffffffffffffff811115613d3e57613d3d6133b8565b5b613d4a88828901613c7b565b92509250509295509295909350565b600081519050919050565b600082825260208201905092915050565b6000819050602082019050919050565b613d8e816133dd565b82525050565b6000613da08383613d85565b60208301905092915050565b6000602082019050919050565b6000613dc482613d59565b613dce8185613d64565b9350613dd983613d75565b8060005b83811015613e0a578151613df18882613d94565b9750613dfc83613dac565b925050600181019050613ddd565b5085935050505092915050565b60006020820190508181036000830152613e318184613db9565b905092915050565b613e4281613540565b8114613e4d57600080fd5b50565b600081359050613e5f81613e39565b92915050565b60008060408385031215613e7c57613e7b6133b3565b5b6000613e8a85828601613406565b9250506020613e9b85828601613e50565b9150509250929050565b60008060408385031215613ebc57613ebb6133b3565b5b6000613eca85828601613406565b9250506020613edb85828601613406565b9150509250929050565b600080600080600060a08688031215613f0157613f006133b3565b5b6000613f0f88828901613406565b9550506020613f2088828901613406565b9450506040613f318882890161343c565b9350506060613f428882890161343c565b925050608086013567ffffffffffffffff811115613f6357613f626133b8565b5b613f6f8882890161387b565b9150509295509295909350565b7f455243313135353a2061646472657373207a65726f206973206e6f742061207660008201527f616c6964206f776e657200000000000000000000000000000000000000000000602082015250565b6000613fd8602a836135ae565b9150613fe382613f7c565b604082019050919050565b6000602082019050818103600083015261400781613fcb565b9050919050565b7f4e487b7100000000000000000000000000000000000000000000000000000000600052602260045260246000fd5b6000600282049050600182168061405557607f821691505b6020821081036140685761406761400e565b5b50919050565b7f455243313135353a2063616c6c6572206973206e6f7420746f6b656e206f776e60008201527f6572206e6f7220617070726f7665640000000000000000000000000000000000602082015250565b60006140ca602f836135ae565b91506140d58261406e565b604082019050919050565b600060208201905081810360008301526140f9816140bd565b9050919050565b7f46756e6374696f6e206d7573742062652063616c6c6564207468726f7567682060008201527f64656c656761746563616c6c0000000000000000000000000000000000000000602082015250565b600061415c602c836135ae565b915061416782614100565b604082019050919050565b6000602082019050818103600083015261418b8161414f565b9050919050565b7f46756e6374696f6e206d7573742062652063616c6c6564207468726f7567682060008201527f6163746976652070726f78790000000000000000000000000000000000000000602082015250565b60006141ee602c836135ae565b91506141f982614192565b604082019050919050565b6000602082019050818103600083015261421d816141e1565b9050919050565b7f4e4f545f4c4f434b534d49544800000000000000000000000000000000000000600082015250565b600061425a600d836135ae565b915061426582614224565b602082019050919050565b600060208201905081810360008301526142898161424d565b9050919050565b60006080820190506142a56000830187613655565b6142b26020830186613655565b6142bf6040830185613491565b6142cc6060830184613491565b95945050505050565b7f455243313135353a206163636f756e747320616e6420696473206c656e67746860008201527f206d69736d617463680000000000000000000000000000000000000000000000602082015250565b60006143316029836135ae565b915061433c826142d5565b604082019050919050565b6000602082019050818103600083015261436081614324565b9050919050565b7f4e487b7100000000000000000000000000000000000000000000000000000000600052603260045260246000fd5b7f4e487b7100000000000000000000000000000000000000000000000000000000600052601160045260246000fd5b60006143d08261341b565b91507fffffffffffffffffffffffffffffffffffffffffffffffffffffffffffffffff820361440257614401614396565b5b600182019050919050565b7f555550535570677261646561626c653a206d757374206e6f742062652063616c60008201527f6c6564207468726f7567682064656c656761746563616c6c0000000000000000602082015250565b60006144696038836135ae565b91506144748261440d565b604082019050919050565b600060208201905081810360008301526144988161445c565b9050919050565b60006144aa8261341b565b91506144b58361341b565b92508282019050808211156144cd576144cc614396565b5b92915050565b7f496e697469616c697a61626c653a20636f6e747261637420697320616c72656160008201527f647920696e697469616c697a6564000000000000000000000000000000000000602082015250565b600061452f602e836135ae565b915061453a826144d3565b604082019050919050565b6000602082019050818103600083015261455e81614522565b9050919050565b6000819050919050565b600060ff82169050919050565b6000819050919050565b60006145a161459c61459784614565565b61457c565b61456f565b9050919050565b6145b181614586565b82525050565b60006020820190506145cc60008301846145a8565b92915050565b7f4f776e61626c653a206e6577206f776e657220697320746865207a65726f206160008201527f6464726573730000000000000000000000000000000000000000000000000000602082015250565b600061462e6026836135ae565b9150614639826145d2565b604082019050919050565b6000602082019050818103600083015261465d81614621565b9050919050565b600061466f8261341b565b915061467a8361341b565b925082820390508181111561469257614691614396565b5b92915050565b7f4f776e61626c653a2063616c6c6572206973206e6f7420746865206f776e6572600082015250565b60006146ce6020836135ae565b91506146d982614698565b602082019050919050565b600060208201905081810360008301526146fd816146c1565b9050919050565b7f455243313135353a2069647320616e6420616d6f756e7473206c656e6774682060008201527f6d69736d61746368000000000000000000000000000000000000000000000000602082015250565b60006147606028836135ae565b915061476b82614704565b604082019050919050565b6000602082019050818103600083015261478f81614753565b9050919050565b7f455243313135353a207472616e7366657220746f20746865207a65726f20616460008201527f6472657373000000000000000000000000000000000000000000000000000000602082015250565b60006147f26025836135ae565b91506147fd82614796565b604082019050919050565b60006020820190508181036000830152614821816147e5565b9050919050565b7f455243313135353a20696e73756666696369656e742062616c616e636520666f60008201527f72207472616e7366657200000000000000000000000000000000000000000000602082015250565b6000614884602a836135ae565b915061488f82614828565b604082019050919050565b600060208201905081810360008301526148b381614877565b9050919050565b600060408201905081810360008301526148d481856139d8565b905081810360208301526148e881846139d8565b90509392505050565b6148fa81613c42565b811461490557600080fd5b50565b600081519050614917816148f1565b92915050565b600060208284031215614933576149326133b3565b5b600061494184828501614908565b91505092915050565b7f45524331393637557067726164653a206e657720696d706c656d656e7461746960008201527f6f6e206973206e6f742055555053000000000000000000000000000000000000602082015250565b60006149a6602e836135ae565b91506149b18261494a565b604082019050919050565b600060208201905081810360008301526149d581614999565b9050919050565b7f45524331393637557067726164653a20756e737570706f727465642070726f7860008201527f6961626c65555549440000000000000000000000000000000000000000000000602082015250565b6000614a386029836135ae565b9150614a43826149dc565b604082019050919050565b60006020820190508181036000830152614a6781614a2b565b9050919050565b7f455243313135353a206d696e7420746f20746865207a65726f2061646472657360008201527f7300000000000000000000000000000000000000000000000000000000000000602082015250565b6000614aca6021836135ae565b9150614ad582614a6e565b604082019050919050565b60006020820190508181036000830152614af981614abd565b9050919050565b6000604082019050614b156000830185613491565b614b226020830184613491565b9392505050565b7f496e697469616c697a61626c653a20636f6e7472616374206973206e6f74206960008201527f6e697469616c697a696e67000000000000000000000000000000000000000000602082015250565b6000614b85602b836135ae565b9150614b9082614b29565b604082019050919050565b60006020820190508181036000830152614bb481614b78565b9050919050565b7f455243313135353a2073657474696e6720617070726f76616c2073746174757360008201527f20666f722073656c660000000000000000000000000000000000000000000000602082015250565b6000614c176029836135ae565b9150614c2282614bbb565b604082019050919050565b60006020820190508181036000830152614c4681614c0a565b9050919050565b7f455243313135353a206275726e2066726f6d20746865207a65726f206164647260008201527f6573730000000000000000000000000000000000000000000000000000000000602082015250565b6000614ca96023836135ae565b9150614cb482614c4d565b604082019050919050565b60006020820190508181036000830152614cd881614c9c565b9050919050565b7f455243313135353a206275726e20616d6f756e7420657863656564732062616c60008201527f616e636500000000000000000000000000000000000000000000000000000000602082015250565b6000614d3b6024836135ae565b9150614d4682614cdf565b604082019050919050565b60006020820190508181036000830152614d6a81614d2e565b9050919050565b6000604082019050614d866000830185613655565b614d936020830184613491565b9392505050565b600081519050614da981613425565b92915050565b600060208284031215614dc557614dc46133b3565b5b6000614dd384828501614d9a565b91505092915050565b7f534f554c5f425245414348000000000000000000000000000000000000000000600082015250565b6000614e12600b836135ae565b9150614e1d82614ddc565b602082019050919050565b60006020820190508181036000830152614e4181614e05565b9050919050565b600081519050919050565b600082825260208201905092915050565b6000614e6f82614e48565b614e798185614e53565b9350614e898185602086016135bf565b614e92816135e9565b840191505092915050565b600060a082019050614eb26000830188613655565b614ebf6020830187613655565b8181036040830152614ed181866139d8565b90508181036060830152614ee581856139d8565b90508181036080830152614ef98184614e64565b90509695505050505050565b600081519050614f14816134e7565b92915050565b600060208284031215614f3057614f2f6133b3565b5b6000614f3e84828501614f05565b91505092915050565b60008160e01c9050919050565b600060033d1115614f735760046000803e614f70600051614f47565b90505b90565b600060443d1061500357614f886133a9565b60043d036004823e80513d602482011167ffffffffffffffff82111715614fb0575050615003565b808201805167ffffffffffffffff811115614fce5750505050615003565b80602083010160043d038501811115614feb575050505050615003565b614ffa826020018501866136e0565b82955050505050505b90565b7f455243313135353a207472616e7366657220746f206e6f6e204552433131353560008201527f526563656976657220696d706c656d656e746572000000000000000000000000602082015250565b60006150626034836135ae565b915061506d82615006565b604082019050919050565b6000602082019050818103600083015261509181615055565b9050919050565b7f455243313135353a204552433131353552656365697665722072656a6563746560008201527f6420746f6b656e73000000000000000000000000000000000000000000000000602082015250565b60006150f46028836135ae565b91506150ff82615098565b604082019050919050565b60006020820190508181036000830152615123816150e7565b9050919050565b7f455243313936373a206e657720696d706c656d656e746174696f6e206973206e60008201527f6f74206120636f6e747261637400000000000000000000000000000000000000602082015250565b6000615186602d836135ae565b91506151918261512a565b604082019050919050565b600060208201905081810360008301526151b581615179565b9050919050565b600060a0820190506151d16000830188613655565b6151de6020830187613655565b6151eb6040830186613491565b6151f86060830185613491565b818103608083015261520a8184614e64565b90509695505050505050565b7f416464726573733a2064656c65676174652063616c6c20746f206e6f6e2d636f60008201527f6e74726163740000000000000000000000000000000000000000000000000000602082015250565b60006152726026836135ae565b915061527d82615216565b604082019050919050565b600060208201905081810360008301526152a181615265565b9050919050565b600081905092915050565b60006152be82614e48565b6152c881856152a8565b93506152d88185602086016135bf565b80840191505092915050565b60006152f082846152b3565b915081905092915050565b7f4e487b7100000000000000000000000000000000000000000000000000000000600052603160045260246000fdfe416464726573733a206c6f772d6c6576656c2064656c65676174652063616c6c206661696c6564a2646970667358221220c07564f7ac0374490ee44d3d7cf0c39b83452afb8ca3d8014bee03e14c6eb84964736f6c63430008100033",
  "linkReferences": {},
  "deployedLinkReferences": {}
}