{
  "_format": "hh-sol-artifact-1",
  "contractName": "KeyVault",
  "sourceName": "contracts/KeyVault.sol",
  "abi": [
    {
      "inputs": [],
      "stateMutability": "nonpayable",
      "type": "constructor"
    },
    {
      "anonymous": false,
      "inputs": [
        {
          "indexed": false,
          "internalType": "address",
          "name": "previousAdmin",
          "type": "address"
        },
        {
          "indexed": false,
          "internalType": "address",
          "name": "newAdmin",
          "type": "address"
        }
      ],
      "name": "AdminChanged",
      "type": "event"
    },
    {
      "anonymous": false,
      "inputs": [
        {
          "indexed": true,
          "internalType": "address",
          "name": "account",
          "type": "address"
        },
        {
          "indexed": true,
          "internalType": "address",
          "name": "operator",
          "type": "address"
        },
        {
          "indexed": false,
          "internalType": "bool",
          "name": "approved",
          "type": "bool"
        }
      ],
      "name": "ApprovalForAll",
      "type": "event"
    },
    {
      "anonymous": false,
      "inputs": [
        {
          "indexed": true,
          "internalType": "address",
          "name": "beacon",
          "type": "address"
        }
      ],
      "name": "BeaconUpgraded",
      "type": "event"
    },
    {
      "anonymous": false,
      "inputs": [
        {
          "indexed": false,
          "internalType": "uint8",
          "name": "version",
          "type": "uint8"
        }
      ],
      "name": "Initialized",
      "type": "event"
    },
    {
      "anonymous": false,
      "inputs": [
        {
          "indexed": true,
          "internalType": "address",
          "name": "operator",
          "type": "address"
        },
        {
          "indexed": true,
          "internalType": "address",
          "name": "from",
          "type": "address"
        },
        {
          "indexed": true,
          "internalType": "address",
          "name": "to",
          "type": "address"
        },
        {
          "indexed": false,
          "internalType": "uint256[]",
          "name": "ids",
          "type": "uint256[]"
        },
        {
          "indexed": false,
          "internalType": "uint256[]",
          "name": "values",
          "type": "uint256[]"
        }
      ],
      "name": "TransferBatch",
      "type": "event"
    },
    {
      "anonymous": false,
      "inputs": [
        {
          "indexed": true,
          "internalType": "address",
          "name": "operator",
          "type": "address"
        },
        {
          "indexed": true,
          "internalType": "address",
          "name": "from",
          "type": "address"
        },
        {
          "indexed": true,
          "internalType": "address",
          "name": "to",
          "type": "address"
        },
        {
          "indexed": false,
          "internalType": "uint256",
          "name": "id",
          "type": "uint256"
        },
        {
          "indexed": false,
          "internalType": "uint256",
          "name": "value",
          "type": "uint256"
        }
      ],
      "name": "TransferSingle",
      "type": "event"
    },
    {
      "anonymous": false,
      "inputs": [
        {
          "indexed": false,
          "internalType": "string",
          "name": "value",
          "type": "string"
        },
        {
          "indexed": true,
          "internalType": "uint256",
          "name": "id",
          "type": "uint256"
        }
      ],
      "name": "URI",
      "type": "event"
    },
    {
      "anonymous": false,
      "inputs": [
        {
          "indexed": true,
          "internalType": "address",
          "name": "implementation",
          "type": "address"
        }
      ],
      "name": "Upgraded",
      "type": "event"
    },
    {
      "anonymous": false,
      "inputs": [
        {
          "indexed": false,
          "internalType": "address",
          "name": "operator",
          "type": "address"
        },
        {
          "indexed": false,
          "internalType": "address",
          "name": "keyHolder",
          "type": "address"
        },
        {
          "indexed": false,
          "internalType": "uint256",
          "name": "keyId",
          "type": "uint256"
        },
        {
          "indexed": false,
          "internalType": "uint256",
          "name": "amount",
          "type": "uint256"
        }
      ],
      "name": "setSoulboundKeyAmount",
      "type": "event"
    },
    {
      "inputs": [
        {
          "internalType": "address",
          "name": "account",
          "type": "address"
        },
        {
          "internalType": "uint256",
          "name": "id",
          "type": "uint256"
        }
      ],
      "name": "balanceOf",
      "outputs": [
        {
          "internalType": "uint256",
          "name": "",
          "type": "uint256"
        }
      ],
      "stateMutability": "view",
      "type": "function"
    },
    {
      "inputs": [
        {
          "internalType": "address[]",
          "name": "accounts",
          "type": "address[]"
        },
        {
          "internalType": "uint256[]",
          "name": "ids",
          "type": "uint256[]"
        }
      ],
      "name": "balanceOfBatch",
      "outputs": [
        {
          "internalType": "uint256[]",
          "name": "",
          "type": "uint256[]"
        }
      ],
      "stateMutability": "view",
      "type": "function"
    },
    {
      "inputs": [
        {
          "internalType": "address",
          "name": "holder",
          "type": "address"
        },
        {
          "internalType": "uint256",
          "name": "keyId",
          "type": "uint256"
        },
        {
          "internalType": "uint256",
          "name": "burnAmount",
          "type": "uint256"
        }
      ],
      "name": "burn",
      "outputs": [],
      "stateMutability": "nonpayable",
      "type": "function"
    },
    {
      "inputs": [
        {
          "internalType": "uint256",
          "name": "keyId",
          "type": "uint256"
        }
      ],
      "name": "getHolders",
      "outputs": [
        {
          "internalType": "address[]",
          "name": "",
          "type": "address[]"
        }
      ],
      "stateMutability": "view",
      "type": "function"
    },
    {
      "inputs": [
        {
          "internalType": "address",
          "name": "holder",
          "type": "address"
        }
      ],
      "name": "getKeys",
      "outputs": [
        {
          "internalType": "uint256[]",
          "name": "",
          "type": "uint256[]"
        }
      ],
      "stateMutability": "view",
      "type": "function"
    },
    {
      "inputs": [],
      "name": "initialize",
      "outputs": [],
      "stateMutability": "nonpayable",
      "type": "function"
    },
    {
      "inputs": [
        {
          "internalType": "address",
          "name": "account",
          "type": "address"
        },
        {
          "internalType": "address",
          "name": "operator",
          "type": "address"
        }
      ],
      "name": "isApprovedForAll",
      "outputs": [
        {
          "internalType": "bool",
          "name": "",
          "type": "bool"
        }
      ],
      "stateMutability": "view",
      "type": "function"
    },
    {
      "inputs": [
        {
          "internalType": "address",
          "name": "account",
          "type": "address"
        },
        {
          "internalType": "uint256",
          "name": "id",
          "type": "uint256"
        },
        {
          "internalType": "bool",
          "name": "soulbound",
          "type": "bool"
        }
      ],
      "name": "keyBalanceOf",
      "outputs": [
        {
          "internalType": "uint256",
          "name": "",
          "type": "uint256"
        }
      ],
      "stateMutability": "view",
      "type": "function"
    },
    {
      "inputs": [
        {
          "internalType": "uint256",
          "name": "",
          "type": "uint256"
        }
      ],
      "name": "keySupply",
      "outputs": [
        {
          "internalType": "uint256",
          "name": "",
          "type": "uint256"
        }
      ],
      "stateMutability": "view",
      "type": "function"
    },
    {
      "inputs": [],
      "name": "locksmith",
      "outputs": [
        {
          "internalType": "address",
          "name": "",
          "type": "address"
        }
      ],
      "stateMutability": "view",
      "type": "function"
    },
    {
      "inputs": [
        {
          "internalType": "address",
          "name": "receiver",
          "type": "address"
        },
        {
          "internalType": "uint256",
          "name": "keyId",
          "type": "uint256"
        },
        {
          "internalType": "uint256",
          "name": "amount",
          "type": "uint256"
        },
        {
          "internalType": "bytes",
          "name": "data",
          "type": "bytes"
        }
      ],
      "name": "mint",
      "outputs": [],
      "stateMutability": "nonpayable",
      "type": "function"
    },
    {
      "inputs": [],
      "name": "proxiableUUID",
      "outputs": [
        {
          "internalType": "bytes32",
          "name": "",
          "type": "bytes32"
        }
      ],
      "stateMutability": "view",
      "type": "function"
    },
    {
      "inputs": [
        {
          "internalType": "address",
          "name": "from",
          "type": "address"
        },
        {
          "internalType": "address",
          "name": "to",
          "type": "address"
        },
        {
          "internalType": "uint256[]",
          "name": "ids",
          "type": "uint256[]"
        },
        {
          "internalType": "uint256[]",
          "name": "amounts",
          "type": "uint256[]"
        },
        {
          "internalType": "bytes",
          "name": "data",
          "type": "bytes"
        }
      ],
      "name": "safeBatchTransferFrom",
      "outputs": [],
      "stateMutability": "nonpayable",
      "type": "function"
    },
    {
      "inputs": [
        {
          "internalType": "address",
          "name": "from",
          "type": "address"
        },
        {
          "internalType": "address",
          "name": "to",
          "type": "address"
        },
        {
          "internalType": "uint256",
          "name": "id",
          "type": "uint256"
        },
        {
          "internalType": "uint256",
          "name": "amount",
          "type": "uint256"
        },
        {
          "internalType": "bytes",
          "name": "data",
          "type": "bytes"
        }
      ],
      "name": "safeTransferFrom",
      "outputs": [],
      "stateMutability": "nonpayable",
      "type": "function"
    },
    {
      "inputs": [
        {
          "internalType": "address",
          "name": "operator",
          "type": "address"
        },
        {
          "internalType": "bool",
          "name": "approved",
          "type": "bool"
        }
      ],
      "name": "setApprovalForAll",
      "outputs": [],
      "stateMutability": "nonpayable",
      "type": "function"
    },
    {
      "inputs": [
        {
          "internalType": "address",
          "name": "_Locksmith",
          "type": "address"
        }
      ],
      "name": "setRespectedLocksmith",
      "outputs": [],
      "stateMutability": "nonpayable",
      "type": "function"
    },
    {
      "inputs": [
        {
          "internalType": "address",
          "name": "keyHolder",
          "type": "address"
        },
        {
          "internalType": "uint256",
          "name": "keyId",
          "type": "uint256"
        },
        {
          "internalType": "uint256",
          "name": "amount",
          "type": "uint256"
        }
      ],
      "name": "soulbind",
      "outputs": [],
      "stateMutability": "nonpayable",
      "type": "function"
    },
    {
      "inputs": [
        {
          "internalType": "bytes4",
          "name": "interfaceId",
          "type": "bytes4"
        }
      ],
      "name": "supportsInterface",
      "outputs": [
        {
          "internalType": "bool",
          "name": "",
          "type": "bool"
        }
      ],
      "stateMutability": "view",
      "type": "function"
    },
    {
      "inputs": [
        {
          "internalType": "address",
          "name": "newImplementation",
          "type": "address"
        }
      ],
      "name": "upgradeTo",
      "outputs": [],
      "stateMutability": "nonpayable",
      "type": "function"
    },
    {
      "inputs": [
        {
          "internalType": "address",
          "name": "newImplementation",
          "type": "address"
        },
        {
          "internalType": "bytes",
          "name": "data",
          "type": "bytes"
        }
      ],
      "name": "upgradeToAndCall",
      "outputs": [],
      "stateMutability": "payable",
      "type": "function"
    },
    {
      "inputs": [
        {
          "internalType": "uint256",
          "name": "",
          "type": "uint256"
        }
      ],
      "name": "uri",
      "outputs": [
        {
          "internalType": "string",
          "name": "",
          "type": "string"
        }
      ],
      "stateMutability": "view",
      "type": "function"
    }
  ],
  "bytecode": "0x60a0604052306080523480156200001557600080fd5b506200002062000026565b620000e8565b600054610100900460ff1615620000935760405162461bcd60e51b815260206004820152602760248201527f496e697469616c697a61626c653a20636f6e747261637420697320696e697469604482015266616c697a696e6760c81b606482015260840160405180910390fd5b60005460ff9081161015620000e6576000805460ff191660ff9081179091556040519081527f7f26b83ff96e1f2b6a682f133852f6798a09c465da95921460cefb38474024989060200160405180910390a15b565b608051612d68620001206000396000818161074f0152818161078f01528181610a1301528181610a530152610ae60152612d686000f3fe6080604052600436106101295760003560e01c80634e1273f4116100ab5780638f17ae321161006f5780638f17ae32146103425780639270786914610370578063a22cb4651461039d578063e985e9c5146103bd578063f242432a14610406578063f5298aca1461042657600080fd5b80634e1273f4146102c55780634f1ef286146102e557806352d1902d146102f8578063731133e91461030d5780638129fc1c1461032d57600080fd5b80632e9d4d85116100f25780632e9d4d85146102165780632eb2c2d61461023857806334e80c34146102585780633659cfe6146102855780633faf3d6b146102a557600080fd5b8062fdd58e1461012e57806301ffc9a7146101615780630e89341c1461019157806313fb817e146101be5780631eba59aa146101f6575b600080fd5b34801561013a57600080fd5b5061014e61014936600461224a565b610446565b6040519081526020015b60405180910390f35b34801561016d57600080fd5b5061018161017c36600461228a565b6104e1565b6040519015158152602001610158565b34801561019d57600080fd5b506101b16101ac3660046122a7565b610531565b6040516101589190612310565b3480156101ca57600080fd5b5060fc546101de906001600160a01b031681565b6040516001600160a01b039091168152602001610158565b34801561020257600080fd5b5061014e610211366004612333565b6105c5565b34801561022257600080fd5b5061023661023136600461236f565b61066d565b005b34801561024457600080fd5b506102366102533660046124d6565b6106d5565b34801561026457600080fd5b5061027861027336600461236f565b610721565b60405161015891906125bb565b34801561029157600080fd5b506102366102a036600461236f565b610745565b3480156102b157600080fd5b506102366102c03660046125ce565b610824565b3480156102d157600080fd5b506102786102e0366004612601565b6108df565b6102366102f33660046126cc565b610a09565b34801561030457600080fd5b5061014e610ad9565b34801561031957600080fd5b50610236610328366004612710565b610b8d565b34801561033957600080fd5b50610236610c3f565b34801561034e57600080fd5b5061014e61035d3660046122a7565b6101006020526000908152604090205481565b34801561037c57600080fd5b5061039061038b3660046122a7565b610d61565b60405161015891906127a4565b3480156103a957600080fd5b506102366103b83660046127f1565b610d7b565b3480156103c957600080fd5b506101816103d8366004612824565b6001600160a01b03918216600090815260666020908152604080832093909416825291909152205460ff1690565b34801561041257600080fd5b5061023661042136600461284e565b610d86565b34801561043257600080fd5b506102366104413660046125ce565b610dcb565b60006001600160a01b0383166104b65760405162461bcd60e51b815260206004820152602a60248201527f455243313135353a2061646472657373207a65726f206973206e6f742061207660448201526930b634b21037bbb732b960b11b60648201526084015b60405180910390fd5b5060008181526065602090815260408083206001600160a01b03861684529091529020545b92915050565b60006001600160e01b03198216636cdb3d1360e11b148061051257506001600160e01b031982166303a24d0760e21b145b806104db57506301ffc9a760e01b6001600160e01b03198316146104db565b606060678054610540906128b3565b80601f016020809104026020016040519081016040528092919081815260200182805461056c906128b3565b80156105b95780601f1061058e576101008083540402835291602001916105b9565b820191906000526020600020905b81548152906001019060200180831161059c57829003601f168201915b50505050509050919050565b60008161063e57604051627eeac760e11b81526001600160a01b038516600482015260248101849052309062fdd58e90604401602060405180830381865afa158015610615573d6000803e3d6000fd5b505050506040513d601f19601f8201168201806040525081019061063991906128ed565b610663565b6001600160a01b038416600090815260fd602090815260408083208684529091529020545b90505b9392505050565b60fb546001600160a01b031633146106b35760405162461bcd60e51b81526020600482015260096024820152682727aa2fa7aba722a960b91b60448201526064016104ad565b60fc80546001600160a01b0319166001600160a01b0392909216919091179055565b6001600160a01b0385163314806106f157506106f185336103d8565b61070d5760405162461bcd60e51b81526004016104ad90612906565b61071a8585858585610e6d565b5050505050565b6001600160a01b038116600090815260fe602052604090206060906104db9061105b565b6001600160a01b037f000000000000000000000000000000000000000000000000000000000000000016300361078d5760405162461bcd60e51b81526004016104ad90612955565b7f00000000000000000000000000000000000000000000000000000000000000006001600160a01b03166107d6600080516020612cec833981519152546001600160a01b031690565b6001600160a01b0316146107fc5760405162461bcd60e51b81526004016104ad906129a1565b61080581611068565b60408051600080825260208201909252610821918391906110ae565b50565b60fc546001600160a01b0316331461086e5760405162461bcd60e51b815260206004820152600d60248201526c09c9ea8be989e8696a69a92a89609b1b60448201526064016104ad565b6001600160a01b038316600081815260fd602090815260408083208684528252918290208490558151338152908101929092528101839052606081018290527fdd4ed73814d490cf0c19636b7b143543516fb68cc7d4fff60b44805e18913f449060800160405180910390a1505050565b606081518351146109445760405162461bcd60e51b815260206004820152602960248201527f455243313135353a206163636f756e747320616e6420696473206c656e677468604482015268040dad2e6dac2e8c6d60bb1b60648201526084016104ad565b6000835167ffffffffffffffff8111156109605761096061238a565b604051908082528060200260200182016040528015610989578160200160208202803683370190505b50905060005b8451811015610a01576109d48582815181106109ad576109ad6129ed565b60200260200101518583815181106109c7576109c76129ed565b6020026020010151610446565b8282815181106109e6576109e66129ed565b60209081029190910101526109fa81612a19565b905061098f565b509392505050565b6001600160a01b037f0000000000000000000000000000000000000000000000000000000000000000163003610a515760405162461bcd60e51b81526004016104ad90612955565b7f00000000000000000000000000000000000000000000000000000000000000006001600160a01b0316610a9a600080516020612cec833981519152546001600160a01b031690565b6001600160a01b031614610ac05760405162461bcd60e51b81526004016104ad906129a1565b610ac982611068565b610ad5828260016110ae565b5050565b6000306001600160a01b037f00000000000000000000000000000000000000000000000000000000000000001614610b795760405162461bcd60e51b815260206004820152603860248201527f555550535570677261646561626c653a206d757374206e6f742062652063616c60448201527f6c6564207468726f7567682064656c656761746563616c6c000000000000000060648201526084016104ad565b50600080516020612cec8339815191525b90565b60fc546001600160a01b03163314610bd75760405162461bcd60e51b815260206004820152600d60248201526c09c9ea8be989e8696a69a92a89609b1b60448201526064016104ad565b6000848152610100602052604081208054859290610bf6908490612a32565b9250508190555061071a85858585858080601f01602080910402602001604051908101604052809392919081815260200183838082843760009201919091525061121992505050565b600054610100900460ff1615808015610c5f5750600054600160ff909116105b80610c795750303b158015610c79575060005460ff166001145b610cdc5760405162461bcd60e51b815260206004820152602e60248201527f496e697469616c697a61626c653a20636f6e747261637420697320616c72656160448201526d191e481a5b9a5d1a585b1a5e995960921b60648201526084016104ad565b6000805460ff191660011790558015610cff576000805461ff0019166101001790555b60fb80546001600160a01b03191633179055610d1961133e565b8015610821576000805461ff0019169055604051600181527f7f26b83ff96e1f2b6a682f133852f6798a09c465da95921460cefb38474024989060200160405180910390a150565b600081815260ff602052604090206060906104db9061105b565b610ad53383836113ab565b6001600160a01b038516331480610da25750610da285336103d8565b610dbe5760405162461bcd60e51b81526004016104ad90612906565b61071a858585858561148b565b60fc546001600160a01b0316331480610dec57506001600160a01b03831633145b610e385760405162461bcd60e51b815260206004820152601760248201527f4e4f545f4c4f434b534d4954485f4f525f484f4c44455200000000000000000060448201526064016104ad565b6000828152610100602052604081208054839290610e57908490612a45565b90915550610e6890508383836115c7565b505050565b8151835114610ecf5760405162461bcd60e51b815260206004820152602860248201527f455243313135353a2069647320616e6420616d6f756e7473206c656e677468206044820152670dad2e6dac2e8c6d60c31b60648201526084016104ad565b6001600160a01b038416610ef55760405162461bcd60e51b81526004016104ad90612a58565b33610f0481878787878761175b565b60005b8451811015610fed576000858281518110610f2457610f246129ed565b602002602001015190506000858381518110610f4257610f426129ed565b60209081029190910181015160008481526065835260408082206001600160a01b038e168352909352919091205490915081811015610f935760405162461bcd60e51b81526004016104ad90612a9d565b60008381526065602090815260408083206001600160a01b038e8116855292528083208585039055908b16825281208054849290610fd2908490612a32565b9250508190555050505080610fe690612a19565b9050610f07565b50846001600160a01b0316866001600160a01b0316826001600160a01b03167f4a39dc06d4c0dbc64b70af90fd698a233a518aa5d07e595d983b8c0526c8f7fb878760405161103d929190612ae7565b60405180910390a4611053818787878787611bba565b505050505050565b6060600061066683611d15565b60fb546001600160a01b031633146108215760405162461bcd60e51b81526020600482015260096024820152682727aa2fa7aba722a960b91b60448201526064016104ad565b7f4910fdfa16fed3260ed0e7147f7cc6da11a60208b5b9406d12a635614ffd91435460ff16156110e157610e6883611d70565b826001600160a01b03166352d1902d6040518163ffffffff1660e01b8152600401602060405180830381865afa92505050801561113b575060408051601f3d908101601f19168201909252611138918101906128ed565b60015b61119e5760405162461bcd60e51b815260206004820152602e60248201527f45524331393637557067726164653a206e657720696d706c656d656e7461746960448201526d6f6e206973206e6f74205555505360901b60648201526084016104ad565b600080516020612cec833981519152811461120d5760405162461bcd60e51b815260206004820152602960248201527f45524331393637557067726164653a20756e737570706f727465642070726f786044820152681a58589b195555525160ba1b60648201526084016104ad565b50610e68838383611e0c565b6001600160a01b0384166112795760405162461bcd60e51b815260206004820152602160248201527f455243313135353a206d696e7420746f20746865207a65726f206164647265736044820152607360f81b60648201526084016104ad565b33600061128585611e37565b9050600061129285611e37565b90506112a38360008985858961175b565b60008681526065602090815260408083206001600160a01b038b168452909152812080548792906112d5908490612a32565b909155505060408051878152602081018790526001600160a01b03808a1692600092918716917fc3d58168c5ae7397731d063d5bbf3d657854427343f4c083240f7aacaa2d0f62910160405180910390a461133583600089898989611e82565b50505050505050565b600054610100900460ff166113a95760405162461bcd60e51b815260206004820152602b60248201527f496e697469616c697a61626c653a20636f6e7472616374206973206e6f74206960448201526a6e697469616c697a696e6760a81b60648201526084016104ad565b565b816001600160a01b0316836001600160a01b03160361141e5760405162461bcd60e51b815260206004820152602960248201527f455243313135353a2073657474696e6720617070726f76616c20737461747573604482015268103337b91039b2b63360b91b60648201526084016104ad565b6001600160a01b03838116600081815260666020908152604080832094871680845294825291829020805460ff191686151590811790915591519182527f17307eab39ab6107e8899845ad3d59bd9653f200f220920489ca2b5937696c31910160405180910390a3505050565b6001600160a01b0384166114b15760405162461bcd60e51b81526004016104ad90612a58565b3360006114bd85611e37565b905060006114ca85611e37565b90506114da83898985858961175b565b60008681526065602090815260408083206001600160a01b038c1684529091529020548581101561151d5760405162461bcd60e51b81526004016104ad90612a9d565b60008781526065602090815260408083206001600160a01b038d8116855292528083208985039055908a1682528120805488929061155c908490612a32565b909155505060408051888152602081018890526001600160a01b03808b16928c821692918816917fc3d58168c5ae7397731d063d5bbf3d657854427343f4c083240f7aacaa2d0f62910160405180910390a46115bc848a8a8a8a8a611e82565b505050505050505050565b6001600160a01b0383166116295760405162461bcd60e51b815260206004820152602360248201527f455243313135353a206275726e2066726f6d20746865207a65726f206164647260448201526265737360e81b60648201526084016104ad565b33600061163584611e37565b9050600061164284611e37565b90506116628387600085856040518060200160405280600081525061175b565b60008581526065602090815260408083206001600160a01b038a168452909152902054848110156116e15760405162461bcd60e51b8152602060048201526024808201527f455243313135353a206275726e20616d6f756e7420657863656564732062616c604482015263616e636560e01b60648201526084016104ad565b60008681526065602090815260408083206001600160a01b038b81168086529184528285208a8703905582518b81529384018a90529092908816917fc3d58168c5ae7397731d063d5bbf3d657854427343f4c083240f7aacaa2d0f62910160405180910390a4604080516020810190915260009052611335565b60005b8351811015611335576001600160a01b038616158061178a575060fc546001600160a01b038881169116145b8061189857506001600160a01b038616600090815260fd6020526040812085519091908690849081106117bf576117bf6129ed565b60200260200101518152602001908152602001600020548382815181106117e8576117e86129ed565b6020026020010151306001600160a01b031662fdd58e89888681518110611811576118116129ed565b60200260200101516040518363ffffffff1660e01b815260040161184a9291906001600160a01b03929092168252602082015260400190565b602060405180830381865afa158015611867573d6000803e3d6000fd5b505050506040513d601f19601f8201168201806040525081019061188b91906128ed565b6118959190612a45565b10155b6118d25760405162461bcd60e51b815260206004820152600b60248201526a0a69eaa98be84a48a8286960ab1b60448201526064016104ad565b6001600160a01b038616158015906119a657508281815181106118f7576118f76129ed565b6020026020010151306001600160a01b031662fdd58e88878581518110611920576119206129ed565b60200260200101516040518363ffffffff1660e01b81526004016119599291906001600160a01b03929092168252602082015260400190565b602060405180830381865afa158015611976573d6000803e3d6000fd5b505050506040513d601f19601f8201168201806040525081019061199a91906128ed565b6119a49190612a45565b155b15611a3c576119fb8482815181106119c0576119c06129ed565b602002602001015160fe6000896001600160a01b03166001600160a01b03168152602001908152602001600020611f3d90919063ffffffff16565b50611a3a8660ff6000878581518110611a1657611a166129ed565b60200260200101518152602001908152602001600020611f4990919063ffffffff16565b505b6001600160a01b03851615801590611b1257506000838281518110611a6357611a636129ed565b6020026020010151306001600160a01b031662fdd58e88888681518110611a8c57611a8c6129ed565b60200260200101516040518363ffffffff1660e01b8152600401611ac59291906001600160a01b03929092168252602082015260400190565b602060405180830381865afa158015611ae2573d6000803e3d6000fd5b505050506040513d601f19601f82011682018060405250810190611b0691906128ed565b611b109190612a32565b115b15611ba857611b67848281518110611b2c57611b2c6129ed565b602002602001015160fe6000886001600160a01b03166001600160a01b03168152602001908152602001600020611f5e90919063ffffffff16565b50611ba68560ff6000878581518110611b8257611b826129ed565b60200260200101518152602001908152602001600020611f6a90919063ffffffff16565b505b80611bb281612a19565b91505061175e565b6001600160a01b0384163b156110535760405163bc197c8160e01b81526001600160a01b0385169063bc197c8190611bfe9089908990889088908890600401612b0c565b6020604051808303816000875af1925050508015611c39575060408051601f3d908101601f19168201909252611c3691810190612b6a565b60015b611ce557611c45612b87565b806308c379a003611c7e5750611c59612ba2565b80611c645750611c80565b8060405162461bcd60e51b81526004016104ad9190612310565b505b60405162461bcd60e51b815260206004820152603460248201527f455243313135353a207472616e7366657220746f206e6f6e20455243313135356044820152732932b1b2b4bb32b91034b6b83632b6b2b73a32b960611b60648201526084016104ad565b6001600160e01b0319811663bc197c8160e01b146113355760405162461bcd60e51b81526004016104ad90612c2c565b6060816000018054806020026020016040519081016040528092919081815260200182805480156105b957602002820191906000526020600020905b815481526020019060010190808311611d515750505050509050919050565b6001600160a01b0381163b611ddd5760405162461bcd60e51b815260206004820152602d60248201527f455243313936373a206e657720696d706c656d656e746174696f6e206973206e60448201526c1bdd08184818dbdb9d1c9858dd609a1b60648201526084016104ad565b600080516020612cec83398151915280546001600160a01b0319166001600160a01b0392909216919091179055565b611e1583611f7f565b600082511180611e225750805b15610e6857611e318383611fbf565b50505050565b60408051600180825281830190925260609160009190602080830190803683370190505090508281600081518110611e7157611e716129ed565b602090810291909101015292915050565b6001600160a01b0384163b156110535760405163f23a6e6160e01b81526001600160a01b0385169063f23a6e6190611ec69089908990889088908890600401612c74565b6020604051808303816000875af1925050508015611f01575060408051601f3d908101601f19168201909252611efe91810190612b6a565b60015b611f0d57611c45612b87565b6001600160e01b0319811663f23a6e6160e01b146113355760405162461bcd60e51b81526004016104ad90612c2c565b600061066683836120b3565b6000610666836001600160a01b0384166120b3565b600061066683836121a6565b6000610666836001600160a01b0384166121a6565b611f8881611d70565b6040516001600160a01b038216907fbc7cd75a20ee27fd9adebab32041f755214dbc6bffa90cc0225b39da2e5c2d3b90600090a250565b60606001600160a01b0383163b6120275760405162461bcd60e51b815260206004820152602660248201527f416464726573733a2064656c65676174652063616c6c20746f206e6f6e2d636f6044820152651b9d1c9858dd60d21b60648201526084016104ad565b600080846001600160a01b0316846040516120429190612cb9565b600060405180830381855af49150503d806000811461207d576040519150601f19603f3d011682016040523d82523d6000602084013e612082565b606091505b50915091506120aa8282604051806060016040528060278152602001612d0c602791396121f5565b95945050505050565b6000818152600183016020526040812054801561219c5760006120d7600183612a45565b85549091506000906120eb90600190612a45565b905081811461215057600086600001828154811061210b5761210b6129ed565b906000526020600020015490508087600001848154811061212e5761212e6129ed565b6000918252602080832090910192909255918252600188019052604090208390555b855486908061216157612161612cd5565b6001900381819060005260206000200160009055905585600101600086815260200190815260200160002060009055600193505050506104db565b60009150506104db565b60008181526001830160205260408120546121ed575081546001818101845560008481526020808220909301849055845484825282860190935260409020919091556104db565b5060006104db565b60608315612204575081610666565b8251156122145782518084602001fd5b8160405162461bcd60e51b81526004016104ad9190612310565b80356001600160a01b038116811461224557600080fd5b919050565b6000806040838503121561225d57600080fd5b6122668361222e565b946020939093013593505050565b6001600160e01b03198116811461082157600080fd5b60006020828403121561229c57600080fd5b813561066681612274565b6000602082840312156122b957600080fd5b5035919050565b60005b838110156122db5781810151838201526020016122c3565b50506000910152565b600081518084526122fc8160208601602086016122c0565b601f01601f19169290920160200192915050565b60208152600061066660208301846122e4565b8035801515811461224557600080fd5b60008060006060848603121561234857600080fd5b6123518461222e565b92506020840135915061236660408501612323565b90509250925092565b60006020828403121561238157600080fd5b6106668261222e565b634e487b7160e01b600052604160045260246000fd5b601f8201601f1916810167ffffffffffffffff811182821017156123c6576123c661238a565b6040525050565b600067ffffffffffffffff8211156123e7576123e761238a565b5060051b60200190565b600082601f83011261240257600080fd5b8135602061240f826123cd565b60405161241c82826123a0565b83815260059390931b850182019282810191508684111561243c57600080fd5b8286015b848110156124575780358352918301918301612440565b509695505050505050565b600082601f83011261247357600080fd5b813567ffffffffffffffff81111561248d5761248d61238a565b6040516124a4601f8301601f1916602001826123a0565b8181528460208386010111156124b957600080fd5b816020850160208301376000918101602001919091529392505050565b600080600080600060a086880312156124ee57600080fd5b6124f78661222e565b94506125056020870161222e565b9350604086013567ffffffffffffffff8082111561252257600080fd5b61252e89838a016123f1565b9450606088013591508082111561254457600080fd5b61255089838a016123f1565b9350608088013591508082111561256657600080fd5b5061257388828901612462565b9150509295509295909350565b600081518084526020808501945080840160005b838110156125b057815187529582019590820190600101612594565b509495945050505050565b6020815260006106666020830184612580565b6000806000606084860312156125e357600080fd5b6125ec8461222e565b95602085013595506040909401359392505050565b6000806040838503121561261457600080fd5b823567ffffffffffffffff8082111561262c57600080fd5b818501915085601f83011261264057600080fd5b8135602061264d826123cd565b60405161265a82826123a0565b83815260059390931b850182019282810191508984111561267a57600080fd5b948201945b8386101561269f576126908661222e565b8252948201949082019061267f565b965050860135925050808211156126b557600080fd5b506126c2858286016123f1565b9150509250929050565b600080604083850312156126df57600080fd5b6126e88361222e565b9150602083013567ffffffffffffffff81111561270457600080fd5b6126c285828601612462565b60008060008060006080868803121561272857600080fd5b6127318661222e565b94506020860135935060408601359250606086013567ffffffffffffffff8082111561275c57600080fd5b818801915088601f83011261277057600080fd5b81358181111561277f57600080fd5b89602082850101111561279157600080fd5b9699959850939650602001949392505050565b6020808252825182820181905260009190848201906040850190845b818110156127e55783516001600160a01b0316835292840192918401916001016127c0565b50909695505050505050565b6000806040838503121561280457600080fd5b61280d8361222e565b915061281b60208401612323565b90509250929050565b6000806040838503121561283757600080fd5b6128408361222e565b915061281b6020840161222e565b600080600080600060a0868803121561286657600080fd5b61286f8661222e565b945061287d6020870161222e565b93506040860135925060608601359150608086013567ffffffffffffffff8111156128a757600080fd5b61257388828901612462565b600181811c908216806128c757607f821691505b6020821081036128e757634e487b7160e01b600052602260045260246000fd5b50919050565b6000602082840312156128ff57600080fd5b5051919050565b6020808252602f908201527f455243313135353a2063616c6c6572206973206e6f7420746f6b656e206f776e60408201526e195c881b9bdc88185c1c1c9bdd9959608a1b606082015260800190565b6020808252602c908201527f46756e6374696f6e206d7573742062652063616c6c6564207468726f7567682060408201526b19195b1959d85d1958d85b1b60a21b606082015260800190565b6020808252602c908201527f46756e6374696f6e206d7573742062652063616c6c6564207468726f7567682060408201526b6163746976652070726f787960a01b606082015260800190565b634e487b7160e01b600052603260045260246000fd5b634e487b7160e01b600052601160045260246000fd5b600060018201612a2b57612a2b612a03565b5060010190565b808201808211156104db576104db612a03565b818103818111156104db576104db612a03565b60208082526025908201527f455243313135353a207472616e7366657220746f20746865207a65726f206164604082015264647265737360d81b606082015260800190565b6020808252602a908201527f455243313135353a20696e73756666696369656e742062616c616e636520666f60408201526939103a3930b739b332b960b11b606082015260800190565b604081526000612afa6040830185612580565b82810360208401526120aa8185612580565b6001600160a01b0386811682528516602082015260a060408201819052600090612b3890830186612580565b8281036060840152612b4a8186612580565b90508281036080840152612b5e81856122e4565b98975050505050505050565b600060208284031215612b7c57600080fd5b815161066681612274565b600060033d1115610b8a5760046000803e5060005160e01c90565b600060443d1015612bb05790565b6040516003193d81016004833e81513d67ffffffffffffffff8160248401118184111715612be057505050505090565b8285019150815181811115612bf85750505050505090565b843d8701016020828501011115612c125750505050505090565b612c21602082860101876123a0565b509095945050505050565b60208082526028908201527f455243313135353a204552433131353552656365697665722072656a656374656040820152676420746f6b656e7360c01b606082015260800190565b6001600160a01b03868116825285166020820152604081018490526060810183905260a060808201819052600090612cae908301846122e4565b979650505050505050565b60008251612ccb8184602087016122c0565b9190910192915050565b634e487b7160e01b600052603160045260246000fdfe360894a13ba1a3210667c828492db98dca3e2076cc3735a920a3ca505d382bbc416464726573733a206c6f772d6c6576656c2064656c65676174652063616c6c206661696c6564a26469706673582212201fb9abcbe8cf43de8e17359bd36a24bbfe61615f1865fc57fa5f116917efe80964736f6c63430008100033",
  "linkReferences": {},
  "deployedLinkReferences": {}
}