{
  "_format": "hh-sol-artifact-1",
  "contractName": "KeyVault",
  "sourceName": "contracts/KeyVault.sol",
  "abi": [
    {
      "inputs": [],
      "stateMutability": "nonpayable",
      "type": "constructor"
    },
    {
      "anonymous": false,
      "inputs": [
        {
          "indexed": false,
          "internalType": "address",
          "name": "previousAdmin",
          "type": "address"
        },
        {
          "indexed": false,
          "internalType": "address",
          "name": "newAdmin",
          "type": "address"
        }
      ],
      "name": "AdminChanged",
      "type": "event"
    },
    {
      "anonymous": false,
      "inputs": [
        {
          "indexed": true,
          "internalType": "address",
          "name": "account",
          "type": "address"
        },
        {
          "indexed": true,
          "internalType": "address",
          "name": "operator",
          "type": "address"
        },
        {
          "indexed": false,
          "internalType": "bool",
          "name": "approved",
          "type": "bool"
        }
      ],
      "name": "ApprovalForAll",
      "type": "event"
    },
    {
      "anonymous": false,
      "inputs": [
        {
          "indexed": true,
          "internalType": "address",
          "name": "beacon",
          "type": "address"
        }
      ],
      "name": "BeaconUpgraded",
      "type": "event"
    },
    {
      "anonymous": false,
      "inputs": [
        {
          "indexed": false,
          "internalType": "uint8",
          "name": "version",
          "type": "uint8"
        }
      ],
      "name": "Initialized",
      "type": "event"
    },
    {
      "anonymous": false,
      "inputs": [
        {
          "indexed": true,
          "internalType": "address",
          "name": "operator",
          "type": "address"
        },
        {
          "indexed": true,
          "internalType": "address",
          "name": "from",
          "type": "address"
        },
        {
          "indexed": true,
          "internalType": "address",
          "name": "to",
          "type": "address"
        },
        {
          "indexed": false,
          "internalType": "uint256[]",
          "name": "ids",
          "type": "uint256[]"
        },
        {
          "indexed": false,
          "internalType": "uint256[]",
          "name": "values",
          "type": "uint256[]"
        }
      ],
      "name": "TransferBatch",
      "type": "event"
    },
    {
      "anonymous": false,
      "inputs": [
        {
          "indexed": true,
          "internalType": "address",
          "name": "operator",
          "type": "address"
        },
        {
          "indexed": true,
          "internalType": "address",
          "name": "from",
          "type": "address"
        },
        {
          "indexed": true,
          "internalType": "address",
          "name": "to",
          "type": "address"
        },
        {
          "indexed": false,
          "internalType": "uint256",
          "name": "id",
          "type": "uint256"
        },
        {
          "indexed": false,
          "internalType": "uint256",
          "name": "value",
          "type": "uint256"
        }
      ],
      "name": "TransferSingle",
      "type": "event"
    },
    {
      "anonymous": false,
      "inputs": [
        {
          "indexed": false,
          "internalType": "string",
          "name": "value",
          "type": "string"
        },
        {
          "indexed": true,
          "internalType": "uint256",
          "name": "id",
          "type": "uint256"
        }
      ],
      "name": "URI",
      "type": "event"
    },
    {
      "anonymous": false,
      "inputs": [
        {
          "indexed": true,
          "internalType": "address",
          "name": "implementation",
          "type": "address"
        }
      ],
      "name": "Upgraded",
      "type": "event"
    },
    {
      "anonymous": false,
      "inputs": [
        {
          "indexed": false,
          "internalType": "address",
          "name": "operator",
          "type": "address"
        },
        {
          "indexed": false,
          "internalType": "address",
          "name": "keyHolder",
          "type": "address"
        },
        {
          "indexed": false,
          "internalType": "uint256",
          "name": "keyId",
          "type": "uint256"
        },
        {
          "indexed": false,
          "internalType": "uint256",
          "name": "amount",
          "type": "uint256"
        }
      ],
      "name": "setSoulboundKeyAmount",
      "type": "event"
    },
    {
      "inputs": [
        {
          "internalType": "address",
          "name": "account",
          "type": "address"
        },
        {
          "internalType": "uint256",
          "name": "id",
          "type": "uint256"
        }
      ],
      "name": "balanceOf",
      "outputs": [
        {
          "internalType": "uint256",
          "name": "",
          "type": "uint256"
        }
      ],
      "stateMutability": "view",
      "type": "function"
    },
    {
      "inputs": [
        {
          "internalType": "address[]",
          "name": "accounts",
          "type": "address[]"
        },
        {
          "internalType": "uint256[]",
          "name": "ids",
          "type": "uint256[]"
        }
      ],
      "name": "balanceOfBatch",
      "outputs": [
        {
          "internalType": "uint256[]",
          "name": "",
          "type": "uint256[]"
        }
      ],
      "stateMutability": "view",
      "type": "function"
    },
    {
      "inputs": [
        {
          "internalType": "address",
          "name": "holder",
          "type": "address"
        },
        {
          "internalType": "uint256",
          "name": "keyId",
          "type": "uint256"
        },
        {
          "internalType": "uint256",
          "name": "burnAmount",
          "type": "uint256"
        }
      ],
      "name": "burn",
      "outputs": [],
      "stateMutability": "nonpayable",
      "type": "function"
    },
    {
      "inputs": [
        {
          "internalType": "uint256",
          "name": "keyId",
          "type": "uint256"
        }
      ],
      "name": "getHolders",
      "outputs": [
        {
          "internalType": "address[]",
          "name": "",
          "type": "address[]"
        }
      ],
      "stateMutability": "view",
      "type": "function"
    },
    {
      "inputs": [
        {
          "internalType": "address",
          "name": "holder",
          "type": "address"
        }
      ],
      "name": "getKeys",
      "outputs": [
        {
          "internalType": "uint256[]",
          "name": "",
          "type": "uint256[]"
        }
      ],
      "stateMutability": "view",
      "type": "function"
    },
    {
      "inputs": [],
      "name": "initialize",
      "outputs": [],
      "stateMutability": "nonpayable",
      "type": "function"
    },
    {
      "inputs": [
        {
          "internalType": "address",
          "name": "account",
          "type": "address"
        },
        {
          "internalType": "address",
          "name": "operator",
          "type": "address"
        }
      ],
      "name": "isApprovedForAll",
      "outputs": [
        {
          "internalType": "bool",
          "name": "",
          "type": "bool"
        }
      ],
      "stateMutability": "view",
      "type": "function"
    },
    {
      "inputs": [
        {
          "internalType": "address",
          "name": "account",
          "type": "address"
        },
        {
          "internalType": "uint256",
          "name": "id",
          "type": "uint256"
        },
        {
          "internalType": "bool",
          "name": "soulbound",
          "type": "bool"
        }
      ],
      "name": "keyBalanceOf",
      "outputs": [
        {
          "internalType": "uint256",
          "name": "",
          "type": "uint256"
        }
      ],
      "stateMutability": "view",
      "type": "function"
    },
    {
      "inputs": [
        {
          "internalType": "uint256",
          "name": "",
          "type": "uint256"
        }
      ],
      "name": "keySupply",
      "outputs": [
        {
          "internalType": "uint256",
          "name": "",
          "type": "uint256"
        }
      ],
      "stateMutability": "view",
      "type": "function"
    },
    {
      "inputs": [],
      "name": "locksmith",
      "outputs": [
        {
          "internalType": "address",
          "name": "",
          "type": "address"
        }
      ],
      "stateMutability": "view",
      "type": "function"
    },
    {
      "inputs": [
        {
          "internalType": "address",
          "name": "receiver",
          "type": "address"
        },
        {
          "internalType": "uint256",
          "name": "keyId",
          "type": "uint256"
        },
        {
          "internalType": "uint256",
          "name": "amount",
          "type": "uint256"
        },
        {
          "internalType": "bytes",
          "name": "data",
          "type": "bytes"
        }
      ],
      "name": "mint",
      "outputs": [],
      "stateMutability": "nonpayable",
      "type": "function"
    },
    {
      "inputs": [],
      "name": "proxiableUUID",
      "outputs": [
        {
          "internalType": "bytes32",
          "name": "",
          "type": "bytes32"
        }
      ],
      "stateMutability": "view",
      "type": "function"
    },
    {
      "inputs": [
        {
          "internalType": "address",
          "name": "from",
          "type": "address"
        },
        {
          "internalType": "address",
          "name": "to",
          "type": "address"
        },
        {
          "internalType": "uint256[]",
          "name": "ids",
          "type": "uint256[]"
        },
        {
          "internalType": "uint256[]",
          "name": "amounts",
          "type": "uint256[]"
        },
        {
          "internalType": "bytes",
          "name": "data",
          "type": "bytes"
        }
      ],
      "name": "safeBatchTransferFrom",
      "outputs": [],
      "stateMutability": "nonpayable",
      "type": "function"
    },
    {
      "inputs": [
        {
          "internalType": "address",
          "name": "from",
          "type": "address"
        },
        {
          "internalType": "address",
          "name": "to",
          "type": "address"
        },
        {
          "internalType": "uint256",
          "name": "id",
          "type": "uint256"
        },
        {
          "internalType": "uint256",
          "name": "amount",
          "type": "uint256"
        },
        {
          "internalType": "bytes",
          "name": "data",
          "type": "bytes"
        }
      ],
      "name": "safeTransferFrom",
      "outputs": [],
      "stateMutability": "nonpayable",
      "type": "function"
    },
    {
      "inputs": [
        {
          "internalType": "address",
          "name": "operator",
          "type": "address"
        },
        {
          "internalType": "bool",
          "name": "approved",
          "type": "bool"
        }
      ],
      "name": "setApprovalForAll",
      "outputs": [],
      "stateMutability": "nonpayable",
      "type": "function"
    },
    {
      "inputs": [
        {
          "internalType": "address",
          "name": "_Locksmith",
          "type": "address"
        }
      ],
      "name": "setRespectedLocksmith",
      "outputs": [],
      "stateMutability": "nonpayable",
      "type": "function"
    },
    {
      "inputs": [
        {
          "internalType": "address",
          "name": "keyHolder",
          "type": "address"
        },
        {
          "internalType": "uint256",
          "name": "keyId",
          "type": "uint256"
        },
        {
          "internalType": "uint256",
          "name": "amount",
          "type": "uint256"
        }
      ],
      "name": "soulbind",
      "outputs": [],
      "stateMutability": "nonpayable",
      "type": "function"
    },
    {
      "inputs": [
        {
          "internalType": "bytes4",
          "name": "interfaceId",
          "type": "bytes4"
        }
      ],
      "name": "supportsInterface",
      "outputs": [
        {
          "internalType": "bool",
          "name": "",
          "type": "bool"
        }
      ],
      "stateMutability": "view",
      "type": "function"
    },
    {
      "inputs": [
        {
          "internalType": "address",
          "name": "newImplementation",
          "type": "address"
        }
      ],
      "name": "upgradeTo",
      "outputs": [],
      "stateMutability": "nonpayable",
      "type": "function"
    },
    {
      "inputs": [
        {
          "internalType": "address",
          "name": "newImplementation",
          "type": "address"
        },
        {
          "internalType": "bytes",
          "name": "data",
          "type": "bytes"
        }
      ],
      "name": "upgradeToAndCall",
      "outputs": [],
      "stateMutability": "payable",
      "type": "function"
    },
    {
      "inputs": [
        {
          "internalType": "uint256",
          "name": "",
          "type": "uint256"
        }
      ],
      "name": "uri",
      "outputs": [
        {
          "internalType": "string",
          "name": "",
          "type": "string"
        }
      ],
      "stateMutability": "view",
      "type": "function"
    }
  ],
  "bytecode": "0x60a0604052306080523480156200001557600080fd5b506200002062000026565b620000e8565b600054610100900460ff1615620000935760405162461bcd60e51b815260206004820152602760248201527f496e697469616c697a61626c653a20636f6e747261637420697320696e697469604482015266616c697a696e6760c81b606482015260840160405180910390fd5b60005460ff9081161015620000e6576000805460ff191660ff9081179091556040519081527f7f26b83ff96e1f2b6a682f133852f6798a09c465da95921460cefb38474024989060200160405180910390a15b565b6080516131166200012060003960008181610869015281816108ee01528181610bdd01528181610c620152610d4c01526131166000f3fe6080604052600436106101695760003560e01c80634e1273f4116100cb5780638f17ae321161007f578063e985e9c511610059578063e985e9c5146103fd578063f242432a14610446578063f5298aca1461046657600080fd5b80638f17ae321461038257806392707869146103b0578063a22cb465146103dd57600080fd5b806352d1902d116100b057806352d1902d14610338578063731133e91461034d5780638129fc1c1461036d57600080fd5b80634e1273f4146103055780634f1ef2861461032557600080fd5b80632e9d4d851161012257806334e80c341161010757806334e80c34146102985780633659cfe6146102c55780633faf3d6b146102e557600080fd5b80632e9d4d85146102565780632eb2c2d61461027857600080fd5b80630e89341c116101535780630e89341c146101d157806313fb817e146101fe5780631eba59aa1461023657600080fd5b8062fdd58e1461016e57806301ffc9a7146101a1575b600080fd5b34801561017a57600080fd5b5061018e6101893660046127d8565b610486565b6040519081526020015b60405180910390f35b3480156101ad57600080fd5b506101c16101bc366004612818565b610534565b6040519015158152602001610198565b3480156101dd57600080fd5b506101f16101ec366004612835565b6105cf565b604051610198919061289e565b34801561020a57600080fd5b5060fc5461021e906001600160a01b031681565b6040516001600160a01b039091168152602001610198565b34801561024257600080fd5b5061018e6102513660046128c1565b610663565b34801561026257600080fd5b506102766102713660046128fd565b610724565b005b34801561028457600080fd5b50610276610293366004612a64565b610799565b3480156102a457600080fd5b506102b86102b33660046128fd565b61083b565b6040516101989190612b49565b3480156102d157600080fd5b506102766102e03660046128fd565b61085f565b3480156102f157600080fd5b50610276610300366004612b5c565b6109da565b34801561031157600080fd5b506102b8610320366004612b8f565b610a95565b610276610333366004612c5a565b610bd3565b34801561034457600080fd5b5061018e610d3f565b34801561035957600080fd5b50610276610368366004612c9e565b610e05565b34801561037957600080fd5b50610276610eb7565b34801561038e57600080fd5b5061018e61039d366004612835565b6101006020526000908152604090205481565b3480156103bc57600080fd5b506103d06103cb366004612835565b610ff5565b6040516101989190612d32565b3480156103e957600080fd5b506102766103f8366004612d7f565b61100f565b34801561040957600080fd5b506101c1610418366004612db2565b6001600160a01b03918216600090815260666020908152604080832093909416825291909152205460ff1690565b34801561045257600080fd5b50610276610461366004612ddc565b61101a565b34801561047257600080fd5b50610276610481366004612b5c565b6110b5565b60006001600160a01b0383166105095760405162461bcd60e51b815260206004820152602a60248201527f455243313135353a2061646472657373207a65726f206973206e6f742061207660448201527f616c6964206f776e65720000000000000000000000000000000000000000000060648201526084015b60405180910390fd5b5060008181526065602090815260408083206001600160a01b03861684529091529020545b92915050565b60006001600160e01b031982167fd9b67a2600000000000000000000000000000000000000000000000000000000148061059757506001600160e01b031982167f0e89341c00000000000000000000000000000000000000000000000000000000145b8061052e57507f01ffc9a7000000000000000000000000000000000000000000000000000000006001600160e01b031983161461052e565b6060606780546105de90612e41565b80601f016020809104026020016040519081016040528092919081815260200182805461060a90612e41565b80156106575780601f1061062c57610100808354040283529160200191610657565b820191906000526020600020905b81548152906001019060200180831161063a57829003601f168201915b50505050509050919050565b6000816106f5576040517efdd58e0000000000000000000000000000000000000000000000000000000081526001600160a01b038516600482015260248101849052309062fdd58e90604401602060405180830381865afa1580156106cc573d6000803e3d6000fd5b505050506040513d601f19601f820116820180604052508101906106f09190612e7b565b61071a565b6001600160a01b038416600090815260fd602090815260408083208684529091529020545b90505b9392505050565b60fb546001600160a01b0316331461076a5760405162461bcd60e51b81526020600482015260096024820152682727aa2fa7aba722a960b91b6044820152606401610500565b60fc805473ffffffffffffffffffffffffffffffffffffffff19166001600160a01b0392909216919091179055565b6001600160a01b0385163314806107b557506107b58533610418565b6108275760405162461bcd60e51b815260206004820152602f60248201527f455243313135353a2063616c6c6572206973206e6f7420746f6b656e206f776e60448201527f6572206e6f7220617070726f76656400000000000000000000000000000000006064820152608401610500565b6108348585858585611157565b5050505050565b6001600160a01b038116600090815260fe6020526040902060609061052e906113db565b6001600160a01b037f00000000000000000000000000000000000000000000000000000000000000001630036108ec5760405162461bcd60e51b815260206004820152602c60248201527f46756e6374696f6e206d7573742062652063616c6c6564207468726f7567682060448201526b19195b1959d85d1958d85b1b60a21b6064820152608401610500565b7f00000000000000000000000000000000000000000000000000000000000000006001600160a01b03166109477f360894a13ba1a3210667c828492db98dca3e2076cc3735a920a3ca505d382bbc546001600160a01b031690565b6001600160a01b0316146109b25760405162461bcd60e51b815260206004820152602c60248201527f46756e6374696f6e206d7573742062652063616c6c6564207468726f7567682060448201526b6163746976652070726f787960a01b6064820152608401610500565b6109bb816113e8565b604080516000808252602082019092526109d79183919061142e565b50565b60fc546001600160a01b03163314610a245760405162461bcd60e51b815260206004820152600d60248201526c09c9ea8be989e8696a69a92a89609b1b6044820152606401610500565b6001600160a01b038316600081815260fd602090815260408083208684528252918290208490558151338152908101929092528101839052606081018290527fdd4ed73814d490cf0c19636b7b143543516fb68cc7d4fff60b44805e18913f449060800160405180910390a1505050565b60608151835114610b0e5760405162461bcd60e51b815260206004820152602960248201527f455243313135353a206163636f756e747320616e6420696473206c656e67746860448201527f206d69736d6174636800000000000000000000000000000000000000000000006064820152608401610500565b6000835167ffffffffffffffff811115610b2a57610b2a612918565b604051908082528060200260200182016040528015610b53578160200160208202803683370190505b50905060005b8451811015610bcb57610b9e858281518110610b7757610b77612e94565b6020026020010151858381518110610b9157610b91612e94565b6020026020010151610486565b828281518110610bb057610bb0612e94565b6020908102919091010152610bc481612ec0565b9050610b59565b509392505050565b6001600160a01b037f0000000000000000000000000000000000000000000000000000000000000000163003610c605760405162461bcd60e51b815260206004820152602c60248201527f46756e6374696f6e206d7573742062652063616c6c6564207468726f7567682060448201526b19195b1959d85d1958d85b1b60a21b6064820152608401610500565b7f00000000000000000000000000000000000000000000000000000000000000006001600160a01b0316610cbb7f360894a13ba1a3210667c828492db98dca3e2076cc3735a920a3ca505d382bbc546001600160a01b031690565b6001600160a01b031614610d265760405162461bcd60e51b815260206004820152602c60248201527f46756e6374696f6e206d7573742062652063616c6c6564207468726f7567682060448201526b6163746976652070726f787960a01b6064820152608401610500565b610d2f826113e8565b610d3b8282600161142e565b5050565b6000306001600160a01b037f00000000000000000000000000000000000000000000000000000000000000001614610ddf5760405162461bcd60e51b815260206004820152603860248201527f555550535570677261646561626c653a206d757374206e6f742062652063616c60448201527f6c6564207468726f7567682064656c656761746563616c6c00000000000000006064820152608401610500565b507f360894a13ba1a3210667c828492db98dca3e2076cc3735a920a3ca505d382bbc5b90565b60fc546001600160a01b03163314610e4f5760405162461bcd60e51b815260206004820152600d60248201526c09c9ea8be989e8696a69a92a89609b1b6044820152606401610500565b6000848152610100602052604081208054859290610e6e908490612ed9565b9250508190555061083485858585858080601f0160208091040260200160405190810160405280939291908181526020018383808284376000920191909152506115ce92505050565b600054610100900460ff1615808015610ed75750600054600160ff909116105b80610ef15750303b158015610ef1575060005460ff166001145b610f635760405162461bcd60e51b815260206004820152602e60248201527f496e697469616c697a61626c653a20636f6e747261637420697320616c72656160448201527f647920696e697469616c697a65640000000000000000000000000000000000006064820152608401610500565b6000805460ff191660011790558015610f86576000805461ff0019166101001790555b60fb805473ffffffffffffffffffffffffffffffffffffffff191633179055610fad61170f565b80156109d7576000805461ff0019169055604051600181527f7f26b83ff96e1f2b6a682f133852f6798a09c465da95921460cefb38474024989060200160405180910390a150565b600081815260ff6020526040902060609061052e906113db565b610d3b33838361178e565b6001600160a01b03851633148061103657506110368533610418565b6110a85760405162461bcd60e51b815260206004820152602f60248201527f455243313135353a2063616c6c6572206973206e6f7420746f6b656e206f776e60448201527f6572206e6f7220617070726f76656400000000000000000000000000000000006064820152608401610500565b6108348585858585611882565b60fc546001600160a01b03163314806110d657506001600160a01b03831633145b6111225760405162461bcd60e51b815260206004820152601760248201527f4e4f545f4c4f434b534d4954485f4f525f484f4c4445520000000000000000006044820152606401610500565b6000828152610100602052604081208054839290611141908490612eec565b909155506111529050838383611a3f565b505050565b81518351146111ce5760405162461bcd60e51b815260206004820152602860248201527f455243313135353a2069647320616e6420616d6f756e7473206c656e6774682060448201527f6d69736d617463680000000000000000000000000000000000000000000000006064820152608401610500565b6001600160a01b0384166112325760405162461bcd60e51b815260206004820152602560248201527f455243313135353a207472616e7366657220746f20746865207a65726f206164604482015264647265737360d81b6064820152608401610500565b33611241818787878787611c06565b60005b845181101561136d57600085828151811061126157611261612e94565b60200260200101519050600085838151811061127f5761127f612e94565b60209081029190910181015160008481526065835260408082206001600160a01b038e1683529093529190912054909150818110156113135760405162461bcd60e51b815260206004820152602a60248201527f455243313135353a20696e73756666696369656e742062616c616e636520666f60448201526939103a3930b739b332b960b11b6064820152608401610500565b60008381526065602090815260408083206001600160a01b038e8116855292528083208585039055908b16825281208054849290611352908490612ed9565b925050819055505050508061136690612ec0565b9050611244565b50846001600160a01b0316866001600160a01b0316826001600160a01b03167f4a39dc06d4c0dbc64b70af90fd698a233a518aa5d07e595d983b8c0526c8f7fb87876040516113bd929190612eff565b60405180910390a46113d3818787878787612077565b505050505050565b6060600061071d8361221c565b60fb546001600160a01b031633146109d75760405162461bcd60e51b81526020600482015260096024820152682727aa2fa7aba722a960b91b6044820152606401610500565b7f4910fdfa16fed3260ed0e7147f7cc6da11a60208b5b9406d12a635614ffd91435460ff16156114615761115283612277565b826001600160a01b03166352d1902d6040518163ffffffff1660e01b8152600401602060405180830381865afa9250505080156114bb575060408051601f3d908101601f191682019092526114b891810190612e7b565b60015b61152d5760405162461bcd60e51b815260206004820152602e60248201527f45524331393637557067726164653a206e657720696d706c656d656e7461746960448201527f6f6e206973206e6f7420555550530000000000000000000000000000000000006064820152608401610500565b7f360894a13ba1a3210667c828492db98dca3e2076cc3735a920a3ca505d382bbc81146115c25760405162461bcd60e51b815260206004820152602960248201527f45524331393637557067726164653a20756e737570706f727465642070726f7860448201527f6961626c655555494400000000000000000000000000000000000000000000006064820152608401610500565b50611152838383612342565b6001600160a01b03841661164a5760405162461bcd60e51b815260206004820152602160248201527f455243313135353a206d696e7420746f20746865207a65726f2061646472657360448201527f73000000000000000000000000000000000000000000000000000000000000006064820152608401610500565b3360006116568561236d565b905060006116638561236d565b905061167483600089858589611c06565b60008681526065602090815260408083206001600160a01b038b168452909152812080548792906116a6908490612ed9565b909155505060408051878152602081018790526001600160a01b03808a1692600092918716917fc3d58168c5ae7397731d063d5bbf3d657854427343f4c083240f7aacaa2d0f62910160405180910390a4611706836000898989896123b8565b50505050505050565b600054610100900460ff1661178c5760405162461bcd60e51b815260206004820152602b60248201527f496e697469616c697a61626c653a20636f6e7472616374206973206e6f74206960448201527f6e697469616c697a696e670000000000000000000000000000000000000000006064820152608401610500565b565b816001600160a01b0316836001600160a01b0316036118155760405162461bcd60e51b815260206004820152602960248201527f455243313135353a2073657474696e6720617070726f76616c2073746174757360448201527f20666f722073656c6600000000000000000000000000000000000000000000006064820152608401610500565b6001600160a01b03838116600081815260666020908152604080832094871680845294825291829020805460ff191686151590811790915591519182527f17307eab39ab6107e8899845ad3d59bd9653f200f220920489ca2b5937696c31910160405180910390a3505050565b6001600160a01b0384166118e65760405162461bcd60e51b815260206004820152602560248201527f455243313135353a207472616e7366657220746f20746865207a65726f206164604482015264647265737360d81b6064820152608401610500565b3360006118f28561236d565b905060006118ff8561236d565b905061190f838989858589611c06565b60008681526065602090815260408083206001600160a01b038c168452909152902054858110156119955760405162461bcd60e51b815260206004820152602a60248201527f455243313135353a20696e73756666696369656e742062616c616e636520666f60448201526939103a3930b739b332b960b11b6064820152608401610500565b60008781526065602090815260408083206001600160a01b038d8116855292528083208985039055908a168252812080548892906119d4908490612ed9565b909155505060408051888152602081018890526001600160a01b03808b16928c821692918816917fc3d58168c5ae7397731d063d5bbf3d657854427343f4c083240f7aacaa2d0f62910160405180910390a4611a34848a8a8a8a8a6123b8565b505050505050505050565b6001600160a01b038316611abb5760405162461bcd60e51b815260206004820152602360248201527f455243313135353a206275726e2066726f6d20746865207a65726f206164647260448201527f65737300000000000000000000000000000000000000000000000000000000006064820152608401610500565b336000611ac78461236d565b90506000611ad48461236d565b9050611af483876000858560405180602001604052806000815250611c06565b60008581526065602090815260408083206001600160a01b038a16845290915290205484811015611b8c5760405162461bcd60e51b8152602060048201526024808201527f455243313135353a206275726e20616d6f756e7420657863656564732062616c60448201527f616e6365000000000000000000000000000000000000000000000000000000006064820152608401610500565b60008681526065602090815260408083206001600160a01b038b81168086529184528285208a8703905582518b81529384018a90529092908816917fc3d58168c5ae7397731d063d5bbf3d657854427343f4c083240f7aacaa2d0f62910160405180910390a4604080516020810190915260009052611706565b60005b8351811015611706576001600160a01b0386161580611c35575060fc546001600160a01b038881169116145b80611d4357506001600160a01b038616600090815260fd602052604081208551909190869084908110611c6a57611c6a612e94565b6020026020010151815260200190815260200160002054838281518110611c9357611c93612e94565b6020026020010151306001600160a01b031662fdd58e89888681518110611cbc57611cbc612e94565b60200260200101516040518363ffffffff1660e01b8152600401611cf59291906001600160a01b03929092168252602082015260400190565b602060405180830381865afa158015611d12573d6000803e3d6000fd5b505050506040513d601f19601f82011682018060405250810190611d369190612e7b565b611d409190612eec565b10155b611d8f5760405162461bcd60e51b815260206004820152600b60248201527f534f554c5f4252454143480000000000000000000000000000000000000000006044820152606401610500565b6001600160a01b03861615801590611e635750828181518110611db457611db4612e94565b6020026020010151306001600160a01b031662fdd58e88878581518110611ddd57611ddd612e94565b60200260200101516040518363ffffffff1660e01b8152600401611e169291906001600160a01b03929092168252602082015260400190565b602060405180830381865afa158015611e33573d6000803e3d6000fd5b505050506040513d601f19601f82011682018060405250810190611e579190612e7b565b611e619190612eec565b155b15611ef957611eb8848281518110611e7d57611e7d612e94565b602002602001015160fe6000896001600160a01b03166001600160a01b031681526020019081526020016000206124b490919063ffffffff16565b50611ef78660ff6000878581518110611ed357611ed3612e94565b602002602001015181526020019081526020016000206124c090919063ffffffff16565b505b6001600160a01b03851615801590611fcf57506000838281518110611f2057611f20612e94565b6020026020010151306001600160a01b031662fdd58e88888681518110611f4957611f49612e94565b60200260200101516040518363ffffffff1660e01b8152600401611f829291906001600160a01b03929092168252602082015260400190565b602060405180830381865afa158015611f9f573d6000803e3d6000fd5b505050506040513d601f19601f82011682018060405250810190611fc39190612e7b565b611fcd9190612ed9565b115b1561206557612024848281518110611fe957611fe9612e94565b602002602001015160fe6000886001600160a01b03166001600160a01b031681526020019081526020016000206124d590919063ffffffff16565b506120638560ff600087858151811061203f5761203f612e94565b602002602001015181526020019081526020016000206124e190919063ffffffff16565b505b8061206f81612ec0565b915050611c09565b6001600160a01b0384163b156113d35760405163bc197c8160e01b81526001600160a01b0385169063bc197c81906120bb9089908990889088908890600401612f24565b6020604051808303816000875af19250505080156120f6575060408051601f3d908101601f191682019092526120f391810190612f82565b60015b6121ab57612102612f9f565b806308c379a00361213b5750612116612fba565b80612121575061213d565b8060405162461bcd60e51b8152600401610500919061289e565b505b60405162461bcd60e51b815260206004820152603460248201527f455243313135353a207472616e7366657220746f206e6f6e204552433131353560448201527f526563656976657220696d706c656d656e7465720000000000000000000000006064820152608401610500565b6001600160e01b0319811663bc197c8160e01b146117065760405162461bcd60e51b815260206004820152602860248201527f455243313135353a204552433131353552656365697665722072656a656374656044820152676420746f6b656e7360c01b6064820152608401610500565b60608160000180548060200260200160405190810160405280929190818152602001828054801561065757602002820191906000526020600020905b8154815260200190600101908083116122585750505050509050919050565b6001600160a01b0381163b6122f45760405162461bcd60e51b815260206004820152602d60248201527f455243313936373a206e657720696d706c656d656e746174696f6e206973206e60448201527f6f74206120636f6e7472616374000000000000000000000000000000000000006064820152608401610500565b7f360894a13ba1a3210667c828492db98dca3e2076cc3735a920a3ca505d382bbc805473ffffffffffffffffffffffffffffffffffffffff19166001600160a01b0392909216919091179055565b61234b836124f6565b6000825111806123585750805b15611152576123678383612536565b50505050565b604080516001808252818301909252606091600091906020808301908036833701905050905082816000815181106123a7576123a7612e94565b602090810291909101015292915050565b6001600160a01b0384163b156113d35760405163f23a6e6160e01b81526001600160a01b0385169063f23a6e61906123fc9089908990889088908890600401613044565b6020604051808303816000875af1925050508015612437575060408051601f3d908101601f1916820190925261243491810190612f82565b60015b61244357612102612f9f565b6001600160e01b0319811663f23a6e6160e01b146117065760405162461bcd60e51b815260206004820152602860248201527f455243313135353a204552433131353552656365697665722072656a656374656044820152676420746f6b656e7360c01b6064820152608401610500565b600061071d8383612641565b600061071d836001600160a01b038416612641565b600061071d8383612734565b600061071d836001600160a01b038416612734565b6124ff81612277565b6040516001600160a01b038216907fbc7cd75a20ee27fd9adebab32041f755214dbc6bffa90cc0225b39da2e5c2d3b90600090a250565b60606001600160a01b0383163b6125b55760405162461bcd60e51b815260206004820152602660248201527f416464726573733a2064656c65676174652063616c6c20746f206e6f6e2d636f60448201527f6e747261637400000000000000000000000000000000000000000000000000006064820152608401610500565b600080846001600160a01b0316846040516125d09190613087565b600060405180830381855af49150503d806000811461260b576040519150601f19603f3d011682016040523d82523d6000602084013e612610565b606091505b509150915061263882826040518060600160405280602781526020016130ba60279139612783565b95945050505050565b6000818152600183016020526040812054801561272a576000612665600183612eec565b855490915060009061267990600190612eec565b90508181146126de57600086600001828154811061269957612699612e94565b90600052602060002001549050808760000184815481106126bc576126bc612e94565b6000918252602080832090910192909255918252600188019052604090208390555b85548690806126ef576126ef6130a3565b60019003818190600052602060002001600090559055856001016000868152602001908152602001600020600090556001935050505061052e565b600091505061052e565b600081815260018301602052604081205461277b5750815460018181018455600084815260208082209093018490558454848252828601909352604090209190915561052e565b50600061052e565b6060831561279257508161071d565b8251156127a25782518084602001fd5b8160405162461bcd60e51b8152600401610500919061289e565b80356001600160a01b03811681146127d357600080fd5b919050565b600080604083850312156127eb57600080fd5b6127f4836127bc565b946020939093013593505050565b6001600160e01b0319811681146109d757600080fd5b60006020828403121561282a57600080fd5b813561071d81612802565b60006020828403121561284757600080fd5b5035919050565b60005b83811015612869578181015183820152602001612851565b50506000910152565b6000815180845261288a81602086016020860161284e565b601f01601f19169290920160200192915050565b60208152600061071d6020830184612872565b803580151581146127d357600080fd5b6000806000606084860312156128d657600080fd5b6128df846127bc565b9250602084013591506128f4604085016128b1565b90509250925092565b60006020828403121561290f57600080fd5b61071d826127bc565b634e487b7160e01b600052604160045260246000fd5b601f8201601f1916810167ffffffffffffffff8111828210171561295457612954612918565b6040525050565b600067ffffffffffffffff82111561297557612975612918565b5060051b60200190565b600082601f83011261299057600080fd5b8135602061299d8261295b565b6040516129aa828261292e565b83815260059390931b85018201928281019150868411156129ca57600080fd5b8286015b848110156129e557803583529183019183016129ce565b509695505050505050565b600082601f830112612a0157600080fd5b813567ffffffffffffffff811115612a1b57612a1b612918565b604051612a32601f8301601f19166020018261292e565b818152846020838601011115612a4757600080fd5b816020850160208301376000918101602001919091529392505050565b600080600080600060a08688031215612a7c57600080fd5b612a85866127bc565b9450612a93602087016127bc565b9350604086013567ffffffffffffffff80821115612ab057600080fd5b612abc89838a0161297f565b94506060880135915080821115612ad257600080fd5b612ade89838a0161297f565b93506080880135915080821115612af457600080fd5b50612b01888289016129f0565b9150509295509295909350565b600081518084526020808501945080840160005b83811015612b3e57815187529582019590820190600101612b22565b509495945050505050565b60208152600061071d6020830184612b0e565b600080600060608486031215612b7157600080fd5b612b7a846127bc565b95602085013595506040909401359392505050565b60008060408385031215612ba257600080fd5b823567ffffffffffffffff80821115612bba57600080fd5b818501915085601f830112612bce57600080fd5b81356020612bdb8261295b565b604051612be8828261292e565b83815260059390931b8501820192828101915089841115612c0857600080fd5b948201945b83861015612c2d57612c1e866127bc565b82529482019490820190612c0d565b96505086013592505080821115612c4357600080fd5b50612c508582860161297f565b9150509250929050565b60008060408385031215612c6d57600080fd5b612c76836127bc565b9150602083013567ffffffffffffffff811115612c9257600080fd5b612c50858286016129f0565b600080600080600060808688031215612cb657600080fd5b612cbf866127bc565b94506020860135935060408601359250606086013567ffffffffffffffff80821115612cea57600080fd5b818801915088601f830112612cfe57600080fd5b813581811115612d0d57600080fd5b896020828501011115612d1f57600080fd5b9699959850939650602001949392505050565b6020808252825182820181905260009190848201906040850190845b81811015612d735783516001600160a01b031683529284019291840191600101612d4e565b50909695505050505050565b60008060408385031215612d9257600080fd5b612d9b836127bc565b9150612da9602084016128b1565b90509250929050565b60008060408385031215612dc557600080fd5b612dce836127bc565b9150612da9602084016127bc565b600080600080600060a08688031215612df457600080fd5b612dfd866127bc565b9450612e0b602087016127bc565b93506040860135925060608601359150608086013567ffffffffffffffff811115612e3557600080fd5b612b01888289016129f0565b600181811c90821680612e5557607f821691505b602082108103612e7557634e487b7160e01b600052602260045260246000fd5b50919050565b600060208284031215612e8d57600080fd5b5051919050565b634e487b7160e01b600052603260045260246000fd5b634e487b7160e01b600052601160045260246000fd5b600060018201612ed257612ed2612eaa565b5060010190565b8082018082111561052e5761052e612eaa565b8181038181111561052e5761052e612eaa565b604081526000612f126040830185612b0e565b82810360208401526126388185612b0e565b60006001600160a01b03808816835280871660208401525060a06040830152612f5060a0830186612b0e565b8281036060840152612f628186612b0e565b90508281036080840152612f768185612872565b98975050505050505050565b600060208284031215612f9457600080fd5b815161071d81612802565b600060033d1115610e025760046000803e5060005160e01c90565b600060443d1015612fc85790565b6040516003193d81016004833e81513d67ffffffffffffffff8160248401118184111715612ff857505050505090565b82850191508151818111156130105750505050505090565b843d870101602082850101111561302a5750505050505090565b6130396020828601018761292e565b509095945050505050565b60006001600160a01b03808816835280871660208401525084604083015283606083015260a0608083015261307c60a0830184612872565b979650505050505050565b6000825161309981846020870161284e565b9190910192915050565b634e487b7160e01b600052603160045260246000fdfe416464726573733a206c6f772d6c6576656c2064656c65676174652063616c6c206661696c6564a26469706673582212207a670a693ec3481807075c4b22467cba30e3934ecdfc72053db150c1124da62364736f6c63430008100033",
  "linkReferences": {},
  "deployedLinkReferences": {}
}