{
  "_format": "hh-sol-artifact-1",
  "contractName": "PostOffice",
  "sourceName": "contracts/PostOffice.sol",
  "abi": [
    {
      "inputs": [],
      "stateMutability": "nonpayable",
      "type": "constructor"
    },
    {
      "anonymous": false,
      "inputs": [
        {
          "indexed": false,
          "internalType": "address",
          "name": "previousAdmin",
          "type": "address"
        },
        {
          "indexed": false,
          "internalType": "address",
          "name": "newAdmin",
          "type": "address"
        }
      ],
      "name": "AdminChanged",
      "type": "event"
    },
    {
      "anonymous": false,
      "inputs": [
        {
          "indexed": true,
          "internalType": "address",
          "name": "beacon",
          "type": "address"
        }
      ],
      "name": "BeaconUpgraded",
      "type": "event"
    },
    {
      "anonymous": false,
      "inputs": [
        {
          "indexed": false,
          "internalType": "uint8",
          "name": "version",
          "type": "uint8"
        }
      ],
      "name": "Initialized",
      "type": "event"
    },
    {
      "anonymous": false,
      "inputs": [
        {
          "indexed": true,
          "internalType": "address",
          "name": "previousOwner",
          "type": "address"
        },
        {
          "indexed": true,
          "internalType": "address",
          "name": "newOwner",
          "type": "address"
        }
      ],
      "name": "OwnershipTransferred",
      "type": "event"
    },
    {
      "anonymous": false,
      "inputs": [
        {
          "indexed": true,
          "internalType": "address",
          "name": "implementation",
          "type": "address"
        }
      ],
      "name": "Upgraded",
      "type": "event"
    },
    {
      "anonymous": false,
      "inputs": [
        {
          "indexed": false,
          "internalType": "enum IPostOffice.InboxEventType",
          "name": "eventType",
          "type": "uint8"
        },
        {
          "indexed": false,
          "internalType": "address",
          "name": "operator",
          "type": "address"
        },
        {
          "indexed": false,
          "internalType": "uint256",
          "name": "ownerKeyId",
          "type": "uint256"
        },
        {
          "indexed": false,
          "internalType": "address",
          "name": "inbox",
          "type": "address"
        }
      ],
      "name": "addressRegistrationEvent",
      "type": "event"
    },
    {
      "inputs": [
        {
          "internalType": "uint256",
          "name": "ownerKeyId",
          "type": "uint256"
        },
        {
          "internalType": "address payable",
          "name": "inbox",
          "type": "address"
        }
      ],
      "name": "deregisterInbox",
      "outputs": [],
      "stateMutability": "nonpayable",
      "type": "function"
    },
    {
      "inputs": [
        {
          "internalType": "uint256",
          "name": "ownerKeyId",
          "type": "uint256"
        }
      ],
      "name": "getInboxesForKey",
      "outputs": [
        {
          "internalType": "address[]",
          "name": "",
          "type": "address[]"
        }
      ],
      "stateMutability": "view",
      "type": "function"
    },
    {
      "inputs": [
        {
          "internalType": "address",
          "name": "_Locksmith",
          "type": "address"
        }
      ],
      "name": "initialize",
      "outputs": [],
      "stateMutability": "nonpayable",
      "type": "function"
    },
    {
      "inputs": [],
      "name": "locksmith",
      "outputs": [
        {
          "internalType": "address",
          "name": "",
          "type": "address"
        }
      ],
      "stateMutability": "view",
      "type": "function"
    },
    {
      "inputs": [],
      "name": "owner",
      "outputs": [
        {
          "internalType": "address",
          "name": "",
          "type": "address"
        }
      ],
      "stateMutability": "view",
      "type": "function"
    },
    {
      "inputs": [],
      "name": "proxiableUUID",
      "outputs": [
        {
          "internalType": "bytes32",
          "name": "",
          "type": "bytes32"
        }
      ],
      "stateMutability": "view",
      "type": "function"
    },
    {
      "inputs": [
        {
          "internalType": "address payable",
          "name": "inbox",
          "type": "address"
        }
      ],
      "name": "registerInbox",
      "outputs": [],
      "stateMutability": "nonpayable",
      "type": "function"
    },
    {
      "inputs": [],
      "name": "renounceOwnership",
      "outputs": [],
      "stateMutability": "nonpayable",
      "type": "function"
    },
    {
      "inputs": [
        {
          "internalType": "address",
          "name": "newOwner",
          "type": "address"
        }
      ],
      "name": "transferOwnership",
      "outputs": [],
      "stateMutability": "nonpayable",
      "type": "function"
    },
    {
      "inputs": [
        {
          "internalType": "address",
          "name": "newImplementation",
          "type": "address"
        }
      ],
      "name": "upgradeTo",
      "outputs": [],
      "stateMutability": "nonpayable",
      "type": "function"
    },
    {
      "inputs": [
        {
          "internalType": "address",
          "name": "newImplementation",
          "type": "address"
        },
        {
          "internalType": "bytes",
          "name": "data",
          "type": "bytes"
        }
      ],
      "name": "upgradeToAndCall",
      "outputs": [],
      "stateMutability": "payable",
      "type": "function"
    }
  ],
  "bytecode": "0x60a06040523060805234801561001457600080fd5b5061001d610022565b6100e2565b600054610100900460ff161561008e5760405162461bcd60e51b815260206004820152602760248201527f496e697469616c697a61626c653a20636f6e747261637420697320696e697469604482015266616c697a696e6760c81b606482015260840160405180910390fd5b60005460ff90811610156100e0576000805460ff191660ff9081179091556040519081527f7f26b83ff96e1f2b6a682f133852f6798a09c465da95921460cefb38474024989060200160405180910390a15b565b60805161181461011960003960008181610240015281816102ca0152818161062a015281816106af015261079901526118146000f3fe6080604052600436106100bc5760003560e01c8063715018a611610074578063b8fc68951161004e578063b8fc6895146101d6578063c4d66de8146101f6578063f2fde38b1461021657600080fd5b8063715018a6146101765780638da5cb5b1461018b578063b80832b1146101a957600080fd5b80634aead64b116100a55780634aead64b146101205780634f1ef2861461014057806352d1902d1461015357600080fd5b806313fb817e146100c15780633659cfe6146100fe575b600080fd5b3480156100cd57600080fd5b5060c9546100e1906001600160a01b031681565b6040516001600160a01b0390911681526020015b60405180910390f35b34801561010a57600080fd5b5061011e6101193660046114eb565b610236565b005b34801561012c57600080fd5b5061011e61013b366004611508565b6103b6565b61011e61014e36600461154e565b610620565b34801561015f57600080fd5b5061016861078c565b6040519081526020016100f5565b34801561018257600080fd5b5061011e610851565b34801561019757600080fd5b506033546001600160a01b03166100e1565b3480156101b557600080fd5b506101c96101c4366004611612565b610865565b6040516100f5919061162b565b3480156101e257600080fd5b5061011e6101f13660046114eb565b610885565b34801561020257600080fd5b5061011e6102113660046114eb565b610af2565b34801561022257600080fd5b5061011e6102313660046114eb565b610c3b565b6001600160a01b037f00000000000000000000000000000000000000000000000000000000000000001630036102c85760405162461bcd60e51b815260206004820152602c60248201527f46756e6374696f6e206d7573742062652063616c6c6564207468726f7567682060448201526b19195b1959d85d1958d85b1b60a21b60648201526084015b60405180910390fd5b7f00000000000000000000000000000000000000000000000000000000000000006001600160a01b03166103237f360894a13ba1a3210667c828492db98dca3e2076cc3735a920a3ca505d382bbc546001600160a01b031690565b6001600160a01b03161461038e5760405162461bcd60e51b815260206004820152602c60248201527f46756e6374696f6e206d7573742062652063616c6c6564207468726f7567682060448201526b6163746976652070726f787960a01b60648201526084016102bf565b61039781610cc8565b604080516000808252602082019092526103b391839190610cd0565b50565b6001600160a01b038116600090815260ca602052604090205460ff1661041e5760405162461bcd60e51b815260206004820152601460248201527f4d495353494e475f524547495354524154494f4e00000000000000000000000060448201526064016102bf565b60c954604080517fb83ac19f00000000000000000000000000000000000000000000000000000000815290516000926001600160a01b03169163b83ac19f9160048083019260209291908290030181865afa158015610481573d6000803e3d6000fd5b505050506040513d601f19601f820116820180604052508101906104a59190611678565b604051630f5d2cd560e11b815233600482015260248101859052600060448201526001600160a01b039190911690631eba59aa90606401602060405180830381865afa1580156104f9573d6000803e3d6000fd5b505050506040513d601f19601f8201168201806040525081019061051d9190611695565b116105595760405162461bcd60e51b815260206004820152600c60248201526b12d15657d393d517d211531160a21b60448201526064016102bf565b600082815260cb602052604090206105719082610e75565b6105bd5760405162461bcd60e51b815260206004820152601660248201527f524547495354524154494f4e5f4e4f545f594f5552530000000000000000000060448201526064016102bf565b6001600160a01b038116600090815260ca602052604090819020805460ff19169055517f7f2c8d33649e33840160304ea5630d93fa959eddbeb3a66b3e4f4a31394fc0ab90610614906001903390869086906116ae565b60405180910390a15050565b6001600160a01b037f00000000000000000000000000000000000000000000000000000000000000001630036106ad5760405162461bcd60e51b815260206004820152602c60248201527f46756e6374696f6e206d7573742062652063616c6c6564207468726f7567682060448201526b19195b1959d85d1958d85b1b60a21b60648201526084016102bf565b7f00000000000000000000000000000000000000000000000000000000000000006001600160a01b03166107087f360894a13ba1a3210667c828492db98dca3e2076cc3735a920a3ca505d382bbc546001600160a01b031690565b6001600160a01b0316146107735760405162461bcd60e51b815260206004820152602c60248201527f46756e6374696f6e206d7573742062652063616c6c6564207468726f7567682060448201526b6163746976652070726f787960a01b60648201526084016102bf565b61077c82610cc8565b61078882826001610cd0565b5050565b6000306001600160a01b037f0000000000000000000000000000000000000000000000000000000000000000161461082c5760405162461bcd60e51b815260206004820152603860248201527f555550535570677261646561626c653a206d757374206e6f742062652063616c60448201527f6c6564207468726f7567682064656c656761746563616c6c000000000000000060648201526084016102bf565b507f360894a13ba1a3210667c828492db98dca3e2076cc3735a920a3ca505d382bbc90565b610859610e91565b6108636000610eeb565b565b600081815260cb6020526040902060609061087f90610f4a565b92915050565b6001600160a01b038116600090815260ca602052604090205460ff16156108ee5760405162461bcd60e51b815260206004820152601660248201527f4455504c49434154455f524547495354524154494f4e0000000000000000000060448201526064016102bf565b6000816001600160a01b03166350b562766040518163ffffffff1660e01b8152600401602060405180830381865afa15801561092e573d6000803e3d6000fd5b505050506040513d601f19601f820116820180604052508101906109529190611695565b9050600060c960009054906101000a90046001600160a01b03166001600160a01b031663b83ac19f6040518163ffffffff1660e01b8152600401602060405180830381865afa1580156109a9573d6000803e3d6000fd5b505050506040513d601f19601f820116820180604052508101906109cd9190611678565b604051630f5d2cd560e11b815233600482015260248101849052600060448201526001600160a01b039190911690631eba59aa90606401602060405180830381865afa158015610a21573d6000803e3d6000fd5b505050506040513d601f19601f82011682018060405250810190610a459190611695565b11610a815760405162461bcd60e51b815260206004820152600c60248201526b12d15657d393d517d211531160a21b60448201526064016102bf565b6001600160a01b038216600090815260ca60209081526040808320805460ff1916600117905583835260cb9091529020610abb9083610f57565b507f7f2c8d33649e33840160304ea5630d93fa959eddbeb3a66b3e4f4a31394fc0ab600033838560405161061494939291906116ae565b600054610100900460ff1615808015610b125750600054600160ff909116105b80610b2c5750303b158015610b2c575060005460ff166001145b610b9e5760405162461bcd60e51b815260206004820152602e60248201527f496e697469616c697a61626c653a20636f6e747261637420697320616c72656160448201527f647920696e697469616c697a656400000000000000000000000000000000000060648201526084016102bf565b6000805460ff191660011790558015610bc1576000805461ff0019166101001790555b610bc9610f6c565b610bd1610fdf565b60c9805473ffffffffffffffffffffffffffffffffffffffff19166001600160a01b0384161790558015610788576000805461ff0019169055604051600181527f7f26b83ff96e1f2b6a682f133852f6798a09c465da95921460cefb384740249890602001610614565b610c43610e91565b6001600160a01b038116610cbf5760405162461bcd60e51b815260206004820152602660248201527f4f776e61626c653a206e6577206f776e657220697320746865207a65726f206160448201527f646472657373000000000000000000000000000000000000000000000000000060648201526084016102bf565b6103b381610eeb565b6103b3610e91565b7f4910fdfa16fed3260ed0e7147f7cc6da11a60208b5b9406d12a635614ffd91435460ff1615610d0857610d038361104a565b505050565b826001600160a01b03166352d1902d6040518163ffffffff1660e01b8152600401602060405180830381865afa925050508015610d62575060408051601f3d908101601f19168201909252610d5f91810190611695565b60015b610dd45760405162461bcd60e51b815260206004820152602e60248201527f45524331393637557067726164653a206e657720696d706c656d656e7461746960448201527f6f6e206973206e6f74205555505300000000000000000000000000000000000060648201526084016102bf565b7f360894a13ba1a3210667c828492db98dca3e2076cc3735a920a3ca505d382bbc8114610e695760405162461bcd60e51b815260206004820152602960248201527f45524331393637557067726164653a20756e737570706f727465642070726f7860448201527f6961626c6555554944000000000000000000000000000000000000000000000060648201526084016102bf565b50610d03838383611115565b6000610e8a836001600160a01b038416611140565b9392505050565b6033546001600160a01b031633146108635760405162461bcd60e51b815260206004820181905260248201527f4f776e61626c653a2063616c6c6572206973206e6f7420746865206f776e657260448201526064016102bf565b603380546001600160a01b0383811673ffffffffffffffffffffffffffffffffffffffff19831681179093556040519116919082907f8be0079c531659141344cd1fd0a4f28419497f9722a3daafe3b4186f6b6457e090600090a35050565b60606000610e8a83611233565b6000610e8a836001600160a01b03841661128f565b600054610100900460ff16610fd75760405162461bcd60e51b815260206004820152602b60248201527f496e697469616c697a61626c653a20636f6e7472616374206973206e6f74206960448201526a6e697469616c697a696e6760a81b60648201526084016102bf565b6108636112de565b600054610100900460ff166108635760405162461bcd60e51b815260206004820152602b60248201527f496e697469616c697a61626c653a20636f6e7472616374206973206e6f74206960448201526a6e697469616c697a696e6760a81b60648201526084016102bf565b6001600160a01b0381163b6110c75760405162461bcd60e51b815260206004820152602d60248201527f455243313936373a206e657720696d706c656d656e746174696f6e206973206e60448201527f6f74206120636f6e74726163740000000000000000000000000000000000000060648201526084016102bf565b7f360894a13ba1a3210667c828492db98dca3e2076cc3735a920a3ca505d382bbc805473ffffffffffffffffffffffffffffffffffffffff19166001600160a01b0392909216919091179055565b61111e83611352565b60008251118061112b5750805b15610d035761113a8383611392565b50505050565b600081815260018301602052604081205480156112295760006111646001836116f7565b8554909150600090611178906001906116f7565b90508181146111dd57600086600001828154811061119857611198611718565b90600052602060002001549050808760000184815481106111bb576111bb611718565b6000918252602080832090910192909255918252600188019052604090208390555b85548690806111ee576111ee61172e565b60019003818190600052602060002001600090559055856001016000868152602001908152602001600020600090556001935050505061087f565b600091505061087f565b60608160000180548060200260200160405190810160405280929190818152602001828054801561128357602002820191906000526020600020905b81548152602001906001019080831161126f575b50505050509050919050565b60008181526001830160205260408120546112d65750815460018181018455600084815260208082209093018490558454848252828601909352604090209190915561087f565b50600061087f565b600054610100900460ff166113495760405162461bcd60e51b815260206004820152602b60248201527f496e697469616c697a61626c653a20636f6e7472616374206973206e6f74206960448201526a6e697469616c697a696e6760a81b60648201526084016102bf565b61086333610eeb565b61135b8161104a565b6040516001600160a01b038216907fbc7cd75a20ee27fd9adebab32041f755214dbc6bffa90cc0225b39da2e5c2d3b90600090a250565b60606001600160a01b0383163b6114115760405162461bcd60e51b815260206004820152602660248201527f416464726573733a2064656c65676174652063616c6c20746f206e6f6e2d636f60448201527f6e7472616374000000000000000000000000000000000000000000000000000060648201526084016102bf565b600080846001600160a01b03168460405161142c9190611768565b600060405180830381855af49150503d8060008114611467576040519150601f19603f3d011682016040523d82523d6000602084013e61146c565b606091505b509150915061149482826040518060600160405280602781526020016117b86027913961149d565b95945050505050565b606083156114ac575081610e8a565b8251156114bc5782518084602001fd5b8160405162461bcd60e51b81526004016102bf9190611784565b6001600160a01b03811681146103b357600080fd5b6000602082840312156114fd57600080fd5b8135610e8a816114d6565b6000806040838503121561151b57600080fd5b82359150602083013561152d816114d6565b809150509250929050565b634e487b7160e01b600052604160045260246000fd5b6000806040838503121561156157600080fd5b823561156c816114d6565b9150602083013567ffffffffffffffff8082111561158957600080fd5b818501915085601f83011261159d57600080fd5b8135818111156115af576115af611538565b604051601f8201601f19908116603f011681019083821181831017156115d7576115d7611538565b816040528281528860208487010111156115f057600080fd5b8260208601602083013760006020848301015280955050505050509250929050565b60006020828403121561162457600080fd5b5035919050565b6020808252825182820181905260009190848201906040850190845b8181101561166c5783516001600160a01b031683529284019291840191600101611647565b50909695505050505050565b60006020828403121561168a57600080fd5b8151610e8a816114d6565b6000602082840312156116a757600080fd5b5051919050565b60808101600286106116d057634e487b7160e01b600052602160045260246000fd5b9481526001600160a01b039384166020820152604081019290925290911660609091015290565b8181038181111561087f57634e487b7160e01b600052601160045260246000fd5b634e487b7160e01b600052603260045260246000fd5b634e487b7160e01b600052603160045260246000fd5b60005b8381101561175f578181015183820152602001611747565b50506000910152565b6000825161177a818460208701611744565b9190910192915050565b60208152600082518060208401526117a3816040850160208701611744565b601f01601f1916919091016040019291505056fe416464726573733a206c6f772d6c6576656c2064656c65676174652063616c6c206661696c6564a264697066735822122019c745f3ab2cf6d2ac456dd5342c997d99ad91e2f8a5713dd3f74f2d13d24ea464736f6c63430008100033",
  "linkReferences": {},
  "deployedLinkReferences": {}
}