{
  "_format": "hh-sol-artifact-1",
  "contractName": "PostOffice",
  "sourceName": "contracts/PostOffice.sol",
  "abi": [
    {
      "inputs": [],
      "stateMutability": "nonpayable",
      "type": "constructor"
    },
    {
      "anonymous": false,
      "inputs": [
        {
          "indexed": false,
          "internalType": "address",
          "name": "previousAdmin",
          "type": "address"
        },
        {
          "indexed": false,
          "internalType": "address",
          "name": "newAdmin",
          "type": "address"
        }
      ],
      "name": "AdminChanged",
      "type": "event"
    },
    {
      "anonymous": false,
      "inputs": [
        {
          "indexed": true,
          "internalType": "address",
          "name": "beacon",
          "type": "address"
        }
      ],
      "name": "BeaconUpgraded",
      "type": "event"
    },
    {
      "anonymous": false,
      "inputs": [
        {
          "indexed": false,
          "internalType": "uint8",
          "name": "version",
          "type": "uint8"
        }
      ],
      "name": "Initialized",
      "type": "event"
    },
    {
      "anonymous": false,
      "inputs": [
        {
          "indexed": true,
          "internalType": "address",
          "name": "previousOwner",
          "type": "address"
        },
        {
          "indexed": true,
          "internalType": "address",
          "name": "newOwner",
          "type": "address"
        }
      ],
      "name": "OwnershipTransferred",
      "type": "event"
    },
    {
      "anonymous": false,
      "inputs": [
        {
          "indexed": true,
          "internalType": "address",
          "name": "implementation",
          "type": "address"
        }
      ],
      "name": "Upgraded",
      "type": "event"
    },
    {
      "anonymous": false,
      "inputs": [
        {
          "indexed": false,
          "internalType": "enum IPostOffice.InboxEventType",
          "name": "eventType",
          "type": "uint8"
        },
        {
          "indexed": false,
          "internalType": "address",
          "name": "operator",
          "type": "address"
        },
        {
          "indexed": false,
          "internalType": "uint256",
          "name": "ownerKeyId",
          "type": "uint256"
        },
        {
          "indexed": false,
          "internalType": "address",
          "name": "inbox",
          "type": "address"
        }
      ],
      "name": "addressRegistrationEvent",
      "type": "event"
    },
    {
      "inputs": [
        {
          "internalType": "uint256",
          "name": "ownerKeyId",
          "type": "uint256"
        },
        {
          "internalType": "address payable",
          "name": "inbox",
          "type": "address"
        }
      ],
      "name": "deregisterInbox",
      "outputs": [],
      "stateMutability": "nonpayable",
      "type": "function"
    },
    {
      "inputs": [
        {
          "internalType": "uint256",
          "name": "ownerKeyId",
          "type": "uint256"
        }
      ],
      "name": "getInboxesForKey",
      "outputs": [
        {
          "internalType": "address[]",
          "name": "",
          "type": "address[]"
        }
      ],
      "stateMutability": "view",
      "type": "function"
    },
    {
      "inputs": [
        {
          "internalType": "uint256",
          "name": "keyId",
          "type": "uint256"
        }
      ],
      "name": "getKeyInbox",
      "outputs": [
        {
          "internalType": "address",
          "name": "",
          "type": "address"
        }
      ],
      "stateMutability": "view",
      "type": "function"
    },
    {
      "inputs": [
        {
          "internalType": "address",
          "name": "_Locksmith",
          "type": "address"
        }
      ],
      "name": "initialize",
      "outputs": [],
      "stateMutability": "nonpayable",
      "type": "function"
    },
    {
      "inputs": [],
      "name": "locksmith",
      "outputs": [
        {
          "internalType": "address",
          "name": "",
          "type": "address"
        }
      ],
      "stateMutability": "view",
      "type": "function"
    },
    {
      "inputs": [],
      "name": "owner",
      "outputs": [
        {
          "internalType": "address",
          "name": "",
          "type": "address"
        }
      ],
      "stateMutability": "view",
      "type": "function"
    },
    {
      "inputs": [],
      "name": "proxiableUUID",
      "outputs": [
        {
          "internalType": "bytes32",
          "name": "",
          "type": "bytes32"
        }
      ],
      "stateMutability": "view",
      "type": "function"
    },
    {
      "inputs": [
        {
          "internalType": "address payable",
          "name": "inbox",
          "type": "address"
        }
      ],
      "name": "registerInbox",
      "outputs": [],
      "stateMutability": "nonpayable",
      "type": "function"
    },
    {
      "inputs": [],
      "name": "renounceOwnership",
      "outputs": [],
      "stateMutability": "nonpayable",
      "type": "function"
    },
    {
      "inputs": [
        {
          "internalType": "address",
          "name": "newOwner",
          "type": "address"
        }
      ],
      "name": "transferOwnership",
      "outputs": [],
      "stateMutability": "nonpayable",
      "type": "function"
    },
    {
      "inputs": [
        {
          "internalType": "address",
          "name": "newImplementation",
          "type": "address"
        }
      ],
      "name": "upgradeTo",
      "outputs": [],
      "stateMutability": "nonpayable",
      "type": "function"
    },
    {
      "inputs": [
        {
          "internalType": "address",
          "name": "newImplementation",
          "type": "address"
        },
        {
          "internalType": "bytes",
          "name": "data",
          "type": "bytes"
        }
      ],
      "name": "upgradeToAndCall",
      "outputs": [],
      "stateMutability": "payable",
      "type": "function"
    }
  ],
  "bytecode": "0x60a06040523073ffffffffffffffffffffffffffffffffffffffff1660809073ffffffffffffffffffffffffffffffffffffffff168152503480156200004457600080fd5b506200006066358d40b6cf2dd760c01b620000ae60201b60201c565b6200007c676ca4cf7bf25e008860c01b620000ae60201b60201c565b62000098678e5d2e2c4338ff9360c01b620000ae60201b60201c565b620000a8620000b160201b60201c565b6200025c565b50565b600060019054906101000a900460ff161562000104576040517f08c379a0000000000000000000000000000000000000000000000000000000008152600401620000fb90620001ff565b60405180910390fd5b60ff801660008054906101000a900460ff1660ff161015620001765760ff6000806101000a81548160ff021916908360ff1602179055507f7f26b83ff96e1f2b6a682f133852f6798a09c465da95921460cefb384740249860ff6040516200016d91906200023f565b60405180910390a15b565b600082825260208201905092915050565b7f496e697469616c697a61626c653a20636f6e747261637420697320696e69746960008201527f616c697a696e6700000000000000000000000000000000000000000000000000602082015250565b6000620001e760278362000178565b9150620001f48262000189565b604082019050919050565b600060208201905081810360008301526200021a81620001d8565b9050919050565b600060ff82169050919050565b620002398162000221565b82525050565b60006020820190506200025660008301846200022e565b92915050565b60805161378e62000294600039600081816102ef0152818161037d01528181610a8601528181610b140152610bc4015261378e6000f3fe6080604052600436106100c75760003560e01c8063715018a611610074578063b8fc68951161004e578063b8fc68951461024c578063c4d66de814610275578063f2fde38b1461029e576100c7565b8063715018a6146101cd5780638da5cb5b146101e4578063b80832b11461020f576100c7565b80634f1ef286116100a55780634f1ef2861461014957806352d1902d146101655780635f7cc4ab14610190576100c7565b806313fb817e146100cc5780633659cfe6146100f75780634aead64b14610120575b600080fd5b3480156100d857600080fd5b506100e16102c7565b6040516100ee9190612343565b60405180910390f35b34801561010357600080fd5b5061011e6004803603810190610119919061239e565b6102ed565b005b34801561012c57600080fd5b506101476004803603810190610142919061243f565b610475565b005b610163600480360381019061015e91906125c5565b610a84565b005b34801561017157600080fd5b5061017a610bc0565b604051610187919061263a565b60405180910390f35b34801561019c57600080fd5b506101b760048036038101906101b29190612655565b610c79565b6040516101c49190612343565b60405180910390f35b3480156101d957600080fd5b506101e2610cf2565b005b3480156101f057600080fd5b506101f9610d06565b6040516102069190612343565b60405180910390f35b34801561021b57600080fd5b5061023660048036038101906102319190612655565b610d30565b6040516102439190612740565b60405180910390f35b34801561025857600080fd5b50610273600480360381019061026e9190612762565b610d90565b005b34801561028157600080fd5b5061029c6004803603810190610297919061239e565b6116b7565b005b3480156102aa57600080fd5b506102c560048036038101906102c0919061239e565b6118df565b005b60c960009054906101000a900473ffffffffffffffffffffffffffffffffffffffff1681565b7f000000000000000000000000000000000000000000000000000000000000000073ffffffffffffffffffffffffffffffffffffffff163073ffffffffffffffffffffffffffffffffffffffff160361037b576040517f08c379a000000000000000000000000000000000000000000000000000000000815260040161037290612812565b60405180910390fd5b7f000000000000000000000000000000000000000000000000000000000000000073ffffffffffffffffffffffffffffffffffffffff166103ba611962565b73ffffffffffffffffffffffffffffffffffffffff1614610410576040517f08c379a0000000000000000000000000000000000000000000000000000000008152600401610407906128a4565b60405180910390fd5b610419816119b9565b61047281600067ffffffffffffffff8111156104385761043761249a565b5b6040519080825280601f01601f19166020018201604052801561046a5781602001600182028036833780820191505090505b506000611a00565b50565b61048967b4e26c02535980eb60c01b611b6e565b61049d67040b3f2e631f98b960c01b611b6e565b6104b16764313fb94e75c6ac60c01b611b6e565b6104c56761eabac3eccb4ccd60c01b611b6e565b60ca60008273ffffffffffffffffffffffffffffffffffffffff1673ffffffffffffffffffffffffffffffffffffffff16815260200190815260200160002060009054906101000a900460ff16610551576040517f08c379a000000000000000000000000000000000000000000000000000000000815260040161054890612910565b60405180910390fd5b6105656728ec3e126905f93860c01b611b6e565b61057967034f2b4bc6dabbd160c01b611b6e565b61058d67f65bf8f6ea483d6a60c01b611b6e565b60008173ffffffffffffffffffffffffffffffffffffffff1663af7c2a366040518163ffffffff1660e01b8152600401602060405180830381865afa1580156105da573d6000803e3d6000fd5b505050506040513d601f19601f820116820180604052508101906105fe9190612945565b905061061467399e9c9904ff63f660c01b611b6e565b6106286756578c56c8cefca560c01b611b6e565b61063c67ab03cd9fffeee0b860c01b611b6e565b8173ffffffffffffffffffffffffffffffffffffffff1660cb600083815260200190815260200160002060009054906101000a900473ffffffffffffffffffffffffffffffffffffffff1673ffffffffffffffffffffffffffffffffffffffff16146106dd576040517f08c379a00000000000000000000000000000000000000000000000000000000081526004016106d4906129be565b60405180910390fd5b6106f167efc2e4a797325c9660c01b611b6e565b61070567bb16298829a7f01160c01b611b6e565b6107196779c00972460bd3c760c01b611b6e565b61072d67220a7d416a2ae25160c01b611b6e565b600060c960009054906101000a900473ffffffffffffffffffffffffffffffffffffffff1673ffffffffffffffffffffffffffffffffffffffff1663b83ac19f6040518163ffffffff1660e01b8152600401602060405180830381865afa15801561079c573d6000803e3d6000fd5b505050506040513d601f19601f820116820180604052508101906107c091906129f3565b73ffffffffffffffffffffffffffffffffffffffff16631eba59aa338660006040518463ffffffff1660e01b81526004016107fd93929190612a4a565b602060405180830381865afa15801561081a573d6000803e3d6000fd5b505050506040513d601f19601f8201168201806040525081019061083e9190612945565b1161087e576040517f08c379a000000000000000000000000000000000000000000000000000000000815260040161087590612acd565b60405180910390fd5b6108926760a99240ad16d25260c01b611b6e565b6108a667778f623e36ccdf1560c01b611b6e565b6108ba67588190f370be813460c01b611b6e565b6108ce676fe1965df0cad31460c01b611b6e565b6108f38260cc6000868152602001908152602001600020611b7190919063ffffffff16565b610932576040517f08c379a000000000000000000000000000000000000000000000000000000000815260040161092990612b39565b60405180910390fd5b61094667670402991c7cb6e360c01b611b6e565b61095a67e79e041dc24299bc60c01b611b6e565b600060ca60008473ffffffffffffffffffffffffffffffffffffffff1673ffffffffffffffffffffffffffffffffffffffff16815260200190815260200160002060006101000a81548160ff0219169083151502179055506109c667a81a36b341a50b3660c01b611b6e565b600060cb600083815260200190815260200160002060006101000a81548173ffffffffffffffffffffffffffffffffffffffff021916908373ffffffffffffffffffffffffffffffffffffffff160217905550610a2d6790cbec10c4d00e7760c01b611b6e565b610a416781290acf37a63a7460c01b611b6e565b7f7f2c8d33649e33840160304ea5630d93fa959eddbeb3a66b3e4f4a31394fc0ab6001338585604051610a779493929190612c2f565b60405180910390a1505050565b7f000000000000000000000000000000000000000000000000000000000000000073ffffffffffffffffffffffffffffffffffffffff163073ffffffffffffffffffffffffffffffffffffffff1603610b12576040517f08c379a0000000000000000000000000000000000000000000000000000000008152600401610b0990612812565b60405180910390fd5b7f000000000000000000000000000000000000000000000000000000000000000073ffffffffffffffffffffffffffffffffffffffff16610b51611962565b73ffffffffffffffffffffffffffffffffffffffff1614610ba7576040517f08c379a0000000000000000000000000000000000000000000000000000000008152600401610b9e906128a4565b60405180910390fd5b610bb0826119b9565b610bbc82826001611a00565b5050565b60007f000000000000000000000000000000000000000000000000000000000000000073ffffffffffffffffffffffffffffffffffffffff163073ffffffffffffffffffffffffffffffffffffffff1614610c50576040517f08c379a0000000000000000000000000000000000000000000000000000000008152600401610c4790612ce6565b60405180910390fd5b7f360894a13ba1a3210667c828492db98dca3e2076cc3735a920a3ca505d382bbc60001b905090565b6000610c8f67d9b91e8658a81a2f60c01b611b6e565b610ca36795a6ec255df321cf60c01b611b6e565b610cb767eddbc16d9681556d60c01b611b6e565b60cb600083815260200190815260200160002060009054906101000a900473ffffffffffffffffffffffffffffffffffffffff169050919050565b610cfa611ba1565b610d046000611c1f565b565b6000603360009054906101000a900473ffffffffffffffffffffffffffffffffffffffff16905090565b6060610d4667e95455d60ab4c63760c01b611b6e565b610d5a67f3544f64f13002fa60c01b611b6e565b610d6e6739ee730c0aa75e9f60c01b611b6e565b610d8960cc6000848152602001908152602001600020611ce5565b9050919050565b610da46739842800427ad8c560c01b611b6e565b610db8677a4eba02f546027160c01b611b6e565b610dcc67f0a9330876a595e760c01b611b6e565b610de067a95a09494696232460c01b611b6e565b60ca60008273ffffffffffffffffffffffffffffffffffffffff1673ffffffffffffffffffffffffffffffffffffffff16815260200190815260200160002060009054906101000a900460ff1615610e6d576040517f08c379a0000000000000000000000000000000000000000000000000000000008152600401610e6490612d52565b60405180910390fd5b610e8167eebdc1c861b8206c60c01b611b6e565b610e9567c27b96ee0e310a1f60c01b611b6e565b610ea9678268a5172794822f60c01b611b6e565b60008173ffffffffffffffffffffffffffffffffffffffff166350b562766040518163ffffffff1660e01b8152600401602060405180830381865afa158015610ef6573d6000803e3d6000fd5b505050506040513d601f19601f82011682018060405250810190610f1a9190612945565b9050610f30677a8625c58900d26e60c01b611b6e565b610f4467544663eff83a6a0960c01b611b6e565b60008273ffffffffffffffffffffffffffffffffffffffff1663af7c2a366040518163ffffffff1660e01b8152600401602060405180830381865afa158015610f91573d6000803e3d6000fd5b505050506040513d601f19601f82011682018060405250810190610fb59190612945565b9050610fcb6733d318437de26f5560c01b611b6e565b610fdf677119c75cf66e916460c01b611b6e565b600080600060c960009054906101000a900473ffffffffffffffffffffffffffffffffffffffff1673ffffffffffffffffffffffffffffffffffffffff166388ecda52866040518263ffffffff1660e01b815260040161103f9190612d72565b600060405180830381865afa15801561105c573d6000803e3d6000fd5b505050506040513d6000823e3d601f19601f820116820180604052508101906110859190612ead565b50935093505092506110a167e532c3124598eb8660c01b611b6e565b6110b56797d1d224ff4666a160c01b611b6e565b60008060c960009054906101000a900473ffffffffffffffffffffffffffffffffffffffff1673ffffffffffffffffffffffffffffffffffffffff166388ecda52876040518263ffffffff1660e01b81526004016111139190612d72565b600060405180830381865afa158015611130573d6000803e3d6000fd5b505050506040513d6000823e3d601f19601f820116820180604052508101906111599190612ead565b5050925050915061117467ae40d91eb38e4f4c60c01b611b6e565b611188679414f8ee8f744e7f60c01b611b6e565b61119c67b87d909566fa27ec60c01b611b6e565b8480156111a65750825b6111e5576040517f08c379a00000000000000000000000000000000000000000000000000000000081526004016111dc90612f90565b60405180910390fd5b6111f9676ec591efa4c5b38d60c01b611b6e565b61120d67611ecd62a7ebd1a460c01b611b6e565b61122167d93b95da2c86d79f60c01b611b6e565b611235673a1a573eca47810860c01b611b6e565b81801561124157508381145b611280576040517f08c379a000000000000000000000000000000000000000000000000000000000815260040161127790612ffc565b60405180910390fd5b61129467c08a0d316a11781360c01b611b6e565b6112a867bc9754a4da3a6edd60c01b611b6e565b6112bc672b26f43dbeaf3c5a60c01b611b6e565b6112d067f518dbe6f7eaf19660c01b611b6e565b600060c960009054906101000a900473ffffffffffffffffffffffffffffffffffffffff1673ffffffffffffffffffffffffffffffffffffffff1663b83ac19f6040518163ffffffff1660e01b8152600401602060405180830381865afa15801561133f573d6000803e3d6000fd5b505050506040513d601f19601f8201168201806040525081019061136391906129f3565b73ffffffffffffffffffffffffffffffffffffffff16631eba59aa338a60006040518463ffffffff1660e01b81526004016113a093929190612a4a565b602060405180830381865afa1580156113bd573d6000803e3d6000fd5b505050506040513d601f19601f820116820180604052508101906113e19190612945565b11611421576040517f08c379a000000000000000000000000000000000000000000000000000000000815260040161141890612acd565b60405180910390fd5b611435670c45449b2080f85060c01b611b6e565b6114496704adcd3198cf473260c01b611b6e565b61145d6777ff7af3261bc23c60c01b611b6e565b6114716723d9bbd5f11b032a60c01b611b6e565b600073ffffffffffffffffffffffffffffffffffffffff1660cb600088815260200190815260200160002060009054906101000a900473ffffffffffffffffffffffffffffffffffffffff1673ffffffffffffffffffffffffffffffffffffffff1614611513576040517f08c379a000000000000000000000000000000000000000000000000000000000815260040161150a90613068565b60405180910390fd5b6115276787c151c02b79497360c01b611b6e565b61153b67fec34bd0ad847c1060c01b611b6e565b600160ca60008a73ffffffffffffffffffffffffffffffffffffffff1673ffffffffffffffffffffffffffffffffffffffff16815260200190815260200160002060006101000a81548160ff0219169083151502179055506115a76720362eaea413129260c01b611b6e565b6115bb67f27fc8ecb063dfdf60c01b611b6e565b6115e08860cc60008a8152602001908152602001600020611d0690919063ffffffff16565b506115f567c47b8c874f617afb60c01b611b6e565b8760cb600088815260200190815260200160002060006101000a81548173ffffffffffffffffffffffffffffffffffffffff021916908373ffffffffffffffffffffffffffffffffffffffff16021790555061165b67a95ee5c5a961fd1860c01b611b6e565b61166f6706ca5a06a078263b60c01b611b6e565b7f7f2c8d33649e33840160304ea5630d93fa959eddbeb3a66b3e4f4a31394fc0ab600033898b6040516116a59493929190612c2f565b60405180910390a15050505050505050565b6116cb67f53ad0ee282b25d660c01b611b6e565b60008060019054906101000a900460ff161590508080156116fc5750600160008054906101000a900460ff1660ff16105b80611729575061170b30611d36565b1580156117285750600160008054906101000a900460ff1660ff16145b5b611768576040517f08c379a000000000000000000000000000000000000000000000000000000000815260040161175f906130fa565b60405180910390fd5b60016000806101000a81548160ff021916908360ff16021790555080156117a5576001600060016101000a81548160ff0219169083151502179055505b6117b96735c9339dfdc1ff7060c01b611b6e565b6117cd67bc10899360d6a22060c01b611b6e565b6117e167b4cf7ae7d177e4c760c01b611b6e565b6117f56775ee9baf1c908bc160c01b611b6e565b6117fd611d59565b6118116754f4b488d5fbf5db60c01b611b6e565b611825676e3b6e70eae0c69a60c01b611b6e565b61182d611db2565b6118416704202bfbcbef863260c01b611b6e565b8160c960006101000a81548173ffffffffffffffffffffffffffffffffffffffff021916908373ffffffffffffffffffffffffffffffffffffffff16021790555080156118db5760008060016101000a81548160ff0219169083151502179055507f7f26b83ff96e1f2b6a682f133852f6798a09c465da95921460cefb384740249860016040516118d29190613162565b60405180910390a15b5050565b6118e7611ba1565b600073ffffffffffffffffffffffffffffffffffffffff168173ffffffffffffffffffffffffffffffffffffffff1603611956576040517f08c379a000000000000000000000000000000000000000000000000000000000815260040161194d906131ef565b60405180910390fd5b61195f81611c1f565b50565b60006119907f360894a13ba1a3210667c828492db98dca3e2076cc3735a920a3ca505d382bbc60001b611e03565b60000160009054906101000a900473ffffffffffffffffffffffffffffffffffffffff16905090565b6119cd6702e68cf8e7c549cc60c01b611b6e565b6119d5611ba1565b6119e9670d9c5fbf5d1ea87060c01b611b6e565b6119fd672ef1a481a14821b560c01b611b6e565b50565b611a2c7f4910fdfa16fed3260ed0e7147f7cc6da11a60208b5b9406d12a635614ffd914360001b611e0d565b60000160009054906101000a900460ff1615611a5057611a4b83611e17565b611b69565b8273ffffffffffffffffffffffffffffffffffffffff166352d1902d6040518163ffffffff1660e01b8152600401602060405180830381865afa925050508015611ab857506040513d601f19601f82011682018060405250810190611ab5919061320f565b60015b611af7576040517f08c379a0000000000000000000000000000000000000000000000000000000008152600401611aee906132ae565b60405180910390fd5b7f360894a13ba1a3210667c828492db98dca3e2076cc3735a920a3ca505d382bbc60001b8114611b5c576040517f08c379a0000000000000000000000000000000000000000000000000000000008152600401611b5390613340565b60405180910390fd5b50611b68838383611ed0565b5b505050565b50565b6000611b99836000018373ffffffffffffffffffffffffffffffffffffffff1660001b611efc565b905092915050565b611ba9612010565b73ffffffffffffffffffffffffffffffffffffffff16611bc7610d06565b73ffffffffffffffffffffffffffffffffffffffff1614611c1d576040517f08c379a0000000000000000000000000000000000000000000000000000000008152600401611c14906133ac565b60405180910390fd5b565b6000603360009054906101000a900473ffffffffffffffffffffffffffffffffffffffff16905081603360006101000a81548173ffffffffffffffffffffffffffffffffffffffff021916908373ffffffffffffffffffffffffffffffffffffffff1602179055508173ffffffffffffffffffffffffffffffffffffffff168173ffffffffffffffffffffffffffffffffffffffff167f8be0079c531659141344cd1fd0a4f28419497f9722a3daafe3b4186f6b6457e060405160405180910390a35050565b60606000611cf583600001612018565b905060608190508092505050919050565b6000611d2e836000018373ffffffffffffffffffffffffffffffffffffffff1660001b612074565b905092915050565b6000808273ffffffffffffffffffffffffffffffffffffffff163b119050919050565b600060019054906101000a900460ff16611da8576040517f08c379a0000000000000000000000000000000000000000000000000000000008152600401611d9f9061343e565b60405180910390fd5b611db06120e4565b565b600060019054906101000a900460ff16611e01576040517f08c379a0000000000000000000000000000000000000000000000000000000008152600401611df89061343e565b60405180910390fd5b565b6000819050919050565b6000819050919050565b611e2081611d36565b611e5f576040517f08c379a0000000000000000000000000000000000000000000000000000000008152600401611e56906134d0565b60405180910390fd5b80611e8c7f360894a13ba1a3210667c828492db98dca3e2076cc3735a920a3ca505d382bbc60001b611e03565b60000160006101000a81548173ffffffffffffffffffffffffffffffffffffffff021916908373ffffffffffffffffffffffffffffffffffffffff16021790555050565b611ed983612145565b600082511180611ee65750805b15611ef757611ef58383612194565b505b505050565b60008083600101600084815260200190815260200160002054905060008114612004576000600182611f2e919061351f565b9050600060018660000180549050611f46919061351f565b9050818114611fb5576000866000018281548110611f6757611f66613553565b5b9060005260206000200154905080876000018481548110611f8b57611f8a613553565b5b90600052602060002001819055508387600101600083815260200190815260200160002081905550505b85600001805480611fc957611fc8613582565b5b60019003818190600052602060002001600090559055856001016000868152602001908152602001600020600090556001935050505061200a565b60009150505b92915050565b600033905090565b60608160000180548060200260200160405190810160405280929190818152602001828054801561206857602002820191906000526020600020905b815481526020019060010190808311612054575b50505050509050919050565b60006120808383612278565b6120d95782600001829080600181540180825580915050600190039060005260206000200160009091909190915055826000018054905083600101600084815260200190815260200160002081905550600190506120de565b600090505b92915050565b600060019054906101000a900460ff16612133576040517f08c379a000000000000000000000000000000000000000000000000000000000815260040161212a9061343e565b60405180910390fd5b61214361213e612010565b611c1f565b565b61214e81611e17565b8073ffffffffffffffffffffffffffffffffffffffff167fbc7cd75a20ee27fd9adebab32041f755214dbc6bffa90cc0225b39da2e5c2d3b60405160405180910390a250565b606061219f83611d36565b6121de576040517f08c379a00000000000000000000000000000000000000000000000000000000081526004016121d590613623565b60405180910390fd5b6000808473ffffffffffffffffffffffffffffffffffffffff168460405161220691906136b4565b600060405180830381855af49150503d8060008114612241576040519150601f19603f3d011682016040523d82523d6000602084013e612246565b606091505b509150915061226e82826040518060600160405280602781526020016137326027913961229b565b9250505092915050565b600080836001016000848152602001908152602001600020541415905092915050565b606083156122ab578290506122fb565b6000835111156122be5782518084602001fd5b816040517f08c379a00000000000000000000000000000000000000000000000000000000081526004016122f2919061370f565b60405180910390fd5b9392505050565b600073ffffffffffffffffffffffffffffffffffffffff82169050919050565b600061232d82612302565b9050919050565b61233d81612322565b82525050565b60006020820190506123586000830184612334565b92915050565b6000604051905090565b600080fd5b600080fd5b61237b81612322565b811461238657600080fd5b50565b60008135905061239881612372565b92915050565b6000602082840312156123b4576123b3612368565b5b60006123c284828501612389565b91505092915050565b6000819050919050565b6123de816123cb565b81146123e957600080fd5b50565b6000813590506123fb816123d5565b92915050565b600061240c82612302565b9050919050565b61241c81612401565b811461242757600080fd5b50565b60008135905061243981612413565b92915050565b6000806040838503121561245657612455612368565b5b6000612464858286016123ec565b92505060206124758582860161242a565b9150509250929050565b600080fd5b600080fd5b6000601f19601f8301169050919050565b7f4e487b7100000000000000000000000000000000000000000000000000000000600052604160045260246000fd5b6124d282612489565b810181811067ffffffffffffffff821117156124f1576124f061249a565b5b80604052505050565b600061250461235e565b905061251082826124c9565b919050565b600067ffffffffffffffff8211156125305761252f61249a565b5b61253982612489565b9050602081019050919050565b82818337600083830152505050565b600061256861256384612515565b6124fa565b90508281526020810184848401111561258457612583612484565b5b61258f848285612546565b509392505050565b600082601f8301126125ac576125ab61247f565b5b81356125bc848260208601612555565b91505092915050565b600080604083850312156125dc576125db612368565b5b60006125ea85828601612389565b925050602083013567ffffffffffffffff81111561260b5761260a61236d565b5b61261785828601612597565b9150509250929050565b6000819050919050565b61263481612621565b82525050565b600060208201905061264f600083018461262b565b92915050565b60006020828403121561266b5761266a612368565b5b6000612679848285016123ec565b91505092915050565b600081519050919050565b600082825260208201905092915050565b6000819050602082019050919050565b6126b781612322565b82525050565b60006126c983836126ae565b60208301905092915050565b6000602082019050919050565b60006126ed82612682565b6126f7818561268d565b93506127028361269e565b8060005b8381101561273357815161271a88826126bd565b9750612725836126d5565b925050600181019050612706565b5085935050505092915050565b6000602082019050818103600083015261275a81846126e2565b905092915050565b60006020828403121561277857612777612368565b5b60006127868482850161242a565b91505092915050565b600082825260208201905092915050565b7f46756e6374696f6e206d7573742062652063616c6c6564207468726f7567682060008201527f64656c656761746563616c6c0000000000000000000000000000000000000000602082015250565b60006127fc602c8361278f565b9150612807826127a0565b604082019050919050565b6000602082019050818103600083015261282b816127ef565b9050919050565b7f46756e6374696f6e206d7573742062652063616c6c6564207468726f7567682060008201527f6163746976652070726f78790000000000000000000000000000000000000000602082015250565b600061288e602c8361278f565b915061289982612832565b604082019050919050565b600060208201905081810360008301526128bd81612881565b9050919050565b7f4d495353494e475f524547495354524154494f4e000000000000000000000000600082015250565b60006128fa60148361278f565b9150612905826128c4565b602082019050919050565b60006020820190508181036000830152612929816128ed565b9050919050565b60008151905061293f816123d5565b92915050565b60006020828403121561295b5761295a612368565b5b600061296984828501612930565b91505092915050565b7f434f52525550545f4944454e5449545900000000000000000000000000000000600082015250565b60006129a860108361278f565b91506129b382612972565b602082019050919050565b600060208201905081810360008301526129d78161299b565b9050919050565b6000815190506129ed81612372565b92915050565b600060208284031215612a0957612a08612368565b5b6000612a17848285016129de565b91505092915050565b612a29816123cb565b82525050565b60008115159050919050565b612a4481612a2f565b82525050565b6000606082019050612a5f6000830186612334565b612a6c6020830185612a20565b612a796040830184612a3b565b949350505050565b7f4b45595f4e4f545f48454c440000000000000000000000000000000000000000600082015250565b6000612ab7600c8361278f565b9150612ac282612a81565b602082019050919050565b60006020820190508181036000830152612ae681612aaa565b9050919050565b7f524547495354524154494f4e5f4e4f545f594f55525300000000000000000000600082015250565b6000612b2360168361278f565b9150612b2e82612aed565b602082019050919050565b60006020820190508181036000830152612b5281612b16565b9050919050565b7f4e487b7100000000000000000000000000000000000000000000000000000000600052602160045260246000fd5b60028110612b9957612b98612b59565b5b50565b6000819050612baa82612b88565b919050565b6000612bba82612b9c565b9050919050565b612bca81612baf565b82525050565b6000819050919050565b6000612bf5612bf0612beb84612302565b612bd0565b612302565b9050919050565b6000612c0782612bda565b9050919050565b6000612c1982612bfc565b9050919050565b612c2981612c0e565b82525050565b6000608082019050612c446000830187612bc1565b612c516020830186612334565b612c5e6040830185612a20565b612c6b6060830184612c20565b95945050505050565b7f555550535570677261646561626c653a206d757374206e6f742062652063616c60008201527f6c6564207468726f7567682064656c656761746563616c6c0000000000000000602082015250565b6000612cd060388361278f565b9150612cdb82612c74565b604082019050919050565b60006020820190508181036000830152612cff81612cc3565b9050919050565b7f4455504c49434154455f414444524553535f524547495354524154494f4e0000600082015250565b6000612d3c601e8361278f565b9150612d4782612d06565b602082019050919050565b60006020820190508181036000830152612d6b81612d2f565b9050919050565b6000602082019050612d876000830184612a20565b92915050565b612d9681612a2f565b8114612da157600080fd5b50565b600081519050612db381612d8d565b92915050565b612dc281612621565b8114612dcd57600080fd5b50565b600081519050612ddf81612db9565b92915050565b600067ffffffffffffffff821115612e0057612dff61249a565b5b602082029050602081019050919050565b600080fd5b6000612e29612e2484612de5565b6124fa565b90508083825260208201905060208402830185811115612e4c57612e4b612e11565b5b835b81811015612e755780612e618882612930565b845260208401935050602081019050612e4e565b5050509392505050565b600082601f830112612e9457612e9361247f565b5b8151612ea4848260208601612e16565b91505092915050565b600080600080600060a08688031215612ec957612ec8612368565b5b6000612ed788828901612da4565b9550506020612ee888828901612dd0565b9450506040612ef988828901612930565b9350506060612f0a88828901612da4565b925050608086015167ffffffffffffffff811115612f2b57612f2a61236d565b5b612f3788828901612e7f565b9150509295509295909350565b7f4f574e45525f4e4f545f524f4f54000000000000000000000000000000000000600082015250565b6000612f7a600e8361278f565b9150612f8582612f44565b602082019050919050565b60006020820190508181036000830152612fa981612f6d565b9050919050565b7f494e56414c49445f494e424f585f4b4559000000000000000000000000000000600082015250565b6000612fe660118361278f565b9150612ff182612fb0565b602082019050919050565b6000602082019050818103600083015261301581612fd9565b9050919050565b7f4455504c49434154455f4b45595f524547495354524154494f4e000000000000600082015250565b6000613052601a8361278f565b915061305d8261301c565b602082019050919050565b6000602082019050818103600083015261308181613045565b9050919050565b7f496e697469616c697a61626c653a20636f6e747261637420697320616c72656160008201527f647920696e697469616c697a6564000000000000000000000000000000000000602082015250565b60006130e4602e8361278f565b91506130ef82613088565b604082019050919050565b60006020820190508181036000830152613113816130d7565b9050919050565b6000819050919050565b600060ff82169050919050565b600061314c6131476131428461311a565b612bd0565b613124565b9050919050565b61315c81613131565b82525050565b60006020820190506131776000830184613153565b92915050565b7f4f776e61626c653a206e6577206f776e657220697320746865207a65726f206160008201527f6464726573730000000000000000000000000000000000000000000000000000602082015250565b60006131d960268361278f565b91506131e48261317d565b604082019050919050565b60006020820190508181036000830152613208816131cc565b9050919050565b60006020828403121561322557613224612368565b5b600061323384828501612dd0565b91505092915050565b7f45524331393637557067726164653a206e657720696d706c656d656e7461746960008201527f6f6e206973206e6f742055555053000000000000000000000000000000000000602082015250565b6000613298602e8361278f565b91506132a38261323c565b604082019050919050565b600060208201905081810360008301526132c78161328b565b9050919050565b7f45524331393637557067726164653a20756e737570706f727465642070726f7860008201527f6961626c65555549440000000000000000000000000000000000000000000000602082015250565b600061332a60298361278f565b9150613335826132ce565b604082019050919050565b600060208201905081810360008301526133598161331d565b9050919050565b7f4f776e61626c653a2063616c6c6572206973206e6f7420746865206f776e6572600082015250565b600061339660208361278f565b91506133a182613360565b602082019050919050565b600060208201905081810360008301526133c581613389565b9050919050565b7f496e697469616c697a61626c653a20636f6e7472616374206973206e6f74206960008201527f6e697469616c697a696e67000000000000000000000000000000000000000000602082015250565b6000613428602b8361278f565b9150613433826133cc565b604082019050919050565b600060208201905081810360008301526134578161341b565b9050919050565b7f455243313936373a206e657720696d706c656d656e746174696f6e206973206e60008201527f6f74206120636f6e747261637400000000000000000000000000000000000000602082015250565b60006134ba602d8361278f565b91506134c58261345e565b604082019050919050565b600060208201905081810360008301526134e9816134ad565b9050919050565b7f4e487b7100000000000000000000000000000000000000000000000000000000600052601160045260246000fd5b600061352a826123cb565b9150613535836123cb565b925082820390508181111561354d5761354c6134f0565b5b92915050565b7f4e487b7100000000000000000000000000000000000000000000000000000000600052603260045260246000fd5b7f4e487b7100000000000000000000000000000000000000000000000000000000600052603160045260246000fd5b7f416464726573733a2064656c65676174652063616c6c20746f206e6f6e2d636f60008201527f6e74726163740000000000000000000000000000000000000000000000000000602082015250565b600061360d60268361278f565b9150613618826135b1565b604082019050919050565b6000602082019050818103600083015261363c81613600565b9050919050565b600081519050919050565b600081905092915050565b60005b8381101561367757808201518184015260208101905061365c565b60008484015250505050565b600061368e82613643565b613698818561364e565b93506136a8818560208601613659565b80840191505092915050565b60006136c08284613683565b915081905092915050565b600081519050919050565b60006136e1826136cb565b6136eb818561278f565b93506136fb818560208601613659565b61370481612489565b840191505092915050565b6000602082019050818103600083015261372981846136d6565b90509291505056fe416464726573733a206c6f772d6c6576656c2064656c65676174652063616c6c206661696c6564a26469706673582212204dd1989c09ca28edbc4b06abc36ee9dc40d7e00039f7e625c27a2830058726c164736f6c63430008100033",
  "linkReferences": {},
  "deployedLinkReferences": {}
}