{
  "_format": "hh-sol-artifact-1",
  "contractName": "Trustee",
  "sourceName": "contracts/scribes/Trustee.sol",
  "abi": [
    {
      "inputs": [],
      "stateMutability": "nonpayable",
      "type": "constructor"
    },
    {
      "anonymous": false,
      "inputs": [
        {
          "indexed": false,
          "internalType": "address",
          "name": "previousAdmin",
          "type": "address"
        },
        {
          "indexed": false,
          "internalType": "address",
          "name": "newAdmin",
          "type": "address"
        }
      ],
      "name": "AdminChanged",
      "type": "event"
    },
    {
      "anonymous": false,
      "inputs": [
        {
          "indexed": true,
          "internalType": "address",
          "name": "beacon",
          "type": "address"
        }
      ],
      "name": "BeaconUpgraded",
      "type": "event"
    },
    {
      "anonymous": false,
      "inputs": [
        {
          "indexed": false,
          "internalType": "uint8",
          "name": "version",
          "type": "uint8"
        }
      ],
      "name": "Initialized",
      "type": "event"
    },
    {
      "anonymous": false,
      "inputs": [
        {
          "indexed": true,
          "internalType": "address",
          "name": "previousOwner",
          "type": "address"
        },
        {
          "indexed": true,
          "internalType": "address",
          "name": "newOwner",
          "type": "address"
        }
      ],
      "name": "OwnershipTransferred",
      "type": "event"
    },
    {
      "anonymous": false,
      "inputs": [
        {
          "indexed": true,
          "internalType": "address",
          "name": "implementation",
          "type": "address"
        }
      ],
      "name": "Upgraded",
      "type": "event"
    },
    {
      "anonymous": false,
      "inputs": [
        {
          "indexed": false,
          "internalType": "address",
          "name": "actor",
          "type": "address"
        },
        {
          "indexed": false,
          "internalType": "uint256",
          "name": "rootKeyId",
          "type": "uint256"
        },
        {
          "indexed": false,
          "internalType": "uint256",
          "name": "trusteeKeyId",
          "type": "uint256"
        }
      ],
      "name": "trusteePolicyRemoved",
      "type": "event"
    },
    {
      "anonymous": false,
      "inputs": [
        {
          "indexed": false,
          "internalType": "address",
          "name": "actor",
          "type": "address"
        },
        {
          "indexed": false,
          "internalType": "uint256",
          "name": "rootKeyId",
          "type": "uint256"
        },
        {
          "indexed": false,
          "internalType": "uint256",
          "name": "trusteeKeyId",
          "type": "uint256"
        },
        {
          "indexed": false,
          "internalType": "uint256",
          "name": "sourceKeyId",
          "type": "uint256"
        },
        {
          "indexed": false,
          "internalType": "uint256[]",
          "name": "beneficiaries",
          "type": "uint256[]"
        },
        {
          "indexed": false,
          "internalType": "bytes32[]",
          "name": "events",
          "type": "bytes32[]"
        }
      ],
      "name": "trusteePolicySet",
      "type": "event"
    },
    {
      "inputs": [
        {
          "internalType": "uint256",
          "name": "trusteeKeyId",
          "type": "uint256"
        },
        {
          "internalType": "address",
          "name": "provider",
          "type": "address"
        },
        {
          "internalType": "bytes32",
          "name": "arn",
          "type": "bytes32"
        },
        {
          "internalType": "uint256[]",
          "name": "beneficiaries",
          "type": "uint256[]"
        },
        {
          "internalType": "uint256[]",
          "name": "amounts",
          "type": "uint256[]"
        }
      ],
      "name": "distribute",
      "outputs": [
        {
          "internalType": "uint256",
          "name": "",
          "type": "uint256"
        }
      ],
      "stateMutability": "nonpayable",
      "type": "function"
    },
    {
      "inputs": [
        {
          "internalType": "uint256",
          "name": "keyId",
          "type": "uint256"
        }
      ],
      "name": "getPolicy",
      "outputs": [
        {
          "internalType": "bool",
          "name": "",
          "type": "bool"
        },
        {
          "internalType": "uint256",
          "name": "",
          "type": "uint256"
        },
        {
          "internalType": "uint256",
          "name": "",
          "type": "uint256"
        },
        {
          "internalType": "uint256[]",
          "name": "",
          "type": "uint256[]"
        },
        {
          "internalType": "bytes32[]",
          "name": "",
          "type": "bytes32[]"
        }
      ],
      "stateMutability": "view",
      "type": "function"
    },
    {
      "inputs": [
        {
          "internalType": "uint256",
          "name": "trustId",
          "type": "uint256"
        }
      ],
      "name": "getTrustPolicyKeys",
      "outputs": [
        {
          "internalType": "uint256[]",
          "name": "",
          "type": "uint256[]"
        }
      ],
      "stateMutability": "view",
      "type": "function"
    },
    {
      "inputs": [
        {
          "internalType": "address",
          "name": "_Locksmith",
          "type": "address"
        },
        {
          "internalType": "address",
          "name": "_Ledger",
          "type": "address"
        },
        {
          "internalType": "address",
          "name": "_TrustEventLog",
          "type": "address"
        }
      ],
      "name": "initialize",
      "outputs": [],
      "stateMutability": "nonpayable",
      "type": "function"
    },
    {
      "inputs": [],
      "name": "ledger",
      "outputs": [
        {
          "internalType": "contract ILedger",
          "name": "",
          "type": "address"
        }
      ],
      "stateMutability": "view",
      "type": "function"
    },
    {
      "inputs": [],
      "name": "locksmith",
      "outputs": [
        {
          "internalType": "contract ILocksmith",
          "name": "",
          "type": "address"
        }
      ],
      "stateMutability": "view",
      "type": "function"
    },
    {
      "inputs": [],
      "name": "owner",
      "outputs": [
        {
          "internalType": "address",
          "name": "",
          "type": "address"
        }
      ],
      "stateMutability": "view",
      "type": "function"
    },
    {
      "inputs": [],
      "name": "proxiableUUID",
      "outputs": [
        {
          "internalType": "bytes32",
          "name": "",
          "type": "bytes32"
        }
      ],
      "stateMutability": "view",
      "type": "function"
    },
    {
      "inputs": [
        {
          "internalType": "uint256",
          "name": "rootKeyId",
          "type": "uint256"
        },
        {
          "internalType": "uint256",
          "name": "trusteeKeyId",
          "type": "uint256"
        }
      ],
      "name": "removePolicy",
      "outputs": [],
      "stateMutability": "nonpayable",
      "type": "function"
    },
    {
      "inputs": [],
      "name": "renounceOwnership",
      "outputs": [],
      "stateMutability": "nonpayable",
      "type": "function"
    },
    {
      "inputs": [
        {
          "internalType": "uint256",
          "name": "rootKeyId",
          "type": "uint256"
        },
        {
          "internalType": "uint256",
          "name": "trusteeKeyId",
          "type": "uint256"
        },
        {
          "internalType": "uint256",
          "name": "sourceKeyId",
          "type": "uint256"
        },
        {
          "internalType": "uint256[]",
          "name": "beneficiaries",
          "type": "uint256[]"
        },
        {
          "internalType": "bytes32[]",
          "name": "events",
          "type": "bytes32[]"
        }
      ],
      "name": "setPolicy",
      "outputs": [],
      "stateMutability": "nonpayable",
      "type": "function"
    },
    {
      "inputs": [
        {
          "internalType": "address",
          "name": "newOwner",
          "type": "address"
        }
      ],
      "name": "transferOwnership",
      "outputs": [],
      "stateMutability": "nonpayable",
      "type": "function"
    },
    {
      "inputs": [],
      "name": "trustEventLog",
      "outputs": [
        {
          "internalType": "contract ITrustEventLog",
          "name": "",
          "type": "address"
        }
      ],
      "stateMutability": "view",
      "type": "function"
    },
    {
      "inputs": [
        {
          "internalType": "address",
          "name": "newImplementation",
          "type": "address"
        }
      ],
      "name": "upgradeTo",
      "outputs": [],
      "stateMutability": "nonpayable",
      "type": "function"
    },
    {
      "inputs": [
        {
          "internalType": "address",
          "name": "newImplementation",
          "type": "address"
        },
        {
          "internalType": "bytes",
          "name": "data",
          "type": "bytes"
        }
      ],
      "name": "upgradeToAndCall",
      "outputs": [],
      "stateMutability": "payable",
      "type": "function"
    }
  ],
  "bytecode": "0x60a0604052306080523480156200001557600080fd5b506200002062000026565b620000e8565b600054610100900460ff1615620000935760405162461bcd60e51b815260206004820152602760248201527f496e697469616c697a61626c653a20636f6e747261637420697320696e697469604482015266616c697a696e6760c81b606482015260840160405180910390fd5b60005460ff9081161015620000e6576000805460ff191660ff9081179091556040519081527f7f26b83ff96e1f2b6a682f133852f6798a09c465da95921460cefb38474024989060200160405180910390a15b565b6080516127466200012060003960008181610ce501528181610d6a01528181610e6001528181610ee50152610fcf01526127466000f3fe6080604052600436106100e85760003560e01c806356397c351161008a5780638da5cb5b116100595780638da5cb5b14610275578063c0c53b8b14610293578063f02dd176146102b3578063f2fde38b146102d357600080fd5b806356397c35146101f35780635a2fefef14610213578063715018a6146102335780638b24db421461024857600080fd5b80632b07fce3116100c65780632b07fce31461017a5780633659cfe6146101ab5780634f1ef286146101cb57806352d1902d146101de57600080fd5b8063092fc2a7146100ed57806313fb817e1461010f57806325798f611461014c575b600080fd5b3480156100f957600080fd5b5061010d610108366004612055565b6102f3565b005b34801561011b57600080fd5b5060c95461012f906001600160a01b031681565b6040516001600160a01b0390911681526020015b60405180910390f35b34801561015857600080fd5b5061016c6101673660046120f7565b610828565b604051908152602001610143565b34801561018657600080fd5b5061019a610195366004612148565b610b05565b60405161014395949392919061219c565b3480156101b757600080fd5b5061010d6101c6366004612207565b610cdb565b61010d6101d936600461226b565b610e56565b3480156101ea57600080fd5b5061016c610fc2565b3480156101ff57600080fd5b5060cb5461012f906001600160a01b031681565b34801561021f57600080fd5b5060ca5461012f906001600160a01b031681565b34801561023f57600080fd5b5061010d611087565b34801561025457600080fd5b50610268610263366004612148565b61109b565b6040516101439190612313565b34801561028157600080fd5b506033546001600160a01b031661012f565b34801561029f57600080fd5b5061010d6102ae366004612326565b6110bb565b3480156102bf57600080fd5b5061010d6102ce366004612371565b611231565b3480156102df57600080fd5b5061010d6102ee366004612207565b6113ef565b60006102fe8861147c565b9050836103525760405162461bcd60e51b815260206004820152601260248201527f5a45524f5f42454e45464943494152494553000000000000000000000000000060448201526064015b60405180910390fd5b60c9546040516344766d2960e11b81526004810189905260009182916001600160a01b03909116906388ecda5290602401600060405180830381865afa1580156103a0573d6000803e3d6000fd5b505050506040513d6000823e601f3d908101601f191682016040526103c891908101906123a8565b505092505091508161041c5760405162461bcd60e51b815260206004820152601360248201527f494e56414c49445f545255535445455f4b4559000000000000000000000000006044820152606401610349565b82811461046b5760405162461bcd60e51b815260206004820152601560248201527f545255535445455f4f5554534944455f545255535400000000000000000000006044820152606401610349565b60c9546040516344766d2960e11b8152600481018a905260009182916001600160a01b03909116906388ecda5290602401600060405180830381865afa1580156104b9573d6000803e3d6000fd5b505050506040513d6000823e601f3d908101601f191682016040526104e191908101906123a8565b50509250509150816105355760405162461bcd60e51b815260206004820152601260248201527f494e56414c49445f534f555243455f4b455900000000000000000000000000006044820152606401610349565b8481146105845760405162461bcd60e51b815260206004820152601460248201527f534f555243455f4f5554534944455f54525553540000000000000000000000006044820152606401610349565b60008b815260cc6020526040902060040154156105e35760405162461bcd60e51b815260206004820152601160248201527f4b45595f504f4c4943595f4558495354530000000000000000000000000000006044820152606401610349565b60c9546040517f53a81ee10000000000000000000000000000000000000000000000000000000081526001600160a01b03909116906353a81ee1906106339088908d908d906001906004016124d0565b602060405180830381865afa158015610650573d6000803e3d6000fd5b505050506040513d601f19601f8201168201806040525081019061067491906124fd565b5060005b888110156106f95789898281811061069257610692612518565b905060200201358b036106e75760405162461bcd60e51b815260206004820152601560248201527f534f555243455f49535f44455354494e4154494f4e00000000000000000000006044820152606401610349565b806106f181612544565b915050610678565b5060008b815260cc60205260409020600281018d9055600381018b9055610724600482018b8b611f8f565b5060005b898110156107895760018260050160008d8d8581811061074a5761074a612518565b90506020020135815260200190815260200160002060006101000a81548160ff021916908315150217905550808061078190612544565b915050610728565b50600086815260cd602052604090206107a2908d61167b565b506107b1600182018989611f8f565b50878790506000148160000160006101000a81548160ff0219169083151502179055507f8a6bded414158f51d49528c98244f78ffcae2f384110728cf2a8b93f438fae1a338e8e8e8e8e8e8e60405161081198979695949392919061255d565b60405180910390a150505050505050505050505050565b60008060c960009054906101000a90046001600160a01b03166001600160a01b031663b83ac19f6040518163ffffffff1660e01b8152600401602060405180830381865afa15801561087e573d6000803e3d6000fd5b505050506040513d601f19601f820116820180604052508101906108a291906125b4565b604051630f5d2cd560e11b8152336004820152602481018b9052600060448201526001600160a01b039190911690631eba59aa90606401602060405180830381865afa1580156108f6573d6000803e3d6000fd5b505050506040513d601f19601f8201168201806040525081019061091a91906125d1565b116109565760405162461bcd60e51b815260206004820152600c60248201526b12d15657d393d517d211531160a21b6044820152606401610349565b600088815260cc6020526040902060048101546109b55760405162461bcd60e51b815260206004820152600e60248201527f4d495353494e475f504f4c4943590000000000000000000000000000000000006044820152606401610349565b6109be8161168e565b60005b85811015610a5c578160050160008888848181106109e1576109e1612518565b602090810292909201358352508101919091526040016000205460ff16610a4a5760405162461bcd60e51b815260206004820152601360248201527f494e56414c49445f42454e4546494349415259000000000000000000000000006044820152606401610349565b80610a5481612544565b9150506109c1565b5060cb5460038201546040517fe009d93c0000000000000000000000000000000000000000000000000000000081526001600160a01b039092169163e009d93c91610ab5918c918c918c908c908c908c906004016125ea565b6020604051808303816000875af1158015610ad4573d6000803e3d6000fd5b505050506040513d601f19601f82011682018060405250810190610af891906125d1565b9998505050505050505050565b600081815260cc602052604081208054829182916060918291849060ff16610bfd5760005b6001830154811015610bfb5760ca546001840180546001600160a01b0390921691634c80ebd6919084908110610b6257610b62612518565b90600052602060002001546040518263ffffffff1660e01b8152600401610b8b91815260200190565b602060405180830381865afa158015610ba8573d6000803e3d6000fd5b505050506040513d601f19601f82011682018060405250810190610bcc91906124fd565b610bd7576000610bda565b60015b610be79060ff168361263a565b915080610bf381612544565b915050610b2a565b505b815460ff1680610c105750600182015481145b82600201548360030154846004018560010181805480602002602001604051908101604052809291908181526020018280548015610c6d57602002820191906000526020600020905b815481526020019060010190808311610c59575b5050505050915080805480602002602001604051908101604052809291908181526020018280548015610cbf57602002820191906000526020600020905b815481526020019060010190808311610cab575b5050505050905096509650965096509650505091939590929450565b6001600160a01b037f0000000000000000000000000000000000000000000000000000000000000000163003610d685760405162461bcd60e51b815260206004820152602c60248201527f46756e6374696f6e206d7573742062652063616c6c6564207468726f7567682060448201526b19195b1959d85d1958d85b1b60a21b6064820152608401610349565b7f00000000000000000000000000000000000000000000000000000000000000006001600160a01b0316610dc37f360894a13ba1a3210667c828492db98dca3e2076cc3735a920a3ca505d382bbc546001600160a01b031690565b6001600160a01b031614610e2e5760405162461bcd60e51b815260206004820152602c60248201527f46756e6374696f6e206d7573742062652063616c6c6564207468726f7567682060448201526b6163746976652070726f787960a01b6064820152608401610349565b610e37816117ac565b60408051600080825260208201909252610e53918391906117b4565b50565b6001600160a01b037f0000000000000000000000000000000000000000000000000000000000000000163003610ee35760405162461bcd60e51b815260206004820152602c60248201527f46756e6374696f6e206d7573742062652063616c6c6564207468726f7567682060448201526b19195b1959d85d1958d85b1b60a21b6064820152608401610349565b7f00000000000000000000000000000000000000000000000000000000000000006001600160a01b0316610f3e7f360894a13ba1a3210667c828492db98dca3e2076cc3735a920a3ca505d382bbc546001600160a01b031690565b6001600160a01b031614610fa95760405162461bcd60e51b815260206004820152602c60248201527f46756e6374696f6e206d7573742062652063616c6c6564207468726f7567682060448201526b6163746976652070726f787960a01b6064820152608401610349565b610fb2826117ac565b610fbe828260016117b4565b5050565b6000306001600160a01b037f000000000000000000000000000000000000000000000000000000000000000016146110625760405162461bcd60e51b815260206004820152603860248201527f555550535570677261646561626c653a206d757374206e6f742062652063616c60448201527f6c6564207468726f7567682064656c656761746563616c6c00000000000000006064820152608401610349565b507f360894a13ba1a3210667c828492db98dca3e2076cc3735a920a3ca505d382bbc90565b61108f611959565b61109960006119b3565b565b600081815260cd602052604090206060906110b590611a12565b92915050565b600054610100900460ff16158080156110db5750600054600160ff909116105b806110f55750303b1580156110f5575060005460ff166001145b6111675760405162461bcd60e51b815260206004820152602e60248201527f496e697469616c697a61626c653a20636f6e747261637420697320616c72656160448201527f647920696e697469616c697a65640000000000000000000000000000000000006064820152608401610349565b6000805460ff19166001179055801561118a576000805461ff0019166101001790555b611192611a1f565b61119a611a92565b60c980546001600160a01b0380871673ffffffffffffffffffffffffffffffffffffffff199283161790925560cb805486841690831617905560ca805492851692909116919091179055801561122b576000805461ff0019169055604051600181527f7f26b83ff96e1f2b6a682f133852f6798a09c465da95921460cefb3847402498906020015b60405180910390a15b50505050565b600061123c8361147c565b600083815260cc6020526040902060048101549192509061129f5760405162461bcd60e51b815260206004820152600e60248201527f4d495353494e475f504f4c4943590000000000000000000000000000000000006044820152606401610349565b838160020154146112f25760405162461bcd60e51b815260206004820152601060248201527f494e56414c49445f524f4f545f4b4559000000000000000000000000000000006044820152606401610349565b60005b60048201548110156113515781600501600083600401838154811061131c5761131c612518565b600091825260208083209091015483528201929092526040019020805460ff191690558061134981612544565b9150506112f5565b50600083815260cc60205260408120805460ff19168155906113766001830182611fda565b600282016000905560038201600090556004820160006113969190611fda565b5050600082815260cd602052604090206113b09084611afd565b5060408051338152602081018690529081018490527f8df489c07352c80764743d69a1918771c7ef6fa59f646af26090526d6e538a9a90606001611222565b6113f7611959565b6001600160a01b0381166114735760405162461bcd60e51b815260206004820152602660248201527f4f776e61626c653a206e6577206f776e657220697320746865207a65726f206160448201527f64647265737300000000000000000000000000000000000000000000000000006064820152608401610349565b610e53816119b3565b60008060c960009054906101000a90046001600160a01b03166001600160a01b031663b83ac19f6040518163ffffffff1660e01b8152600401602060405180830381865afa1580156114d2573d6000803e3d6000fd5b505050506040513d601f19601f820116820180604052508101906114f691906125b4565b604051630f5d2cd560e11b815233600482015260248101859052600060448201526001600160a01b039190911690631eba59aa90606401602060405180830381865afa15801561154a573d6000803e3d6000fd5b505050506040513d601f19601f8201168201806040525081019061156e91906125d1565b116115aa5760405162461bcd60e51b815260206004820152600c60248201526b12d15657d393d517d211531160a21b6044820152606401610349565b60c9546040516344766d2960e11b81526004810184905260009182916001600160a01b03909116906388ecda5290602401600060405180830381865afa1580156115f8573d6000803e3d6000fd5b505050506040513d6000823e601f3d908101601f1916820160405261162091908101906123a8565b50935093505050806116745760405162461bcd60e51b815260206004820152600c60248201527f4b45595f4e4f545f524f4f5400000000000000000000000000000000000000006044820152606401610349565b5092915050565b60006116878383611b09565b9392505050565b805460ff161561169b5750565b60005b600182015481101561179e5760ca546001830180546001600160a01b0390921691634c80ebd69190849081106116d6576116d6612518565b90600052602060002001546040518263ffffffff1660e01b81526004016116ff91815260200190565b602060405180830381865afa15801561171c573d6000803e3d6000fd5b505050506040513d601f19601f8201168201806040525081019061174091906124fd565b61178c5760405162461bcd60e51b815260206004820152600d60248201527f4d495353494e475f4556454e54000000000000000000000000000000000000006044820152606401610349565b8061179681612544565b91505061169e565b50805460ff19166001179055565b610e53611959565b7f4910fdfa16fed3260ed0e7147f7cc6da11a60208b5b9406d12a635614ffd91435460ff16156117ec576117e783611b58565b505050565b826001600160a01b03166352d1902d6040518163ffffffff1660e01b8152600401602060405180830381865afa925050508015611846575060408051601f3d908101601f19168201909252611843918101906125d1565b60015b6118b85760405162461bcd60e51b815260206004820152602e60248201527f45524331393637557067726164653a206e657720696d706c656d656e7461746960448201527f6f6e206973206e6f7420555550530000000000000000000000000000000000006064820152608401610349565b7f360894a13ba1a3210667c828492db98dca3e2076cc3735a920a3ca505d382bbc811461194d5760405162461bcd60e51b815260206004820152602960248201527f45524331393637557067726164653a20756e737570706f727465642070726f7860448201527f6961626c655555494400000000000000000000000000000000000000000000006064820152608401610349565b506117e7838383611c23565b6033546001600160a01b031633146110995760405162461bcd60e51b815260206004820181905260248201527f4f776e61626c653a2063616c6c6572206973206e6f7420746865206f776e65726044820152606401610349565b603380546001600160a01b0383811673ffffffffffffffffffffffffffffffffffffffff19831681179093556040519116919082907f8be0079c531659141344cd1fd0a4f28419497f9722a3daafe3b4186f6b6457e090600090a35050565b6060600061168783611c48565b600054610100900460ff16611a8a5760405162461bcd60e51b815260206004820152602b60248201527f496e697469616c697a61626c653a20636f6e7472616374206973206e6f74206960448201526a6e697469616c697a696e6760a81b6064820152608401610349565b611099611ca4565b600054610100900460ff166110995760405162461bcd60e51b815260206004820152602b60248201527f496e697469616c697a61626c653a20636f6e7472616374206973206e6f74206960448201526a6e697469616c697a696e6760a81b6064820152608401610349565b60006116878383611d18565b6000818152600183016020526040812054611b50575081546001818101845560008481526020808220909301849055845484825282860190935260409020919091556110b5565b5060006110b5565b6001600160a01b0381163b611bd55760405162461bcd60e51b815260206004820152602d60248201527f455243313936373a206e657720696d706c656d656e746174696f6e206973206e60448201527f6f74206120636f6e7472616374000000000000000000000000000000000000006064820152608401610349565b7f360894a13ba1a3210667c828492db98dca3e2076cc3735a920a3ca505d382bbc805473ffffffffffffffffffffffffffffffffffffffff19166001600160a01b0392909216919091179055565b611c2c83611e0b565b600082511180611c395750805b156117e75761122b8383611e4b565b606081600001805480602002602001604051908101604052809291908181526020018280548015611c9857602002820191906000526020600020905b815481526020019060010190808311611c84575b50505050509050919050565b600054610100900460ff16611d0f5760405162461bcd60e51b815260206004820152602b60248201527f496e697469616c697a61626c653a20636f6e7472616374206973206e6f74206960448201526a6e697469616c697a696e6760a81b6064820152608401610349565b611099336119b3565b60008181526001830160205260408120548015611e01576000611d3c60018361264d565b8554909150600090611d509060019061264d565b9050818114611db5576000866000018281548110611d7057611d70612518565b9060005260206000200154905080876000018481548110611d9357611d93612518565b6000918252602080832090910192909255918252600188019052604090208390555b8554869080611dc657611dc6612660565b6001900381819060005260206000200160009055905585600101600086815260200190815260200160002060009055600193505050506110b5565b60009150506110b5565b611e1481611b58565b6040516001600160a01b038216907fbc7cd75a20ee27fd9adebab32041f755214dbc6bffa90cc0225b39da2e5c2d3b90600090a250565b60606001600160a01b0383163b611eca5760405162461bcd60e51b815260206004820152602660248201527f416464726573733a2064656c65676174652063616c6c20746f206e6f6e2d636f60448201527f6e747261637400000000000000000000000000000000000000000000000000006064820152608401610349565b600080846001600160a01b031684604051611ee5919061269a565b600060405180830381855af49150503d8060008114611f20576040519150601f19603f3d011682016040523d82523d6000602084013e611f25565b606091505b5091509150611f4d82826040518060600160405280602781526020016126ea60279139611f56565b95945050505050565b60608315611f65575081611687565b825115611f755782518084602001fd5b8160405162461bcd60e51b815260040161034991906126b6565b828054828255906000526020600020908101928215611fca579160200282015b82811115611fca578235825591602001919060010190611faf565b50611fd6929150611ff4565b5090565b5080546000825590600052602060002090810190610e5391905b5b80821115611fd65760008155600101611ff5565b60008083601f84011261201b57600080fd5b50813567ffffffffffffffff81111561203357600080fd5b6020830191508360208260051b850101111561204e57600080fd5b9250929050565b600080600080600080600060a0888a03121561207057600080fd5b873596506020880135955060408801359450606088013567ffffffffffffffff8082111561209d57600080fd5b6120a98b838c01612009565b909650945060808a01359150808211156120c257600080fd5b506120cf8a828b01612009565b989b979a50959850939692959293505050565b6001600160a01b0381168114610e5357600080fd5b600080600080600080600060a0888a03121561211257600080fd5b873596506020880135612124816120e2565b955060408801359450606088013567ffffffffffffffff8082111561209d57600080fd5b60006020828403121561215a57600080fd5b5035919050565b600081518084526020808501945080840160005b8381101561219157815187529582019590820190600101612175565b509495945050505050565b851515815260006020868184015285604084015260a060608401526121c460a0840186612161565b838103608085015284518082528286019183019060005b818110156121f7578351835292840192918401916001016121db565b50909a9950505050505050505050565b60006020828403121561221957600080fd5b8135611687816120e2565b634e487b7160e01b600052604160045260246000fd5b604051601f8201601f1916810167ffffffffffffffff8111828210171561226357612263612224565b604052919050565b6000806040838503121561227e57600080fd5b8235612289816120e2565b915060208381013567ffffffffffffffff808211156122a757600080fd5b818601915086601f8301126122bb57600080fd5b8135818111156122cd576122cd612224565b6122df601f8201601f1916850161223a565b915080825287848285010111156122f557600080fd5b80848401858401376000848284010152508093505050509250929050565b6020815260006116876020830184612161565b60008060006060848603121561233b57600080fd5b8335612346816120e2565b92506020840135612356816120e2565b91506040840135612366816120e2565b809150509250925092565b6000806040838503121561238457600080fd5b50508035926020909101359150565b805180151581146123a357600080fd5b919050565b600080600080600060a086880312156123c057600080fd5b6123c986612393565b94506020808701519450604087015193506123e660608801612393565b9250608087015167ffffffffffffffff8082111561240357600080fd5b818901915089601f83011261241757600080fd5b81518181111561242957612429612224565b8060051b915061243a84830161223a565b818152918301840191848101908c84111561245457600080fd5b938501935b8385101561247257845182529385019390850190612459565b8096505050505050509295509295909350565b81835260007f07ffffffffffffffffffffffffffffffffffffffffffffffffffffffffffffff8311156124b757600080fd5b8260051b80836020870137939093016020019392505050565b8481526060602082015260006124ea606083018587612485565b9050821515604083015295945050505050565b60006020828403121561250f57600080fd5b61168782612393565b634e487b7160e01b600052603260045260246000fd5b634e487b7160e01b600052601160045260246000fd5b6000600182016125565761255661252e565b5060010190565b6001600160a01b038916815287602082015286604082015285606082015260c06080820152600061259260c083018688612485565b82810360a08401526125a5818587612485565b9b9a5050505050505050505050565b6000602082840312156125c657600080fd5b8151611687816120e2565b6000602082840312156125e357600080fd5b5051919050565b6001600160a01b038816815286602082015285604082015260a06060820152600061261960a083018688612485565b828103608084015261262c818587612485565b9a9950505050505050505050565b808201808211156110b5576110b561252e565b818103818111156110b5576110b561252e565b634e487b7160e01b600052603160045260246000fd5b60005b83811015612691578181015183820152602001612679565b50506000910152565b600082516126ac818460208701612676565b9190910192915050565b60208152600082518060208401526126d5816040850160208701612676565b601f01601f1916919091016040019291505056fe416464726573733a206c6f772d6c6576656c2064656c65676174652063616c6c206661696c6564a2646970667358221220e641c0aeab52fa105a0b011a77524d5ab3327048bc7ae7fccffb486c435f7fe664736f6c63430008100033",
  "linkReferences": {},
  "deployedLinkReferences": {}
}