{
  "_format": "hh-sol-artifact-1",
  "contractName": "Trustee",
  "sourceName": "contracts/scribes/Trustee.sol",
  "abi": [
    {
      "inputs": [],
      "stateMutability": "nonpayable",
      "type": "constructor"
    },
    {
      "anonymous": false,
      "inputs": [
        {
          "indexed": false,
          "internalType": "address",
          "name": "previousAdmin",
          "type": "address"
        },
        {
          "indexed": false,
          "internalType": "address",
          "name": "newAdmin",
          "type": "address"
        }
      ],
      "name": "AdminChanged",
      "type": "event"
    },
    {
      "anonymous": false,
      "inputs": [
        {
          "indexed": true,
          "internalType": "address",
          "name": "beacon",
          "type": "address"
        }
      ],
      "name": "BeaconUpgraded",
      "type": "event"
    },
    {
      "anonymous": false,
      "inputs": [
        {
          "indexed": false,
          "internalType": "uint8",
          "name": "version",
          "type": "uint8"
        }
      ],
      "name": "Initialized",
      "type": "event"
    },
    {
      "anonymous": false,
      "inputs": [
        {
          "indexed": true,
          "internalType": "address",
          "name": "previousOwner",
          "type": "address"
        },
        {
          "indexed": true,
          "internalType": "address",
          "name": "newOwner",
          "type": "address"
        }
      ],
      "name": "OwnershipTransferred",
      "type": "event"
    },
    {
      "anonymous": false,
      "inputs": [
        {
          "indexed": true,
          "internalType": "address",
          "name": "implementation",
          "type": "address"
        }
      ],
      "name": "Upgraded",
      "type": "event"
    },
    {
      "anonymous": false,
      "inputs": [
        {
          "indexed": false,
          "internalType": "address",
          "name": "actor",
          "type": "address"
        },
        {
          "indexed": false,
          "internalType": "uint256",
          "name": "rootKeyId",
          "type": "uint256"
        },
        {
          "indexed": false,
          "internalType": "uint256",
          "name": "trusteeKeyId",
          "type": "uint256"
        }
      ],
      "name": "trusteePolicyRemoved",
      "type": "event"
    },
    {
      "anonymous": false,
      "inputs": [
        {
          "indexed": false,
          "internalType": "address",
          "name": "actor",
          "type": "address"
        },
        {
          "indexed": false,
          "internalType": "uint256",
          "name": "rootKeyId",
          "type": "uint256"
        },
        {
          "indexed": false,
          "internalType": "uint256",
          "name": "trusteeKeyId",
          "type": "uint256"
        },
        {
          "indexed": false,
          "internalType": "uint256[]",
          "name": "beneficiaries",
          "type": "uint256[]"
        },
        {
          "indexed": false,
          "internalType": "bytes32[]",
          "name": "events",
          "type": "bytes32[]"
        }
      ],
      "name": "trusteePolicySet",
      "type": "event"
    },
    {
      "inputs": [
        {
          "internalType": "uint256",
          "name": "trusteeKeyId",
          "type": "uint256"
        },
        {
          "internalType": "address",
          "name": "provider",
          "type": "address"
        },
        {
          "internalType": "bytes32",
          "name": "arn",
          "type": "bytes32"
        },
        {
          "internalType": "uint256[]",
          "name": "beneficiaries",
          "type": "uint256[]"
        },
        {
          "internalType": "uint256[]",
          "name": "amounts",
          "type": "uint256[]"
        }
      ],
      "name": "distribute",
      "outputs": [
        {
          "internalType": "uint256",
          "name": "",
          "type": "uint256"
        }
      ],
      "stateMutability": "nonpayable",
      "type": "function"
    },
    {
      "inputs": [
        {
          "internalType": "uint256",
          "name": "keyId",
          "type": "uint256"
        }
      ],
      "name": "getPolicy",
      "outputs": [
        {
          "internalType": "bool",
          "name": "",
          "type": "bool"
        },
        {
          "internalType": "uint256",
          "name": "",
          "type": "uint256"
        },
        {
          "internalType": "uint256[]",
          "name": "",
          "type": "uint256[]"
        },
        {
          "internalType": "bytes32[]",
          "name": "",
          "type": "bytes32[]"
        }
      ],
      "stateMutability": "view",
      "type": "function"
    },
    {
      "inputs": [
        {
          "internalType": "uint256",
          "name": "trustId",
          "type": "uint256"
        }
      ],
      "name": "getTrustPolicyKeys",
      "outputs": [
        {
          "internalType": "uint256[]",
          "name": "",
          "type": "uint256[]"
        }
      ],
      "stateMutability": "view",
      "type": "function"
    },
    {
      "inputs": [
        {
          "internalType": "address",
          "name": "_Locksmith",
          "type": "address"
        },
        {
          "internalType": "address",
          "name": "_Ledger",
          "type": "address"
        },
        {
          "internalType": "address",
          "name": "_TrustEventLog",
          "type": "address"
        }
      ],
      "name": "initialize",
      "outputs": [],
      "stateMutability": "nonpayable",
      "type": "function"
    },
    {
      "inputs": [],
      "name": "ledger",
      "outputs": [
        {
          "internalType": "contract ILedger",
          "name": "",
          "type": "address"
        }
      ],
      "stateMutability": "view",
      "type": "function"
    },
    {
      "inputs": [],
      "name": "locksmith",
      "outputs": [
        {
          "internalType": "contract ILocksmith",
          "name": "",
          "type": "address"
        }
      ],
      "stateMutability": "view",
      "type": "function"
    },
    {
      "inputs": [],
      "name": "owner",
      "outputs": [
        {
          "internalType": "address",
          "name": "",
          "type": "address"
        }
      ],
      "stateMutability": "view",
      "type": "function"
    },
    {
      "inputs": [],
      "name": "proxiableUUID",
      "outputs": [
        {
          "internalType": "bytes32",
          "name": "",
          "type": "bytes32"
        }
      ],
      "stateMutability": "view",
      "type": "function"
    },
    {
      "inputs": [
        {
          "internalType": "uint256",
          "name": "rootKeyId",
          "type": "uint256"
        },
        {
          "internalType": "uint256",
          "name": "trusteeKeyId",
          "type": "uint256"
        }
      ],
      "name": "removePolicy",
      "outputs": [],
      "stateMutability": "nonpayable",
      "type": "function"
    },
    {
      "inputs": [],
      "name": "renounceOwnership",
      "outputs": [],
      "stateMutability": "nonpayable",
      "type": "function"
    },
    {
      "inputs": [
        {
          "internalType": "uint256",
          "name": "rootKeyId",
          "type": "uint256"
        },
        {
          "internalType": "uint256",
          "name": "trusteeKeyId",
          "type": "uint256"
        },
        {
          "internalType": "uint256[]",
          "name": "beneficiaries",
          "type": "uint256[]"
        },
        {
          "internalType": "bytes32[]",
          "name": "events",
          "type": "bytes32[]"
        }
      ],
      "name": "setPolicy",
      "outputs": [],
      "stateMutability": "nonpayable",
      "type": "function"
    },
    {
      "inputs": [
        {
          "internalType": "address",
          "name": "newOwner",
          "type": "address"
        }
      ],
      "name": "transferOwnership",
      "outputs": [],
      "stateMutability": "nonpayable",
      "type": "function"
    },
    {
      "inputs": [],
      "name": "trustEventLog",
      "outputs": [
        {
          "internalType": "contract ITrustEventLog",
          "name": "",
          "type": "address"
        }
      ],
      "stateMutability": "view",
      "type": "function"
    },
    {
      "inputs": [
        {
          "internalType": "address",
          "name": "newImplementation",
          "type": "address"
        }
      ],
      "name": "upgradeTo",
      "outputs": [],
      "stateMutability": "nonpayable",
      "type": "function"
    },
    {
      "inputs": [
        {
          "internalType": "address",
          "name": "newImplementation",
          "type": "address"
        },
        {
          "internalType": "bytes",
          "name": "data",
          "type": "bytes"
        }
      ],
      "name": "upgradeToAndCall",
      "outputs": [],
      "stateMutability": "payable",
      "type": "function"
    }
  ],
  "bytecode": "0x60a06040523073ffffffffffffffffffffffffffffffffffffffff1660809073ffffffffffffffffffffffffffffffffffffffff168152503480156200004457600080fd5b506200006167c72d673ee29645a460c01b620000af60201b60201c565b6200007d674045f3c8fa224fd460c01b620000af60201b60201c565b620000996731e321fe065b8cf060c01b620000af60201b60201c565b620000a9620000b260201b60201c565b6200025d565b50565b600060019054906101000a900460ff161562000105576040517f08c379a0000000000000000000000000000000000000000000000000000000008152600401620000fc9062000200565b60405180910390fd5b60ff801660008054906101000a900460ff1660ff161015620001775760ff6000806101000a81548160ff021916908360ff1602179055507f7f26b83ff96e1f2b6a682f133852f6798a09c465da95921460cefb384740249860ff6040516200016e919062000240565b60405180910390a15b565b600082825260208201905092915050565b7f496e697469616c697a61626c653a20636f6e747261637420697320696e69746960008201527f616c697a696e6700000000000000000000000000000000000000000000000000602082015250565b6000620001e860278362000179565b9150620001f5826200018a565b604082019050919050565b600060208201905081810360008301526200021b81620001d9565b9050919050565b600060ff82169050919050565b6200023a8162000222565b82525050565b60006020820190506200025760008301846200022f565b92915050565b608051614a2f6200029560003960008181610c0701528181610c9501528181610d8f01528181610e1d0152610ecd0152614a2f6000f3fe6080604052600436106100e85760003560e01c80635a2fefef1161008a578063c0c53b8b11610059578063c0c53b8b146102da578063e661165314610303578063f02dd1761461032c578063f2fde38b14610355576100e8565b80635a2fefef14610230578063715018a61461025b5780638b24db42146102725780638da5cb5b146102af576100e8565b80633659cfe6116100c65780633659cfe6146101955780634f1ef286146101be57806352d1902d146101da57806356397c3514610205576100e8565b806313fb817e146100ed57806325798f61146101185780632b07fce314610155575b600080fd5b3480156100f957600080fd5b5061010261037e565b60405161010f9190612f35565b60405180910390f35b34801561012457600080fd5b5061013f600480360381019061013a9190613073565b6103a4565b60405161014c919061313e565b60405180910390f35b34801561016157600080fd5b5061017c60048036038101906101779190613159565b61085e565b60405161018c949392919061331d565b60405180910390f35b3480156101a157600080fd5b506101bc60048036038101906101b79190613370565b610c05565b005b6101d860048036038101906101d391906134de565b610d8d565b005b3480156101e657600080fd5b506101ef610ec9565b6040516101fc9190613549565b60405180910390f35b34801561021157600080fd5b5061021a610f82565b6040516102279190613585565b60405180910390f35b34801561023c57600080fd5b50610245610fa8565b60405161025291906135c1565b60405180910390f35b34801561026757600080fd5b50610270610fce565b005b34801561027e57600080fd5b5061029960048036038101906102949190613159565b610fe2565b6040516102a691906135dc565b60405180910390f35b3480156102bb57600080fd5b506102c4611042565b6040516102d1919061360d565b60405180910390f35b3480156102e657600080fd5b5061030160048036038101906102fc9190613628565b61106c565b005b34801561030f57600080fd5b5061032a600480360381019061032591906136d1565b611340565b005b34801561033857600080fd5b50610353600480360381019061034e9190613778565b611a6d565b005b34801561036157600080fd5b5061037c60048036038101906103779190613370565b611de9565b005b60c960009054906101000a900473ffffffffffffffffffffffffffffffffffffffff1681565b60006103ba67069e1a2922d6becb60c01b611e6c565b6103ce67e74382ed9053988160c01b611e6c565b6103e2673a8212440bda564a60c01b611e6c565b6103f66756636715ead3538c60c01b611e6c565b600060c960009054906101000a900473ffffffffffffffffffffffffffffffffffffffff1673ffffffffffffffffffffffffffffffffffffffff1663b83ac19f6040518163ffffffff1660e01b8152600401602060405180830381865afa158015610465573d6000803e3d6000fd5b505050506040513d601f19601f8201168201806040525081019061048991906137cd565b73ffffffffffffffffffffffffffffffffffffffff16631eba59aa338b60006040518463ffffffff1660e01b81526004016104c6939291906137fa565b602060405180830381865afa1580156104e3573d6000803e3d6000fd5b505050506040513d601f19601f820116820180604052508101906105079190613846565b11610547576040517f08c379a000000000000000000000000000000000000000000000000000000000815260040161053e906138d0565b60405180910390fd5b61055b67e399a94717e6ddd860c01b611e6c565b61056f6778dc7ae7ecd650c960c01b611e6c565b61058367c33dbff6a8fe81c160c01b611e6c565b600060cc60008a815260200190815260200160002090506105ae67cea7de2a9a79fab860c01b611e6c565b6105c267ef6121501847e76860c01b611e6c565b6105d6675137ca742986914360c01b611e6c565b6000816003018054905011610620576040517f08c379a00000000000000000000000000000000000000000000000000000000081526004016106179061393c565b60405180910390fd5b6106346775318a01e74fe7dc60c01b611e6c565b61064867627beda343c7c06d60c01b611e6c565b61065c670d76924f9380413c60c01b611e6c565b61066581611e6f565b610679676c5341140cacf91460c01b611e6c565b61068d674c000e2206dcaa6e60c01b611e6c565b60005b86869050811015610779576106af678f26a536923550a560c01b611e6c565b6106c367b15dab9882f40ecf60c01b611e6c565b6106d7678b331c0fafb02dda60c01b611e6c565b8160040160008888848181106106f0576106ef61395c565b5b90506020020135815260200190815260200160002060009054906101000a900460ff16610752576040517f08c379a0000000000000000000000000000000000000000000000000000000008152600401610749906139d7565b60405180910390fd5b61076667509d113f1d92c5cf60c01b611e6c565b808061077190613a26565b915050610690565b5061078e67c49403e10fc56de860c01b611e6c565b6107a2675823993b7896447660c01b611e6c565b60cb60009054906101000a900473ffffffffffffffffffffffffffffffffffffffff1673ffffffffffffffffffffffffffffffffffffffff1663e009d93c898984600201548a8a8a8a6040518863ffffffff1660e01b815260040161080d9796959493929190613ad8565b6020604051808303816000875af115801561082c573d6000803e3d6000fd5b505050506040513d601f19601f820116820180604052508101906108509190613846565b915050979650505050505050565b600080606080610878671cb6aa5447f7e5ba60c01b611e6c565b61088c67bc359b3ffc8c152860c01b611e6c565b6108a067c9059b4b3b64995660c01b611e6c565b600060cc600087815260200190815260200160002090506108cb6734e628c1ac32109360c01b611e6c565b6108df677abf9ef3ca11d8ee60c01b611e6c565b60006108f567c147a975d9f447db60c01b611e6c565b61090967ff42d06f6d72b8e760c01b611e6c565b8160000160009054906101000a900460ff16610aab576109336788c0f58f02766f8a60c01b611e6c565b61094767c036aad58361fc1b60c01b611e6c565b61095b6774905a792612aff460c01b611e6c565b60005b8260010180549050811015610aa55761098167fad31c318453bcb360c01b611e6c565b60ca60009054906101000a900473ffffffffffffffffffffffffffffffffffffffff1673ffffffffffffffffffffffffffffffffffffffff16634c80ebd68460010183815481106109d5576109d461395c565b5b90600052602060002001546040518263ffffffff1660e01b81526004016109fc9190613549565b602060405180830381865afa158015610a19573d6000803e3d6000fd5b505050506040513d601f19601f82011682018060405250810190610a3d9190613b69565b8015610a595750610a586741cdb0b1d08e225b60c01b6120d1565b5b80610a745750610a736799f663ca4bc1b4b460c01b6120dc565b5b610a7f576000610a82565b60015b60ff1682610a909190613b96565b91508080610a9d90613a26565b91505061095e565b50610ac0565b610abf679b12bb9197b9f5f460c01b611e6c565b5b610ad467384644bca2c7bb6060c01b611e6c565b610ae8671841e548bb8c879c60c01b611e6c565b8160000160009054906101000a900460ff168015610b165750610b156791a924ee83b0f20460c01b6120d1565b5b80610b435750816001018054905081148015610b425750610b4167565947130e7d2b6a60c01b6120d1565b5b5b8260020154836003018460010181805480602002602001604051908101604052809291908181526020018280548015610b9b57602002820191906000526020600020905b815481526020019060010190808311610b87575b5050505050915080805480602002602001604051908101604052809291908181526020018280548015610bed57602002820191906000526020600020905b815481526020019060010190808311610bd9575b50505050509050955095509550955050509193509193565b7f000000000000000000000000000000000000000000000000000000000000000073ffffffffffffffffffffffffffffffffffffffff163073ffffffffffffffffffffffffffffffffffffffff1603610c93576040517f08c379a0000000000000000000000000000000000000000000000000000000008152600401610c8a90613c3c565b60405180910390fd5b7f000000000000000000000000000000000000000000000000000000000000000073ffffffffffffffffffffffffffffffffffffffff16610cd26120e3565b73ffffffffffffffffffffffffffffffffffffffff1614610d28576040517f08c379a0000000000000000000000000000000000000000000000000000000008152600401610d1f90613cce565b60405180910390fd5b610d318161213a565b610d8a81600067ffffffffffffffff811115610d5057610d4f6133b3565b5b6040519080825280601f01601f191660200182016040528015610d825781602001600182028036833780820191505090505b506000612181565b50565b7f000000000000000000000000000000000000000000000000000000000000000073ffffffffffffffffffffffffffffffffffffffff163073ffffffffffffffffffffffffffffffffffffffff1603610e1b576040517f08c379a0000000000000000000000000000000000000000000000000000000008152600401610e1290613c3c565b60405180910390fd5b7f000000000000000000000000000000000000000000000000000000000000000073ffffffffffffffffffffffffffffffffffffffff16610e5a6120e3565b73ffffffffffffffffffffffffffffffffffffffff1614610eb0576040517f08c379a0000000000000000000000000000000000000000000000000000000008152600401610ea790613cce565b60405180910390fd5b610eb98261213a565b610ec582826001612181565b5050565b60007f000000000000000000000000000000000000000000000000000000000000000073ffffffffffffffffffffffffffffffffffffffff163073ffffffffffffffffffffffffffffffffffffffff1614610f59576040517f08c379a0000000000000000000000000000000000000000000000000000000008152600401610f5090613d60565b60405180910390fd5b7f360894a13ba1a3210667c828492db98dca3e2076cc3735a920a3ca505d382bbc60001b905090565b60cb60009054906101000a900473ffffffffffffffffffffffffffffffffffffffff1681565b60ca60009054906101000a900473ffffffffffffffffffffffffffffffffffffffff1681565b610fd66122ef565b610fe0600061236d565b565b6060610ff86744dff0278b2d9e4160c01b611e6c565b61100c67a531a8550a088f0d60c01b611e6c565b61102067c2781b7c7efaa70b60c01b611e6c565b61103b60cd6000848152602001908152602001600020612433565b9050919050565b6000603360009054906101000a900473ffffffffffffffffffffffffffffffffffffffff16905090565b611080675feec2c92dbbe63860c01b611e6c565b60008060019054906101000a900460ff161590508080156110b15750600160008054906101000a900460ff1660ff16105b806110de57506110c030612454565b1580156110dd5750600160008054906101000a900460ff1660ff16145b5b61111d576040517f08c379a000000000000000000000000000000000000000000000000000000000815260040161111490613df2565b60405180910390fd5b60016000806101000a81548160ff021916908360ff160217905550801561115a576001600060016101000a81548160ff0219169083151502179055505b61116e6773449fd3d1e7108060c01b611e6c565b611182673584c1e42c9168cd60c01b611e6c565b61119667589fe5c59ce66ad660c01b611e6c565b6111aa674c789a270618b3d360c01b611e6c565b6111b2612477565b6111c66732220fd89bc5628a60c01b611e6c565b6111da67fbb1e2c5949c881e60c01b611e6c565b6111e26124d0565b6111f667eeadc58bc10bfcdd60c01b611e6c565b8360c960006101000a81548173ffffffffffffffffffffffffffffffffffffffff021916908373ffffffffffffffffffffffffffffffffffffffff16021790555061124b6744dcc0414feb2f1760c01b611e6c565b8260cb60006101000a81548173ffffffffffffffffffffffffffffffffffffffff021916908373ffffffffffffffffffffffffffffffffffffffff1602179055506112a067e3be6c65b16c1a7860c01b611e6c565b8160ca60006101000a81548173ffffffffffffffffffffffffffffffffffffffff021916908373ffffffffffffffffffffffffffffffffffffffff160217905550801561133a5760008060016101000a81548160ff0219169083151502179055507f7f26b83ff96e1f2b6a682f133852f6798a09c465da95921460cefb384740249860016040516113319190613e5a565b60405180910390a15b50505050565b6113546794d9a29cc92d626860c01b611e6c565b61136867a4be39eca380a49b60c01b611e6c565b61137c67dbff62aa245f119960c01b611e6c565b600061138787612521565b905061139d67140b63db1b53488460c01b611e6c565b6113b1677ddf70af984a373460c01b611e6c565b6113c567481db07abd4acb2a60c01b611e6c565b6000858590501161140b576040517f08c379a000000000000000000000000000000000000000000000000000000000815260040161140290613ec1565b60405180910390fd5b61141f67452db9b3e791faef60c01b611e6c565b611433677963e156485449e760c01b611e6c565b61144767f0393be804a40db560c01b611e6c565b600080600060c960009054906101000a900473ffffffffffffffffffffffffffffffffffffffff1673ffffffffffffffffffffffffffffffffffffffff166388ecda528a6040518263ffffffff1660e01b81526004016114a7919061313e565b600060405180830381865afa1580156114c4573d6000803e3d6000fd5b505050506040513d6000823e3d601f19601f820116820180604052508101906114ed9190613fb9565b509350935050925061150967b6af0862c851651e60c01b611e6c565b61151d67ba1a3a265136b82460c01b611e6c565b6115316771ac1944681ca22760c01b611e6c565b82611571576040517f08c379a00000000000000000000000000000000000000000000000000000000081526004016115689061409c565b60405180910390fd5b61158567eff91f1ac2a82fdc60c01b611e6c565b611599674ab186996bac0faf60c01b611e6c565b6115ad678f54b1e470cee53e60c01b611e6c565b6115c16726f1afcea29a69a660c01b611e6c565b838214611603576040517f08c379a00000000000000000000000000000000000000000000000000000000081526004016115fa90614108565b60405180910390fd5b61161767616df577209622be60c01b611e6c565b61162b67db174ea45d82b41b60c01b611e6c565b61163f67d4e74fbffc9d44d960c01b611e6c565b611653677f8beb868a4ab97e60c01b611e6c565b8015611694576040517f08c379a000000000000000000000000000000000000000000000000000000000815260040161168b90614174565b60405180910390fd5b6116a867ffb4584206abffd860c01b611e6c565b6116bc67bf2b415626c6a02060c01b611e6c565b6116d06776272d46715bd55860c01b611e6c565b6116e4679174d2fa5f4d6ef460c01b611e6c565b600060cc60008b81526020019081526020016000206003018054905014611740576040517f08c379a0000000000000000000000000000000000000000000000000000000008152600401611737906141e0565b60405180910390fd5b61175467d0f3aeae5c1ac41f60c01b611e6c565b611768671b07c30106cceddb60c01b611e6c565b61177c677d81ebedd14d997b60c01b611e6c565b60c960009054906101000a900473ffffffffffffffffffffffffffffffffffffffff1673ffffffffffffffffffffffffffffffffffffffff166353a81ee1858a8a60006040518563ffffffff1660e01b81526004016117de9493929190614200565b602060405180830381865afa1580156117fb573d6000803e3d6000fd5b505050506040513d601f19601f8201168201806040525081019061181f9190613b69565b5061183467f9ee0a63fcc475e860c01b611e6c565b611848678b2c06a3b514136a60c01b611e6c565b600060cc60008b8152602001908152602001600020905061187367f6a9cad2992a71f860c01b611e6c565b8a8160020181905550611890674e9c5de87ad3794760c01b611e6c565b88888260030191906118a3929190612da0565b506118b8674a37277fcf29d23f60c01b611e6c565b6118cc6781116c51e5e140d260c01b611e6c565b60005b89899050811015611948576118ee6733e8ed5918fb96c260c01b611e6c565b60018260040160008c8c858181106119095761190861395c565b5b90506020020135815260200190815260200160002060006101000a81548160ff021916908315150217905550808061194090613a26565b9150506118cf565b5061195d67817fd7ba10b6fcc960c01b611e6c565b611971672e7edccb61a8a13160c01b611e6c565b6119968a60cd600088815260200190815260200160002061286d90919063ffffffff16565b506119ab6793cfc37391947fad60c01b611e6c565b86868260010191906119be929190612ded565b506119d3672851d0e03090b80360c01b611e6c565b868690506000148160000160006101000a81548160ff021916908315150217905550611a0967c21e8db1e71c61d460c01b611e6c565b611a1d675f3a7e73e72762d860c01b611e6c565b7f8aeaf49765f354ac677205f024fe8bde4759cf4f7ce593fa8e97e6f8a7a91b42338c8c8c8c8c8c604051611a58979695949392919061429c565b60405180910390a15050505050505050505050565b611a8167f779f40d0a8c5bb460c01b611e6c565b611a956764d949984a42e01e60c01b611e6c565b611aa967c45250dd1330931160c01b611e6c565b6000611ab483612521565b9050611aca67eac3693360a3da1c60c01b611e6c565b611ade6731d14d443245e05360c01b611e6c565b600060cc60008481526020019081526020016000209050611b09670ae7495a3d9709b160c01b611e6c565b611b1d67a75bfa78f858f98360c01b611e6c565b611b3167545f363006e7971560c01b611e6c565b6000816003018054905011611b7b576040517f08c379a0000000000000000000000000000000000000000000000000000000008152600401611b729061393c565b60405180910390fd5b611b8f67ac40890ab2deea6860c01b611e6c565b611ba367b09321b03abd134160c01b611e6c565b611bb7675238b903e4b9b03560c01b611e6c565b611bcb678181193ba75fe83f60c01b611e6c565b83816002015414611c11576040517f08c379a0000000000000000000000000000000000000000000000000000000008152600401611c089061434d565b60405180910390fd5b611c25674fa2d17c6dde8cc460c01b611e6c565b611c39676fb5b19b83d5131460c01b611e6c565b611c4d67a716c874cb92e7bb60c01b611e6c565b60005b8160030180549050811015611ccb57611c73677fd851b26385dbed60c01b611e6c565b816004016000836003018381548110611c8f57611c8e61395c565b5b9060005260206000200154815260200190815260200160002060006101000a81549060ff02191690558080611cc390613a26565b915050611c50565b50611ce067c1ec39bb7e53319f60c01b611e6c565b60cc6000848152602001908152602001600020600080820160006101000a81549060ff0219169055600182016000611d189190612e3a565b6002820160009055600382016000611d309190612e5b565b5050611d46674712c04bfb6c6d8f60c01b611e6c565b611d5a67d4fb30aebd34fc5260c01b611e6c565b611d7f8360cd600085815260200190815260200160002061288790919063ffffffff16565b50611d9467db57ca309bfd4fb360c01b611e6c565b611da867885908692e8338c460c01b611e6c565b7f8df489c07352c80764743d69a1918771c7ef6fa59f646af26090526d6e538a9a338585604051611ddb9392919061436d565b60405180910390a150505050565b611df16122ef565b600073ffffffffffffffffffffffffffffffffffffffff168173ffffffffffffffffffffffffffffffffffffffff1603611e60576040517f08c379a0000000000000000000000000000000000000000000000000000000008152600401611e5790614416565b60405180910390fd5b611e698161236d565b50565b50565b611e83677089e9beda0249ce60c01b611e6c565b611e976786cc260908ca8cf360c01b611e6c565b611eab671825e2a5f321e07260c01b611e6c565b8060000160009054906101000a900460ff1615611eef57611ed6673313a2e1d58dc47c60c01b611e6c565b611eea67a464199f54ee8d1560c01b611e6c565b6120ce565b611f0367816ae9e3075c792f60c01b611e6c565b611f1767b521daf765a8c28060c01b611e6c565b611f2b67431a773b026fc43860c01b611e6c565b60005b816001018054905081101561209b57611f5167964f0f6f2a65904660c01b611e6c565b611f656755464575484f2d7b60c01b611e6c565b611f79674fdfa044d276260260c01b611e6c565b60ca60009054906101000a900473ffffffffffffffffffffffffffffffffffffffff1673ffffffffffffffffffffffffffffffffffffffff16634c80ebd6836001018381548110611fcd57611fcc61395c565b5b90600052602060002001546040518263ffffffff1660e01b8152600401611ff49190613549565b602060405180830381865afa158015612011573d6000803e3d6000fd5b505050506040513d601f19601f820116820180604052508101906120359190613b69565b612074576040517f08c379a000000000000000000000000000000000000000000000000000000000815260040161206b90614482565b60405180910390fd5b6120886771fba19d2f140c1060c01b611e6c565b808061209390613a26565b915050611f2e565b506120b067e5ce9b8b3b524eb560c01b611e6c565b60018160000160006101000a81548160ff0219169083151502179055505b50565b600060019050919050565b6000919050565b60006121117f360894a13ba1a3210667c828492db98dca3e2076cc3735a920a3ca505d382bbc60001b6128a1565b60000160009054906101000a900473ffffffffffffffffffffffffffffffffffffffff16905090565b61214e67880ba9462c00780760c01b611e6c565b6121566122ef565b61216a674f24cfe8859d359b60c01b611e6c565b61217e678f6426ecf20685d460c01b611e6c565b50565b6121ad7f4910fdfa16fed3260ed0e7147f7cc6da11a60208b5b9406d12a635614ffd914360001b6128ab565b60000160009054906101000a900460ff16156121d1576121cc836128b5565b6122ea565b8273ffffffffffffffffffffffffffffffffffffffff166352d1902d6040518163ffffffff1660e01b8152600401602060405180830381865afa92505050801561223957506040513d601f19601f8201168201806040525081019061223691906144a2565b60015b612278576040517f08c379a000000000000000000000000000000000000000000000000000000000815260040161226f90614541565b60405180910390fd5b7f360894a13ba1a3210667c828492db98dca3e2076cc3735a920a3ca505d382bbc60001b81146122dd576040517f08c379a00000000000000000000000000000000000000000000000000000000081526004016122d4906145d3565b60405180910390fd5b506122e983838361296e565b5b505050565b6122f761299a565b73ffffffffffffffffffffffffffffffffffffffff16612315611042565b73ffffffffffffffffffffffffffffffffffffffff161461236b576040517f08c379a00000000000000000000000000000000000000000000000000000000081526004016123629061463f565b60405180910390fd5b565b6000603360009054906101000a900473ffffffffffffffffffffffffffffffffffffffff16905081603360006101000a81548173ffffffffffffffffffffffffffffffffffffffff021916908373ffffffffffffffffffffffffffffffffffffffff1602179055508173ffffffffffffffffffffffffffffffffffffffff168173ffffffffffffffffffffffffffffffffffffffff167f8be0079c531659141344cd1fd0a4f28419497f9722a3daafe3b4186f6b6457e060405160405180910390a35050565b60606000612443836000016129a2565b905060608190508092505050919050565b6000808273ffffffffffffffffffffffffffffffffffffffff163b119050919050565b600060019054906101000a900460ff166124c6576040517f08c379a00000000000000000000000000000000000000000000000000000000081526004016124bd906146d1565b60405180910390fd5b6124ce6129fe565b565b600060019054906101000a900460ff1661251f576040517f08c379a0000000000000000000000000000000000000000000000000000000008152600401612516906146d1565b60405180910390fd5b565b6000612537674fc5ddc629828d2360c01b611e6c565b61254b677fa02fce61cef55f60c01b611e6c565b61255f67c56045d2f111011460c01b611e6c565b6125736766181fc94d98f19e60c01b611e6c565b600060c960009054906101000a900473ffffffffffffffffffffffffffffffffffffffff1673ffffffffffffffffffffffffffffffffffffffff1663b83ac19f6040518163ffffffff1660e01b8152600401602060405180830381865afa1580156125e2573d6000803e3d6000fd5b505050506040513d601f19601f8201168201806040525081019061260691906137cd565b73ffffffffffffffffffffffffffffffffffffffff16631eba59aa338560006040518463ffffffff1660e01b8152600401612643939291906137fa565b602060405180830381865afa158015612660573d6000803e3d6000fd5b505050506040513d601f19601f820116820180604052508101906126849190613846565b116126c4576040517f08c379a00000000000000000000000000000000000000000000000000000000081526004016126bb906138d0565b60405180910390fd5b6126d86760370467d2149fc460c01b611e6c565b6126ec67bcd7bb8a94173c0260c01b611e6c565b61270067f9af29bf24330dfb60c01b611e6c565b60008060c960009054906101000a900473ffffffffffffffffffffffffffffffffffffffff1673ffffffffffffffffffffffffffffffffffffffff166388ecda52856040518263ffffffff1660e01b815260040161275e919061313e565b600060405180830381865afa15801561277b573d6000803e3d6000fd5b505050506040513d6000823e3d601f19601f820116820180604052508101906127a49190613fb9565b509350935050506127bf67d908f6e674cbb53260c01b611e6c565b6127d367f6b3d64ac67fbbef60c01b611e6c565b6127e7670b0ebf46870a130360c01b611e6c565b80612827576040517f08c379a000000000000000000000000000000000000000000000000000000000815260040161281e9061473d565b60405180910390fd5b61283b678b72d2731118a91460c01b611e6c565b61284f67fc78f35fd218559060c01b611e6c565b61286367bdc0a981e143332d60c01b611e6c565b8192505050919050565b600061287f836000018360001b612a5f565b905092915050565b6000612899836000018360001b612acf565b905092915050565b6000819050919050565b6000819050919050565b6128be81612454565b6128fd576040517f08c379a00000000000000000000000000000000000000000000000000000000081526004016128f4906147cf565b60405180910390fd5b8061292a7f360894a13ba1a3210667c828492db98dca3e2076cc3735a920a3ca505d382bbc60001b6128a1565b60000160006101000a81548173ffffffffffffffffffffffffffffffffffffffff021916908373ffffffffffffffffffffffffffffffffffffffff16021790555050565b61297783612be3565b6000825111806129845750805b15612995576129938383612c32565b505b505050565b600033905090565b6060816000018054806020026020016040519081016040528092919081815260200182805480156129f257602002820191906000526020600020905b8154815260200190600101908083116129de575b50505050509050919050565b600060019054906101000a900460ff16612a4d576040517f08c379a0000000000000000000000000000000000000000000000000000000008152600401612a44906146d1565b60405180910390fd5b612a5d612a5861299a565b61236d565b565b6000612a6b8383612d16565b612ac4578260000182908060018154018082558091505060019003906000526020600020016000909190919091505582600001805490508360010160008481526020019081526020016000208190555060019050612ac9565b600090505b92915050565b60008083600101600084815260200190815260200160002054905060008114612bd7576000600182612b0191906147ef565b9050600060018660000180549050612b1991906147ef565b9050818114612b88576000866000018281548110612b3a57612b3961395c565b5b9060005260206000200154905080876000018481548110612b5e57612b5d61395c565b5b90600052602060002001819055508387600101600083815260200190815260200160002081905550505b85600001805480612b9c57612b9b614823565b5b600190038181906000526020600020016000905590558560010160008681526020019081526020016000206000905560019350505050612bdd565b60009150505b92915050565b612bec816128b5565b8073ffffffffffffffffffffffffffffffffffffffff167fbc7cd75a20ee27fd9adebab32041f755214dbc6bffa90cc0225b39da2e5c2d3b60405160405180910390a250565b6060612c3d83612454565b612c7c576040517f08c379a0000000000000000000000000000000000000000000000000000000008152600401612c73906148c4565b60405180910390fd5b6000808473ffffffffffffffffffffffffffffffffffffffff1684604051612ca49190614955565b600060405180830381855af49150503d8060008114612cdf576040519150601f19603f3d011682016040523d82523d6000602084013e612ce4565b606091505b5091509150612d0c82826040518060600160405280602781526020016149d360279139612d39565b9250505092915050565b600080836001016000848152602001908152602001600020541415905092915050565b60608315612d4957829050612d99565b600083511115612d5c5782518084602001fd5b816040517f08c379a0000000000000000000000000000000000000000000000000000000008152600401612d9091906149b0565b60405180910390fd5b9392505050565b828054828255906000526020600020908101928215612ddc579160200282015b82811115612ddb578235825591602001919060010190612dc0565b5b509050612de99190612e7c565b5090565b828054828255906000526020600020908101928215612e29579160200282015b82811115612e28578235825591602001919060010190612e0d565b5b509050612e369190612e99565b5090565b5080546000825590600052602060002090810190612e589190612e99565b50565b5080546000825590600052602060002090810190612e799190612e7c565b50565b5b80821115612e95576000816000905550600101612e7d565b5090565b5b80821115612eb2576000816000905550600101612e9a565b5090565b600073ffffffffffffffffffffffffffffffffffffffff82169050919050565b6000819050919050565b6000612efb612ef6612ef184612eb6565b612ed6565b612eb6565b9050919050565b6000612f0d82612ee0565b9050919050565b6000612f1f82612f02565b9050919050565b612f2f81612f14565b82525050565b6000602082019050612f4a6000830184612f26565b92915050565b6000604051905090565b600080fd5b600080fd5b6000819050919050565b612f7781612f64565b8114612f8257600080fd5b50565b600081359050612f9481612f6e565b92915050565b6000612fa582612eb6565b9050919050565b612fb581612f9a565b8114612fc057600080fd5b50565b600081359050612fd281612fac565b92915050565b6000819050919050565b612feb81612fd8565b8114612ff657600080fd5b50565b60008135905061300881612fe2565b92915050565b600080fd5b600080fd5b600080fd5b60008083601f8401126130335761303261300e565b5b8235905067ffffffffffffffff8111156130505761304f613013565b5b60208301915083602082028301111561306c5761306b613018565b5b9250929050565b600080600080600080600060a0888a03121561309257613091612f5a565b5b60006130a08a828b01612f85565b97505060206130b18a828b01612fc3565b96505060406130c28a828b01612ff9565b955050606088013567ffffffffffffffff8111156130e3576130e2612f5f565b5b6130ef8a828b0161301d565b9450945050608088013567ffffffffffffffff81111561311257613111612f5f565b5b61311e8a828b0161301d565b925092505092959891949750929550565b61313881612f64565b82525050565b6000602082019050613153600083018461312f565b92915050565b60006020828403121561316f5761316e612f5a565b5b600061317d84828501612f85565b91505092915050565b60008115159050919050565b61319b81613186565b82525050565b600081519050919050565b600082825260208201905092915050565b6000819050602082019050919050565b6131d681612f64565b82525050565b60006131e883836131cd565b60208301905092915050565b6000602082019050919050565b600061320c826131a1565b61321681856131ac565b9350613221836131bd565b8060005b8381101561325257815161323988826131dc565b9750613244836131f4565b925050600181019050613225565b5085935050505092915050565b600081519050919050565b600082825260208201905092915050565b6000819050602082019050919050565b61329481612fd8565b82525050565b60006132a6838361328b565b60208301905092915050565b6000602082019050919050565b60006132ca8261325f565b6132d4818561326a565b93506132df8361327b565b8060005b838110156133105781516132f7888261329a565b9750613302836132b2565b9250506001810190506132e3565b5085935050505092915050565b60006080820190506133326000830187613192565b61333f602083018661312f565b81810360408301526133518185613201565b9050818103606083015261336581846132bf565b905095945050505050565b60006020828403121561338657613385612f5a565b5b600061339484828501612fc3565b91505092915050565b600080fd5b6000601f19601f8301169050919050565b7f4e487b7100000000000000000000000000000000000000000000000000000000600052604160045260246000fd5b6133eb826133a2565b810181811067ffffffffffffffff8211171561340a576134096133b3565b5b80604052505050565b600061341d612f50565b905061342982826133e2565b919050565b600067ffffffffffffffff821115613449576134486133b3565b5b613452826133a2565b9050602081019050919050565b82818337600083830152505050565b600061348161347c8461342e565b613413565b90508281526020810184848401111561349d5761349c61339d565b5b6134a884828561345f565b509392505050565b600082601f8301126134c5576134c461300e565b5b81356134d584826020860161346e565b91505092915050565b600080604083850312156134f5576134f4612f5a565b5b600061350385828601612fc3565b925050602083013567ffffffffffffffff81111561352457613523612f5f565b5b613530858286016134b0565b9150509250929050565b61354381612fd8565b82525050565b600060208201905061355e600083018461353a565b92915050565b600061356f82612f02565b9050919050565b61357f81613564565b82525050565b600060208201905061359a6000830184613576565b92915050565b60006135ab82612f02565b9050919050565b6135bb816135a0565b82525050565b60006020820190506135d660008301846135b2565b92915050565b600060208201905081810360008301526135f68184613201565b905092915050565b61360781612f9a565b82525050565b600060208201905061362260008301846135fe565b92915050565b60008060006060848603121561364157613640612f5a565b5b600061364f86828701612fc3565b935050602061366086828701612fc3565b925050604061367186828701612fc3565b9150509250925092565b60008083601f8401126136915761369061300e565b5b8235905067ffffffffffffffff8111156136ae576136ad613013565b5b6020830191508360208202830111156136ca576136c9613018565b5b9250929050565b600080600080600080608087890312156136ee576136ed612f5a565b5b60006136fc89828a01612f85565b965050602061370d89828a01612f85565b955050604087013567ffffffffffffffff81111561372e5761372d612f5f565b5b61373a89828a0161301d565b9450945050606087013567ffffffffffffffff81111561375d5761375c612f5f565b5b61376989828a0161367b565b92509250509295509295509295565b6000806040838503121561378f5761378e612f5a565b5b600061379d85828601612f85565b92505060206137ae85828601612f85565b9150509250929050565b6000815190506137c781612fac565b92915050565b6000602082840312156137e3576137e2612f5a565b5b60006137f1848285016137b8565b91505092915050565b600060608201905061380f60008301866135fe565b61381c602083018561312f565b6138296040830184613192565b949350505050565b60008151905061384081612f6e565b92915050565b60006020828403121561385c5761385b612f5a565b5b600061386a84828501613831565b91505092915050565b600082825260208201905092915050565b7f4b45595f4e4f545f48454c440000000000000000000000000000000000000000600082015250565b60006138ba600c83613873565b91506138c582613884565b602082019050919050565b600060208201905081810360008301526138e9816138ad565b9050919050565b7f4d495353494e475f504f4c494359000000000000000000000000000000000000600082015250565b6000613926600e83613873565b9150613931826138f0565b602082019050919050565b6000602082019050818103600083015261395581613919565b9050919050565b7f4e487b7100000000000000000000000000000000000000000000000000000000600052603260045260246000fd5b7f494e56414c49445f42454e454649434941525900000000000000000000000000600082015250565b60006139c1601383613873565b91506139cc8261398b565b602082019050919050565b600060208201905081810360008301526139f0816139b4565b9050919050565b7f4e487b7100000000000000000000000000000000000000000000000000000000600052601160045260246000fd5b6000613a3182612f64565b91507fffffffffffffffffffffffffffffffffffffffffffffffffffffffffffffffff8203613a6357613a626139f7565b5b600182019050919050565b600080fd5b82818337505050565b6000613a8883856131ac565b93507f07ffffffffffffffffffffffffffffffffffffffffffffffffffffffffffffff831115613abb57613aba613a6e565b5b602083029250613acc838584613a73565b82840190509392505050565b600060a082019050613aed600083018a6135fe565b613afa602083018961353a565b613b07604083018861312f565b8181036060830152613b1a818688613a7c565b90508181036080830152613b2f818486613a7c565b905098975050505050505050565b613b4681613186565b8114613b5157600080fd5b50565b600081519050613b6381613b3d565b92915050565b600060208284031215613b7f57613b7e612f5a565b5b6000613b8d84828501613b54565b91505092915050565b6000613ba182612f64565b9150613bac83612f64565b9250828201905080821115613bc457613bc36139f7565b5b92915050565b7f46756e6374696f6e206d7573742062652063616c6c6564207468726f7567682060008201527f64656c656761746563616c6c0000000000000000000000000000000000000000602082015250565b6000613c26602c83613873565b9150613c3182613bca565b604082019050919050565b60006020820190508181036000830152613c5581613c19565b9050919050565b7f46756e6374696f6e206d7573742062652063616c6c6564207468726f7567682060008201527f6163746976652070726f78790000000000000000000000000000000000000000602082015250565b6000613cb8602c83613873565b9150613cc382613c5c565b604082019050919050565b60006020820190508181036000830152613ce781613cab565b9050919050565b7f555550535570677261646561626c653a206d757374206e6f742062652063616c60008201527f6c6564207468726f7567682064656c656761746563616c6c0000000000000000602082015250565b6000613d4a603883613873565b9150613d5582613cee565b604082019050919050565b60006020820190508181036000830152613d7981613d3d565b9050919050565b7f496e697469616c697a61626c653a20636f6e747261637420697320616c72656160008201527f647920696e697469616c697a6564000000000000000000000000000000000000602082015250565b6000613ddc602e83613873565b9150613de782613d80565b604082019050919050565b60006020820190508181036000830152613e0b81613dcf565b9050919050565b6000819050919050565b600060ff82169050919050565b6000613e44613e3f613e3a84613e12565b612ed6565b613e1c565b9050919050565b613e5481613e29565b82525050565b6000602082019050613e6f6000830184613e4b565b92915050565b7f5a45524f5f42454e454649434941524945530000000000000000000000000000600082015250565b6000613eab601283613873565b9150613eb682613e75565b602082019050919050565b60006020820190508181036000830152613eda81613e9e565b9050919050565b600081519050613ef081612fe2565b92915050565b600067ffffffffffffffff821115613f1157613f106133b3565b5b602082029050602081019050919050565b6000613f35613f3084613ef6565b613413565b90508083825260208201905060208402830185811115613f5857613f57613018565b5b835b81811015613f815780613f6d8882613831565b845260208401935050602081019050613f5a565b5050509392505050565b600082601f830112613fa057613f9f61300e565b5b8151613fb0848260208601613f22565b91505092915050565b600080600080600060a08688031215613fd557613fd4612f5a565b5b6000613fe388828901613b54565b9550506020613ff488828901613ee1565b945050604061400588828901613831565b935050606061401688828901613b54565b925050608086015167ffffffffffffffff81111561403757614036612f5f565b5b61404388828901613f8b565b9150509295509295909350565b7f494e56414c49445f545255535445455f4b455900000000000000000000000000600082015250565b6000614086601383613873565b915061409182614050565b602082019050919050565b600060208201905081810360008301526140b581614079565b9050919050565b7f545255535445455f4f5554534944455f54525553540000000000000000000000600082015250565b60006140f2601583613873565b91506140fd826140bc565b602082019050919050565b60006020820190508181036000830152614121816140e5565b9050919050565b7f545255535445455f43414e545f42455f524f4f54000000000000000000000000600082015250565b600061415e601483613873565b915061416982614128565b602082019050919050565b6000602082019050818103600083015261418d81614151565b9050919050565b7f4b45595f504f4c4943595f455849535453000000000000000000000000000000600082015250565b60006141ca601183613873565b91506141d582614194565b602082019050919050565b600060208201905081810360008301526141f9816141bd565b9050919050565b6000606082019050614215600083018761312f565b8181036020830152614228818587613a7c565b90506142376040830184613192565b95945050505050565b600061424c838561326a565b93507f07ffffffffffffffffffffffffffffffffffffffffffffffffffffffffffffff83111561427f5761427e613a6e565b5b602083029250614290838584613a73565b82840190509392505050565b600060a0820190506142b1600083018a6135fe565b6142be602083018961312f565b6142cb604083018861312f565b81810360608301526142de818688613a7c565b905081810360808301526142f3818486614240565b905098975050505050505050565b7f494e56414c49445f524f4f545f4b455900000000000000000000000000000000600082015250565b6000614337601083613873565b915061434282614301565b602082019050919050565b600060208201905081810360008301526143668161432a565b9050919050565b600060608201905061438260008301866135fe565b61438f602083018561312f565b61439c604083018461312f565b949350505050565b7f4f776e61626c653a206e6577206f776e657220697320746865207a65726f206160008201527f6464726573730000000000000000000000000000000000000000000000000000602082015250565b6000614400602683613873565b915061440b826143a4565b604082019050919050565b6000602082019050818103600083015261442f816143f3565b9050919050565b7f4d495353494e475f4556454e5400000000000000000000000000000000000000600082015250565b600061446c600d83613873565b915061447782614436565b602082019050919050565b6000602082019050818103600083015261449b8161445f565b9050919050565b6000602082840312156144b8576144b7612f5a565b5b60006144c684828501613ee1565b91505092915050565b7f45524331393637557067726164653a206e657720696d706c656d656e7461746960008201527f6f6e206973206e6f742055555053000000000000000000000000000000000000602082015250565b600061452b602e83613873565b9150614536826144cf565b604082019050919050565b6000602082019050818103600083015261455a8161451e565b9050919050565b7f45524331393637557067726164653a20756e737570706f727465642070726f7860008201527f6961626c65555549440000000000000000000000000000000000000000000000602082015250565b60006145bd602983613873565b91506145c882614561565b604082019050919050565b600060208201905081810360008301526145ec816145b0565b9050919050565b7f4f776e61626c653a2063616c6c6572206973206e6f7420746865206f776e6572600082015250565b6000614629602083613873565b9150614634826145f3565b602082019050919050565b600060208201905081810360008301526146588161461c565b9050919050565b7f496e697469616c697a61626c653a20636f6e7472616374206973206e6f74206960008201527f6e697469616c697a696e67000000000000000000000000000000000000000000602082015250565b60006146bb602b83613873565b91506146c68261465f565b604082019050919050565b600060208201905081810360008301526146ea816146ae565b9050919050565b7f4b45595f4e4f545f524f4f540000000000000000000000000000000000000000600082015250565b6000614727600c83613873565b9150614732826146f1565b602082019050919050565b600060208201905081810360008301526147568161471a565b9050919050565b7f455243313936373a206e657720696d706c656d656e746174696f6e206973206e60008201527f6f74206120636f6e747261637400000000000000000000000000000000000000602082015250565b60006147b9602d83613873565b91506147c48261475d565b604082019050919050565b600060208201905081810360008301526147e8816147ac565b9050919050565b60006147fa82612f64565b915061480583612f64565b925082820390508181111561481d5761481c6139f7565b5b92915050565b7f4e487b7100000000000000000000000000000000000000000000000000000000600052603160045260246000fd5b7f416464726573733a2064656c65676174652063616c6c20746f206e6f6e2d636f60008201527f6e74726163740000000000000000000000000000000000000000000000000000602082015250565b60006148ae602683613873565b91506148b982614852565b604082019050919050565b600060208201905081810360008301526148dd816148a1565b9050919050565b600081519050919050565b600081905092915050565b60005b838110156149185780820151818401526020810190506148fd565b60008484015250505050565b600061492f826148e4565b61493981856148ef565b93506149498185602086016148fa565b80840191505092915050565b60006149618284614924565b915081905092915050565b600081519050919050565b60006149828261496c565b61498c8185613873565b935061499c8185602086016148fa565b6149a5816133a2565b840191505092915050565b600060208201905081810360008301526149ca8184614977565b90509291505056fe416464726573733a206c6f772d6c6576656c2064656c65676174652063616c6c206661696c6564a2646970667358221220e4f75cd8c8125c3250008de48a7ed4223c3c4c7737082b79c8c8e9f97e55f5b564736f6c63430008100033",
  "linkReferences": {},
  "deployedLinkReferences": {}
}