{
  "_format": "hh-sol-artifact-1",
  "contractName": "Trustee",
  "sourceName": "contracts/scribes/Trustee.sol",
  "abi": [
    {
      "inputs": [],
      "stateMutability": "nonpayable",
      "type": "constructor"
    },
    {
      "anonymous": false,
      "inputs": [
        {
          "indexed": false,
          "internalType": "address",
          "name": "previousAdmin",
          "type": "address"
        },
        {
          "indexed": false,
          "internalType": "address",
          "name": "newAdmin",
          "type": "address"
        }
      ],
      "name": "AdminChanged",
      "type": "event"
    },
    {
      "anonymous": false,
      "inputs": [
        {
          "indexed": true,
          "internalType": "address",
          "name": "beacon",
          "type": "address"
        }
      ],
      "name": "BeaconUpgraded",
      "type": "event"
    },
    {
      "anonymous": false,
      "inputs": [
        {
          "indexed": false,
          "internalType": "uint8",
          "name": "version",
          "type": "uint8"
        }
      ],
      "name": "Initialized",
      "type": "event"
    },
    {
      "anonymous": false,
      "inputs": [
        {
          "indexed": true,
          "internalType": "address",
          "name": "previousOwner",
          "type": "address"
        },
        {
          "indexed": true,
          "internalType": "address",
          "name": "newOwner",
          "type": "address"
        }
      ],
      "name": "OwnershipTransferred",
      "type": "event"
    },
    {
      "anonymous": false,
      "inputs": [
        {
          "indexed": true,
          "internalType": "address",
          "name": "implementation",
          "type": "address"
        }
      ],
      "name": "Upgraded",
      "type": "event"
    },
    {
      "anonymous": false,
      "inputs": [
        {
          "indexed": false,
          "internalType": "address",
          "name": "actor",
          "type": "address"
        },
        {
          "indexed": false,
          "internalType": "uint256",
          "name": "rootKeyId",
          "type": "uint256"
        },
        {
          "indexed": false,
          "internalType": "uint256",
          "name": "trusteeKeyId",
          "type": "uint256"
        }
      ],
      "name": "trusteePolicyRemoved",
      "type": "event"
    },
    {
      "anonymous": false,
      "inputs": [
        {
          "indexed": false,
          "internalType": "address",
          "name": "actor",
          "type": "address"
        },
        {
          "indexed": false,
          "internalType": "uint256",
          "name": "rootKeyId",
          "type": "uint256"
        },
        {
          "indexed": false,
          "internalType": "uint256",
          "name": "trusteeKeyId",
          "type": "uint256"
        },
        {
          "indexed": false,
          "internalType": "uint256[]",
          "name": "beneficiaries",
          "type": "uint256[]"
        },
        {
          "indexed": false,
          "internalType": "bytes32[]",
          "name": "events",
          "type": "bytes32[]"
        }
      ],
      "name": "trusteePolicySet",
      "type": "event"
    },
    {
      "inputs": [
        {
          "internalType": "uint256",
          "name": "trusteeKeyId",
          "type": "uint256"
        },
        {
          "internalType": "address",
          "name": "provider",
          "type": "address"
        },
        {
          "internalType": "bytes32",
          "name": "arn",
          "type": "bytes32"
        },
        {
          "internalType": "uint256[]",
          "name": "beneficiaries",
          "type": "uint256[]"
        },
        {
          "internalType": "uint256[]",
          "name": "amounts",
          "type": "uint256[]"
        }
      ],
      "name": "distribute",
      "outputs": [
        {
          "internalType": "uint256",
          "name": "",
          "type": "uint256"
        }
      ],
      "stateMutability": "nonpayable",
      "type": "function"
    },
    {
      "inputs": [
        {
          "internalType": "uint256",
          "name": "keyId",
          "type": "uint256"
        }
      ],
      "name": "getPolicy",
      "outputs": [
        {
          "internalType": "bool",
          "name": "",
          "type": "bool"
        },
        {
          "internalType": "uint256",
          "name": "",
          "type": "uint256"
        },
        {
          "internalType": "uint256[]",
          "name": "",
          "type": "uint256[]"
        },
        {
          "internalType": "bytes32[]",
          "name": "",
          "type": "bytes32[]"
        }
      ],
      "stateMutability": "view",
      "type": "function"
    },
    {
      "inputs": [
        {
          "internalType": "uint256",
          "name": "trustId",
          "type": "uint256"
        }
      ],
      "name": "getTrustPolicyKeys",
      "outputs": [
        {
          "internalType": "uint256[]",
          "name": "",
          "type": "uint256[]"
        }
      ],
      "stateMutability": "view",
      "type": "function"
    },
    {
      "inputs": [
        {
          "internalType": "address",
          "name": "_Locksmith",
          "type": "address"
        },
        {
          "internalType": "address",
          "name": "_Ledger",
          "type": "address"
        },
        {
          "internalType": "address",
          "name": "_TrustEventLog",
          "type": "address"
        }
      ],
      "name": "initialize",
      "outputs": [],
      "stateMutability": "nonpayable",
      "type": "function"
    },
    {
      "inputs": [],
      "name": "ledger",
      "outputs": [
        {
          "internalType": "contract ILedger",
          "name": "",
          "type": "address"
        }
      ],
      "stateMutability": "view",
      "type": "function"
    },
    {
      "inputs": [],
      "name": "locksmith",
      "outputs": [
        {
          "internalType": "contract ILocksmith",
          "name": "",
          "type": "address"
        }
      ],
      "stateMutability": "view",
      "type": "function"
    },
    {
      "inputs": [],
      "name": "owner",
      "outputs": [
        {
          "internalType": "address",
          "name": "",
          "type": "address"
        }
      ],
      "stateMutability": "view",
      "type": "function"
    },
    {
      "inputs": [],
      "name": "proxiableUUID",
      "outputs": [
        {
          "internalType": "bytes32",
          "name": "",
          "type": "bytes32"
        }
      ],
      "stateMutability": "view",
      "type": "function"
    },
    {
      "inputs": [
        {
          "internalType": "uint256",
          "name": "rootKeyId",
          "type": "uint256"
        },
        {
          "internalType": "uint256",
          "name": "trusteeKeyId",
          "type": "uint256"
        }
      ],
      "name": "removePolicy",
      "outputs": [],
      "stateMutability": "nonpayable",
      "type": "function"
    },
    {
      "inputs": [],
      "name": "renounceOwnership",
      "outputs": [],
      "stateMutability": "nonpayable",
      "type": "function"
    },
    {
      "inputs": [
        {
          "internalType": "uint256",
          "name": "rootKeyId",
          "type": "uint256"
        },
        {
          "internalType": "uint256",
          "name": "trusteeKeyId",
          "type": "uint256"
        },
        {
          "internalType": "uint256[]",
          "name": "beneficiaries",
          "type": "uint256[]"
        },
        {
          "internalType": "bytes32[]",
          "name": "events",
          "type": "bytes32[]"
        }
      ],
      "name": "setPolicy",
      "outputs": [],
      "stateMutability": "nonpayable",
      "type": "function"
    },
    {
      "inputs": [
        {
          "internalType": "address",
          "name": "newOwner",
          "type": "address"
        }
      ],
      "name": "transferOwnership",
      "outputs": [],
      "stateMutability": "nonpayable",
      "type": "function"
    },
    {
      "inputs": [],
      "name": "trustEventLog",
      "outputs": [
        {
          "internalType": "contract ITrustEventLog",
          "name": "",
          "type": "address"
        }
      ],
      "stateMutability": "view",
      "type": "function"
    },
    {
      "inputs": [
        {
          "internalType": "address",
          "name": "newImplementation",
          "type": "address"
        }
      ],
      "name": "upgradeTo",
      "outputs": [],
      "stateMutability": "nonpayable",
      "type": "function"
    },
    {
      "inputs": [
        {
          "internalType": "address",
          "name": "newImplementation",
          "type": "address"
        },
        {
          "internalType": "bytes",
          "name": "data",
          "type": "bytes"
        }
      ],
      "name": "upgradeToAndCall",
      "outputs": [],
      "stateMutability": "payable",
      "type": "function"
    }
  ],
  "bytecode": "0x60a0604052306080523480156200001557600080fd5b506200002062000026565b620000e8565b600054610100900460ff1615620000935760405162461bcd60e51b815260206004820152602760248201527f496e697469616c697a61626c653a20636f6e747261637420697320696e697469604482015266616c697a696e6760c81b606482015260840160405180910390fd5b60005460ff9081161015620000e6576000805460ff191660ff9081179091556040519081527f7f26b83ff96e1f2b6a682f133852f6798a09c465da95921460cefb38474024989060200160405180910390a15b565b6080516125a062000120600039600081816107aa0152818161082f01528181610925015281816109aa0152610a9401526125a06000f3fe6080604052600436106100e85760003560e01c80635a2fefef1161008a578063c0c53b8b11610059578063c0c53b8b14610272578063e661165314610292578063f02dd176146102b2578063f2fde38b146102d257600080fd5b80635a2fefef146101f2578063715018a6146102125780638b24db42146102275780638da5cb5b1461025457600080fd5b80633659cfe6116100c65780633659cfe6146101885780634f1ef286146101aa57806352d1902d146101bd57806356397c35146101d257600080fd5b806313fb817e146100ed57806325798f611461012a5780632b07fce314610158575b600080fd5b3480156100f957600080fd5b5060c95461010d906001600160a01b031681565b6040516001600160a01b0390911681526020015b60405180910390f35b34801561013657600080fd5b5061014a610145366004611ee7565b6102f2565b604051908152602001610121565b34801561016457600080fd5b50610178610173366004611f7d565b6105d4565b6040516101219493929190611fd1565b34801561019457600080fd5b506101a86101a3366004612035565b6107a0565b005b6101a86101b8366004612099565b61091b565b3480156101c957600080fd5b5061014a610a87565b3480156101de57600080fd5b5060cb5461010d906001600160a01b031681565b3480156101fe57600080fd5b5060ca5461010d906001600160a01b031681565b34801561021e57600080fd5b506101a8610b4c565b34801561023357600080fd5b50610247610242366004611f7d565b610b60565b6040516101219190612141565b34801561026057600080fd5b506033546001600160a01b031661010d565b34801561027e57600080fd5b506101a861028d366004612154565b610b80565b34801561029e57600080fd5b506101a86102ad36600461219f565b610cf6565b3480156102be57600080fd5b506101a86102cd366004612222565b6110b6565b3480156102de57600080fd5b506101a86102ed366004612035565b61126c565b60008060c960009054906101000a90046001600160a01b03166001600160a01b031663b83ac19f6040518163ffffffff1660e01b8152600401602060405180830381865afa158015610348573d6000803e3d6000fd5b505050506040513d601f19601f8201168201806040525081019061036c9190612244565b604051630f5d2cd560e11b8152336004820152602481018b9052600060448201526001600160a01b039190911690631eba59aa90606401602060405180830381865afa1580156103c0573d6000803e3d6000fd5b505050506040513d601f19601f820116820180604052508101906103e49190612261565b116104255760405162461bcd60e51b815260206004820152600c60248201526b12d15657d393d517d211531160a21b60448201526064015b60405180910390fd5b600088815260cc6020526040902060038101546104845760405162461bcd60e51b815260206004820152600e60248201527f4d495353494e475f504f4c494359000000000000000000000000000000000000604482015260640161041c565b61048d816112f9565b60005b8581101561052b578160040160008888848181106104b0576104b061227a565b602090810292909201358352508101919091526040016000205460ff166105195760405162461bcd60e51b815260206004820152601360248201527f494e56414c49445f42454e454649434941525900000000000000000000000000604482015260640161041c565b80610523816122a6565b915050610490565b5060cb5460028201546040517fe009d93c0000000000000000000000000000000000000000000000000000000081526001600160a01b039092169163e009d93c91610584918c918c918c908c908c908c9060040161230a565b6020604051808303816000875af11580156105a3573d6000803e3d6000fd5b505050506040513d601f19601f820116820180604052508101906105c79190612261565b9998505050505050505050565b600081815260cc6020526040812080548291606091829190849060ff166106cb5760005b60018301548110156106c95760ca546001840180546001600160a01b0390921691634c80ebd69190849081106106305761063061227a565b90600052602060002001546040518263ffffffff1660e01b815260040161065991815260200190565b602060405180830381865afa158015610676573d6000803e3d6000fd5b505050506040513d601f19601f8201168201806040525081019061069a919061236f565b6106a55760006106a8565b60015b6106b59060ff168361238a565b9150806106c1816122a6565b9150506105f8565b505b815460ff16806106de5750600182015481145b826002015483600301846001018180548060200260200160405190810160405280929190818152602001828054801561073657602002820191906000526020600020905b815481526020019060010190808311610722575b505050505091508080548060200260200160405190810160405280929190818152602001828054801561078857602002820191906000526020600020905b815481526020019060010190808311610774575b50505050509050955095509550955050509193509193565b6001600160a01b037f000000000000000000000000000000000000000000000000000000000000000016300361082d5760405162461bcd60e51b815260206004820152602c60248201527f46756e6374696f6e206d7573742062652063616c6c6564207468726f7567682060448201526b19195b1959d85d1958d85b1b60a21b606482015260840161041c565b7f00000000000000000000000000000000000000000000000000000000000000006001600160a01b03166108887f360894a13ba1a3210667c828492db98dca3e2076cc3735a920a3ca505d382bbc546001600160a01b031690565b6001600160a01b0316146108f35760405162461bcd60e51b815260206004820152602c60248201527f46756e6374696f6e206d7573742062652063616c6c6564207468726f7567682060448201526b6163746976652070726f787960a01b606482015260840161041c565b6108fc81611417565b604080516000808252602082019092526109189183919061141f565b50565b6001600160a01b037f00000000000000000000000000000000000000000000000000000000000000001630036109a85760405162461bcd60e51b815260206004820152602c60248201527f46756e6374696f6e206d7573742062652063616c6c6564207468726f7567682060448201526b19195b1959d85d1958d85b1b60a21b606482015260840161041c565b7f00000000000000000000000000000000000000000000000000000000000000006001600160a01b0316610a037f360894a13ba1a3210667c828492db98dca3e2076cc3735a920a3ca505d382bbc546001600160a01b031690565b6001600160a01b031614610a6e5760405162461bcd60e51b815260206004820152602c60248201527f46756e6374696f6e206d7573742062652063616c6c6564207468726f7567682060448201526b6163746976652070726f787960a01b606482015260840161041c565b610a7782611417565b610a838282600161141f565b5050565b6000306001600160a01b037f00000000000000000000000000000000000000000000000000000000000000001614610b275760405162461bcd60e51b815260206004820152603860248201527f555550535570677261646561626c653a206d757374206e6f742062652063616c60448201527f6c6564207468726f7567682064656c656761746563616c6c0000000000000000606482015260840161041c565b507f360894a13ba1a3210667c828492db98dca3e2076cc3735a920a3ca505d382bbc90565b610b546115c4565b610b5e600061161e565b565b600081815260cd60205260409020606090610b7a9061167d565b92915050565b600054610100900460ff1615808015610ba05750600054600160ff909116105b80610bba5750303b158015610bba575060005460ff166001145b610c2c5760405162461bcd60e51b815260206004820152602e60248201527f496e697469616c697a61626c653a20636f6e747261637420697320616c72656160448201527f647920696e697469616c697a6564000000000000000000000000000000000000606482015260840161041c565b6000805460ff191660011790558015610c4f576000805461ff0019166101001790555b610c57611691565b610c5f611704565b60c980546001600160a01b0380871673ffffffffffffffffffffffffffffffffffffffff199283161790925560cb805486841690831617905560ca8054928516929091169190911790558015610cf0576000805461ff0019169055604051600181527f7f26b83ff96e1f2b6a682f133852f6798a09c465da95921460cefb3847402498906020015b60405180910390a15b50505050565b6000610d018761176f565b905083610d505760405162461bcd60e51b815260206004820152601260248201527f5a45524f5f42454e454649434941524945530000000000000000000000000000604482015260640161041c565b60c9546040516344766d2960e11b815260048101889052600091829182916001600160a01b0316906388ecda5290602401600060405180830381865afa158015610d9e573d6000803e3d6000fd5b505050506040513d6000823e601f3d908101601f19168201604052610dc6919081019061239d565b509350935050925082610e1b5760405162461bcd60e51b815260206004820152601360248201527f494e56414c49445f545255535445455f4b455900000000000000000000000000604482015260640161041c565b838214610e6a5760405162461bcd60e51b815260206004820152601560248201527f545255535445455f4f5554534944455f54525553540000000000000000000000604482015260640161041c565b8015610eb85760405162461bcd60e51b815260206004820152601460248201527f545255535445455f43414e545f42455f524f4f54000000000000000000000000604482015260640161041c565b600089815260cc602052604090206003015415610f175760405162461bcd60e51b815260206004820152601160248201527f4b45595f504f4c4943595f455849535453000000000000000000000000000000604482015260640161041c565b60c9546040517f53a81ee10000000000000000000000000000000000000000000000000000000081526001600160a01b03909116906353a81ee190610f679087908c908c9060009060040161247a565b602060405180830381865afa158015610f84573d6000803e3d6000fd5b505050506040513d601f19601f82011682018060405250810190610fa8919061236f565b50600089815260cc60205260409020600281018b9055610fcc600382018a8a611e0c565b5060005b888110156110315760018260040160008c8c85818110610ff257610ff261227a565b90506020020135815260200190815260200160002060006101000a81548160ff0219169083151502179055508080611029906122a6565b915050610fd0565b50600085815260cd6020526040902061104a908b61196e565b50611059600182018888611e0c565b50805460ff191686151781556040517f8aeaf49765f354ac677205f024fe8bde4759cf4f7ce593fa8e97e6f8a7a91b42906110a19033908e908e908e908e908e908e9061230a565b60405180910390a15050505050505050505050565b60006110c18361176f565b600083815260cc602052604090206003810154919250906111245760405162461bcd60e51b815260206004820152600e60248201527f4d495353494e475f504f4c494359000000000000000000000000000000000000604482015260640161041c565b838160020154146111775760405162461bcd60e51b815260206004820152601060248201527f494e56414c49445f524f4f545f4b455900000000000000000000000000000000604482015260640161041c565b60005b60038201548110156111d6578160040160008360030183815481106111a1576111a161227a565b600091825260208083209091015483528201929092526040019020805460ff19169055806111ce816122a6565b91505061117a565b50600083815260cc60205260408120805460ff19168155906111fb6001830182611e57565b60028201600090556003820160006112139190611e57565b5050600082815260cd6020526040902061122d908461197a565b5060408051338152602081018690529081018490527f8df489c07352c80764743d69a1918771c7ef6fa59f646af26090526d6e538a9a90606001610ce7565b6112746115c4565b6001600160a01b0381166112f05760405162461bcd60e51b815260206004820152602660248201527f4f776e61626c653a206e6577206f776e657220697320746865207a65726f206160448201527f6464726573730000000000000000000000000000000000000000000000000000606482015260840161041c565b6109188161161e565b805460ff16156113065750565b60005b60018201548110156114095760ca546001830180546001600160a01b0390921691634c80ebd69190849081106113415761134161227a565b90600052602060002001546040518263ffffffff1660e01b815260040161136a91815260200190565b602060405180830381865afa158015611387573d6000803e3d6000fd5b505050506040513d601f19601f820116820180604052508101906113ab919061236f565b6113f75760405162461bcd60e51b815260206004820152600d60248201527f4d495353494e475f4556454e5400000000000000000000000000000000000000604482015260640161041c565b80611401816122a6565b915050611309565b50805460ff19166001179055565b6109186115c4565b7f4910fdfa16fed3260ed0e7147f7cc6da11a60208b5b9406d12a635614ffd91435460ff16156114575761145283611986565b505050565b826001600160a01b03166352d1902d6040518163ffffffff1660e01b8152600401602060405180830381865afa9250505080156114b1575060408051601f3d908101601f191682019092526114ae91810190612261565b60015b6115235760405162461bcd60e51b815260206004820152602e60248201527f45524331393637557067726164653a206e657720696d706c656d656e7461746960448201527f6f6e206973206e6f742055555053000000000000000000000000000000000000606482015260840161041c565b7f360894a13ba1a3210667c828492db98dca3e2076cc3735a920a3ca505d382bbc81146115b85760405162461bcd60e51b815260206004820152602960248201527f45524331393637557067726164653a20756e737570706f727465642070726f7860448201527f6961626c65555549440000000000000000000000000000000000000000000000606482015260840161041c565b50611452838383611a51565b6033546001600160a01b03163314610b5e5760405162461bcd60e51b815260206004820181905260248201527f4f776e61626c653a2063616c6c6572206973206e6f7420746865206f776e6572604482015260640161041c565b603380546001600160a01b0383811673ffffffffffffffffffffffffffffffffffffffff19831681179093556040519116919082907f8be0079c531659141344cd1fd0a4f28419497f9722a3daafe3b4186f6b6457e090600090a35050565b6060600061168a83611a76565b9392505050565b600054610100900460ff166116fc5760405162461bcd60e51b815260206004820152602b60248201527f496e697469616c697a61626c653a20636f6e7472616374206973206e6f74206960448201526a6e697469616c697a696e6760a81b606482015260840161041c565b610b5e611ad2565b600054610100900460ff16610b5e5760405162461bcd60e51b815260206004820152602b60248201527f496e697469616c697a61626c653a20636f6e7472616374206973206e6f74206960448201526a6e697469616c697a696e6760a81b606482015260840161041c565b60008060c960009054906101000a90046001600160a01b03166001600160a01b031663b83ac19f6040518163ffffffff1660e01b8152600401602060405180830381865afa1580156117c5573d6000803e3d6000fd5b505050506040513d601f19601f820116820180604052508101906117e99190612244565b604051630f5d2cd560e11b815233600482015260248101859052600060448201526001600160a01b039190911690631eba59aa90606401602060405180830381865afa15801561183d573d6000803e3d6000fd5b505050506040513d601f19601f820116820180604052508101906118619190612261565b1161189d5760405162461bcd60e51b815260206004820152600c60248201526b12d15657d393d517d211531160a21b604482015260640161041c565b60c9546040516344766d2960e11b81526004810184905260009182916001600160a01b03909116906388ecda5290602401600060405180830381865afa1580156118eb573d6000803e3d6000fd5b505050506040513d6000823e601f3d908101601f19168201604052611913919081019061239d565b50935093505050806119675760405162461bcd60e51b815260206004820152600c60248201527f4b45595f4e4f545f524f4f540000000000000000000000000000000000000000604482015260640161041c565b5092915050565b600061168a8383611b46565b600061168a8383611b95565b6001600160a01b0381163b611a035760405162461bcd60e51b815260206004820152602d60248201527f455243313936373a206e657720696d706c656d656e746174696f6e206973206e60448201527f6f74206120636f6e747261637400000000000000000000000000000000000000606482015260840161041c565b7f360894a13ba1a3210667c828492db98dca3e2076cc3735a920a3ca505d382bbc805473ffffffffffffffffffffffffffffffffffffffff19166001600160a01b0392909216919091179055565b611a5a83611c88565b600082511180611a675750805b1561145257610cf08383611cc8565b606081600001805480602002602001604051908101604052809291908181526020018280548015611ac657602002820191906000526020600020905b815481526020019060010190808311611ab2575b50505050509050919050565b600054610100900460ff16611b3d5760405162461bcd60e51b815260206004820152602b60248201527f496e697469616c697a61626c653a20636f6e7472616374206973206e6f74206960448201526a6e697469616c697a696e6760a81b606482015260840161041c565b610b5e3361161e565b6000818152600183016020526040812054611b8d57508154600181810184556000848152602080822090930184905584548482528286019093526040902091909155610b7a565b506000610b7a565b60008181526001830160205260408120548015611c7e576000611bb96001836124a7565b8554909150600090611bcd906001906124a7565b9050818114611c32576000866000018281548110611bed57611bed61227a565b9060005260206000200154905080876000018481548110611c1057611c1061227a565b6000918252602080832090910192909255918252600188019052604090208390555b8554869080611c4357611c436124ba565b600190038181906000526020600020016000905590558560010160008681526020019081526020016000206000905560019350505050610b7a565b6000915050610b7a565b611c9181611986565b6040516001600160a01b038216907fbc7cd75a20ee27fd9adebab32041f755214dbc6bffa90cc0225b39da2e5c2d3b90600090a250565b60606001600160a01b0383163b611d475760405162461bcd60e51b815260206004820152602660248201527f416464726573733a2064656c65676174652063616c6c20746f206e6f6e2d636f60448201527f6e74726163740000000000000000000000000000000000000000000000000000606482015260840161041c565b600080846001600160a01b031684604051611d6291906124f4565b600060405180830381855af49150503d8060008114611d9d576040519150601f19603f3d011682016040523d82523d6000602084013e611da2565b606091505b5091509150611dca828260405180606001604052806027815260200161254460279139611dd3565b95945050505050565b60608315611de257508161168a565b825115611df25782518084602001fd5b8160405162461bcd60e51b815260040161041c9190612510565b828054828255906000526020600020908101928215611e47579160200282015b82811115611e47578235825591602001919060010190611e2c565b50611e53929150611e71565b5090565b508054600082559060005260206000209081019061091891905b5b80821115611e535760008155600101611e72565b6001600160a01b038116811461091857600080fd5b60008083601f840112611ead57600080fd5b50813567ffffffffffffffff811115611ec557600080fd5b6020830191508360208260051b8501011115611ee057600080fd5b9250929050565b600080600080600080600060a0888a031215611f0257600080fd5b873596506020880135611f1481611e86565b955060408801359450606088013567ffffffffffffffff80821115611f3857600080fd5b611f448b838c01611e9b565b909650945060808a0135915080821115611f5d57600080fd5b50611f6a8a828b01611e9b565b989b979a50959850939692959293505050565b600060208284031215611f8f57600080fd5b5035919050565b600081518084526020808501945080840160005b83811015611fc657815187529582019590820190600101611faa565b509495945050505050565b841515815260006020858184015260806040840152611ff36080840186611f96565b838103606085015284518082528286019183019060005b818110156120265783518352928401929184019160010161200a565b50909998505050505050505050565b60006020828403121561204757600080fd5b813561168a81611e86565b634e487b7160e01b600052604160045260246000fd5b604051601f8201601f1916810167ffffffffffffffff8111828210171561209157612091612052565b604052919050565b600080604083850312156120ac57600080fd5b82356120b781611e86565b915060208381013567ffffffffffffffff808211156120d557600080fd5b818601915086601f8301126120e957600080fd5b8135818111156120fb576120fb612052565b61210d601f8201601f19168501612068565b9150808252878482850101111561212357600080fd5b80848401858401376000848284010152508093505050509250929050565b60208152600061168a6020830184611f96565b60008060006060848603121561216957600080fd5b833561217481611e86565b9250602084013561218481611e86565b9150604084013561219481611e86565b809150509250925092565b600080600080600080608087890312156121b857600080fd5b8635955060208701359450604087013567ffffffffffffffff808211156121de57600080fd5b6121ea8a838b01611e9b565b9096509450606089013591508082111561220357600080fd5b5061221089828a01611e9b565b979a9699509497509295939492505050565b6000806040838503121561223557600080fd5b50508035926020909101359150565b60006020828403121561225657600080fd5b815161168a81611e86565b60006020828403121561227357600080fd5b5051919050565b634e487b7160e01b600052603260045260246000fd5b634e487b7160e01b600052601160045260246000fd5b6000600182016122b8576122b8612290565b5060010190565b81835260007f07ffffffffffffffffffffffffffffffffffffffffffffffffffffffffffffff8311156122f157600080fd5b8260051b80836020870137939093016020019392505050565b6001600160a01b038816815286602082015285604082015260a06060820152600061233960a0830186886122bf565b828103608084015261234c8185876122bf565b9a9950505050505050505050565b8051801515811461236a57600080fd5b919050565b60006020828403121561238157600080fd5b61168a8261235a565b80820180821115610b7a57610b7a612290565b600080600080600060a086880312156123b557600080fd5b6123be8661235a565b94506020808701519450604087015193506123db6060880161235a565b9250608087015167ffffffffffffffff808211156123f857600080fd5b818901915089601f83011261240c57600080fd5b81518181111561241e5761241e612052565b8060051b915061242f848301612068565b818152918301840191848101908c84111561244957600080fd5b938501935b838510156124675784518252938501939085019061244e565b8096505050505050509295509295909350565b8481526060602082015260006124946060830185876122bf565b9050821515604083015295945050505050565b81810381811115610b7a57610b7a612290565b634e487b7160e01b600052603160045260246000fd5b60005b838110156124eb5781810151838201526020016124d3565b50506000910152565b600082516125068184602087016124d0565b9190910192915050565b602081526000825180602084015261252f8160408501602087016124d0565b601f01601f1916919091016040019291505056fe416464726573733a206c6f772d6c6576656c2064656c65676174652063616c6c206661696c6564a2646970667358221220c8fba0233a96b92ba35392ff865bcf7e745e80892c1c2a84ce290a95043054dd64736f6c63430008100033",
  "linkReferences": {},
  "deployedLinkReferences": {}
}