{
  "_format": "hh-sol-artifact-1",
  "contractName": "Trustee",
  "sourceName": "contracts/scribes/Trustee.sol",
  "abi": [
    {
      "inputs": [],
      "stateMutability": "nonpayable",
      "type": "constructor"
    },
    {
      "anonymous": false,
      "inputs": [
        {
          "indexed": false,
          "internalType": "address",
          "name": "previousAdmin",
          "type": "address"
        },
        {
          "indexed": false,
          "internalType": "address",
          "name": "newAdmin",
          "type": "address"
        }
      ],
      "name": "AdminChanged",
      "type": "event"
    },
    {
      "anonymous": false,
      "inputs": [
        {
          "indexed": true,
          "internalType": "address",
          "name": "beacon",
          "type": "address"
        }
      ],
      "name": "BeaconUpgraded",
      "type": "event"
    },
    {
      "anonymous": false,
      "inputs": [
        {
          "indexed": false,
          "internalType": "uint8",
          "name": "version",
          "type": "uint8"
        }
      ],
      "name": "Initialized",
      "type": "event"
    },
    {
      "anonymous": false,
      "inputs": [
        {
          "indexed": true,
          "internalType": "address",
          "name": "previousOwner",
          "type": "address"
        },
        {
          "indexed": true,
          "internalType": "address",
          "name": "newOwner",
          "type": "address"
        }
      ],
      "name": "OwnershipTransferred",
      "type": "event"
    },
    {
      "anonymous": false,
      "inputs": [
        {
          "indexed": true,
          "internalType": "address",
          "name": "implementation",
          "type": "address"
        }
      ],
      "name": "Upgraded",
      "type": "event"
    },
    {
      "anonymous": false,
      "inputs": [
        {
          "indexed": false,
          "internalType": "address",
          "name": "actor",
          "type": "address"
        },
        {
          "indexed": false,
          "internalType": "uint256",
          "name": "rootKeyId",
          "type": "uint256"
        },
        {
          "indexed": false,
          "internalType": "uint256",
          "name": "trusteeKeyId",
          "type": "uint256"
        }
      ],
      "name": "trusteePolicyRemoved",
      "type": "event"
    },
    {
      "anonymous": false,
      "inputs": [
        {
          "indexed": false,
          "internalType": "address",
          "name": "actor",
          "type": "address"
        },
        {
          "indexed": false,
          "internalType": "uint256",
          "name": "rootKeyId",
          "type": "uint256"
        },
        {
          "indexed": false,
          "internalType": "uint256",
          "name": "trusteeKeyId",
          "type": "uint256"
        },
        {
          "indexed": false,
          "internalType": "uint256",
          "name": "sourceKeyId",
          "type": "uint256"
        },
        {
          "indexed": false,
          "internalType": "uint256[]",
          "name": "beneficiaries",
          "type": "uint256[]"
        },
        {
          "indexed": false,
          "internalType": "bytes32[]",
          "name": "events",
          "type": "bytes32[]"
        }
      ],
      "name": "trusteePolicySet",
      "type": "event"
    },
    {
      "inputs": [
        {
          "internalType": "uint256",
          "name": "trusteeKeyId",
          "type": "uint256"
        },
        {
          "internalType": "address",
          "name": "provider",
          "type": "address"
        },
        {
          "internalType": "bytes32",
          "name": "arn",
          "type": "bytes32"
        },
        {
          "internalType": "uint256[]",
          "name": "beneficiaries",
          "type": "uint256[]"
        },
        {
          "internalType": "uint256[]",
          "name": "amounts",
          "type": "uint256[]"
        }
      ],
      "name": "distribute",
      "outputs": [
        {
          "internalType": "uint256",
          "name": "",
          "type": "uint256"
        }
      ],
      "stateMutability": "nonpayable",
      "type": "function"
    },
    {
      "inputs": [
        {
          "internalType": "uint256",
          "name": "keyId",
          "type": "uint256"
        }
      ],
      "name": "getPolicy",
      "outputs": [
        {
          "internalType": "bool",
          "name": "",
          "type": "bool"
        },
        {
          "internalType": "uint256",
          "name": "",
          "type": "uint256"
        },
        {
          "internalType": "uint256",
          "name": "",
          "type": "uint256"
        },
        {
          "internalType": "uint256[]",
          "name": "",
          "type": "uint256[]"
        },
        {
          "internalType": "bytes32[]",
          "name": "",
          "type": "bytes32[]"
        }
      ],
      "stateMutability": "view",
      "type": "function"
    },
    {
      "inputs": [
        {
          "internalType": "uint256",
          "name": "trustId",
          "type": "uint256"
        }
      ],
      "name": "getTrustPolicyKeys",
      "outputs": [
        {
          "internalType": "uint256[]",
          "name": "",
          "type": "uint256[]"
        }
      ],
      "stateMutability": "view",
      "type": "function"
    },
    {
      "inputs": [
        {
          "internalType": "address",
          "name": "_Locksmith",
          "type": "address"
        },
        {
          "internalType": "address",
          "name": "_Ledger",
          "type": "address"
        },
        {
          "internalType": "address",
          "name": "_TrustEventLog",
          "type": "address"
        }
      ],
      "name": "initialize",
      "outputs": [],
      "stateMutability": "nonpayable",
      "type": "function"
    },
    {
      "inputs": [],
      "name": "ledger",
      "outputs": [
        {
          "internalType": "contract ILedger",
          "name": "",
          "type": "address"
        }
      ],
      "stateMutability": "view",
      "type": "function"
    },
    {
      "inputs": [],
      "name": "locksmith",
      "outputs": [
        {
          "internalType": "contract ILocksmith",
          "name": "",
          "type": "address"
        }
      ],
      "stateMutability": "view",
      "type": "function"
    },
    {
      "inputs": [],
      "name": "owner",
      "outputs": [
        {
          "internalType": "address",
          "name": "",
          "type": "address"
        }
      ],
      "stateMutability": "view",
      "type": "function"
    },
    {
      "inputs": [],
      "name": "proxiableUUID",
      "outputs": [
        {
          "internalType": "bytes32",
          "name": "",
          "type": "bytes32"
        }
      ],
      "stateMutability": "view",
      "type": "function"
    },
    {
      "inputs": [
        {
          "internalType": "uint256",
          "name": "rootKeyId",
          "type": "uint256"
        },
        {
          "internalType": "uint256",
          "name": "trusteeKeyId",
          "type": "uint256"
        }
      ],
      "name": "removePolicy",
      "outputs": [],
      "stateMutability": "nonpayable",
      "type": "function"
    },
    {
      "inputs": [],
      "name": "renounceOwnership",
      "outputs": [],
      "stateMutability": "nonpayable",
      "type": "function"
    },
    {
      "inputs": [
        {
          "internalType": "uint256",
          "name": "rootKeyId",
          "type": "uint256"
        },
        {
          "internalType": "uint256",
          "name": "trusteeKeyId",
          "type": "uint256"
        },
        {
          "internalType": "uint256",
          "name": "sourceKeyId",
          "type": "uint256"
        },
        {
          "internalType": "uint256[]",
          "name": "beneficiaries",
          "type": "uint256[]"
        },
        {
          "internalType": "bytes32[]",
          "name": "events",
          "type": "bytes32[]"
        }
      ],
      "name": "setPolicy",
      "outputs": [],
      "stateMutability": "nonpayable",
      "type": "function"
    },
    {
      "inputs": [
        {
          "internalType": "address",
          "name": "newOwner",
          "type": "address"
        }
      ],
      "name": "transferOwnership",
      "outputs": [],
      "stateMutability": "nonpayable",
      "type": "function"
    },
    {
      "inputs": [],
      "name": "trustEventLog",
      "outputs": [
        {
          "internalType": "contract ITrustEventLog",
          "name": "",
          "type": "address"
        }
      ],
      "stateMutability": "view",
      "type": "function"
    },
    {
      "inputs": [
        {
          "internalType": "address",
          "name": "newImplementation",
          "type": "address"
        }
      ],
      "name": "upgradeTo",
      "outputs": [],
      "stateMutability": "nonpayable",
      "type": "function"
    },
    {
      "inputs": [
        {
          "internalType": "address",
          "name": "newImplementation",
          "type": "address"
        },
        {
          "internalType": "bytes",
          "name": "data",
          "type": "bytes"
        }
      ],
      "name": "upgradeToAndCall",
      "outputs": [],
      "stateMutability": "payable",
      "type": "function"
    }
  ],
  "bytecode": "0x60a06040523060805234801561001457600080fd5b5061001d610022565b6100e2565b600054610100900460ff161561008e5760405162461bcd60e51b815260206004820152602760248201527f496e697469616c697a61626c653a20636f6e747261637420697320696e697469604482015266616c697a696e6760c81b606482015260840160405180910390fd5b60005460ff90811610156100e0576000805460ff191660ff9081179091556040519081527f7f26b83ff96e1f2b6a682f133852f6798a09c465da95921460cefb38474024989060200160405180910390a15b565b60805161243e6200011a60003960008181610bcb01528181610c0b01528181610caa01528181610cea0152610d7d015261243e6000f3fe6080604052600436106100e85760003560e01c806356397c351161008a5780638da5cb5b116100595780638da5cb5b14610275578063c0c53b8b14610293578063f02dd176146102b3578063f2fde38b146102d357600080fd5b806356397c35146101f35780635a2fefef14610213578063715018a6146102335780638b24db421461024857600080fd5b80632b07fce3116100c65780632b07fce31461017a5780633659cfe6146101ab5780634f1ef286146101cb57806352d1902d146101de57600080fd5b8063092fc2a7146100ed57806313fb817e1461010f57806325798f611461014c575b600080fd5b3480156100f957600080fd5b5061010d610108366004611c65565b6102f3565b005b34801561011b57600080fd5b5060c95461012f906001600160a01b031681565b6040516001600160a01b0390911681526020015b60405180910390f35b34801561015857600080fd5b5061016c610167366004611d07565b61078c565b604051908152602001610143565b34801561018657600080fd5b5061019a610195366004611d58565b610a39565b604051610143959493929190611dac565b3480156101b757600080fd5b5061010d6101c6366004611e17565b610bc1565b61010d6101d9366004611e7b565b610ca0565b3480156101ea57600080fd5b5061016c610d70565b3480156101ff57600080fd5b5060cb5461012f906001600160a01b031681565b34801561021f57600080fd5b5060ca5461012f906001600160a01b031681565b34801561023f57600080fd5b5061010d610e23565b34801561025457600080fd5b50610268610263366004611d58565b610e37565b6040516101439190611f23565b34801561028157600080fd5b506033546001600160a01b031661012f565b34801561029f57600080fd5b5061010d6102ae366004611f36565b610e57565b3480156102bf57600080fd5b5061010d6102ce366004611f81565b610fb0565b3480156102df57600080fd5b5061010d6102ee366004611e17565b611169565b60006102fe886111df565b9050836103475760405162461bcd60e51b81526020600482015260126024820152715a45524f5f42454e4546494349415249455360701b60448201526064015b60405180910390fd5b60c9546040516344766d2960e11b81526004810189905260009182916001600160a01b03909116906388ecda5290602401600060405180830381865afa158015610395573d6000803e3d6000fd5b505050506040513d6000823e601f3d908101601f191682016040526103bd9190810190611fb8565b50509250509150816104075760405162461bcd60e51b8152602060048201526013602482015272494e56414c49445f545255535445455f4b455960681b604482015260640161033e565b82811461044e5760405162461bcd60e51b815260206004820152601560248201527415149554d5115157d3d55514d2511157d5149554d5605a1b604482015260640161033e565b60c9546040516344766d2960e11b8152600481018a905260009182916001600160a01b03909116906388ecda5290602401600060405180830381865afa15801561049c573d6000803e3d6000fd5b505050506040513d6000823e601f3d908101601f191682016040526104c49190810190611fb8565b505092505091508161050d5760405162461bcd60e51b8152602060048201526012602482015271494e56414c49445f534f555243455f4b455960701b604482015260640161033e565b8481146105535760405162461bcd60e51b815260206004820152601460248201527314d3d55490d157d3d55514d2511157d5149554d560621b604482015260640161033e565b60008b815260cc6020526040902061056d906004016113cd565b156105ae5760405162461bcd60e51b81526020600482015260116024820152704b45595f504f4c4943595f45584953545360781b604482015260640161033e565b60c9546040516353a81ee160e01b81526001600160a01b03909116906353a81ee1906105e59088908d908d906001906004016120c7565b602060405180830381865afa158015610602573d6000803e3d6000fd5b505050506040513d601f19601f8201168201806040525081019061062691906120f4565b5060008b815260cc60205260408120600281018e9055600381018c9055905b898110156106ed578a8a8281811061065f5761065f61210f565b905060200201358c036106ac5760405162461bcd60e51b815260206004820152601560248201527429a7aaa921a2afa4a9afa222a9aa24a720aa24a7a760591b604482015260640161033e565b6106da8b8b838181106106c1576106c161210f565b90506020020135836004016113d790919063ffffffff16565b50806106e58161213b565b915050610645565b50600086815260cd60205260409020610706908d6113d7565b50610715600182018989611b9f565b50878790506000148160000160006101000a81548160ff0219169083151502179055507f8a6bded414158f51d49528c98244f78ffcae2f384110728cf2a8b93f438fae1a338e8e8e8e8e8e8e604051610775989796959493929190612154565b60405180910390a150505050505050505050505050565b60008060c960009054906101000a90046001600160a01b03166001600160a01b031663b83ac19f6040518163ffffffff1660e01b8152600401602060405180830381865afa1580156107e2573d6000803e3d6000fd5b505050506040513d601f19601f8201168201806040525081019061080691906121aa565b604051630f5d2cd560e11b8152336004820152602481018b9052600060448201526001600160a01b039190911690631eba59aa90606401602060405180830381865afa15801561085a573d6000803e3d6000fd5b505050506040513d601f19601f8201168201806040525081019061087e91906121c7565b116108ba5760405162461bcd60e51b815260206004820152600c60248201526b12d15657d393d517d211531160a21b604482015260640161033e565b600088815260cc60205260408120906108d5600483016113cd565b116109135760405162461bcd60e51b815260206004820152600e60248201526d4d495353494e475f504f4c49435960901b604482015260640161033e565b61091c816113ea565b60005b858110156109a95761095587878381811061093c5761093c61210f565b90506020020135836004016114f890919063ffffffff16565b6109975760405162461bcd60e51b8152602060048201526013602482015272494e56414c49445f42454e454649434941525960681b604482015260640161033e565b806109a18161213b565b91505061091f565b5060cb546003820154604051633802764f60e21b81526001600160a01b039092169163e009d93c916109e9918c918c918c908c908c908c906004016121e0565b6020604051808303816000875af1158015610a08573d6000803e3d6000fd5b505050506040513d601f19601f82011682018060405250810190610a2c91906121c7565b9998505050505050505050565b600081815260cc602052604081208054829182916060918291849060ff16610b315760005b6001830154811015610b2f5760ca546001840180546001600160a01b0390921691634c80ebd6919084908110610a9657610a9661210f565b90600052602060002001546040518263ffffffff1660e01b8152600401610abf91815260200190565b602060405180830381865afa158015610adc573d6000803e3d6000fd5b505050506040513d601f19601f82011682018060405250810190610b0091906120f4565b610b0b576000610b0e565b60015b610b1b9060ff168361222f565b915080610b278161213b565b915050610a5e565b505b815460ff1680610b445750600182015481145b82600201548360030154610b5a85600401611510565b60018601805460408051602080840282018101909252828152918391830182828015610ba557602002820191906000526020600020905b815481526020019060010190808311610b91575b5050505050905096509650965096509650505091939590929450565b6001600160a01b037f0000000000000000000000000000000000000000000000000000000000000000163003610c095760405162461bcd60e51b815260040161033e90612242565b7f00000000000000000000000000000000000000000000000000000000000000006001600160a01b0316610c526000805160206123c2833981519152546001600160a01b031690565b6001600160a01b031614610c785760405162461bcd60e51b815260040161033e9061228e565b610c818161151d565b60408051600080825260208201909252610c9d91839190611525565b50565b6001600160a01b037f0000000000000000000000000000000000000000000000000000000000000000163003610ce85760405162461bcd60e51b815260040161033e90612242565b7f00000000000000000000000000000000000000000000000000000000000000006001600160a01b0316610d316000805160206123c2833981519152546001600160a01b031690565b6001600160a01b031614610d575760405162461bcd60e51b815260040161033e9061228e565b610d608261151d565b610d6c82826001611525565b5050565b6000306001600160a01b037f00000000000000000000000000000000000000000000000000000000000000001614610e105760405162461bcd60e51b815260206004820152603860248201527f555550535570677261646561626c653a206d757374206e6f742062652063616c60448201527f6c6564207468726f7567682064656c656761746563616c6c0000000000000000606482015260840161033e565b506000805160206123c283398151915290565b610e2b611695565b610e3560006116ef565b565b600081815260cd60205260409020606090610e5190611510565b92915050565b600054610100900460ff1615808015610e775750600054600160ff909116105b80610e915750303b158015610e91575060005460ff166001145b610ef45760405162461bcd60e51b815260206004820152602e60248201527f496e697469616c697a61626c653a20636f6e747261637420697320616c72656160448201526d191e481a5b9a5d1a585b1a5e995960921b606482015260840161033e565b6000805460ff191660011790558015610f17576000805461ff0019166101001790555b610f1f611741565b610f27611770565b60c980546001600160a01b038087166001600160a01b03199283161790925560cb805486841690831617905560ca8054928516929091169190911790558015610faa576000805461ff0019169055604051600181527f7f26b83ff96e1f2b6a682f133852f6798a09c465da95921460cefb38474024989060200160405180910390a15b50505050565b6000610fbb836111df565b600083815260cc60205260408120919250610fd8600483016113cd565b116110165760405162461bcd60e51b815260206004820152600e60248201526d4d495353494e475f504f4c49435960901b604482015260640161033e565b8381600201541461105c5760405162461bcd60e51b815260206004820152601060248201526f494e56414c49445f524f4f545f4b455960801b604482015260640161033e565b600061106a82600401611510565b905060005b81518110156110ba576110a782828151811061108d5761108d61210f565b60200260200101518460040161179790919063ffffffff16565b50806110b28161213b565b91505061106f565b50600084815260cc60205260408120805460ff19168155906110df6001830182611bea565b60006002830181905560038301819055600483019081816111008282611bea565b505050600086815260cd6020526040902061112093509150869050611797565b5060408051338152602081018790529081018590527f8df489c07352c80764743d69a1918771c7ef6fa59f646af26090526d6e538a9a9060600160405180910390a15050505050565b611171611695565b6001600160a01b0381166111d65760405162461bcd60e51b815260206004820152602660248201527f4f776e61626c653a206e6577206f776e657220697320746865207a65726f206160448201526564647265737360d01b606482015260840161033e565b610c9d816116ef565b60008060c960009054906101000a90046001600160a01b03166001600160a01b031663b83ac19f6040518163ffffffff1660e01b8152600401602060405180830381865afa158015611235573d6000803e3d6000fd5b505050506040513d601f19601f8201168201806040525081019061125991906121aa565b604051630f5d2cd560e11b815233600482015260248101859052600060448201526001600160a01b039190911690631eba59aa90606401602060405180830381865afa1580156112ad573d6000803e3d6000fd5b505050506040513d601f19601f820116820180604052508101906112d191906121c7565b1161130d5760405162461bcd60e51b815260206004820152600c60248201526b12d15657d393d517d211531160a21b604482015260640161033e565b60c9546040516344766d2960e11b81526004810184905260009182916001600160a01b03909116906388ecda5290602401600060405180830381865afa15801561135b573d6000803e3d6000fd5b505050506040513d6000823e601f3d908101601f191682016040526113839190810190611fb8565b50935093505050806113c65760405162461bcd60e51b815260206004820152600c60248201526b12d15657d393d517d493d3d560a21b604482015260640161033e565b5092915050565b6000610e51825490565b60006113e383836117a3565b9392505050565b805460ff16156113f75750565b60005b60018201548110156114ea5760ca546001830180546001600160a01b0390921691634c80ebd69190849081106114325761143261210f565b90600052602060002001546040518263ffffffff1660e01b815260040161145b91815260200190565b602060405180830381865afa158015611478573d6000803e3d6000fd5b505050506040513d601f19601f8201168201806040525081019061149c91906120f4565b6114d85760405162461bcd60e51b815260206004820152600d60248201526c135254d4d25391d7d155915395609a1b604482015260640161033e565b806114e28161213b565b9150506113fa565b50805460ff19166001179055565b600081815260018301602052604081205415156113e3565b606060006113e3836117f2565b610c9d611695565b7f4910fdfa16fed3260ed0e7147f7cc6da11a60208b5b9406d12a635614ffd91435460ff161561155d576115588361184e565b505050565b826001600160a01b03166352d1902d6040518163ffffffff1660e01b8152600401602060405180830381865afa9250505080156115b7575060408051601f3d908101601f191682019092526115b4918101906121c7565b60015b61161a5760405162461bcd60e51b815260206004820152602e60248201527f45524331393637557067726164653a206e657720696d706c656d656e7461746960448201526d6f6e206973206e6f74205555505360901b606482015260840161033e565b6000805160206123c283398151915281146116895760405162461bcd60e51b815260206004820152602960248201527f45524331393637557067726164653a20756e737570706f727465642070726f786044820152681a58589b195555525160ba1b606482015260840161033e565b506115588383836118ea565b6033546001600160a01b03163314610e355760405162461bcd60e51b815260206004820181905260248201527f4f776e61626c653a2063616c6c6572206973206e6f7420746865206f776e6572604482015260640161033e565b603380546001600160a01b038381166001600160a01b0319831681179093556040519116919082907f8be0079c531659141344cd1fd0a4f28419497f9722a3daafe3b4186f6b6457e090600090a35050565b600054610100900460ff166117685760405162461bcd60e51b815260040161033e906122da565b610e3561190f565b600054610100900460ff16610e355760405162461bcd60e51b815260040161033e906122da565b60006113e3838361193f565b60008181526001830160205260408120546117ea57508154600181810184556000848152602080822090930184905584548482528286019093526040902091909155610e51565b506000610e51565b60608160000180548060200260200160405190810160405280929190818152602001828054801561184257602002820191906000526020600020905b81548152602001906001019080831161182e575b50505050509050919050565b6001600160a01b0381163b6118bb5760405162461bcd60e51b815260206004820152602d60248201527f455243313936373a206e657720696d706c656d656e746174696f6e206973206e60448201526c1bdd08184818dbdb9d1c9858dd609a1b606482015260840161033e565b6000805160206123c283398151915280546001600160a01b0319166001600160a01b0392909216919091179055565b6118f383611a32565b6000825111806119005750805b1561155857610faa8383611a72565b600054610100900460ff166119365760405162461bcd60e51b815260040161033e906122da565b610e35336116ef565b60008181526001830160205260408120548015611a28576000611963600183612325565b855490915060009061197790600190612325565b90508181146119dc5760008660000182815481106119975761199761210f565b90600052602060002001549050808760000184815481106119ba576119ba61210f565b6000918252602080832090910192909255918252600188019052604090208390555b85548690806119ed576119ed612338565b600190038181906000526020600020016000905590558560010160008681526020019081526020016000206000905560019350505050610e51565b6000915050610e51565b611a3b8161184e565b6040516001600160a01b038216907fbc7cd75a20ee27fd9adebab32041f755214dbc6bffa90cc0225b39da2e5c2d3b90600090a250565b60606001600160a01b0383163b611ada5760405162461bcd60e51b815260206004820152602660248201527f416464726573733a2064656c65676174652063616c6c20746f206e6f6e2d636f6044820152651b9d1c9858dd60d21b606482015260840161033e565b600080846001600160a01b031684604051611af59190612372565b600060405180830381855af49150503d8060008114611b30576040519150601f19603f3d011682016040523d82523d6000602084013e611b35565b606091505b5091509150611b5d82826040518060600160405280602781526020016123e260279139611b66565b95945050505050565b60608315611b755750816113e3565b825115611b855782518084602001fd5b8160405162461bcd60e51b815260040161033e919061238e565b828054828255906000526020600020908101928215611bda579160200282015b82811115611bda578235825591602001919060010190611bbf565b50611be6929150611c04565b5090565b5080546000825590600052602060002090810190610c9d91905b5b80821115611be65760008155600101611c05565b60008083601f840112611c2b57600080fd5b50813567ffffffffffffffff811115611c4357600080fd5b6020830191508360208260051b8501011115611c5e57600080fd5b9250929050565b600080600080600080600060a0888a031215611c8057600080fd5b873596506020880135955060408801359450606088013567ffffffffffffffff80821115611cad57600080fd5b611cb98b838c01611c19565b909650945060808a0135915080821115611cd257600080fd5b50611cdf8a828b01611c19565b989b979a50959850939692959293505050565b6001600160a01b0381168114610c9d57600080fd5b600080600080600080600060a0888a031215611d2257600080fd5b873596506020880135611d3481611cf2565b955060408801359450606088013567ffffffffffffffff80821115611cad57600080fd5b600060208284031215611d6a57600080fd5b5035919050565b600081518084526020808501945080840160005b83811015611da157815187529582019590820190600101611d85565b509495945050505050565b851515815260006020868184015285604084015260a06060840152611dd460a0840186611d71565b838103608085015284518082528286019183019060005b81811015611e0757835183529284019291840191600101611deb565b50909a9950505050505050505050565b600060208284031215611e2957600080fd5b81356113e381611cf2565b634e487b7160e01b600052604160045260246000fd5b604051601f8201601f1916810167ffffffffffffffff81118282101715611e7357611e73611e34565b604052919050565b60008060408385031215611e8e57600080fd5b8235611e9981611cf2565b915060208381013567ffffffffffffffff80821115611eb757600080fd5b818601915086601f830112611ecb57600080fd5b813581811115611edd57611edd611e34565b611eef601f8201601f19168501611e4a565b91508082528784828501011115611f0557600080fd5b80848401858401376000848284010152508093505050509250929050565b6020815260006113e36020830184611d71565b600080600060608486031215611f4b57600080fd5b8335611f5681611cf2565b92506020840135611f6681611cf2565b91506040840135611f7681611cf2565b809150509250925092565b60008060408385031215611f9457600080fd5b50508035926020909101359150565b80518015158114611fb357600080fd5b919050565b600080600080600060a08688031215611fd057600080fd5b611fd986611fa3565b9450602080870151945060408701519350611ff660608801611fa3565b9250608087015167ffffffffffffffff8082111561201357600080fd5b818901915089601f83011261202757600080fd5b81518181111561203957612039611e34565b8060051b915061204a848301611e4a565b818152918301840191848101908c84111561206457600080fd5b938501935b8385101561208257845182529385019390850190612069565b8096505050505050509295509295909350565b81835260006001600160fb1b038311156120ae57600080fd5b8260051b80836020870137939093016020019392505050565b8481526060602082015260006120e1606083018587612095565b9050821515604083015295945050505050565b60006020828403121561210657600080fd5b6113e382611fa3565b634e487b7160e01b600052603260045260246000fd5b634e487b7160e01b600052601160045260246000fd5b60006001820161214d5761214d612125565b5060010190565b60018060a01b038916815287602082015286604082015285606082015260c06080820152600061218860c083018688612095565b82810360a084015261219b818587612095565b9b9a5050505050505050505050565b6000602082840312156121bc57600080fd5b81516113e381611cf2565b6000602082840312156121d957600080fd5b5051919050565b60018060a01b038816815286602082015285604082015260a06060820152600061220e60a083018688612095565b8281036080840152612221818587612095565b9a9950505050505050505050565b80820180821115610e5157610e51612125565b6020808252602c908201527f46756e6374696f6e206d7573742062652063616c6c6564207468726f7567682060408201526b19195b1959d85d1958d85b1b60a21b606082015260800190565b6020808252602c908201527f46756e6374696f6e206d7573742062652063616c6c6564207468726f7567682060408201526b6163746976652070726f787960a01b606082015260800190565b6020808252602b908201527f496e697469616c697a61626c653a20636f6e7472616374206973206e6f74206960408201526a6e697469616c697a696e6760a81b606082015260800190565b81810381811115610e5157610e51612125565b634e487b7160e01b600052603160045260246000fd5b60005b83811015612369578181015183820152602001612351565b50506000910152565b6000825161238481846020870161234e565b9190910192915050565b60208152600082518060208401526123ad81604085016020870161234e565b601f01601f1916919091016040019291505056fe360894a13ba1a3210667c828492db98dca3e2076cc3735a920a3ca505d382bbc416464726573733a206c6f772d6c6576656c2064656c65676174652063616c6c206661696c6564a26469706673582212202f3cc0200a1b48f48175fe6024d65d9ab88b84d1fb9a7565a4a8f2a0d13a006064736f6c63430008100033",
  "linkReferences": {},
  "deployedLinkReferences": {}
}