{
  "_format": "hh-sol-artifact-1",
  "contractName": "KeyOracle",
  "sourceName": "contracts/dispatchers/KeyOracle.sol",
  "abi": [
    {
      "inputs": [],
      "stateMutability": "nonpayable",
      "type": "constructor"
    },
    {
      "anonymous": false,
      "inputs": [
        {
          "indexed": false,
          "internalType": "address",
          "name": "previousAdmin",
          "type": "address"
        },
        {
          "indexed": false,
          "internalType": "address",
          "name": "newAdmin",
          "type": "address"
        }
      ],
      "name": "AdminChanged",
      "type": "event"
    },
    {
      "anonymous": false,
      "inputs": [
        {
          "indexed": true,
          "internalType": "address",
          "name": "beacon",
          "type": "address"
        }
      ],
      "name": "BeaconUpgraded",
      "type": "event"
    },
    {
      "anonymous": false,
      "inputs": [
        {
          "indexed": false,
          "internalType": "uint8",
          "name": "version",
          "type": "uint8"
        }
      ],
      "name": "Initialized",
      "type": "event"
    },
    {
      "anonymous": false,
      "inputs": [
        {
          "indexed": true,
          "internalType": "address",
          "name": "previousOwner",
          "type": "address"
        },
        {
          "indexed": true,
          "internalType": "address",
          "name": "newOwner",
          "type": "address"
        }
      ],
      "name": "OwnershipTransferred",
      "type": "event"
    },
    {
      "anonymous": false,
      "inputs": [
        {
          "indexed": true,
          "internalType": "address",
          "name": "implementation",
          "type": "address"
        }
      ],
      "name": "Upgraded",
      "type": "event"
    },
    {
      "anonymous": false,
      "inputs": [
        {
          "indexed": false,
          "internalType": "address",
          "name": "operator",
          "type": "address"
        },
        {
          "indexed": false,
          "internalType": "uint256",
          "name": "trustId",
          "type": "uint256"
        },
        {
          "indexed": false,
          "internalType": "uint256",
          "name": "rootKeyId",
          "type": "uint256"
        },
        {
          "indexed": false,
          "internalType": "uint256",
          "name": "keyId",
          "type": "uint256"
        },
        {
          "indexed": false,
          "internalType": "bytes32",
          "name": "eventHash",
          "type": "bytes32"
        }
      ],
      "name": "keyOracleRegistered",
      "type": "event"
    },
    {
      "inputs": [
        {
          "internalType": "uint256",
          "name": "rootKeyId",
          "type": "uint256"
        },
        {
          "internalType": "uint256",
          "name": "keyId",
          "type": "uint256"
        },
        {
          "internalType": "bytes32",
          "name": "description",
          "type": "bytes32"
        }
      ],
      "name": "createKeyOracle",
      "outputs": [],
      "stateMutability": "nonpayable",
      "type": "function"
    },
    {
      "inputs": [
        {
          "internalType": "bytes32",
          "name": "",
          "type": "bytes32"
        }
      ],
      "name": "eventKeys",
      "outputs": [
        {
          "internalType": "uint256",
          "name": "",
          "type": "uint256"
        }
      ],
      "stateMutability": "view",
      "type": "function"
    },
    {
      "inputs": [
        {
          "internalType": "uint256",
          "name": "keyId",
          "type": "uint256"
        },
        {
          "internalType": "bytes32",
          "name": "eventHash",
          "type": "bytes32"
        }
      ],
      "name": "fireKeyOracleEvent",
      "outputs": [],
      "stateMutability": "nonpayable",
      "type": "function"
    },
    {
      "inputs": [
        {
          "internalType": "uint256",
          "name": "keyId",
          "type": "uint256"
        }
      ],
      "name": "getOracleKeyEvents",
      "outputs": [
        {
          "internalType": "bytes32[]",
          "name": "",
          "type": "bytes32[]"
        }
      ],
      "stateMutability": "view",
      "type": "function"
    },
    {
      "inputs": [
        {
          "internalType": "address",
          "name": "_Locksmith",
          "type": "address"
        },
        {
          "internalType": "address",
          "name": "_TrustEventLog",
          "type": "address"
        }
      ],
      "name": "initialize",
      "outputs": [],
      "stateMutability": "nonpayable",
      "type": "function"
    },
    {
      "inputs": [],
      "name": "locksmith",
      "outputs": [
        {
          "internalType": "contract Locksmith",
          "name": "",
          "type": "address"
        }
      ],
      "stateMutability": "view",
      "type": "function"
    },
    {
      "inputs": [],
      "name": "owner",
      "outputs": [
        {
          "internalType": "address",
          "name": "",
          "type": "address"
        }
      ],
      "stateMutability": "view",
      "type": "function"
    },
    {
      "inputs": [],
      "name": "proxiableUUID",
      "outputs": [
        {
          "internalType": "bytes32",
          "name": "",
          "type": "bytes32"
        }
      ],
      "stateMutability": "view",
      "type": "function"
    },
    {
      "inputs": [],
      "name": "renounceOwnership",
      "outputs": [],
      "stateMutability": "nonpayable",
      "type": "function"
    },
    {
      "inputs": [
        {
          "internalType": "address",
          "name": "newOwner",
          "type": "address"
        }
      ],
      "name": "transferOwnership",
      "outputs": [],
      "stateMutability": "nonpayable",
      "type": "function"
    },
    {
      "inputs": [],
      "name": "trustEventLog",
      "outputs": [
        {
          "internalType": "contract TrustEventLog",
          "name": "",
          "type": "address"
        }
      ],
      "stateMutability": "view",
      "type": "function"
    },
    {
      "inputs": [
        {
          "internalType": "address",
          "name": "newImplementation",
          "type": "address"
        }
      ],
      "name": "upgradeTo",
      "outputs": [],
      "stateMutability": "nonpayable",
      "type": "function"
    },
    {
      "inputs": [
        {
          "internalType": "address",
          "name": "newImplementation",
          "type": "address"
        },
        {
          "internalType": "bytes",
          "name": "data",
          "type": "bytes"
        }
      ],
      "name": "upgradeToAndCall",
      "outputs": [],
      "stateMutability": "payable",
      "type": "function"
    }
  ],
  "bytecode": "0x60a06040523073ffffffffffffffffffffffffffffffffffffffff1660809073ffffffffffffffffffffffffffffffffffffffff168152503480156200004457600080fd5b50620000556200005b60201b60201c565b62000206565b600060019054906101000a900460ff1615620000ae576040517f08c379a0000000000000000000000000000000000000000000000000000000008152600401620000a590620001a9565b60405180910390fd5b60ff801660008054906101000a900460ff1660ff161015620001205760ff6000806101000a81548160ff021916908360ff1602179055507f7f26b83ff96e1f2b6a682f133852f6798a09c465da95921460cefb384740249860ff604051620001179190620001e9565b60405180910390a15b565b600082825260208201905092915050565b7f496e697469616c697a61626c653a20636f6e747261637420697320696e69746960008201527f616c697a696e6700000000000000000000000000000000000000000000000000602082015250565b60006200019160278362000122565b91506200019e8262000133565b604082019050919050565b60006020820190508181036000830152620001c48162000182565b9050919050565b600060ff82169050919050565b620001e381620001cb565b82525050565b6000602082019050620002006000830184620001d8565b92915050565b608051612c116200023e60003960008181610315015281816103a301528181610b8201528181610c100152610cc00152612c116000f3fe6080604052600436106100c25760003560e01c80635a2fefef1161007f57806377b256411161005957806377b256411461021f5780638da5cb5b1461025c578063dcf86b0914610287578063f2fde38b146102c4576100c2565b80635a2fefef146101b45780636f0c9a1e146101df578063715018a614610208576100c2565b806313fb817e146100c75780633659cfe6146100f2578063485cc9551461011b5780634d8c4ba5146101445780634f1ef2861461016d57806352d1902d14610189575b600080fd5b3480156100d357600080fd5b506100dc6102ed565b6040516100e99190611968565b60405180910390f35b3480156100fe57600080fd5b50610119600480360381019061011491906119d5565b610313565b005b34801561012757600080fd5b50610142600480360381019061013d9190611a02565b61049b565b005b34801561015057600080fd5b5061016b60048036038101906101669190611aae565b610665565b005b61018760048036038101906101829190611c47565b610b80565b005b34801561019557600080fd5b5061019e610cbc565b6040516101ab9190611cb2565b60405180910390f35b3480156101c057600080fd5b506101c9610d75565b6040516101d69190611cee565b60405180910390f35b3480156101eb57600080fd5b5061020660048036038101906102019190611d09565b610d9b565b005b34801561021457600080fd5b5061021d610fdd565b005b34801561022b57600080fd5b5061024660048036038101906102419190611d49565b610ff1565b6040516102539190611e34565b60405180910390f35b34801561026857600080fd5b50610271611015565b60405161027e9190611e65565b60405180910390f35b34801561029357600080fd5b506102ae60048036038101906102a99190611e80565b61103f565b6040516102bb9190611ebc565b60405180910390f35b3480156102d057600080fd5b506102eb60048036038101906102e691906119d5565b611057565b005b60c960009054906101000a900473ffffffffffffffffffffffffffffffffffffffff1681565b7f000000000000000000000000000000000000000000000000000000000000000073ffffffffffffffffffffffffffffffffffffffff163073ffffffffffffffffffffffffffffffffffffffff16036103a1576040517f08c379a000000000000000000000000000000000000000000000000000000000815260040161039890611f5a565b60405180910390fd5b7f000000000000000000000000000000000000000000000000000000000000000073ffffffffffffffffffffffffffffffffffffffff166103e06110da565b73ffffffffffffffffffffffffffffffffffffffff1614610436576040517f08c379a000000000000000000000000000000000000000000000000000000000815260040161042d90611fec565b60405180910390fd5b61043f81611131565b61049881600067ffffffffffffffff81111561045e5761045d611b1c565b5b6040519080825280601f01601f1916602001820160405280156104905781602001600182028036833780820191505090505b50600061113c565b50565b60008060019054906101000a900460ff161590508080156104cc5750600160008054906101000a900460ff1660ff16105b806104f957506104db306112aa565b1580156104f85750600160008054906101000a900460ff1660ff16145b5b610538576040517f08c379a000000000000000000000000000000000000000000000000000000000815260040161052f9061207e565b60405180910390fd5b60016000806101000a81548160ff021916908360ff1602179055508015610575576001600060016101000a81548160ff0219169083151502179055505b61057d6112cd565b610585611326565b8160ca60006101000a81548173ffffffffffffffffffffffffffffffffffffffff021916908373ffffffffffffffffffffffffffffffffffffffff1602179055508260c960006101000a81548173ffffffffffffffffffffffffffffffffffffffff021916908373ffffffffffffffffffffffffffffffffffffffff16021790555080156106605760008060016101000a81548160ff0219169083151502179055507f7f26b83ff96e1f2b6a682f133852f6798a09c465da95921460cefb3847402498600160405161065791906120e6565b60405180910390a15b505050565b600060c960009054906101000a900473ffffffffffffffffffffffffffffffffffffffff1673ffffffffffffffffffffffffffffffffffffffff1663a1ca66876040518163ffffffff1660e01b8152600401602060405180830381865afa1580156106d4573d6000803e3d6000fd5b505050506040513d601f19601f820116820180604052508101906106f8919061213f565b73ffffffffffffffffffffffffffffffffffffffff1662fdd58e33866040518363ffffffff1660e01b815260040161073192919061216c565b602060405180830381865afa15801561074e573d6000803e3d6000fd5b505050506040513d601f19601f8201168201806040525081019061077291906121aa565b116107b2576040517f08c379a00000000000000000000000000000000000000000000000000000000081526004016107a990612223565b60405180910390fd5b60c960009054906101000a900473ffffffffffffffffffffffffffffffffffffffff1673ffffffffffffffffffffffffffffffffffffffff1663d2bd0fad846040518263ffffffff1660e01b815260040161080d9190611ebc565b602060405180830381865afa15801561082a573d6000803e3d6000fd5b505050506040513d601f19601f8201168201806040525081019061084e919061227b565b61088d576040517f08c379a0000000000000000000000000000000000000000000000000000000008152600401610884906122f4565b60405180910390fd5b60008060c960009054906101000a900473ffffffffffffffffffffffffffffffffffffffff1673ffffffffffffffffffffffffffffffffffffffff166388ecda52866040518263ffffffff1660e01b81526004016108eb9190611ebc565b600060405180830381865afa158015610908573d6000803e3d6000fd5b505050506040513d6000823e3d601f19601f8201168201806040525081019061093191906123f1565b5050925050915060008060c960009054906101000a900473ffffffffffffffffffffffffffffffffffffffff1673ffffffffffffffffffffffffffffffffffffffff166388ecda52876040518263ffffffff1660e01b81526004016109969190611ebc565b600060405180830381865afa1580156109b3573d6000803e3d6000fd5b505050506040513d6000823e3d601f19601f820116820180604052508101906109dc91906123f1565b505092505091508380156109ed5750815b80156109f857508083145b610a37576040517f08c379a0000000000000000000000000000000000000000000000000000000008152600401610a2e906124d4565b60405180910390fd5b600030888888604051602001610a5094939291906124f4565b60405160208183030381529060405280519060200120905060ca60009054906101000a900473ffffffffffffffffffffffffffffffffffffffff1673ffffffffffffffffffffffffffffffffffffffff16638942e5858583896040518463ffffffff1660e01b8152600401610ac793929190612539565b600060405180830381600087803b158015610ae157600080fd5b505af1158015610af5573d6000803e3d6000fd5b50505050610b1e8160cb60008a815260200190815260200160002061137790919063ffffffff16565b508660cc6000838152602001908152602001600020819055507f45af2a3f303ff76502a947bf736675b1a74a1661c9e846792eeaae118b80e89033858a8a85604051610b6e959493929190612570565b60405180910390a15050505050505050565b7f000000000000000000000000000000000000000000000000000000000000000073ffffffffffffffffffffffffffffffffffffffff163073ffffffffffffffffffffffffffffffffffffffff1603610c0e576040517f08c379a0000000000000000000000000000000000000000000000000000000008152600401610c0590611f5a565b60405180910390fd5b7f000000000000000000000000000000000000000000000000000000000000000073ffffffffffffffffffffffffffffffffffffffff16610c4d6110da565b73ffffffffffffffffffffffffffffffffffffffff1614610ca3576040517f08c379a0000000000000000000000000000000000000000000000000000000008152600401610c9a90611fec565b60405180910390fd5b610cac82611131565b610cb88282600161113c565b5050565b60007f000000000000000000000000000000000000000000000000000000000000000073ffffffffffffffffffffffffffffffffffffffff163073ffffffffffffffffffffffffffffffffffffffff1614610d4c576040517f08c379a0000000000000000000000000000000000000000000000000000000008152600401610d4390612635565b60405180910390fd5b7f360894a13ba1a3210667c828492db98dca3e2076cc3735a920a3ca505d382bbc60001b905090565b60ca60009054906101000a900473ffffffffffffffffffffffffffffffffffffffff1681565b600060c960009054906101000a900473ffffffffffffffffffffffffffffffffffffffff1673ffffffffffffffffffffffffffffffffffffffff1663a1ca66876040518163ffffffff1660e01b8152600401602060405180830381865afa158015610e0a573d6000803e3d6000fd5b505050506040513d601f19601f82011682018060405250810190610e2e919061213f565b73ffffffffffffffffffffffffffffffffffffffff1662fdd58e33856040518363ffffffff1660e01b8152600401610e6792919061216c565b602060405180830381865afa158015610e84573d6000803e3d6000fd5b505050506040513d601f19601f82011682018060405250810190610ea891906121aa565b11610ee8576040517f08c379a0000000000000000000000000000000000000000000000000000000008152600401610edf90612223565b60405180910390fd5b610f0d8160cb600085815260200190815260200160002061138e90919063ffffffff16565b610f4c576040517f08c379a0000000000000000000000000000000000000000000000000000000008152600401610f43906126a1565b60405180910390fd5b60ca60009054906101000a900473ffffffffffffffffffffffffffffffffffffffff1673ffffffffffffffffffffffffffffffffffffffff1663b5aac364826040518263ffffffff1660e01b8152600401610fa79190611cb2565b600060405180830381600087803b158015610fc157600080fd5b505af1158015610fd5573d6000803e3d6000fd5b505050505050565b610fe56113a5565b610fef6000611423565b565b606061100e60cb60008481526020019081526020016000206114e9565b9050919050565b6000603360009054906101000a900473ffffffffffffffffffffffffffffffffffffffff16905090565b60cc6020528060005260406000206000915090505481565b61105f6113a5565b600073ffffffffffffffffffffffffffffffffffffffff168173ffffffffffffffffffffffffffffffffffffffff16036110ce576040517f08c379a00000000000000000000000000000000000000000000000000000000081526004016110c590612733565b60405180910390fd5b6110d781611423565b50565b60006111087f360894a13ba1a3210667c828492db98dca3e2076cc3735a920a3ca505d382bbc60001b6114fe565b60000160009054906101000a900473ffffffffffffffffffffffffffffffffffffffff16905090565b6111396113a5565b50565b6111687f4910fdfa16fed3260ed0e7147f7cc6da11a60208b5b9406d12a635614ffd914360001b611508565b60000160009054906101000a900460ff161561118c5761118783611512565b6112a5565b8273ffffffffffffffffffffffffffffffffffffffff166352d1902d6040518163ffffffff1660e01b8152600401602060405180830381865afa9250505080156111f457506040513d601f19601f820116820180604052508101906111f19190612753565b60015b611233576040517f08c379a000000000000000000000000000000000000000000000000000000000815260040161122a906127f2565b60405180910390fd5b7f360894a13ba1a3210667c828492db98dca3e2076cc3735a920a3ca505d382bbc60001b8114611298576040517f08c379a000000000000000000000000000000000000000000000000000000000815260040161128f90612884565b60405180910390fd5b506112a48383836115cb565b5b505050565b6000808273ffffffffffffffffffffffffffffffffffffffff163b119050919050565b600060019054906101000a900460ff1661131c576040517f08c379a000000000000000000000000000000000000000000000000000000000815260040161131390612916565b60405180910390fd5b6113246115f7565b565b600060019054906101000a900460ff16611375576040517f08c379a000000000000000000000000000000000000000000000000000000000815260040161136c90612916565b60405180910390fd5b565b60006113868360000183611658565b905092915050565b600061139d83600001836116c8565b905092915050565b6113ad6116eb565b73ffffffffffffffffffffffffffffffffffffffff166113cb611015565b73ffffffffffffffffffffffffffffffffffffffff1614611421576040517f08c379a000000000000000000000000000000000000000000000000000000000815260040161141890612982565b60405180910390fd5b565b6000603360009054906101000a900473ffffffffffffffffffffffffffffffffffffffff16905081603360006101000a81548173ffffffffffffffffffffffffffffffffffffffff021916908373ffffffffffffffffffffffffffffffffffffffff1602179055508173ffffffffffffffffffffffffffffffffffffffff168173ffffffffffffffffffffffffffffffffffffffff167f8be0079c531659141344cd1fd0a4f28419497f9722a3daafe3b4186f6b6457e060405160405180910390a35050565b60606114f7826000016116f3565b9050919050565b6000819050919050565b6000819050919050565b61151b816112aa565b61155a576040517f08c379a000000000000000000000000000000000000000000000000000000000815260040161155190612a14565b60405180910390fd5b806115877f360894a13ba1a3210667c828492db98dca3e2076cc3735a920a3ca505d382bbc60001b6114fe565b60000160006101000a81548173ffffffffffffffffffffffffffffffffffffffff021916908373ffffffffffffffffffffffffffffffffffffffff16021790555050565b6115d48361174f565b6000825111806115e15750805b156115f2576115f0838361179e565b505b505050565b600060019054906101000a900460ff16611646576040517f08c379a000000000000000000000000000000000000000000000000000000000815260040161163d90612916565b60405180910390fd5b6116566116516116eb565b611423565b565b600061166483836116c8565b6116bd5782600001829080600181540180825580915050600190039060005260206000200160009091909190915055826000018054905083600101600084815260200190815260200160002081905550600190506116c2565b600090505b92915050565b600080836001016000848152602001908152602001600020541415905092915050565b600033905090565b60608160000180548060200260200160405190810160405280929190818152602001828054801561174357602002820191906000526020600020905b81548152602001906001019080831161172f575b50505050509050919050565b61175881611512565b8073ffffffffffffffffffffffffffffffffffffffff167fbc7cd75a20ee27fd9adebab32041f755214dbc6bffa90cc0225b39da2e5c2d3b60405160405180910390a250565b60606117a9836112aa565b6117e8576040517f08c379a00000000000000000000000000000000000000000000000000000000081526004016117df90612aa6565b60405180910390fd5b6000808473ffffffffffffffffffffffffffffffffffffffff16846040516118109190612b37565b600060405180830381855af49150503d806000811461184b576040519150601f19603f3d011682016040523d82523d6000602084013e611850565b606091505b50915091506118788282604051806060016040528060278152602001612bb560279139611882565b9250505092915050565b60608315611892578290506118e2565b6000835111156118a55782518084602001fd5b816040517f08c379a00000000000000000000000000000000000000000000000000000000081526004016118d99190612b92565b60405180910390fd5b9392505050565b600073ffffffffffffffffffffffffffffffffffffffff82169050919050565b6000819050919050565b600061192e611929611924846118e9565b611909565b6118e9565b9050919050565b600061194082611913565b9050919050565b600061195282611935565b9050919050565b61196281611947565b82525050565b600060208201905061197d6000830184611959565b92915050565b6000604051905090565b600080fd5b600080fd5b60006119a2826118e9565b9050919050565b6119b281611997565b81146119bd57600080fd5b50565b6000813590506119cf816119a9565b92915050565b6000602082840312156119eb576119ea61198d565b5b60006119f9848285016119c0565b91505092915050565b60008060408385031215611a1957611a1861198d565b5b6000611a27858286016119c0565b9250506020611a38858286016119c0565b9150509250929050565b6000819050919050565b611a5581611a42565b8114611a6057600080fd5b50565b600081359050611a7281611a4c565b92915050565b6000819050919050565b611a8b81611a78565b8114611a9657600080fd5b50565b600081359050611aa881611a82565b92915050565b600080600060608486031215611ac757611ac661198d565b5b6000611ad586828701611a63565b9350506020611ae686828701611a63565b9250506040611af786828701611a99565b9150509250925092565b600080fd5b600080fd5b6000601f19601f8301169050919050565b7f4e487b7100000000000000000000000000000000000000000000000000000000600052604160045260246000fd5b611b5482611b0b565b810181811067ffffffffffffffff82111715611b7357611b72611b1c565b5b80604052505050565b6000611b86611983565b9050611b928282611b4b565b919050565b600067ffffffffffffffff821115611bb257611bb1611b1c565b5b611bbb82611b0b565b9050602081019050919050565b82818337600083830152505050565b6000611bea611be584611b97565b611b7c565b905082815260208101848484011115611c0657611c05611b06565b5b611c11848285611bc8565b509392505050565b600082601f830112611c2e57611c2d611b01565b5b8135611c3e848260208601611bd7565b91505092915050565b60008060408385031215611c5e57611c5d61198d565b5b6000611c6c858286016119c0565b925050602083013567ffffffffffffffff811115611c8d57611c8c611992565b5b611c9985828601611c19565b9150509250929050565b611cac81611a78565b82525050565b6000602082019050611cc76000830184611ca3565b92915050565b6000611cd882611935565b9050919050565b611ce881611ccd565b82525050565b6000602082019050611d036000830184611cdf565b92915050565b60008060408385031215611d2057611d1f61198d565b5b6000611d2e85828601611a63565b9250506020611d3f85828601611a99565b9150509250929050565b600060208284031215611d5f57611d5e61198d565b5b6000611d6d84828501611a63565b91505092915050565b600081519050919050565b600082825260208201905092915050565b6000819050602082019050919050565b611dab81611a78565b82525050565b6000611dbd8383611da2565b60208301905092915050565b6000602082019050919050565b6000611de182611d76565b611deb8185611d81565b9350611df683611d92565b8060005b83811015611e27578151611e0e8882611db1565b9750611e1983611dc9565b925050600181019050611dfa565b5085935050505092915050565b60006020820190508181036000830152611e4e8184611dd6565b905092915050565b611e5f81611997565b82525050565b6000602082019050611e7a6000830184611e56565b92915050565b600060208284031215611e9657611e9561198d565b5b6000611ea484828501611a99565b91505092915050565b611eb681611a42565b82525050565b6000602082019050611ed16000830184611ead565b92915050565b600082825260208201905092915050565b7f46756e6374696f6e206d7573742062652063616c6c6564207468726f7567682060008201527f64656c656761746563616c6c0000000000000000000000000000000000000000602082015250565b6000611f44602c83611ed7565b9150611f4f82611ee8565b604082019050919050565b60006020820190508181036000830152611f7381611f37565b9050919050565b7f46756e6374696f6e206d7573742062652063616c6c6564207468726f7567682060008201527f6163746976652070726f78790000000000000000000000000000000000000000602082015250565b6000611fd6602c83611ed7565b9150611fe182611f7a565b604082019050919050565b6000602082019050818103600083015261200581611fc9565b9050919050565b7f496e697469616c697a61626c653a20636f6e747261637420697320616c72656160008201527f647920696e697469616c697a6564000000000000000000000000000000000000602082015250565b6000612068602e83611ed7565b91506120738261200c565b604082019050919050565b600060208201905081810360008301526120978161205b565b9050919050565b6000819050919050565b600060ff82169050919050565b60006120d06120cb6120c68461209e565b611909565b6120a8565b9050919050565b6120e0816120b5565b82525050565b60006020820190506120fb60008301846120d7565b92915050565b600061210c82611997565b9050919050565b61211c81612101565b811461212757600080fd5b50565b60008151905061213981612113565b92915050565b6000602082840312156121555761215461198d565b5b60006121638482850161212a565b91505092915050565b60006040820190506121816000830185611e56565b61218e6020830184611ead565b9392505050565b6000815190506121a481611a4c565b92915050565b6000602082840312156121c0576121bf61198d565b5b60006121ce84828501612195565b91505092915050565b7f4b45595f4e4f545f48454c440000000000000000000000000000000000000000600082015250565b600061220d600c83611ed7565b9150612218826121d7565b602082019050919050565b6000602082019050818103600083015261223c81612200565b9050919050565b60008115159050919050565b61225881612243565b811461226357600080fd5b50565b6000815190506122758161224f565b92915050565b6000602082840312156122915761229061198d565b5b600061229f84828501612266565b91505092915050565b7f4b45595f4e4f545f524f4f540000000000000000000000000000000000000000600082015250565b60006122de600c83611ed7565b91506122e9826122a8565b602082019050919050565b6000602082019050818103600083015261230d816122d1565b9050919050565b60008151905061232381611a82565b92915050565b600067ffffffffffffffff82111561234457612343611b1c565b5b602082029050602081019050919050565b600080fd5b600061236d61236884612329565b611b7c565b905080838252602082019050602084028301858111156123905761238f612355565b5b835b818110156123b957806123a58882612195565b845260208401935050602081019050612392565b5050509392505050565b600082601f8301126123d8576123d7611b01565b5b81516123e884826020860161235a565b91505092915050565b600080600080600060a0868803121561240d5761240c61198d565b5b600061241b88828901612266565b955050602061242c88828901612314565b945050604061243d88828901612195565b935050606061244e88828901612266565b925050608086015167ffffffffffffffff81111561246f5761246e611992565b5b61247b888289016123c3565b9150509295509295909350565b7f494e56414c49445f4f5241434c455f4b45590000000000000000000000000000600082015250565b60006124be601283611ed7565b91506124c982612488565b602082019050919050565b600060208201905081810360008301526124ed816124b1565b9050919050565b60006080820190506125096000830187611e56565b6125166020830186611ead565b6125236040830185611ead565b6125306060830184611ca3565b95945050505050565b600060608201905061254e6000830186611ead565b61255b6020830185611ca3565b6125686040830184611ca3565b949350505050565b600060a0820190506125856000830188611e56565b6125926020830187611ead565b61259f6040830186611ead565b6125ac6060830185611ead565b6125b96080830184611ca3565b9695505050505050565b7f555550535570677261646561626c653a206d757374206e6f742062652063616c60008201527f6c6564207468726f7567682064656c656761746563616c6c0000000000000000602082015250565b600061261f603883611ed7565b915061262a826125c3565b604082019050919050565b6000602082019050818103600083015261264e81612612565b9050919050565b7f4d495353494e475f4b45595f4556454e54000000000000000000000000000000600082015250565b600061268b601183611ed7565b915061269682612655565b602082019050919050565b600060208201905081810360008301526126ba8161267e565b9050919050565b7f4f776e61626c653a206e6577206f776e657220697320746865207a65726f206160008201527f6464726573730000000000000000000000000000000000000000000000000000602082015250565b600061271d602683611ed7565b9150612728826126c1565b604082019050919050565b6000602082019050818103600083015261274c81612710565b9050919050565b6000602082840312156127695761276861198d565b5b600061277784828501612314565b91505092915050565b7f45524331393637557067726164653a206e657720696d706c656d656e7461746960008201527f6f6e206973206e6f742055555053000000000000000000000000000000000000602082015250565b60006127dc602e83611ed7565b91506127e782612780565b604082019050919050565b6000602082019050818103600083015261280b816127cf565b9050919050565b7f45524331393637557067726164653a20756e737570706f727465642070726f7860008201527f6961626c65555549440000000000000000000000000000000000000000000000602082015250565b600061286e602983611ed7565b915061287982612812565b604082019050919050565b6000602082019050818103600083015261289d81612861565b9050919050565b7f496e697469616c697a61626c653a20636f6e7472616374206973206e6f74206960008201527f6e697469616c697a696e67000000000000000000000000000000000000000000602082015250565b6000612900602b83611ed7565b915061290b826128a4565b604082019050919050565b6000602082019050818103600083015261292f816128f3565b9050919050565b7f4f776e61626c653a2063616c6c6572206973206e6f7420746865206f776e6572600082015250565b600061296c602083611ed7565b915061297782612936565b602082019050919050565b6000602082019050818103600083015261299b8161295f565b9050919050565b7f455243313936373a206e657720696d706c656d656e746174696f6e206973206e60008201527f6f74206120636f6e747261637400000000000000000000000000000000000000602082015250565b60006129fe602d83611ed7565b9150612a09826129a2565b604082019050919050565b60006020820190508181036000830152612a2d816129f1565b9050919050565b7f416464726573733a2064656c65676174652063616c6c20746f206e6f6e2d636f60008201527f6e74726163740000000000000000000000000000000000000000000000000000602082015250565b6000612a90602683611ed7565b9150612a9b82612a34565b604082019050919050565b60006020820190508181036000830152612abf81612a83565b9050919050565b600081519050919050565b600081905092915050565b60005b83811015612afa578082015181840152602081019050612adf565b60008484015250505050565b6000612b1182612ac6565b612b1b8185612ad1565b9350612b2b818560208601612adc565b80840191505092915050565b6000612b438284612b06565b915081905092915050565b600081519050919050565b6000612b6482612b4e565b612b6e8185611ed7565b9350612b7e818560208601612adc565b612b8781611b0b565b840191505092915050565b60006020820190508181036000830152612bac8184612b59565b90509291505056fe416464726573733a206c6f772d6c6576656c2064656c65676174652063616c6c206661696c6564a2646970667358221220d1f5ea4d8d9e056d44136b3e2ce95f16da55520028d95bdf4193c9c0232e7fb764736f6c63430008100033",
  "linkReferences": {},
  "deployedLinkReferences": {}
}