{
  "_format": "hh-sol-artifact-1",
  "contractName": "KeyOracle",
  "sourceName": "contracts/dispatchers/KeyOracle.sol",
  "abi": [
    {
      "inputs": [],
      "stateMutability": "nonpayable",
      "type": "constructor"
    },
    {
      "anonymous": false,
      "inputs": [
        {
          "indexed": false,
          "internalType": "address",
          "name": "previousAdmin",
          "type": "address"
        },
        {
          "indexed": false,
          "internalType": "address",
          "name": "newAdmin",
          "type": "address"
        }
      ],
      "name": "AdminChanged",
      "type": "event"
    },
    {
      "anonymous": false,
      "inputs": [
        {
          "indexed": true,
          "internalType": "address",
          "name": "beacon",
          "type": "address"
        }
      ],
      "name": "BeaconUpgraded",
      "type": "event"
    },
    {
      "anonymous": false,
      "inputs": [
        {
          "indexed": false,
          "internalType": "uint8",
          "name": "version",
          "type": "uint8"
        }
      ],
      "name": "Initialized",
      "type": "event"
    },
    {
      "anonymous": false,
      "inputs": [
        {
          "indexed": true,
          "internalType": "address",
          "name": "previousOwner",
          "type": "address"
        },
        {
          "indexed": true,
          "internalType": "address",
          "name": "newOwner",
          "type": "address"
        }
      ],
      "name": "OwnershipTransferred",
      "type": "event"
    },
    {
      "anonymous": false,
      "inputs": [
        {
          "indexed": true,
          "internalType": "address",
          "name": "implementation",
          "type": "address"
        }
      ],
      "name": "Upgraded",
      "type": "event"
    },
    {
      "anonymous": false,
      "inputs": [
        {
          "indexed": false,
          "internalType": "address",
          "name": "operator",
          "type": "address"
        },
        {
          "indexed": false,
          "internalType": "uint256",
          "name": "trustId",
          "type": "uint256"
        },
        {
          "indexed": false,
          "internalType": "uint256",
          "name": "rootKeyId",
          "type": "uint256"
        },
        {
          "indexed": false,
          "internalType": "uint256",
          "name": "keyId",
          "type": "uint256"
        },
        {
          "indexed": false,
          "internalType": "bytes32",
          "name": "eventHash",
          "type": "bytes32"
        }
      ],
      "name": "keyOracleRegistered",
      "type": "event"
    },
    {
      "inputs": [
        {
          "internalType": "uint256",
          "name": "rootKeyId",
          "type": "uint256"
        },
        {
          "internalType": "uint256",
          "name": "keyId",
          "type": "uint256"
        },
        {
          "internalType": "bytes32",
          "name": "description",
          "type": "bytes32"
        }
      ],
      "name": "createKeyOracle",
      "outputs": [],
      "stateMutability": "nonpayable",
      "type": "function"
    },
    {
      "inputs": [
        {
          "internalType": "bytes32",
          "name": "",
          "type": "bytes32"
        }
      ],
      "name": "eventKeys",
      "outputs": [
        {
          "internalType": "uint256",
          "name": "",
          "type": "uint256"
        }
      ],
      "stateMutability": "view",
      "type": "function"
    },
    {
      "inputs": [
        {
          "internalType": "uint256",
          "name": "keyId",
          "type": "uint256"
        },
        {
          "internalType": "bytes32",
          "name": "eventHash",
          "type": "bytes32"
        }
      ],
      "name": "fireKeyOracleEvent",
      "outputs": [],
      "stateMutability": "nonpayable",
      "type": "function"
    },
    {
      "inputs": [
        {
          "internalType": "uint256",
          "name": "keyId",
          "type": "uint256"
        }
      ],
      "name": "getOracleKeyEvents",
      "outputs": [
        {
          "internalType": "bytes32[]",
          "name": "",
          "type": "bytes32[]"
        }
      ],
      "stateMutability": "view",
      "type": "function"
    },
    {
      "inputs": [
        {
          "internalType": "address",
          "name": "_Locksmith",
          "type": "address"
        },
        {
          "internalType": "address",
          "name": "_TrustEventLog",
          "type": "address"
        }
      ],
      "name": "initialize",
      "outputs": [],
      "stateMutability": "nonpayable",
      "type": "function"
    },
    {
      "inputs": [],
      "name": "locksmith",
      "outputs": [
        {
          "internalType": "contract ILocksmith",
          "name": "",
          "type": "address"
        }
      ],
      "stateMutability": "view",
      "type": "function"
    },
    {
      "inputs": [],
      "name": "owner",
      "outputs": [
        {
          "internalType": "address",
          "name": "",
          "type": "address"
        }
      ],
      "stateMutability": "view",
      "type": "function"
    },
    {
      "inputs": [],
      "name": "proxiableUUID",
      "outputs": [
        {
          "internalType": "bytes32",
          "name": "",
          "type": "bytes32"
        }
      ],
      "stateMutability": "view",
      "type": "function"
    },
    {
      "inputs": [],
      "name": "renounceOwnership",
      "outputs": [],
      "stateMutability": "nonpayable",
      "type": "function"
    },
    {
      "inputs": [
        {
          "internalType": "address",
          "name": "newOwner",
          "type": "address"
        }
      ],
      "name": "transferOwnership",
      "outputs": [],
      "stateMutability": "nonpayable",
      "type": "function"
    },
    {
      "inputs": [],
      "name": "trustEventLog",
      "outputs": [
        {
          "internalType": "contract ITrustEventLog",
          "name": "",
          "type": "address"
        }
      ],
      "stateMutability": "view",
      "type": "function"
    },
    {
      "inputs": [
        {
          "internalType": "address",
          "name": "newImplementation",
          "type": "address"
        }
      ],
      "name": "upgradeTo",
      "outputs": [],
      "stateMutability": "nonpayable",
      "type": "function"
    },
    {
      "inputs": [
        {
          "internalType": "address",
          "name": "newImplementation",
          "type": "address"
        },
        {
          "internalType": "bytes",
          "name": "data",
          "type": "bytes"
        }
      ],
      "name": "upgradeToAndCall",
      "outputs": [],
      "stateMutability": "payable",
      "type": "function"
    }
  ],
  "bytecode": "0x60a06040523060805234801561001457600080fd5b5061001d610022565b6100e2565b600054610100900460ff161561008e5760405162461bcd60e51b815260206004820152602760248201527f496e697469616c697a61626c653a20636f6e747261637420697320696e697469604482015266616c697a696e6760c81b606482015260840160405180910390fd5b60005460ff90811610156100e0576000805460ff191660ff9081179091556040519081527f7f26b83ff96e1f2b6a682f133852f6798a09c465da95921460cefb38474024989060200160405180910390a15b565b6080516117eb61011960003960008181610293015281816102dc015281816109170152818161095701526109ea01526117eb6000f3fe6080604052600436106100c25760003560e01c80635a2fefef1161007f57806377b256411161005957806377b25641146101f15780638da5cb5b1461021e578063dcf86b091461023c578063f2fde38b1461026957600080fd5b80635a2fefef1461019c5780636f0c9a1e146101bc578063715018a6146101dc57600080fd5b806313fb817e146100c75780633659cfe614610104578063485cc955146101265780634d8c4ba5146101465780634f1ef2861461016657806352d1902d14610179575b600080fd5b3480156100d357600080fd5b5060c9546100e7906001600160a01b031681565b6040516001600160a01b0390911681526020015b60405180910390f35b34801561011057600080fd5b5061012461011f3660046112e5565b610289565b005b34801561013257600080fd5b50610124610141366004611302565b610371565b34801561015257600080fd5b5061012461016136600461133b565b6104bc565b6101246101743660046113ae565b61090d565b34801561018557600080fd5b5061018e6109dd565b6040519081526020016100fb565b3480156101a857600080fd5b5060ca546100e7906001600160a01b031681565b3480156101c857600080fd5b506101246101d7366004611456565b610a90565b3480156101e857600080fd5b50610124610c6c565b3480156101fd57600080fd5b5061021161020c366004611478565b610c80565b6040516100fb9190611491565b34801561022a57600080fd5b506033546001600160a01b03166100e7565b34801561024857600080fd5b5061018e610257366004611478565b60cc6020526000908152604090205481565b34801561027557600080fd5b506101246102843660046112e5565b610ca0565b6001600160a01b037f00000000000000000000000000000000000000000000000000000000000000001630036102da5760405162461bcd60e51b81526004016102d1906114d5565b60405180910390fd5b7f00000000000000000000000000000000000000000000000000000000000000006001600160a01b031661032360008051602061176f833981519152546001600160a01b031690565b6001600160a01b0316146103495760405162461bcd60e51b81526004016102d190611521565b61035281610d16565b6040805160008082526020820190925261036e91839190610d1e565b50565b600054610100900460ff16158080156103915750600054600160ff909116105b806103ab5750303b1580156103ab575060005460ff166001145b61040e5760405162461bcd60e51b815260206004820152602e60248201527f496e697469616c697a61626c653a20636f6e747261637420697320616c72656160448201526d191e481a5b9a5d1a585b1a5e995960921b60648201526084016102d1565b6000805460ff191660011790558015610431576000805461ff0019166101001790555b610439610e89565b610441610eb8565b60ca80546001600160a01b038085166001600160a01b03199283161790925560c980549286169290911691909117905580156104b7576000805461ff0019169055604051600181527f7f26b83ff96e1f2b6a682f133852f6798a09c465da95921460cefb38474024989060200160405180910390a15b505050565b60c9546040805163b83ac19f60e01b815290516000926001600160a01b03169163b83ac19f9160048083019260209291908290030181865afa158015610506573d6000803e3d6000fd5b505050506040513d601f19601f8201168201806040525081019061052a919061156d565b604051630f5d2cd560e11b815233600482015260248101869052600060448201526001600160a01b039190911690631eba59aa90606401602060405180830381865afa15801561057e573d6000803e3d6000fd5b505050506040513d601f19601f820116820180604052508101906105a2919061158a565b116105de5760405162461bcd60e51b815260206004820152600c60248201526b12d15657d393d517d211531160a21b60448201526064016102d1565b60c95460405163d2bd0fad60e01b8152600481018590526001600160a01b039091169063d2bd0fad90602401602060405180830381865afa158015610627573d6000803e3d6000fd5b505050506040513d601f19601f8201168201806040525081019061064b91906115b8565b6106865760405162461bcd60e51b815260206004820152600c60248201526b12d15657d393d517d493d3d560a21b60448201526064016102d1565b60c9546040516344766d2960e11b81526004810185905260009182916001600160a01b03909116906388ecda5290602401600060405180830381865afa1580156106d4573d6000803e3d6000fd5b505050506040513d6000823e601f3d908101601f191682016040526106fc91908101906115d3565b505060c9546040516344766d2960e11b8152600481018990529395509093506000928392506001600160a01b03909116906388ecda5290602401600060405180830381865afa158015610753573d6000803e3d6000fd5b505050506040513d6000823e601f3d908101601f1916820160405261077b91908101906115d3565b5050925050915083801561078c5750815b801561079757508083145b6107d85760405162461bcd60e51b8152602060048201526012602482015271494e56414c49445f4f5241434c455f4b455960701b60448201526064016102d1565b60ca546040805160208082018b90528183018a905260608083018a90528351808403909101815260808301938490528051910120638942e58560e01b9092526084810186905260a481019190915260c481018790526000916001600160a01b031690638942e5859060e4016020604051808303816000875af1158015610862573d6000803e3d6000fd5b505050506040513d601f19601f82011682018060405250810190610886919061158a565b600088815260cb602052604090209091506108a19082610edf565b50600081815260cc6020908152604091829020899055815133815290810186905290810189905260608101889052608081018290527f45af2a3f303ff76502a947bf736675b1a74a1661c9e846792eeaae118b80e8909060a00160405180910390a15050505050505050565b6001600160a01b037f00000000000000000000000000000000000000000000000000000000000000001630036109555760405162461bcd60e51b81526004016102d1906114d5565b7f00000000000000000000000000000000000000000000000000000000000000006001600160a01b031661099e60008051602061176f833981519152546001600160a01b031690565b6001600160a01b0316146109c45760405162461bcd60e51b81526004016102d190611521565b6109cd82610d16565b6109d982826001610d1e565b5050565b6000306001600160a01b037f00000000000000000000000000000000000000000000000000000000000000001614610a7d5760405162461bcd60e51b815260206004820152603860248201527f555550535570677261646561626c653a206d757374206e6f742062652063616c60448201527f6c6564207468726f7567682064656c656761746563616c6c000000000000000060648201526084016102d1565b5060008051602061176f83398151915290565b60c9546040805163b83ac19f60e01b815290516000926001600160a01b03169163b83ac19f9160048083019260209291908290030181865afa158015610ada573d6000803e3d6000fd5b505050506040513d601f19601f82011682018060405250810190610afe919061156d565b604051630f5d2cd560e11b815233600482015260248101859052600060448201526001600160a01b039190911690631eba59aa90606401602060405180830381865afa158015610b52573d6000803e3d6000fd5b505050506040513d601f19601f82011682018060405250810190610b76919061158a565b11610bb25760405162461bcd60e51b815260206004820152600c60248201526b12d15657d393d517d211531160a21b60448201526064016102d1565b600082815260cb60205260409020610bca9082610ef2565b610c0a5760405162461bcd60e51b8152602060048201526011602482015270135254d4d25391d7d2d15657d155915395607a1b60448201526064016102d1565b60ca54604051632d6ab0d960e21b8152600481018390526001600160a01b039091169063b5aac36490602401600060405180830381600087803b158015610c5057600080fd5b505af1158015610c64573d6000803e3d6000fd5b505050505050565b610c74610f0a565b610c7e6000610f64565b565b600081815260cb60205260409020606090610c9a90610fb6565b92915050565b610ca8610f0a565b6001600160a01b038116610d0d5760405162461bcd60e51b815260206004820152602660248201527f4f776e61626c653a206e6577206f776e657220697320746865207a65726f206160448201526564647265737360d01b60648201526084016102d1565b61036e81610f64565b61036e610f0a565b7f4910fdfa16fed3260ed0e7147f7cc6da11a60208b5b9406d12a635614ffd91435460ff1615610d51576104b783610fc1565b826001600160a01b03166352d1902d6040518163ffffffff1660e01b8152600401602060405180830381865afa925050508015610dab575060408051601f3d908101601f19168201909252610da89181019061158a565b60015b610e0e5760405162461bcd60e51b815260206004820152602e60248201527f45524331393637557067726164653a206e657720696d706c656d656e7461746960448201526d6f6e206973206e6f74205555505360901b60648201526084016102d1565b60008051602061176f8339815191528114610e7d5760405162461bcd60e51b815260206004820152602960248201527f45524331393637557067726164653a20756e737570706f727465642070726f786044820152681a58589b195555525160ba1b60648201526084016102d1565b506104b783838361105d565b600054610100900460ff16610eb05760405162461bcd60e51b81526004016102d1906116b0565b610c7e611088565b600054610100900460ff16610c7e5760405162461bcd60e51b81526004016102d1906116b0565b6000610eeb83836110b8565b9392505050565b60008181526001830160205260408120541515610eeb565b6033546001600160a01b03163314610c7e5760405162461bcd60e51b815260206004820181905260248201527f4f776e61626c653a2063616c6c6572206973206e6f7420746865206f776e657260448201526064016102d1565b603380546001600160a01b038381166001600160a01b0319831681179093556040519116919082907f8be0079c531659141344cd1fd0a4f28419497f9722a3daafe3b4186f6b6457e090600090a35050565b6060610c9a82611107565b6001600160a01b0381163b61102e5760405162461bcd60e51b815260206004820152602d60248201527f455243313936373a206e657720696d706c656d656e746174696f6e206973206e60448201526c1bdd08184818dbdb9d1c9858dd609a1b60648201526084016102d1565b60008051602061176f83398151915280546001600160a01b0319166001600160a01b0392909216919091179055565b61106683611163565b6000825111806110735750805b156104b75761108283836111a3565b50505050565b600054610100900460ff166110af5760405162461bcd60e51b81526004016102d1906116b0565b610c7e33610f64565b60008181526001830160205260408120546110ff57508154600181810184556000848152602080822090930184905584548482528286019093526040902091909155610c9a565b506000610c9a565b60608160000180548060200260200160405190810160405280929190818152602001828054801561115757602002820191906000526020600020905b815481526020019060010190808311611143575b50505050509050919050565b61116c81610fc1565b6040516001600160a01b038216907fbc7cd75a20ee27fd9adebab32041f755214dbc6bffa90cc0225b39da2e5c2d3b90600090a250565b60606001600160a01b0383163b61120b5760405162461bcd60e51b815260206004820152602660248201527f416464726573733a2064656c65676174652063616c6c20746f206e6f6e2d636f6044820152651b9d1c9858dd60d21b60648201526084016102d1565b600080846001600160a01b031684604051611226919061171f565b600060405180830381855af49150503d8060008114611261576040519150601f19603f3d011682016040523d82523d6000602084013e611266565b606091505b509150915061128e828260405180606001604052806027815260200161178f60279139611297565b95945050505050565b606083156112a6575081610eeb565b8251156112b65782518084602001fd5b8160405162461bcd60e51b81526004016102d1919061173b565b6001600160a01b038116811461036e57600080fd5b6000602082840312156112f757600080fd5b8135610eeb816112d0565b6000806040838503121561131557600080fd5b8235611320816112d0565b91506020830135611330816112d0565b809150509250929050565b60008060006060848603121561135057600080fd5b505081359360208301359350604090920135919050565b634e487b7160e01b600052604160045260246000fd5b604051601f8201601f1916810167ffffffffffffffff811182821017156113a6576113a6611367565b604052919050565b600080604083850312156113c157600080fd5b82356113cc816112d0565b915060208381013567ffffffffffffffff808211156113ea57600080fd5b818601915086601f8301126113fe57600080fd5b81358181111561141057611410611367565b611422601f8201601f1916850161137d565b9150808252878482850101111561143857600080fd5b80848401858401376000848284010152508093505050509250929050565b6000806040838503121561146957600080fd5b50508035926020909101359150565b60006020828403121561148a57600080fd5b5035919050565b6020808252825182820181905260009190848201906040850190845b818110156114c9578351835292840192918401916001016114ad565b50909695505050505050565b6020808252602c908201527f46756e6374696f6e206d7573742062652063616c6c6564207468726f7567682060408201526b19195b1959d85d1958d85b1b60a21b606082015260800190565b6020808252602c908201527f46756e6374696f6e206d7573742062652063616c6c6564207468726f7567682060408201526b6163746976652070726f787960a01b606082015260800190565b60006020828403121561157f57600080fd5b8151610eeb816112d0565b60006020828403121561159c57600080fd5b5051919050565b805180151581146115b357600080fd5b919050565b6000602082840312156115ca57600080fd5b610eeb826115a3565b600080600080600060a086880312156115eb57600080fd5b6115f4866115a3565b9450602080870151945060408701519350611611606088016115a3565b9250608087015167ffffffffffffffff8082111561162e57600080fd5b818901915089601f83011261164257600080fd5b81518181111561165457611654611367565b8060051b915061166584830161137d565b818152918301840191848101908c84111561167f57600080fd5b938501935b8385101561169d57845182529385019390850190611684565b8096505050505050509295509295909350565b6020808252602b908201527f496e697469616c697a61626c653a20636f6e7472616374206973206e6f74206960408201526a6e697469616c697a696e6760a81b606082015260800190565b60005b838110156117165781810151838201526020016116fe565b50506000910152565b600082516117318184602087016116fb565b9190910192915050565b602081526000825180602084015261175a8160408501602087016116fb565b601f01601f1916919091016040019291505056fe360894a13ba1a3210667c828492db98dca3e2076cc3735a920a3ca505d382bbc416464726573733a206c6f772d6c6576656c2064656c65676174652063616c6c206661696c6564a2646970667358221220e3ddba4e0270c3628099b080fb56d2f97ab20b8fddfbde8d4155c6ad31b78f3064736f6c63430008100033",
  "linkReferences": {},
  "deployedLinkReferences": {}
}