{
  "_format": "hh-sol-artifact-1",
  "contractName": "AlarmClock",
  "sourceName": "contracts/dispatchers/AlarmClock.sol",
  "abi": [
    {
      "inputs": [],
      "stateMutability": "nonpayable",
      "type": "constructor"
    },
    {
      "anonymous": false,
      "inputs": [
        {
          "indexed": false,
          "internalType": "address",
          "name": "previousAdmin",
          "type": "address"
        },
        {
          "indexed": false,
          "internalType": "address",
          "name": "newAdmin",
          "type": "address"
        }
      ],
      "name": "AdminChanged",
      "type": "event"
    },
    {
      "anonymous": false,
      "inputs": [
        {
          "indexed": true,
          "internalType": "address",
          "name": "beacon",
          "type": "address"
        }
      ],
      "name": "BeaconUpgraded",
      "type": "event"
    },
    {
      "anonymous": false,
      "inputs": [
        {
          "indexed": false,
          "internalType": "uint8",
          "name": "version",
          "type": "uint8"
        }
      ],
      "name": "Initialized",
      "type": "event"
    },
    {
      "anonymous": false,
      "inputs": [
        {
          "indexed": true,
          "internalType": "address",
          "name": "previousOwner",
          "type": "address"
        },
        {
          "indexed": true,
          "internalType": "address",
          "name": "newOwner",
          "type": "address"
        }
      ],
      "name": "OwnershipTransferred",
      "type": "event"
    },
    {
      "anonymous": false,
      "inputs": [
        {
          "indexed": true,
          "internalType": "address",
          "name": "implementation",
          "type": "address"
        }
      ],
      "name": "Upgraded",
      "type": "event"
    },
    {
      "anonymous": false,
      "inputs": [
        {
          "indexed": false,
          "internalType": "address",
          "name": "operator",
          "type": "address"
        },
        {
          "indexed": false,
          "internalType": "bytes32",
          "name": "eventHash",
          "type": "bytes32"
        },
        {
          "indexed": false,
          "internalType": "uint256",
          "name": "alarmTime",
          "type": "uint256"
        },
        {
          "indexed": false,
          "internalType": "uint256",
          "name": "currentTime",
          "type": "uint256"
        }
      ],
      "name": "alarmClockChallenged",
      "type": "event"
    },
    {
      "anonymous": false,
      "inputs": [
        {
          "indexed": false,
          "internalType": "address",
          "name": "operator",
          "type": "address"
        },
        {
          "indexed": false,
          "internalType": "uint256",
          "name": "trustId",
          "type": "uint256"
        },
        {
          "indexed": false,
          "internalType": "uint256",
          "name": "rootKeyId",
          "type": "uint256"
        },
        {
          "indexed": false,
          "internalType": "uint256",
          "name": "alarmTime",
          "type": "uint256"
        },
        {
          "indexed": false,
          "internalType": "uint256",
          "name": "snoozeInterval",
          "type": "uint256"
        },
        {
          "indexed": false,
          "internalType": "uint256",
          "name": "snoozeKeyId",
          "type": "uint256"
        },
        {
          "indexed": false,
          "internalType": "bytes32",
          "name": "eventHash",
          "type": "bytes32"
        }
      ],
      "name": "alarmClockRegistered",
      "type": "event"
    },
    {
      "anonymous": false,
      "inputs": [
        {
          "indexed": false,
          "internalType": "address",
          "name": "operator",
          "type": "address"
        },
        {
          "indexed": false,
          "internalType": "bytes32",
          "name": "eventHash",
          "type": "bytes32"
        },
        {
          "indexed": false,
          "internalType": "uint256",
          "name": "snoozeKeyId",
          "type": "uint256"
        },
        {
          "indexed": false,
          "internalType": "uint256",
          "name": "newAlarmTime",
          "type": "uint256"
        }
      ],
      "name": "alarmClockSnoozed",
      "type": "event"
    },
    {
      "inputs": [
        {
          "internalType": "bytes32",
          "name": "",
          "type": "bytes32"
        }
      ],
      "name": "alarms",
      "outputs": [
        {
          "internalType": "bytes32",
          "name": "eventHash",
          "type": "bytes32"
        },
        {
          "internalType": "uint256",
          "name": "alarmTime",
          "type": "uint256"
        },
        {
          "internalType": "uint256",
          "name": "snoozeInterval",
          "type": "uint256"
        },
        {
          "internalType": "uint256",
          "name": "snoozeKeyId",
          "type": "uint256"
        }
      ],
      "stateMutability": "view",
      "type": "function"
    },
    {
      "inputs": [
        {
          "internalType": "bytes32",
          "name": "eventHash",
          "type": "bytes32"
        }
      ],
      "name": "challengeAlarm",
      "outputs": [],
      "stateMutability": "nonpayable",
      "type": "function"
    },
    {
      "inputs": [
        {
          "internalType": "uint256",
          "name": "rootKeyId",
          "type": "uint256"
        },
        {
          "internalType": "bytes32",
          "name": "description",
          "type": "bytes32"
        },
        {
          "internalType": "uint256",
          "name": "alarmTime",
          "type": "uint256"
        },
        {
          "internalType": "uint256",
          "name": "snoozeInterval",
          "type": "uint256"
        },
        {
          "internalType": "uint256",
          "name": "snoozeKeyId",
          "type": "uint256"
        }
      ],
      "name": "createAlarm",
      "outputs": [],
      "stateMutability": "nonpayable",
      "type": "function"
    },
    {
      "inputs": [
        {
          "internalType": "address",
          "name": "_Locksmith",
          "type": "address"
        },
        {
          "internalType": "address",
          "name": "_TrustEventLog",
          "type": "address"
        }
      ],
      "name": "initialize",
      "outputs": [],
      "stateMutability": "nonpayable",
      "type": "function"
    },
    {
      "inputs": [],
      "name": "locksmith",
      "outputs": [
        {
          "internalType": "contract Locksmith",
          "name": "",
          "type": "address"
        }
      ],
      "stateMutability": "view",
      "type": "function"
    },
    {
      "inputs": [],
      "name": "owner",
      "outputs": [
        {
          "internalType": "address",
          "name": "",
          "type": "address"
        }
      ],
      "stateMutability": "view",
      "type": "function"
    },
    {
      "inputs": [],
      "name": "proxiableUUID",
      "outputs": [
        {
          "internalType": "bytes32",
          "name": "",
          "type": "bytes32"
        }
      ],
      "stateMutability": "view",
      "type": "function"
    },
    {
      "inputs": [],
      "name": "renounceOwnership",
      "outputs": [],
      "stateMutability": "nonpayable",
      "type": "function"
    },
    {
      "inputs": [
        {
          "internalType": "bytes32",
          "name": "eventHash",
          "type": "bytes32"
        },
        {
          "internalType": "uint256",
          "name": "snoozeKeyId",
          "type": "uint256"
        }
      ],
      "name": "snoozeAlarm",
      "outputs": [
        {
          "internalType": "uint256",
          "name": "",
          "type": "uint256"
        }
      ],
      "stateMutability": "nonpayable",
      "type": "function"
    },
    {
      "inputs": [
        {
          "internalType": "address",
          "name": "newOwner",
          "type": "address"
        }
      ],
      "name": "transferOwnership",
      "outputs": [],
      "stateMutability": "nonpayable",
      "type": "function"
    },
    {
      "inputs": [],
      "name": "trustEventLog",
      "outputs": [
        {
          "internalType": "contract TrustEventLog",
          "name": "",
          "type": "address"
        }
      ],
      "stateMutability": "view",
      "type": "function"
    },
    {
      "inputs": [
        {
          "internalType": "address",
          "name": "newImplementation",
          "type": "address"
        }
      ],
      "name": "upgradeTo",
      "outputs": [],
      "stateMutability": "nonpayable",
      "type": "function"
    },
    {
      "inputs": [
        {
          "internalType": "address",
          "name": "newImplementation",
          "type": "address"
        },
        {
          "internalType": "bytes",
          "name": "data",
          "type": "bytes"
        }
      ],
      "name": "upgradeToAndCall",
      "outputs": [],
      "stateMutability": "payable",
      "type": "function"
    }
  ],
  "bytecode": "0x60a06040523073ffffffffffffffffffffffffffffffffffffffff1660809073ffffffffffffffffffffffffffffffffffffffff168152503480156200004457600080fd5b50620000556200005b60201b60201c565b62000206565b600060019054906101000a900460ff1615620000ae576040517f08c379a0000000000000000000000000000000000000000000000000000000008152600401620000a590620001a9565b60405180910390fd5b60ff801660008054906101000a900460ff1660ff161015620001205760ff6000806101000a81548160ff021916908360ff1602179055507f7f26b83ff96e1f2b6a682f133852f6798a09c465da95921460cefb384740249860ff604051620001179190620001e9565b60405180910390a15b565b600082825260208201905092915050565b7f496e697469616c697a61626c653a20636f6e747261637420697320696e69746960008201527f616c697a696e6700000000000000000000000000000000000000000000000000602082015250565b60006200019160278362000122565b91506200019e8262000133565b604082019050919050565b60006020820190508181036000830152620001c48162000182565b9050919050565b600060ff82169050919050565b620001e381620001cb565b82525050565b6000602082019050620002006000830184620001d8565b92915050565b608051612ffa6200023e600039600081816104be0152818161054c015281816108100152818161089e015261094e0152612ffa6000f3fe6080604052600436106100c25760003560e01c806352d1902d1161007f5780638c08e8bc116100595780638c08e8bc146102365780638da5cb5b14610273578063c60e3dfc1461029e578063f2fde38b146102c7576100c2565b806352d1902d146101c95780635a2fefef146101f4578063715018a61461021f576100c2565b806313fb817e146100c75780631610ed92146100f257806333ca9aeb1461011b5780633659cfe61461015b578063485cc955146101845780634f1ef286146101ad575b600080fd5b3480156100d357600080fd5b506100dc6102f0565b6040516100e99190611af5565b60405180910390f35b3480156100fe57600080fd5b5061011960048036038101906101149190611b5a565b610316565b005b34801561012757600080fd5b50610142600480360381019061013d9190611b5a565b61048c565b6040516101529493929190611baf565b60405180910390f35b34801561016757600080fd5b50610182600480360381019061017d9190611c32565b6104bc565b005b34801561019057600080fd5b506101ab60048036038101906101a69190611c5f565b610644565b005b6101c760048036038101906101c29190611de5565b61080e565b005b3480156101d557600080fd5b506101de61094a565b6040516101eb9190611e41565b60405180910390f35b34801561020057600080fd5b50610209610a03565b6040516102169190611e7d565b60405180910390f35b34801561022b57600080fd5b50610234610a29565b005b34801561024257600080fd5b5061025d60048036038101906102589190611ec4565b610a3d565b60405161026a9190611f04565b60405180910390f35b34801561027f57600080fd5b50610288610e33565b6040516102959190611f2e565b60405180910390f35b3480156102aa57600080fd5b506102c560048036038101906102c09190611f49565b610e5d565b005b3480156102d357600080fd5b506102ee60048036038101906102e99190611c32565b611316565b005b60c960009054906101000a900473ffffffffffffffffffffffffffffffffffffffff1681565b600060cb6000838152602001908152602001600020905081816000015414610373576040517f08c379a000000000000000000000000000000000000000000000000000000000815260040161036a90612021565b60405180910390fd5b42816001015411156103ba576040517f08c379a00000000000000000000000000000000000000000000000000000000081526004016103b19061208d565b60405180910390fd5b60ca60009054906101000a900473ffffffffffffffffffffffffffffffffffffffff1673ffffffffffffffffffffffffffffffffffffffff1663b5aac364836040518263ffffffff1660e01b81526004016104159190611e41565b600060405180830381600087803b15801561042f57600080fd5b505af1158015610443573d6000803e3d6000fd5b505050507f97be9d8024b26b4fcc60f88b81d920ca51e9fd8e73d46447afaefe0d43563ed6338383600101544260405161048094939291906120ad565b60405180910390a15050565b60cb6020528060005260406000206000915090508060000154908060010154908060020154908060030154905084565b7f000000000000000000000000000000000000000000000000000000000000000073ffffffffffffffffffffffffffffffffffffffff163073ffffffffffffffffffffffffffffffffffffffff160361054a576040517f08c379a000000000000000000000000000000000000000000000000000000000815260040161054190612164565b60405180910390fd5b7f000000000000000000000000000000000000000000000000000000000000000073ffffffffffffffffffffffffffffffffffffffff16610589611399565b73ffffffffffffffffffffffffffffffffffffffff16146105df576040517f08c379a00000000000000000000000000000000000000000000000000000000081526004016105d6906121f6565b60405180910390fd5b6105e8816113f0565b61064181600067ffffffffffffffff81111561060757610606611cba565b5b6040519080825280601f01601f1916602001820160405280156106395781602001600182028036833780820191505090505b5060006113fb565b50565b60008060019054906101000a900460ff161590508080156106755750600160008054906101000a900460ff1660ff16105b806106a2575061068430611569565b1580156106a15750600160008054906101000a900460ff1660ff16145b5b6106e1576040517f08c379a00000000000000000000000000000000000000000000000000000000081526004016106d890612288565b60405180910390fd5b60016000806101000a81548160ff021916908360ff160217905550801561071e576001600060016101000a81548160ff0219169083151502179055505b61072661158c565b61072e6115e5565b8160ca60006101000a81548173ffffffffffffffffffffffffffffffffffffffff021916908373ffffffffffffffffffffffffffffffffffffffff1602179055508260c960006101000a81548173ffffffffffffffffffffffffffffffffffffffff021916908373ffffffffffffffffffffffffffffffffffffffff16021790555080156108095760008060016101000a81548160ff0219169083151502179055507f7f26b83ff96e1f2b6a682f133852f6798a09c465da95921460cefb3847402498600160405161080091906122f0565b60405180910390a15b505050565b7f000000000000000000000000000000000000000000000000000000000000000073ffffffffffffffffffffffffffffffffffffffff163073ffffffffffffffffffffffffffffffffffffffff160361089c576040517f08c379a000000000000000000000000000000000000000000000000000000000815260040161089390612164565b60405180910390fd5b7f000000000000000000000000000000000000000000000000000000000000000073ffffffffffffffffffffffffffffffffffffffff166108db611399565b73ffffffffffffffffffffffffffffffffffffffff1614610931576040517f08c379a0000000000000000000000000000000000000000000000000000000008152600401610928906121f6565b60405180910390fd5b61093a826113f0565b610946828260016113fb565b5050565b60007f000000000000000000000000000000000000000000000000000000000000000073ffffffffffffffffffffffffffffffffffffffff163073ffffffffffffffffffffffffffffffffffffffff16146109da576040517f08c379a00000000000000000000000000000000000000000000000000000000081526004016109d19061237d565b60405180910390fd5b7f360894a13ba1a3210667c828492db98dca3e2076cc3735a920a3ca505d382bbc60001b905090565b60ca60009054906101000a900473ffffffffffffffffffffffffffffffffffffffff1681565b610a31611636565b610a3b60006116b4565b565b60008060cb6000858152602001908152602001600020905083816000015414610a9b576040517f08c379a0000000000000000000000000000000000000000000000000000000008152600401610a9290612021565b60405180910390fd5b6000816002015411610ae2576040517f08c379a0000000000000000000000000000000000000000000000000000000008152600401610ad9906123e9565b60405180910390fd5b82816003015414610b28576040517f08c379a0000000000000000000000000000000000000000000000000000000008152600401610b1f90612455565b60405180910390fd5b600060c960009054906101000a900473ffffffffffffffffffffffffffffffffffffffff1673ffffffffffffffffffffffffffffffffffffffff1663a1ca66876040518163ffffffff1660e01b8152600401602060405180830381865afa158015610b97573d6000803e3d6000fd5b505050506040513d601f19601f82011682018060405250810190610bbb91906124b3565b73ffffffffffffffffffffffffffffffffffffffff1662fdd58e33866040518363ffffffff1660e01b8152600401610bf49291906124e0565b602060405180830381865afa158015610c11573d6000803e3d6000fd5b505050506040513d601f19601f82011682018060405250810190610c35919061251e565b11610c75576040517f08c379a0000000000000000000000000000000000000000000000000000000008152600401610c6c90612597565b60405180910390fd5b60ca60009054906101000a900473ffffffffffffffffffffffffffffffffffffffff1673ffffffffffffffffffffffffffffffffffffffff16634c80ebd6856040518263ffffffff1660e01b8152600401610cd09190611e41565b602060405180830381865afa158015610ced573d6000803e3d6000fd5b505050506040513d601f19601f82011682018060405250810190610d1191906125ef565b15610d51576040517f08c379a0000000000000000000000000000000000000000000000000000000008152600401610d4890612668565b60405180910390fd5b806001015442101580610d7757508060010154816002015442610d7491906126b7565b10155b610db6576040517f08c379a0000000000000000000000000000000000000000000000000000000008152600401610dad90612737565b60405180910390fd5b80600101544211610dcb578060010154610dcd565b425b8160020154610ddc91906126b7565b81600101819055507fa2fc4bbee1f41c0db0ce3739548fead7aa49fd89bc36479d85f7281994050dd03385858460010154604051610e1d94939291906120ad565b60405180910390a1806001015491505092915050565b6000603360009054906101000a900473ffffffffffffffffffffffffffffffffffffffff16905090565b600060c960009054906101000a900473ffffffffffffffffffffffffffffffffffffffff1673ffffffffffffffffffffffffffffffffffffffff1663a1ca66876040518163ffffffff1660e01b8152600401602060405180830381865afa158015610ecc573d6000803e3d6000fd5b505050506040513d601f19601f82011682018060405250810190610ef091906124b3565b73ffffffffffffffffffffffffffffffffffffffff1662fdd58e33886040518363ffffffff1660e01b8152600401610f299291906124e0565b602060405180830381865afa158015610f46573d6000803e3d6000fd5b505050506040513d601f19601f82011682018060405250810190610f6a919061251e565b11610faa576040517f08c379a0000000000000000000000000000000000000000000000000000000008152600401610fa190612597565b60405180910390fd5b600080600060c960009054906101000a900473ffffffffffffffffffffffffffffffffffffffff1673ffffffffffffffffffffffffffffffffffffffff166388ecda52896040518263ffffffff1660e01b815260040161100a9190611f04565b600060405180830381865afa158015611027573d6000803e3d6000fd5b505050506040513d6000823e3d601f19601f820116820180604052508101906110509190612834565b509350935050925080611098576040517f08c379a000000000000000000000000000000000000000000000000000000000815260040161108f90612917565b60405180910390fd5b84600010156111a35760008060c960009054906101000a900473ffffffffffffffffffffffffffffffffffffffff1673ffffffffffffffffffffffffffffffffffffffff166388ecda52876040518263ffffffff1660e01b81526004016110ff9190611f04565b600060405180830381865afa15801561111c573d6000803e3d6000fd5b505050506040513d6000823e3d601f19601f820116820180604052508101906111459190612834565b505092505091508480156111565750815b801561116157508084145b6111a0576040517f08c379a000000000000000000000000000000000000000000000000000000000815260040161119790612983565b60405180910390fd5b50505b60003089898989896040516020016111c0969594939291906129a3565b60405160208183030381529060405280519060200120905060ca60009054906101000a900473ffffffffffffffffffffffffffffffffffffffff1673ffffffffffffffffffffffffffffffffffffffff16638942e58584838b6040518463ffffffff1660e01b815260040161123793929190612a04565b600060405180830381600087803b15801561125157600080fd5b505af1158015611265573d6000803e3d6000fd5b5050505060405180608001604052808281526020018881526020018781526020018681525060cb6000838152602001908152602001600020600082015181600001556020820151816001015560408201518160020155606082015181600301559050507f5378c0f855cfb74215688e7d2565f6cb7ba7e537a232cead346ce012e16efcf533848b8a8a8a876040516113039796959493929190612a3b565b60405180910390a1505050505050505050565b61131e611636565b600073ffffffffffffffffffffffffffffffffffffffff168173ffffffffffffffffffffffffffffffffffffffff160361138d576040517f08c379a000000000000000000000000000000000000000000000000000000000815260040161138490612b1c565b60405180910390fd5b611396816116b4565b50565b60006113c77f360894a13ba1a3210667c828492db98dca3e2076cc3735a920a3ca505d382bbc60001b61177a565b60000160009054906101000a900473ffffffffffffffffffffffffffffffffffffffff16905090565b6113f8611636565b50565b6114277f4910fdfa16fed3260ed0e7147f7cc6da11a60208b5b9406d12a635614ffd914360001b611784565b60000160009054906101000a900460ff161561144b576114468361178e565b611564565b8273ffffffffffffffffffffffffffffffffffffffff166352d1902d6040518163ffffffff1660e01b8152600401602060405180830381865afa9250505080156114b357506040513d601f19601f820116820180604052508101906114b09190612b3c565b60015b6114f2576040517f08c379a00000000000000000000000000000000000000000000000000000000081526004016114e990612bdb565b60405180910390fd5b7f360894a13ba1a3210667c828492db98dca3e2076cc3735a920a3ca505d382bbc60001b8114611557576040517f08c379a000000000000000000000000000000000000000000000000000000000815260040161154e90612c6d565b60405180910390fd5b50611563838383611847565b5b505050565b6000808273ffffffffffffffffffffffffffffffffffffffff163b119050919050565b600060019054906101000a900460ff166115db576040517f08c379a00000000000000000000000000000000000000000000000000000000081526004016115d290612cff565b60405180910390fd5b6115e3611873565b565b600060019054906101000a900460ff16611634576040517f08c379a000000000000000000000000000000000000000000000000000000000815260040161162b90612cff565b60405180910390fd5b565b61163e6118d4565b73ffffffffffffffffffffffffffffffffffffffff1661165c610e33565b73ffffffffffffffffffffffffffffffffffffffff16146116b2576040517f08c379a00000000000000000000000000000000000000000000000000000000081526004016116a990612d6b565b60405180910390fd5b565b6000603360009054906101000a900473ffffffffffffffffffffffffffffffffffffffff16905081603360006101000a81548173ffffffffffffffffffffffffffffffffffffffff021916908373ffffffffffffffffffffffffffffffffffffffff1602179055508173ffffffffffffffffffffffffffffffffffffffff168173ffffffffffffffffffffffffffffffffffffffff167f8be0079c531659141344cd1fd0a4f28419497f9722a3daafe3b4186f6b6457e060405160405180910390a35050565b6000819050919050565b6000819050919050565b61179781611569565b6117d6576040517f08c379a00000000000000000000000000000000000000000000000000000000081526004016117cd90612dfd565b60405180910390fd5b806118037f360894a13ba1a3210667c828492db98dca3e2076cc3735a920a3ca505d382bbc60001b61177a565b60000160006101000a81548173ffffffffffffffffffffffffffffffffffffffff021916908373ffffffffffffffffffffffffffffffffffffffff16021790555050565b611850836118dc565b60008251118061185d5750805b1561186e5761186c838361192b565b505b505050565b600060019054906101000a900460ff166118c2576040517f08c379a00000000000000000000000000000000000000000000000000000000081526004016118b990612cff565b60405180910390fd5b6118d26118cd6118d4565b6116b4565b565b600033905090565b6118e58161178e565b8073ffffffffffffffffffffffffffffffffffffffff167fbc7cd75a20ee27fd9adebab32041f755214dbc6bffa90cc0225b39da2e5c2d3b60405160405180910390a250565b606061193683611569565b611975576040517f08c379a000000000000000000000000000000000000000000000000000000000815260040161196c90612e8f565b60405180910390fd5b6000808473ffffffffffffffffffffffffffffffffffffffff168460405161199d9190612f20565b600060405180830381855af49150503d80600081146119d8576040519150601f19603f3d011682016040523d82523d6000602084013e6119dd565b606091505b5091509150611a058282604051806060016040528060278152602001612f9e60279139611a0f565b9250505092915050565b60608315611a1f57829050611a6f565b600083511115611a325782518084602001fd5b816040517f08c379a0000000000000000000000000000000000000000000000000000000008152600401611a669190612f7b565b60405180910390fd5b9392505050565b600073ffffffffffffffffffffffffffffffffffffffff82169050919050565b6000819050919050565b6000611abb611ab6611ab184611a76565b611a96565b611a76565b9050919050565b6000611acd82611aa0565b9050919050565b6000611adf82611ac2565b9050919050565b611aef81611ad4565b82525050565b6000602082019050611b0a6000830184611ae6565b92915050565b6000604051905090565b600080fd5b600080fd5b6000819050919050565b611b3781611b24565b8114611b4257600080fd5b50565b600081359050611b5481611b2e565b92915050565b600060208284031215611b7057611b6f611b1a565b5b6000611b7e84828501611b45565b91505092915050565b611b9081611b24565b82525050565b6000819050919050565b611ba981611b96565b82525050565b6000608082019050611bc46000830187611b87565b611bd16020830186611ba0565b611bde6040830185611ba0565b611beb6060830184611ba0565b95945050505050565b6000611bff82611a76565b9050919050565b611c0f81611bf4565b8114611c1a57600080fd5b50565b600081359050611c2c81611c06565b92915050565b600060208284031215611c4857611c47611b1a565b5b6000611c5684828501611c1d565b91505092915050565b60008060408385031215611c7657611c75611b1a565b5b6000611c8485828601611c1d565b9250506020611c9585828601611c1d565b9150509250929050565b600080fd5b600080fd5b6000601f19601f8301169050919050565b7f4e487b7100000000000000000000000000000000000000000000000000000000600052604160045260246000fd5b611cf282611ca9565b810181811067ffffffffffffffff82111715611d1157611d10611cba565b5b80604052505050565b6000611d24611b10565b9050611d308282611ce9565b919050565b600067ffffffffffffffff821115611d5057611d4f611cba565b5b611d5982611ca9565b9050602081019050919050565b82818337600083830152505050565b6000611d88611d8384611d35565b611d1a565b905082815260208101848484011115611da457611da3611ca4565b5b611daf848285611d66565b509392505050565b600082601f830112611dcc57611dcb611c9f565b5b8135611ddc848260208601611d75565b91505092915050565b60008060408385031215611dfc57611dfb611b1a565b5b6000611e0a85828601611c1d565b925050602083013567ffffffffffffffff811115611e2b57611e2a611b1f565b5b611e3785828601611db7565b9150509250929050565b6000602082019050611e566000830184611b87565b92915050565b6000611e6782611ac2565b9050919050565b611e7781611e5c565b82525050565b6000602082019050611e926000830184611e6e565b92915050565b611ea181611b96565b8114611eac57600080fd5b50565b600081359050611ebe81611e98565b92915050565b60008060408385031215611edb57611eda611b1a565b5b6000611ee985828601611b45565b9250506020611efa85828601611eaf565b9150509250929050565b6000602082019050611f196000830184611ba0565b92915050565b611f2881611bf4565b82525050565b6000602082019050611f436000830184611f1f565b92915050565b600080600080600060a08688031215611f6557611f64611b1a565b5b6000611f7388828901611eaf565b9550506020611f8488828901611b45565b9450506040611f9588828901611eaf565b9350506060611fa688828901611eaf565b9250506080611fb788828901611eaf565b9150509295509295909350565b600082825260208201905092915050565b7f494e56414c49445f414c41524d5f4556454e5400000000000000000000000000600082015250565b600061200b601383611fc4565b915061201682611fd5565b602082019050919050565b6000602082019050818103600083015261203a81611ffe565b9050919050565b7f4348414c4c454e47455f4641494c454400000000000000000000000000000000600082015250565b6000612077601083611fc4565b915061208282612041565b602082019050919050565b600060208201905081810360008301526120a68161206a565b9050919050565b60006080820190506120c26000830187611f1f565b6120cf6020830186611b87565b6120dc6040830185611ba0565b6120e96060830184611ba0565b95945050505050565b7f46756e6374696f6e206d7573742062652063616c6c6564207468726f7567682060008201527f64656c656761746563616c6c0000000000000000000000000000000000000000602082015250565b600061214e602c83611fc4565b9150612159826120f2565b604082019050919050565b6000602082019050818103600083015261217d81612141565b9050919050565b7f46756e6374696f6e206d7573742062652063616c6c6564207468726f7567682060008201527f6163746976652070726f78790000000000000000000000000000000000000000602082015250565b60006121e0602c83611fc4565b91506121eb82612184565b604082019050919050565b6000602082019050818103600083015261220f816121d3565b9050919050565b7f496e697469616c697a61626c653a20636f6e747261637420697320616c72656160008201527f647920696e697469616c697a6564000000000000000000000000000000000000602082015250565b6000612272602e83611fc4565b915061227d82612216565b604082019050919050565b600060208201905081810360008301526122a181612265565b9050919050565b6000819050919050565b600060ff82169050919050565b60006122da6122d56122d0846122a8565b611a96565b6122b2565b9050919050565b6122ea816122bf565b82525050565b600060208201905061230560008301846122e1565b92915050565b7f555550535570677261646561626c653a206d757374206e6f742062652063616c60008201527f6c6564207468726f7567682064656c656761746563616c6c0000000000000000602082015250565b6000612367603883611fc4565b91506123728261230b565b604082019050919050565b600060208201905081810360008301526123968161235a565b9050919050565b7f554e534e4f4f5a41424c455f414c41524d000000000000000000000000000000600082015250565b60006123d3601183611fc4565b91506123de8261239d565b602082019050919050565b60006020820190508181036000830152612402816123c6565b9050919050565b7f57524f4e475f534e4f4f5a455f4b455900000000000000000000000000000000600082015250565b600061243f601083611fc4565b915061244a82612409565b602082019050919050565b6000602082019050818103600083015261246e81612432565b9050919050565b600061248082611bf4565b9050919050565b61249081612475565b811461249b57600080fd5b50565b6000815190506124ad81612487565b92915050565b6000602082840312156124c9576124c8611b1a565b5b60006124d78482850161249e565b91505092915050565b60006040820190506124f56000830185611f1f565b6125026020830184611ba0565b9392505050565b60008151905061251881611e98565b92915050565b60006020828403121561253457612533611b1a565b5b600061254284828501612509565b91505092915050565b7f4b45595f4e4f545f48454c440000000000000000000000000000000000000000600082015250565b6000612581600c83611fc4565b915061258c8261254b565b602082019050919050565b600060208201905081810360008301526125b081612574565b9050919050565b60008115159050919050565b6125cc816125b7565b81146125d757600080fd5b50565b6000815190506125e9816125c3565b92915050565b60006020828403121561260557612604611b1a565b5b6000612613848285016125da565b91505092915050565b7f4f564552534e4f4f5a4500000000000000000000000000000000000000000000600082015250565b6000612652600a83611fc4565b915061265d8261261c565b602082019050919050565b6000602082019050818103600083015261268181612645565b9050919050565b7f4e487b7100000000000000000000000000000000000000000000000000000000600052601160045260246000fd5b60006126c282611b96565b91506126cd83611b96565b92508282019050808211156126e5576126e4612688565b5b92915050565b7f544f4f5f4541524c590000000000000000000000000000000000000000000000600082015250565b6000612721600983611fc4565b915061272c826126eb565b602082019050919050565b6000602082019050818103600083015261275081612714565b9050919050565b60008151905061276681611b2e565b92915050565b600067ffffffffffffffff82111561278757612786611cba565b5b602082029050602081019050919050565b600080fd5b60006127b06127ab8461276c565b611d1a565b905080838252602082019050602084028301858111156127d3576127d2612798565b5b835b818110156127fc57806127e88882612509565b8452602084019350506020810190506127d5565b5050509392505050565b600082601f83011261281b5761281a611c9f565b5b815161282b84826020860161279d565b91505092915050565b600080600080600060a086880312156128505761284f611b1a565b5b600061285e888289016125da565b955050602061286f88828901612757565b945050604061288088828901612509565b9350506060612891888289016125da565b925050608086015167ffffffffffffffff8111156128b2576128b1611b1f565b5b6128be88828901612806565b9150509295509295909350565b7f4b45595f4e4f545f524f4f540000000000000000000000000000000000000000600082015250565b6000612901600c83611fc4565b915061290c826128cb565b602082019050919050565b60006020820190508181036000830152612930816128f4565b9050919050565b7f494e56414c49445f534e4f4f5a455f4b45590000000000000000000000000000600082015250565b600061296d601283611fc4565b915061297882612937565b602082019050919050565b6000602082019050818103600083015261299c81612960565b9050919050565b600060c0820190506129b86000830189611f1f565b6129c56020830188611ba0565b6129d26040830187611b87565b6129df6060830186611ba0565b6129ec6080830185611ba0565b6129f960a0830184611ba0565b979650505050505050565b6000606082019050612a196000830186611ba0565b612a266020830185611b87565b612a336040830184611b87565b949350505050565b600060e082019050612a50600083018a611f1f565b612a5d6020830189611ba0565b612a6a6040830188611ba0565b612a776060830187611ba0565b612a846080830186611ba0565b612a9160a0830185611ba0565b612a9e60c0830184611b87565b98975050505050505050565b7f4f776e61626c653a206e6577206f776e657220697320746865207a65726f206160008201527f6464726573730000000000000000000000000000000000000000000000000000602082015250565b6000612b06602683611fc4565b9150612b1182612aaa565b604082019050919050565b60006020820190508181036000830152612b3581612af9565b9050919050565b600060208284031215612b5257612b51611b1a565b5b6000612b6084828501612757565b91505092915050565b7f45524331393637557067726164653a206e657720696d706c656d656e7461746960008201527f6f6e206973206e6f742055555053000000000000000000000000000000000000602082015250565b6000612bc5602e83611fc4565b9150612bd082612b69565b604082019050919050565b60006020820190508181036000830152612bf481612bb8565b9050919050565b7f45524331393637557067726164653a20756e737570706f727465642070726f7860008201527f6961626c65555549440000000000000000000000000000000000000000000000602082015250565b6000612c57602983611fc4565b9150612c6282612bfb565b604082019050919050565b60006020820190508181036000830152612c8681612c4a565b9050919050565b7f496e697469616c697a61626c653a20636f6e7472616374206973206e6f74206960008201527f6e697469616c697a696e67000000000000000000000000000000000000000000602082015250565b6000612ce9602b83611fc4565b9150612cf482612c8d565b604082019050919050565b60006020820190508181036000830152612d1881612cdc565b9050919050565b7f4f776e61626c653a2063616c6c6572206973206e6f7420746865206f776e6572600082015250565b6000612d55602083611fc4565b9150612d6082612d1f565b602082019050919050565b60006020820190508181036000830152612d8481612d48565b9050919050565b7f455243313936373a206e657720696d706c656d656e746174696f6e206973206e60008201527f6f74206120636f6e747261637400000000000000000000000000000000000000602082015250565b6000612de7602d83611fc4565b9150612df282612d8b565b604082019050919050565b60006020820190508181036000830152612e1681612dda565b9050919050565b7f416464726573733a2064656c65676174652063616c6c20746f206e6f6e2d636f60008201527f6e74726163740000000000000000000000000000000000000000000000000000602082015250565b6000612e79602683611fc4565b9150612e8482612e1d565b604082019050919050565b60006020820190508181036000830152612ea881612e6c565b9050919050565b600081519050919050565b600081905092915050565b60005b83811015612ee3578082015181840152602081019050612ec8565b60008484015250505050565b6000612efa82612eaf565b612f048185612eba565b9350612f14818560208601612ec5565b80840191505092915050565b6000612f2c8284612eef565b915081905092915050565b600081519050919050565b6000612f4d82612f37565b612f578185611fc4565b9350612f67818560208601612ec5565b612f7081611ca9565b840191505092915050565b60006020820190508181036000830152612f958184612f42565b90509291505056fe416464726573733a206c6f772d6c6576656c2064656c65676174652063616c6c206661696c6564a26469706673582212206f77992624e65cd00face07bd6768ea442127d379da6c5c1009e7e7d3837ef6664736f6c63430008100033",
  "linkReferences": {},
  "deployedLinkReferences": {}
}