{
  "_format": "hh-sol-artifact-1",
  "contractName": "AlarmClock",
  "sourceName": "contracts/dispatchers/AlarmClock.sol",
  "abi": [
    {
      "inputs": [],
      "stateMutability": "nonpayable",
      "type": "constructor"
    },
    {
      "anonymous": false,
      "inputs": [
        {
          "indexed": false,
          "internalType": "address",
          "name": "previousAdmin",
          "type": "address"
        },
        {
          "indexed": false,
          "internalType": "address",
          "name": "newAdmin",
          "type": "address"
        }
      ],
      "name": "AdminChanged",
      "type": "event"
    },
    {
      "anonymous": false,
      "inputs": [
        {
          "indexed": true,
          "internalType": "address",
          "name": "beacon",
          "type": "address"
        }
      ],
      "name": "BeaconUpgraded",
      "type": "event"
    },
    {
      "anonymous": false,
      "inputs": [
        {
          "indexed": false,
          "internalType": "uint8",
          "name": "version",
          "type": "uint8"
        }
      ],
      "name": "Initialized",
      "type": "event"
    },
    {
      "anonymous": false,
      "inputs": [
        {
          "indexed": true,
          "internalType": "address",
          "name": "previousOwner",
          "type": "address"
        },
        {
          "indexed": true,
          "internalType": "address",
          "name": "newOwner",
          "type": "address"
        }
      ],
      "name": "OwnershipTransferred",
      "type": "event"
    },
    {
      "anonymous": false,
      "inputs": [
        {
          "indexed": true,
          "internalType": "address",
          "name": "implementation",
          "type": "address"
        }
      ],
      "name": "Upgraded",
      "type": "event"
    },
    {
      "anonymous": false,
      "inputs": [
        {
          "indexed": false,
          "internalType": "address",
          "name": "operator",
          "type": "address"
        },
        {
          "indexed": false,
          "internalType": "bytes32",
          "name": "eventHash",
          "type": "bytes32"
        },
        {
          "indexed": false,
          "internalType": "uint256",
          "name": "alarmTime",
          "type": "uint256"
        },
        {
          "indexed": false,
          "internalType": "uint256",
          "name": "currentTime",
          "type": "uint256"
        }
      ],
      "name": "alarmClockChallenged",
      "type": "event"
    },
    {
      "anonymous": false,
      "inputs": [
        {
          "indexed": false,
          "internalType": "address",
          "name": "operator",
          "type": "address"
        },
        {
          "indexed": false,
          "internalType": "uint256",
          "name": "trustId",
          "type": "uint256"
        },
        {
          "indexed": false,
          "internalType": "uint256",
          "name": "rootKeyId",
          "type": "uint256"
        },
        {
          "indexed": false,
          "internalType": "uint256",
          "name": "alarmTime",
          "type": "uint256"
        },
        {
          "indexed": false,
          "internalType": "uint256",
          "name": "snoozeInterval",
          "type": "uint256"
        },
        {
          "indexed": false,
          "internalType": "uint256",
          "name": "snoozeKeyId",
          "type": "uint256"
        },
        {
          "indexed": false,
          "internalType": "bytes32",
          "name": "eventHash",
          "type": "bytes32"
        }
      ],
      "name": "alarmClockRegistered",
      "type": "event"
    },
    {
      "anonymous": false,
      "inputs": [
        {
          "indexed": false,
          "internalType": "address",
          "name": "operator",
          "type": "address"
        },
        {
          "indexed": false,
          "internalType": "bytes32",
          "name": "eventHash",
          "type": "bytes32"
        },
        {
          "indexed": false,
          "internalType": "uint256",
          "name": "snoozeKeyId",
          "type": "uint256"
        },
        {
          "indexed": false,
          "internalType": "uint256",
          "name": "newAlarmTime",
          "type": "uint256"
        }
      ],
      "name": "alarmClockSnoozed",
      "type": "event"
    },
    {
      "inputs": [
        {
          "internalType": "bytes32",
          "name": "",
          "type": "bytes32"
        }
      ],
      "name": "alarms",
      "outputs": [
        {
          "internalType": "bytes32",
          "name": "eventHash",
          "type": "bytes32"
        },
        {
          "internalType": "uint256",
          "name": "alarmTime",
          "type": "uint256"
        },
        {
          "internalType": "uint256",
          "name": "snoozeInterval",
          "type": "uint256"
        },
        {
          "internalType": "uint256",
          "name": "snoozeKeyId",
          "type": "uint256"
        }
      ],
      "stateMutability": "view",
      "type": "function"
    },
    {
      "inputs": [
        {
          "internalType": "bytes32",
          "name": "eventHash",
          "type": "bytes32"
        }
      ],
      "name": "challengeAlarm",
      "outputs": [],
      "stateMutability": "nonpayable",
      "type": "function"
    },
    {
      "inputs": [
        {
          "internalType": "uint256",
          "name": "rootKeyId",
          "type": "uint256"
        },
        {
          "internalType": "bytes32",
          "name": "description",
          "type": "bytes32"
        },
        {
          "internalType": "uint256",
          "name": "alarmTime",
          "type": "uint256"
        },
        {
          "internalType": "uint256",
          "name": "snoozeInterval",
          "type": "uint256"
        },
        {
          "internalType": "uint256",
          "name": "snoozeKeyId",
          "type": "uint256"
        }
      ],
      "name": "createAlarm",
      "outputs": [
        {
          "internalType": "bytes32",
          "name": "",
          "type": "bytes32"
        }
      ],
      "stateMutability": "nonpayable",
      "type": "function"
    },
    {
      "inputs": [
        {
          "internalType": "address",
          "name": "_Locksmith",
          "type": "address"
        },
        {
          "internalType": "address",
          "name": "_TrustEventLog",
          "type": "address"
        }
      ],
      "name": "initialize",
      "outputs": [],
      "stateMutability": "nonpayable",
      "type": "function"
    },
    {
      "inputs": [],
      "name": "locksmith",
      "outputs": [
        {
          "internalType": "contract ILocksmith",
          "name": "",
          "type": "address"
        }
      ],
      "stateMutability": "view",
      "type": "function"
    },
    {
      "inputs": [],
      "name": "owner",
      "outputs": [
        {
          "internalType": "address",
          "name": "",
          "type": "address"
        }
      ],
      "stateMutability": "view",
      "type": "function"
    },
    {
      "inputs": [],
      "name": "proxiableUUID",
      "outputs": [
        {
          "internalType": "bytes32",
          "name": "",
          "type": "bytes32"
        }
      ],
      "stateMutability": "view",
      "type": "function"
    },
    {
      "inputs": [],
      "name": "renounceOwnership",
      "outputs": [],
      "stateMutability": "nonpayable",
      "type": "function"
    },
    {
      "inputs": [
        {
          "internalType": "bytes32",
          "name": "eventHash",
          "type": "bytes32"
        },
        {
          "internalType": "uint256",
          "name": "snoozeKeyId",
          "type": "uint256"
        }
      ],
      "name": "snoozeAlarm",
      "outputs": [
        {
          "internalType": "uint256",
          "name": "",
          "type": "uint256"
        }
      ],
      "stateMutability": "nonpayable",
      "type": "function"
    },
    {
      "inputs": [
        {
          "internalType": "address",
          "name": "newOwner",
          "type": "address"
        }
      ],
      "name": "transferOwnership",
      "outputs": [],
      "stateMutability": "nonpayable",
      "type": "function"
    },
    {
      "inputs": [],
      "name": "trustEventLog",
      "outputs": [
        {
          "internalType": "contract ITrustEventLog",
          "name": "",
          "type": "address"
        }
      ],
      "stateMutability": "view",
      "type": "function"
    },
    {
      "inputs": [
        {
          "internalType": "address",
          "name": "newImplementation",
          "type": "address"
        }
      ],
      "name": "upgradeTo",
      "outputs": [],
      "stateMutability": "nonpayable",
      "type": "function"
    },
    {
      "inputs": [
        {
          "internalType": "address",
          "name": "newImplementation",
          "type": "address"
        },
        {
          "internalType": "bytes",
          "name": "data",
          "type": "bytes"
        }
      ],
      "name": "upgradeToAndCall",
      "outputs": [],
      "stateMutability": "payable",
      "type": "function"
    }
  ],
  "bytecode": "0x60a06040523060805234801561001457600080fd5b5061001d610022565b6100e2565b600054610100900460ff161561008e5760405162461bcd60e51b815260206004820152602760248201527f496e697469616c697a61626c653a20636f6e747261637420697320696e697469604482015266616c697a696e6760c81b606482015260840160405180910390fd5b60005460ff90811610156100e0576000805460ff191660ff9081179091556040519081527f7f26b83ff96e1f2b6a682f133852f6798a09c465da95921460cefb38474024989060200160405180910390a15b565b608051611c9a61011960003960008181610448015281816104cd0152818161072a015281816107af01526108990152611c9a6000f3fe6080604052600436106100d25760003560e01c806352d1902d1161007f5780638c08e8bc116100595780638c08e8bc146102435780638da5cb5b14610263578063c60e3dfc14610281578063f2fde38b146102a157600080fd5b806352d1902d146101eb5780635a2fefef1461020e578063715018a61461022e57600080fd5b80633659cfe6116100b05780633659cfe614610198578063485cc955146101b85780634f1ef286146101d857600080fd5b806313fb817e146100d75780631610ed921461011457806333ca9aeb14610136575b600080fd5b3480156100e357600080fd5b5060c9546100f7906001600160a01b031681565b6040516001600160a01b0390911681526020015b60405180910390f35b34801561012057600080fd5b5061013461012f366004611896565b6102c1565b005b34801561014257600080fd5b50610178610151366004611896565b60cb6020526000908152604090208054600182015460028301546003909301549192909184565b60408051948552602085019390935291830152606082015260800161010b565b3480156101a457600080fd5b506101346101b33660046118c4565b61043e565b3480156101c457600080fd5b506101346101d33660046118e1565b6105b9565b6101346101e6366004611961565b610720565b3480156101f757600080fd5b5061020061088c565b60405190815260200161010b565b34801561021a57600080fd5b5060ca546100f7906001600160a01b031681565b34801561023a57600080fd5b50610134610951565b34801561024f57600080fd5b5061020061025e366004611a09565b610965565b34801561026f57600080fd5b506033546001600160a01b03166100f7565b34801561028d57600080fd5b5061020061029c366004611a2b565b610d6a565b3480156102ad57600080fd5b506101346102bc3660046118c4565b6111d5565b600081815260cb60205260409020805482146103245760405162461bcd60e51b815260206004820152601360248201527f494e56414c49445f414c41524d5f4556454e540000000000000000000000000060448201526064015b60405180910390fd5b42816001015411156103785760405162461bcd60e51b815260206004820152601060248201527f4348414c4c454e47455f4641494c454400000000000000000000000000000000604482015260640161031b565b60ca546040517fb5aac364000000000000000000000000000000000000000000000000000000008152600481018490526001600160a01b039091169063b5aac36490602401600060405180830381600087803b1580156103d757600080fd5b505af11580156103eb573d6000803e3d6000fd5b505050506001810154604080513381526020810185905280820192909252426060830152517f97be9d8024b26b4fcc60f88b81d920ca51e9fd8e73d46447afaefe0d43563ed69181900360800190a15050565b6001600160a01b037f00000000000000000000000000000000000000000000000000000000000000001630036104cb5760405162461bcd60e51b815260206004820152602c60248201527f46756e6374696f6e206d7573742062652063616c6c6564207468726f7567682060448201526b19195b1959d85d1958d85b1b60a21b606482015260840161031b565b7f00000000000000000000000000000000000000000000000000000000000000006001600160a01b03166105267f360894a13ba1a3210667c828492db98dca3e2076cc3735a920a3ca505d382bbc546001600160a01b031690565b6001600160a01b0316146105915760405162461bcd60e51b815260206004820152602c60248201527f46756e6374696f6e206d7573742062652063616c6c6564207468726f7567682060448201526b6163746976652070726f787960a01b606482015260840161031b565b61059a81611262565b604080516000808252602082019092526105b69183919061126a565b50565b600054610100900460ff16158080156105d95750600054600160ff909116105b806105f35750303b1580156105f3575060005460ff166001145b6106655760405162461bcd60e51b815260206004820152602e60248201527f496e697469616c697a61626c653a20636f6e747261637420697320616c72656160448201527f647920696e697469616c697a6564000000000000000000000000000000000000606482015260840161031b565b6000805460ff191660011790558015610688576000805461ff0019166101001790555b61069061140a565b61069861147d565b60ca80546001600160a01b0380851673ffffffffffffffffffffffffffffffffffffffff199283161790925560c9805492861692909116919091179055801561071b576000805461ff0019169055604051600181527f7f26b83ff96e1f2b6a682f133852f6798a09c465da95921460cefb38474024989060200160405180910390a15b505050565b6001600160a01b037f00000000000000000000000000000000000000000000000000000000000000001630036107ad5760405162461bcd60e51b815260206004820152602c60248201527f46756e6374696f6e206d7573742062652063616c6c6564207468726f7567682060448201526b19195b1959d85d1958d85b1b60a21b606482015260840161031b565b7f00000000000000000000000000000000000000000000000000000000000000006001600160a01b03166108087f360894a13ba1a3210667c828492db98dca3e2076cc3735a920a3ca505d382bbc546001600160a01b031690565b6001600160a01b0316146108735760405162461bcd60e51b815260206004820152602c60248201527f46756e6374696f6e206d7573742062652063616c6c6564207468726f7567682060448201526b6163746976652070726f787960a01b606482015260840161031b565b61087c82611262565b6108888282600161126a565b5050565b6000306001600160a01b037f0000000000000000000000000000000000000000000000000000000000000000161461092c5760405162461bcd60e51b815260206004820152603860248201527f555550535570677261646561626c653a206d757374206e6f742062652063616c60448201527f6c6564207468726f7567682064656c656761746563616c6c0000000000000000606482015260840161031b565b507f360894a13ba1a3210667c828492db98dca3e2076cc3735a920a3ca505d382bbc90565b6109596114e8565b6109636000611542565b565b600082815260cb60205260408120805484146109c35760405162461bcd60e51b815260206004820152601360248201527f494e56414c49445f414c41524d5f4556454e5400000000000000000000000000604482015260640161031b565b6000816002015411610a175760405162461bcd60e51b815260206004820152601160248201527f554e534e4f4f5a41424c455f414c41524d000000000000000000000000000000604482015260640161031b565b82816003015414610a6a5760405162461bcd60e51b815260206004820152601060248201527f57524f4e475f534e4f4f5a455f4b455900000000000000000000000000000000604482015260640161031b565b60c954604080517fb83ac19f00000000000000000000000000000000000000000000000000000000815290516000926001600160a01b03169163b83ac19f9160048083019260209291908290030181865afa158015610acd573d6000803e3d6000fd5b505050506040513d601f19601f82011682018060405250810190610af19190611a66565b604051630f5d2cd560e11b815233600482015260248101869052600060448201526001600160a01b039190911690631eba59aa90606401602060405180830381865afa158015610b45573d6000803e3d6000fd5b505050506040513d601f19601f82011682018060405250810190610b699190611a83565b11610ba55760405162461bcd60e51b815260206004820152600c60248201526b12d15657d393d517d211531160a21b604482015260640161031b565b60ca546040517f4c80ebd6000000000000000000000000000000000000000000000000000000008152600481018690526001600160a01b0390911690634c80ebd690602401602060405180830381865afa158015610c07573d6000803e3d6000fd5b505050506040513d601f19601f82011682018060405250810190610c2b9190611ab1565b15610c785760405162461bcd60e51b815260206004820152600a60248201527f4f564552534e4f4f5a4500000000000000000000000000000000000000000000604482015260640161031b565b806001015442101580610c9d575060018101546002820154610c9a9042611acc565b10155b610ce95760405162461bcd60e51b815260206004820152600960248201527f544f4f5f4541524c590000000000000000000000000000000000000000000000604482015260640161031b565b80600101544211610cfe578060010154610d00565b425b8160020154610d0f9190611acc565b6001820181905560408051338152602081018790528082018690526060810192909252517fa2fc4bbee1f41c0db0ce3739548fead7aa49fd89bc36479d85f7281994050dd09181900360800190a16001015490505b92915050565b60008060c960009054906101000a90046001600160a01b03166001600160a01b031663b83ac19f6040518163ffffffff1660e01b8152600401602060405180830381865afa158015610dc0573d6000803e3d6000fd5b505050506040513d601f19601f82011682018060405250810190610de49190611a66565b604051630f5d2cd560e11b815233600482015260248101899052600060448201526001600160a01b039190911690631eba59aa90606401602060405180830381865afa158015610e38573d6000803e3d6000fd5b505050506040513d601f19601f82011682018060405250810190610e5c9190611a83565b11610e985760405162461bcd60e51b815260206004820152600c60248201526b12d15657d393d517d211531160a21b604482015260640161031b565b60c9546040516344766d2960e11b815260048101889052600091829182916001600160a01b0316906388ecda5290602401600060405180830381865afa158015610ee6573d6000803e3d6000fd5b505050506040513d6000823e601f3d908101601f19168201604052610f0e9190810190611aed565b509350935050925080610f635760405162461bcd60e51b815260206004820152600c60248201527f4b45595f4e4f545f524f4f540000000000000000000000000000000000000000604482015260640161031b565b851561104a5760c9546040516344766d2960e11b81526004810187905260009182916001600160a01b03909116906388ecda5290602401600060405180830381865afa158015610fb7573d6000803e3d6000fd5b505050506040513d6000823e601f3d908101601f19168201604052610fdf9190810190611aed565b50509250509150848015610ff05750815b8015610ffb57508084145b6110475760405162461bcd60e51b815260206004820152601260248201527f494e56414c49445f534e4f4f5a455f4b45590000000000000000000000000000604482015260640161031b565b50505b60ca546040805160208082018d90528183018c9052606082018b9052608082018a905260a08083018a90528351808403909101815260c083019384905280519101207f8942e5850000000000000000000000000000000000000000000000000000000090925260c4810185905260e481019190915261010481018a90526000916001600160a01b031690638942e58590610124016020604051808303816000875af11580156110fd573d6000803e3d6000fd5b505050506040513d601f19601f820116820180604052508101906111219190611a83565b604080516080808201835283825260208083018d81528385018d815260608086018e8152600089815260cb8652889020965187559251600187015590516002860155905160039094019390935583513381529081018890529283018e90529082018b9052810189905260a0810188905260c081018290529091507f5378c0f855cfb74215688e7d2565f6cb7ba7e537a232cead346ce012e16efcf59060e00160405180910390a19998505050505050505050565b6111dd6114e8565b6001600160a01b0381166112595760405162461bcd60e51b815260206004820152602660248201527f4f776e61626c653a206e6577206f776e657220697320746865207a65726f206160448201527f6464726573730000000000000000000000000000000000000000000000000000606482015260840161031b565b6105b681611542565b6105b66114e8565b7f4910fdfa16fed3260ed0e7147f7cc6da11a60208b5b9406d12a635614ffd91435460ff161561129d5761071b836115a1565b826001600160a01b03166352d1902d6040518163ffffffff1660e01b8152600401602060405180830381865afa9250505080156112f7575060408051601f3d908101601f191682019092526112f491810190611a83565b60015b6113695760405162461bcd60e51b815260206004820152602e60248201527f45524331393637557067726164653a206e657720696d706c656d656e7461746960448201527f6f6e206973206e6f742055555053000000000000000000000000000000000000606482015260840161031b565b7f360894a13ba1a3210667c828492db98dca3e2076cc3735a920a3ca505d382bbc81146113fe5760405162461bcd60e51b815260206004820152602960248201527f45524331393637557067726164653a20756e737570706f727465642070726f7860448201527f6961626c65555549440000000000000000000000000000000000000000000000606482015260840161031b565b5061071b83838361166c565b600054610100900460ff166114755760405162461bcd60e51b815260206004820152602b60248201527f496e697469616c697a61626c653a20636f6e7472616374206973206e6f74206960448201526a6e697469616c697a696e6760a81b606482015260840161031b565b610963611697565b600054610100900460ff166109635760405162461bcd60e51b815260206004820152602b60248201527f496e697469616c697a61626c653a20636f6e7472616374206973206e6f74206960448201526a6e697469616c697a696e6760a81b606482015260840161031b565b6033546001600160a01b031633146109635760405162461bcd60e51b815260206004820181905260248201527f4f776e61626c653a2063616c6c6572206973206e6f7420746865206f776e6572604482015260640161031b565b603380546001600160a01b0383811673ffffffffffffffffffffffffffffffffffffffff19831681179093556040519116919082907f8be0079c531659141344cd1fd0a4f28419497f9722a3daafe3b4186f6b6457e090600090a35050565b6001600160a01b0381163b61161e5760405162461bcd60e51b815260206004820152602d60248201527f455243313936373a206e657720696d706c656d656e746174696f6e206973206e60448201527f6f74206120636f6e747261637400000000000000000000000000000000000000606482015260840161031b565b7f360894a13ba1a3210667c828492db98dca3e2076cc3735a920a3ca505d382bbc805473ffffffffffffffffffffffffffffffffffffffff19166001600160a01b0392909216919091179055565b6116758361170b565b6000825111806116825750805b1561071b57611691838361174b565b50505050565b600054610100900460ff166117025760405162461bcd60e51b815260206004820152602b60248201527f496e697469616c697a61626c653a20636f6e7472616374206973206e6f74206960448201526a6e697469616c697a696e6760a81b606482015260840161031b565b61096333611542565b611714816115a1565b6040516001600160a01b038216907fbc7cd75a20ee27fd9adebab32041f755214dbc6bffa90cc0225b39da2e5c2d3b90600090a250565b60606001600160a01b0383163b6117ca5760405162461bcd60e51b815260206004820152602660248201527f416464726573733a2064656c65676174652063616c6c20746f206e6f6e2d636f60448201527f6e74726163740000000000000000000000000000000000000000000000000000606482015260840161031b565b600080846001600160a01b0316846040516117e59190611bee565b600060405180830381855af49150503d8060008114611820576040519150601f19603f3d011682016040523d82523d6000602084013e611825565b606091505b509150915061184d8282604051806060016040528060278152602001611c3e60279139611856565b95945050505050565b6060831561186557508161188f565b8251156118755782518084602001fd5b8160405162461bcd60e51b815260040161031b9190611c0a565b9392505050565b6000602082840312156118a857600080fd5b5035919050565b6001600160a01b03811681146105b657600080fd5b6000602082840312156118d657600080fd5b813561188f816118af565b600080604083850312156118f457600080fd5b82356118ff816118af565b9150602083013561190f816118af565b809150509250929050565b634e487b7160e01b600052604160045260246000fd5b604051601f8201601f1916810167ffffffffffffffff811182821017156119595761195961191a565b604052919050565b6000806040838503121561197457600080fd5b823561197f816118af565b915060208381013567ffffffffffffffff8082111561199d57600080fd5b818601915086601f8301126119b157600080fd5b8135818111156119c3576119c361191a565b6119d5601f8201601f19168501611930565b915080825287848285010111156119eb57600080fd5b80848401858401376000848284010152508093505050509250929050565b60008060408385031215611a1c57600080fd5b50508035926020909101359150565b600080600080600060a08688031215611a4357600080fd5b505083359560208501359550604085013594606081013594506080013592509050565b600060208284031215611a7857600080fd5b815161188f816118af565b600060208284031215611a9557600080fd5b5051919050565b80518015158114611aac57600080fd5b919050565b600060208284031215611ac357600080fd5b61188f82611a9c565b80820180821115610d6457634e487b7160e01b600052601160045260246000fd5b600080600080600060a08688031215611b0557600080fd5b611b0e86611a9c565b9450602080870151945060408701519350611b2b60608801611a9c565b9250608087015167ffffffffffffffff80821115611b4857600080fd5b818901915089601f830112611b5c57600080fd5b815181811115611b6e57611b6e61191a565b8060051b9150611b7f848301611930565b818152918301840191848101908c841115611b9957600080fd5b938501935b83851015611bb757845182529385019390850190611b9e565b8096505050505050509295509295909350565b60005b83811015611be5578181015183820152602001611bcd565b50506000910152565b60008251611c00818460208701611bca565b9190910192915050565b6020815260008251806020840152611c29816040850160208701611bca565b601f01601f1916919091016040019291505056fe416464726573733a206c6f772d6c6576656c2064656c65676174652063616c6c206661696c6564a2646970667358221220dfcd8b0c1bce2e46bd7032ee2ea7c1b2a3250fd5f554a5fe9c661f3f962e799364736f6c63430008100033",
  "linkReferences": {},
  "deployedLinkReferences": {}
}